:100000006F60A02F13000000130000001300000019
:100010001300000013000000130000001300000094
:100020001300000013000000130000001300000084
:08003000130000007300100032
:100038006FF09FFC000000006F0060186F00401810
:1000480000000000000000000000000000000000A8
:100058000000000000000000000000000000000098
:100068006F600029000000006F6080280000000019
:100078006F6000286F60C0276F6080276F6040271F
:100088006F6000276F60C0266F6080266F60402613
:100098006F6000266F60C0256F6080256F60402507
:1000A8006F6000256F50C06A6F6080246F604024C5
:1000B8006F6000246F60C0236F6080230000000021
:1000C8000000000000000000000000006F604022F7
:1000D8006F6000226F60C0216F6080216F604021D7
:1000E8006F5070046F1050696F6080206F604020FF
:1000F8006F6000206F60C01F6F2060126F60401F2C
:100108006F60001F6F60C01E6F60801E6F60401EB2
:100118006F60001E6F60C01D6F60801D6F00C01291
:1001280000000000000000000000000000000000C7
:080138000000000000000000BF
:10014000397101436EC619A0397141536AC866CA34
:1001500062CC5ECE19A0397101535AD056D252D416
:100160004ED64AD826DA22DC06DE3301614082828E
:1001700041114AC026C222C406C68282B24D410144
:10018000024D924C224CB24B4101024B924A224A00
:10019000B2494101024992442244B2404101828065
:1001A0002A8309CA83830500230073007D16050393
:1001B00085056DFA82802A8311C62300B3007D165F
:1001C000050365FE828001A001A0EFF27FFA1145D0
:1001D0008545EF605072B747024093870780984388
:1001E00001451367470098C303A74181B7A74A0495
:1001F000938707206309F700B777DC02938707C06E
:100200006315F7000545EF60D05C85450565EF6037
:10021000B06C49B737370240930700FC2306F7401C
:1002200093874124C207C1832318F740938781A293
:1002300023A2F1A2C207C183231AF74089472309E9
:10024000F742230BF74293870188A380070082803F
:10025000011122CE26CC4ACA4EC852C656C43734E3
:10026000024003476440834774409376F70F098B3D
:100270006305076693F7F70F13F70703930500026B
:10028000630BB70A930600036308D71E4DEF13F7FD
:10029000F7036309071885466317D70A93F707041E
:1002A000DDC3834764431389812293C70708230B67
:1002B000F442035784408347090037250020137711
:1002C000F70FCA97A381E7008347090003568440CC
:1002D00083A541A29A07130505CD3E951376F63FF7
:1002E000C135834709006147850793F7F70F23005E
:1002F000F90083460900938781226394E6002380F6
:10030000070003C7270005071377F70F2381E700CE
:1003100083C627004D476378D702B736024003C72C
:1003200066431377370F13678700238BE642054731
:10033000A38DE70009A893F7F7036384E702130787
:100340001002638EE70AB737024009472383E7406C
:100350007244E2445249C249324AA24A05617300DA
:10036000203083D7E18899E78347244393F7370FF9
:100370002309F44283C7418993F70706E9F783C746
:100380005189954613F7F70F638FD7049947E31CFC
:10039000F7FA03D7E1889307F0031304000463E638
:1003A000E70003D4E1884204418003A981892286C1
:1003B000CA8513854124ED3383D7E188229923AC84
:1003C0002189818FC207C1832397F1881374F40FA9
:1003D000B73702402388874203C7274313470704E0
:1003E0002389E7428DB7B736024003C7364083C73B
:1003F000C18813770708D98FA381F640A9B783472F
:10040000644393F7C70F93E72700230BF442834716
:10041000644393C70704230BF44293870188A380A6
:10042000070015B793F70704E38F07F083C74189E7
:1004300093F70706E38907F083C7418993F7070617
:10044000E393B7F003C75189A547E31EF7EE37459D
:10045000002013060004938541241305850B89337E
:100460000547238EE1A08347244393F7C70F93E703
:1004700027002309F442C1BD9307A0FC2309F442DD
:100480001387412483470700238AF1888347170095
:1004900083562700A38AF188835767002397F18842
:1004A0002399D188835647002398D18803C941896D
:1004B00093864124137909066309090C83C741898E
:1004C00093F70706639EB70283C751892946FD1734
:1004D00093F7F70F6363F6182D668A071306065B1A
:1004E000B2979C43828783D7018963980716B745E3
:1004F0000020130600049385850B138541244D319C
:1005000083C74189E207E18763D6073A03D7E188C9
:100510009307000463E6E70083D7E188C207C1833D
:1005200003D7E1881D8F420741832397E18893F722
:10053000F70F373702402308F7428347274393F7E3
:10054000C70F2309F74201B583D7018963970710C5
:1005500003C73600A384E18865B783D70189639E0A
:10056000070E03C726002384E18859BF83D701897A
:100570006395070E83C791882380F60051B783D710
:100580000189E1EF83C78188C5BF83C551892D48A3
:1005900013F6F50F6363B80CAD650A069385C55D68
:1005A0002E961042028683D621890D46A18263864B
:1005B000C60C636CD6008547638CF602894763815D
:1005C000F60481471309F00F81A893071002638B8B
:1005D000F60893072002E396F6FE83D70189F5F328
:1005E000B167938747DC23ACF1889307F00D2DA00A
:1005F000B167938747EA23ACF18883C7070029A82E
:10060000B72700209387878023ACF18803C7270092
:1006100083C73700A207D98F03D7E18863F4E700C7
:100620002397F18803D7E1889307F003130A0004A6
:1006300063E7E70003DAE188420A135A0A0183AA52
:100640008189528613854124D685993ED29A23AC5E
:1006500051899307F00FE315F9EAB7370240130702
:10066000F0FCBDBB83D70189A9FFB7270020938782
:10067000A78123ACF188A54745B783D721890947CE
:1006800093F7F70F6387E702636BF70099EF9387A0
:10069000818723ACF188014983C70700B5BFE39286
:1006A000D7F2B167938747D7B9B7B167938787DB2D
:1006B00099B7B1679387C7D83DBF83D721892D6587
:1006C00093F7F70F2386F18883C5C1881305C557B3
:1006D000EF70B00835B583C7D1882380F60003D703
:1006E000E1888547E3FEE7E02397F18811BD83D7D2
:1006F000218993F7F70FA386F18805472385E188C1
:1007000001B583C64189FD8A99EE83D721890547C2
:1007100093F7F70FE396E7DE83C7B18893F7E70F08
:10072000A385F188F1BB83C641890946FD8AE3961A
:10073000C6F283D7218993F7F70FE39007F283D7A7
:100740000189054793F7F70F6381E7021307200834
:10075000E395E7F0373702408347A74393F7C70B8A
:1007600093E72700230DF74261BB373702408347E9
:10077000674393F73707230BF7428347674393F7A2
:10078000C70B93E72700230BF7429DBB83C6418924
:10079000FD8A8DE683D72189054793F7F70FE39EFE
:1007A000E7EAB727002083C7F78093F70702E386BD
:1007B00007EA83C7B18893E717009DB783C64189CD
:1007C0000946FD8AE39BC6E883D7218993F7F70F93
:1007D000E39507E883D701891307100893F7F70F0C
:1007E000638FE70013072008E399E7E637370240F5
:1007F0008347A74393F7C70B93E73700A5B737376E
:1008000002408347674393F7370793E7C700230BFB
:10081000F7428347674393F7C70B93E73700A5B7C2
:10082000238006006DBD83C7418923920124FD8B7F
:1008300099EB83C7B188858BBDC389472380F600B8
:1008400003D7E18845B583C741890946FD8B639C81
:10085000C70403D70189130610081377F70F630D38
:10086000C700130620086305C70203D7E188E3F633
:10087000E7DE2397F188D5B3373702400347674354
:100880003146318BE31EC7FA05472380E6004DBF92
:10089000373702400347A7430D460D8BE5B703D713
:1008A000E188894781B583D7E188E378F6DA239731
:1008B000C18865B383D7E18891EBB73702402388BD
:1008C000074203C727431377C70F19BE37370240C4
:1008D0008347274393F7370FADB193F716009DC3B6
:1008E000A386018823860188A38501882385018842
:1008F000A301044005328347644093E717002303B4
:10090000F440B9B493F746008DCF91472D6523038A
:10091000F4401305C558EF70806603475440118BAF
:1009200011CB03C7B18813672700A385E18883C76C
:10093000B18839BC03C7B1881377D70FA385E18885
:1009400001BC2303D44029B4EFF29F82B747024091
:10095000938707809843ADE11367870098C33734C6
:10096000024099472300F44031C92945EF50201136
:100970009D47230004402301F44093079002230085
:10098000F440EFF03F89930710F8A300F4403707D5
:100990000008B7E700E023A2E71037E700E093077D
:1009A00000257CC3B207B706003BB183D58F3CD38B
:1009B000A30D07426FF00FFE5D9B4DB72945EF5029
:1009C000000CB7E700E023000440B843C146B4C3BD
:1009D0003706000893860718D0C2B8C37DBFEFF270
:1009E0002FF937070001AA87130707F07D8F996653
:1009F0002E856307D700A166630CD7006FF08FF9CF
:100A000093F7F70F93858134BE95EFF06FF9FDB73B
:100A100093F7F70F93850130C5BF1306B007938591
:100A2000412805456DAB1306B00793854128054560
:100A30009DA3EFF2EFF303A4C18931CC13060008A4
:100A4000FD55228593848134EFF0EFF6614693855E
:100A5000040213054400EFF0AFF449469385D40334
:100A60001305C401EFF0CFF3354693850405130554
:100A7000E402EFF0EFF26146938504081305B40336
:100A8000EFF00FF249469385840913053405EFF022
:100A90002FF1230004006FF0EFEFEFF26FED03A5ED
:100AA000C189413F09451D2B6FF0CFEEEFF24FECAE
:100AB000B7070001938707F0E98F19676388E7009C
:100AC0002167638EE70001456FF0CFEC9387813497
:100AD0001375F50F3E95EFF0AFECC137F5B793877F
:100AE00001301375F50F3E95EFF08FEB1306800480
:100AF0009385013001454521C1BFEFF2CFE503A445
:100B0000C18963020420834704009309C4011309C7
:100B100034056381071A930740FCA30EF400930782
:100B2000C0041307C0FC230FF4002302F402930750
:100B300000F8230EE4002301E402A300F4021307EB
:100B400040FCA147A301E4022300F4022546CE8520
:100B5000A30F040013055402EFF08FE49307200362
:100B60002308F4022307F402930700032301F4048B
:100B700093071006A301F4049307E0FA2302F40498
:100B8000930700F9A302F404930790FD2303F404F0
:100B9000930740FDA303F404D1472304F40493070F
:100BA0004005A304F4042306F404930770FCA30691
:100BB000F404930790072307F4049307C0F913077D
:100BC0001003A307F40493073003A307E4022308E8
:100BD000F4041307100493076003FD543D4A2305F2
:100BE000E404A308F404554793073006A305E4047E
:100BF0002309F404A309940223099402A30894028C
:100C0000A30044054946930514044A85EFF04FD9E3
:100C10009307B0052302F4009307B0F82303F40010
:100C2000930760F92304F4008547A304F4009307B5
:100C30000004A305F400A306F400A307F400F5479D
:100C40002308F4009307E0FB2309F400B957230AB3
:100C5000F40093074003A30BF400A30CF400A30DCE
:100C6000F40093070005A30DF402F5571307B00332
:100C7000230EF402930760FCA3020400A303940074
:100C8000230504002306040023070400A30804002E
:100C9000A3099400A30A9400230BE400230CE400AE
:100CA000230DE400A30E0402230F0402A30FF40299
:100CB00023004405938481346146930544001385E1
:100CC0000402EFF0EFCD4946CE851385D403EFF053
:100CD0002FCD35469305E40213850405EFF04FCC84
:100CE00061469305B40313850408EFF06FCB4946C2
:100CF000CA8513858409EFF0AFCA8347040081C712
:100D000023000400593B6FF04FC8EFF26FC683A574
:100D1000C189130650060945D92403A5C189F13BB1
:100D20006FF04FC7EFF2CFC40545EF4010191384A1
:100D3000412803459401EFA0205883A50186EF9038
:100D4000302623A2A1960345A401EFA0E05683A577
:100D50000186EF90F02423A0A1960345B401EFA0F3
:100D6000A05583A50186EF90B023544423AEA194EF
:100D700093D78600C207C183B387F7021387018A1E
:100D8000E1821CC383470401A207D58FB387F70212
:100D90005CC36FF02FC0EFF2AFBD1306100BFD5513
:100DA00013858134EFF02FC13D2423AEA188B13FDC
:100DB00093878134130700F82380E70069770D07D4
:100DC0002399E70013068004054793850130014508
:100DD000A38DE70029249387013003C7070015C3BB
:100DE0002147A38007002381E700A3810700238216
:100DF000E700A38207002383E700A383070023847F
:100E0000E7001306B007FD5513854128EFF0AFBA90
:100E1000293183C7412813844128858BDDCF1306F0
:100E2000B007814513854128EFF0EFB8A14711467F
:100E3000930500031385B128A300F4002301F400F7
:100E4000EFF06FB711469305000813857128EFF096
:100E50008FB661779387212A1347F7F72391E7002D
:100E60002390E70091472307F4002308F4008967E3
:100E7000938717B02311F402930740FC130700FB7C
:100E8000A305F400A547A306E400A307E400230696
:100E9000F40001478D45FD566D46B307B7020507BF
:100EA000A2972382D702A382D7022383D702E31615
:100EB000C7FE9307F007A30CF400E17793C7F7F799
:100EC000231DF4008947230EF400C147A308F40052
:100ED000930770022309F400B936A935834524002D
:100EE000B727002093878780A380B70203461400AA
:100EF0002D651305C5602384C702EF700006030744
:100F0000A4008306940003068400830574002D6505
:100F100013050562EF7060040347640083465400C4
:100F200003464400834534002D6513058563EF7047
:100F3000C002373500201946930534011305E548F2
:100F4000EFF00FA66FF00FA58D4763E3A704EFF254
:100F50002FA2B70710009387071E3E951314750044
:100F6000930500082285EF5070181147AA8489471D
:100F7000631DE500130600089385C13F2285EF50ED
:100F800090278D476313950081473E856FF08FA0B2
:100F900085473E8582808DCDEFF2EF9B9307000859
:100FA0002A89B2841305E00F63E2C7022E84130678
:100FB000000881451385C13FEFF0EF9F2686A2858B
:100FC0001385C13FEFF0CF9D4A85BD3F6FF0EF9B8A
:100FD0001305F00F82801385C13F8280B5B70D479E
:100FE000AA87636BA7022E851307F00F9DC5930593
:100FF00000081307E00F63E2C502EFF26F973707AF
:1010000010001307071EBA9793957700EFF04F99DA
:1010100001473A856FF00F9805473A858280EFF2D5
:101020002F954111AA8511466800EFF06F97324560
:1010300041016FF02F96EFF2AF93797161468145D0
:101040002808EFF04F97014502C602C802CAEF50C8
:10105000907A371501409307A0036C0013050580B3
:10106000372401402316F10002CAEF50502A13051D
:101070000440EF50603085473ECE3ED0B7070E00AB
:101080003ED22C089147130504402306F10202CCFE
:1010900002D4EF500031854513050440EF5060360F
:1010A000854513050440EF50C03413050440EF504C
:1010B0006036930404402685EF5060366DFD1305BD
:1010C000044037240140EF50003693040440268545
:1010D000EF5000366DFD13050440EF50E0422394BD
:1010E000A18A45616FF00F8BEFF28F8839712A84E6
:1010F0002E89B28481451306C002480836C6EFF037
:101100008F8B2285EF500057930700083ED493073A
:101110000010B2463ED6930700403ED89307000227
:101120003EDA4C088D6722854ACA26CC36D03EDC92
:1011300002CE02D202DEEF50806321616FF08F8514
:10114000EFF20F83CD3D8395818A2D6513050565EB
:10115000EF60B06037240140B70402409305C444F7
:101160001385840091461386C18ABD3F1305044050
:101170009D4605468545EF50A02D130504409D462C
:1011800009469545EF50C02C130504409D460D4679
:101190008D45EF50E02B9D461146130504409145C7
:1011A000EF50002B138584008545EF50C05F8545C7
:1011B00013050440EF5040286FE0DFFD416793873F
:1011C000C14793060710D4D79306170013070704E7
:1011D000D8C33717020098C337270200D8C737474C
:1011E000020098C73707020094D793068700F4C31C
:1011F00093060702B4C3E166F4C793060701B4C7B8
:1012000093060720B4CFB726040094CF93060710A7
:10121000F4CFB7460400D4CF9306070494D32D65CA
:10122000B7860400D4D313070708B78602008945A0
:101230001305856694DBD8DB6F603052EFE2BFF1B7
:101240004111AD3F9384C14793078004C16902C235
:1012500002C43EC6138904061384C147138AF9FFEA
:10126000AD6A0C40B3F7350189CFB3F5450113855D
:101270008A67EF60904E835741001840D98F231240
:10128000F1001104E31F24FD371501404C00130544
:101290000580C169EF50B007268423120100370A88
:1012A0000200FD19AD6A0C40B3F7450189CFB3F5D3
:1012B000350113858A68EF60504A83574100184012
:1012C000D98F2312F1001104E31F24FD37150140CB
:1012D0004C00130505C04164EF507003B7090400CA
:1012E000231201007D142D6A8C40B3F7350181CFA4
:1012F000E18D13058A69EF6050468357410098409D
:10130000D98F2312F1009104E39024FF4C0037158C
:101310000140EF50C07F41016FE03FE7EFE2DFE2C5
:1013200037190140130B09C01384C1478144814917
:10133000370A0700B70A0200B70B0400416C130913
:1013400009800C40B3F74501638A5703638C770328
:10135000054563978701C205C1814A85EF50500753
:101360001335150033159500E1478504B3E9A9004D
:101370001104E398F4FC4E856FE09FE0C205C18143
:101380005A85E9BFC205C18137150140C1BFEFE2EF
:101390003FDEB7070700E98F37070200AA8563849D
:1013A000E702370704006388E70241670545639A4F
:1013B000E700C20537150140C18113050580EF50D4
:1013C00030016FE03FDD9315050137150140C18104
:1013D000130505C0EDB793150501C181371501400F
:1013E000F9BFEFE2FFD879712A848545314502CAF9
:1013F00002CC02CE02D002D202D402D602C402C66D
:1014000023180100EF50304F631004128545094541
:10141000EF5050503715014061478D474C08130578
:1014200005C03ACE37040040231AF1003ECCEF50FD
:10143000006E9307005A2C00130504403EC602C4F8
:10144000EF50B05E0546854513050440EF6040044B
:10145000C167938707060C10130504403ED0231381
:10146000010223140102EF50D0630C101305044055
:10147000EF50B06B0C1013050440EF5030768545EB
:1014800013050440EF50707FA14513050440EF6041
:101490006003A14513050440EF60E003A145130577
:1014A0000440EF60E004A14513050440EF606005CF
:1014B000814513050440EF50107F9305002D13055F
:1014C0000440EF60A0059305002D13050440EF6074
:1014D00040059305002D13050440EF60E0049305DB
:1014E000002D13050440EF608004EF009001930786
:1014F000D0122310F10099472301F1000A85854796
:101500003EC2EF5050188967938707F837E700E02D
:101510007CC3B207B183B706002DD58F3CD7854574
:1015200013050440EF50B07345616FE0BFC6AA8554
:1015300037050040130505406F5070722A883A85C0
:101540000947630AE8000D47630EE800328563052A
:1015500008023685828063C1A5022E8563DCB70050
:101560003E8509A82E96420641866347A60032852D
:10157000E3C8C7FE42054185828019473305E5026D
:10158000B7070020938707002E86014781463E95C6
:1015900083152500034505009307001045B719473B
:1015A0003305E502B7070020938707002E8613074F
:1015B000000C930600103E95831545000345150069
:1015C00093070014A5BF1387C18B144358430E051E
:1015D0009387C14DAA9794C3D8C38280EFE25FB9C5
:1015E000834435001384C18B831504008580FD88F6
:1015F0002A8926855937831524002310A4002685BF
:10160000793F834439008347290083154400858846
:1016100091839204DD8C2311A4002685B93F8315A4
:1016200064002312A40026859D3F2313A4000145D6
:10163000593F0547A382E18C6FE0DFB5EFE25FB36E
:101640000347350083472500370600201377F7034B
:1016500093D677000607558F931517009306061C3F
:10166000AE96839506001306061C239EB18A9386C8
:10167000C18B89C5B725002023A6E58A370700203E
:1016800093F7F7071307070C8607BA9783D7070066
:101690002391F6008347150093F7E70F3E96835793
:1016A0000600034605002392F600834715000982D1
:1016B0000145858B9A07D18F86073E978357070090
:1016C0002393F60009370547A382E18C6FE09FACB6
:1016D000EFE21FAA83473500834625000347050034
:1016E00093F7F7039D82860713764700D58F058B06
:1016F000AA841384C18B86076309070C630D060A4D
:10170000370700201307070CBA9783D70700231366
:10171000F40001454D3D03C924008315040013590D
:1017200029001379F9014A85893D83152400231086
:10173000A4004A85AD3503C9240083C7140083156E
:1017400044001379390095830E093369F900231198
:10175000A4004A851D35831564002312A4004A8520
:101760003D3D2313A4000545B93D03C9140083156D
:1017700004001379F9014A850935831524002310E3
:10178000A4004A85293D83C4040083154400231125
:10179000A4008D802685D533831564002312A40010
:1017A0002685F53B2313A4000945313D0D47A3824F
:1017B000E18C6FE03F9E370700201307071CBA97A4
:1017C00083D707002312F400A9B719CA37070020EE
:1017D0001307070CBA9783D707002311F40015BF2E
:1017E000370700201307071CBA9783D70700231079
:1017F000F40005B7EFE2DF97034935001384C18B8E
:1018000083150400135919001379F901AA844A8534
:10181000AD33831524002310A4004A85493303C93E
:10182000340083C724008315440013791900918381
:1018300012093369F9002311A4004A853D3B831541
:1018400064002312A4004A85993B2313A400014598
:101850009D3B03C9240083C714008315040013793A
:10186000F9009D8306093369F9004A8539338315E8
:1018700024002310A4004A851D3383C4140083155B
:1018800044002311A4008980FD882685FD3183153D
:1018900064002312A400268519332313A4000545F0
:1018A0001D330947A382E18C6FE0DF8EEFE25F8C8E
:1018B00083473500834425003707002093F7F7035B
:1018C00093D674008607D58F1307071C8607BA972F
:1018D0000347050083960700B70700201376E70F3C
:1018E0009387070CB2978980058B839707002A8915
:1018F000FD881384C18B49C78315040026852312F4
:10190000D4002313F400EFF05FC7831524002310E5
:10191000A4002685EFF0BFC82311A4000145EFF015
:101920009FCA8344290083471900831504008D88CA
:1019300095838E04DD8C2685EFF03FC4831524004B
:101940002310A4002685EFF09FC58344190083155A
:1019500044002311A400FD882685EFF01FC28315E3
:1019600064002312A4002685EFF07FC32313A40094
:101970000545EFF05FC50947A382E18C6FE09F81C9
:101980008315440026852310D4002311F400EFF0C2
:10199000DFBE831564002312A4002685EFF03FC04C
:1019A0002313A400A5BFEFE2AFFC03493500138465
:1019B000C18B83150400135919001379F901AA8406
:1019C0004A85EFF09FBB831524002310A4004A85AD
:1019D000EFF0FFBC03C9340083C724008315440023
:1019E00013791900918312093369F9002311A400B6
:1019F0004A85EFF09FB8831564002312A4004A853E
:101A0000EFF0FFB92313A4000145EFF0DFBB03C9DA
:101A1000240083C71400831504001379F9009D8303
:101A200006093369F9004A85EFF03FB583152400B4
:101A30002310A4004A85EFF09FB603C91400831554
:101A400044002311A400135929001379F9014A8590
:101A5000EFF0BFB2831564002312A4004A85EFF0B3
:101A60001FB42313A4000545EFF0FFB503C914000C
:101A700083C70400831504001379390095830E0988
:101A80003369F9004A85EFF05FAF83152400231016
:101A9000A4004A85EFF0BFB083C40400831544005E
:101AA0002311A400FD882685EFF03FAD8315640067
:101AB0002312A4002685EFF09FAE2313A40009454E
:101AC000EFF07FB00D47A382E18C6FE0AFECEFE267
:101AD0002FE7034735002382018C198389462E8422
:101AE0009384C14D6305D70C8D466300D70E8546A0
:101AF0006313D70403471500834725008346050079
:101B00002207BD8B558FC207D98FD1EBEFF01FADE8
:101B1000370C0020014DA68B138A418B130C0C2C23
:101B2000938C4128930D001437992F50A54983C7F2
:101B3000518C634EFD088347340005472382E18CB6
:101B4000A382018C99838946638DD7108D46638962
:101B5000D7126392E70203471400834724008346A9
:101B600004002207BD8B558FC207D98F6392070EE1
:101B70002285EFF0BFA6370A0020814B1384418BEA
:101B8000130A0A2C138B4128130C001437992F5079
:101B9000A54983C7518C63C9FB0E6FE02FDE8D8A88
:101BA00081E6EFF0BFA9ADB7EFF09FB295B78347DD
:101BB0001500034705008D8BA207D98F81E7EFF051
:101BC0007FC3B9B7EFF09FCEA1B7F13B91B70397B1
:101BD0004B0083C73C0081460A07629718434A8539
:101BE000CE85B387E702050DA10BAD832322FA0052
:101BF0008397EBFF8A07E29790433386CD02050671
:101C0000EF60203D2320AA00D2850145B52203972D
:101C10008BFF83C75C001306000A0A07629718430C
:101C200081464A85B387E702CE85AD832322FA0039
:101C30008397ABFF8A07E2979C433306F6020506BB
:101C4000EF6020392320AA00D28509453522C5B589
:101C50008D8A228581E6EFF07F9E31BFEFF05FA78E
:101C600019BF834714000347040022858D8BA20708
:101C7000D98F81E7EFF01FB8FDBDEFF03FC3E5BDA1
:101C80002285EFF05FD2C5BD0397440083474B0028
:101C900081460A07529718434A85CE85B387E702E3
:101CA000850BA104AD835CC08397E4FF8A07D297BC
:101CB00090433306CC020506EF60A03108C0A28530
:101CC00005455D28039784FF83476B001306000AD0
:101CD0000A075297184381464A85B387E702CE85A3
:101CE000AD835CC08397A4FF8A07D2979C433306D9
:101CF000F6020506EF60E02D08C0A2850D45AD286F
:101D000049BDEFE2EFC6B735002037350020A146C8
:101D1000130600029385C589130505B4EF30205DD5
:101D200037350020A146130600029385416F130545
:101D300045ABEF30C05B37350020A14613060002EB
:101D40009385415F130585A2EF30605A3735002037
:101D5000A146130600029385414F1305C599EF3044
:101D600000598547238CF18EA38CF18E238DF18E43
:101D7000A38DF18E6FE00FC2BDC1EFE26FBF894747
:101D8000630AF50263E3A7020DED373500208146B3
:101D90002146130505B4EF30E05919C9AA852D6510
:101DA0001305856AEF60601B21A08D476302F50271
:101DB0006FE04FBE3735002081462146130545AB05
:101DC000D9BF3735002081462146130585A2E1B7EA
:101DD00037350020814621461305C5996DBF8280A5
:101DE000EFE20FB983C7B18F9DCF3735002093073E
:101DF00005B483C6770885CA83C74708B73600206D
:101E00009386C6898E07B6979443DC43A38D018ED3
:101E100013878191130505B45CC314C3EF30005CD4
:101E20000547A38FE18E83C7A18F8DCF3735002063
:101E3000930745AB83C6770895C683C74708938643
:101E4000416F8E07B6979443DC43238D018E138731
:101E50000191130545AB5CC314C3EF30205805470F
:101E6000238FE18E83C7918F8DCF37350020930765
:101E700085A283C6770895C683C747089386415FC6
:101E80008E07B6979443DC43A38C018E1387819011
:101E9000130585A25CC314C3EF3040540547A38EDD
:101EA000E18E83C7818F8DCF373500209307C59989
:101EB00083C6770895C683C747089386414F8E0728
:101EC000B6979443DC43238C018E1387019013054E
:101ED000C5995CC314C3EF3060500547238EE18E73
:101EE0006FE04FAB15CE9841E1679387076A3E9745
:101EF00098C16374C70001458280B356C7028357F7
:101F000005003377C702B697C207C1832310F500D7
:101F100098C113D7B70065D393F7F77F2310F50067
:101F200005458280EFE2CFA483C741282A87368403
:101F300093F707042E855443B2859DC3854789CE08
:101F400010434D37814709C983A7818C1840998F69
:101F500093B7A70F93C7170013F5F70F6FE08FA381
:101F600081EE03A5818C1C401D8D1335A50F1345F3
:101F700015001375F50FDDB71043AD377DF1D5BFF3
:101F800037050040797185451305054022D626D4D2
:101F90004AD24ED052CE56CC5ACA5EC862C666C429
:101FA0006AC2EF50E05985476310F51E03A4818C87
:101FB000AA840504138581939386818D1386C18E2F
:101FC0009385618F23A4818CB13F9389819315C53B
:101FD00003C7F18F1DC3A38F018E9387819198430F
:101FE000DC43239B018E23A0E90023A2F90023A652
:101FF000018EA38D918E23AC818C138501939386E2
:10200000418D1386818E9385418F293F13890193DA
:102010001DC503C7E18F05C7238F018E93870191EB
:102020009843DC43239A018E2320E9002322F90000
:10203000054723A4018E238DE18E23AA818C13856D
:1020400081929386018D1386418E9385218FEFF0C7
:102050007FED938481920DC503C7D18F15C3A38EE5
:10206000018E938781909843DC432399018E98C019
:10207000DCC0054723A2018EA38CE18E23A8818CAE
:102080009386C18C1386018E9385018F13850192EF
:10209000EFF05FE9938601920DC503C7C18F15C3A9
:1020A000238E018E938701909843DC432398018E01
:1020B00098C2DCC2054723A0018E238CE18E23A6A3
:1020C000818C83D7618F370700209305077C8607B3
:1020D000AE9703A54900839707001307077CB387D2
:1020E000A70203D5418F0605AA9583950500032510
:1020F0004900B385A502AE979305002DB387B702BB
:10210000D1879387072D63D3070081479305005A32
:1021100063D4F5009307005A23AEF18C83D5C18DAB
:10212000B7070040D442239EB74283D7218FCC40CB
:102130008607BA9783970700B387B70283D5018FC5
:1021400086052E97031707003307D702BA971307A0
:10215000002DB387E702D1879387072D63D307004C
:1021600081471307005A6354F7009307005A23AEC0
:10217000F18C37050040C207C18313050540854532
:102180002310F504EF50803D3254A2541259825965
:10219000724AE24A524BC24B324CA24C124D45613C
:1021A000730020303767004083574781014513078C
:1021B0000780A18385C30355470121812382A19410
:1021C00083574701C207C18393F707F0C207C18352
:1021D000231AF7008280EFD2BFF941112AC6D937FE
:1021E000B24501ED3765004013050580EF4090458D
:1021F0001335150041016FD0FFF90545E5BFEFD25A
:102200003FF741112AC6793FB24501ED37650040DD
:1022100013050580EF4070413335A00041016FD0B8
:102220007FF70545E5BF37670040835747811307B0
:102230000780A1832382F19483574701C207C1839A
:1022400093F707F0C207C183231AF7007300203009
:10225000EFD27FF0376500404111814513050580BD
:10226000EF40502F37140140930700400D49D149EA
:102270004C00130504C03EC24AC44EC68564EF40FC
:102280001009938404804C00130504C04EC64AC450
:1022900023129100EF40B00793050040130504C0DE
:1022A000EF40F013A685130504C0EF401013054559
:1022B000EF30E07C93050040130504C0EF40F011BF
:1022C0000545EF30C07BA685130504C0EF403011F3
:1022D0000545EF30C07AA949130A04C00569930582
:1022E00000405285EF40B00FA6855285EF40F00EBA
:1022F0000545EF30C078930500405285EF40F00D62
:102300000545FD19EF30A077E39B09FC130504C0D8
:1023100093050040EF40B00C93050980130504C0FD
:10232000EF40F00B0545EF30807593050040130535
:1023300004C0EF40900A0545EF30607493050980B2
:10234000130504C0EF4070090545EF304073914715
:102350004C00130504C03EC6EF40607B9305098026
:10236000130504C0EF40D00641016FD01FE2EFD249
:102370003FE0EF30806783A5019437640040B305E8
:10238000B5402D651305856CEF50303D8145130533
:10239000048023830194EF40F01B13050480EF4079
:1023A0001007B705020013050480EF40B02903C6EB
:1023B0005194AA852D651305856DEF50103AEFF005
:1023C0003FE983C741945D8D1375F50F31CD2D65C0
:1023D00013050570EF50B03A3725060001468145D8
:1023E000130505A88128B705020013050480EF40F6
:1023F0007025AA852D6513054571EF5010360965C6
:10240000B70502001306401F1305651DEF3020615C
:10241000AA852D6513050573EF503034EF30E05C6D
:1024200023A0A1946FD01FD72D6513050574EF501D
:102430001035EDB7EFD25FD1AA842D6501111305D8
:10244000057632842E8AEF5090338545254502C2A9
:1024500002C402C602C802CA02CC02CEEF40B04992
:10246000854537054000EF40F04A3719014085693E
:10247000C147138B09C08D4A4C00130509C03EC6E5
:102480002312610156C4EF408068DA85130509C044
:10249000EF40A0742945EF30805E2D65A6851305B9
:1024A000C576EF50902B130B0040F14B4C001305F9
:1024B00009C0231261015EC656C4EF4040654C005E
:1024C000130509C093890980231231015EC656C4E1
:1024D000EF40E0632945EF30805AB707004026C837
:1024E000B76400403ECA0C08916713850480231E20
:1024F000F100231C4101231D6101EF4060748545FB
:1025000013850480EF401005B70502001385048091
:10251000EF405013AA852D6513050578EF50F02381
:1025200009651306401FB70502001305651DEF304E
:10253000004F19CD2D65A28513054579EF50F02187
:10254000854513850480EF40900A09C8EFF03FE20B
:1025500005472383E19405616FD09FC22D65130564
:10256000857AEF50D021EDB783C76194638D071250
:10257000EFD27FBE2A8A0965AE891306401FB705D0
:1025800002001305651DEF30804983C74194137520
:10259000F50FC98F89C70547A382E19445A0B76AA3
:1025A0000040854513850A80EF405000854513851E
:1025B0000A80EF40E07B3166B70503000969130626
:1025C000063585051305E91FEF30604583C7419443
:1025D0001375F50FC98F99C309477DBF0146930550
:1025E000400D13850A80EF40407FB70407001306B3
:1025F000401F938524081305E91FEF30404283C72D
:1026000041941375F50FC98F99C30D4771B7D285E2
:1026100013850A80376A0040EF40207B938444088A
:10262000930A0A80A6855685EF40300065FD83C772
:10263000419499C71147A382E19401456FD0FFB43B
:10264000CE8513050A80EF406076854513050A8024
:10265000EF400072B70403001306401F9385140077
:102660001305E91FEF30A03B83C741941375F50FA5
:10267000C98F99C315470DB705469305400D13053E
:102680000A80EF4080751306401F938524001305D0
:10269000E91FEF30C03883C741941375F50FC98F18
:1026A000C9DF1947D5BD05458280EFD27FAC411106
:1026B000AE848145EFF05FEB83C74194C98F93F7F8
:1026C000F70F8DE7B705030009651306401F9385D3
:1026D00005041305E51FEF30803483C7419413755B
:1026E000F50FC98F8DC32547A382E19483C7419419
:1026F000C98F93F7F70F89C72AC6EFF05FC7324536
:1027000041016FD03FA93769004013050980EF40B0
:10271000206C2380A400854513050980EF402067C5
:102720000145E9B7EFD25FA285476316F600EFF0E7
:10273000DFF76FD0FFA4B2892E898545EFF0DFE285
:102740009384F9FF370B0300856B376A00402A84B6
:1027500093F4F40F130B0B04896C938B0B80130A07
:102760000A809307F00F638BF4021306401FDA858B
:102770001385EC1FEF30A02A03C44194937AF50F20
:1027800033E48A000DCC2D652686CE851305057DA4
:10279000EF50A07C1D47A382E1945684376500402A
:1027A000130505808545EF40805E83C74194C18F46
:1027B00013F5F70F3DDDEFF09FBB22859DBF8547E9
:1027C0006396F400DE855285EF40C0635285EF408A
:1027D0002060FD142300A90093F4F40F050951B7FC
:1027E00083C7619491E38280EFD2FF96AA8A09653C
:1027F0004111AE891306401FB70502001305651D80
:10280000EF30E02183C741941375F50FC98F8DC355
:102810002947A382E19483C74194C98F93F7F70FA7
:1028200089C72AC6EFF0BFB4324541016FD0FF958A
:1028300037690040854513050980EF406053B705AF
:102840000300096A1306401F85051305EA1FEF30D0
:10285000001D83C741941375F50FC98F99C32D4788
:102860004DBF01469305400D13050980EF40E0562A
:10287000370B07001306401F93052B081305EA1FAB
:10288000EF30E01983C741941375F50FC98F99C3D1
:10289000314741B7D68513050980EF400053130631
:1028A000401F93054B081305EA1FEF30401783C7FD
:1028B00041941375F50FC98F99C3354799BFCE85DC
:1028C00013050980EF4060501306401F93054B0825
:1028D0001305EA1FEF30A01483C741941375F50F59
:1028E000C98F99C3394735B7130509808545EF402E
:1028F000004A01450DB737250600054681451305F9
:1029000005A86FF03FB3EFD2BF8641112E84930527
:10291000F1002A89B284EFF05FD909ED8347F10015
:1029200093C4F4FF4A85E58FB365F400A307B100B3
:10293000EFF01FEB41016FD0FF85EFD27F839385CE
:10294000C1947945EFF07FD601CD83C551942A8497
:102950002D651305857FEF50406022856FD09F83E2
:1029600083C7C1940D4709448D8BE398E7FEB735C3
:1029700000203146938545C213052002EFF09FDA0F
:102980003334A000D9BFEFD2AFFE1306F00F854558
:102990004945EFF05FF7316513054582EF50205E42
:1029A00013054006EF3040121306F00F93050008A0
:1029B0004D45EFF05FF5AA85316513058583EF502E
:1029C000C0591306F00F9305E0084145EFF0BFF33F
:1029D000AA85316513050585EF5020581306F00FC1
:1029E0009305C0054545EFF01FF2AA853165130533
:1029F0008586EF5080561306F00F93054004494535
:102A0000EFF07FF0AA85316513050588EF50E0549B
:102A10001306F00F81455145EFF0FFEEAA853165B1
:102A200013058589EF5060531306F00F8145554516
:102A3000EFF07FEDAA8531651305058BEF50E0516E
:102A40001306F00F81455945EFF0FFEBAA8531657C
:102A50001305858CEF5060501306F00F9305400866
:102A60005D45EFF05FEAAA8531651305058EEF50ED
:102A7000C04E1306F00F930580036145EFF0BFE8E9
:102A8000AA8531651305858FEF50204D1306F00F91
:102A90009305C0036545EFF01FE7AA85316513056F
:102AA0000591EF50804B0547A384E1966FD08FEEE0
:102AB000EFD20FEC1306000F81454145A384019628
:102AC000EFF07FE41306000F81454545EFF0BFE3CB
:102AD0006FD04FEC8280EFD2AFE683C741951307EA
:102AE0005002B7390020B387E7021387C9BC4111F0
:102AF0003AC6BA9723A8F1948387412863CA07048A
:102B000083C76194B1C783C78196B9C383C7A196B0
:102B10001384412881E78D472385F196EF20F06CDF
:102B20008347C40003A781958346B400A2073307F7
:102B3000E540D58FAA8A636DF700EFF01FE001CD65
:102B4000EF20B06AAA85316513058592EF50E04009
:102B500041016FD0AFE2373C0020930C0CC33737F4
:102B60000020130747C213868C0193070CC39304FC
:102B70000CC39443831507000907AE9694C39107CD
:102B8000E399C7FE03C4519583A7819405040567A3
:102B90001374F40F13078738A38A819423AC5195DB
:102BA000BA97E3E7FAFA8840373D0020EF80C0701B
:102BB00083A54196EF804000EF80006A88C0C8403E
:102BC000EF80806F83A50196EF70107FEF80C06863
:102BD000C8C08844EF80406E83A5C195EF70D07D5A
:102BE000EF80806788C493048DC11386C4001307E7
:102BF0008DC1814719C483A70C00B3C78702C207E0
:102C0000C1872310F7000907910CE314C7FE614642
:102C1000814513050CC3A38A0194EFD0CFD903A437
:102C20000195194623A45195130CC400E285228511
:102C3000EFD00FD7930A84011946D6856285EFD06D
:102C40002FD6B735002019469385A5C25685EFD0FB
:102C50002FD583C781960547639EE70899676977F3
:102C6000138664009387871A130787E58396040009
:102C700063DDD7062390F4008904E399C4FE93042E
:102C800024011946A68513056400EFD06FD179049D
:102C90001946A2852685EFD0AFD0194693058DC180
:102CA0002285EFD0EFCF83C7A196FD1793F7F70FDB
:102CB0002385F196E39E07E803A50195EF30803E5A
:102CC00003C54195930750021306500213351500B2
:102CD000238AA1943305F502B24781453E95EFD092
:102CE0008FCD8D472385F196A5B5E3D7E6F82390E0
:102CF000E40059B70947E398E7FA2285EF00E06658
:102D00005DB7EFD24FC5832A0500032A45002A8408
:102D1000832985000329C500D6855685EF70D069C3
:102D2000AA84D2855285EF703069AA852685EF7016
:102D3000A070AA84CE854E85EF701068AA8526857E
:102D4000EF70806FAA84CA854A85EF70F066AA8505
:102D50002685EF70606EEF40F010AA8503A54186CE
:102D6000EF701024AA84AA855685EF70F06408C01D
:102D7000A6855285EF70506448C0A6854E85EF70D9
:102D8000B06308C4A6854A85EF70106348C46FD04D
:102D9000CFBFEFD26FBB832BC500C445832A05008C
:102DA00083A90500032A450003AB450003298500DC
:102DB00003AC85002A84A6855E85EF70F05FAA8C3F
:102DC000CE855685EF70505FAA856685EF80400CF2
:102DD000AA8CDA855285EF70305EAA856685EF8011
:102DE000200BAA8CE2854A85EF70105DAA85668566
:102DF000EF80000A48C4CE855E85EF70F05BAA8C38
:102E0000D6852685EF70505BAA856685EF70C06217
:102E1000AA8CE2855285EF70305AAA856685EF70DC
:102E2000A061AA8CCA855A85EF701059AA8566855B
:102E3000EF80000608C0DA855E85EF70F057AA8C37
:102E4000E2855685EF705057AA856685EF8040046D
:102E5000AA8CD2852685EF703056AA856685EF70DC
:102E6000A05DAA8CCA854E85EF701055AA8566852F
:102E7000EF70805C48C0E2855E85EF70F053AA8BEE
:102E8000DA855685EF705053AA855E85EF70C05A7B
:102E9000AA8AD2854E85EF703052AA855685EF708A
:102EA000307FAA89CA852685EF701051AA854E8584
:102EB000EF70805808C46FD0AFACEFD26FA82A84EF
:102EC00003A501977971AE843305A640328AEF706D
:102ED0000029AA8903C5140083C704002E8922058E
:102EE0005D8D4205418523A84197EF7040204E86B5
:102EF000CA86EF60C05703A6818283A6C182EF60B5
:102F000000572A8D03C5340083C72400AE8C2205E8
:102F10005D8D42054185EF70801D4E86CA86EF604B
:102F2000005503A6818283A6C182EF6040542A8C9B
:102F300003C5540083C74400AE8B22055D8D420556
:102F40004185EF70C01A4E86CA86EF60405203A6D4
:102F5000818283A6C182EF6080512A8AAE896A8607
:102F6000E6866A85E685EF6080502A89AE846286AF
:102F7000DE866285DE85EF60804F2A86AE864A85D2
:102F8000A685EF50A0792A89AE845286CE865285D6
:102F9000CE85EF60C04D2A86AE864A85A685EF5065
:102FA000E0772A86AE862A89AE84EF60404C03A67D
:102FB000018383A64183AE8D2AC6EF50B06403A679
:102FC000818383A6C1832A8BAE8A4A85A685EF506A
:102FD00070632A86AE865A85D685EF60F01D03A6FB
:102FE000018483A64184EF5060732A8BAE8A2A86BF
:102FF000AE866A85E685EF608047EF80A0385A8606
:10300000D6862ACADE856285EF606046EF8080370B
:103010005A86D6862ACCCE855285EF604045EF8011
:103020006036B24703A6818483A6C1842ACEEE858A
:103030003E85EF50305D03A6018583A641852A8A2F
:10304000AE894A85A685EF6080422A86AE86528583
:10305000CE85EF60701603A6818583A6C185B7145F
:103060000020EF50A06BEF80E0314C082AD0138590
:10307000047CEFF01FD21385047CEFF09FC88347D8
:103080001400034704009384047CA207D98F23987B
:10309000F4008347340003472400A207D98F239903
:1030A000F4008347540003474400A207D98F239AB2
:1030B000F40045616FD08F8CEFD20F8983C7650014
:1030C000B7340020AA89F19B93E727002383F500FA
:1030D00003C7A1968D472E84938444C56312F702DB
:1030E000EF20301223A6A19623A0040023A20400FF
:1030F00023A4040023A6040023980400A3850196BA
:1031000003C5B19699471946130A15003305F50210
:10311000137AFA0FA385419737390020930589C1A7
:103120002695EFD0EF878D47631CFA228347640012
:10313000370B0080854ACD9B2303F4007D1B914B08
:10314000034A640093972A00CE9788439377CA0076
:10315000CE978C4333756501B3F56501EF70F012BE
:10316000635BA00093F73A008A07137A3AFF336A49
:10317000FA0023034401850AE3947AFD03A50900BC
:1031800093050000EF70D019635E051C83AB818648
:1031900003ACC186373A0020938A4900130B8AC4D6
:1031A000C109130A8AC403A50A00E285910AEF70D7
:1031B000B020DE85EF705020EF80000A2320AB00A6
:1031C000110BE39259FF83270A0003476400130998
:1031D00089C1A98793F6F70092063D8B558F23038B
:1031E000E40013D74700A303E40013D7C700230468
:1031F000E40003479400D183858B799BD98FA30486
:10320000F40083274A0003479400A98793F6F70741
:103210008606058B558FA304E40013D7770023059A
:10322000E4000347B400BD8393F7F703137707FC6B
:10323000D98FA305F40083278A000347B40093D6EF
:10324000A7409A061377F703558FB187A305E400CB
:1032500013D78700A309E40003D7C196039804009D
:103260002309F4002301E4022183A301E4020347BC
:103270004402C1839D8B137707FC13673700230239
:10328000E40203170900B306074113F6860FD18F36
:10329000A182230AF400A30AD4000316290083980C
:1032A000240083467401B30716418D87230BF40075
:1032B000A183819AFD8BD58FA30BF400831649005F
:1032C0000395440083457401B387A64013D3374068
:1032D0001603FD89B3E56500A30BB40003936400F6
:1032E000998793D58700230FF400B30707019A97B6
:1032F0007558B3C7070313F735009A97A58713F3DB
:10330000F7030A0333676700A30FE40003470402CF
:103310009983858B799BD98F2300F40203978400CE
:10332000B3071601BA97B3C70703BA970347040256
:10333000A5878607058BD98F2300F4020397A40085
:10334000B387A600BA97B3C70703BA970347140217
:10335000A58793F7F707137707F8D98FA300F4022F
:103360006FC01FE283AB418625B5EFC27FE0EF203F
:10337000C0672A86B735002037350020938585C180
:103380001305E5C1EFF07FB383C7419513075002E2
:10339000B7350020B387E7029385C5BC37150020F9
:1033A0001305057CBE95EFF03FD16FC0BFDE93875C
:1033B000812223800700A38D0700A38007002381BB
:1033C0000700138781228147E1463306F700A301F6
:1033D00006008507E39BD7FE828083C7C19B89EBEC
:1033E000EFC21FD9EFD09FF323ACA19A6FC09FDA31
:1033F000014523ACA19A828031C9EFC27FD72A84CC
:10340000EFF0BFFD03C7819B2300E40003C7919B3E
:1034100083C7A19BA300E4002301F40083A7419B81
:10342000A301F40013D78700C183A302F40083A78C
:10343000019B2302E4002303F40013D78700C18318
:10344000A303E4002304F4006FC0DFD48280EFC242
:103450009FD09387412803C727028946328A9389E0
:103460004128931716006302D7108D466308D712C0
:1034700085466318D7029356F54133C7A600158FCA
:10348000B386F90003C6E601635DC70013D6F541B4
:1034900083C6F6013347B600118F6354D7008145C8
:1034A0000145CE97838477000384870083C7290171
:1034B000B384A40203C71901A207D98F3304B4024D
:1034C00095841584C1C3B307840213172A0023828D
:1034D0000198338994023E999387018ABA979C4355
:1034E0006365F90085472382F198EF20005011E1D0
:1034F0000545E147B307FA0237360020930686C632
:10350000930586C6BE969C4289CF3307F54083C794
:10351000290103C61901A207D18F6368F70C23A004
:10352000060083C7419899CFE147330AFA023386F0
:103530004501232826011359F94144C200C6232A14
:10354000260108C28567138707803A946342F41006
:103550001384F7FF85673385E4003204634EF50E6C
:103560001385F7FF22956FC05FC29356F54133C7AD
:10357000A600158FB386F90083C6E6016353D70012
:10358000014593D6F54133C7B600158FB386F900D0
:1035900083C6F601E357D7F0814521B73387F90099
:1035A0001356F5410347E701B346A600918E63CC5D
:1035B000E602FD566343A00085463307D7023A95DD
:1035C0003387F90013D6F5410347F701B346B60038
:1035D000918EE3C3E6FCFD566343B0008546330796
:1035E000D702BA957DBD0145E1BFD8429C463387DD
:1035F000E402B307F4023E97E35507F2904AD44A37
:103600009357F941B307F602B3862603330826031E
:10361000B69733362603B2970D46B307F602B306C4
:103620000603333606038D82B2971396D701D18EE7
:103630003306E7028D873317E702E364F7EE6394FE
:10364000E700E360D6EE2382019801448144D1BDB6
:10365000E35204F00144FDBDE35605F0014519B7FE
:10366000EFC21FB19387C18A03D7470003D5070074
:1036700083D52700B734002083D767001384013037
:10368000938484C998C403474400DCC4834734004E
:103690002207834614005D8F8347240088C0CCC076
:1036A000A207D58F998D01461D8DEFF05FDA034794
:1036B000840023AAA19A83477400220783465400FA
:1036C0005D8F83476400CC448844A207D58F0546AC
:1036D000998D1D8DEFF0BFD723A8A19A6FC09FAB26
:1036E000EFC27FA7B74400201384819A9384C40A51
:1036F0002320040003C71400C5472384F19A83C71D
:1037000004002207231204005D8F83C72400138561
:10371000819A4169C207D98F2311F400C183230222
:10372000F400EF2050098347040003C744007D19CB
:10373000C19B93E727002300F40083C734002207CE
:103740001385819A5D8F83C75400C207D98F33F7E1
:103750002701C1832311E4002302F400EF20B00508
:103760008347040003C774001385819AC19B93E7C4
:1037700037002300F40083C7640022075D8F83C7EE
:103780008400C207D98F33F92701C1832311240193
:103790002302F400EF2030026FC03F9FEFC25F9D15
:1037A00003A401981504EF20C025636E8502EF2065
:1037B000402523A0A198316513058593EF40207C17
:1037C000A1451145EFF0CF819385D1973D45A38E5B
:1037D0000196EFE09FED83C5D1972A8631651305E9
:1037E0008594EF4080776FC0FF9A83C7C19B638247
:1037F000071CEFC25F963705020013050504238EF0
:103800000196A38D0196EFD09FB86318051883C762
:10381000A1979DC3138741288347070093C60708D4
:1038200093F6060893F7F707D58F2300F70085472F
:10383000238EF196A38DF196238DA19637850400F2
:10384000EFD0FFB42A89631C051483C7919795CBE9
:10385000138741288347070093C6F7FF93F60602B4
:1038600093F7F7FDD58F2300F700958393C71700D3
:1038700013F51700EFD0BFCB8547238EF196A38DAC
:10388000F1963705020013050508A38C2197EFD0A8
:103890001FB06318051083C781978DC31387412814
:1038A0008347070093C6F7FF898AF59BD58F2300CE
:1038B000F7008547238EF196A38DF196238CA19670
:1038C00037850200EFD0BFAC2A89631E050C83C781
:1038D000719785C7930700062384F19A83C7D19C0B
:1038E0001387819A1385819A93B717002301F700F4
:1038F000EF20606C8547A38DF196B73700201387C2
:10390000874803475700A38B2197138A874851EFB5
:10391000416513050510EFD09FA72A8959E583C794
:10392000619785C3930700032384F19A85499387A0
:10393000819A1385819A23813701EF20C067A38D77
:10394000319783475A00238B2197B5E341650505DD
:10395000EFD0FFA32A8921ED83C7519785C3930731
:1039600050032384F19A054A9387819A1385819A9B
:1039700023814701EF202064A38D419783C7B1972E
:10398000A38A219781C70545EF10305383C7C1979C
:1039900099C3EFD04F896FC04FFF054571BD0549F1
:1039A000CDB5054521BF054989BF054959BF054921
:1039B000F1B78280EFC2CFFB370502001105EFD0CF
:1039C0001F9D6317050E83A7019A638E070CEF20D6
:1039D000400383A7019A1D8D9307400663F3A70C4C
:1039E00083C7C19BC5EF3165814513050596EF403F
:1039F000C056B737002083C5874831651305C59782
:103A0000EF40A05583C5819F316513050599EF40AF
:103A1000C054138781998347070013858199BD8B13
:103A200093E707072300F7009D6793874737231124
:103A3000F700930740072302F700EF20C057B7377E
:103A400000209387475D03C7870883C6670803C6BE
:103A50007708AA8531651305459AEF400050EFF0CD
:103A6000FFD383C5519431651305459CEF40E04E6B
:103A70001387C18A03562700835507008567FD1702
:103A80003165FD8D7D8E1305859DEF40004D83C50D
:103A9000619431651305459EEF40204C8547238E88
:103AA000F19A6FC02FEFEF10D07523A0A19AD5BF68
:103AB000238E019A23A0019AEDB783A7819BA9CFFA
:103AC000EFC20FEB373400209307844883C75700B9
:103AD00013048448A1E3EF10D0729307007D63FBC9
:103AE000A7028347040099C78347340003471400A3
:103AF000D98F81C78347240091EF93070003238464
:103B0000F19A05479387819A1385819A2381E7006B
:103B1000EF20604A6FC00FE88280EFC26FE583A795
:103B2000819C850723A4F19C81E7054723A6E180BA
:103B3000EF10306D83A741996300F502EF10706CB0
:103B400083A7C18083A64199958FAA9723A6F18068
:103B5000EF10306B23AAA198EFF0DFE5EFE04FA85C
:103B6000EFE07FF7EFF07FC8EFF03FF56FC08FE237
:103B7000EFC20FE02A84AA8513050020EF30A0577A
:103B8000A2850545EF304055A2850545EF308058A8
:103B9000A2850945EF300058A2850565EF30A05594
:103BA000A2851165EF302055B7040240A285138528
:103BB0004404EF20503FA28513858405EF20B03EDA
:103BC000A28513858400EF20103EA28537050040B2
:103BD000EF30F00837050040A28513050540EF30AF
:103BE0001008B7440140A28513850480EF3070228D
:103BF00022869305000413850480EF3050236FC0A4
:103C00006FD9EFC2EFD6930710067D572384F19A40
:103C10009387819A1385819A2391E7002382E70095
:103C2000EF206039EF1080646FC0CFD6EFC24FD461
:103C300083C70199011199C3EF10B04E0545EF30CC
:103C40008023B7E700E0370705FAB8C7EF10104543
:103C5000B7170240D843F1769386F67F1377F7F0D3
:103C6000D8C3D843716513050520758FD8C3D843D1
:103C70001377F78FD8C3EF30901E0545EF30C0386B
:103C800085457145EF302047854513050020EF300D
:103C9000804685450545EF30204485450545EF3094
:103CA000604785450945EF30E04685450565EF30BD
:103CB000804485451165EF30004431651305459F0B
:103CC000EF40E02BEF1030501305401FEF10D05F96
:103CD0006800EF30A0346247D2464246B2453165B3
:103CE000130585A0EF406027EF10105237350020F4
:103CF00013065002814513058548EFC0CFCBEFF086
:103D00000FEBEFD0AFD3EFD00F89EF10106BEF10A8
:103D1000B05FEFD0EFC2EFC04FCBEFF09FEEEF10F0
:103D2000E054EF10901DEFE01FBDEFE0BFDAEFE0D1
:103D30009FC59305B1004945A3050100EFE0FF963B
:103D40008345B1003165130585A2EF40002105616F
:103D50006FC04FC4EFC22FC09387819A88433167E9
:103D6000130787A33D8993172500BA979C43938532
:103D7000819A8287373500200D4689051305E5486D
:103D8000EFC00FC299A837340020930484481385EC
:103D900094000D468905EFC0AFC085472389F40024
:103DA0001304844893844128373900209309640020
:103DB0001309E948138A34010347640083C73401B7
:103DC0006309F7001946CA855285EFC06FBDEFC081
:103DD0009FC505048504E31134FF6FC00FBB83C783
:103DE000450003D725007915C207D98F37B7AA0038
:103DF0001307A7AAB98F2391F500C1832382F50089
:103E00008D473305F502B73700209387C7490D4624
:103E100089053E95B5B703C72500B73700209387BE
:103E200087481347A7FAA381E70205472382E702E1
:103E30006DB703C72500B73700202385E74871BF5A
:103E4000B7370020A38D074849BF03C72500B73700
:103E50000020A385E74851B7EFC28FB19385819ABF
:103E60009C410547BD8B6384E70289466382D70482
:103E700089EF238AE19603D72500938781982390C1
:103E8000E70003C745002381E7006FC0AFB083C6DA
:103E900041976385F600238A0196C5BF89470D4681
:103EA00089051385B198238AF196EFC06FAFF1BFF2
:103EB00083C64197E391F6FE238A019603D7250036
:103EC000938781989385C198138581982393E70000
:103ED000EFD0FFBF5DBF1387819A1C438546BD8B22
:103EE0006381D702EFC2CFA889466381D70281EBF5
:103EF000034727000545A386E19CEF10007C6FC0B7
:103F00006FA937370020A304F74882800145EF10DE
:103F1000C07A2945EF10503BB707EFBE37E700E006
:103F2000938707083CC7E1BFEFC28FA483C7819A7C
:103F300011479183638CE7001947638CE7000D47B5
:103F40006394E700EFF01FE16FC0CFA4EFF0DFF064
:103F5000E5BFEFF05FF8CDBFEFC2EF9F3734002031
:103F60009307844803C747001304844815E783C7B1
:103F700017009DC30145EFF0BFBFEFE07FB3EF1027
:103F8000C0312388A198EFF07FCA0545EFF05FBEEE
:103F9000EFF03FC76FC06F9F83470400E5DF8347A3
:103FA0001400EDFB83A4419A8904EF109025E3638C
:103FB00095FEEF1010258347340123A2A19AA1C7D3
:103FC0001389819A93092900930730030D469305BD
:103FD000C4004E852384F19AEFC08F9C1385819A8B
:103FE000EF10707D834709000D469305F400C19BD7
:103FF00093E747004E852300F900EFC06F9A1385C1
:10400000819AEF10507B83475400A1E7EFF04FED0A
:104010008347240191EF3165130585A7EF30307692
:10402000930710032384F19A1385819AEF10B078D7
:1040300083474402A5F33165130505A9EF303074B9
:10404000930720032384F19A1385819AEF10B076A9
:1040500091B783473400858BE38E07F29307000303
:104060002384F19A9387819A23810700F1BFEFC2DD
:104070008F8EEFF0BFBB83A5418131651305C5AAC3
:10408000EF30B06D3145EFD08FB02386A19CEF00AB
:1040900070540D651305853FEF107076EFC0EF92F9
:1040A000EF20D06EAA850545EFC01F8AEF10F07F84
:1040B00003C5C19CB73400203744002013351500D8
:1040C000EFD02FB231651305C5ABEF30506B3739E8
:1040D0000020B7390020EF1060191304C40A93843C
:1040E0008448130909669389C97AEF101058EFF0D4
:1040F0002FD7EFF08FAE83A7819B13D787002300C4
:10410000F400C1832301F40083A7419BA300E400D2
:10411000A301F40013D78700C183A302F40083A78F
:10412000019B2302E4002303F40013D78700C1831B
:104130002304F400A303E400EFF03F9E83C7A188AB
:1041400095C385472382F400EF20C007EF10D07697
:10415000854A194B8347790899EBEFF0FFDFEF10A1
:10416000303761B7A382040023820400D5B78345AA
:10417000490819461385819AB38565032380540144
:10418000CE95EFC0EF814A85EF104025EFF0DFD9E3
:10419000D1B78280EFB2DFFD0344B5008344D50080
:1041A0001306F00F2285A685EFE0EFF53165268630
:1041B000A285130585ACEF30505A6FB0BFFD8280E9
:1041C00082808280B7370020938787CA23A807029E
:1041D0002396070223A407028280EFB27FF93734C7
:1041E0000020AA84EFF01FFE130984CA8967938711
:1041F000071A130620029385B4001305290023141F
:10420000F4CAEFB0FFF993074002130584CA2316DE
:10421000F902EF00F03F6FB0FFF7EFB27FF52A84AD
:10422000EFF05FFA0347A40037350020930785CAF3
:10423000930600F8A380E700130585CA0D47238085
:10424000D7002381E7002396E702EF00703C6FB0B0
:104250007FF4EFB25FF02A89EFF0DFF68344B90014
:104260008345A900373A0020316593078ACA1307AE
:1042700010F82686130585AE2380E700A380B700DB
:1042800023819700EF30704D854793098ACA638E6A
:10429000F4008947638AF4048D4713058ACA23967C
:1042A000F902EF00F0366FB05FEE373400201304F0
:1042B000844819469305C9001305C400EFB05FEEAA
:1042C00019469305640013853900A3099400EFB0E3
:1042D0003FEDAD6561469385455613859900EFB076
:1042E0003FEC9307100255BFB73500204146938538
:1042F000C54913853900EFB0BFEACD4779BFEFB2AA
:104300009FE52A84EFF01FEC83C7012AD9C7054730
:104310006389E7080D479307900437190020930637
:10432000C97E2380E6000347A400B7340020373459
:104330000020A380F60013048448938784CA930660
:1043400020F82380D700A380E7009309C97E930A51
:10435000A4FF138A84CA316B8345B4001305CBB024
:104360007D142382B900EF30503F8509E31654FFD6
:104370003165130585CDEF30904031469305C97EF8
:1043800013052A00EFB0DFE1B947138584CA23166D
:10439000FA02EF00F0276FB05FDF0D47930780044C
:1043A000ADBF1147930730038DBFEFB27FDC2A8486
:1043B000EFF05FE18345B4003165130545B1EF309F
:1043C000D0390347B4008D46930707FD93F7F70FE5
:1043D00063E6F600B72700202388E78A0347A40096
:1043E00037350020930785CA930600F8A380E700BD
:1043F000130585CA09472380D7002396E702EF00FB
:1044000030216FB03FD9EFB2BFD62A84EFF09FDBE7
:104410008347A400B7340020138484CAB715002052
:10442000130730F839469385C57D13052400230012
:10443000E400A300F400EFB0BFD6C147138584CADF
:104440002316F402EF00D01C6FB0DFD4EFB25FD2BE
:104450002A84EFF03FD70347A400373500209307A5
:1044600085CAA380E7000547930600F82381E7008B
:10447000130585CA0D472380D7002396E702EF0076
:1044800030196FB03FD1EFB2BFCE2A84EFF09FD387
:104490000347A40037350020930785CA930600F828
:1044A000A380E700130585CA0D472380D700238129
:1044B00007002396E702EF00B0156FB0BFCD6FF095
:1044C0009FFC6FF05FFC6FF01FFCEFB2DFC82A8427
:1044D0003165130505B3EF30902AEFF0BFCE130A14
:1044E000B4005285EFC0BFB38344F40093150501B7
:1044F0002A893165C1811305C5B3EF30102691E0DB
:10450000F5440347E4008346D4000346C4008345D2
:10451000B4003165A687130545B5EF301024034775
:10452000A400B739002037350020938789CA930645
:1045300000F9D28515461305A5CA2380D700A380AC
:10454000E700EFB0FFC5F54713F4F40F138A89CAEB
:1045500063F397007544B735002022869385F5CA2A
:104560004A85EFC0CFC71D041374F40F138589CAA1
:1045700023168A02EF00D0096FB03FC1EFB25FBFD0
:1045800041112A84EFF01FC41305B400EFC03FA906
:104590000346F400AA84AA8531651305C5B832C65E
:1045A000EF30B01B3246930504012685EFC00FD0D3
:1045B0000347A40037350020930785CA930600F807
:1045C000A380E700130585CA0D472380D700238108
:1045D00007002396E702EF00B00341016FB09FBBD5
:1045E000EFB21FB92A84EFF0FFBD0347A4003735AF
:1045F0000020930785CA930600F8A380E7001305FF
:1046000085CA09472380D7002396E702EF005000B0
:104610006FB05FB86FF0DFFC6FF09FFCEFB25FB57B
:104620002A84EFF03FBA0347A400373500209307F0
:1046300085CA930600F8A380E700130585CA13070F
:1046400040022380D7002396E702EF00607C6FB022
:104650007FB4EFB2FFB12A84EFF0DFB60347A400C6
:1046600037350020930785CAA380E700130585CA64
:104670000947238007002396E702EF0060796FB0B7
:104680007FB1EFB2FFAE2A84EFF0DFB30347A4009F
:1046900037350020930785CA930600F8A380E7000A
:1046A000130585CA59472380D7002396E702EF00F8
:1046B00020766FB03FAEEFB2BFAB2A84EFF09FB071
:1046C0000347B40037350020A382E19C0347A400D0
:1046D000930785CA930600F8A380E700130585CAEF
:1046E00009472380D7002396E702EF006072B737AF
:1046F00000200547A386E7486FB0DFA9EFB25FA7A8
:104700002A84EFF03FAC0347A4003735002093071D
:1047100085CAA380E70003C7519C930600FB1305DD
:1047200085CA2381E7000D472380D7002396E7023F
:10473000EF00006E6FB01FA6EFB29FA32A84EFF0C8
:104740007FA88344B4003165130585BAA685EF3090
:10475000D0000347A4002380919C37350020238498
:104760009196930785CA930600F8A380E700130586
:1047700085CA09472380D7002396E702EF004069E6
:104780006FB05FA1EFB2DF9EAA84EFF0BFA383C535
:10479000B40031651305C5BB2384B196EF30E07BCF
:1047A0001385019C8347050037390020130489CA0B
:1047B0008DEB83C7A40005472300E500A300F400A8
:1047C000130700F8930700142311F4002300E400FA
:1047D0008D47130589CA2316F402EF0060636FB09A
:1047E0007F9B11469385B4000505EFB07F9B83C77F
:1047F000A400130700F82300E400A300F400894795
:10480000C9BFEFB25F95AA84EFF0DF9B03C7C40076
:104810009306000203C9B4009307000263E3E600B5
:10482000BA8703C7A40013F4F70FB7390020316526
:10483000938489CA930600FC2286CA85130545BD68
:104840002380D400A380E400A381F4002381240109
:10485000EF30A070B735002022869385C5CA4A85FF
:10486000EFD05FEC11041374F40F138589CA2396FB
:104870008402792B6FB07F91EFB29F8F2A84EFF083
:104880007F940347B400B7270020373500202384E6
:10489000E78A0347A400930785CA930600F8A3801C
:1048A000E700130585CA09472380D7002396E7024E
:1048B00085236FB03F8EEFB2BF8B2A84EFF09F90BD
:1048C0000347A40037350020930785CAA380E7007B
:1048D00013078061930600FD2391E700130585CA45
:1048E00011472380D7002396E7021D236FB09F8ACC
:1048F000EFB21F882A84EFF0FF8C0347A4003735FE
:104900000020930785CAA380E7005147930610FD56
:104910002381E700130585CA0D472380D70023961E
:10492000E702FD216FB01F87B7370020116793871B
:10493000C7CD1307A72198C3116713072725D8C32D
:1049400011671307E72F98C711671307A73AD8C74E
:1049500011671307674098CB11671307C744D8CB7B
:1049600011671307271998CF11671307271CD8CF92
:1049700011671307674898D311671307A74CB8C38B
:1049800011671307C757F8C311671307E74B916601
:10499000B8C79386E61B1387070814C391669386EE
:1049A000A61D54C391669386065E14C791669386CE
:1049B000264C14CB91669386664C54CB91669386B5
:1049C000466114D391669386C66154D391669386EB
:1049D000266514D791669386266854D79166938688
:1049E000666B34C391669386C66F74C39166938673
:1049F000061C34D31167938707101307877398C376
:104A0000116713074778D8C311671307471998C769
:104A1000156713072780D8C715671307878798D3AB
:104A200015671307678BB8C3116713078761F8C34E
:104A300015671307078FB8C7828083C7C19CA9C7B2
:104A40000841834735000347250083466500A207D8
:104A5000D98F0347450042075D8F83475500E20722
:104A6000D98F034775002207558F83468500C206FC
:104A7000D98E034795006207558FD98F91C793054B
:104A8000650009056FD0AF848280EFB26FEE834579
:104A9000450003290500B7340020D11593F5F50F23
:104AA0002302B5008347A9009384C4CD2A848A07D2
:104AB000A6979C4381CB4A8582972285EFF0FFF72A
:104AC0006FB04FED9C40F5DB3165130545BFEF300E
:104AD000C0489C4083454400F9BF034745008547D3
:104AE00063FBE7081C41C1CBEFB28FE803C417009A
:104AF0003165130545C1A285EF3020467D1413743E
:104B0000F40F954763E48704B1679387C7C20A042B
:104B10003E941C40B7340020373400208287B7070A
:104B200000031305041393871718B73500201CC121
:104B300019469385E5481105EFB08FE6854629466D
:104B4000930504131385C43FEF00C07E6FB08FE45C
:104B5000930710282318F41285460946D5B7930702
:104B60001038CDBF93071048F5B793071058DDB73D
:104B700093071068C5B78280EFB2EFDD37340020AD
:104B8000AA89614681451305840DEFB0CFE2014A41
:104B90008D44B73A002063143A01014919A8EFD0B7
:104BA000DFD92A891545EF0030728D446304090668
:104BB000A1E81304840D0840EF60007083A54196BE
:104BC000EF50907FEF60406908C04840EF60C06ED2
:104BD00083A50196EF50507EEF60006848C00844FE
:104BE000EF60806D83A5C195EF50107DEF60C066CA
:104BF00008C405456314090013B514006FB0EFD85D
:104C0000EFD0BFD32A89FD14154593F4F40FEF00BC
:104C1000B06B69BFD9DC9307840D13874AC2138632
:104C200087019443831507000907AE9694C3910743
:104C3000E319F6FE050A85B7EFB2EFD1EFF0DFF327
:104C40002A8A63150516B73400209384840DC8445E
:104C5000EF60806683A5018713848134EF50503460
:104C600083A54187EF50407D83471408034704081C
:104C7000AA8AA207D98F3305F040EF60E063AA85C6
:104C80005685EF50607BEF60205D93170501230090
:104C9000A4028848C183A183A300F402EF60C0612D
:104CA00083A50187EF50D02F83A54187EF50C078AF
:104CB0008347340803472408AA8AA207D98F3305FB
:104CC000F040EF60605FAA855685EF50E076EF60B8
:104CD000A058931705012301A402C848C183A183EA
:104CE000A301F402EF60405D83A50187EF50502BD4
:104CF00083A54187EF504074834754080347440815
:104D0000AA8AA207D98F3305F040EF60E05AAA853E
:104D10005685EF506072EF6020549317050123020F
:104D2000A4028840C183A183A302F402EF60C058AB
:104D300083A50187EF50D02683A54187EF50C06F30
:104D4000EF608051931705012306A402C840C18378
:104D5000A183A306F402EF60205683A50187EF50DC
:104D6000302483A54187EF50206DEF60E04E93170C
:104D700005012307A4028844C183A183A307F40289
:104D8000EF60805383A50187EF50902183A5418771
:104D9000EF50806AEF60404C93170501C183A183F7
:104DA0002308A402A308F402EFB03FCF52856FB0EE
:104DB000CFBDEFB2EFBB0145EF0030102945EF004A
:104DC000B050B707EFBE37E700E0938707083CC74E
:104DD0006FB04FBCEFB2CFB9B735002037350020E8
:104DE000930600041146938505271305C53F01234B
:104DF000B73500203735002093060004114693850F
:104E0000051713050537E521EFF01FB26FB08FB816
:104E10000346C502AA853735002081461305C53FE4
:104E200011AB2E86AA85373500208D461305C53F68
:104E300011A3B73700201387070F8905F956A30080
:104E4000A70093F5F50F1385070F2300D7006FF028
:104E50005FFDEFB2EFB11C413165130545C483C559
:104E60000700B734002037340020EF30000F130460
:104E7000040F138941281306D00393854128138515
:104E8000340F23010400EFB0AFB19305E0030545F3
:104E9000EFF03FFA85471306D0039385112C138555
:104EA000340F2301F400EFB0AFAF9305E0030545E5
:104EB000EFF03FF81306D00381451385340FEFB0B0
:104EC0008FAF89472301F4008347A907894505452A
:104ED000A301F400EFF0FFF59307F03F8945054586
:104EE0002311F400EFF0FFF46FB0CFAAEFB24FA898
:104EF0002A843165130545C5EF3060080C4013075F
:104F0000F00F83C715006392E70603C7250083C728
:104F1000619C6315F7043165130505C6EF30E003A6
:104F20001C4003C7370085476314F700EFB0BFAFDD
:104F3000EFB05FDF0547B73700209387070F238166
:104F4000E700184089450945034737002383019C42
:104F5000A381E700EFF0FFED6FB0CFA3316513053C
:104F600045C7EF20907F0147F9B71307D003B387F8
:104F7000E7021306B007138541281D8E3E95637422
:104F8000C7001306D0038905EFB08FA183C7619CCA
:104F900085072383F19CC9B7EFB28F9D2A8408410E
:104FA0000505EFC0CF870C40AA8437350020154691
:104FB00085051305250FEFB0AF9E1C40B7350020C7
:104FC000268503C657009385750FEFB05FA11C407F
:104FD0000D4583C55700950593F5F50FEFF07FE577
:104FE0006FB04F9BEFB2CF982A8408410505EFC000
:104FF0000F830C4003C655009905EFB03FABB737A0
:1050000000202389A70E85451145EFF09FE26FB080
:105010006F98EFB2EF955145EFF01FC2B737002000
:105020002389A70E85451545EFF0BFE06FB08F9639
:10503000EFB20F941387C18A83560700938701301C
:10504000A380D700A1822381D70083562700014681
:105050008145A381D700A1822382D70083564700D0
:10506000035767002165A382D700A383E700A182CD
:1050700021832383D7002384E70023800700EFB038
:10508000FFA2B73700202389A70E85451D45EFF005
:105090005FDA6FB02F90EFB2AF8DB73500209385F8
:1050A000350F3D45EFD06FE083A6C18003A7819CFB
:1050B000B73700209387070F3357D7022381A70004
:1050C0008D451305D00F2382E700EFF09FD66FB018
:1050D0006F8CB73700201307003089451305F00F98
:1050E0002399E70E6FF0FFD414410546938716000D
:1050F0001CC1834745006373F608EFB26F87FD1745
:105100002302F50083C716009D4663E0F60295CBA7
:10511000FD1793F7F70F994663E5F602B1668A0724
:10512000938646C9B6979C4382871307E00F638E28
:10513000E7021307F00F6387E7021307D00F6389B5
:10514000E7026FB02F85EFF0DFD0E5BFEFF01FDA99
:10515000CDBFEFF07FE4F5B7EFF0DFE8DDB7EFF0BC
:105160005FEBC5B7EFF0FFF6E9BFEFF09FC4D1BF2B
:10517000EFF07FF2F9B7EFF0BFEBE1B78280EFA27B
:105180003FFF1C4183C5070093070008638EF502AB
:1051900063EEB70085476382F502C1476383F5027A
:1051A0003165130505CBEF20505B11A89307E00F85
:1051B000E398F5FEEFF05FF319A0EFF01F8D6FA0FD
:1051C0007FFDEFF09F87E5BFEFF03F91CDBFEFA2EE
:1051D0003FFA41112A848545054502C002C202C436
:1051E00002C6EF10507185450545EF10901F11491B
:1051F000B14489470A853EC04AC226C422C6EF1080
:105200006061BD450945EF10D01DA1670A853EC00C
:105210004AC226C422C6EF10E05F99450545EF104B
:10522000501C930700040A853EC04AC226C422C609
:10523000EF10405E9D450545EF10B01A930700083A
:105240000A853EC04AC226C422C6EF10A05CB945FA
:105250000545EF10101991670A853EC04AC226C461
:1052600022C6EF10205B41016FA0DFF2EFA25FF0DA
:1052700041113715014091474C00130505C03EC64A
:105280002312F10023130100231401002315010050
:10529000EF10F00741016FA0FFEFEFA27FED054592
:1052A000EFF0FFF20545EF103056014539211305A7
:1052B0004006EF00C07C13051006EF10506B8547C9
:1052C00005C531651305C5CCEF20704B0545EF00D2
:1052D000A07F89450545EF1030440545EF00C07EAD
:1052E0000145EFF0DFEE81473E856FA0BFEA9307EF
:1052F000000463EEC702EFA21FE62A84054515C429
:105300002E8985C5B28481451306800813054400A3
:10531000B689EFA05FEA8547232024012303940880
:105320002302F408A304340901456FA01FE6130506
:10533000F00F8280EFA23FE29304F00F59C9D1C968
:105340002A84084159C583448408D9E4B68983472F
:1053500074088346640863F1D708034794081379F7
:10536000F70F6374E6001379F60F8507A303F408BB
:1053700083475408850793F7F70F63E3D700814706
:105380003307F702A302F4084A863A95EFA05FE1DB
:10539000B737002083C7A76589EF834664080346B3
:1053A00054088345940831654A871305C5CDEF201D
:1053B000D03A83475408A2972382270123823705D6
:1053C00003477408834764086365F700854723042F
:1053D000F40826856FA07FDB8544E5BF2A8721C5B9
:1053E0001C411305F00FB1C3034577081DCD83465B
:1053F00047089307F5FF0346670893F7F70F8506FD
:10540000A303F70893F6F60F63E3C6008146230271
:10541000D7088346870899C6B3B7C70093C7170054
:105420002304F70882801305F00F8280EFA25FD477
:10543000056501118545110502C002C202C402C6FC
:1054400002C802CA02CC231E0100EF10D04A930703
:1054500000082310F10037150140E1473EC48A855A
:105460008D47130505803EC2EF10606AB7C704017F
:105470003EC6B70700023ECA930700023ECC6C004E
:105480009D4737350140231EF10002C8EF1010512F
:105490000546894537350140EF10D05705616FA0AB
:1054A0007FCFEFA25FCB79712A84AE8932898145A3
:1054B0001306C0024800B684EFA0FFCF854505451E
:1054C000EF1090412285EF10E01AC1473EC69307C6
:1054D00000083ECC930700103ECE4C008567228525
:1054E0004EC24AC426C83ED402CA02D002D202D654
:1054F000EF10E02745616FA05FC9B70600014111B9
:105500000147814793850181FD1661481376150097
:105510002E960346060005813316E600D18F0D074F
:10552000F58FE31507FF1395070141812398A19C8F
:10553000C1831375F50F9386019D2381A6002388EF
:10554000F19C83D7019D42055D8D41018280EFA2D0
:105550009FC08D4AB30455033734002032851304AD
:10556000044B2E8AB689EFF05FF9935785001389B3
:1055700054003309590322992300A9004181A30053
:10558000F9002301A90013896400330959039D041C
:105590005285EFF09FF693578500B3845403229908
:1055A0002300A90041812301A9004E85A300F90031
:1055B000EFF0BFF49357850026942300A4004181A7
:1055C000A300F4002301A4006FA03FBCEFA2BFB86A
:1055D000AA893165130585CFEF20701A3735002071
:1055E0001306301281451305054B13844128EFA0A3
:1055F0009FBC014993844128316A83C73402634CBC
:10560000F90663880906B737002083C6A7489307C1
:1056100080FC1145B386F60293F6F60F3686B68502
:10562000EFF0FFF203C404009306800C931784018B
:10563000E18763D3070081463686B6851545EFF0CE
:105640001FF113740402814619E09306800C36861C
:10565000B6851945EFF0BFEF83C6D19C930780FC58
:105660001D45B386F60293F6F60F3686B685EFF043
:105670001FEE6FA09FB183C704001375F90F898BCC
:1056800099E363950902814601468145EFF03FECBD
:10569000034744028346540203466402CA85130545
:1056A0000AD1EF20900B05090D0481BF8346440207
:1056B0000346540283456402D1BFEFA27FABEFF0F3
:1056C000FFF037050240B737002013050503938725
:1056D000074B5CC583C7712A0D478545B387E70231
:1056E000A907B387E7025CC1EF10E00B85453735AA
:1056F0000140EF1050306FA0FFA9EFA27FA7EFF09D
:10570000FFD213844128834734028D448D46B387EA
:10571000970237360020B73501403705024013069F
:10572000064BB10513050503A907B386D702EFF0B1
:105730005FD70346340231658D4533069602130563
:1057400005D3290633069602EF2030010545EFF018
:10575000DFF601456FA01FA413050020EF10000A1B
:105760000DC113050010EF10200A370502408145D6
:1057700013050503EF102003814537350140EF1075
:10578000902773002030411102C43717024002C62F
:105790001C43C16637060200D58F1CC3B7160240F2
:1057A000130700509C42F18F3EC6A24785073EC4B6
:1057B000B24781E7A247E397E7FEB71702409C4351
:1057C0001397E7006354070885473EC6324785476D
:1057D000631CF706B72702409843B706C1FFFD16C2
:1057E0001367070198C39843719B98C39843136745
:1057F000270098C3B7170240D843D8C3D843D8C3AB
:10580000D84313670740D8C3D843758FD8C3D8434C
:10581000B7061D00558FD8C39843B7060001558FB2
:1058200098C3984393166700E3DD06FED843B71686
:105830000240719BD8C3D84313672700D8C32147C0
:10584000DC42B18BE39EE7FE4101828002C6BDBF10
:10585000EFA21F92B71702409843B706FFF81367ED
:10586000170098C3D843758FD8C39843B706F7FE7F
:10587000FD16758F98C39843B706FCFFFD16758F0C
:1058800098C3D843B70681FFFD16758FD8C3370775
:105890009F0098C7EFF03FEF6FA0DF8FB716024071
:1058A000DC421146B18B138741816385C7002146D5
:1058B0006389C702B7177A00938707201CC3B717FD
:1058C0000240DC43918393F6F700B71700209387DB
:1058D000877FB69783C607001C43B3D7D7001CC386
:1058E0008280DC42D042C983BD8B9315F6008907C4
:1058F00063CD0500B746024083A60680C18A99CAD7
:10590000B7167A009386062011A8D4421396E600B3
:10591000E35806FEB7163D0093860690B387D7027C
:1059200071BFEFA2FF84EFF01FE66FA0BF86854531
:1059300037050040EF1010408547631CF500938742
:10594000419D9843854537050040050798C3EF10F2
:10595000F04073002030EFA2BF810111854505455D
:10596000EF10407B930770043ECA4C089307703ECB
:10597000370500403ECCEF10500B054685453705F6
:105980000040EF10F030854537050040EF10302D16
:105990009307C0122316F10085472307F100680022
:1059A00085473EC8EF10204E996737E700E09387A0
:1059B000E7927CC3B207B706002CB183D58F7CD3A6
:1059C00005616FA02FFD9387819D984311EFEFA292
:1059D0002FFA054798C3EFF01FF83165130585D4FA
:1059E000EF20E0596FA00FFB828083A7419D130534
:1059F000803E37070040B387A702035547023E9514
:105A0000828003A5419D828083A7418137177A0058
:105A100013070720B3D7E702238EF19C828019E594
:105A200001458280014541016FA0CFF6EFA24FF4FE
:105A3000411132842E89AA84EFF03FFB2AC4A24789
:105A40003386870032C63244A2473334F40013440D
:105A500014004A85829479F5EFF03FF92AC4224771
:105A6000B24763FCE70075D42247B247E3F3E7FE91
:105A70004A858294133515007DB70544D9BFEFA23E
:105A80002FEF4111AA84EFF05FF62AC68547324412
:105A9000A305F100B24726946374F400A305010046
:105AA0008544EFF09FF42AC6637AA4008347B100CF
:105AB00093F7F70F81C741016FA0CFEDB247E362C3
:105AC000F4FEA3059100F1BF9386419D9C424111D4
:105AD0001387419D3E958547A307F1009C4263745F
