:100000006F600030130000001300000013000000B8
:100010001300000013000000130000001300000094
:100020001300000013000000130000001300000084
:08003000130000007300100032
:100038006FF09FFC000000006F0060186F00401810
:1000480000000000000000000000000000000000A8
:100058000000000000000000000000000000000098
:100068006F606029000000006F60E0280000000059
:100078006F6060286F6020286F60E0276F60A0279E
:100088006F6060276F6020276F60E0266F60A02692
:100098006F6060266F6020266F60E0256F60A02586
:1000A8006F6060256F50206B6F60E0246F60A02444
:1000B8006F6060246F6020246F60E0230000000000
:1000C8000000000000000000000000006F60A02297
:1000D8006F6060226F6020226F60E0216F60A02156
:1000E8006F50D0046F1090696F60E0206F60A0209F
:1000F8006F6060206F6020206F20A0126F60A01FCB
:100108006F60601F6F60201F6F60E01E6F60A01E31
:100118006F60601E6F60201E6F60E01D6F00C01270
:1001280000000000000000000000000000000000C7
:080138000000000000000000BF
:10014000397101436EC619A0397141536AC866CA34
:1001500062CC5ECE19A0397101535AD056D252D416
:100160004ED64AD826DA22DC06DE3301614082828E
:1001700041114AC026C222C406C68282B24D410144
:10018000024D924C224CB24B4101024B924A224A00
:10019000B2494101024992442244B2404101828065
:1001A0002A8309CA83830500230073007D16050393
:1001B00085056DFA82802A8311C62300B3007D165F
:1001C000050365FE828001A001A0EFF27FFA1145D0
:1001D0008545EF60B072B747024093870780984328
:1001E00001451367470098C303A74181B7A74A0495
:1001F000938707206309F700B777DC02938707C06E
:100200006315F7000545EF60305D85450565EF60D6
:10021000106D49B737370240930700FC2306F740BB
:1002200093874124C207C1832318F740938781A293
:1002300023A2F1A2C207C183231AF74089472309E9
:10024000F742230BF74293870188A380070082803F
:10025000011122CE26CC4ACA4EC852C656C43734E3
:10026000024003476440834774409376F70F098B3D
:100270006305076693F7F70F13F70703930500026B
:10028000630BB70A930600036308D71E4DEF13F7FD
:10029000F7036309071885466317D70A93F707041E
:1002A000DDC3834764431389812293C70708230B67
:1002B000F442035784408347090037250020137711
:1002C000F70FCA97A381E7008347090003568440CC
:1002D00083A541A29A07130505CD3E951376F63FF7
:1002E000C135834709006147850793F7F70F23005E
:1002F000F90083460900938781226394E6002380F6
:10030000070003C7270005071377F70F2381E700CE
:1003100083C627004D476378D702B736024003C72C
:1003200066431377370F13678700238BE642054731
:10033000A38DE70009A893F7F7036384E702130787
:100340001002638EE70AB737024009472383E7406C
:100350007244E2445249C249324AA24A05617300DA
:10036000203083D7E18899E78347244393F7370FF9
:100370002309F44283C7418993F70706E9F783C746
:100380005189954613F7F70F638FD7049947E31CFC
:10039000F7FA03D7E1889307F0031304000463E638
:1003A000E70003D4E1884204418003A981892286C1
:1003B000CA8513854124ED3383D7E188229923AC84
:1003C0002189818FC207C1832397F1881374F40FA9
:1003D000B73702402388874203C7274313470704E0
:1003E0002389E7428DB7B736024003C7364083C73B
:1003F000C18813770708D98FA381F640A9B783472F
:10040000644393F7C70F93E72700230BF442834716
:10041000644393C70704230BF44293870188A380A6
:10042000070015B793F70704E38F07F083C74189E7
:1004300093F70706E38907F083C7418993F7070617
:10044000E393B7F003C75189A547E31EF7EE37459D
:10045000002013060004938541241305850B89337E
:100460000547238EE1A08347244393F7C70F93E703
:1004700027002309F442C1BD9307A0FC2309F442DD
:100480001387412483470700238AF1888347170095
:1004900083562700A38AF188835767002397F18842
:1004A0002399D188835647002398D18803C941896D
:1004B00093864124137909066309090C83C741898E
:1004C00093F70706639EB70283C751892946FD1734
:1004D00093F7F70F6363F6182D668A071306865E97
:1004E000B2979C43828783D7018963980716B745E3
:1004F0000020130600049385850B138541244D319C
:1005000083C74189E207E18763D6073A03D7E188C9
:100510009307000463E6E70083D7E188C207C1833D
:1005200003D7E1881D8F420741832397E18893F722
:10053000F70F373702402308F7428347274393F7E3
:10054000C70F2309F74201B583D7018963970710C5
:1005500003C73600A384E18865B783D70189639E0A
:10056000070E03C726002384E18859BF83D701897A
:100570006395070E83C791882380F60051B783D710
:100580000189E1EF83C78188C5BF83C551892D48A3
:1005900013F6F50F6363B80CAD650A0693854561E4
:1005A0002E961042028683D621890D46A18263864B
:1005B000C60C636CD6008547638CF602894763815D
:1005C000F60481471309F00F81A893071002638B8B
:1005D000F60893072002E396F6FE83D70189F5F328
:1005E000B1679387C7DF23ACF1889307F00D2DA087
:1005F000B1679387C7ED23ACF18883C7070029A8AB
:10060000B72700209387878023ACF18803C7270092
:1006100083C73700A207D98F03D7E18863F4E700C7
:100620002397F18803D7E1889307F003130A0004A6
:1006300063E7E70003DAE188420A135A0A0183AA52
:100640008189528613854124D685993ED29A23AC5E
:1006500051899307F00FE315F9EAB7370240130702
:10066000F0FCBDBB83D70189A9FFB7270020938782
:10067000A78123ACF188A54745B783D721890947CE
:1006800093F7F70F6387E702636BF70099EF9387A0
:10069000818723ACF188014983C70700B5BFE39286
:1006A000D7F2B1679387C7DAB9B7B167938707DF26
:1006B00099B7B167938747DC3DBF83D721892D6503
:1006C00093F7F70F2386F18883C5C1881305455B2F
:1006D000EF70300C35B583C7D1882380F60003D77F
:1006E000E1888547E3FEE7E02397F18811BD83D7D2
:1006F000218993F7F70FA386F18805472385E188C1
:1007000001B583C64189FD8A99EE83D721890547C2
:1007100093F7F70FE396E7DE83C7B18893F7E70F08
:10072000A385F188F1BB83C641890946FD8AE3961A
:10073000C6F283D7218993F7F70FE39007F283D7A7
:100740000189054793F7F70F6381E7021307200834
:10075000E395E7F0373702408347A74393F7C70B8A
:1007600093E72700230DF74261BB373702408347E9
:10077000674393F73707230BF7428347674393F7A2
:10078000C70B93E72700230BF7429DBB83C6418924
:10079000FD8A8DE683D72189054793F7F70FE39EFE
:1007A000E7EAB727002083C7F78093F70702E386BD
:1007B00007EA83C7B18893E717009DB783C64189CD
:1007C0000946FD8AE39BC6E883D7218993F7F70F93
:1007D000E39507E883D701891307100893F7F70F0C
:1007E000638FE70013072008E399E7E637370240F5
:1007F0008347A74393F7C70B93E73700A5B737376E
:1008000002408347674393F7370793E7C700230BFB
:10081000F7428347674393F7C70B93E73700A5B7C2
:10082000238006006DBD83C7418923920124FD8B7F
:1008300099EB83C7B188858BBDC389472380F600B8
:1008400003D7E18845B583C741890946FD8B639C81
:10085000C70403D70189130610081377F70F630D38
:10086000C700130620086305C70203D7E188E3F633
:10087000E7DE2397F188D5B3373702400347674354
:100880003146318BE31EC7FA05472380E6004DBF92
:10089000373702400347A7430D460D8BE5B703D713
:1008A000E188894781B583D7E188E378F6DA239731
:1008B000C18865B383D7E18891EBB73702402388BD
:1008C000074203C727431377C70F19BE37370240C4
:1008D0008347274393F7370FADB193F716009DC3B6
:1008E000A386018823860188A38501882385018842
:1008F000A301044005328347644093E717002303B4
:10090000F440B9B493F746008DCF91472D6523038A
:10091000F4401305455CEF70006A03475440118BA7
:1009200011CB03C7B18813672700A385E18883C76C
:10093000B18839BC03C7B1881377D70FA385E18885
:1009400001BC2303D44029B4EFF29F82B747024091
:10095000938707809843ADE11367870098C33734C6
:10096000024099472300F44031C92945EF508011D6
:100970009D47230004402301F44093079002230085
:10098000F440EFF03F89930710F8A300F4403707D5
:100990000008B7E700E023A2E71037E700E093077D
:1009A00000257CC3B207B706003BB183D58F3CD38B
:1009B000A30D07426FF00FFE5D9B4DB72945EF5029
:1009C000600CB7E700E023000440B843C146B4C35D
:1009D0003706000893860718D0C2B8C37DBFEFF270
:1009E0002FF937070001AA87130707F07D8F996653
:1009F0002E856307D700A166630CD7006FF08FF9CF
:100A000093F7F70F93858134BE95EFF06FF9FDB73B
:100A100093F7F70F93850130C5BF1306B007938591
:100A2000412805456DAB1306B00793854128054560
:100A30009DA3EFF2EFF303A4C18931CC13060008A4
:100A4000FD55228593848134EFF0EFF6614693855E
:100A5000040213054400EFF0AFF449469385D40334
:100A60001305C401EFF0CFF3354693850405130554
:100A7000E402EFF0EFF26146938504081305B40336
:100A8000EFF00FF249469385840913053405EFF022
:100A90002FF1230004006FF0EFEFEFF26FED03A5ED
:100AA000C189413F09451D2B6FF0CFEEEFF24FECAE
:100AB000B7070001938707F0E98F19676388E7009C
:100AC0002167638EE70001456FF0CFEC9387813497
:100AD0001375F50F3E95EFF0AFECC137F5B793877F
:100AE00001301375F50F3E95EFF08FEB1306800480
:100AF0009385013001454521C1BFEFF2CFE503A445
:100B0000C18963020420834704009309C4011309C7
:100B100034056381071A930740FCA30EF400930782
:100B2000C0041307C0FC230FF4002302F402930750
:100B300000F8230EE4002301E402A300F4021307EB
:100B400040FCA147A301E4022300F4022546CE8520
:100B5000A30F040013055402EFF08FE49307200362
:100B60002308F4022307F402930700032301F4048B
:100B700093071006A301F4049307E0FA2302F40498
:100B8000930700F9A302F404930790FD2303F404F0
:100B9000930740FDA303F404D1472304F40493070F
:100BA0004005A304F4042306F404930770FCA30691
:100BB000F404930790072307F4049307C0F913077D
:100BC0001003A307F40493073003A307E4022308E8
:100BD000F4041307100493076003FD543D4A2305F2
:100BE000E404A308F404554793073006A305E4047E
:100BF0002309F404A309940223099402A30894028C
:100C0000A30044054946930514044A85EFF04FD9E3
:100C10009307B0052302F4009307B0F82303F40010
:100C2000930760F92304F4008547A304F4009307B5
:100C30000004A305F400A306F400A307F400F5479D
:100C40002308F4009307E0FB2309F400B957230AB3
:100C5000F40093074003A30BF400A30CF400A30DCE
:100C6000F40093070005A30DF402F5571307B00332
:100C7000230EF402930760FCA3020400A303940074
:100C8000230504002306040023070400A30804002E
:100C9000A3099400A30A9400230BE400230CE400AE
:100CA000230DE400A30E0402230F0402A30FF40299
:100CB00023004405938481346146930544001385E1
:100CC0000402EFF0EFCD4946CE851385D403EFF053
:100CD0002FCD35469305E40213850405EFF04FCC84
:100CE00061469305B40313850408EFF06FCB4946C2
:100CF000CA8513858409EFF0AFCA8347040081C712
:100D000023000400593B6FF04FC8EFF26FC683A574
:100D1000C189130650060945D92403A5C189F13BB1
:100D20006FF04FC7EFF2CFC40545EF407019138441
:100D3000412803459401EFA0A05B83A50186EF90B5
:100D4000B02923A2A1960345A401EFA0605A83A570
:100D50000186EF90702823A0A1960345B401EFA06F
:100D6000205983A50186EF903027544423AEA194E7
:100D700093D78600C207C183B387F7021387018A1E
:100D8000E1821CC383470401A207D58FB387F70212
:100D90005CC36FF02FC0EFF2AFBD1306100BFD5513
:100DA00013858134EFF02FC13D2423AEA188B13FDC
:100DB00093878134130700F82380E70069770D07D4
:100DC0002399E70013068004054793850130014508
:100DD000A38DE70029249387013003C7070015C3BB
:100DE0002147A38007002381E700A3810700238216
:100DF000E700A38207002383E700A383070023847F
:100E0000E7001306B007FD5513854128EFF0AFBA90
:100E1000293183C7412813844128858BDDCF1306F0
:100E2000B007814513854128EFF0EFB8A14711467F
:100E3000930500031385B128A300F4002301F400F7
:100E4000EFF06FB711469305000813857128EFF096
:100E50008FB661779387212A1347F7F72391E7002D
:100E60002390E70091472307F4002308F4008967E3
:100E7000938717B02311F402930740FC130700FB7C
:100E8000A305F400A547A306E400A307E400230696
:100E9000F40001478D45FD566D46B307B7020507BF
:100EA000A2972382D702A382D7022383D702E31615
:100EB000C7FE9307F007A30CF400E17793C7F7F799
:100EC000231DF4008947230EF400C147A308F40052
:100ED000930770022309F400B936A935834524002D
:100EE000B727002093878780A380B70203461400AA
:100EF0002D65130545642384C702EF70800903073D
:100F0000A4008306940003068400830574002D6505
:100F100013058565EF70E0070347640083465400BE
:100F200003464400834534002D6513050567EF70C3
:100F30004006373500201946930534011305E5486E
:100F4000EFF00FA66FF00FA58D4763E3A704EFF254
:100F50002FA2B70710009387071E3E951314750044
:100F6000930500082285EF50D0181147AA848947BD
:100F7000631DE500130600089385C13F2285EF50ED
:100F8000F0278D476313950081473E856FF08FA052
:100F900085473E8582808DCDEFF2EF9B9307000859
:100FA0002A89B2841305E00F63E2C7022E84130678
:100FB000000881451385C13FEFF0EF9F2686A2858B
:100FC0001385C13FEFF0CF9D4A85BD3F6FF0EF9B8A
:100FD0001305F00F82801385C13F8280B5B70D479E
:100FE000AA87636BA7022E851307F00F9DC5930593
:100FF00000081307E00F63E2C502EFF26F973707AF
:1010000010001307071EBA9793957700EFF04F99DA
:1010100001473A856FF00F9805473A858280EFF2D5
:101020002F954111AA8511466800EFF06F97324560
:1010300041016FF02F96EFF2AF93797161468145D0
:101040002808EFF04F97014502C602C802CAEF50C8
:10105000F07A371501409307A0036C001305058053
:10106000372401402316F10002CAEF50B02A1305BD
:101070000440EF50C03085473ECE3ED0B7070E004B
:101080003ED22C089147130504402306F10202CCFE
:1010900002D4EF506031854513050440EF50C0364F
:1010A000854513050440EF50203513050440EF50EB
:1010B000C036930404402685EF50C0366DFD1305FD
:1010C000044037240140EF506036930404402685E5
:1010D000EF5060366DFD13050440EF5040432394FC
:1010E000A18A45616FF00F8BEFF28F8839712A84E6
:1010F0002E89B28481451306C002480836C6EFF037
:101100008F8B2285EF506057930700083ED49307DA
:101110000010B2463ED6930700403ED89307000227
:101120003EDA4C088D6722854ACA26CC36D03EDC92
:1011300002CE02D202DEEF50E06321616FF08F85B4
:10114000EFF20F83CD3D8395818A2D651305856868
:10115000EF60306437240140B70402409305C44473
:101160001385840091461386C18ABD3F1305044050
:101170009D4605468545EF50002E130504409D46CB
:1011800009469545EF50202D130504409D460D4618
:101190008D45EF50402C9D46114613050440914566
:1011A000EF50602B138584008545EF502060854506
:1011B00013050440EF50A0286FE0DFFDC166938760
:1011C000C14713870610D8D71387160098D737174B
:1011D0000200D8C33727020098C337470200D8C798
:1011E0003787020098C73707020013068700F0C34D
:1011F00013060702B0C36166F0C713060701B0C744
:1012000013060720B0CF3726040090CF130607102F
:10121000F0CF37460400D0CF2D651306070490D3D6
:1012200093860604378604001307070885451305CF
:10123000056AD0D394DBD8DB6F60B055EFE2BFF125
:101240004111AD3F9384C14793078004C16902C235
:1012500002C43EC6138904061384C147138AF9FFEA
:10126000AD6A0C40B3F7350189CFB3F5450113855D
:101270000A6BEF601052835741001840D98F231238
:10128000F1001104E31F24FD371501404C00130544
:101290000580C169EF501008268423120100370A27
:1012A0000200FD19AD6A0C40B3F7450189CFB3F5D3
:1012B000350113850A6CEF60D04D8357410018400B
:1012C000D98F2312F1001104E31F24FD37150140CB
:1012D0004C00130505C04164EF50D003B70904006A
:1012E000231201007D142D6A8C40B3F7350181CFA4
:1012F000E18D13050A6DEF60D04983574100984096
:10130000D98F2312F1009104E39024FF4C0037158C
:101310000140EF50300041016FE03FE7EFE2DFE2D4
:1013200037190140130B09C01384C1478144814917
:10133000370A0700B70A0200B70B0400416C130913
:1013400009800C40B3F74501638A5703638C770328
:10135000054563978701C205C1814A85EF50B007F3
:101360001335150033159500E1478504B3E9A9004D
:101370001104E398F4FC4E856FE09FE0C205C18143
:101380005A85E9BFC205C18137150140C1BFEFE2EF
:101390003FDEB7070700E98F37070200AA8563849D
:1013A000E702370704006388E70241670545639A4F
:1013B000E700C20537150140C18113050580EF50D4
:1013C00090016FE03FDD9315050137150140C181A4
:1013D000130505C0EDB793150501C181371501400F
:1013E000F9BFEFE2FFD879712A848545314502CAF9
:1013F00002CC02CE02D002D202D402D602C402C66D
:1014000023180100EF50904F6312041285450945DF
:10141000EF50B0509307000C231AF100371501402C
:10142000E1473ECE4C088D47130505803704004048
:101430003ECCEF50206E9307005A2C001305044059
:101440003EC602C4EF50D05E0546854513050440F4
:10145000EF608007C167938707060C1013050440EF
:101460003ED02313010223140102EF50F0630C104D
:1014700013050440EF5010770C1013050440EF5093
:10148000306B854513050440EF60A002A1451305AC
:101490000440EF60A006A14513050440EF6020075B
:1014A000A14513050440EF602008A1451305044041
:1014B000EF60A008814513050440EF6040029305EA
:1014C000002D13050440EF60E0089305002D13057F
:1014D0000440EF6080089305002D13050440EF6081
:1014E00020089305002D13050440EF60C007EF00AE
:1014F00090019307D0122310F10099472301F100C6
:101500000A8585473EC2EF5070188967938747F870
:1015100037E700E07CC3B207B183B706002DD58F53
:101520003CD7854513050440EF50F07645616FE0E8
:101530007FC6AA8537050040130505406F50B0757A
:101540002A883A850947630AE8000D47630EE800D8
:101550003285630508023685828063C1A5022E8527
:1015600063DCB7003E8509A82E9642064186634794
:10157000A6003285E3C8C7FE42054185828019472F
:101580003305E502B7070020938707002E86014741
:1015900081463E95831525000345050093070010FD
:1015A00045B719473305E502B707002093870700C1
:1015B0002E861307000C930600103E9583154500F8
:1015C0000345150093070014A5BF1387C18B14436F
:1015D00058430E059387C14DAA9794C3D8C3828000
:1015E000EFE21FB9834435001384C18B83150400D7
:1015F0008580FD882A892685593783152400231084
:10160000A4002685793F8344390083472900831548
:101610004400858891839204DD8C2311A4002685E3
:10162000B93F831564002312A40026859D3F231330
:10163000A4000145593F0547A382E18C6FE09FB5A7
:10164000EFE21FB30347350083472500370600202C
:101650001377F70393D677000607558F9315170076
:101660009306061CAE96839506001306061C239E61
:10167000B18A9386C18B89C5B725002023A6E58A48
:101680003707002093F7F7071307070C8607BA9769
:1016900083D707002391F6008347150093F7E70FE0
:1016A0003E9683570600034605002392F6008347C3
:1016B000150009820145858B9A07D18F86073E97D1
:1016C000835707002393F60009370547A382E18C6F
:1016D0006FE05FACEFE2DFA983473500834625006A
:1016E0000347050093F7F7039D82860713764700AB
:1016F000D58F058BAA841384C18B86076309070CD9
:10170000630D060A370700201307070CBA9783D723
:1017100007002313F40001454D3D03C92400831540
:101720000400135929001379F9014A85893D83156D
:1017300024002310A4004A85AD3503C9240083C7C3
:101740001400831544001379390095830E09336919
:10175000F9002311A4004A851D3583156400231266
:10176000A4004A853D3D2313A4000545B93D03C9A6
:101770001400831504001379F9014A85093583158E
:1017800024002310A4004A85293D83C40400831546
:1017900044002311A4008D802685D5338315640071
:1017A0002312A4002685F53B2313A4000945313DEF
:1017B0000D47A382E18C6FE0FF9D370700201307E0
:1017C000071CBA9783D707002312F400A9B719CAD8
:1017D000370700201307070CBA9783D70700231198
:1017E000F40015BF370700201307071CBA9783D7EB
:1017F00007002310F40005B7EFE29F970349350077
:101800001384C18B83150400135919001379F9014E
:10181000AA844A85AD33831524002310A4004A8589
:10182000493303C9340083C7240083154400137966
:101830001900918312093369F9002311A4004A8524
:101840003D3B831564002312A4004A85993B231372
:10185000A40001459D3B03C9240083C714008315E0
:1018600004001379F9009D8306093369F9004A855C
:101870003933831524002310A4004A851D3383C403
:101880001400831544002311A4008980FD88268557
:10189000FD31831564002312A40026851933231318
:1018A000A40005451D330947A382E18C6FE09F8E9C
:1018B000EFE21F8C83473500834425003707002063
:1018C00093F7F70393D674008607D58F1307071C89
:1018D0008607BA970347050083960700B7070020DD
:1018E0001376E70F9387070CB2978980058B839750
:1018F00007002A89FD881384C18B49C7831504001A
:1019000026852312D4002313F400EFF05FC783155C
:1019100024002310A4002685EFF0BFC82311A400E3
:101920000145EFF09FCA83442900834719008315BE
:1019300004008D8895838E04DD8C2685EFF03FC4EE
:10194000831524002310A4002685EFF09FC583444F
:101950001900831544002311A400FD882685EFF0AB
:101960001FC2831564002312A4002685EFF07FC3F5
:101970002313A4000545EFF05FC50947A382E18C5E
:101980006FE05F818315440026852310D400231166
:10199000F400EFF0DFBE831564002312A400268557
:1019A000EFF03FC02313A400A5BFEFE26FFC034993
:1019B00035001384C18B8315040013591900137962
:1019C000F901AA844A85EFF09FBB831524002310F8
:1019D000A4004A85EFF0FFBC03C9340083C724008C
:1019E0008315440013791900918312093369F900B2
:1019F0002311A4004A85EFF09FB8831564002312D9
:101A0000A4004A85EFF0FFB92313A4000145EFF0CD
:101A1000DFBB03C9240083C71400831504001379B6
:101A2000F9009D8306093369F9004A85EFF03FB557
:101A3000831524002310A4004A85EFF09FB603C944
:101A40001400831544002311A400135929001379AD
:101A5000F9014A85EFF0BFB2831564002312A40098
:101A60004A85EFF01FB42313A4000545EFF0FFB53E
:101A700003C9140083C704008315040013793900D7
:101A800095830E093369F9004A85EFF05FAF83153E
:101A900024002310A4004A85EFF0BFB083C40400E3
:101AA000831544002311A400FD882685EFF03FAD87
:101AB000831564002312A4002685EFF09FAE231344
:101AC000A4000945EFF07FB00D47A382E18C6FE0E1
:101AD0006FECEFE2EFE6034735002382018C1983B8
:101AE00089462E849384C14D6305D70C8D466300CF
:101AF000D70E85466313D704034715008347250097
:101B0000834605002207BD8B558FC207D98FD1EBC5
:101B1000EFF01FAD370C0020014DA68B138A418BCF
:101B2000130C0C2C938C4128930D001437992F50D3
:101B3000A54983C7518C634EFD0883473400054790
:101B40002382E18CA382018C99838946638DD7100F
:101B50008D466389D7126392E702034714008347D7
:101B60002400834604002207BD8B558FC207D98FFE
:101B70006392070E2285EFF0BFA6370A0020814B43
:101B80001384418B130A0A2C138B4128130C001465
:101B900037992F50A54983C7518C63C9FB0E6FE05D
:101BA000EFDD8D8A81E6EFF0BFA9ADB7EFF09FB210
:101BB00095B783471500034705008D8BA207D98F82
:101BC00081E7EFF07FC3B9B7EFF09FCEA1B7F13B4C
:101BD00091B703974B0083C73C0081460A07629781
:101BE00018434A85CE85B387E702050DA10BAD8367
:101BF0002322FA008397EBFF8A07E297904333860C
:101C0000CD020506EF6060402320AA00D285014581
:101C1000B52203978BFF83C75C001306000A0A07EF
:101C20006297184381464A85B387E702CE85AD8324
:101C30002322FA008397ABFF8A07E2979C4333067F
:101C4000F6020506EF60603C2320AA00D285094514
:101C50003522C5B58D8A228581E6EFF07F9E31BFA2
:101C6000EFF05FA719BF83471400034704002285E4
:101C70008D8BA207D98F81E7EFF01FB8FDBDEFF084
:101C80003FC3E5BD2285EFF05FD2C5BD0397440099
:101C900083474B0081460A07529718434A85CE85F1
:101CA000B387E702850BA104AD835CC08397E4FF93
:101CB0008A07D29790433306CC020506EF60E034E2
:101CC00008C0A28505455D28039784FF83476B0004
:101CD0001306000A0A075297184381464A85B387BC
:101CE000E702CE85AD835CC08397A4FF8A07D297B5
:101CF0009C433306F6020506EF60203108C0A2853A
:101D00000D45AD2849BDEFE2AFC6B73500203735E8
:101D10000020A146130600029385C589130505B46A
:101D2000EF30405D37350020A14613060002938551
:101D3000416F130545ABEF30E05B37350020A1461E
:101D4000130600029385415F130585A2EF30805A88
:101D500037350020A146130600029385414F130535
:101D6000C599EF3020598547238CF18EA38CF18ED5
:101D7000238DF18EA38DF18E6FE0CFC1BDC1EFE257
:101D80002FBF8947630AF50263E3A7020DED3735DC
:101D9000002081462146130505B4EF30005A19C9C9
:101DA000AA852D651305056EEF60A01E21A08D4745
:101DB0006302F5026FE00FBE3735002081462146F1
:101DC000130545ABD9BF37350020814621461305A1
:101DD00085A2E1B737350020814621461305C59914
:101DE0006DBF8280EFE2CFB883C7B18F9DCF37350B
:101DF0000020930705B483C6770885CA83C74708C0
:101E0000B73600209386C6898E07B6979443DC4385
:101E1000A38D018E13878191130505B45CC314C390
:101E2000EF30205C0547A38FE18E83C7A18F8DCF54
:101E300037350020930745AB83C6770895C683C71F
:101E400047089386416F8E07B6979443DC43238DF2
:101E5000018E13870191130545AB5CC314C3EF30AA
:101E600040580547238FE18E83C7918F8DCF37353B
:101E70000020930785A283C6770895C683C74708C5
:101E80009386415F8E07B6979443DC43A38C018E03
:101E900013878190130585A25CC314C3EF3060548F
:101EA0000547A38EE18E83C7818F8DCF3735002004
:101EB0009307C59983C6770895C683C74708938655
:101EC000414F8E07B6979443DC43238C018E1387D2
:101ED00001901305C5995CC314C3EF3080500547CA
:101EE000238EE18E6FE00FAB15CE9841E1679387AB
:101EF000076A3E9798C16374C70001458280B35654
:101F0000C702835705003377C702B697C207C1835C
:101F10002310F50098C113D7B70065D393F7F77F67
:101F20002310F50005458280EFE28FA483C7412886
:101F30002A87368493F707042E855443B2859DC3C0
:101F4000854789CE10434D37814709C983A7818CC6
:101F50001840998F93B7A70F93C7170013F5F70F82
:101F60006FE04FA381EE03A5818C1C401D8D1335BE
:101F7000A50F134515001375F50FDDB71043AD37E9
:101F80007DF1D5BF370500407971854513050540C2
:101F900022D626D44AD24ED052CE56CC5ACA5EC889
:101FA00062C666C46AC2EF50205D85476310F51EA5
:101FB00003A4818CAA840504138581939386818D63
:101FC0001386C18E9385618F23A4818CB13F938941
:101FD000819315C503C7F18F1DC3A38F018E93870E
:101FE00081919843DC43239B018E23A0E90023A227
:101FF000F90023A6018EA38D918E23AC818C1385CD
:1020000001939386418D1386818E9385418F293F5D
:10201000138901931DC503C7E18F05C7238F018E67
:10202000938701919843DC43239A018E2320E90092
:102030002322F900054723A4018E238DE18E23AAD4
:10204000818C138581929386018D1386418E9385B1
:10205000218FEFF07FED938481920DC503C7D18F5F
:1020600015C3A38E018E938781909843DC432399F7
:10207000018E98C0DCC0054723A2018EA38CE18E9F
:1020800023A8818C9386C18C1386018E9385018F42
:1020900013850192EFF05FE9938601920DC503C7A6
:1020A000C18F15C3238E018E938701909843DC4323
:1020B0002398018E98C2DCC2054723A0018E238C91
:1020C000E18E23A6818C83D7618F3707002093058B
:1020D000077C8607AE9703A549008397070013077F
:1020E000077CB387A70203D5418F0605AA95839580
:1020F000050003254900B385A502AE979305002D81
:10210000B387B702D1879387072D63D30700814731
:102110009305005A63D4F5009307005A23AEF18C5F
:1021200083D5C18DB7070040D442239AB74283D7E5
:10213000218FCC408607BA9783970700B387B702F1
:1021400083D5018F86052E97031707003307D70223
:10215000BA971307002DB387E702D1879387072D1E
:1021600063D3070081471307005A6354F7009307AE
:10217000005A23AEF18C37050040C207C183130516
:1021800005408545231CF502EF50C0403254A2544F
:1021900012598259724AE24A524BC24B324CA24CFB
:1021A000124D4561730020303767004083574781E7
:1021B000014513070780A18385C30355470121818A
:1021C0002382A19483574701C207C18393F707F085
:1021D000C207C183231AF7008280EFD27FF9411131
:1021E0002AC6D937B24501ED376500401305058091
:1021F000EF40B0451335150041016FD0BFF90545DB
:10220000E5BFEFD2FFF641112AC6793FB24501ED95
:102210003765004013050580EF4090413335A0003D
:1022200041016FD03FF70545E5BF37670040835751
:10223000478113070780A1832382F19483574701C5
:10224000C207C18393F707F0C207C183231AF700BF
:1022500073002030EFD23FF03765004041118145D7
:1022600013050580EF40702F37140140930700409D
:102270000D49D1494C00130504C03EC24AC44EC6A4
:102280008564EF403009938404804C00130504C03A
:102290004EC64AC423129100EF40D0079305004078
:1022A000130504C0EF401014A685130504C0EF40C9
:1022B00030130545EF30007D93050040130504C041
:1022C000EF4010120545EF30E07BA685130504C0F2
:1022D000EF4050110545EF30E07AA949130A04C0D8
:1022E0000569930500405285EF40D00FA6855285C1
:1022F000EF40100F0545EF30E07893050040528520
:10230000EF40100E0545FD19EF30C077E39B09FC47
:10231000130504C093050040EF40D00C93050980DD
:10232000130504C0EF40100C0545EF30A075930570
:102330000040130504C0EF40B00A0545EF3080743B
:1023400093050980130504C0EF4090090545EF305F
:10235000607391474C00130504C03EC6EF40807B7C
:1023600093050980130504C0EF40F00641016FD0CA
:10237000DFE1EFD2FFDFEF30A06783A50194376480
:102380000040B305B5402D6513050570EF50704052
:1023900081451305048023830194EF40101C13052D
:1023A0000480EF403007B705020013050480EF40BA
:1023B000D02903C65194AA852D6513050571EF50E8
:1023C000503DEFF03FE983C741945D8D1375F50FE4
:1023D00031CD2D6513058573EF50F03D372506008F
:1023E00001468145130505A88128B705020013059C
:1023F0000480EF409025AA852D651305C574EF5024
:1024000050390965B70502001306401F1305A51DC5
:10241000EF304061AA852D6513058576EF50703742
:10242000EF30005D23A0A1946FD0DFD62D6513059A
:102430008577EF505038EDB7EFD21FD1AA842D65C4
:1024400001111305857932842E8AEF50D0368545E7
:10245000254502C202C402C602C802CA02CC02CE8C
:10246000EF40D049854537054000EF40104B371904
:1024700001408569C147138B09C08D4A4C00130583
:1024800009C03EC62312610156C4EF40A068DA8538
:10249000130509C0EF40C0742945EF30A05E2D65DB
:1024A000A6851305457AEF50D02E130B0040F14B53
:1024B0004C00130509C0231261015EC656C4EF40EB
:1024C00060654C00130509C093890980231231010E
:1024D0005EC656C4EF4000642945EF30A05AB707E6
:1024E000004026C8B76400403ECA0C0891671385B7
:1024F0000480231EF100231C4101231D6101EF40D4
:102500008074854513850480EF403005B7050200CF
:1025100013850480EF407013AA852D651305857B14
:10252000EF50302709651306401FB7050200130559
:10253000A51DEF30204F19CD2D65A2851305C57C53
:10254000EF503025854513850480EF40B00A09C857
:10255000EFF03FE205472383E19405616FD05FC24E
:102560002D651305057EEF501025EDB783C76194E7
:10257000638D0712EFD23FBE2A8A0965AE89130622
:10258000401FB70502001305A51DEF30A04983C702
:1025900041941375F50FC98F89C70547A382E1944C
:1025A00045A0B76A0040854513850A80EF4070005A
:1025B000854513850A80EF40007C3166B70503002E
:1025C000096913060635850513052920EF30804576
:1025D00083C741941375F50FC98F99C309477DBF10
:1025E00001469305400D13850A80EF40607FB704D4
:1025F00007001306401F9385240813052920EF3098
:10260000604283C741941375F50FC98F99C30D4775
:1026100071B7D28513850A80376A0040EF40407B4E
:1026200093844408930A0A80A6855685EF4050009B
:1026300065FD83C7419499C71147A382E194014581
:102640006FD0BFB4CE8513050A80EF4080768545F4
:1026500013050A80EF402072B70403001306401FE1
:102660009385140013052920EF30C03B83C74194A4
:102670001375F50FC98F99C315470DB70546930517
:10268000400D13050A80EF40A0751306401F938587
:10269000240013052920EF30E03883C741941375D7
:1026A000F50FC98FC9DF1947D5BD05458280EFD227
:1026B0003FAC4111AE848145EFF05FEB83C741949D
:1026C000C98F93F7F70F8DE7B70503000965130668
:1026D000401F9385050413052520EF30A03483C7E0
:1026E00041941375F50FC98F8DC32547A382E194DB
:1026F00083C74194C98F93F7F70F89C72AC6EFF0B4
:102700005FC7324541016FD0FFA83769004013050C
:102710000980EF40406C2380A400854513050980A3
:10272000EF4040670145E9B7EFD21FA28547631626
:10273000F600EFF0DFF76FD0BFA4B2892E89854590
:10274000EFF0DFE29384F9FF370B0300856B376A04
:1027500000402A8493F4F40F130B0B04896C938BC1
:102760000B80130A0A809307F00F638BF4021306A1
:10277000401FDA8513852C20EF30C02A03C4419412
:10278000937AF50F33E48A000DCC31652686CE8529
:1027900013058580EF50E07F1D47A382E1945684A6
:1027A00037650040130505808545EF40A05E83C76F
:1027B0004194C18F13F5F70F3DDDEFF09FBB2285EC
:1027C0009DBF85476396F400DE855285EF40E06348
:1027D0005285EF404060FD142300A90093F4F40FEC
:1027E000050951B783C7619491E38280EFD2BF9608
:1027F000AA8A09654111AE891306401FB705020078
:102800001305A51DEF30002283C741941375F50F02
:10281000C98F8DC32947A382E19483C74194C98F8F
:1028200093F7F70F89C72AC6EFF0BFB432454101CD
:102830006FD0BF9537690040854513050980EF408B
:102840008053B7050300096A1306401F8505130569
:102850002A20EF30201D83C741941375F50FC98FCF
:1028600099C32D474DBF01469305400D13050980BF
:10287000EF400057370B07001306401F93052B0846
:1028800013052A20EF30001A83C741941375F50F02
:10289000C98F99C3314741B7D68513050980EF40E9
:1028A00020531306401F93054B0813052A20EF30D1
:1028B000601783C741941375F50FC98F99C33547C6
:1028C00099BFCE8513050980EF4080501306401F45
:1028D00093054B0813052A20EF30C01483C7419499
:1028E0001375F50FC98F99C3394735B7130509809B
:1028F0008545EF40204A01450DB7372506000546BE
:102900008145130505A86FF03FB3EFD27F864111D3
:102910002E849305F1002A89B284EFF05FD909ED86
:102920008347F10093C4F4FF4A85E58FB365F40053
:10293000A307B100EFF01FEB41016FD0BF85EFD2CD
:102940003F839385C1947945EFF07FD601CD83C550
:1029500051942A84316513050583EF5080632285E5
:102960006FD05F8383C7C1940D4709448D8BE39873
:10297000E7FEB73500203146938545C21305200296
:10298000EFF09FDA3334A000D9BFEFD26FFE130609
:10299000F00F85454945EFF05FF731651305C585B3
:1029A000EF50606113054006EF3060121306F00F20
:1029B000930500084D45EFF05FF5AA8531651305D5
:1029C0000587EF50005D1306F00F9305E0084145C1
:1029D000EFF0BFF3AA85316513058588EF50605B82
:1029E0001306F00F9305C0054545EFF01FF2AA85C9
:1029F00031651305058AEF50C0591306F00F930592
:102A000040044945EFF07FF0AA8531651305858BB9
:102A1000EF5020581306F00F81455145EFF0FFEEBF
:102A2000AA8531651305058DEF50A0561306F00FEA
:102A300081455545EFF07FEDAA8531651305858EFB
:102A4000EF5020551306F00F81455945EFF0FFEB8D
:102A5000AA85316513050590EF50A0531306F00FBA
:102A6000930540085D45EFF05FEAAA8531651305DF
:102A70008591EF5000521306F00F930580036145D6
:102A8000EFF0BFE8AA85316513050593EF5060505C
:102A90001306F00F9305C0036545EFF01FE7AA8505
:102AA000316513058594EF50C04E0547A384E19628
:102AB0006FD04FEEEFD2CFEB1306000F81454145AB
:102AC000A3840196EFF07FE41306000F814545458E
:102AD000EFF0BFE36FD00FEC8280EFD26FE683C7D9
:102AE000419513075002B7390020B387E7021387D7
:102AF000C9BC41113AC6BA9723A8F19483874128EB
:102B000063CA070483C76194B1C783C78196B9C3F9
:102B100083C7A1961384412881E78D472385F196C9
:102B2000EF20106D8347C40003A781958346B4004E
:102B3000A2073307E540D58FAA8A636DF700EFF04F
:102B40001FE001CDEF20D06AAA85316513050596F7
:102B5000EF50204441016FD06FE2373C0020930CCE
:102B60000CC337370020130747C213868C01930725
:102B70000CC393040CC39443831507000907AE9656
:102B800094C39107E399C7FE03C4519583A7819429
:102B9000050405671374F40F13078738A38A81941B
:102BA00023AC5195BA97E3E7FAFA8840373D002005
:102BB000EF80007483A54196EF808003EF80406D25
:102BC00088C0C840EF80C07283A50196EF804002A4
:102BD000EF80006CC8C08844EF80807183A5C195E8
:102BE000EF800001EF80C06A88C493048DC1138612
:102BF000C40013078DC1814719C483A70C00B3C754
:102C00008702C207C1872310F7000907910CE3145C
:102C1000C7FE6146814513050CC3A38A0194EFD01A
:102C20008FD903A40195194623A45195130CC40010
:102C3000E2852285EFD0CFD6930A84011946D68546
:102C40006285EFD0EFD5B735002019469385A5C230
:102C50005685EFD0EFD483C781960547639EE7087A
:102C600099676977138664009387871A130787E546
:102C70008396040063DDD7062390F4008904E3996A
:102C8000C4FE930424011946A68513056400EFD001
:102C90002FD179041946A2852685EFD06FD0194629
:102CA00093058DC12285EFD0AFCF83C7A196FD17C5
:102CB00093F7F70F2385F196E39E07E803A50195A7
:102CC000EF30A03E03C54195930750021306500212
:102CD00013351500238AA1943305F502B2478145C7
:102CE0003E95EFD04FCD8D472385F196A5B5E3D71F
:102CF000E6F82390E40059B70947E398E7FA2285FC
:102D0000EF00E0665DB7EFD20FC5832A0500032A06
:102D100045002A84832985000329C500D685568568
:102D2000EF70106DAA84D2855285EF70706CAA8501
:102D30002685EF70E073AA84CE854E85EF70506BC8
:102D4000AA852685EF70C072AA84CA854A85EF706D
:102D5000306AAA852685EF70A071EF403014AA85ED
:102D600003A54186EF705027AA84AA855685EF7087
:102D7000306808C0A6855285EF70906748C0A68568
:102D80004E85EF70F06608C4A6854A85EF705066E0
:102D900048C46FD08FBFEFD22FBB832BC500C44573
:102DA000832A050083A90500032A450003AB4500DB
:102DB0000329850003AC85002A84A6855E85EF7013
:102DC0003063AA8CCE855685EF709062AA856685A1
:102DD000EF80800FAA8CDA855285EF707061AA852A
:102DE0006685EF80600EAA8CE2854A85EF705060A0
:102DF000AA856685EF80400D48C4CE855E85EF705C
:102E0000305FAA8CD6852685EF70905EAA85668590
:102E1000EF700066AA8CE2855285EF70705DAA851E
:102E20006685EF70E064AA8CCA855A85EF70505CA5
:102E3000AA856685EF80400908C0DA855E85EF7057
:102E4000305BAA8CE2855685EF70905AAA8566851C
:102E5000EF808007AA8CD2852685EF707059AA85ED
:102E60006685EF70E060AA8CCA854E85EF70505879
:102E7000AA856685EF70C05F48C0E2855E85EF7009
:102E80003057AA8BDA855685EF709056AA855E85F5
:102E9000EF70005EAA8AD2854E85EF707055AA85C4
:102EA0005685EF806002AA89CA852685EF70505446
:102EB000AA854E85EF70C05B08C46FD06FACEFD2AF
:102EC0002FA82A8403A501977971AE843305A64003
:102ED000328AEF70402CAA8903C5140083C704000E
:102EE0002E8922055D8D4205418523A84197EF700B
:102EF00080234E86CA86EF60005B03A6818283A68C
:102F0000C182EF60405A2A8D03C5340083C7240074
:102F1000AE8C22055D8D42054185EF70C0204E8646
:102F2000CA86EF60405803A6818283A6C182EF6003
:102F300080572A8C03C5540083C74400AE8B2205FA
:102F40005D8D42054185EF70001E4E86CA86EF609A
:102F5000805503A6818283A6C182EF60C0542A8A6D
:102F6000AE896A86E6866A85E685EF60C0532A895F
:102F7000AE846286DE866285DE85EF60C0522A8678
:102F8000AE864A85A685EF50E07C2A89AE845286BB
:102F9000CE865285CE85EF6000512A86AE864A8560
:102FA000A685EF50207B2A86AE862A89AE84EF6004
:102FB000804F03A6018383A64183AE8D2AC6EF50BE
:102FC000F06703A6818383A6C1832A8BAE8A4A85D4
:102FD000A685EF50B0662A86AE865A85D685EF6004
:102FE000302103A6018483A64184EF50A0762A8B6A
:102FF000AE8A2A86AE866A85E685EF60C04AEF8093
:10300000E03B5A86D6862ACADE856285EF60A049F3
:10301000EF80C03A5A86D6862ACCCE855285EF609C
:103020008048EF80A039B24703A6818483A6C1847B
:103030002ACEEE853E85EF50706003A6018583A6FB
:1030400041852A8AAE894A85A685EF60C0452A86D1
:10305000AE865285CE85EF60B01903A6818583A622
:10306000C185B7140020EF50E06EEF8020354C088A
:103070002AD01385047CEFF01FD21385047CEFF077
:103080009FC883471400034704009384047CA2076D
:10309000D98F2398F4008347340003472400A20704
:1030A000D98F2399F4008347540003474400A207B3
:1030B000D98F239AF40045616FD04F8CEFD2CF881F
:1030C00083C76500B7340020AA89F19B93E72700E6
:1030D0002383F50003C7A1968D472E84938444C5AE
:1030E0006312F702EF20501223A6A19623A004003A
:1030F00023A2040023A4040023A6040023980400B0
:10310000A385019603C5B19699471946130A150080
:103110003305F502137AFA0FA3854197373900205A
:10312000930589C12695EFD0AF878D47631CFA229E
:1031300083476400370B0080854ACD9B2303F4004E
:103140007D1B914B034A640093972A00CE978843D6
:103150009377CA00CE978C4333756501B3F565014B
:10316000EF703016635BA00093F73A008A07137A7A
:103170003AFF336AFA0023034401850AE3947AFD97
:1031800003A5090093050000EF70101D635E051C88
:1031900083AB818603ACC186373A0020938A49000D
:1031A000130B8AC4C109130A8AC403A50A00E28565
:1031B000910AEF70F023DE85EF709023EF80400DD1
:1031C0002320AB00110BE39259FF83270A0003472A
:1031D0006400130989C1A98793F6F70092063D8B15
:1031E000558F2303E40013D74700A303E40013D74C
:1031F000C7002304E40003479400D183858B799BA7
:10320000D98FA304F40083274A0003479400A987B9
:1032100093F6F7078606058B558FA304E40013D7B2
:1032200077002305E4000347B400BD8393F7F70359
:10323000137707FCD98FA305F40083278A0003477F
:10324000B40093D6A7409A061377F703558FB1873A
:10325000A305E40013D78700A309E40003D7C196B0
:10326000039804002309F4002301E4022183A3014D
:10327000E40203474402C1839D8B137707FC136765
:1032800037002302E40203170900B306074113F6CF
:10329000860FD18FA182230AF400A30AD40003165B
:1032A00029008398240083467401B30716418D8753
:1032B000230BF400A183819AFD8BD58FA30BF4001F
:1032C000831649000395440083457401B387A640E3
:1032D00013D337401603FD89B3E56500A30BB40093
:1032E00003936400998793D58700230FF400B307F5
:1032F00007019A977558B3C7070313F735009A97D4
:10330000A58713F3F7030A0333676700A30FE400ED
:10331000034704029983858B799BD98F2300F4029C
:1033200003978400B3071601BA97B3C70703BA9788
:1033300003470402A5878607058BD98F2300F40273
:103340000397A400B387A600BA97B3C70703BA9739
:1033500003471402A58793F7F707137707F8D98F68
:10336000A300F4026FC0DFE183AB418625B5EFC255
:103370003FE0EF20E0672A86B73500203735002090
:10338000938585C11305E5C1EFF07FB383C74195F0
:1033900013075002B7350020B387E7029385C5BCF9
:1033A000371500201305057CBE95EFF03FD16FC0A7
:1033B0007FDE9387812223800700A38D0700A380EF
:1033C000070023810700138781228147E1463306E6
:1033D000F700A30106008507E39BD7FE828083C721
:1033E000C19B89EBEFC2DFD8EFD05FF323ACA19A8A
:1033F0006FC05FDA014523ACA19A828031C9EFC268
:103400003FD72A84EFF0BFFD03C7819B2300E40070
:1034100003C7919B83C7A19BA300E4002301F40091
:1034200083A7419BA301F40013D78700C183A302A4
:10343000F40083A7019B2302E4002303F40013D7C5
:103440008700C183A303E4002304F4006FC09FD46A
:103450008280EFC25FD09387412803C72702894645
:10346000328A93894128931716006302D7108D463C
:103470006308D71285466318D7029356F54133C7C0
:10348000A600158FB386F90003C6E601635DC70089
:1034900013D6F54183C6F6013347B600118F635446
:1034A000D70081450145CE97838477000384870048
:1034B00083C72901B384A40203C71901A207D98FC6
:1034C0003304B40295841584C1C3B307840213176F
:1034D0002A0023820198338994023E999387018AB6
:1034E000BA979C436365F90085472382F198EF20E2
:1034F000205011E10545E147B307FA0237360020B5
:10350000930686C6930586C6BE969C4289CF33072E
:10351000F54083C7290103C61901A207D18F63684B
:10352000F70C23A0060083C7419899CFE147330ADF
:10353000FA0233864501232826011359F94144C272
:1035400000C6232A260108C28567138707803A949C
:103550006342F4101384F7FF85673385E400320477
:10356000634EF50E1385F7FF22956FC01FC2935669
:10357000F54133C7A600158FB386F90083C6E6016F
:103580006353D700014593D6F54133C7B600158F75
:10359000B386F90083C6F601E357D7F0814521B71A
:1035A0003387F9001356F5410347E701B346A600F8
:1035B000918E63CCE602FD566343A0008546330737
:1035C000D7023A953387F90013D6F5410347F7013F
:1035D000B346B600918EE3C3E6FCFD566343B000EC
:1035E00085463307D702BA957DBD0145E1BFD84274
:1035F0009C463387E402B307F4023E97E35507F293
:10360000904AD44A9357F941B307F602B38626038A
:1036100033082603B69733362603B2970D46B30711
:10362000F602B3060603333606038D82B29713966D
:10363000D701D18E3306E7028D873317E702E364A3
:10364000F7EE6394E700E360D6EE2382019801442D
:103650008144D1BDE35204F00144FDBDE35605F0C1
:10366000014519B7EFC2DFB09387C18A03D747007E
:1036700003D5070083D52700B734002083D7670020
:1036800013840130938484C998C403474400DCC484
:10369000834734002207834614005D8F834724004C
:1036A00088C0CCC0A207D58F998D01461D8DEFF043
:1036B0005FDA0347840023AAA19A83477400220794
:1036C000834654005D8F83476400CC448844A2073E
:1036D000D58F0546998D1D8DEFF0BFD723A8A19AF0
:1036E0006FC05FABEFC23FA7B74400201384819A3D
:1036F0009384C40A2320040003C71400C54723840D
:10370000F19A83C704002207231204005D8F83C748
:1037100024001385819A4169C207D98F2311F400CF
:10372000C1832302F400EF2070098347040003C71C
:1037300044007D19C19B93E727002300F40083C751
:10374000340022071385819A5D8F83C75400C20716
:10375000D98F33F72701C1832311E4002302F4003A
:10376000EF20D0058347040003C774001385819AB6
:10377000C19B93E737002300F40083C7640022074E
:103780005D8F83C78400C207D98F33F92701C183B6
:10379000231124012302F400EF2050026FC0FF9E8A
:1037A000EFC21F9D03A401981504EF20E025636E6E
:1037B0008502EF20602523A0A198316513050597A8
:1037C000EF40607FA1451145EFF0CF819385D19700
:1037D0003D45A38E0196EFE09FED83C5D1972A86E4
:1037E000316513050598EF40C07A6FC0BF9A83C753
:1037F000C19B6383071CEFC21F96370502001305A8
:103800000504238E0196A38D0196EFD05FB863194E
:10381000051883C7A1979DC31387412883470700D5
:1038200093C6070893F6060893F7F707D58F23008A
:10383000F7008547238EF196A38DF196238DA196EF
:1038400037850400EFD0BFB42A89631D051483C7F0
:10385000919795CB138741288347070093C6F7FFBD
:1038600093F6060293F7F7FDD58F2300F7009583B3
:1038700093C7170013F51700EFD0BFCB8547238EF2
:10388000F196A38DF1963705020013050508A38C68
:103890002197EFD0DFAF6319051083C781978DC3E0
:1038A000138741288347070093C6F7FF898AF59B52
:1038B000D58F2300F7008547238EF196A38DF196CF
:1038C000238CA196416513050504EFD05FAC2A89CE
:1038D000631E050C83C7719785C793070006238471
:1038E000F19A83C7D19C1387819A1385819A93B7E4
:1038F00017002301F700EF20606C8547A38DF19638
:10390000B73700201387874803475700A38B2197B9
:10391000138A874851EF416513050510EFD03FA783
:103920002A8959E583C7619785C3930700032384D8
:10393000F19A85499387819A1385819A238137016A
:10394000EF20C067A38D319783475A00238B2197BF
:10395000B5E341650505EFD09FA32A8921ED83C713
:10396000519785C3930750032384F19A054A93879F
:10397000819A1385819A23814701EF202064A38DCA
:10398000419783C7B197A38A219781C70545EF1057
:10399000305383C7C19799C3EFD0EF886FC0EFFE54
:1039A000054569BD0549C5B5054519BF054989BF27
:1039B000054959BF0549F1B78280EFC26FFB370552
:1039C00002001105EFD0BF9C6317050E83A7019A73
:1039D000638E070CEF20400383A7019A1D8D930788
:1039E000400663F3A70C83C7C19BC5EF31658145D2
:1039F00013058599EF40E059B737002083C5874804
:103A000031651305459BEF40C05883C5819F3165E3
:103A10001305859CEF40E057138781998347070082
:103A200013858199BD8B93E707072300F7009D67F6
:103A3000938747372311F700930740072302F700C6
:103A4000EF20C057B73700209387475D03C787082B
:103A500083C6670803C67708AA8531651305C59D27
:103A6000EF402053EFF0DFD383C551943165130548
:103A7000C59FEF4000521387C18A03562700835524
:103A800007008567FD173165FD8D7D8E130505A146
:103A9000EF40205083C5619431651305C5A1EF4007
:103AA000404F8547238EF19A6FC0CFEEEF10D0754F
:103AB00023A0A19AD5BF238E019A23A0019AEDB726
:103AC00083A7819BA9CFEFC2AFEA373400209307C9
:103AD000844883C7570013048448A1E3EF10D072D1
:103AE0009307007D63FBA7028347040099C78347C0
:103AF000340003471400D98F81C78347240091EF16
:103B0000930700032384F19A05479387819A1385CD
:103B1000819A2381E700EF20604A6FC0AFE782807F
:103B2000EFC20FE583A7819C850723A4F19C81E761
:103B3000054723A6E180EF10306D83A7419963000C
:103B4000F502EF10706C83A7C18083A64199958F11
:103B5000AA9723A6F180EF10306B23AAA198EFF06B
:103B6000DFE5EFE02FA8EFE05FF7EFF05FC8EFF0E1
:103B70003FF56FC02FE2EFC2AFDF2A84AA8513059D
:103B80000020EF30A057A2850545EF304055A285B3
:103B90000545EF308058A2850945EF300058A285D1
:103BA0000565EF30A055A2851165EF302055B704AB
:103BB0000240A28513854404EF20503FA28513855F
:103BC0008405EF20B03EA28513858400EF20103ECF
:103BD000A28537050040EF30100C37050040A28564
:103BE00013050540EF30300BB7440140A285138523
:103BF0000480EF309025228693050004138504800D
:103C0000EF3070266FC00FD9EFC28FD69307100622
:103C10007D572384F19A9387819A1385819A239102
:103C2000E7002382E700EF206039EF1080646FC067
:103C30006FD6EFC2EFD383C70199011199C3EF107B
:103C4000B04E0545EF308023B7E700E0370705FAAF
:103C5000B8C7EF101045B7170240D843F1769386E6
:103C6000F67F1377F7F0D8C3D843716513050520A5
:103C7000758FD8C3D8431377F78FD8C3EF30B021EF
:103C80000545EF30C03885457145EF302047854503
:103C900013050020EF30804685450545EF30204470
:103CA00085450545EF30604785450945EF30E046DD
:103CB00085450565EF30804485451165EF3000444A
:103CC00031651305C5A2EF40002FEF1030501305EA
:103CD000401FEF10D05F6800EF30A0346247D2463B
:103CE0004246B2453165130505A4EF40802AEF1026
:103CF00010523735002013065002814513058548C0
:103D0000EFC06FCBEFF0EFEAEFD04FD3EFD0AF883B
:103D1000EF10106BEF10B05FEFD08FC2EFC0EFCAA3
:103D2000EFF09FEEEF10E054EF10901DEFE0FFBCBE
:103D3000EFE09FDAEFE07FC59305B1004945A305A9
:103D40000100EFE0DF968345B1003165130505A65C
:103D5000EF40202405616FC0EFC3EFC2CFBF938750
:103D6000819A88433167130707A73D899317250078
:103D7000BA979C439385819A8287373500200D46F8
:103D800089051305E548EFC0AFC199A83734002075
:103D900093048448138594000D468905EFC04FC0F5
:103DA00085472389F40013048448938441283739D4
:103DB0000020930964001309E948138A340103477A
:103DC000640083C734016309F7001946CA85528528
:103DD000EFC00FBDEFC03FC505048504E31134FFFC
:103DE0006FC0AFBA83C7450003D725007915C20756
:103DF000D98F37B7AA001307A7AAB98F2391F50067
:103E0000C1832382F5008D473305F502B7370020C3
:103E10009387C7490D4689053E95B5B703C7250069
:103E2000B7370020938787481347A7FAA381E70293
:103E300005472382E7026DB703C72500B737002087
:103E40002385E74871BFB7370020A38D074849BFD6
:103E500003C72500B7370020A385E74851B7EFC255
:103E60002FB19385819A9C410547BD8B6384E702FE
:103E700089466382D70489EF238AE19603D7250018
:103E8000938781982390E70003C745002381E700CB
:103E90006FC04FB083C641976385F600238A0196B1
:103EA000C5BF89470D4689051385B198238AF196C8
:103EB000EFC00FAFF1BF83C64197E391F6FE238AAF
:103EC000019603D72500938781989385C198138520
:103ED00081982393E700EFD0DFBF5DBF1387819AFE
:103EE0001C438546BD8B6381D702EFC26FA889460C
:103EF0006381D70281EB034727000545A386E19C38
:103F0000EF10007C6FC00FA937370020A304F748DB
:103F100082800145EF10C07A2945EF10503BB7076A
:103F2000EFBE37E700E0938707083CC7E1BFEFC269
:103F30002FA483C7819A11479183638CE7001947A7
:103F4000638CE7000D476394E700EFF01FE16FC05B
:103F50006FA4EFF0DFF0E5BFEFF05FF8CDBFEFC289
:103F60008F9F373400209307844803C7470013040A
:103F7000844815E783C717009DC30145EFF0BFBF15
:103F8000EFE05FB3EF10C0312388A198EFF07FCA54
:103F90000545EFF05FBEEFF03FC76FC00F9F83474F
:103FA0000400E5DF83471400EDFB83A4419A8904F4
:103FB000EF109025E36395FEEF1010258347340141
:103FC00023A2A19AA1C71389819A93092900930773
:103FD00030030D469305C4004E852384F19AEFC04B
:103FE0002F9C1385819AEF10707D834709000D4641
:103FF0009305F400C19B93E747004E852300F90029
:10400000EFC00F9A1385819AEF10507B83475400BD
:10401000A1E7EFF02FED8347240191EF3165130500
:1040200005ABEF305079930710032384F19A138581
:10403000819AEF10B07883474402A5F331651305E8
:1040400085ACEF305077930720032384F19A1385D2
:10405000819AEF10B07691B783473400858BE38E59
:1040600007F2930700032384F19A9387819A2381AF
:104070000700F1BFEFC22F8EEFF0BFBB83A54181D8
:104080003165130545AEEF30D0703145EFD02FB01C
:104090002386A19CEF0070540D651305C53FEF10FA
:1040A0007076EFC08F92EF20D06EAA850545EFC0E5
:1040B000BF89EF10F07F03C5C19CB734002037449F
:1040C000002013351500EFD0CFB13165130545AF92
:1040D000EF30706E37390020B7390020EF106019CB
:1040E0001304C40A93848448130909669389C97A1E
:1040F000EF101058EFF00FD7EFF06FAE83A7819B52
:1041000013D787002300F400C1832301F40083A7A1
:10411000419BA300E400A301F40013D78700C183EF
:10412000A302F40083A7019B2302E4002303F4000D
:1041300013D78700C1832304F400A303E400EFF046
:104140003F9E83C7A18895C385472382F400EF2053
:10415000C007EF10D076854A194B8347790899EB51
:10416000EFF0FFDFEF10303761B7A3820400238246
:104170000400D5B78345490819461385819AB3854C
:10418000650323805401CE95EFC08F814A85EF10DF
:104190004025EFF0DFD9D1B78280EFB27FFD034435
:1041A000B5008344D5001306F00F2285A685EFE005
:1041B000CFF531652686A285130505B0EF30705D19
:1041C0006FB05FFD828082808280B7370020938746
:1041D00087CA23A807022396070223A40702828026
:1041E000EFB21FF937340020AA84EFF01FFE130945
:1041F00084CA89679387071A130620029385B4003F
:10420000130529002314F4CAEFB09FF99307400265
:10421000130584CA2316F902EF00F03F6FB09FF731
:10422000EFB21FF52A84EFF05FFA0347A400373599
:104230000020930785CA930600F8A380E7001305C2
:1042400085CA0D472380D7002381E7002396E70224
:10425000EF00703C6FB01FF4EFB2FFEF2A89EFF070
:10426000DFF68344B9008345A900373A0020316561
:1042700093078ACA130710F82686130505B2238010
:10428000E700A380B70023819700EF309050854767
:1042900093098ACA638EF4008947638AF4048D47C0
:1042A00013058ACA2396F902EF00F0366FB0FFEDCE
:1042B000373400201304844819469305C9001305B8
:1042C000C400EFB0FFED1946930564001385390073
:1042D000A3099400EFB0DFECAD6561469385C55945
:1042E00013859900EFB0DFEB9307100255BFB73588
:1042F000002041469385C54913853900EFB05FEA38
:10430000CD4779BFEFB23FE52A84EFF01FEC83C7BA
:10431000012AD9C705476389E7080D479307900429
:10432000371900209306C97E2380E6000347A400C6
:10433000B734002037340020A380F60013048448EB
:10434000938784CA930620F82380D700A380E700D0
:104350009309C97E930AA4FF138A84CA316B8345EB
:10436000B40013054BB47D142382B900EF307042C2
:104370008509E31654FF3165130505D1EF30B043CD
:1043800031469305C97E13052A00EFB07FE1B94796
:10439000138584CA2316FA02EF00F0276FB0FFDE00
:1043A0000D4793078004ADBF1147930730038DBFBE
:1043B000EFB21FDC2A84EFF05FE18345B400316582
:1043C0001305C5B4EF30F03C0347B4008D469307A6
:1043D00007FD93F7F70F63E6F600B7270020238861
:1043E000E78A0347A40037350020930785CA930660
:1043F00000F8A380E700130585CA09472380D7008A
:104400002396E702EF0030216FB0DFD8EFB25FD61E
:104410002A84EFF09FDB8347A400B7340020138485
:1044200084CAB7150020130730F839469385C57D37
:10443000130524002300E400A300F400EFB05FD6CE
:10444000C147138584CA2316F402EF00D01C6FB055
:104450007FD4EFB2FFD12A84EFF03FD70347A40007
:1044600037350020930785CAA380E70005479306E8
:1044700000F82381E700130585CA0D472380D70084
:104480002396E702EF0030196FB0DFD0EFB25FCEB6
:104490002A84EFF09FD30347A40037350020930709
:1044A00085CA930600F8A380E700130585CA0D4767
:1044B0002380D700238107002396E702EF00B01581
:1044C0006FB05FCD6FF09FFC6FF05FFC6FF01FFC73
:1044D000EFB27FC82A843165130585B6EF30B02D61
:1044E000EFF0BFCE130AB4005285EFC05FB3834430
:1044F000F400931505012A893165C181130545B77B
:10450000EF30302991E0F5440347E4008346D400BE
:104510000346C4008345B4003165A6871305C5B8BA
:10452000EF3030270347A400B7390020373500208B
:10453000938789CA930600F9D28515461305A5CA43
:104540002380D700A380E700EFB09FC5F54713F4A1
:10455000F40F138A89CA63F397007544B7350020B6
:1045600022869385F5CA4A85EFC06FC71D04137470
:10457000F40F138589CA23168A02EF00D0096FB0A1
:10458000DFC0EFB2FFBE41112A84EFF01FC4130554
:10459000B400EFC0DFA80346F400AA84AA85316501
:1045A000130545BC32C6EF30D01E324693050401D8
:1045B0002685EFC0AFCF0347A4003735002093070F
:1045C00085CA930600F8A380E700130585CA0D4746
:1045D0002380D700238107002396E702EF00B00372
:1045E00041016FB03FBBEFB2BFB82A84EFF0FFBD0F
:1045F0000347A40037350020930785CA930600F8C7
:10460000A380E700130585CA09472380D7002396B6
:10461000E702EF0050006FB0FFB76FF0DFFC6FF004
:104620009FFCEFB2FFB42A84EFF03FBA0347A40027
:1046300037350020930785CA930600F8A380E7006A
:10464000130585CA130740022380D7002396E7028B
:10465000EF00607C6FB01FB4EFB29FB12A84EFF01F
:10466000DFB60347A40037350020930785CAA3802F
:10467000E700130585CA0947238007002396E70250
:10468000EF0060796FB01FB1EFB29FAE2A84EFF0F8
:10469000DFB30347A40037350020930785CA93068C
:1046A00000F8A380E700130585CA59472380D70087
:1046B0002396E702EF0020766FB0DFADEFB25FAB7D
:1046C0002A84EFF09FB00347B40037350020A3825F
:1046D000E19C0347A400930785CA930600F8A380D2
:1046E000E700130585CA09472380D7002396E70210
:1046F000EF006072B73700200547A386E7486FB028
:104700007FA9EFB2FFA62A84EFF03FAC0347A400D5
:1047100037350020930785CAA380E70003C7519C63
:10472000930600FB130585CA2381E7000D4723800C
:10473000D7002396E702EF00006E6FB0BFA5EFB27F
:104740003FA32A84EFF07FA88344B40031651305AA
:1047500005BEA685EF30F0030347A4002380919C9B
:104760003735002023849196930785CA930600F875
:10477000A380E700130585CA09472380D700239645
:10478000E702EF0040696FB0FFA0EFB27F9EAA84FE
:10479000EFF0BFA383C5B4003165130545BF238483
:1047A000B196EF30007F1385019C834705003739B0
:1047B0000020130489CA8DEB83C7A400054723009A
:1047C000E500A300F400130700F893070014231179
:1047D000F4002300E4008D47130589CA2316F40270
:1047E000EF0060636FB01F9B11469385B400050511
:1047F000EFB01F9B83C7A400130700F82300E40059
:10480000A300F4008947C9BFEFB2FF94AA84EFF078
:10481000DF9B03C7C4009306000203C9B4009307DB
:10482000000263E3E600BA8703C7A40013F4F70F9E
:10483000B73900203165938489CA930600FC22862B
:10484000CA851305C5C02380D400A380E400A381DA
:10485000F40023812401EF30C073B7350020228695
:104860009385C5CA4A85EFD03FEC11041374F40F49
:10487000138589CA23968402792B6FB01F91EFB2FA
:104880003F8F2A84EFF07F940347B400B7270020BE
:10489000373500202384E78A0347A400930785CA9D
:1048A000930600F8A380E700130585CA0947238013
:1048B000D7002396E70285236FB0DF8DEFB25F8BC1
:1048C0002A84EFF09F900347A40037350020930718
:1048D00085CAA380E70013078061930600FD23913A
:1048E000E700130585CA11472380D7002396E70206
:1048F0001D236FB03F8AEFB2BF872A84EFF0FF8C91
:104900000347A40037350020930785CAA380E7003A
:104910005147930610FD2381E700130585CA0D4713
:104920002380D7002396E702FD216FB0BF86B737FB
:10493000002011679387C7CD1307072298C311671B
:1049400013078725D8C311671307473098C7116726
:104950001307073BD8C711671307C74098CB1167E8
:1049600013072745D8CB11671307871998CF11670D
:104970001307871CD8CF11671307C74898D311674F
:104980001307074DB8C3116713072758F8C31167FA
:104990001307474C9166B8C79386461C13870708D0
:1049A00014C391669386061E54C391669386665E11
:1049B00014C791669386864C14CB91669386C64C39
:1049C00054CB91669386A66114D391669386266232
:1049D00054D391669386866514D7916693868668CC
:1049E00054D791669386C66B34C3916693862670BE
:1049F00074C391669386661C34D31167938707103E
:104A00001307E77398C311671307A778D8C3116713
:104A10001307A71998C7156713078780D8C71567A5
:104A20001307E78798D315671307C78BB8C31167B8
:104A30001307E761F8C315671307678FB8C782804C
:104A400083C7C19CA9C70841834735000347250098
:104A500083466500A207D98F0347450042075D8F53
:104A600083475500E207D98F034775002207558F0A
:104A700083468500C206D98E034795006207558F8D
:104A8000D98F91C79305650009056FD08F84828007
:104A9000EFB20FEE8345450003290500B73400202F
:104AA000D11593F5F50F2302B5008347A900938430
:104AB000C4CD2A848A07A6979C4381CB4A858297D6
:104AC0002285EFF0FFF76FB0EFEC9C40F5DB31652E
:104AD0001305C5C2EF30E04B9C4083454400F9BF4D
:104AE00003474500854763FBE7081C41C1CBEFB294
:104AF0002FE803C4170031651305C5C4A285EF3044
:104B000040497D141374F40F954763E48704B1673B
:104B1000938747C60A043E941C40B73400203734BC
:104B200000208287B7070003130504139387171823
:104B3000B73500201CC119469385E5481105EFB033
:104B40002FE685462946930504131385C43FEF00DD
:104B5000C07E6FB02FE4930710282318F412854607
:104B60000946D5B793071038CDBF93071048F5B75E
:104B700093071058DDB793071068C5B78280EFB26E
:104B80008FDD37340020AA89614681451305840DE5
:104B9000EFB06FE2014A8D44B73A002063143A0146
:104BA000014919A8EFD0BFD92A891545EF00307205
:104BB0008D4463040906A1E81304840D0840EF60E6
:104BC000207383A54196EF60A002EF60606C08C07F
:104BD0004840EF60E07183A50196EF606001EF60EF
:104BE000206B48C00844EF60A07083A5C195EF60BA
:104BF0002000EF60E06908C405456314090013B59F
:104C000014006FB08FD8EFD09FD32A89FD141545BB
:104C100093F4F40FEF00B06B69BFD9DC9307840DF8
:104C200013874AC213868701944383150700090737
:104C3000AE9694C39107E319F6FE050A85B7EFB265
:104C40008FD1EFF0DFF32A8A63150516B734002001
:104C50009384840DC844EF60A06983A50187138401
:104C60008134EF50703783A54187EF507000834740
:104C7000140803470408AA8AA207D98F3305F04015
:104C8000EF600067AA855685EF50807EEF60406038
:104C9000931705012300A4028848C183A183A300C0
:104CA000F402EF60E06483A50187EF50F03283A542
:104CB0004187EF50E07B8347340803472408AA8AE2
:104CC000A207D98F3305F040EF608062AA85568530
:104CD000EF50007AEF60C05B931705012301A40237
:104CE000C848C183A183A301F402EF60606083A57B
:104CF0000187EF50702E83A54187EF50607783477F
:104D0000540803474408AA8AA207D98F3305F04004
:104D1000EF60005EAA855685EF508075EF604057C2
:104D2000931705012302A4028840C183A183A30233
:104D3000F402EF60E05B83A50187EF50F02983A5C3
:104D40004187EF50E072EF60A054931705012306EE
:104D5000A402C840C183A183A306F402EF604059B6
:104D600083A50187EF50502783A54187EF504070FE
:104D7000EF600052931705012307A4028844C18302
:104D8000A183A307F402EF60A05683A50187EF502B
:104D9000B02483A54187EF50A06DEF60604F93175B
:104DA0000501C183A1832308A402A308F402EFB084
:104DB000DFCE52856FB06FBDEFB28FBB0145EF0004
:104DC00030102945EF00B050B707EFBE37E700E0DD
:104DD000938707083CC76FB0EFBBEFB26FB9B73529
:104DE00000203735002093060004114693850527DF
:104DF0001305C53F0123B735002037350020930642
:104E0000000411469385051713050537E521EFF0DA
:104E10001FB26FB02FB80346C502AA8537350020F0
:104E200081461305C53F11AB2E86AA853735002074
:104E30008D461305C53F11A3B73700201387070F11
:104E40008905F956A300A70093F5F50F1385070F01
:104E50002300D7006FF05FFDEFB28FB11C413165C9
:104E60001305C5C783C50700B734002037340020B9
:104E7000EF3020121304040F138941281306D003C6
:104E8000938541281385340F23010400EFB04FB1FF
:104E90009305E0030545EFF03FFA85471306D0037D
:104EA0009385112C1385340F2301F400EFB04FAF1D
:104EB0009305E0030545EFF03FF81306D003814565
:104EC0001385340FEFB02FAF89472301F4008347D8
:104ED000A90789450545A301F400EFF0FFF5930705
:104EE000F03F894505452311F400EFF0FFF46FB062
:104EF0006FAAEFB2EFA72A8431651305C5C8EF305A
:104F0000800B0C401307F00F83C715006392E70670
:104F100003C7250083C7619C6315F704316513053A
:104F200085C9EF3000071C4003C73700854763146D
:104F3000F700EFB05FAFEFB0FFDE0547B7370020F7
:104F40009387070F2381E7001840894509450347E8
:104F500037002383019CA381E700EFF0FFED6FB0E2
:104F60006FA331651305C5CAEF30A0020147F9B739
:104F70001307D003B387E7021306B0071385412850
:104F80001D8E3E956374C7001306D0038905EFB0EC
:104F90002FA183C7619C85072383F19CC9B7EFB21A
:104FA0002F9D2A8408410505EFC06F870C40AA8415
:104FB00037350020154685051305250FEFB04F9EA8
:104FC0001C40B7350020268503C657009385750F12
:104FD000EFB0FFA01C400D4583C55700950593F524
:104FE000F50FEFF07FE56FB0EF9AEFB26F982A847C
:104FF00008410505EFC0AF820C4003C65500990576
:10500000EFB0DFAAB73700202389A70E85451145E9
:10501000EFF09FE26FB00F98EFB28F955145EFF030
:105020001FC2B73700202389A70E85451545EFF02D
:10503000BFE06FB02F96EFB2AF931387C18A83564C
:10504000070093870130A380D700A1822381D70076
:105050008356270001468145A381D700A182238280
:10506000D70083564700035767002165A382D70006
:10507000A383E700A18221832383D7002384E70051
:1050800023800700EFB09FA2B73700202389A70E27
:1050900085451D45EFF05FDA6FB0CF8FEFB24F8DD2
:1050A000B73500209385350F3D45EFD04FE083A6FF
:1050B000C18003A7819CB73700209387070F335720
:1050C000D7022381A7008D451305D00F2382E70067
:1050D000EFF09FD66FB00F8CB7370020130700306A
:1050E00089451305F00F2399E70E6FF0FFD41441A3
:1050F0000546938716001CC1834745006373F60875
:10510000EFB20F87FD172302F50083C716009D46F7
:1051100063E0F60295CBFD1793F7F70F994663E529
:10512000F602B1668A079386C6CCB6979C438287FF
:105130001307E00F638EE7021307F00F6387E702A0
:105140001307D00F6389E7026FB0CF84EFF0DFD091
:10515000E5BFEFF01FDACDBFEFF07FE4F5B7EFF07A
:10516000DFE8DDB7EFF05FEBC5B7EFF0FFF6E9BFC3
:10517000EFF09FC4D1BFEFF07FF2F9B7EFF0BFEBD4
:10518000E1B78280EFA2DFFE1C4183C507009307D1
:105190000008638EF50263EEB70085476382F5026F
:1051A000C1476383F5023165130585CEEF20705E3C
:1051B00011A89307E00FE398F5FEEFF05FF319A055
:1051C000EFF01F8D6FA01FFDEFF09F87E5BFEFF0A1
:1051D0003F91CDBFEFA2DFF941112A8485450545F6
:1051E00002C002C202C402C6EF10507185450545D7
:1051F000EF10901F1149B14489470A853EC04AC249
:1052000026C422C6EF106061BD450945EF10D01DD0
:10521000A1670A853EC04AC226C422C6EF10E05FDD
:1052200099450545EF10501C930700040A853EC0C0
:105230004AC226C422C6EF10405E9D450545EF10C8
:10524000B01A930700080A853EC04AC226C422C687
:10525000EF10A05CB9450545EF10101991670A855C
:105260003EC04AC226C422C6EF10205B41016FA097
:105270007FF2EFA2FFEF41113715014091474C003B
:10528000130505C03EC62312F100231301002314A9
:10529000010023150100EF10F00741016FA09FEFFF
:1052A000EFA21FED0545EFF0FFF20545EF10305678
:1052B0000145392113054006EF00C07C1305100697
:1052C000EF10506B854705C53165130545D0EF20BC
:1052D000904E0545EF00A07F89450545EF1030440D
:1052E0000545EF00C07E0145EFF0DFEE81473E85CA
:1052F0006FA05FEA9307000463EEC702EFA2BFE569
:105300002A84054515C42E8985C5B28481451306B6
:10531000800813054400B689EFA0FFE985472320E4
:105320002401230394082302F408A304340901454B
:105330006FA0BFE51305F00F8280EFA2DFE19304B9
:10534000F00F59C9D1C92A84084159C5834484083A
:10535000D9E4B689834774088346640863F1D708A3
:10536000034794081379F70F6374E6001379F60F77
:105370008507A303F40883475408850793F7F70FBD
:1053800063E3D70081473307F702A302F4084A8694
:105390003A95EFA0FFE0B737002083C7A76589EFF4
:1053A00083466408034654088345940831654A8758
:1053B000130545D1EF20F03D83475408A29723827F
:1053C0002701238237050347740883476408636510
:1053D000F70085472304F40826856FA01FDB85446A
:1053E000E5BF2A8721C51C411305F00FB1C3034552
:1053F00077081DCD834647089307F5FF03466708E6
:1054000093F7F70F8506A303F70893F6F60F63E308
:10541000C60081462302D7088346870899C6B3B7DA
:10542000C70093C717002304F70882801305F00F05
:105430008280EFA2FFD3056501118545110502C0E9
:1054400002C202C402C602C802CA02CC231E010064
:10545000EF10D04A930700082310F10037150140E0
:10546000E1473EC48A858D47130505803EC2EF1093
:10547000606AB7C704013EC6B70700023ECA930779
:1054800000023ECC6C009D4737350140231EF100E1
:1054900002C8EF1010510546894537350140EF101D
:1054A000D05705616FA01FCFEFA2FFCA79712A8480
:1054B000AE89328981451306C0024800B684EFA048
:1054C0009FCF85450545EF1090412285EF10E01AEA
:1054D000C1473EC6930700083ECC930700103ECE5E
:1054E0004C00856722854EC24AC426C83ED402CAF3
:1054F00002D002D202D6EF10E02745616FA0FFC8AC
:10550000B706000141110147814793850181FD16CE
:105510006148137615002E96034606000581331662
:10552000E600D18F0D07F58FE31507FF13950701EF
:1055300041812398A19CC1831375F50F9386019D2A
:105540002381A6002388F19C83D7019D42055D8DB0
:1055500041018280EFA23FC08D4AB3045503373426
:10556000002032851304044B2E8AB689EFF05FF9D0
:105570009357850013895400330959032299230056
:10558000A9004181A300F9002301A9001389640047
:10559000330959039D045285EFF09FF69357850018
:1055A000B384540322992300A90041812301A90057
:1055B0004E85A300F900EFF0BFF4935785002694C1
:1055C0002300A4004181A300F4002301A4006FA0E4
:1055D000DFBBEFA25FB8AA893165130505D3EF20C1
:1055E000901D373500201306301281451305054BF9
:1055F00013844128EFA03FBC014993844128316ABC
:1056000083C73402634CF90663880906B737002064
:1056100083C6A748930780FC1145B386F60293F62C
:10562000F60F3686B685EFF0FFF203C4040093064A
:10563000800C93178401E18763D307008146368687
:10564000B6851545EFF01FF113740402814619E089
:105650009306800C3686B6851945EFF0BFEF83C6FA
:10566000D19C930780FC1D45B386F60293F6F60F96
:105670003686B685EFF01FEE6FA03FB183C70400FA
:105680001375F90F898B99E36395090281460146E9
:105690008145EFF03FEC0347440283465402034642
:1056A0006402CA8513058AD4EF20B00E05090D04E3
:1056B00081BF834644020346540283456402D1BF3E
:1056C000EFA21FABEFF0FFF037050240B737002025
:1056D000130505039387074B5CC583C7712A0D47E4
:1056E0008545B387E702A907B387E7025CC1EF10DE
:1056F000E00B854537350140EF1050306FA09FA972
:10570000EFA21FA7EFF0FFD2138441288347340292
:105710008D448D46B387970237360020B735014058
:10572000370502401306064BB10513050503A9070B
:10573000B386D702EFF05FD70346340231658D455B
:1057400033069602130585D6290633069602EF2006
:1057500050040545EFF0DFF601456FA0BFA3130528
:105760000020EF10000A0DC113050010EF10200AF1
:1057700037050240814513050503EF1020038145DD
:1057800037350140EF10902773002030411102C4DB
:105790003717024002C61C43C16637060200D58F88
:1057A0001CC3B7160240130700509C42F18F3EC63F
:1057B000A24785073EC4B24781E7A247E397E7FEC9
:1057C000B71702409C431397E700635407088547C7
:1057D0003EC632478547631CF706B7270240984309
:1057E000B706C1FFFD161367070198C39843719B65
:1057F00098C398431367270098C3B7170240D8434C
:10580000D8C3D843D8C3D84313670740D8C3D843B5
:10581000758FD8C3D843B7061D00558FD8C398439A
:10582000B7060001558F98C3984393166700E3DDD0
:1058300006FED843B7160240719BD8C3D8431367FE
:105840002700D8C32147DC42B18BE39EE7FE41012C
:10585000828002C6BDBFEFA2BF91B7170240984336
:10586000B706FFF81367170098C3D843758FD8C3DE
:105870009843B706F7FEFD16758F98C39843B70691
:10588000FCFFFD16758F98C3D843B70681FFFD1640
:10589000758FD8C337079F0098C7EFF03FEF6FA011
:1058A0007F8FB7160240DC421146B18B13874181CE
:1058B0006385C70021466389C702B7177A009387BB
:1058C00007201CC3B7170240DC43918393F6F7000F
:1058D000B71700209387877FB69783C607001C43BE
:1058E000B3D7D7001CC38280DC42D042C983BD8BB2
:1058F0009315F600890763CD0500B746024083A6DD
:105900000680C18A99CAB7167A009386062011A824
:10591000D4421396E600E35806FEB7163D00938680
:105920000690B387D70271BFEFA29F84EFF01FE606
:105930006FA05F86854537050040EF1030438547EF
:10594000631CF5009387419D9843854537050040CA
:10595000050798C3EF10104473002030EFA25F8159
:10596000011185450545EF10407B930770043ECA41
:105970004C089307703E370500403ECCEF10500BAB
:105980000546854537050040EF101034854537053D
:105990000040EF1050309307C0122316F1008547E6
:1059A0002307F100680085473EC8EF10204E996735
:1059B00037E700E0938747937CC3B207B706002C14
:1059C000B183D58F7CD305616FA0CFFC9387819D78
:1059D000984311EFEFA2CFF9054798C3EFF01FF8F6
:1059E0003165130505D8EF20005D6FA0AFFA828006
:1059F00083A7419D1305803E37070040B387A70268
:105A0000035547023E95828003A5419D828083A76E
:105A1000418137177A0013070720B3D7E702238E97
:105A2000F19C828019E501458280014541016FA00A
:105A30006FF6EFA2EFF3411132842E89AA84EFF0C2
:105A40003FFB2AC4A2473386870032C63244A247AE
:105A50003334F400134414004A85829479F5EFF04E
:105A60003FF92AC42247B24763FCE70075D42247B6
:105A7000B247E3F3E7FE4A858294133515007DB7FC
:105A80000544D9BFEFA2CFEE4111AA84EFF05FF633
:105A90002AC685473244A305F100B24726946374B1
:105AA000F400A30501008544EFF09FF42AC6637A51
:105AB000A4008347B10093F7F70F81C741016FA09E
:105AC0006FEDB247E362F4FEA3059100F1BF938648
:105AD000419D9C4241111387419D3E958547A307F7
