:100000006F60702D1300000013000000130000004B
:100010001300000013000000130000001300000094
:100020001300000013000000130000001300000084
:08003000130000007300100032
:100038006FF09FFC000000006F0060186F00A01AAE
:1000480000000000000000000000000000000000A8
:100058000000000000000000000000000000000098
:100068006F60D026000000006F605026000000007E
:100078006F60D0256F6090256F6050256F601025E8
:100088006F60D0246F6090246F6050246F601024DC
:100098006F60D0236F6090236F6050236F601023D0
:1000A8006F60D0226F50A07A6F6050226F6010226C
:1000B8006F60D0216F6090216F60502100000000B8
:1000C8000000000000000000000000006F60102029
:1000D8006F60D01F6F60901F6F60501F6F60101FA0
:1000E8006F5010126F2020106F60501E6F60101E2E
:1000F8006F60D01D6F60901D6F20605A6F60101D7B
:100108006F60D01C6F60901C6F60501C6F60101C7B
:100118006F60D01B6F60901B6F60501B6F004015A5
:1001280000000000000000000000000000000000C7
:080138000000000000000000BF
:10014000397101436EC619A0397141536AC866CA34
:1001500062CC5ECE19A0397101535AD056D252D416
:100160004ED64AD826DA22DC06DE3301614082828E
:1001700041114AC026C222C406C68282B24D410144
:10018000024D924C224CB24B4101024B924A224A00
:10019000B2494101024992442244B2404101828065
:1001A0002A8309CA83830500230073007D16050393
:1001B00085056DFA82802A8311C62300B3007D165F
:1001C000050365FE82800145EF50C04437170240A9
:1001D0001C47B7068000D58F1CC7EF50B00237E729
:1001E00000E03C4793E787003CC773002030730072
:1001F0002030EFF2FFF711458545EF700068B747F3
:10020000024093870780984301451367470098C3CE
:1002100003A74182B7A74A04938707206309F70021
:10022000B777DC02938707C06315F7000545EF70C9
:10023000405385450565EF706062A9BF37370240BE
:10024000930700FC2306F7409387C177C207C18359
:100250002318F7409387C16F23ACF1A4C207C18371
:10026000231AF74089472309F742230BF742938764
:10027000818AA38007008280011122CE26CC4ACA3F
:100280004EC852C656C437340240034764408347C1
:1002900074409376F70F098B6304075E93F7F70FAB
:1002A00013F70703930500026302B70493060003E4
:1002B000630FD71621E713F7F7036300071285468C
:1002C000631ED70293F7070495CB834764431385D6
:1002D000416D93C70708230BF4420356844083A55E
:1002E00081A51376F60FEF40306B09A893F7F7035B
:1002F0006384E70213071002638EE70AB7370240F0
:1003000009472383E7407244E2445249C249324AD2
:10031000A24A05617300203083D7618B99E7834738
:10032000244393F7370F2309F44283C7C18B93F714
:100330000706E9F783C7D18B954613F7F70F638F4D
:10034000D7049947E31CF7FA03D7618B9307F003AF
:100350001304000463E6E70003D4618B4204418088
:1003600003A9018C2286CA851385C177153D83D7E1
:10037000618B229923A0218D818FC207C183239B8A
:10038000F18A1374F40FB73702402388874203C7FA
:100390002743134707042389E7428DB7B736024046
:1003A00003C7364083C7418B13770708D98FA381D2
:1003B000F640A9B78347644393F7C70F93E7270035
:1003C000230BF4428347644393C70704230BF4428F
:1003D0009387818AA380070015B793F70704E38FFB
:1003E00007F083C7C18B93F70706E38907F083C73C
:1003F000C18B93F70706E393B7F003C7D18BA547EB
:10040000E31EF7EE37450020130600049385C177FD
:100410001305C521713305472388E1A4834724438D
:1004200093F7C70F93E727002309F442C1BD930751
:10043000A0FC2309F4421387C17783470700238E6A
:10044000F18A8347170083562700A38EF18A8357CA
:100450006700239BF18A239DD18A83564700239C02
:10046000D18A03C9C18B9386C177137909066309C1
:10047000090C83C7C18B93F70706639EB70283C736
:10048000D18B2946FD1793F7F70F6363F618316692
:100490008A071306862BB2979C43828783D7818B6A
:1004A00063980716B7450020130600049385C521FD
:1004B0001385C177F53183C7C18BE207E18763DE1E
:1004C000073803D7618B9307000463E6E70083D7FF
:1004D000618BC207C18303D7618B1D8F42074183A4
:1004E000239BE18A93F7F70F373702402308F7423F
:1004F0008347274393F7C70F2309F74201B583D7F3
:10050000818B6397071003C73600A388E18A65B71C
:1005100083D7818B639E070E03C726002388E18A59
:1005200059BF83D7818B6395070E83C7118B2380B7
:10053000F60051B783D7818BE1EF83C7018BC5BF2D
:1005400083C5D18B2D4813F6F50F6363B80CB165E5
:100550000A069385452E2E961042028683D6A18BDD
:100560000D46A1826386C60C636CD6008547638CFA
:10057000F60289476381F60481471309F00F81A8C9
:1005800093071002638BF60893072002E396F6FEAA
:1005900083D7818BF5F3B567938747C423A0F18C8C
:1005A0009307F00D2DA0B567938747D223A0F18C58
:1005B00083C7070029A8B71700209387872823A09F
:1005C000F18C03C7270083C73700A207D98F03D751
:1005D000618B63F4E700239BF18A03D7618B930758
:1005E000F003130A000463E7E70003DA618B420AB1
:1005F000135A0A0183AA018C52861385C177D685C6
:100600004536D29A23A0518D9307F00FE315F9EAEE
:10061000B73702401307F0FCBDBB83D7818BA9FF1E
:10062000B71700209387A72923A0F18CA54745B7CA
:1006300083D7A18B094793F7F70F6387E702636BB3
:10064000F70099EF9387C18923A0F18C014983C7F3
:100650000700B5BFE392D7F2B567938747BFB9B735
:10066000B567938787C399B7B5679387C7C03DBF01
:1006700083D7A18B93F7F70F238AF18A2DBD83C708
:10068000518B2380F60003D7618B8547E3F5E7E2C2
:10069000239BF18A0DB583D7A18B93F7F70FA38A1C
:1006A000F18A05472389E18A39B583C6C18BFD8A62
:1006B00099EE83D7A18B054793F7F70FE39DE7DE0C
:1006C00083C7318B93F7E70FA389F18AEDB383C614
:1006D000C18B0946FD8AE39DC6F283D7A18B93F7B0
:1006E000F70F9DF783D7818B054793F7F70F63814A
:1006F000E70213072008E39DE7F0373702408347FE
:10070000A74393F7C70B93E72700230DF74265B381
:10071000373702408347674393F73707230BF74286
:100720008347674393F7C70B93E72700230BF742F1
:1007300059B383C6C18BFD8A8DE683D7A18B05474C
:1007400093F7F70FE396E7ECB717002083C7F72876
:1007500093F70702E38E07EA83C7318B93E717000D
:10076000A5B783C6C18B0946FD8AE393C6EA83D742
:10077000A18B93F7F70FE39D07E883D7818B1307CE
:10078000100893F7F70F638FE70013072008E39132
:10079000E7E8373702408347A74393F7C70B93E750
:1007A0003700A5B7373702408347674393F73707CA
:1007B00093E7C700230BF7428347674393F7C70BC1
:1007C00093E73700A5B72380060075BD83C7C18BAB
:1007D000239E0176FD8B99EB83C7318B858BBDC33F
:1007E00089472380F60003D7618B4DB583C7C18B42
:1007F0000946FD8B639CC70403D7818B1306100841
:100800001377F70F630DC700130620086305C702AF
:1008100003D7618BE3FEE7DE239BF18AD5BB373735
:100820000240034767433146318BE31EC7FA054751
:100830002380E6004DBF373702400347A7430D46EC
:100840000D8BE5B703D7618B894789B583D7618B5A
:10085000E370F6DC239BC18A65BB83D7618B91EB88
:10086000B73702402388074203C727431377C70FD0
:100870001DB6373702408347274393F7370FADB98B
:1008800093F716009DC3A38A018A238A018AA3894C
:10089000018A2389018AA30104404D3283476440C1
:1008A00093E717002303F440B9BC93F746009DCBB0
:1008B00091472303F4402945EF5020260347544035
:1008C000118B11CB03C7318B13672700A389E18AF2
:1008D00083C7318B0DBC03C7318B1377D70FA38927
:1008E000E18A15B42303D44039BCEFF27F88B747BF
:1008F0000240938707809843C1E51367870098C338
:100900003734024099472300F4402DCD2945EF505C
:10091000C0209D47230004402301F4409307900228
:100920002300F440213A930710F8A300F440130782
:100930001004E146138641A79385C10B1385816E90
:10094000EF40B001B715002013071004E1461386ED
:10095000C1A89385C55C1385416DEF40100037E752
:1009600000E0930780277CC3B207B183B706003B42
:10097000D58F3CD3B70700082322F7106FF09F8173
:100980005D9BB5BF2945EF504019B7E700E0230054
:100990000440B843C146B4C337060008938607181D
:1009A000D0C2B8C3E1BF83C7D17B9DCB0547638E5F
:1009B000E7021307401F9307802A23A8E18023A69C
:1009C000F1809386072D371700202328D73213078D
:1009D000002DB307F740371700202326F732828017
:1009E0001307A0289307002DC9BF1307C021DDBF3F
:1009F000EFF20FF837070001AA87130707F07D8F82
:100A0000A1662E856301D70463E8E60021C79966D5
:100A10006301D7026FF00FF8A5666302D704BD66C5
:100A2000E31AD7FEB725002093F7F70F9385053F0C
:100A300039A0B725002093F7F70F93850546BE959B
:100A4000EFF00FF6C1BFB725002093F7F70F93859E
:100A50008541F5B793F7F70F9385C17BCDB7B725E0
:100A6000002093F7F70F9385052FD1BFB7250020FE
:100A7000130660029385053F0145ADA3B72500200D
:100A8000130660029385053F0145F5A1B7250020B7
:100A90001306100B9385054613050010A1A3B72577
:100AA00000201306100B9385054613050010E1A1E5
:100AB000EFF20FEC372400201304043F0345D40168
:100AC000EFA0E00083A58187EF90A04E23A2A19A1A
:100AD0000345E401EF90B07F83A58187EF90604DDF
:100AE00023A0A19A0345F401EF90707E83A581872E
:100AF000EF90204C144823AEA19893D78600C207EC
:100B0000C183B387F7021387818CE1821CC38347BB
:100B10004401A207D58FB387F7025CC3EF00100A28
:100B2000EF10A03D5C400545A207A18393C7F7FFE6
:100B300023A2F18CEF40102E6FF0CFE5EFF2AFE182
:100B4000B72900201306100BFD5513850946EFF059
:100B50008FE62D46FD551385C17BEFF0CFE5B72419
:100B600000201306F00FFD551385042FEFF0AFE4BE
:100B70002D469385C17B13050030AD211306F00F80
:100B80009385042F13050040B12983C7C17B1389C6
:100B9000C17B858B95CB232009008547A300F900F5
:100BA0002D46FD479385C17B1305003023220900A4
:100BB000231409002305F9007D2E1306F00F9385F9
:100BC000042F13050040452ED1359389094683C76C
:100BD000090137240020130404466380071093079B
:100BE00000F82300F400E9778D072319F400854706
:100BF000A30DF4009307C0FCA30EF402956793873E
:100C000047CC231FF402B71780CC938707803CC0E2
:100C1000B7570008938747CC7CC0B7D7C44C93879D
:100C200007C83CC4F1779387C74C2316F404930795
:100C3000C0042307F404B73732FF938727133CC857
:100C4000FD57231AF4048D67BD072313F408B7B7C3
:100C500090D9938717E62324F408B7175441938754
:100C6000474D2326F408B757C77993875741232860
:100C7000F408B73736639387C73949469305640844
:100C800013058409232AF408EFF08FD1B7078BFFEF
:100C90009387B7051CD0B7070040938767195CD0CE
:100CA000B74700401CD4B707BEFFF5075CD4B707B1
:100CB0003C34B9171CD8B7373B349387B7435CD85B
:100CC000C167938707D52320F4088567938767FC5E
:100CD0002312F40823080400D933930700F82300F3
:100CE000F400E9778D072319F4008547A30DF4007C
:100CF0003724002013068004930584411305002047
:100D0000D5249307844103C7070015C32147A38057
:100D100007002381E700A38107002382E700A38265
:100D200007002383E700A38307002384E700B72994
:100D3000002013066002FD551385093FEFF0AFC791
:100D4000353383C7093F1384093F858BE1C71306F9
:100D5000200281451385093FEFF0EFC537250020BC
:100D60001146930500021305B53FEFF0CFC43725B8
:100D700000201146930500081305753FEFF0AFC33F
:100D8000B727002011679387274113070704239093
:100D9000E7002391E70095472309F400230AF400B4
:100DA000930700FCA300F4008567938787802311D5
:100DB000F4000346A900930760FD13078007A3070B
:100DC000F4009947A308E400A309E4002308F40011
:100DD00001479384042F8D45FD566345C70693074D
:100DE000F007A30EF400E17793C7F7F7231FF40091
:100DF00089472300F4029307C0FBA30AF40093077A
:100E00004003230BF4008347040093E707F8230013
:100E1000F400AD31713903473400B71700209387D0
:100E20008728A380E70203472400373500201946AE
:100E30002384E702930574011305E511EFF04FB623
:100E40006FF0AFB4B307B7020507A6972380D700AA
:100E5000A380D7002381D70049B7EFF26FB1A13645
:100E60000545EF40207B6FF0EFB2EFF2CFAEB7F762
:100E7000FF00E98F2167AA8432893684638AE706F6
:100E8000AE89636AF700C1CB19676380E704014448
:100E900022856FF08FAF25676384E70A3D67E3988B
:100EA000E7FE93174501B7290020D1831385093F39
:100EB0003E95EFF0EFAE9389093F19C0C1362A8401
:100EC00093F5F40F4A86CE9505A0B72700209379B5
:100ED000F50F93870746BE994E85EFF06FAC19C0AA
:100EE0007D3E2A844A86CE852685EF50E0264DB782
:100EF000372A00209379F50F93078A41BE994E85D2
:100F0000EFF00FAA65D01306800493058A411305FC
:100F100000209520F9B71375F50F9387C17B3E9597
:100F2000EFF00FA819C44A86CE8513050030A12022
:100F30002A844A86CE852685EF500022393F89BF14
:100F4000372A00201375F50F93070A2F3E95EFF00F
:100F50002FA509C81306F00F93050A2F13050040AB
:100F600019282A844A86CE852685EF50E01E05453D
:100F7000EF40406A31BFEFF20F9EB7F7000833042D
:100F8000F5003307C400B7070108637BF7042E8A16
:100F90002285930500103289EF6060121147AA8400
:100FA0008947631CE502B729002013060010FD5590
:100FB00013854951EFF02FA04A86D28513854951F8
:100FC000EFF00F9E13060010938549512285EF60C4
:100FD000A0208D476313950081473E856FF0EF9AFF
:100FE0008547E5BF37F70008AE87B305E5003387CF
:100FF000C500B7060108637CD700094599CBEFF21D
:101000002F973E85EFF0CF9901456FF0AF980545DA
:1010100082808280AA872E8563D3B7003E85828036
:10102000EFF20F954111AA8511466800EFF04F9736
:10103000324541016FF00F96AA872E8563C6B7002F
:101040003E856353F60032858280EFF26F927971AC
:10105000614681452808EFF00F96014502C602C897
:1010600002CAEF604072371501409307A0036C007D
:1010700013050580372401402316F10002CAEF60F2
:10108000402713050440EF50F02C85473ECE3ED05C
:10109000B7070E003ED22C089147130504402306E3
:1010A000F10202CC02D4EF50902D85451305044087
:1010B000EF50F032854513050440EF5050311305D1
:1010C0000440EF50F032930404402685EF50F03294
:1010D0006DFD1305044037240140EF509032930416
:1010E00004402685EF5090326DFD13050440EF500B
:1010F000703F2398A18C45616FF0CF89EFF2AF85E7
:1011000079712A84AE89328981451306C00248006C
:10111000B684EFF04F8A2285EF50F0549307000811
:101120003ECC930700103ECE930700403ED093077D
:1011300000023ED24C008D6722854EC24AC426C8AA
:101140003ED402C602CA02D6EF50F05F45616FF08E
:10115000CF83EFF2EF81D53D37240140B704024041
:101160009305C4441385840091461386418D7937D5
:10117000130504409D4605468545EF50302B130569
:1011800004409D4609469545EF50502A13050440FA
:101190009D460D468D45EF5070299D46114613051D
:1011A00004409145EF509028138584008545EF5009
:1011B000105D854513050440EF50D0256FE09FFD7D
:1011C0004167B72600209387466113060710D0D7E2
:1011D0001306170013070704D8C33717020098C374
:1011E0003707020013058700E8C313050702A8C3E9
:1011F0006165E8C713050701A8C713050720A8CF35
:101200003725040088CF13050710E8CF37450400C1
:10121000C8CF1305070488D33785040090D7C8D3F7
:10122000130707083785020037260200B74502007A
:1012300088DBD8DBD0C78CC7B727002003C7073FA0
:10124000938746611375070119C1CCC790C7218BDD
:1012500001CB37170200D8C341671307070498C3AF
:101260008280EFE2FFF041118D472E8432C63EC4EA
:10127000AA8402C2014681470147C16563438706CC
:1012800019C22312F100371501404C0013050580E7
:10129000EF60200601462312010081470147B70590
:1012A0000200634D870419C22312F1003715014073
:1012B0004C00130505C0EF60C00301462312010076
:1012C00081470147B70504006347870419C2231209
:1012D000F1004C0037150140EF60A00141016FE0C3
:1012E0007FEB93162700A696944233F5B60009C506
:1012F000D58FC207C1830546050749B79316270056
:10130000A696944233F5B60009C5D58FC207C183AE
:101310000546050779B793162700A696944233F53C
:10132000B60009C5D58FC207C1830546050769BF49
:10133000EFE21FE44111B78702005146854568007E
:101340003EC60537B707002093870706884705463E
:10135000A165EF6020073705002013068002914544
:1013600013050500FD3D3705002041469145130555
:101370000501C53DB70700209387070237270020E6
:10138000138607041307476194438A06BA9623A07D
:101390000600D4438A06BA9623A0060094478A061C
:1013A000BA9623A00600D447C1078A06BA9623A09E
:1013B0000600E39BC7FC41016FE0DFDDEFE25FDB8E
:1013C000013583C7317C91C3A5373725002013062B
:1013D0008004E1451305456169356FE0BFDBEFE24D
:1013E000BFD63704002013040401B70400203709D6
:1013F0000020B70A002093840402130B0401014A61
:1014000013090906938A0A00C14B0C40054681491D
:1014100093D7E500F18BCA978843C205C181EF508D
:10142000707A5145EF40606FB38759018C4393D771
:10143000E500F18BCA978843C205C181EF50507710
:10144000B38734019C4391093315F500336AAA0030
:10145000E39C79FD0C400146110493D7E500F18B24
:10146000CA978843C205C181EF50D0755145EF40FE
:10147000C06AC104E31B64F952856FE07FD0EFE2DC
:10148000BFCC83C7317C014499C3913F2A84B719EB
:101490000140B7240020138B09C0938444610149A3
:1014A000370A0700B70A0200B70B0400416C9389A2
:1014B00009808C40B3F74501638B5703638D770335
:1014C000054563978701C205C1814E85EF50506E77
:1014D00093371500B39727015D8C0509E147910407
:1014E000E319F9FC23AE818C22856FE07FC9C20528
:1014F000C1815A85E1BFC205C18137150140F9B7E5
:10150000EFE21FC7B7070700E98F37070200AA8578
:101510006384E702370704006388E70241670545F3
:10152000639AE700C20537150140C18113050580A4
:10153000EF5010686FE01FC6931505013715014085
:10154000C181130505C0EDB793150501C18137159C
:101550000140F9BF1357E500B7070020718B93874F
:101560000706BA972E86931505018843C1816F50EF
:10157000706585473395A70083A7C18D7D8D333571
:10158000A0008280EFE2DFBE79712A848545314573
:1015900002CA02CC02CE02D002D202D402D602C4C7
:1015A00002C623180100EF60402D6315040E854527
:1015B0000945EF60602E3715014061478D474C08A3
:1015C000130505C03ACE37040040231AF1003ECC83
:1015D000EF5030529307005A2C00130504403EC6CA
:1015E00002C4EF60C03C0546854513050440EF602A
:1015F000A059C167938707060C10130504403ED01D
:101600002313010223140102EF60E0410C101305C3
:101610000440EF60404C854513050440EF60605581
:10162000A14513050440EF606059A145130504402E
:10163000EF60E059814513050440EF604056930583
:10164000002D13050440EF60205A9305002D13056B
:101650000440EF60C059EF00F00E9307D012231042
:10166000F1009D472301F1000A8585473EC2EF50F6
:10167000F07F89679387E71E37E700E07CC3B207F6
:10168000B183B706002DD58F3CD78545130504409F
:10169000EF60604C45616FE0FFAFAA853705004001
:1016A000130505406F60204BEFE29FACAA8832889B
:1016B0003E8689472E85BA85638CF8008D476388FE
:1016C000F80063830800368842856FE0BFAC42951E
:1016D000EFF09F961318050113580841F5B7194705
:1016E0003305E502B7070020938707082E860147D8
:1016F00081463E9583152500034505009307C011DB
:1017000065B719473305E502B70700209387070837
:101710002E861307000C930600103E958315450096
:10172000034515009307001441B71387C18E144376
:10173000B727002058430E0593874767AA9794C39D
:10174000D8C38280EFE2DFA2AA8403453500138468
:10175000C18E8315040005817D8951372310A400B3
:1017600003C534008315240005817D89593F83C753
:1017700034002311A40003C5240083154400858B85
:10178000920711815D8DA13F83C734002312A4000D
:1017900003C5240083156400858B920711815D8D3C
:1017A0008D372313A400014549370547A38AE18EED
:1017B0006FE05F9EEFE2DF9B834735000347250024
:1017C000B705002093F7F703135677008607D18FEC
:1017D000938505148607AE9783D707003166137784
:1017E000F7071306463106079386C18E329723907A
:1017F000F60083570700034705002391F60083474F
:101800001500098393F7E70FBE9583D70500239250
:10181000F600834715000145858B9A07D98F860707
:101820003E96835706002393F60001370547A38AA7
:10183000E18E6FE03F96EFE2BF938347350083462A
:1018400025000347050093F7F7039D82860713766B
:101850004700D58F058BAA841384C18E8607630D3C
:10186000070C6301060C316713074731BA9783D71A
:1018700007002313F40001454D3D03C524008315E3
:10188000040009817D89A13D2310A40003C5240023
:101890008315240009817D89AD3583C72400231178
:1018A000A40003C51400831544008D8B8E07158199
:1018B0005D8D353583C724002312A40003C51400B1
:1018C000831564008D8B8E0715815D8D1D3D23135F
:1018D000A4000545993D03C51400831504007D89C6
:1018E000FD3B2310A40003C51400831524007D894B
:1018F000093D2311A40003C50400831544000D8194
:10190000F93B2312A40003C50400831564000D8174
:10191000CD3B2313A4000945093D0D47A38AE18E61
:101920006FE05F873707002013070714BA9783D744
:1019300007002312F40081B711CA3167130747313A
:10194000BA9783D707002311F40035B73707002073
:1019500013070714BA9783D707002310F40021BF99
:10196000EFE21F81AA84034535001384C18E8315DD
:10197000040005817D89A5332310A40003C534002C
:101980008315240005817D89AD3B83C73400231175
:10199000A40003C5240083154400858B92071181A0
:1019A0005D8D353B83C734002312A40003C524009A
:1019B00083156400858B920711815D8D9933231304
:1019C000A40001459D3383C7240003C5140083157B
:1019D0000400BD8B86071D815D8D113383C72400F4
:1019E0002310A40003C5140083152400BD8B8607B3
:1019F0001D815D8D39332311A40003C514008315A7
:101A0000440009817D89E1392312A40003C5140033
:101A10008315640009817D89ED312313A4000545F8
:101A200029330947A38AE18E6FE0CFF6EFE24FF446
:101A3000AA8483C73400034525003707002093F7A5
:101A4000F703935675008607D58F1307071486078B
:101A5000BA9703C7040083960700B1671376E70FB0
:101A600093874731B2970981058B839707007D895A
:101A70001384C18E51CF831504002312D400231385
:101A8000F400EFF0DFC52310A40003C52400831584
:101A9000240009817D89EFF0DFC62311A4000145F0
:101AA000EFF0BFC883C7240003C5140083150400EA
:101AB0008D8B8E0715815D8DEFF07FC283C724006B
:101AC0002310A40003C51400831524008D8B8E07FA
:101AD00015815D8DEFF0FFC22311A40003C5140032
:101AE000831544007D89EFF09FBF2312A40003C536
:101AF0001400831564007D89EFF0BFC02313A40098
:101B00000545EFF09FC20947A38AE18E6FE08FE899
:101B1000831544002310D4002311F400EFF03FBCE0
:101B20002312A40003C524008315640009817D8964
:101B3000EFF03FBD2313A4009DB7EFE26FE3AA844B
:101B4000034535001384C18E8315040005817D890A
:101B5000EFF0FFB82310A40003C534008315240060
:101B600005817D89EFF0FFB983C734002311A400FC
:101B700003C5240083154400858B920711815D8D78
:101B8000EFF0FFB583C734002312A40003C524007F
:101B900083156400858B920711815D8DEFF07FB610
:101BA0002313A4000145EFF05FB883C7240003C5E9
:101BB000140083150400BD8B86071D815D8DEFF039
:101BC0001FB283C724002310A40003C5140083158B
:101BD0002400BD8B86071D815D8DEFF09FB2231120
:101BE000A40003C514008315440009817D89EFF02A
:101BF0001FAF2312A40003C51400831564000981DC
:101C00007D89EFF01FB02313A4000545EFF0FFB16D
:101C100083C7140003C50400831504008D8B8E0751
:101C200015815D8DEFF0BFAB83C714002310A400B6
:101C300003C50400831524008D8B8E0715815D8DEF
:101C4000EFF03FAC2311A40003C50400831544004A
:101C50007D89EFF0DFA82312A40003C504008315DB
:101C600064007D89EFF0FFA92313A4000945EFF07C
:101C7000DFAB0D47A38AE18E6FE0CFD1EFE2CFCC8F
:101C80000347350037240020238A018EA38A018E62
:101C900019838946AE8413044467630DD70C8D46BF
:101CA0006308D70E4DE38547A38AF18E2312040003
:101CB0002310040003C5518F0D468145EFF0CFB7C7
:101CC000316BB72B0020938C418EA38AA18E014CDF
:101CD000A28A130B4B62938B0B3F9389418E83C770
:101CE000518F6349FC0A83C734000547238AE18E7C
:101CF000A38A018E99838946638CD7148D466388A5
:101D0000D716639E0710A38AE18E231204002310C6
:101D1000040003C5518F0D468145EFF0EFB1B16965
:101D2000372A0020138B418EA38AA18E814A938982
:101D30004962130A0A3F9384418E83C7518F63CC53
:101D4000FA126FE0EFC3034715008347250083466F
:101D500005002207BD8B558FC207D98F81E7EFF0B1
:101D60007F9E89BF8D8A81E6EFF0DFA4A1B7EFF0F7
:101D70009FAC89B783471500034705008D8BA207E9
:101D8000D98F81E7EFF0DFBD35B7EFF03FCA1DB760
:101D90006D330DB703974A0083C77B000A075A9734
:101DA0001843B387E702918323A2FC0083976A005C
:101DB0008A07DA97884319C9130600143306C50247
:101DC000814637952F50A545EF60C00D23A0A9008F
:101DD000CE850145092C03970A0083C79B000A079B
:101DE0005A971843B387E702918323A2F900839798
:101DF0002A008A07DA97884319C91306000A3306AE
:101E0000C502814637952F50A545EF60A00923A054
:101E1000A900CE850945C12A050CA10AC9B503C789
:101E2000140083C7240083C604002207BD8B558F8E
:101E3000C207D98F89E72685EFF0DF90D9BD8D8A5B
:101E4000268581E6EFF01F97E9B5EFF0DF9ED1B56B
:101E500083C7140003C7040026858D8BA207D98F82
:101E600081E7EFF0FFAF75B5EFF05FBC5DB526859C
:101E7000EFF0BFCC79BD0317440083478A000A07FF
:101E80004E971843B387E70291832322FB00831701
:101E900064008A07CE97884319C9130600143306D5
:101EA000C502814637952F50A545EF50B07F88C0B9
:101EB000A68505450D2A031704008347AA000A07D3
:101EC0004E971843B387E7029183DCC08317240041
:101ED0008A07CE97884319C91306000A3306C5023C
:101EE000814637952F50A545EF50D07B88C0A685F9
:101EF0000D45D528850A210489B5EFE26FA7B727DC
:101F0000002083C4173F370400201306001093F706
:101F100084008DC7B1659385454113050414C188BC
:101F2000EFE00FA891C813050414B16541469385ED
:101F300045510905EFE0CFA66FE0CFA5B1659385C8
:101F40004552E1BFEFE2CFA237260020B73500208F
:101F5000373500202147930600021306C668938593
:101F6000C5A0130585B4EF30401F37260020B735D4
:101F70000020373500202147930600021306C66A69
:101F80009385C590130545B3EF30201D37260020FB
:101F9000B73500203735002021479306000213068D
:101FA000C66C9385C580130505B2EF30001B37263C
:101FB0000020B72500203735002021479306000276
:101FC0001306C66E9385C5701305C5B0EF30E018D3
:101FD00085472388F192A388F1922389F192A389FE
:101FE000F1926FE02F9BB9CDEFE28F98894763099B
:101FF000F50263E2A7021DE93735002021461305EB
:1020000085B4EF30601919C905470545238AE19069
:10201000EF30406021A08D476300F5026FE08F979D
:10202000373500202146130545B3E1BF3735002081
:102030002146130505B2F1B73735002021461305B7
:10204000C5B0C1B78280EFE2AF9283C7319395CF1D
:1020500037350020930785B4D44785CA83C78700E6
:10206000B73600209386C6A08E07B6979443DC430C
:10207000A389019213870195130585B45CC314C32A
:10208000EF3020250547A38BE19283C7219395CF9D
:1020900037350020930745B3D44785CA83C78700E7
:1020A000B73600209386C6908E07B6979443DC43DC
:1020B0002389019213878194130545B35CC314C32C
:1020C000EF3020210547238BE19283C7119395CFF1
:1020D00037350020930705B2D44785CA83C78700E8
:1020E000B73600209386C6808E07B6979443DC43AC
:1020F000A388019213870194130505B25CC314C32E
:10210000EF30201D0547A38AE19283C7019395CF45
:10211000373500209307C5B0D44785CA83C78700E9
:10212000B72600209386C6708E07B6979443DC438B
:1021300023880192138781931305C5B05CC314C330
:10214000EF3020190547238AE1926FE0AF8421C266
:102150009841E1679387076A3E9798C16374C70007
:1021600001458280B356C702835705003377C70203
:10217000B697C207C1832310F50098C105671307FE
:102180000780E37FF7FC93F7F77F2310F500054501
:102190008280EFD2FFFDB727002083C7073F2A8741
:1021A000368493F707042E855443B28595C385473B
:1021B00081CE1043693F814701C983A7818F818FF9
:1021C00093B7A70F93C7170013F5F70F6FD09FFCB6
:1021D00099EA03A5818F018D1335A50F13451500CD
:1021E0001375F50FE5B710439D3765F5D5BF370576
:1021F0000040397185451305054022DE26DC4ADAA8
:102200004ED852D656D45AD25ED062CE66CC6ACA66
:102210006EC8EF50F01E8547631DF52483A7818F9C
:10222000138D170023ACA18F372700200347173FDA
:10223000938401963704002013770702138C0197CB
:102240009389819613898195130404246302072CD2
:1022500083A68190138641929385E192138501971D
:1022600036C6053F01CD83C5719303C6618FB24663
:102270006380052213661600238BC18E83A64190CE
:10228000138601929385C1921385819636C61137C4
:1022900001CD83C5619303C6618FB246638A052071
:1022A00013662600238BC18E83A601901386C191ED
:1022B0009385A1921385019636C6E13D01CD83C574
:1022C000519303C6618FB2466384052013664600AE
:1022D000238BC18E83A6C18F1386819193858192B2
:1022E0001385819536C6EFF0DFEA01CD83C54193B2
:1022F00003C6618FB246638D051E13668600238B6D
:10230000C18E83C6618F13F6160005C6A38B01929A
:10231000138601950C4250422320BC002322CC009E
:1023200085452397019223A20192A389B19223A408
:10233000A19113F6260005C6238B01921386819482
:102340000C42504223A0B90023A2C90023A001924D
:102350008545239601922389B19223A2A19113F678
:10236000460015C2A38A0192138601940C42504282
:102370008CC0D0C023AE0190854523950192A388DF
:10238000B19223A0A191A18A85C6238A0192938646
:1023900081939042D4422320C9002322D9000546CC
:1023A0002394019223AC01902388C19223AEA18F84
:1023B00083A6018183D7E19203274C0003A649003D
:1023C0008607A29783970700238B018EB387E702C6
:1023D00003D7C19206072297031707003307C702E6
:1023E000BA97A987B387D702C5879387072D23A8F4
:1023F000F19083D7A192D8408607A29783970700D0
:10240000B387E70203D781920607229703170700D5
:1024100003264900B71900203307C70237190020E7
:1024200003A609338325C93237040040130404404E
:10243000BA97A987B387D702C5879387072D23A6A5
:10244000F19003A50191EFE03FBF42054181231EBA
:10245000A4028325C93203A6093303A5C190EFE086
:10246000BFBD420541812310A40485452285EF505C
:10247000E07A7254E2545259C259325AA25A125B4B
:10248000825B724CE24C524DC24D21617300203090
:102490003166B306DD401306F634E371D6DE83C63B
:1024A000418123220C0093E61600238AD180F9B3E0
:1024B0003166B306DD401306F634E377D6DE83C615
:1024C000418123A2090093E62600238AD180E9BB3B
:1024D0003166B306DD401306F634E37DD6DE83C6EF
:1024E000418123A2040093E64600238AD180DDB314
:1024F0003166B306DD401306F634E374D6E083C6D6
:1025000041812322090093E68600238AD180D5BB2E
:1025100003C771930DCBA38B0192938601959842CB
:10252000D4422320EC002322DC00A389A1929387CC
:10253000019591C209EB23A20192239701922320D6
:102540000C0023A2070003C7619315C7238B0192D8
:10255000938781949843DC43054623A0E90023A296
:10256000F9002389C19291C319E723A00192239610
:10257000019223A0090003C7519315C7A38A0192B2
:10258000938701949843DC43054698C0DCC0A38838
:10259000C19291C309EB23AE01902395019223A030
:1025A000040023A2040003C7419315C7238A0192A4
:1025B000938781939843DC4305462320E900232237
:1025C000F9002388C19291C319E723AC01902394A9
:1025D00001922320090003260C0093854192138564
:1025E000E192EFF0DFB603A609009385019213850F
:1025F000C192EFF0DFB590409385C1911385A19210
:10260000EFF0FFB403260900938581911385819231
:10261000EFF0FFB383A6018183D7E19203274C003B
:1026200003A649008607A29783970700B387E702AE
:1026300003D7C19206072297031707003307C70283
:10264000BA97A987B387D702C5879387072D23A891
:10265000F19083D7A192D8408607A297839707006D
:10266000B387E70203D7819206073A940317040061
:1026700045B3EFD2FFAFAA8537650040130505804B
:10268000EF40B07A133515006FD0DFB0EFD25FAEF8
:10269000AA853765004013050580EF4070771375F4
:1026A000F50F6FD03FAF376700408357478113075F
:1026B0000780A183A38CF19683574701C207C1838A
:1026C00093F707F0C207C183231AF7007300203085
:1026D000EFD27FA837650040411181451305058081
:1026E000EF40F06537140140930700400D49D14990
:1026F0004C00130504C03EC24AC44EC68564EF4078
:10270000503F938404804C00130504C04EC64AC455
:1027100023129100EF40F03D93050040130504C0E3
:10272000EF40104AA685130504C0EF403049054527
:10273000EF30A03E93050040130504C0EF40104861
:102740000545EF30803DA685130504C0EF40504796
:102750000545EF30803CA949130A04C0056993057B
:1027600000405285EF40D045A6855285EF40104588
:102770000545EF30803A930500405285EF40104404
:102780000545FD19EF306039E39B09FC130504C0D2
:1027900093050040EF40D04293050980130504C023
:1027A000EF4010420545EF304037930500401305D8
:1027B00004C0EF40B0400545EF3020369305098056
:1027C000130504C0EF40903F0545EF3000359147B9
:1027D0004C00130504C03EC6EF40B031930509809C
:1027E000130504C0EF40D03C41016FD01F9AEFD2D7
:1027F0003F9837640040814513050480A38D0196FE
:10280000EF40F05313050480EF40303FEFF05FECF2
:1028100083C791975D8D1375F50F01C937350C008E
:1028200001468145130505502920EF3000286FD05F
:102830007F96EFD25F920111AE842A8985452545A6
:10284000328402C202C402C602C802CA02CC02CE4C
:10285000EF50A002854537054000EF50E003371ADE
:10286000014093090040714B8D4A4C0013050AC08A
:10287000231231015AC656C4EF40B02785679387AB
:1028800007804C0013050AC02312F1005AC656C433
:10289000EF403026B7070040231C9100B76400408A
:1028A0003ECA0C08916713850480231EF1004AC8B4
:1028B000231D3101EF409037854513850480EF409B
:1028C000104809651306800CB7050200130525673B
:1028D000EF30E02009C909C8854513850480EF4021
:1028E000704FEFF0DFF00544A38D819605616FD046
:1028F000DF8983C7B197638C0712EFD2DF85376416
:102900000040AA8A2E8A130504808545EF40B0480E
:1029100009651306800CB705020013052567EF3023
:10292000001C83C791971375F50FC98F91C7054791
:10293000238DE1966FD07F85854513050480EF4098
:10294000D041B709030009691306800C938519006B
:102950001305C968EF30A01883C791971375F50F59
:10296000C98F99C30947E9B701469305400D13057F
:102970000480EF403045370B07001306800C9305A9
:102980002B081305C968EF30801583C7919713751D
:10299000F50FC98F99C30D4761BFD6851305048014
:1029A000EF4050411306800C93054B081305C9688E
:1029B000EF30E01283C791971375F50FC98F99C354
:1029C0001147BDB7D28513050480EF40D03C854543
:1029D00013050480EF4070381306800C93851900AE
:1029E0001305C968EF30A00F83C791971375F50FD2
:1029F000C98F99C315472DBF05469305400D130593
:102A00000480EF40303C1306800C938529001305A9
:102A1000C968EF30C00C9377F50F03C591975D8DB2
:102A2000E30A05F09946238DD1963E8521B70545E9
:102A30008280EFD24FF22E891375F50F8145EFF0AA
:102A40005FEB83C79197238CA1965D8D1DE5B7053C
:102A5000030009651306800C938505041305C568FA
:102A6000EF30E00783C791971375F50F238CA1967C
:102A70005D8D19C52547238DE196EFF05FD725A021
:102A8000B769004013850980EF4030332300A90067
:102A9000854513850980EF40302E83C7819703C792
:102AA0009197D98FF9FB03C58197B7270020238120
:102AB000A7426FD08FEDEFD22FE985476316F6005E
:102AC000EFF03FF76FD0CFEB2E8985453284EFF0E2
:102AD0005FE2AA8435E17D14370A0300856AB7698D
:102AE00000401374F40F130A0A04896B938A0A8056
:102AF000938909809307F00F6303F4021306800C97
:102B0000D2851385CB68EF20907D83C7919713758D
:102B1000F50FC98F95C71D47238DE196AA843765A8
:102B20000040130505808545EF40102583C7919728
:102B3000C58F13F5F70F59D5EFF07FCB268559B721
:102B400085476316F400D6854E85EF40102A4E85E2
:102B5000EF40B0267D142300A9001374F40F05097B
:102B600051BF83C7B19791E38280EFD2CFDEAA8AAB
:102B700009654111AE891306800CB70502001305E3
:102B80002567EF20D07583C791971375F50FC98F0F
:102B90008DC32947238DE19683C79197C98F93F7FA
:102BA000F70F89C72AC6EFF09FC4324541016FD0A5
:102BB000CFDD37690040854513050980EF40F019E6
:102BC000B7050300096A1306800C85051305CA685A
:102BD000EF20F07083C791971375F50FC98F99C3D4
:102BE0002D474DBF01469305400D13050980EF4069
:102BF000701D370B07001306800C93052B08130577
:102C0000CA68EF20D06D83C791971375F50FC98FF0
:102C100099C3314741B7D68513050980EF40901914
:102C20001306800C93054B081305CA68EF20306B20
:102C300083C791971375F50FC98F99C3354799BF0E
:102C4000CE8513050980EF40F0161306800C93051E
:102C50004B081305CA68EF20906883C791971375D6
:102C6000F50FC98F99C3394735B7130509808545D5
:102C7000EF40901001450DB737350C0005468145F2
:102C8000130505506FF0FFBAEFD28FCE41112E849D
:102C90009305F1002A89B284EFF0BFD909ED83478B
:102CA000F10093C4F4FF4A85E58FB365F400A307F0
:102CB000B100EFF01FEB41016FD0CFCDEFD24FCB82
:102CC00041119305F1003D45A3070100EFF07FD6C8
:102CD00011E98347F1008546938777F993F7F70F5A
:102CE00063FBF60483A70199850723A8F19803C71E
:102CF000C19809C70D4541016FD0CFC92547637BF6
:102D0000F700854705452386F198EF20B01083C76B
:102D1000C198EDF39305F1007945EFF09FD11DC502
:102D200083A78199850723ACF19883A741998507EB
:102D300023AAF198C9B783C7C19823A8019881C76E
:102D40000545EF20300D23860198E9B78347F10050
:102D50000D4709458D8BE390E7FA83A78199B73535
:102D6000002031468507938505BB1305200223AC5F
:102D7000F198EFF05FD441D183A7419905458507CC
:102D800023AAF1988DBFEFD2AFBE19441306F00FFE
:102D900085454945EFF05FEF09C57D141374F40FC5
:102DA00075F42945EF20705919441306F00F930567
:102DB00000084D45EFF05FED09C57D141374F40F65
:102DC0006DF419441306F00F9305E0084145EFF048
:102DD000BFEB09C57D141374F40F6DF41944130689
:102DE000F00F9305C0054545EFF01FEA09C57D14B6
:102DF0001374F40F6DF419441306F00F9305400497
:102E00004945EFF07FE809C57D141374F40F6DF4A4
:102E100013351500A384A19A6FD0CFB7EFD24FB569
:102E20001306000F81454145A384019AEFF0DFE5C9
:102E30001306000F81454545EFF01FE56FD08FB5B4
:102E40008280EFD2EFAF83C7419813074002373A31
:102E50000020B387E702372400201307CAB54111C9
:102E60009306CAB536C6BA970307043F23A0F19864
:102E7000635D07001306400281453E85EFD0AFB386
:102E8000EF30702F41016FD06FAF83C7B197FDDB7B
:102E900083C7819AE5DB83C7A19A1304043F81E7C6
:102EA0008D472385F19AEF2050408347040103A703
:102EB00081988346F400A2073307E540D58F2A8C1A
:102EC000E362F7FCEFF09FDF55FDB73C0020138D68
:102ED000CCBB37370020130707BB13068D01938740
:102EE000CCBB1384CCBB9443831507000907AE9673
:102EF00094C39107E399C7FE03C9519803A7C197EB
:102F000005091379F90F8567A382219923A4819973
:102F10003307EC4093877738E3F6E7F60840373A13
:102F2000002093044ABAEF70903A83A5419AEF705B
:102F3000C049EF70D03308C04840EF70503983A5C6
:102F4000019AEF708048EF70903248C00844EF70EB
:102F5000103883A5C199EF704047EF705031584445
:102F600093070006130640063387E70208C4334779
:102F7000C70258C418483387E7023347C70218C846
:102F80005848B387E70213074ABAB3C7C702138684
:102F9000C4005CC881476308090083270D00B3C7DC
:102FA0002703C207C1872310F7000907110DE31398
:102FB000C7FE614681451385CCBBA3820198EFD043
:102FC0008F9F03A40198194623AE81971309C4006B
:102FD000CA852285EFD0CF9C130C84011946E28567
:102FE0004A85EFD0EF9B3739002019469305A9BADF
:102FF0006285EFD0EF9A83C7819A0547639EE70801
:10300000996769771309A9BA9387871A130787E520
:103010008396040063DDD7062390F4008904E399C6
:1030200024FF930424011946A68513056400EFD0FC
:103030002F9779041946A2852685EFD06F961946F9
:1030400093054ABA2285EFD0AF9583C7A19AFD17A1
:1030500093F7F70F2385F19AE39607E203A501980A
:10306000EF30701103C541989307400213064002E8
:10307000133515002382A1983305F502B247814527
:103080003E95EFD04F938D472385F19AE5BBE3D76B
:10309000E6F82390E40059B70947E398E7FA228558
:1030A000EF00206E5DB7EFD20F8B832A0500032A55
:1030B00045002A84832985000329C500D6855685C5
:1030C000EF70A030AA84D2855285EF700030AA85B7
:1030D0002685EF609037AA84CE854E85EF70E02E6E
:1030E000AA852685EF607036AA84CA854A85EF7066
:1030F000C02DAA852685EF605035EF40F044AA85A3
:1031000003A5C187EF60F06AAA84AA855685EF708F
:10311000C02B08C0A6855285EF70202B48C0A6851D
:103120004E85EF70802A08C4A6854A85EF70E02995
:1031300048C46FD08F85EFD22F81832BC500C44543
:10314000832A050083A90500032A450003AB450037
:103150000329850003AC85002A84A6855E85EF706F
:10316000C026AA8CCE855685EF702026AA85668556
:10317000EF706053AA8CDA855285EF700025AA851E
:103180006685EF704052AA8CE2854A85EF70E02395
:10319000AA856685EF70205148C4CE855E85EF70A4
:1031A000C022AA8CD6852685EF702022AA85668546
:1031B000EF60B029AA8CE2855285EF700021AA85C4
:1031C0006685EF609028AA8CCA855A85EF70E01F4B
:1031D000AA856685EF70204D08C0DA855E85EF70A0
:1031E000C01EAA8CE2855685EF70201EAA856685D2
:1031F000EF70604BAA8CD2852685EF70001DAA85E2
:103200006685EF609024AA8CCA854E85EF70E01B1E
:10321000AA856685EF60702348C0E2855E85EF7001
:10322000C01AAA8BDA855685EF70201AAA855E85AA
:10323000EF60B021AA8AD2854E85EF700019AA8569
:103240005685EF704046AA89CA852685EF70E0173B
:10325000AA854E85EF60701F08C46FC07FF2EFC271
:103260003FEE2A8403A5019B7971AE843305A64005
:10327000328AEF609016AA8903C5140083C7040040
:103280002E8922055D8D4205418523A8419BEF6073
:10329000D00D4E86CA86EF50504503A6018483A602
:1032A0004184EF5090442A8D03C5340083C7240025
:1032B000AE8C22055D8D42054185EF60100B4E8678
:1032C000CA86EF50904203A6018483A64184EF5042
:1032D000D0412A8C03C5540083C74400AE8B22051D
:1032E0005D8D42054185EF6050084E86CA86EF50DD
:1032F000D03F03A6018483A64184EF50103F2A8A61
:10330000AE896A86E6866A85E685EF50103E2A8990
:10331000AE846286DE866285DE85EF50103D2A86A9
:10332000AE864A85A685EF40F0722A89AE84528621
:10333000CE865285CE85EF50503B2A86AE864A8592
:10334000A685EF4030712A86AE862A89AE84EF507A
:10335000D03903A6818483A6C184AE8D2AC6EF50DE
:10336000E05D03A6018583A641852A8BAE8A4A8546
:10337000A685EF50A05C2A86AE865A85D685EF607A
:10338000600B03A6818583A6C185EF40B06C2A8BB4
:10339000AE8A2A86AE866A85E685EF501035EF70D4
:1033A000901D5A86D6862ACADE856285EF50F03394
:1033B000EF70701C5A86D6862ACCCE855285EF5087
:1033C000D032EF70501BB24703A6018683A6418618
:1033D0002ACEEE853E85EF50605603A6818683A6F1
:1033E000C1862A8AAE894A85A685EF5010302A8682
:1033F000AE865285CE85EF60E00303A6018783A6E3
:103400004187B7140020EF40F064EF70D0164C08ED
:103410002AD013850424EFF01FD213850424EFF083
:103420009FC8834714000347040093840424A20721
:10343000D98F2398F4008347340003472400A20760
:10344000D98F2399F4008347540003474400A2070F
:10345000D98F239AF40045616FC05FD2EFC2DFCEEF
:1034600083C76500373900204111F19B93E727009E
:103470002383F50003C7A19A8D47AA842E841309DC
:1034800049BD6312F702EF20C06323A6A19A23204F
:1034900009002322090023240900232609002318F8
:1034A0000900A385019A03C5B19A99471946130AE1
:1034B00015003305F502137AFA0FA385419BB7393E
:1034C0000020938549BA4A95EFC09FCD8D47631B75
:1034D000FA2683476400370B0080854ACD9B23037F
:1034E000F4007D1B914B034A640093972A00A69732
:1034F00088439377CA00A6978C4333756501B3F56B
:103500006501EF60B059635BA00093F73A008A074A
:10351000137A3AFF336AFA0023034401850AE394DD
:103520007AFD034A640093050000135A2A00137AB7
:103530003A0093172A00A6978843EF60905F635F75
:10354000052203AB018883AB4188130C4100814AFB
:10355000050A8D4CB3075A018D8B8A07A6978843BD
:10356000DE85850AEF607066DA85EF601066EF70C1
:1035700000502320AC00110CE39E9AFD83471402F7
:1035800003476400A30A040093F707F8A300F402BA
:1035900092473D8B230B0400A58793F6F700920614
:1035A000558F2303E40013D74700A303E40013D788
:1035B000C7002304E4002247D183858B25879376B7
:1035C000F7078606D58FA304F400935777002305E9
:1035D000F400B2473D831377F70393D697409A06DA
:1035E000558FAD87A305E400A30B0400A30F0400CF
:1035F0002300040213D787002309F400C183A30921
:10360000E4009D8B03A7C19A230AF40083471402A8
:10361000058B1E0793F7F707D98FA300F40283A742
:10362000C19A230F0400938949BA85832301F402C8
:1036300003A7C19A8347340225830D8BF19BD98F51
:10364000A301F402EF20E04783A7C19A1D8D8347B1
:1036500034020A058D8BC98FA301F4020397090078
:103660000318090083474401B306074113F6860F88
:103670009D8BD18FA182230AF400A30AD400039664
:1036800029008318290083467401B30716418D87EA
:10369000230BF400A183819AFD8BD58FA30BF4003B
:1036A000839649000315490083457401B387A640FA
:1036B00013D337401603FD89B3E56500A30BB400AF
:1036C00003136900998793D58700230FF400B3078C
:1036D00007019A977558B3C7070313F735009A97F0
:1036E000A58713F3F7030A0333676700A30FE4000A
:1036F000034704029983858B799BD98F2300F402B9
:1037000003178900B3071601BA97B3C70703BA971F
:1037100003470402A5878607058BD98F2300F4028F
:103720000317A900B387A600BA97B3C70703BA97D0
:1037300003471402A58793F7F707137707F8D98F84
:10374000A300F40283C704012300F40083C714011B
:10375000A300F40083C724012301F40083D72401CC
:10376000A183A301F40083C744012302F40083C7AB
:103770005401A302F40041016FC09FA003ABC187B5
:10378000D9B3EFC2FF9E2A84EF2020322A86B735B4
:10379000002037350020938545BA1305A5BAEFF010
:1037A0001FAC37150020A28513050524EFF01FCBB1
:1037B0006FC05F9EEFC2DF9BEFD07FCC83C7019EBF
:1037C00091C3014523A0A18E6FC0DF9CEFC25F9A19
:1037D0002A84EFF03FFEB727002083C7073F918B75
:1037E000A5C703A7018EB7070F00F98FB1CFB707A1
:1037F0000800F98FD1EFB717800093870780B705CE
:10380000040023AEF19CF98D89C59387877023AEA0
:10381000F19CB7070200F98F81CB83A7C19DB785C3
:103820008FFFAE9723AEF19CC167F98F81CB83A741
:10383000C19DB7857000AE9723AEF19CB707F1FF2D
:10384000FD177D8F23A0E18E83C7018E2300F40036
:1038500083C7118EA300F40083C7218E2301F400D7
:1038600083A7C19DA301F40013D78700C183A302DE
:10387000F40083A7819D2302E4002303F40013D7FF
:103880008700C183A303E4002304F4006FC09F906A
:10389000B70780009387870F9DB719C16FF01FF39B
:1038A0008280EFC27F8A372400209307043F03C73A
:1038B00017008946328A19831304043F93171600B0
:1038C0006305D71C8D46630BD71E85466318D70248
:1038D0009356F54133C7A600158FB306F40003C60F
:1038E0002602635DC70013D6F54183C6360233470F
:1038F000B600118F6354D70081450145A297838993
:10390000B7000389C70083476401B389A90203474D
:103910005401A207D98F3309B90293D959401359D9
:103920005940BDCFB307290313172A002386019CF2
:10393000B3843903BE949387818CBA979C4363E523
:10394000F40085472386F19CEF20201611E1054500
:10395000E147B307FA0237370020930687BF930584
:1039600087BFBE969C4289CF3307F54083476401E9
:1039700003465401A207D18F6369F71823A00600FC
:1039800083C7C19C91CFE147B307FA023387F500A3
:1039900004CBFD84232237012324270144CB08C311
:1039A000856793840780FD1723A0F19C23AEF19ACD
:1039B0008347140023A4019C23A2019C918BA69908
:1039C0002699D5C3A547B307FA0237260020130668
:1039D00006463E96834746040347360413F5F70030
:1039E0002205598D23A2A19C0347E6038346D603F3
:1039F0009375F700A205D58D23AEB19A93D64700F3
:103A00008347560411839207D58F23A4F19C8347E3
:103A1000F6039207D98F23A0F19CEFD0AFDF83A5E7
:103A2000019C23A2A19C23AEA19A03A5819CEFD067
:103A30006FDE03A6C19B83A5419C23A4A19C23A068
:103A4000A19C2696B385B4404E85EFD0EFDE03A649
:103A5000019C83A5819CAA8926964A85B385B4409A
:103A6000EFD08FDD2A8985641386F4FF81454E856A
:103A7000EFD08FDC2A841386F4FF81454A85EFD08E
:103A8000AFDB320522956FC0AFEF9356F54133C7D8
:103A9000A600158FB306F40083C626026353D70031
:103AA000014593D6F54133C7B600158FB306F40030
:103AB00083C63602E354D7E4814589B53307F40061
:103AC0001356F54103472702B346A600918E63CCF7
:103AD000E602FD566343A00085463307D7023A95B8
:103AE0003307F40013D6F54103473702B346B60057
:103AF000918EE3C3E6FCFD566343B0008546330771
:103B0000D702BA95E5BB0145E1BFD8429C46338751
:103B1000E902B307F9023E97E35407E6904AD44A14
:103B200093D7F441B307F602B386960233089602A0
:103B3000B69733369602B2970D46B307F602B30630
:103B40000603333606038D82B2971396D701D18EC2
:103B50003306E7028D873317E702E363F7E26394E6
:103B6000E700E36FD6E02386019C0149814909BD46
:103B7000EFC20FE09387418D03D7470003D50700BD
:103B800083D52700B734002083D76700372400206F
:103B900013048441938484C298C403474400DCC462
:103BA000834734002207834614005D8F8347240037
:103BB00088C0CCC0A207D58F998D01461D8DEFF02E
:103BC0005FCE0347840023AEA19C83477400220785
:103BD000834654005D8F83476400CC448844A20729
:103BE000D58F0546998D1D8DEFF0BFCB23ACA19CE1
:103BF0006FC04FDAEFC22FD683C7019EA38D019A03
:103C0000238D019A6389071C0D45EFD09F9683C7CA
:103C1000019E6382071C2145EFD0BF95630D051AF5
:103C200083C7919B8DC7372700201307073F834722
:103C3000070093C6070893F6060893F7F707D58F92
:103C40002300F7008547A38DF19A238DF19A8147D0
:103C5000A38CF19A83C7019E638107182545EFD095
:103C60005F91630C051683C7819B9DCBB72700200E
:103C70009387073F03C507001347F5FF1377070234
:103C80001375F5FD598D2380A70015811345150087
:103C90000589EFD09FA08547A38DF19A238DF19AD6
:103CA0008147238CF19A83C7019E638A07123545A9
:103CB000EFD03F8C6305051283C7719B9DC33727E7
:103CC00000201307073F8347070093C6F7FF898A41
:103CD000F59BD58F2300F7008547A38DF19A238D9F
:103CE000F19A8147A38BF19A83C7019E638B070EDC
:103CF0002945EFD01F886306050E83C7619B85CFDA
:103D000037350020835785BE797713070708F98F69
:103D100093E707602314F5BE83C7119F130785BE81
:103D2000130585BE93B71700A301F700EF20C0313C
:103D30008547238DF19A8147238BF19A83C7019E92
:103D4000DDC32D45EFD0FF8259CD83C7519BA1C361
:103D5000B72500209387053F1385A7FF9385053F6F
:103D60009306F00F03C7C70113061700238EC70081
:103D70006315D700FD17E397A7FE373500201946D6
:103D8000DD051305E511EFC0AFC1EFC03FCF81479F
:103D9000A38AF19A83C7019EA9CBB737002083C7B6
:103DA000D711A1E73145EFD0CFFC21C183C7419B9B
:103DB00081C70545EF20A047238A019A83C7A19BAD
:103DC00081C70545EF10100583C7B19B99C3EFC0AC
:103DD000FFCA6FC08FBB8547A5BD8547D9B585474D
:103DE00011B7854791BF854765B70145238A019A79
:103DF000EF20E043E1B7EFC2AFB73705020011058E
:103E0000EFD00FF015E983A7419D95C3EF10704BDC
:103E100083A7419D1D8D9307400663F8A7000547C2
:103E200005452380E19EEF10701D6FC0AFB6EF1007
:103E3000504923AAA19CD5BF83C7019EFDD7014548
:103E4000EF10D01B2380019E23AA019CF9BFEFC273
:103E50002FB283A7C19E850723A6F19E81E7054760
:103E600023ACE180EF10F04583A7019D6300F502CC
:103E7000EF10304583A7818183A6019D958FAA9776
:103E800023ACF180EF10F04323A8A19CEFF0BFF624
:103E9000EFE06F9BEFE0FFFAEFF0DFD5B7370020E0
:103EA00003C5D711EF10D016EF2050046FC08FAEAE
:103EB000EFC20FAC2A84AA8513050020EF30F01B57
:103EC000A2850545EF309019A2850545EF30D01C3D
:103ED000A2850945EF30501CA2850565EF30F01929
:103EE000A2851165EF307019B7040240A2851385D1
:103EF0004404EF30C008A28513858405EF30200804
:103F0000A28513858400EF308007A2853705004025
:103F1000EF30704437050040A28513050540EF30AF
:103F20009043B7440140A28513850480EF30505A76
:103F300022869305000413850480EF30F05A6FC089
:103F40006FA5EFC2EFA2371702401C43B706080067
:103F50000111D58F1CC30545EF30100471651305A1
:103F60000520EF30705B3735002013065002814585
:103F700013058511EFC02FA43565130545B2EF7009
:103F8000001285457145EF30500F8545130500201F
:103F9000EF30B00E85450545EF30500C85450545A1
:103FA000EF30900F85450945EF30100F85450565C9
:103FB000EF30B00C85451165EF30300CEF10D0308C
:103FC000EF10902D2945EF105037EF20C06EEFC055
:103FD000FFB66800EF30807DEFD04FBEEF10704726
:103FE000EF10503CEFD0EF96EF208030EF10800ABA
:103FF000EF108063EFE05FC8EFE09FE4EFE0BFD831
:10400000EFC01FABEFC0EF9EEF304070AA850545B3
:10401000EFC0BF8D05616FC0EF97EFC2CF9305452D
:10402000EF30C063EF10B016EFF0BFF183A541820F
:104030003565130585B3EF6010723145EFD04FCC75
:104040002388A19EEF00B07411651305A589EF20A8
:104050007005EF20D012014537340020EFD08FD209
:10406000B7440020130484118549EF10306AEFF043
:104070003FB013850421EFF06FF583C7218B91CFFB
:1040800023023401EF20501FEF205010EF20807BDF
:10409000EF10904EEFF0BFDBC9BFA3020400230274
:1040A0000400EDB782808345D5000345B5001306B3
:1040B000F00F6FE07FBD828082808280B737002062
:1040C000938787C323A607022394070223A207022C
:1040D0008280EFC2EF8937340020AA84EFF01FFE00
:1040E000130984C389679387071A130620029385EF
:1040F000B40013052900231CF4C2EFC06F8A930794
:104100004002130584C32314F902EF00F06C6FC062
:104110006F88EFC2EF852A84EFF05FFA0347A400AF
:1041200037350020930785C3930600F8A380E70086
:10413000130585C30D472380D7002381E70023940F
:10414000E702EF0070696FC0EF84EFC2CF80AA84EE
:10415000EFF0DFF603C7A40083C9B400373A0020AC
:1041600093078AC3930610F82380D700A380E70043
:1041700023813701854713098AC3638EF900894774
:10418000638AF9048D4713058AC32314F902EF00EB
:10419000B0646FB09FFF37340020130484111946B8
:1041A0009385C4001305C400EFB09FFF1946930523
:1041B000640013053900A3093401EFB07FFEB16537
:1041C00061469385052A13059900EFB07FFD93079B
:1041D000100255BFB735002041469385C51213051F
:1041E0003900EFB0FFFBCD4779BFEFB27FF82A84EB
:1041F000EFF0DFECB727002083C70741ADCF0547BD
:10420000638FE7060D4793079004B7150020938648
:10421000C5262380E6000347A40037340020A3808E
:10422000F600930784C3930620F82380D700A38069
:10423000E700B7370020938787111387C526938639
:10424000A7FF930484C303C6B700FD170507A301A6
:10425000C700E39AD7FE31469385C526138524000F
:10426000EFB01FF4B947130584C32394F402EF00A1
:10427000B0566FB03FF20D479307800479B71147EE
:104280009307300359B7EFB2BFEE2A84EFF01FE374
:104290000347B4008D46930707FD93F7F70F63E4D8
:1042A000F600A38AE1800347A40037350020930776
:1042B00085C3930600F8A380E700130585C309476B
:1042C0002380D7002394E702EF0010516FB09FECDA
:1042D000EFB21FEA2A84EFF07FDE8347A400B734F1
:1042E0000020138484C3B7150020130730F8394623
:1042F0009385C525130524002300E400A300F400E2
:10430000EFB01FEAC147138584C32314F402EF0002
:10431000B04C6FB03FE8EFB2BFE52A84EFF01FDA90
:104320000347A40037350020930785C3A380E70027
:104330000547930600F82381E700130585C30D4761
:104340002380D7002394E702EF0010496FB09FE469
:10435000EFB21FE22A84EFF07FD60347A40037357F
:104360000020930785C3930600F8A380E700130598
:1043700085C30D472380D700238107002394E702DC
:10438000EF0090456FB01FE16FF09FFC6FF05FFC96
:104390006FF01FFCEFB23FDC4111AA84EFF01FD297
:1043A0009385B4002E852EC6EFC09FC783C7F40047
:1043B0007547B2452A8975446364F70013F4F70F13
:1043C00083C7A400B739002037350020130700F950
:1043D000938489C315461305A5C32380E400A380F5
:1043E000F400EFB0FFDBB735002022869385F5C3DC
:1043F0004A85EFC0EFDF1D041374F40F138589C3E2
:1044000023948402EF00503D41016FB01FD8EFB2FA
:104410003FD641112A84EFF07FCA1305B400EFC0E4
:104420003FC00346F400930504018546AA8432C6C2
:104430002EC4EFC09FA33246A2452685EF10D0516F
:104440000347A40037350020930785C3930600F87F
:10445000A380E700130585C30D472380D700238180
:1044600007002394E702EF00303741016FB09FD27D
:10447000EFB21FD02A84EFF07FC40347A400373582
:104480000020930785C3930600F8A380E700130577
:1044900085C309472380D7002394E702EF00D03378
:1044A0006FB05FCF6FF0DFFC6FF09FFCEFB25FCCBF
:1044B0002A84EFF0BFC00347A400373500209307DC
:1044C00085C3930600F8A380E700130585C313078F
:1044D00040022380D7002394E702EF00F02F6FB053
:1044E0007FCBEFB2FFC82A84EFF05FBD0347A40083
:1044F00037350020930785C3A380E700130585C3E4
:104500000947238007002394E702EF00F02C6FB0E7
:104510007FC8EFB2FFC52A84EFF05FBA0347A4005B
:1045200037350020930785C3930600F8A380E70082
:10453000130585C359472380D7002394E702EF0072
:10454000B0296FB03FC5EFB2BFC22A84EFF01FB7EA
:104550000345B400A384A19EEF1080290347A40063
:1045600037350020930785C3930600F8A380E70042
:10457000130585C309472380D7002394E702EF0082
:10458000B025B73700200547A38EE7106FB09FC056
:10459000EFB21FBE2A84EFF07FB20347A400373585
:1045A0000020930785C3A380E70003C7919E93066D
:1045B00000FB130585C32381E7000D472380D70047
:1045C0002394E702EF0050216FB0DFBCEFB25FBA77
:1045D0002A84EFF0BFAE8347B40037350020238232
:1045E000F19E2384F19A0347A400930785C39306A1
:1045F00000F8A380E700130585C309472380D7008F
:104600002394E702EF00501D6FB0DFB8EFB25FB642
:10461000B73400202A84EFF07FAA938784C313075E
:1046200000142391E70003C7419E138984C3938735
:10463000419E01E705472380E70011469305B4003A
:1046400013851700EFB0DFB58347A400130700F808
:10465000138584C3A300F90089472300E9002314CC
:10466000F902EF0070176FB0FFB2EFB27FB0AA840B
:10467000EFF0DFA403C7C4009306000203C5B40033
:104680009307000263E3E600BA8703C7A40013F4AC
:10469000F70F37390020B7350020930489C39306FC
:1046A00000FC22869385C5C32380D400A380E40048
:1046B000A381F4002381A4001104EFE0CFBF1374A1
:1046C000F40F130589C323948402EF00F0106FB038
:1046D0007FACEFB2FFA92A84EFF05F9E0347B400DE
:1046E000B7170020373500202384E7320347A400A2
:1046F000930785C3930600F8A380E700130585C3DD
:1047000009472380D7002394E702EF00F00C6FB035
:104710007FA8EFB2FFA52A84EFF05F9A0347A400B9
:1047200037350020930785C3A380E7001307806116
:10473000930600FD2391E700130585C311472380ED
:10474000D7002394E702EF0030096FB0BFA4EFB2A7
:104750003FA22A84EFF09F960347A400373500203C
:10476000930785C3A380E7005147930610FD23817B
:10477000E700130585C30D472380D7002394E70284
:10478000EF0090056FB01FA1B73700201167938726
:1047900087C61307271198C311671307A714D8C337
:1047A00011671307A71E98C7116713076728D8C793
:1047B00011671307072D98CB116713076731D8CB03
:1047C00011671307470A98CF11671307A70BD8CFB4
:1047D00011671307073598D3116713074739B8C313
:1047E00011671307E740F8C311671307873891660D
:1047F000B8C79386660B1387070814C39166938620
:10480000260D54C391669386064714C79166938616
:10481000C63814CB91669386063954CB916693863D
:10482000464A14D391669386C64A54D391669386BA
:10483000264E14D791669386265154D79166938657
:10484000665434C391669386065974C39166938601
:10485000860B34D31167938707101307C75C98C37F
:1048600011671307C760D8C311671307670A98C792
:1048700011671307A766D8C711671307276D98D369
:10488000116713072771B8C311671307874AF8C365
:1048900011671307E774B8C7828083C7019F99C760
:1048A00008419305650009056FD04FBD8280EFB2C6
:1048B0003F8C2A8483454400084137370020D115B6
:1048C00093F5F50F2302B4008347A500130787C6AD
:1048D0008A07BA979C4399C3829719A01C43EDFF9E
:1048E0002285EFF09FFB6FB0FF8A034745008547A5
:1048F00063F3E7081C41C1C383C717001547FD17C1
:1049000093F7F70F6369F706EFB29F8635678A075B
:10491000130787B4BA979C43373400208287B707C0
:1049200000031305840D93871718B73500201CC1A9
:1049300019469385E5111105EFB09F8685462946F6
:104940009305840D1385816EEF00100E6FB09F8468
:1049500093071028231CF40C85460946D5B7930706
:104960001038CDBF93071048F5B793071058DDB73F
:1049700093071068C5B78280B7370020138787096F
:10498000A300A700F956138625002300D70013764D
:10499000F60F8546938587091385816E6F00D008D1
:1049A000EFB20FFD373500205D4681451305150C2C
:1049B000EFB07F803734002013048409B72500202E
:1049C000130660029385053F13053400230104009C
:1049D000EFB00FFD930570020545EFF0FFF9930767
:1049E000F01F894505452311F400EFF0FFF86FB083
:1049F0006FFAEFB24FF62A8408414111B734002014
:104A00000505EFC0EFE11C40B73900202AC603C4FA
:104A10005700130A9003B73A00209384A40993899E
:104A2000890963658A0421C03245B7350020938522
:104A3000F5092286EFB0DFFB0357C100B73700202E
:104A40009387A7092390E7000357E10093055400DB
:104A500093F5F50F2391E7000D45B7370020238F1D
:104A60008708EFF07FF141016FB02FF23249938553
:104A7000FA09130690034A85EFB09FF78357C100E8
:104A800013099903130474FC2390F4008357E10085
:104A90009305E0030D452391F4002383490113742A
:104AA000F40F4AC6EFF05FEDADBFEFB26FEC2A84B2
:104AB0000841B7340020938484090505EFC04FD620
:104AC0001C4083C767002381F4000C4083C6650047
:104AD00003C655009D05EFC04FB9A381A4008945C9
:104AE0001145EFF07FE96FB0EFEAEFB2CFE6373470
:104AF0000020AA8913060003814513058406EFB040
:104B00008FEB814A373A002063943A01814425A013
:104B10001305B004EF1060021949EFE02F9AAA8440
:104B200013052003EF1060016384040A7D191379D3
:104B3000F90FE31409FE130484064C400840EF60AB
:104B4000200F83A5419AEF505008EF60000508C080
:104B50004CC008444C44EF60A00D83A5019AEF506F
:104B6000D006EF60800308C44CC408484C48EF608E
:104B7000200C83A5C199EF505005EF60000208C8D2
:104B80004CC8084C4C4CEF60A00A83A58188EF50BC
:104B9000D003EF60800008CC4CCC08504C50EF6044
:104BA000200983A58188EF505002EF50107F4CD030
:104BB00008D008544C54EF60A00783A58188EF50BB
:104BC000D000EF50907D08D44CD426856FB0EFDB39
:104BD0009307840613060ABB1385070398438316BD
:104BE0000600CC43090613D8F641BA9633B7E6005F
:104BF000C2952E9794C3D8C3A107E311F5FE850A89
:104C000021B7EFB24FD5EFF05FEE2A8A631D05168C
:104C1000B734002093848406CC4C884CEF6040016C
:104C200083A5C1883724002013040446EF50603860
:104C300083A50189EF5060018347140803470408E6
:104C4000AA8AA207D98F3305F040EF505068AA8591
:104C50005685EF40907FEF509061CC50931705013F
:104C60002300A4028850C183A183A300F402EF5063
:104C7000307C83A5C188EF50C03383A50189EF4004
:104C8000D07C8347340803472408AA8AA207D98F17
:104C90003305F040EF50B063AA855685EF40F07AB7
:104CA000EF50F05CCC54931705012301A402885403
:104CB000C183A183A301F402EF50907783A5C1883B
:104CC000EF50202F83A50189EF4030780347440837
:104CD00083475408AA8AA207D98F3305F040EF50C2
:104CE000105FAA855685EF405076EF505058CC4063
:104CF000931705012302A4028840C183A183A30264
:104D0000F402EF50F07283A5C188EF50802A83A58A
:104D10000189EF409073EF509055CC4493170501F3
:104D20002306A4028844C183A183A306F402EF50A2
:104D3000307083A5C188EF50C02783A50189EF405B
:104D4000D070EF50D052CC48931705012307A4022E
:104D50008848C183A183A307F402EF50706D83A537
:104D6000C188EF50002583A50189EF40106EEF50F8
:104D7000105093170501C183A1832308A402A3083F
:104D8000F402EFB0DFD152856FB02FC0EFB24FBE4B
:104D900013052003EFF0FFE603C7A197B737002004
:104DA000938787092381A70089451545A381E700DB
:104DB000EFF09FBC6FB00FBEEFB28FBB1387418D7A
:104DC00083560700B727002093878741A380D70029
:104DD000A1822381D7008356270001468145A38104
:104DE000D700A1822382D70083564700035767006C
:104DF0002165A382D700A1822383D700A383E70084
:104E0000854621832384E70023800700EFC0EF85D8
:104E1000B7370020238DA70885451D45EFF0DFB586
:104E20006FB04FB7EFB2CFB4B73500209385B50957
:104E30003D45EFD01FC0B7370020138787092301F6
:104E4000A70003A781819387870901E7054723AC62
:104E5000E18083A6818103A7C19E373500203357A7
:104E6000D7021146938581991305D5092382E7005E
:104E7000EFB00FB3373500201146938541991305E4
:104E8000150AEFB0EFB1AD451305D00FEFF0DFAE6F
:104E90006FB04FB0EFB2CFAD0145EF00A07729451D
:104EA000EF00B049B707EFBE37E700E09387070888
:104EB0003CC76FB02FAE83D6818913878189035792
:104EC0002700B73700209387A7092391E700239095
:104ED000D70083D641891387418903572700B73705
:104EE00000209387E709A1451305F00F2390D70011
:104EF0002391E7006FF05FA81441054693871600E1
:104F00001CC1834745006373F608EFB26FA6FD1717
:104F10002302F50083C716009D4663E0F60295CB99
:104F2000FD1793F7F70F994663E5F602B5668A0712
:104F3000938606B6B6979C4382871307E00F638E6D
:104F4000E7021307F00F6387E7021307D00F6389A7
:104F5000E7026FB02FA4EFF0BFA4E5BFEFB05FB5DD
:104F6000CDBFEFF01FA9F5B7EFF03FB4DDB7EFF01D
:104F7000FFE1C5B7EFF03FF4E9BFEFF0BFF1D1BFFC
:104F8000EFF05FEAF9B7EFF03FE3E1B782806FF04F
:104F9000AFFFEFB2EF9D1C411307000883C7070066
:104FA0006389E702636AF7000547638EE7004147BC
:104FB000638EE7006FB00F9E1307E00FE39CE7FEE0
:104FC000EFF09FF3C5BFEFF09F8EEDB7EFF0FF8CD2
:104FD000D5B7EFF09F91F9BF03468502AA858146B8
:104FE0001385816E91A4EFB2AF9841112A84854553
:104FF000054502C002C202C402C6EF201008854562
:105000002145EF20900785454145EF201007BD451C
:105010000545EF20C03B1149C14489470A853EC080
:105020004AC226C422C6EF10707BBD450945EF2059
:10503000003AA1670A853EC04AC226C422C6EF10C4
:10504000F07999450545EF208038930700040A85DB
:105050003EC04AC226C422C6EF1050789D45054581
:10506000EF20E036930700080A853EC04AC226C4F6
:1050700022C6EF10B076B9450545EF20403591675F
:105080000A853EC04AC226C422C6EF1030754101CF
:105090006FB04F90EFB2CF8D41113715014091475E
:1050A0004C00130505C03EC62312F1002313010076
:1050B0002314010023150100EF20A02341016FB04C
:1050C0006F8DEFB2EF8A371702405C439146B18B88
:1050D0006386D7005C434167F98F81C70145EF20A4
:1050E0000067B7F700E0938707D0984B13678702F4
:1050F00098CB984B1367870098CB73005010984B50
:105100001367870098CB730050106FB0AF88EFB271
:105110002F86014501232945EF003022356513050F
:10512000C5B7EF50D0770145EFE09FD8EFD01FCF44
:105130000545EFF05FEB0545EF200066130510060F
:10514000EF20207B854719C5EFF0BFF70145EFF051
:105150009FE981473E856FB0EF830DCDEFA2BFFF82
:105160002A84AE8405458DC5328A81452D461305B6
:105170009400B6893A89EFB00F84854704C0232292
:105180004401230534012304F400A308240101454C
:105190006FA0BFFF05458280EFA29FFD9304F00F33
:1051A0003DCDB5CD1C412A84BDCB83440501BDE86E
:1051B0000347A5005C4563D7E7068347150113F94C
:1051C000F70F6374F6001379F60F85471307C400D1
:1051D000AF27F7005C44834794000347A40085078A
:1051E00093F7F70F63E3E700814703451401A30436
:1051F000F4004A86B307F50208403E95EFA05FFA37
:105200005C4091C703479400BA97238027018347E6
:10521000A40058446345F70085472308F400268519
:105220006FA05FF78544E5BFEFA29FF41309F00F6D
:1052300041CDD9C91C412A84C1CB0349050163185A
:1052400009080347A5005C4563D3E70883471501B8
:10525000B2846365F600FD1793F4F70F85471307D3
:10526000C400AF27F7005C44834794000347A400C1
:10527000850793F7F70F63E3E700814703471401BE
:10528000A304F40026863307F7021C40BA97238054
:10529000D70083471401034794000840B387E7020F
:1052A00085073E95EFA0DFEF5C4099C70347940068
:1052B0008504BA97238097008347A4005844634528
:1052C000F70085472308F4004A856FA0BFEC054925
:1052D000E5BFAA8731C518411305F00F21C7D8478C
:1052E00019E3014582807D579386C7002FA7E6000A
:1052F000D84703C7870083C6A70005071377F70FB2
:105300006363D70001472384E70003C7070171DB0C
:10531000D847B326D70093C616002388D700D1B745
:105320001305F00F8280EFA2BFE4056501118545EA
:10533000110502C002C202C402C602C802CA02CCDF
:10534000231E0100EF206053930700082310F10093
:1053500037150140E1473EC48A858D471305058016
:105360003EC2EF101079B7C704013EC6B70700026E
:105370003ECA930700023ECC6C009D473735014082
:10538000231EF10002C8EF20A05905468945373594
:105390000140EF20606005616FA0DFDFEFA2BFDB9F
:1053A00079712A84AE89328981451306C00248008A
:1053B000B684EFA05FE085450545EF20204A2285B1
:1053C000EF10702AC1473EC6930700083ECC4C0040
:1053D000856722854EC24AC426C83ED402CA02CE80
:1053E00002D002D202D6EF10103645616FA0FFD96D
:1053F000B706000141110147814793850182FD16DF
:105400006148137615002E96034606000581331673
:10541000E600D18F0D07F58FE31507FF1395070100
:105420004181239CA19EC1831375F50F9386819FB3
:105430002381A600238CF19E83D7819F42055D8D39
:1054400041018280EFA23FD18D4AB3045503373426
:1054500000203285130404142E8AB689EFF05FF918
:1054600093578500138904013309590322992300B6
:10547000A9004181A300F9002301A90013891401A7
:1054800033095903C9045285EFF09FF693578500FD
:10549000B384540322992300A90041812301A90068
:1054A0004E85A300F900EFF0BFF4935785002694D2
:1054B0002300A4004181A300F4002301A4006FA0F5
:1054C000DFCCEFA27FC89387C17B83CA77001384A8
:1054D000C17B79E963870A00814537850200EFC007
:1054E0006F8781448347A40063C4F4006FA05FC941
:1054F00013F5F40F814601468145EFF0BFF48504B2
:10550000D5B703C70900098B35C7814601468145D8
:1055100013F5F40FEFF01FF385040347A40083474E
:105520008400E3C0E4FE054791446393E700B1447F
:105530008347940085EB372400201304042F83460F
:10554000340203462402834514022685EFF09FEFC0
:105550008346240303461403834504031385140080
:10556000EFF05FEEE3840AF8854537850200EFB07F
:105570007FFEADBF95C363847703B307690313F55B
:10558000F40F0509D29783C6270003C6170083C509
:105590000700EFF03FEB49B7E3419BFEB5BF9387B0
:1055A000C4FFE36CFBFC8DBFB7290020372A002025
:1055B000014981449389093F130A0A2F0D4B854BFA
:1055C000A9BFEFA2FFBA814537350140EF20E03A8D
:1055D00037040240130504038145EF10501AB73712
:1055E000002013050403938707145CC583C7617CFF
:1055F0000D478545B387E70293870702B387E70224
:105600005CC1EF10D017854537350140EF20E036FB
:105610006FA05FB8EFA2DFB52A84EFF09FEA228582
:10562000EFF03FFA6FA01FB7EFA29FB4373400200E
:105630001306D035814513050414EFA0DFB7EFF052
:105640009FCE0945DD2983C7617C0D478D46B38711
:10565000E702B73501403705024013060414B105CF
:105660001305050393870702B386D702EFF01FD314
:105670000545EFF03FFA01456FA0DFB1EFA2BFADE6
:1056800003C4417CB737002083C6A71193072003CA
:105690007D14B386F602133414000A0422859304A1
:1056A000140093F6F60F3686B685EFF0BFD9B7270C
:1056B000002003CA073F9389073F814613198A01D7
:1056C0001359894163440900930620033686B68541
:1056D0002685EFF03FD783C6119F9307200313055C
:1056E0003400B386F60293F6F60F3686B685EFF0F1
:1056F0007FD5634F090083C7C19881E783C7B197FE
:1057000081EB81460146930520032685EFF09FD368
:1057100093770A020904814681EB83C7190093F746
:10572000070285C793062003014681452285EFF0D5
:105730007FD183C7419181CB8146014693052003E8
:105740002285EFF03FD06FA05FA4814613062003AF
:10575000E9BFEFA25FA003C4417C03C9C19F7D14D0
:10576000133414000A0409C59357490033E927018B
:105770006308090281449149B35799403305940065
:10578000858B1375F50F814601469305200391E340
:1057900081458504EFF01FCBE39034FF6FA0FF9E9F
:1057A0002285930620031306200393052003EFF0C0
:1057B0007FC91305140093062003130620039305E5
:1057C0002003EFF03FC813052400930620031306BF
:1057D000200393052003EFF0FFC693062003130672
:1057E00020039305200313053400EFF0BFC57DB7F8
:1057F000238EA19E0547238EE180828003C7B19F3F
:105800006307A700A38DA19E0547238EE1808280B8
:10581000EFA21F962A84752483A7419F1D8D9D4763
:1058200063FDA700792C83C7B19F23AAA19E81CBDA
:10583000EFF0DFE40545EFF0DFD86FA0BF9583C739
:10584000C181E5DF2285EFF0DFF00545EFF07FD77E
:10585000238E0180DDB713050020EF10A0770DC166
:1058600013050010EF1040773705024081451305FE
:105870000503EF10C070814537350140EF20E00F80
:1058800073002030411102C43717024002C61C4386
:10589000C16637060200D58F1CC3B71602401567D4
:1058A0009C42F18F3EC6A24785073EC4B24781E7BE
:1058B000A247E397E7FEB71702409C433707020071
:1058C000F98FC9C385473EC632478547631EF70631
:1058D000B72702409843B706C1FFFD1613670701BB
:1058E00098C39843719B98C398431367270098C344
:1058F000B7170240D843D8C3D843D8C3D843D8C376
:10590000D843758FD8C3D843B7061D00558FD8C369
:105910009843B7060001558F98C3B7060002984315
:10592000758F75DFD843B7160240719BD8C3D84333
:1059300013672700D8C32147DC42B18BE39EE7FE03
:105940004101828002C649B701A0B71702409843BF
:10595000B706FFF81367170098C3D843758FD8C3ED
:105960009843B706F7FEFD16758F98C39843B706A0
:10597000FCFFFD16758F98C3D843B70681FFFD164F
:10598000758FD8C337079F0098C76FF0BFEF3717E1
:1059900002405C43A146B18B6391D7065C435443FC
:1059A0004166C983BD8BF18E890781EE374702407E
:1059B00003270780418B19CB37177A00130707207D
:1059C00011A85843B7060200758F7DD737173D00E1
:1059D00013070790B387E70237170240544337177E
:1059E0000020130787279182BD8A36970347070057
:1059F000B3D7E70023A2F1828280B7177A0093879A
:105A00000720D9BF6FF01FE8854537050040EF201C
:105A1000601E8547631CF50083A781A08545370577
:105A20000040850723A4F1A0EF20401F7300203021
:105A3000EFA20FF40111930770043ECA4C089307BC
:105A4000703E370500403ECCEF1070760546854528
:105A500037050040EF204013854537050040EF2013
:105A6000800F9307C0022316F10089472307F10036
:105A7000680085473EC8EF10703F996737E700E040
:105A8000938787A07CC3B207B706002CB183D58F5C
:105A90007CD305616FA00FF003A701A011E70547B4
:105AA00023A0E1A06FF0DFF8828083A781A0130715
:105AB000803EB387E70237070040035547023E9513
:105AC000828003A581A0828083A7418237177A0054
:105AD00013070720B3D7E7022382F1A0828019E5DC
