:100000006F50B074130000001300000013000000D4
:100010001300000013000000130000001300000094
:100020001300000013000000130000001300000084
:08003000130000007300100032
:100038006FF09FFC000000006F0060186F00A01AAE
:1000480000000000000000000000000000000000A8
:100058000000000000000000000000000000000098
:100068006F50106E000000006F50906D000000008F
:100078006F50106D6F50D06C6F50906C6F50506C0B
:100088006F50106C6F50D06B6F50906B6F50506BFF
:100098006F50106B6F50D06A6F50906A6F50506AF3
:1000A8006F50106A6F40D0636F5090696F505069FD
:1000B8006F5010696F50D0686F5090680000000052
:1000C8000000000000000000000000006F505067B2
:1000D8006F5010676F50D0666F5090666F505066C3
:1000E8006F4030776F10D07B6F5010606F50506545
:1000F8006F5010656F50D0646F20001E6F505064B1
:100108006F5010646F50D0636F5090636F5050639E
:100118006F5010636F50D0626F5090626F00202A4A
:1001280000000000000000000000000000000000C7
:080138000000000000000000BF
:10014000397101436EC619A0397141536AC866CA34
:1001500062CC5ECE19A0397101535AD056D252D416
:100160004ED64AD826DA22DC06DE3301614082828E
:1001700041114AC026C222C406C68282B24D410144
:10018000024D924C224CB24B4101024B924A224A00
:10019000B2494101024992442244B2404101828065
:1001A0002A8309CA83830500230073007D16050393
:1001B00085056DFA82802A8311C62300B3007D165F
:1001C000050365FE82800145EF40904937170240E4
:1001D0001C47B7068000D58F1CC7EF40D06737E7B4
:1001E00000E03C4793E787003CC773002030411193
:1001F000014522C626C4EF40B046F327203423A68B
:10020000F1887327103483A6C188B73500209387FF
:10021000859A13D686002380D704A380C70413D6FB
:100220000601E182A381D704935687002381C70486
:100230002382E704A382D70423A4E188935607010D
:100240001306800461839385859A01452383D7042F
:10025000A383E704EF00506383A7C18863CF07003F
:100260000D476387E7026375F700F1176367F700CF
:1002700083A7818891077390173437E700E03C47E4
:100280003244A24493E707023CC741017300203087
:1002900001A0EFF2FFED11458545EF60901AB747D9
:1002A000024093870780984301451367470098C32E
:1002B00003A74181B7A74A04938707206309F70082
:1002C000B777DC02938707C06315F7000545EF6039
:1002D000D00585450565EF60F0146DBD37370240E8
:1002E000930700FC2306F740B73700209387C78E9B
:1002F000C207C1832318F740B73700209387C7860A
:1003000023A4F1A0C207C183231AF7408947230918
:10031000F742230BF74293870189A380070082806D
:10032000EFF21FE5B7470240938707809843ADE996
:100330001367870098C33734024099472300F4407D
:1003400035C12945EF4070629D47230004402301D9
:10035000F440930790022300F4404937930710F8C4
:10036000A300F4409306000461469385410613857B
:100370004173EF408074B725002093060004614666
:100380009385C5AC1385416AEF402073B7E700E061
:100390004147A38DE7423707000823A2E710DDBBE2
:1003A0005D9B49BF2945EF40505CB7E700E0230063
:1003B0000440B843C146B4C3370600089386071803
:1003C000D0C2B8C3E9BF011122CE26CC4ACA4EC85A
:1003D00052C656C4373402400347644083477440D2
:1003E0009376F70F098B630B075E93F7F70F13F7FD
:1003F0000703930500026303B70493060003630435
:10040000D71829E713F7F703630307128546631F1D
:10041000D70293F707049DCB83476443814693C774
:100420000708230BF4420356844083A581A013766A
:10043000F60F1385416AEF40A06C09A893F7F70304
:100440006384E702130710026380E70CB7370240AA
:1004500009472383E7407244E2445249C249324A81
:10046000A24A05617300203083D7E18999E7834769
:10047000244393F7370F2309F44283C7418A93F744
:100480000706E9F783C7518A954613F7F70F63818B
:10049000D7069947E31CF7FA03D7E1899307F003DE
:1004A0001304000463E6E70003D4E18942044180B9
:1004B00003A9818A373500202286CA851305C58E97
:1004C000C53183D7E189229923A4218B818FC2076B
:1004D000C183239FF1881374F40FB7370240238838
:1004E000874203C72743134707042389E742B9BF5D
:1004F000B736024003C7364083C7C1891377070860
:10050000D98FA381F64099B78347644393F7C70F08
:1005100093E72700230BF4428347644393C7070400
:10052000230BF44293870189A380070005B793F753
:100530000704E38D07F083C7418A93F70706E38733
:1005400007F083C7418A93F70706E391B7F003C723
:10055000518AA547E31CF7EEB73500203745002048
:10056000130600049385C58E1305C5331539054759
:10057000238EE19E8347244393F7C70F93E7270019
:100580002309F442E1B59307A0FC37350020230985
:10059000F4421307C58E834707002382F18A8347FD
:1005A000170083562700A382F18A83576700239F91
:1005B000F1882391D18A835647002390D18A03C9B9
:1005C000418A9306C58E137909066309090C83C70E
:1005D000418A93F70706639EB70283C7518A29466B
:1005E000FD1793F7F70F6363F6182D668A07130656
:1005F0004653B2979C43828783D7018A6398071634
:10060000B7450020130600049385C5331305C58E36
:10061000413E83C7418AE207E18763DE073803D79B
:10062000E1899307000463E6E70083D7E189C20705
:10063000C18303D7E1891D8F42074183239FE1884E
:1006400093F7F70F373702402308F74283472743D2
:1006500093F7C70F2309F742D5BB83D7018A639766
:10066000071003C73600A38CE18865B783D7018ADA
:10067000639E070E03C72600238CE18859BF83D7EA
:10068000018A6395070E83C791892380F60051B7CD
:1006900083D7018AE1EF83C78189C5BF83C5518AAA
:1006A0002D4813F6F50F6363B80CAD650A06938504
:1006B00005562E961042028683D6218A0D46A182C7
:1006C0006386C60C636CD6008547638CF602894747
:1006D0006381F60481471309F00F81A89307100284
:1006E000638BF60893072002E396F6FE83D7018A10
:1006F000F5F3AD679387876823A4F18A9307F00D1C
:100700002DA0AD679387877623A4F18A83C707005E
:1007100029A8B72700209387878023A4F18A03C7DD
:10072000270083C73700A207D98F03D7E18963F475
:10073000E700239FF18803D7E1899307F003130AA9
:10074000000463E7E70003DAE189420A135A0A0169
:1007500083AA818A52861305C58ED6859134D29A92
:1007600023A4518B9307F00FE315F9EAB737024042
:100770001307F0FC9DBB83D7018AA9FFB727002090
:100780009387A78123A4F18AA54745B783D7218AF8
:10079000094793F7F70F6387E702636BF70099EF59
:1007A0009387018823A4F18A014983C70700B5BF55
:1007B000E392D7F2AD6793878763B9B7AD67938745
:1007C000C76799B7AD67938707653DBF83D7218A10
:1007D00093F7F70F238EF1882DBD83C7D18923802E
:1007E000F60003D7E1898547E3F5E7E2239FF18827
:1007F0000DB583D7218A93F7F70FA38EF1880547AC
:10080000238DE18839B583C6418AFD8A99EE83D765
:10081000218A054793F7F70FE39DE7DE83C7B18988
:1008200093F7E70FA38DF188EDB383C6418A09469C
:10083000FD8AE39DC6F283D7218A93F7F70F9DF7D0
:1008400083D7018A054793F7F70F6381E702130700
:100850002008E39DE7F0373702408347A74393F72B
:10086000C70B93E72700230DF74265B337370240E4
:100870008347674393F73707230BF7428347674361
:1008800093F7C70B93E72700230BF74259B383C6AF
:10089000418AFD8A8DE683D7218A054793F7F70FB2
:1008A000E396E7ECB727002083C7F78093F70702AA
:1008B000E38E07EA83C7B18993E71700A5B783C61C
:1008C000418A0946FD8AE393C6EA83D7218A93F7D2
:1008D000F70FE39D07E883D7018A1307100893F702
:1008E000F70F638FE70013072008E391E7E8373736
:1008F00002408347A74393F7C70B93E73700A5B799
:10090000373702408347674393F7370793E7C700BA
:10091000230BF7428347674393F7C70B93E73700EF
:10092000A5B72380060075BD83C7418A2316058EAF
:10093000FD8B99EB83C7B189858BBDC38947238024
:10094000F60003D7E1894DB583C7418A0946FD8B7F
:10095000639CC70403D7018A130610081377F70FA7
:10096000630DC700130620086305C70203D7E1899A
:10097000E3FEE7DE239FF188D5BB3737024003470C
:1009800067433146318BE31EC7FA05472380E600F3
:100990004DBF373702400347A7430D460D8BE5B7E0
:1009A00003D7E189894789B583D7E189E370F6DC0C
:1009B000239FC18865BB83D7E18991EBB73702409C
:1009C0002388074203C727431377C70F39BE37373A
:1009D00002408347274393F7370FADB993F71600CB
:1009E0009DC3A38E0188238E0188A38D0188238D4A
:1009F0000188A3010440DD308347644093E717007A
:100A00002303F44089BC93F746009DCB9147230311
:100A1000F4402945EF40607503475440118B11CBDA
:100A200003C7B18913672700A38DE18883C7B18904
:100A30001DB403C7B1891377D70FA38DE18821BCFB
:100A40002303D44009BCEFF2AFF237070001AA87B5
:100A5000130707F07D8FA1662E856303D702BD665D
:100A60006307D7029966631BD700B735002093F759
:100A7000F70F9385059FBE95EFF08FF26FF08FF122
:100A8000B735002093F7F70F9385859AEDB7B73503
:100A9000002093F7F70F9385C592F1BFB73500207B
:100AA0001306C0079385C59205453DA5B7350020BF
:100AB0001306C0079385C5920545F9A3EFF24FEBE6
:100AC00003A4C18A25C013060008FD552285B7344A
:100AD00000209384049FEFF00FEE6146938504029B
:100AE00013054400EFF0CFEB49469385D40313057B
:100AF000C401EFF0EFEA3546938504051305E402DF
:100B0000EFF00FEA6146938504081305B403EFF094
:100B10002FE949469385840913053405EFF04FE822
:100B2000230004006FF00FE7EFF28FE403A5C18A02
:100B3000713709454D236FF0EFE5EFF26FE3B7072B
:100B40000001938707F0E98F21676384E7023D671F
:100B50006381E70419676397E704B7370020938739
:100B6000079F1375F50F3E95EFF08FE3753F6FF01C
:100B70006FE2373400209307849A1375F50F3E9582
:100B8000EFF00FE2130680049305849A0145ED29E6
:100B9000F9BFB73700201375F50F9387C7923E95BD
:100BA000EFF00FE00145E1B7EFF2EFDA03A4C18AFD
:100BB00063040420834704009309C4011309340526
:100BC0006381071A930740FCA30EF4009307C00447
:100BD0001307C0FC230FF4002302F402930700F86C
:100BE000230EE4002301E402A300F402130740FCF7
:100BF000A147A301E4022300F4022546CE85A30FFA
:100C0000040013055402EFF0AFD993072003230823
:100C1000F4022307F402930700032301F40493076B
:100C20001006A301F4049307E0FA2302F4049307E7
:100C300000F9A302F404930790FD2303F40493073F
:100C400040FDA303F404D1472304F40493074005B3
:100C5000A304F4042306F404930770FCA306F4042D
:100C6000930790072307F4049307C0F913071003B1
:100C7000A307F40493073003A307E4022308F40452
:100C80001307100493076003FD543D4A2305E40451
:100C9000A308F404554793073006A305E404230989
:100CA000F404A309940223099402A3089402A30064
:100CB00044054946930514044A85EFF06FCE930727
:100CC000B0052302F4009307B0F82303F400930760
:100CD00060F92304F4008547A304F400930700049B
:100CE000A305F400A306F400A307F400F5472308C6
:100CF000F4009307E0FB2309F400B957230AF4003A
:100D000093074003A30BF400A30CF400A30DF4001D
:100D100093070005A30DF402F5571307B003230E44
:100D2000F402930760FCA3020400A30394002305CC
:100D300004002306040023070400A3080400A309F9
:100D40009400A30A9400230BE400230CE400230D79
:100D5000E400A30E0402230F0402A30FF4022300F5
:100D60004405B73400209384049F614693054400F2
:100D700013850402EFF0CFC24946CE851385D40314
:100D8000EFF00FC235469305E40213850405EFF03A
:100D90002FC161469305B40313850408EFF04FC0DB
:100DA0004946CA8513858409EFF08FBF8347040045
:100DB00081C7230004008D3B6FF02FBDEFF24FBBC6
:100DC00083A5C18A130650060945392603A5C18AA1
:100DD000E13B6FF02FBCEFF2AFB90545373400208F
:100DE000EF4000081304C49203459401EF90801370
:100DF00083A58186EF80806123ACA1960345A40181
:100E0000EF90401283A58186EF80406023AAA196CF
:100E10000345B401EF90001183A58186EF80005F48
:100E2000544423A8A19693D78600C207C183B387F1
:100E3000F7021387018BE1821CC383470401A207D9
:100E4000D58FB387F7025CC3B5298347040013F736
:100E5000070119CB37370020130747B2B746020006
:100E600054C7B726020014C713F7870001CF3737DE
:100E70000020130747B2B716020054C3C166938619
:100E8000060414C3918B89CFB7370020938747B2EC
:100E900023A2070423A0070423A6070423A407040E
:100EA000EF40300B6FF00FAFEFF28FAC3734002014
:100EB0001306100BFD551305049FEFF0CFAF392437
:100EC00023A6A18AE53D9307049F130700F823801A
:100ED000E70069770D07373400202399E7001306F0
:100EE000800405479305849A0145A38DE700ED2210
:100EF0009307849A03C7070015C32147A3800700FF
:100F00002381E700A38107002382E700A382070073
:100F10002383E700A38307002384E700B73400207E
:100F20001306C007FD551385C492EFF0CFA8BD3658
:100F300083C7C4921384C492858BF1C71306C0077C
:100F400081451385C492EFF00FA737350020A147E4
:100F500011469305800213053593A300F400230185
:100F6000F400EFF04FA53735002011469305000837
:100F70001305F592EFF02FA4B73700201967938778
:100F8000A794130707062391E7002390E7009547EE
:100F90002307F4002308F4008967938717B023110F
:100FA000F402930760FD13078007A305F400994737
:100FB000A306E400A307E4002306F40001478D45DF
:100FC000FD566D46B307B7020507A2972382D702E5
:100FD000A382D7022383D702E316C7FE9307F00745
:100FE000A30CF400E17793C7F7F7231DF4008947BA
:100FF000230EF400930740FDA308F40093070003B9
:101000002309F4006534C13B03472400B7270020BF
:1010100093878780A380E7020347140037450020A9
:1010200019462384E702930534011305A5B9EFF0AF
:101030002F976FF02F968D4763E5A704EFF24F933C
:10104000B70710009387071E3E951314750093058C
:1010500000082285EF50C0471147AA848947631FC3
:10106000E500B735002013060008938545AA2285C0
:10107000EF50A0578D476313950081473E856FF071
:101080006F9185473E8582809DCDEFF2CF8C93078F
:1010900000082A89B2841305E00F63E4C702B73958
:1010A00000202E84130600088145138549AAEFF01D
:1010B0008F902686A285138549AAEFF06F8E4A8508
:1010C0009D3F6FF08F8C1305F00F82803735002025
:1010D000130545AA828085B70D47AA87636BA702CF
:1010E0002E851307F00F9DC5930500081307E00F29
:1010F00063E2C502EFF2CF87370710001307071E20
:10110000BA9793957700EFF0AF8901473A856FF072
:101110006F8805473A858280AA872E8563D3B700FA
:101120003E858280EFF2CF844111AA851146680086
:10113000EFF00F87324541016FF0CF85AA872E85EA
:1011400063C6B7003E856353F60032858280EFF2B6
:101150002F827971614681452808EFF0CF850145DE
:1011600002C602C802CAEF50901E3715014093070D
:10117000A0036C0013050580372401402316F100FD
:1011800002CAEF50205813050440EF40F063854732
:101190003ECE3ED0B7070E003ED22C089147130535
:1011A00004402306F10202CC02D4EF40906485454E
:1011B00013050440EF40F069854513050440EF40F6
:1011C000506813050440EF40F069930404402685FD
:1011D000EF40F0696DFD1305044037240140EF40F6
:1011E0009069930404402685EF4090696DFD1305D6
:1011F0000440EF407076239CA18A45616FE09FF91F
:10120000EFE27FF579712A84AE8932898145130630
:10121000C0024800B684EFE01FFA2285EF50E00BD1
:10122000930700083ECC930700103ECE9307004082
:101230003ED0930700023ED24C008D6722854EC2FD
:101240004AC426C83ED402C602CA02D6EF50E016EF
:1012500045616FE09FF3EFE2BFF1D53D37240140D8
:10126000B70402409305C444138584009146138655
:10127000C18B7937130504409D4605468545EF40EF
:101280003062130504409D4609469545EF40506184
:10129000130504409D460D468D45EF4070609D4608
:1012A0001146130504409145EF40905F138584007B
:1012B0008545EF500014854513050440EF40D05C90
:1012C0006FE05FED4167B7370020938747B2930621
:1012D0000710D4D79306170013070704D8C337178E
:1012E000020098C337270200D8C73747020098C7C3
:1012F0003707020094D793068700F4C393060702CA
:10130000B4C3E166F4C793060701B4C79306072088
:10131000B4CFB726040094CF93060710F4CFB74696
:101320000400D4CF9306070494D3B7860400D4D323
:1013300013070708B786020094DBD8DB8280EFE250
:101340003FE341114137930780043EC6B737002081
:10135000138447B202C202C493040406938747B2BF
:1013600081460147C16590433375B60009C5518F69
:101370004207418385469107E39797FE99C223125E
:10138000E100371501404C0013050580EF50803710
:1013900022872312010081468147B70502001043CE
:1013A0003375B60009C5D18FC207C18385461107C1
:1013B000E31797FE99C22312F100371501404C0044
:1013C000130505C0EF500034014723120100814787
:1013D000370604001440B3F5C60089C5D58FC2078F
:1013E000C18305471104E31794FE19C32312F100CA
:1013F0004C0037150140EF50E03041016FE09FD9BC
:10140000EFE29FD43719014037340020130B09C095
:10141000130444B281448149370A0700B70A020025
:10142000B70B0400416C130909800C40B3F7450168
:10143000638A5703638C7703054563978701C20569
:10144000C1814A85EF50E0371335150033159500FB
:10145000E1478504B3E9A9001104E398F4FC4E8543
:101460006FE01FD2C205C1815A85E9BFC205C181A3
:1014700037150140C1BFEFE2BFCFB7070700E98FC3
:1014800037070200AA856384E702370704006388F0
:10149000E70241670545639AE700C2053715014039
:1014A000C18113050580EF50C0316FE0BFCE9315A9
:1014B000050137150140C181130505C0EDB793152E
:1014C0000501C18137150140F9BFEFE27FCA79718B
:1014D0002A848545314502CA02CC02CE02D002D20E
:1014E00002D402D602C402C623180100EF50607570
:1014F0006310041285450945EF5080763715014089
:1015000061478D474C08130505C03ACE37040040AB
:10151000231AF1003ECCEF50E01E9307005A2C0036
:10152000130504403EC602C4EF501002054685452F
:1015300013050440EF507027C167938707060C100E
:10154000130504403ED02313010223140102EF507F
:1015500030070C1013050440EF50100F0C1013054A
:101560000440EF507019854513050440EF50902258
:10157000A14513050440EF509026A14513050440F2
:10158000EF501027A14513050440EF501028A14546
:1015900013050440EF509028814513050440EF5097
:1015A00030229305002D13050440EF50D0289305F9
:1015B000002D13050440EF5070289305002D1305EE
:1015C0000440EF5010289305002D13050440EF5000
:1015D000B027EF00F0049307D0122310F1009947D1
:1015E0002301F1000A8585473EC2EF50E045896737
:1015F0009387870A37E700E07CC3B207B183B70659
:10160000002DD58F3CD7854513050440EF50D016EB
:1016100045616FE03FB8AA853705004013050540D6
:101620006F5090152A883A850947630AE8000D47EC
:10163000630EE8003285630508023685828063C147
:10164000A5022E8563DCB7003E8509A82E964206CA
:1016500041866347A6003285E3C8C7FE420541853F
:10166000828019473305E502B707002093870700FA
:101670002E86014781463E958315250003450500CA
:101680009307001045B719473305E502B707002057
:10169000938707002E861307000C930600103E95D3
:1016A000831545000345150093070014A5BF138754
:1016B000018D1443B737002058430E05938747B870
:1016C000AA9794C3D8C38280EFE29FAA83443500CF
:1016D0001384018D831504008580FD882A89268561
:1016E0004937831524002310A4002685693F8344CD
:1016F000390083472900831544008588918392042B
:10170000DD8C2311A4002685A93F831564002312D4
:10171000A40026858D3F2313A4000145493F0547BA
:10172000A38CE18C6FE01FA7EFE29FA40347350075
:1017300083472500370600201377F70393D67700F9
:101740000607558F931517009306061CAE968395D2
:1017500006001306061C2398B18C9386018D89C55B
:10176000B725002023A6E58A3707002093F7F7075F
:101770001307070C8607BA9783D707002391F60053
:101780008347150093F7E70F3E96835706000346FD
:1017900005002392F6008347150009820145858BD9
:1017A0009A07D18F86073E97835707002393F60049
:1017B000FD3D0547A38CE18C6FE0DF9DEFE25F9B71
:1017C00083473500834625000347050093F7F70359
:1017D0009D82860713764700D58F058BAA841384D4
:1017E000018D86076309070C630D060A3707002081
:1017F0001307070CBA9783D707002313F40001459A
:101800007D3503C924008315040013592900137979
:10181000F9014A85B935831524002310A4004A85AF
:101820009D3503C9240083C7140083154400137930
:10183000390095830E093369F9002311A4004A8504
:101840000D35831564002312A4004A852D3D231312
:10185000A4000545A93D03C91400831504001379AC
:10186000F9014A85FD3B831524002310A4004A8515
:10187000193D83C40400831544002311A4008D8006
:101880002685C533831564002312A4002685E53B15
:101890002313A4000945213D0D47A38CE18C6FE083
:1018A0007F8F370700201307071CBA9783D70700DD
:1018B0002312F400A9B719CA370700201307070C31
:1018C000BA9783D707002311F40015BF370700200C
:1018D0001307071CBA9783D707002310F40005B736
:1018E000EFE21F89034935001384018D831504003D
:1018F000135919001379F901AA844A859D33831578
:1019000024002310A4004A85BD3B03C9340083C7CB
:101910002400831544001379190091831209336957
:10192000F9002311A4004A852D3B8315640023127E
:10193000A4004A85893B2313A40001458D3B03C9BC
:10194000240083C71400831504001379F9009D83D4
:1019500006093369F9004A852933831524002310C9
:10196000A4004A850D3383C4140083154400231159
:10197000A4008980FD882685ED318315640023123B
:10198000A400268509332313A40005450D33094718
:10199000A38CE18C6FE01F80EFE28FFD8347350061
:1019A000834425003707002093F7F70393D674008C
:1019B0008607D58F1307071C8607BA9703470500CC
:1019C00083960700B70700201376E70F9387070C6D
:1019D000B2978980058B839707002A89FD88138435
:1019E000018D49C78315040026852312D4002313D3
:1019F000F400EFF01FC7831524002310A4002685F0
:101A0000EFF07FC82311A4000145EFF05FCA8344C3
:101A1000290083471900831504008D8895838E045F
:101A2000DD8C2685EFF0FFC3831524002310A4006E
:101A30002685EFF05FC58344190083154400231108
:101A4000A400FD882685EFF0DFC183156400231212
:101A5000A4002685EFF03FC32313A4000545EFF053
:101A60001FC50947A38CE18C6FE0CFF283154400BA
:101A700026852310D4002311F400EFF09FBE8315B8
:101A800064002312A4002685EFF0FFBF2313A400F7
:101A9000A5BFEFE2EFED034935001384018D8315F7
:101AA0000400135919001379F901AA844A85EFF04B
:101AB0005FBB831524002310A4004A85EFF0BFBC50
:101AC00003C9340083C72400831544001379190027
:101AD000918312093369F9002311A4004A85EFF0BC
:101AE0005FB8831564002312A4004A85EFF0BFB9E4
:101AF0002313A4000145EFF09FBB03C9240083C753
:101B00001400831504001379F9009D8306093369D5
:101B1000F9004A85EFF0FFB4831524002310A400D8
:101B20004A85EFF05FB603C9140083154400231102
:101B3000A400135929001379F9014A85EFF07FB207
:101B4000831564002312A4004A85EFF0DFB323134A
:101B5000A4000545EFF0BFB503C9140083C7040016
:101B6000831504001379390095830E093369F90050
:101B70004A85EFF01FAF831524002310A4004A8587
:101B8000EFF07FB083C40400831544002311A40048
:101B9000FD882685EFF0FFAC831564002312A400B6
:101BA0002685EFF05FAE2313A4000945EFF03FB0A8
:101BB0000D47A38CE18C6FE0EFDDEFE26FD80347B8
:101BC0003500238C018CA38C018C198389462E84CB
:101BD000630ED70E8D466309D71085466310D70272
:101BE0000347150083472500834605002207BD8B68
:101BF000558FC207D98FF9E3EFF01FAD03C5918D63
:101C00000D468145B7340020EFF04FD3370C00204C
:101C1000B73C0020938B44B8A38CA18C014D9384D6
:101C200044B8938A818C130C0C2C938CCC92930D1A
:101C3000001437992F50A54983C7918D6348FD0A39
:101C4000834734000547238CE18CA38C018C998356
:101C500089466387D7128D466383D7146392E70260
:101C60000347140083472400834604002207BD8BEA
:101C7000558FC207D98F639C070E2285EFF0DFA432
:101C800003C5918D0D468145EFF04FCBB70A00207B
:101C9000373B0020A38CA18C814B1384818C938AC9
:101CA0000A2C130BCB92130C001437992F50A54913
:101CB00083C7918D63C9FB0E6FE04FCC8D8A81E69F
:101CC000EFF09FA625BFEFF07FAF0DBF8347150054
:101CD000034705008D8BA207D98F81E7EFF05FC026
:101CE00031BFEFF07FCB19BF6D3309BF03974B00B6
:101CF00083C73C0081460A07629718434A85CE8510
:101D0000B387E702050DA10BAD8323A2FA008397E9
:101D1000EBFF8A07E29790433386CD020506EF502A
:101D2000005E23A0AA00D6850145A52A03978BFF54
:101D300083C75C001306000A0A07629718438146AE
:101D40004A85B387E702CE85AD8323A2FA00839745
:101D5000ABFF8A07E2979C433306F6020506EF5075
:101D6000005A23A0AA00D6850945252AF1B58D8AF7
:101D7000228581E6EFF05F9B21B7EFF03FA409B722
:101D8000834714000347040022858D8BA207D98F57
:101D900081E7EFF0FFB4EDB5EFF01FC0D5B52285B8
:101DA000EFF03FCFF1BD0397440083474B008146DE
:101DB0000A07569718434A85CE85B387E702850BF5
:101DC000A104AD835CC08397E4FF8A07D697904354
:101DD0003306CC020506EF50805208C0A2850545A7
:101DE000C920039784FF83476B001306000A0A0784
:101DF0005697184381464A85B387E702CE85AD835F
:101E00005CC08397A4FF8A07D6979C433306F602EB
:101E10000506EF50C04E08C0A2850D45592049BDAA
:101E2000EFE20FB5B735002037350020A146130685
:101E300000049385C5191305C554EF201048B73524
:101E4000002037350020A146130600049385C5F90C
:101E50001305C54BEF207046B735002037350020FD
:101E6000A146130600049385C5D91305C542EF208A
:101E7000D044B735002037350020A14613060004B2
:101E80009385C5B91305C539EF20304385472384B1
:101E9000F190A384F1902385F190A385F1906FE0F8
:101EA0006FAFA1CDEFE2CFAC89476303F50263ECDE
:101EB000A70015E537350020814621461305C55496
:101EC000EF20104421A08D476302F5026FE08FAC34
:101ED00037350020814621461305C54BD5B7373528
:101EE0000020814621461305C542D9BF3735002061
:101EF000814621461305C539E1B78280EFE24FA73D
:101F000083C7B1909DCF373500209307C55483A672
:101F1000870885CA83C74708B73600209386C61945
:101F20008E07B6979443DC43A38501901387819273
:101F30001305C5545CC314C3EF2010460547A3879F
:101F4000E19083C7A1909DCF373500209307C54B03
:101F500083A6870885CA83C74708B73600209386BB
:101F6000C6F98E07B6979443DC4323850190138707
:101F700001921305C54B5CC314C3EF20F041054724
:101F80002387E19083C791909DCF37350020930739
:101F9000C54283A6870885CA83C74708B73600208D
:101FA0009386C6D98E07B6979443DC43A3840190E9
:101FB000138781911305C5425CC314C3EF20D03D44
:101FC0000547A386E19083C781909DCF37350020D8
:101FD0009307C53983A6870885CA83C74708B736DC
:101FE00000209386C6B98E07B6979443DC432384BA
:101FF0000190138701911305C5395CC314C3EF2009
:10200000B03905472386E1906FE0CF9815CE98410F
:10201000E1679387076A3E9798C16374C7000145DB
:102020008280B356C702835705003377C702B6973D
:10203000C207C1832310F50098C113D7B70065D339
:1020400093F7F77F2310F50005458280EFE24F926A
:10205000B737002083C7C7922A87368493F70704CF
:102060002E855443B28595C3854781CE1043793F71
:10207000814701C983A7C18D818F93B7A70F93C7EC
:10208000170013F5F70F6FE0EF9099EA03A5C18DE4
:10209000018D1335A50F134515001375F50FE5B721
:1020A0001043AD3765F5D5BF3705004079718545DB
:1020B0001305054022D626D44AD24ED052CE56CC55
:1020C0005ACA5EC862C666C46AC2EF4010798547C4
:1020D0006310F51C03A4C18D83A6C18EAA840504D8
:1020E000138581941386C18F9385619023AE818C73
:1020F000B13F138A819415C503C7F1901DC3A3870F
:102100000190938781929843DC432393019023208D
:10211000EA002322FA0023AE018EA385919023A624
:10212000818E83A6818E138501941386818F93857A
:102130004190293F938901941DC503C7E19005C7CC
:1021400023870190938701929843DC432392019067
:1021500023A0E90023A2F900054723AC018E2385C3
:10216000E19023A4818E83A6418E138581931386EB
:10217000418F93852190D93D138981931DC503C754
:10218000D19005C7A3860190938781919843DC4342
:10219000239101902320E9002322F900054723AA77
:1021A000018EA384E19023A2818E83A6018E1385E4
:1021B00001931386018F93850190493D9384019388
:1021C0000DC503C7C19015C3238601909387019164
:1021D0009843DC432390019098C0DCC0054723A8B6
:1021E000018E2384E19023A0818E83D761903704F0
:1021F00000201304047C8607A29703950700832719
:102200004A0003A74900130A002D3305F50283D7BE
:1022100041901306005A81458607A29783970700CD
:10222000B709004093890940B387E7023E9533051B
:10223000450351851305052DEFE05FF0420541810F
:10224000239EA90283D72190D84081458607A29773
:1022500003950700832749001306005A3305F5024A
:1022600083D7019086073E9483170400B387E70263
:102270003E953305450351851305052DEFE01FEC11
:10228000420541812390A90485454E85EF40B05E0B
:102290003254A25412598259724AE24A524BC24BEA
:1022A000324CA24C124D456173002030EFD25FECEE
:1022B000AA853765004013050580EF40C0741335CB
:1022C00015006FD03FEDEFD2BFEAAA853765004019
:1022D00013050580EF4080711375F50F6FD09FEBEC
:1022E000376700408357478113070780A183A3887E
:1022F000F19483574701C207C18393F707F0C207E0
:10230000C183231AF70073002030EFD2DFE4376572
:1023100000404111814513050580EF4000603714EE
:102320000140930700400D49D1494C00130504C0FA
:102330003EC24AC44EC68564EF40C03C93840480CC
:102340004C00130504C04EC64AC423129100EF404E
:10235000603B93050040130504C0EF408047A6850D
:10236000130504C0EF40A0460545EF20106093051B
:102370000040130504C0EF4080450545EF20F05EA6
:10238000A685130504C0EF40C0440545EF20F05D6D
:10239000A949130A04C00569930500405285EF401E
:1023A0004043A6855285EF4080420545EF20F05B13
:1023B000930500405285EF4080410545FD19EF200F
:1023C000D05AE39B09FC130504C093050040EF407D
:1023D000404093050980130504C0EF40803F054548
:1023E000EF20B05893050040130504C0EF40203E95
:1023F0000545EF20905793050980130504C0EF4071
:10240000003D0545EF20705691474C00130504C070
:102410003EC6EF40202F93050980130504C0EF400E
:10242000403A41016FD07FD6EFD29FD4376400404D
:10243000814513050480A3890194EF40004E1305E4
:102440000480EF404039EFF05FEC83C711955D8D5C
:102450001375F50F01C937350C0001468145130589
:1024600005502920EF2070496FD0DFD2EFD2BFCEC8
:102470000111AE842A8985452545328402C202C4F1
:1024800002C602C802CA02CC02CEEF40807B85455C
:1024900037054000EF40C07C371A014093090040E7
:1024A000714B8D4A4C0013050AC0231231015AC6E4
:1024B00056C4EF4020258567938707804C0013059D
:1024C0000AC02312F1005AC656C4EF40A023B70732
:1024D0000040231C9100B76400403ECA0C0891677D
:1024E00013850480231EF1004AC8231D3101EF40EB
:1024F000A031854513850480EF402042096513060D
:10250000800CB70502001305C52AEF20504209C907
:1025100009C8854513850480EF408049EFF0DFF05E
:102520000544A389819405616FD03FC683C7319567
:10253000638C0712EFD23FC237640040AA8A2E8A0A
:10254000130504808545EF40C04209651306800CE1
:10255000B70502001305C52AEF20703D83C711950A
:102560001375F50FC98F91C705472389E1946FD083
:10257000DFC1854513050480EF40E03BB709030048
:1025800009691306800C938519001305692CEF2047
:10259000103A83C711951375F50FC98F99C3094771
:1025A000E9B701469305400D13050480EF40403F15
:1025B000370B07001306800C93052B081305692CB5
:1025C000EF20F03683C711951375F50FC98F99C3A6
:1025D0000D4761BFD68513050480EF40603B1306AD
:1025E000800C93054B081305692CEF20503483C7EA
:1025F00011951375F50FC98F99C31147BDB7D285D2
:1026000013050480EF40E036854513050480EF4054
:1026100080321306800C938519001305692CEF2076
:10262000103183C711951375F50FC98F99C31547DD
:102630002DBF05469305400D13050480EF4040363D
:102640001306800C938529001305692CEF20302E8A
:102650009377F50F03C511955D8DE30A05F0994653
:102660002389D1943E8521B705458280EFD2BFAE44
:102670002E891375F50F8145EFF05FEB83C7119538
:102680002388A1945D8D1DE5B70503000965130638
:10269000800C938505041305652CEF20502983C712
:1026A00011951375F50F2388A1945D8D19C52547E4
:1026B0002389E194EFF05FD725A0B7690040138527
:1026C0000980EF40402D2300A9008545138509802E
:1026D000EF40402883C7019503C71195D98FF9FBB7
:1026E00003C50195B73700202389A79A6FD0FFA9AA
:1026F000EFD29FA585476316F600EFF03FF76FD046
:102700003FA82E8985453284EFF05FE2AA8435E147
:102710007D14370A0300856AB76900401374F40F0B
:10272000130A0A04896B938A0A80938909809307A4
:10273000F00F6303F4021306800CD28513856B2C13
:10274000EF20F01E83C711951375F50FC98F95C73C
:102750001D472389E194AA8437650040130505804D
:102760008545EF40201F83C71195C58F13F5F70FDF
:1027700059D5EFF07FCB268559B785476316F4000E
:10278000D6854E85EF4020244E85EF40C0207D1435
:102790002300A9001374F40F050951BF83C73195B5
:1027A00091E38280EFD23F9BAA8A09654111AE89ED
:1027B0001306800CB70502001305C52AEF20301759
:1027C00083C711951375F50FC98F8DC329472389C9
:1027D000E19483C71195C98F93F7F70F89C72AC66C
:1027E000EFF09FC4324541016FD03F9A37690040F6
:1027F000854513050980EF400014B7050300096AF9
:102800001306800C850513056A2CEF20501283C730
:1028100011951375F50FC98F99C32D474DBF01460B
:102820009305400D13050980EF408017370B070013
:102830001306800C93052B0813056A2CEF20300F2C
:1028400083C711951375F50FC98F99C3314741B7E8
:10285000D68513050980EF40A0131306800C93055D
:102860004B0813056A2CEF20900C83C71195137544
:10287000F50FC98F99C3354799BFCE8513050980D8
:10288000EF4000111306800C93054B0813056A2CCA
:10289000EF20F00983C711951375F50FC98F99C300
:1028A000394735B7130509808545EF40A00A014532
:1028B0000DB737350C0005468145130505506FF0FF
:1028C000FFBAEFD2FF8A41112E849305F1002A89C5
:1028D000B284EFF0BFD909ED8347F10093C4F4FF50
:1028E0004A85E58FB365F400A307B100EFF01FEB55
:1028F00041016FD03F8AEFD2BF879385819579459B
:10290000EFF0DFD609CD83A7C196850723A6F19600
:1029100083A78196850723A4F1966FD0BF8783C7CD
:1029200081950D4709458D8BE399E7FE83A7C196F5
:10293000B73500203146850793854563130520028E
:1029400023A6F196EFF0DFDA69D983A781960545D2
:10295000850723A4F196D1B7EFD29F8119441306BE
:10296000F00F85454945EFF0DFF509C57D14137477
:10297000F40F75F42945EF20500119441306F00FA8
:10298000930500084D45EFF0DFF309C57D1413747E
:10299000F40F6DF419441306F00F9305E008414558
:1029A000EFF03FF209C57D141374F40F6DF4194470
:1029B0001306F00F9305C0054545EFF09FF009C5DC
:1029C0007D141374F40F6DF419441306F00F93057E
:1029D00040044945EFF0FFEE09C57D141374F40F70
:1029E0006DF419441306F00F81455145EFF07FED6A
:1029F00009C57D141374F40F75F419441306F00F10
:102A000081455545EFF0FFEB09C57D141374F40FB4
:102A100075F419441306F00F81455945EFF07FEA2C
:102A200009C57D141374F40F75F419441306F00FDF
:102A3000930540085D45EFF0DFE809C57D14137488
:102A4000F40F6DF419441306F00F930580036145EC
:102A5000EFF03FE709C57D141374F40F6DF41944CA
:102A60001306F00F9305C0036545EFF09FE509C518
:102A70007D141374F40F6DF413351500A38EA19615
:102A80006FD04FF1EFD2CFEE1306000F81454145D5
:102A9000A38E0196EFF0FFE21306000F8145454536
:102AA000EFF03FE26FD00FEF8280EFD26FE983C784
:102AB000019613075002B7390020B387E702373475
:102AC00000201387C95D41119386C95D36C6BA9748
:102AD0000307C49223AEF194635D0700130640021E
:102AE00081453E85EFD02FEDEF30202841016FD09A
:102AF000EFE883C73195FDDB83C7C197E5DB83C76B
:102B0000E1971304C49281E78D47238FF196EF205C
:102B1000C05E8347C40003A741968346B400A20762
:102B20003307E540D58F2A8BE362F7FCEFF0BFDC7B
:102B300055FD373C0020930C0C64373700201307F9
:102B4000476313868C0193070C6493040C649443CD
:102B5000831507000907AE9694C39107E399C7FE52
:102B600003C4119603A7419505041374F40F8567F8
:102B7000A380819623A261973307EB409387773830
:102B8000E3F6E7F68840373D0020EF70A03983A5D3
:102B90008197EF603049EF70E03288C0C840EF7035
:102BA000603883A54197EF60F047EF70A031C8C04F
:102BB0008844EF70203783A50197EF60B046EF702F
:102BC000603088C493048D621386C40013078D623D
:102BD000814719C483A70C00B3C78702C207C18706
:102BE0002310F7000907910CE314C7FE61468145E5
:102BF00013050C64A3800196EFD0EFDB03A4C1950D
:102C0000194623AA6195130CC400E2852285EFD0F2
:102C10002FD9130B84011946DA856285EFD04FD87E
:102C2000B735002019469385A5635A85EFD04FD755
:102C300083C7C1970547639EE7089967697713863D
:102C400064009387871A130787E58396040063DD82
:102C5000D7062390F4008904E399C4FE9304240169
:102C60001946A68513056400EFD08FD37904194661
:102C7000A2852685EFD0CFD2194693058D62228595
:102C8000EFD00FD283C7E197FD1793F7F70F238F8C
:102C9000F196E39D07E403A5C195EF30000D03C550
:102CA0000196930750021306500213351500238036
:102CB000A1963305F502B24781453E95EFD0AFCFDF
:102CC0008D47238FF1961DB5E3D7E6F82390E400F6
:102CD00059B70947E398E7FA2285EF00E0665DB748
:102CE000EFD26FC7832A0500032A45002A8483296F
:102CF00085000329C500D6855685EF60B032AA84C9
:102D0000D2855285EF601032AA852685EF60803922
:102D1000AA84CE854E85EF60F030AA852685EF60C7
:102D20006038AA84CA854A85EF60D02FAA85268597
:102D3000EF604037EF40E046AA8503A5C186EF600B
:102D4000E06CAA84AA855685EF60D02D08C0A685C0
:102D50005285EF60302D48C0A6854E85EF60902CDF
:102D600008C4A6854A85EF60F02B48C46FD0EFC138
:102D7000EFD28FBD832BC500C445832A050083A9EC
:102D80000500032A450003AB45000329850003AC79
:102D900085002A84A6855E85EF60D028AA8CCE8522
:102DA0005685EF603028AA856685EF603055AA8C7D
:102DB000DA855285EF601027AA856685EF6010548A
:102DC000AA8CE2854A85EF60F025AA856685EF60CA
:102DD000F05248C4CE855E85EF60D024AA8CD6859B
:102DE0002685EF603024AA856685EF60A02BAA8C2B
:102DF000E2855285EF601023AA856685EF60802A00
:102E0000AA8CCA855A85EF60F021AA856685EF6095
:102E1000F04E08C0DA855E85EF60D020AA8CE2858E
:102E20005685EF603020AA856685EF60304DAA8C0C
:102E3000D2852685EF60101FAA856685EF60802603
:102E4000AA8CCA854E85EF60F01DAA856685EF6065
:102E5000602548C0E2855E85EF60D01CAA8BDA85CC
:102E60005685EF60301CAA855E85EF60A023AA8A94
:102E7000D2854E85EF60101BAA855685EF601048FD
:102E8000AA89CA852685EF60F019AA854E85EF606C
:102E9000602108C46FD0CFAEEFD28FAA2A8403A5D9
:102EA00041987971AE843305A640328AEF6080186C
:102EB000AA8903C5140083C704002E8922055D8DED
:102EC0004205418523A24199EF60C00F4E86CA8614
:102ED000EF50404703A6018383A64183EF5080460D
:102EE0002A8D03C5340083C72400AE8C22055D8D76
:102EF00042054185EF60000D4E86CA86EF50804442
:102F000003A6018383A64183EF50C0432A8C03C5E7
:102F1000540083C74400AE8B22055D8D4205418578
:102F2000EF60400A4E86CA86EF50C04103A6018377
:102F300083A64183EF5000412A8AAE896A86E686DD
:102F40006A85E685EF5000402A89AE846286DE8677
:102F50006285DE85EF50003F2A86AE864A85A685CB
:102F6000EF40E0742A89AE845286CE865285CE85A3
:102F7000EF50403D2A86AE864A85A685EF402073F5
:102F80002A86AE862A89AE84EF50C03B03A6818391
:102F900083A6C183AE8D2AC6EF40F05F03A60184ED
:102FA00083A641842A8BAE8A4A85A685EF40B05E0F
:102FB0002A86AE865A85D685EF50700D03A6818489
:102FC00083A6C184EF40A06E2A8BAE8A2A86AE8685
:102FD0006A85E685EF500037EF7080015A86D68605
:102FE0002ACADE856285EF50E035EF7060005A86B0
:102FF000D6862ACCCE855285EF50C034EF60507F04
:10300000B24703A6018583A641852ACEEE853E857B
:10301000EF40705803A6818583A6C1852A8AAE89B0
:103020004A85A685EF5000322A86AE865285CE8527
:10303000EF50F00503A6018683A64186B714002051
:10304000EF40E066EF60D07A4C082AD01385047C0C
:10305000EFF01FD21385047CEFF09FC88347140064
:10306000034704009384047CA207D98F2398F400BB
:103070008347340003472400A207D98F2399F40023
:103080008347540003474400A207D98F239AF400D2
:1030900045616FD0AF8EEFD22F8B83C76500B734F9
:1030A0000020AA89F19B93E727002383F50003C73B
:1030B000E1978D472E84938444666312F702EF20D4
:1030C000400523A0A19823A0040023A2040023A468
:1030D000040023A6040023980400A38F019603C5CF
:1030E000F19799471946130A15003305F502137A2B
:1030F000FA0FA38F419737390020930589622695EF
:10310000EFD00F8A8D47631CFA2283476400370B88
:103110000080854ACD9B2303F4007D1B914B034A1D
:10312000640093972A00CE9788439377CA00CE977E
:103130008C4333756501B3F56501EF60C05B635B7C
:10314000A00093F73A008A07137A3AFF336AFA002D
:1031500023034401850AE3947AFD03A5090093053E
:103160000000EF60A062635E051C83AB018703ACC7
:103170004187373A0020938A4900130B8A65C109B9
:10318000130A8A6503A50A00E285910AEF60806947
:10319000DE85EF602069EF60F0522320AB00110B59
:1031A000E39259FF83270A000347640013098962E9
:1031B000A98793F6F70092063D8B558F2303E40011
:1031C00013D74700A303E40013D7C7002304E40088
:1031D00003479400D183858B799BD98FA304F40096
:1031E00083274A0003479400A98793F6F7078606CA
:1031F000058B558FA304E40013D777002305E40063
:103200000347B400BD8393F7F703137707FCD98F07
:10321000A305F40083278A000347B40093D6A74090
:103220009A061377F703558FB187A305E40013D7E8
:103230008700A309E40003D7019803980400230939
:10324000F4002301E4022183A301E40203474402C2
:10325000C1839D8B137707FC136737002302E402B9
:1032600003170900B306074113F6860FD18FA18219
:10327000230AF400A30AD40003162900839824002B
:1032800083467401B30716418D87230BF400A18395
:10329000819AFD8BD58FA30BF4008316490003950B
:1032A000440083457401B387A64013D33740160307
:1032B000FD89B3E56500A30BB4000393640099870F
:1032C00093D58700230FF400B30707019A97755829
:1032D000B3C7070313F735009A97A58713F3F703CE
:1032E0000A0333676700A30FE400034704029983CE
:1032F000858B799BD98F2300F40203978400B30751
:103300001601BA97B3C70703BA9703470402A58704
:103310008607058BD98F2300F4020397A400B38797
:10332000A600BA97B3C70703BA9703471402A58745
:1033300093F7F707137707F8D98FA300F4026FC04C
:103340003FE483ABC18625B5EFC29FE2EF10F05A90
:103350002A86B7350020373500209385856213050E
:10336000E562EFF07FB383C7019613075002B735CC
:103370000020B387E7029385C55D3715002013054C
:10338000057CBE95EFF03FD16FC0DFE083C7419A67
:1033900089EBEFC2FFDDEFE0AF8623A2A18C6FC007
:1033A0007FDF014523A2A18C828031C9EFC25FDC9F
:1033B0002A84EFF0BFFD03C7418C2300E40003C75C
:1033C000518C83C7618CA300E4002301F40083A720
:1033D000019AA301F40013D78700C183A302F4006C
:1033E00083A7C1992302E4002303F40013D78700C5
:1033F000C183A303E4002304F4006FC0BFD982801B
:10340000EFC27FD5B73400209387C49203C7270249
:103410008946328A9384C492931716006305D710A5
:103420008D46630BD71285466318D7029356F54134
:1034300033C7A600158FB386F40003C6E601635DAB
:10344000C70013D6F54183C6F6013347B600118F86
:103450006354D70081450145A69783897700038986
:10346000870083C72401B389A90203C71401A207F7
:10347000D98F3309B90293D9594013595940BDCF57
:10348000B307290313172A002388019833843903CB
:103490003E949387018BBA979C436365F4008547FC
:1034A0002388F198EF10704511E10545E147B30716
:1034B000FA02373600209306866893058668BE9622
:1034C0009C4289CF3307F54083C7240103C614010A
:1034D000A207D18F6369F70C23A0060083C7019967
:1034E00091CFE147330AFA023386450100CA7D8451
:1034F000232236012324260140CA08C2856413858D
:1035000004802A991386F4FF81454E95EFD01FC39E
:103510002A841386F4FF81454A85EFD03FC23205E5
:1035200022956FC09FC69356F54133C7A600158FED
:10353000B386F40083C6E6016353D700014593D6F2
:10354000F54133C7B600158FB386F40083C6F60184
:10355000E354D7F0814509B73387F4001356F5419A
:103560000347E701B346A600918E63CCE602FD5601
:103570006343A00085463307D7023A953387F400AA
:1035800013D6F5410347F701B346B600918EE3C366
:10359000E6FCFD566343B00085463307D702BA9573
:1035A00065BD0145E1BFD8429C463387E902B307B8
:1035B000F9023E97E35407F2904AD44A9357F441F4
:1035C000B307F602B386860233088602B69733360F
:1035D0008602B2970D46B307F602B30606033336EA
:1035E00006038D82B2971396D701D18E3306E70278
:1035F0008D873317E702E363F7EE6394E700E36F29
:10360000D6EC2388019801498149C9BDEFC25FB654
:103610009387C18B03D7470003D5070083D52700C5
:10362000B734002083D76700373400201304849A0E
:103630009384846B98C403474400DCC483473400FC
:103640002207834614005D8F8347240088C0CCC0C6
:10365000A207D58F998D01461D8DEFF07FDA0347C4
:10366000840023A0A19A8347740022078346540054
:103670005D8F83476400CC448844A207D58F0546FC
:10368000998D1D8DEFF0DFD723AEA1986FC09FB04D
:1036900083C7419A63850720EFC2FFAB372502003D
:1036A000A387019823870198EFD0FFDC370502003C
:1036B00013050504EFD03FDC6317051C83C7D198C1
:1036C0008DC7373700201307C7928347070093C67B
:1036D000070893F6060893F7F707D58F2300F7003E
:1036E0008547A387F1982387F198A386A19837850A
:1036F0000400EFD05FD82A896319051883C7C198E1
:1037000085CF373700201307C7928347070093C63A
:10371000F7FF93F6060293F7F7FDD58F2300F70026
:10372000958393C7170013F51700EFD0DFEE854799
:10373000A387F1982387F198370502001305050840
:1037400023862199EFD03FD36313051483C7B19823
:103750009DC3373700201307C7928347070093C6DE
:10376000F7FF898AF59BD58F2300F7008547A3874C
:10377000F1982387F198A385A19837850200EFD0AF
:103780009FCF2A896317051083C7A19885CF373546
:10379000002083578567797713070708F98F93E728
:1037A0000760231CF56683C7519B130785671305C4
:1037B000856793B71700A301F700EF10306E8547B8
:1037C0002387F19841651305051023852199EFD0D2
:1037D0009FCA2A8969E183C79198A1C3B7350020A0
:1037E0009387C5921385A7FF9385C5929306F00F23
:1037F00003C7870113061700238CC7006315D70082
:10380000FD17E397A7FE374500201946CD051305A0
:10381000A5B9EFC0FF98EFD06FA9B747002083C7C5
:1038200097B9A3842199B5EB41650505EFD0BFC4D5
:103830002A8925E583C7819885CB373500208327E2
:10384000856737E7FF0013070708F98F370700017F
:1038500013075730D98F232CF56613058567EF10B2
:10386000F06385472387F19883C7E19823842199E2
:1038700081C70545EF10C05E83C7F19899C3EFD0AB
:10388000EFA26FC09F9005458DB5054975B50545FB
:10389000DDB5054905BF054949B70549F1B782803E
:1038A000EFC21F8D370502001105EFD0DFBC1DED03
:1038B00083A781999DC7EF10D00583A781991D8D9E
:1038C0009307400663FDA70083C7419A91E72D65E2
:1038D00013050559EF60502485472382F19A6FC084
:1038E0007F8BEF10100323ACA198D5BF2382019AE0
:1038F00023AC0198EDB7EFC2BF8783A7019B850773
:1039000023A8F19A81E7054723A6E180EF10700014
:1039100083A741996300F502EF10A07F83A7C180C0
:1039200083A64199958FAA9723A6F180EF10607E18
:1039300023AAA198EFF0DFF6EFE04FDCEFF0EF966F
:10394000EFF01FD56FC01F85EFC29F822A84AA8522
:1039500013050020EF30E02EA2850545EF30802CC6
:10396000A2850545EF30C02FA2850945EF30402FD5
:10397000A2850565EF30E02CA2851165EF30602C43
:10398000B7040240A28513854404EF209026A28547
:1039900013858405EF20F025A28513858400EF2090
:1039A0005025A28537050040EF30005D3705004007
:1039B000A28513050540EF30205CB7440140A28585
:1039C00013850480EF30607622869305000413850A
:1039D0000480EF3000776FC0EFFBEFC26FF937174D
:1039E00002401C43B70608000111D58F1CC30545D2
:1039F000EF300017716513050520EF3080773745EC
:103A00000020130650028145130545B9EFC0AFFAF7
:103A10002D651305055AEF60301085457145EF306F
:103A20004022854513050020EF30A021854505453E
:103A3000EF30401F85450545EF308022854509451B
:103A4000EF30002285450565EF30A01F85451165E3
:103A5000EF30201FEF10406CEF1000692945EF1088
:103A6000C072EFD06FC46800EF30C010EFD03F8D50
:103A7000EF103003EF100078EFD0EFFDEF10505E45
:103A8000EF10C000EF100042EFE0BFE2EFF0CF8197
:103A9000EFE09FECEFC0EFFFEF300005AA85054592
:103AA000EFC01F8805616FC0EFEEEFC2CFEA05459A
:103AB000EF209078EF10C052EFF03FF283A54181E4
:103AC0002D651305455BEF60A0703145EFD0BF9ABF
:103AD000238AA19AEF00903D0D651305A53AEF20CA
:103AE000201EEF20E02803C5419BB7440020374447
:103AF000002013351500EFD05F9DEF0030791304DF
:103B00000433938444B9054BEF109024EFF01FB0B9
:103B1000EFF0DF8783A7418C13D787002300F400E1
:103B2000C1832301F40083A7019AA300E400A30149
:103B3000F40013D78700C183A302F40083A7C199BF
:103B40002302E4002303F40013D78700C183230476
:103B5000F400A303E400EFF01FDA83C7A18991CF3B
:103B600023826401EF206032EF206021EF20400FBC
:103B7000EF109004EF20C03641BFA38204002382DF
:103B80000400EDB782808345D5000345B5001306D8
:103B9000F00F6FE01FD3828082808280B7370020D1
:103BA0009387876C23A807022396070223A40702A2
:103BB0008280EFC2EFDB37340020AA84EFF01FFED3
:103BC0001309846C89679387071A1306200293856B
:103BD000B400130529002314F46CEFC06FDC9307C5
:103BE00040021305846C2316F902EF00702C6FC09D
:103BF0006FDAEFC2EFD72A84EFF05FFA0347A40031
:103C0000373500209307856C930600F8A380E70002
:103C10001305856C0D472380D7002381E700239689
:103C2000E702EF00F0286FC0EFD6EFC2CFD2AA8430
:103C3000EFF0DFF603C7A40083C9B400373A0020D1
:103C400093078A6C930610F82380D700A380E700BF
:103C500023813701854713098A6C638EF9008947F0
:103C6000638AF9048D4713058A6C2316F902EF0065
:103C700030246FC08FD137440020130444B9194653
:103C80009385C4001305C400EFC08FD11946930576
:103C9000640013053900A3093401EFC06FD0AD658E
:103CA00061469385C55113059900EFC06FCF930707
:103CB000100255BFB74500204146938585BA1305CC
:103CC0003900EFC0EFCDCD4779BFEFC26FCA2A846C
:103CD000EFF0DFECB737002083C78794ADCF0547FF
:103CE000638FE7060D4793079004B715002093866E
:103CF000C57E2380E6000347A40037340020A3805C
:103D0000F6009307846C930620F82380D700A380E5
:103D1000E700B7470020938747B91387C57E93868E
:103D2000A7FF9304846C03C6B700FD170507A30122
:103D3000C700E39AD7FE31469385C57E13852400DC
:103D4000EFC00FC6B9471305846C2396F402EF0049
:103D500030166FC02FC40D479307800479B7114701
:103D60009307300359B7EFC2AFC02A84EFF01FE3C7
:103D70000347B4008D46930707FD93F7F70F63E6FB
:103D8000F600B72700202388E78A0347A4003735C9
:103D900000209307856C930600F8A380E7001305C5
:103DA000856C09472380D7002396E702EF00501067
:103DB0006FC04FBEEFC2CFBB2A84EFF03FDE834718
:103DC000A400B73400201384846CB71500201307B7
:103DD00030F839469385C57D130524002300E4009F
:103DE000A300F400EFC0CFBBC1471385846C23163A
:103DF000F402EF00F00B6FC0EFB9EFC26FB72A8487
:103E0000EFF0DFD90347A400373500209307856C16
:103E1000A380E7000547930600F82381E700130518
:103E2000856C0D472380D7002396E702EF005008EA
:103E30006FC04FB6EFC2CFB32A84EFF03FD603472F
:103E4000A400373500209307856C930600F8A38003
:103E5000E7001305856C0D472380D70023810700F9
:103E60002396E702EF00D0046FC0CFB26FF09FFC43
:103E70006FF05FFC6FF01FFCEFC2EFAD4111AA8441
:103E8000EFF0DFD19385B4002E852EC6EFD08FA939
:103E900083C7F4007547B2452A8975446364F70007
:103EA00013F4F70F83C7A400B7390020373500207B
:103EB000130700F99384896C15461305A56C2380BC
:103EC000E400A380F400EFC0AFADB7350020228638
:103ED0009385F56C4A85EFC01FB71D041374F40F6A
:103EE0001385896C23968402EF00807C41016FC0AA
:103EF000CFA9EFC2EFA741112A84EFF03FCA130503
:103F0000B400EFD02FA20346F40093050401AA8465
:103F100032C62EC4EFC07FC23246A2452685EF10BE
:103F2000A07C0347A400373500209307856C9306D7
:103F300000F8A380E7001305856C0D472380D700A8
:103F4000238107002396E702EF00807641016FC0CE
:103F50006FA4EFC2EFA12A84EFF05FC40347A4006F
:103F6000373500209307856C930600F8A380E7009F
:103F70001305856C09472380D7002396E702EF00DD
:103F800020736FC02FA16FF0DFFC6FF09FFCEFC2BA
:103F90002F9E2A84EFF09FC00347A40037350020EE
:103FA0009307856C930600F8A380E7001305856CE2
:103FB000130740022380D7002396E702EF00406FEB
:103FC0006FC04F9DEFC2CF9A2A84EFF03FBD0347E9
:103FD000A400373500209307856CA380E700130504
:103FE000856C0947238007002396E702EF00406CA9
:103FF0006FC04F9AEFC2CF972A84EFF03FBA0347C2
:10400000A400373500209307856C930600F8A38041
:10401000E7001305856C59472380D7002396E702F4
:10402000EF0000696FC00F97EFC28F942A84EFF002
:10403000FFB60347B40037350020A386E19A034753
:10404000A4009307856C930600F8A380E70013058E
:10405000856C09472380D7002396E702EF0040656F
:10406000B74700200547A38CE7B86FC0AF92EFC2F7
:104070002F902A84EFF09FB20347A4003735002029
:104080009307856CA380E70003C7D19A930600FBD2
:104090001305856C2381E7000D472380D700239605
:1040A000E702EF00E0606FC0EF8EEFC26F8C2A84F2
:1040B000EFF0DFAE8347B400373500202384F19A58
:1040C000238EF1960347A4009307856C930600F8AE
:1040D000A380E7001305856C09472380D70023964A
:1040E000E702F9236FC00F8BEFC28F88AA84EFF02D
:1040F000FFAA03C7B4001385819A238EE1968347F4
:104100000500373900201304896C85EB83C7A400B0
:1041100005472300E500A300F400130700F8930708
:1041200000142311F4002300E4008D471305896C6B
:104130002316F402B52B6FC0EF8511469385B400AA
:104140000505EFC0EF8583C7A400130700F823001F
:10415000E400A300F4008947D1BFEFC26F81AA84B5
:10416000EFF0DFA303C7C4009306000203C5B40049
:104170009307000263E3E600BA8703C7A40013F4C1
:10418000F70F37390020B73500209304896C930668
:1041900000FC22869385C56C2380D400A380E400B4
:1041A000A381F4002381A4001104EFE06FD4137401
:1041B000F40F1305896C23968402DD296FB09FFDEF
:1041C000EFB21FFB2A84EFF07F9D0347B400B727AF
:1041D0000020373500202384E78A0347A400930793
:1041E000856C930600F8A380E7001305856C0947EA
:1041F0002380D7002396E70265296FB0BFF9EFB29D
:104200003FF72A84EFF09F990347A4003735002039
:104210009307856CA380E70013078061930600FD78
:104220002391E7001305856C11472380D70023965F
:10423000E702BD296FB01FF6EFB29FF32A84EFF0BB
:10424000FF950347A400373500209307856CA380B2
:10425000E7005147930610FD2381E7001305856CA5
:104260000D472380D7002396E70299216FB09FF274
:10427000B737002011679387C76F130727BF98C30D
:1042800011671307A7C2D8C311671307A7CC98C734
:104290001167130767D6D8C71167130747DB98CB99
:1042A00011671307A7DFD8CB1167130747B898CF5B
:1042B00011671307A7B9D8CF1167130747E398D33E
:1042C0001167130787E7B8C31167130727EFF8C310
:1042D00011671307C7E69166B8C7938666B9138757
:1042E000070814C39166938626BB54C391669386D0
:1042F00026F514C79166938606E714CB91669386DC
:1043000046E754CB9166938666F814D391669386FC
:10431000E6F854D39166938646FC14D7916693864B
:1043200046FF54D791669386860234C3916693867E
:10433000E60674C39166938686B934D31167938772
:1043400007101307A70A98C311671307870ED8C36E
:104350001167130767B898C711671307A715D8C760
:1043600011671307071C98D311671307E71FB8C31A
:1043700011671307A7F8F8C3116713078723B8C796
:10438000828083C7419B99C7084193056500090551
:104390006FD0BF828280EFB2BFDD2A8483454400A4
:1043A000084137370020D11593F5F50F2302B400EB
:1043B0008347A5001307C76F8A07BA979C4399C321
:1043C000829719A01C43EDFF2285EFF09FFB6FB091
:1043D0007FDC03474500854763F3E7081C41C1C301
:1043E00083C717001547FD1793F7F70F6369F706A3
:1043F000EFB21FD82D678A071307475CBA979C4313
:10440000374400208287B7070003130544B593871C
:104410001718B74500201CC119469385A5B9110589
:10442000EFB01FD885462946930544B513854173DF
:10443000EF00006D6FB01FD693071028231AF4B455
:1044400085460946D5B793071038CDBF9307104866
:10445000F5B793071058DDB793071068C5B782808A
:10446000EFB27FCF37440020AA896146814513050A
:10447000C4AFEFB05FD4014AB73A002063143A01E9
:1044800081440DA01545EF0050501949EFE0AFC62B
:10449000AA841545EF00704FA9C87D191379F90F4B
:1044A000E31609FE1304C4AF0840EF50B02783A5FC
:1044B0008197EF502037EF50F02008C04840EF5070
:1044C000702683A54197EF50E035EF50B01F48C0EC
:1044D0000844EF50302583A50197EF50A034EF50EA
:1044E000701E08C426856FB05FCA9307C4AF1387D8
:1044F0004A63138687019443831507000907AE9624
:1045000094C39107E319F6FE050A8DBFEFB2BFC44D
:10451000EFF01FF52A8A63170516B744002093842D
:10452000C4AFC844EF50102083A5818737340020E2
:104530001304049FEF40906D83A5C187EF40903630
:104540008347140803470408AA8AA207D98F3305B2
:10455000F040EF50301DAA855685EF40B034EF5043
:104560007016931705012300A4028848C183A18314
:10457000A300F402EF50101B83A58187EF40106960
:1045800083A5C187EF4010328347340803472408CE
:10459000AA8AA207D98F3305F040EF50B018AA8538
:1045A0005685EF403030EF50F0119317050123018D
:1045B000A402C848C183A183A301F402EF5090165E
:1045C00083A58187EF40906483A5C187EF40902D3C
:1045D0008347540803474408AA8AA207D98F3305A2
:1045E000F040EF503014AA855685EF40B02BEF50C5
:1045F000700D931705012302A4028840C183A18393
:10460000A302F402EF50101283A58187EF401060DF
:1046100083A5C187EF401029EF50D00A93170501F9
:104620002306A402C840C183A183A306F402EF506D
:10463000700F83A58187EF40705D83A5C187EF4030
:104640007026EF503008931705012307A402884411
:10465000C183A183A307F402EF50D00C83A5818707
:10466000EF40D05A83A5C187EF40D023EF5090058B
:1046700093170501C183A1832308A402A308F402B0
:10468000EFC08FCA52856FB05FB0EFB27FAE014509
:10469000EF00007D2945EF00502FB707EFBE37E749
:1046A00000E0938707083CC76FB0DFAE6FF05FBCD8
:1046B0000346C502AA8581461385417391A12E86C2
:1046C000AA858D461385417325A9B7470020138716
:1046D00047B18905F956A300A70093F5F50F138597
:1046E00047B12300D7006FF09FFDEFB27FA8B7441A
:1046F000002037440020B7350020130444B11306CE
:10470000D0039385C592138574B123010400EFB0E3
:104710003FA99305E0030545EFF03FFBB7350020C7
:1047200085471306D00393859596138574B12301AD
:10473000F400EFB0FFA69305E0030545EFF0FFF8A6
:10474000374500201306B0038145130595B1EFB03E
:104750009FA689472301F400B73700209387679A03
:1047600003C7070083C71700138974B18D4505453A
:104770002300E900A300F900EFF03FF59307F03FB5
:10478000894505452311F400EFF03FF46FB09FA079
:10479000EFB21F9E0C411307F00F83C7150003C42F
:1047A000E19A6396E70483C725002A890147639C41
:1047B000870003C7350085476314F700EFC00FAFCC
:1047C000EFC06FE10547B7470020938747B12381CA
:1047D000E700032709008945094503473700238778
:1047E000019AA381E700EFF05FEE6FB0BF9A130765
:1047F000D003B387E702373500201306C00713053F
:10480000C5921D8E3E956374C7001306D0038905BB
:104810000504EFB0FF982387819AC1BFEFB25F957F
:104820002A8408410505EFC0FF8F0C40AA84374554
:10483000002015468505130565B1EFB07F961C4035
:10484000B7450020268503C657009385B5B1EFC054
:104850008F9F1C400D4583C55700950593F5F50FB7
:10486000EFF0BFE66FB01F93EFB29F902A8408412C
:104870000505EFC03F8B0C4003C655009905EFC0FE
:10488000CFABB7470020238BA7B085451145EFF08C
:10489000DFE36FB03F90EFB2BF8D5145EFF01FC720
:1048A00003C72195B7470020938747B12381A7000D
:1048B00089451545A381E700EFF03FE16FB09F8D7B
:1048C000EFB21F8B1387C18B83560700B7370020C9
:1048D0009387879AA380D700A1822381D70083562C
:1048E000270001468145A381D700A1822382D700FA
:1048F00083564700035767002165A382D700A3832F
:10490000E700A18221832383D7002384E70023804B
:104910000700EFC08FA2B7470020238BA7B08545C3
:104920001D45EFF09FDA6FB0FF86EFB27F84B74589
:104930000020938575B13D45EFD05FD3B747002088
:10494000138747B12301A70003A7C180938747B10D
:1049500001E7054723A6E18083A6C18003A7019B49
:10496000374500203357D70211469385C19613056A
:1049700095B12382E700EFB0BF8237450020114692
:10498000938581961305D5B1EFB09F81AD45130591
:10499000D00FEFF09FD36FB0EFFFB74700201307A2
:1049A000003089451305F00F239BE7B06FF0FFD16E
:1049B00014410546938716001CC183474500637365
:1049C000F608EFB2EFFAFD172302F50083C71600D1
:1049D0009D4663E0F60295CBFD1793F7F70F9946D6
:1049E00063E5F602AD668A079386C65DB6979C437B
:1049F00082871307E00F638EE7021307F00F6387C8
:104A0000E7021307D00F6389E7026FB0AFF8EFF04A
:104A1000DFCDE5BFEFF0DFD7CDBFEFF03FE0F5B77B
:104A2000EFF09FE4DDB7EFF01FE7C5B7EFF0FFF65B
:104A3000E9BFEFF09FC5D1BFEFF03FEFF9B7EFF05F
:104A40003FE8E1B78280EFB2AFF21C4113070008E4
:104A500083C707006389E702636AF7000547638E2F
:104A6000E7004147638EE7006FB0CFF21307E00F16
:104A7000E39CE7FEEFF0DFF3C5BFEFF0DF91EDB7AA
:104A8000EFF03F90D5B7EFF0DF94F9BFEFB24FEE04
:104A900041113715014091474C00130505C03EC632
:104AA0002312F10023130100231401002315010038
:104AB000EF10504541016FB0EFED9307000463EE36
:104AC000C702EFB24FE92A84054515C42E8985C572
:104AD000B28481451306C00813054400B689EFB0BF
:104AE0008FED854723202401230394082302F40833
:104AF000A306340901456FB04FE91305F00F82801A
:104B0000EFB26FE59304F00F59C1D1C11C412A8463
:104B1000BDCF8344C508BDEC0347650883278508DE
:104B200063DAE7068347D508B68913F9F70F63748C
:104B3000F6001379F60F9307840805472FA7E700BF
:104B4000832784088347540803476408850793F73D
:104B5000F70F63E3E70081470345D408A302F40895
:104B60004A86B307F50208403E95EFB06FE38347EE
:104B70005408A297238227012382370583476408BC
:104B8000032784086345F70085472306F408268534
:104B90006FB0AFDF8544E5BFAA8721C9184113056F
:104BA000F00F31C703A78708014531C31387870872
:104BB000FD56AF26D70003A7870803C7470883C65B
:104BC000670805071377F70F6363D7000147238250
:104BD000E70803C7C70809CB03A78708B326D70090
:104BE00093C616002386D70882801305F00F8280B3
:104BF000EFB20FD8056501118545110502C002C24B
:104C000002C402C602C802CA02CC231E0100EF2061
:104C10004003930700082310F10037150140E147D6
:104C20003EC48A858D47130505803EC2EF10902D46
:104C3000B7C704013EC6B70700023ECA9307000289
:104C40003ECC6C009D4737350140231EF10002C861
:104C5000EF20A0060546894537350140EF20600D5D
:104C600005616FB02FD3EFB20FCF79712A84AE896F
:104C7000328981451306C0024800B684EFB0AFD335
:104C800085450545EF10107A2285EF100065C14774
:104C90003EC6930700083ECC930700103ECE4C0062
:104CA000856722854EC24AC426C83ED402CA02D0B5
:104CB00002D202D6EF10607045616FB00FCDB7061B
:104CC000000141110147814793850181FD1661482B
:104CD000137615002E960346060005813316E6006E
:104CE000D18F0D07F58FE31507FF1395070141815C
:104CF000239CA19AC1831375F50F9386819B238111
:104D0000A600238CF19A83D7819B42055D8D4101DA
:104D10008280EFB24FC48D4AB3045503374400205C
:104D200032851304C4BB2E8AB689EFF05FF993571E
:104D30008500138954003309590322992300A900DF
:104D40004181A300F9002301A900138964003309FC
:104D500059039D045285EFF09FF693578500B38465
:104D6000540322992300A90041812301A9004E8503
:104D7000A300F900EFF0BFF49357850026942300B9
:104D8000A4004181A300F4002301A4006FB0EFBF91
:104D9000EFB26FBC2A893745002037340020130654
:104DA000301281451305C5BB9304C492EFB0AFC068
:104DB00081491304C4928347340263CCF906630823
:104DC0000906B747002083C667B9930780FC1145E1
:104DD000B386F60293F6F60F3686B685EFF07FF3CC
:104DE000034404009306800C93178401E18763D386
:104DF000070081463686B6851545EFF09FF113749E
:104E00000402814619E09306800C3686B685194562
:104E1000EFF03FF083C6519B930780FC1D45B3869E
:104E2000F60293F6F60F3686B685EFF09FEE6FB07A
:104E3000CFB58347040013F5F90F898B99E3631A03
:104E40000900814601468145EFF0BFEC85098D04DC
:104E50009DB783C6440203C6540283C56402EDB7FE
:104E6000EFB20FB1EFF0DFF237050240B747002095
:104E7000130505039387C7BB5CC5B737002083C7FD
:104E8000F7940D478545B387E702A907B387E70283
:104E90005CC1EF100056854537350140EF10906733
:104EA0006FB04FAFEFB2CFACEFF09FD4B737002069
:104EB00083C7F7940D478D46B387E7023746002036
:104EC000B7350140370502401306C6BBB1051305CF
:104ED0000503A907B386D702EFF0FFD80545EFF029
:104EE0003FF801456FB00FAB13050020EF10C05520
:104EF0000DC113050010EF106055370502408145C4
:104F000013050503EF10E04E814537350140EF10E2
:104F1000706073002030B747024093870780984342
:104F2000B706C1FFFD161367070198C3B7270240F4
:104F300098431367070198C39843719B98C398439C
:104F40001367270098C3B7170240D843D8C3D84384
:104F5000D8C3D84313670740D8C3D843758FD8C385
:104F6000D843B7061C00558FD8C39843B706000135
:104F7000558F98C3B70600029843758F75DFD843E5
:104F8000B7160240719BD8C3D84313672700D8C314
:104F90002147DC42B18BE39EE7FE8280B7170240D7
:104FA0009843B706FFF81367170098C3D843758F67
:104FB000D8C39843B706F7FEFD16758F98C398437C
:104FC000B706FCFFFD16758F98C3D843B70681FF5F
:104FD000FD16758FD8C337079F0098C76FF0BFF3D2
:104FE000371702405C43A146B18B6391D7065C43FF
:104FF00054434166C983BD8BF18E890781EE3747E3
:10500000024003270780418B19CB37177A0013071B
:10501000072011A85843B7060200758F7DD73717B0
:105020003D0013070790B387E70237170240544348
:10503000371700201307877F9182BD8A3697034771
:105040000700B3D7E70023AAF1808280B7177A0060
:1050500093870720D9BF6FF01FEC854537050040C7
:10506000EF10F07E8547631CF50083A7419C8545C2
:1050700037050040850723A2F19CEF10D07F730015
:105080002030EFB2EF8E0111930770043ECA4C0836
:105090009307703E370500403ECCEF10F04A0546BE
:1050A000854537050040EF105070854537050040B5
:1050B000EF10906C9307C0122316F100680085472B
:1050C0002307F1003EC8EF103018956737E700E07E
:1050D0009387A7057CC3B207B706002CB183D58F91
:1050E0007CD305616FB00F8B03A7C19B11E7054708
:1050F00023AEE19A6FF0FFF8828083A7419C1307EB
:10510000803EB387E70237070040035547023E95CC
:10511000828003A5419C828083A7418137177A0052
:1051200013070720B3D7E7022380F19C828019E59B
:1051300001458280014541016FB0CF85EFB24F83B9
:1051400041112A84AE843289EFF03FFB2AC62685BE
:1051500002946DF1EFF07FFAB2471D8DE379A9FE5D
:105160002685029413351500F9B7EFB26F8041110F
:105170002A84EFF09FF82AC6EFF03FF8B2471D8D62
:10518000E37CA4FE41016FB0EF8083A7419C4111F5
:105190003EC683A7419CB246958FE37CF5FE410154
:1051A0008280034625009306350001471376F607F3
:1051B0009D4503C80600B357E6409E07B3E70701C5
:1051C0002380F60005078506E315B7FE8347150023
:1051D0000347A50095838D8B93967700558F230504
:1051E000E5000347B5009A0793F707F8D98FA305A1
:1051F000F5008280EFA2DFF779711306C0028145C6
:105200004800EFA05FFB37040240814513054404CA
:10521000EF10201E13054404EF10200CB74401408A
:10522000938744803EC2C1473EC6930700083ECCE8
:105230004C008567130544043ED402C402C802CA68
:1052400002CE02D002D202D6EF10201781451305FC
:105250008405EF10001A13058405EF100008B74706
:105260000020938707163EC4930700183EC8930793
:1052700000023ED24C008967130584053ED402C665
:10528000EF10A013130584058545EF108016054621
:105290009305000413850480EF10B06A45616FA088
:1052A0007FEFEFA2FFEC01118545114502C202C458
:1052B00002C602C802CA02CC02CEEF109018854581
:1052C0001165EF101018930700202312F100371416
:1052D00001408D473EC44C00E147130504803EC6A3
:1052E000EF104042930700402312F1004C00930757
:1052F0008004130504803EC6EF10C040B7C72D00E0
:10530000374401409387076C3EC80C08B7070C0070
:10531000130504803ECC02CA231E0100EF109056F4
:105320001305048093050004EF10D0631305048077
:105330008545EF10905FB745002037450020B54602
:1053400013060002938505FC130505D9EFF0EFF66F
:10535000B745002037450020B54613060002938567
:1053600005E2130505D0EFF04FF505616FA09FE250
:10537000EFA27FDEB74901402A89AE8413850980F8
:105380009305000437040240EF10D05D1305440478
:105390008145EF100006232824051305440444C169
:1053A0008545EF1000050546930500081385098023
:1053B000EF1030596FA07FDDEFA29FDB83C7219DE7
:1053C0009DCBB74401409305000413850480EF1082
:1053D000B05805C19305000413850480EF10905860
:1053E00001469305000813850480EF10905523892A
:1053F000019C6FA03FDAB7470020138707D08325B1
:105400008708938707D0F5D583C64708354503C677
:1054100057083385A60237470020130707E23A955D
:1054200003C76708637ED602B306D740939506018B
:10543000C18123A4C7082382070883A6870833A74E
:10544000E600134717002386E708B547B385F50242
:10545000C205C181EFF0DFF185472389F19C51BF7F
:10546000C205C1812382C70823A40708F9B755C51F
:10547000014781471D46B306F50083C6360093C534
:105480007700850793F60608B3D6B640558F137795
:10549000F707E392C7FE834725009306C50093F7FD
:1054A00007F8D98F2301F5008347B5000347A5000E
:1054B00099871D83898BD98F03471500960713772A
:1054C000F7F9D98FA300F5009307350003C707004C
:1054D00085071377F707A38FE7FEE399F6FE834767
:1054E00005000547B14693F7F7073306E500034685
:1054F00006000507B18F93F7F707E318D7FE0347B8
:1055000015002306F5001377F707A300E50003470E
:1055100025001377F7072301E50082801DC5834727
:1055200005000547B14693F7F7073306E500034644
:1055300006000507B18FE31AD7FE0345C5001375B2
:10554000F5071D8D3335A00082801305F00F828092
:10555000EFA29FBF3705024013058505EF00B06A33
:105560002398A19C03D6E19C83D7019D6300F60498
:1055700003D6E19C83D7019D63FFC70483D7E19CD9
:1055800003D6019D03D7019D918FC2074207418336
:105590002397E19C03D7C19CC183930600183E97D3
:1055A00063D2E6042396D19C239A019CB74900203C
:1055B000B74A00201309100893890916138B0ACFE4
:1055C000854B83D7C19C91C77D191379F90F63135C
:1055D00009026FA0FFBA83D7E19C03D6019D938790
:1055E00007184DB703D7C19CBA97C207C18323964A
:1055F000F19C5DBF83D7A19CCE978387070063D2C0
:10560000070483D7A19C2384719DCE9783C707008D
:105610002300FB0083D7C19CFD17C207C1832396DB
:10562000F19C83D7A19C8507C207C1832395F19C78
:1056300003D7A19C9307F017E3F5E7F82395019CA6
:1056400049B78387819C6358F00483D6A19C138754
:1056500017006207CE9683C60600DA97618723801B
:10566000D7002384E19CB147E3D6E7FA5A85238427
:10567000019CEFF0BFEA59FD13850ACFEFF07FB22E
:10568000374500208146354693850ACF130505D955
:10569000EFF00FC741B72384019CADBF39C1EFA222
:1056A0003FAD37440020AA853546130504CEEFA050
:1056B0003FAF130504CEEFF09FDB930404CE83C706
:1056C000040037450020814693E707F835469305E7
:1056D00004CE130505D02380F400EFF06FC26FA055
:1056E0007FAB1305E00F8280EFA2FFA693578501E1
:1056F00085669386069093F7F707D58F89663747B7
:1057000000209386F6F7F58F8356072EB2897976B7
:1057100013060608F18ED58F2A892E8A2310F72EBC
:1057200081441304072EB74A0020B3059A0063C4CE
:1057300034016FA09FA5B3079900214613854A2E17
:10574000A301F400EFA0DFA52285EFF03FF5A1044F
:10575000E9BFEFA25FA0374400208357042E79777A
:1057600013070708F98F05671307F790D98FB73428
:1057700000202310F42E9384C49201491304042EB4
:10578000374A002093090008A685214613054A2EB2
:10579000A3012401EFA0DFA02285EFF03FF02285D6
:1057A0002109EFF0BFEF93840404E31F39FD6FA0DC
:1057B000DF9DEFA2FF9B374400201305042EB74561
:1057C00000209307101023200500254693850533FC
:1057D0002322050023240500230605000D052310C0
:1057E000F42EEFA0FF9B1305042EEFF03FEB6FA00C
:1057F0007F9A83A7418CA5C7EFA29F9737440020CB
:10580000930744B983C75700130444B9B9E7EFF0CD
:105810005F909307007D63F2A7048347040099C754
:105820008347340003471400D98F81C7834724007E
:105830008DE7374500208327052E37E7FF00130744
:105840000708F98F3707000113070730D98F232086
:10585000F52E1305052EEFF07FE46FA0BF93828035
:10586000EFA21F91374400208357042E7977130746
:105870000708F98F3745002093E717602546FD5547
:105880001305352E2310F42EEFA0FF921305042EDE
:10589000EFF0DFE06FA01F90B74500209387052E43
:1058A0009C433D4793F7F7076360F70CEFA25F8CCB
:1058B0002D678A071307875FBA979C439385052E48
:1058C000828737440020130444B919468D05130517
:1058D0006400EFA0FF8C85472309F4006FA09F8B25
:1058E000AE879386950003C7370085071347A7FA4D
:1058F0002381E700E399D7FE3745002025468D0533
:10590000130585BAEFA0DF89D1BF1387750083C760
:105910003500850593C7A7FA2381F500E399E5FED5
:10592000B7450020374500201D469385352E1305C9
:1059300015BBEFA0FF86B74700200547238CE7BAC9
:1059400071BF03C73500B7470020238BE7B879B78D
:10595000B7470020A38307BA51B703C73500B7473D
:105960000020A38BE7B89DBF8280B747002083A7A4
:10597000072E93F7F70799EBB7450020374500202E
:105980009385752E1305352E6FC02FA38280374760
:1059900000201307072E1C43854693F7F707638102
:1059A000D702EFA2EFFC89466381D70281EB034760
:1059B00037000545A38AE19AEFF08FCA6FA08FFDEB
:1059C00037470020A30AF7B882800145EFF04FC99E
:1059D0002945EFF08FFBB707EFBE37E700E093876D
:1059E00007083CC7E1BFEFA2AFF837440020930798
:1059F000042E03C71700A1461376E7016312D606EB
:105A000094439375F701019B93F6F6076395C506DA
:105A100013679700A380E7006386B6043D47638E53
:105A2000E60019476396E602B745002003C5370034
:105A300021469385452E996709A8B745002003C5DF
:105A4000370021469385452EBD675D8DEFA0BFFFD2
:105A50001305042EEFF09FC41305042EEFF01FC4AE
:105A60006FA04FF3B745002003C53700214693854B
:105A7000452EA167D9BF13678700A380E700638B1A
:105A8000C6043D476385E6021947E393E6FC83C4F9
:105A900037009305100B2145858DEFB0EFE7B74533
:105AA00000201376F50F9385452E196505A083C454
:105AB00037009305C0072145858DEFB0EFE5B74569
:105AC00000201376F50F9385452E3D65458DEFB08B
:105AD000CF86BDBF83C43700930580042145858DE3
