:100000006F60804313000000130000001300000025
:100010001300000013000000130000001300000094
:100020001300000013000000130000001300000084
:08003000130000007300100032
:100038006FF09FFC000000006F0060186F00A01AAE
:1000480000000000000000000000000000000000A8
:100058000000000000000000000000000000000098
:100068006F60E03C000000006F60603C0000000032
:100078006F60E03B6F60A03B6F60603B6F60203B50
:100088006F60E03A6F60A03A6F60603A6F60203A44
:100098006F60E0396F60A0396F6060396F60203938
:1000A8006F60E0386F50C02D6F6060386F60203827
:1000B8006F60E0376F60A0376F6060370000000046
:1000C8000000000000000000000000006F60203603
:1000D8006F60E0356F60A0356F6060356F60203508
:1000E8006F5020456F1090786F6060346F602034D7
:1000F8006F60E0336F60A0336F2080466F602033FD
:100108006F60E0326F60A0326F6060326F602032E3
:100118006F60E0316F60A0316F6060316F00001D6B
:1001280000000000000000000000000000000000C7
:080138000000000000000000BF
:10014000397101436EC619A0397141536AC866CA34
:1001500062CC5ECE19A0397101535AD056D252D416
:100160004ED64AD826DA22DC06DE3301614082828E
:1001700041114AC026C222C406C68282B24D410144
:10018000024D924C224CB24B4101024B924A224A00
:10019000B2494101024992442244B2404101828065
:1001A0002A8309CA83830500230073007D16050393
:1001B00085056DFA82802A8311C62300B3007D165F
:1001C000050365FE82800145EF508012371702401B
:1001D0001C47B7068000D58F1CC7EF50C03537E7E6
:1001E00000E03C4793E787003CC77300203073274B
:1001F000203423A2E188F326103483A7418823A06A
:10020000D188373700201307C79313D68700A30080
:10021000C70413D607012301C70413D68701A3011E
:10022000C70413D68600A302C70413D6060123030E
:10023000C70413D686012300F7042302D704A303BF
:10024000C70463CD07000D476382E7026375F700BB
:10025000F1176365F70091067390163437E700E0F5
:100260003C4793E707023CC77300203001A0EFF240
:100270003FF011458545EF60507BB74702409387BB
:100280000780984301451367470098C303A701817E
:10029000B7A74A04938707206309F700B777DC0202
:1002A000938707C06315F7000545EF6090668545A5
:1002B0000565EF60B075F9BD37370240930700FC64
:1002C0002306F74093870173C207C1832318F740C1
:1002D0009387016B23A6F1A0C207C183231AF740BD
:1002E00089472309F742230BF74293878188A3802C
:1002F00007008280011122CE26CC4ACA4EC852C6BF
:1003000056C43734024003476440834774409376B1
:10031000F70F098B6304075E93F7F70F13F70703D3
:10032000930500026302B70493060003630FD71618
:1003300021E713F7F703630007128546631ED70210
:1003400093F7070495CB834764431385816893C76C
:100350000708230BF4420356844083A5C1A01376FB
:10036000F60FEF40D02C09A893F7F7036384E70258
:1003700013071002638EE70AB73702400947238349
:10038000E7407244E2445249C249324AA24A0561F6
:100390007300203083D7618999E78347244393F71B
:1003A000370F2309F44283C7C18993F70706E9F79A
:1003B00083C7D189954613F7F70F638FD704994701
:1003C000E31CF7FA03D761899307F00313040004D1
:1003D00063E6E70003D461894204418003A9018AEE
:1003E0002286CA8513850173653B83D7618922996B
:1003F00023A0218B818FC207C183239BF1881374B3
:10040000F40FB73702402388874203C727431347B7
:1004100007042389E7428DB7B736024003C7364049
:1004200083C7418913770708D98FA381F640A9B7FD
:100430008347644393F7C70F93E72700230BF442E6
:100440008347644393C70704230BF442938781884F
:10045000A380070015B793F70704E38F07F083C75E
:10046000C18993F70706E38907F083C7C18993F72A
:100470000706E393B7F003C7D189A547E31EF7EE5C
:100480003745002013060004938501731305450CBE
:10049000013B05472382E1A08347244393F7C70F1D
:1004A00093E727002309F442C1BD9307A0FC230969
:1004B000F4421387017383470700238EF188834733
:1004C000170083562700A38EF18883576700239B6C
:1004D000F188239DD18883564700239CD18803C986
:1004E000C18993860173137909066309090C83C7CF
:1004F000C18993F70706639EB70283C7D18929464E
:10050000FD1793F7F70F6363F61831668A07130632
:1005100086A8B2979C43828783D781896398071600
:10052000B7450020130600049385450C138501731D
:10053000853983C7C189E207E18763DE073803D7BE
:1005400061899307000463E6E70083D76189C207E6
:10055000C18303D761891D8F42074183239BE188B3
:1005600093F7F70F373702402308F74283472743B3
:1005700093F7C70F2309F74201B583D781896397A2
:10058000071003C73600A388E18865B783D7818940
:10059000639E070E03C726002388E18859BF83D7CF
:1005A00081896395070E83C711892380F60051B7AF
:1005B00083D78189E1EF83C70189C5BF83C5D1890D
:1005C0002D4813F6F50F6363B80CB1650A069385E1
:1005D00045AB2E961042028683D6A1890D46A18294
:1005E0006386C60C636CD6008547638CF602894728
:1005F0006381F60481471309F00F81A89307100265
:10060000638BF60893072002E396F6FE83D7818971
:10061000F5F3B1679387C7BD23A0F18A9307F00D67
:100620002DA0B1679387C7CB23A0F18A83C70700AA
:1006300029A8B72700209387878A23A0F18A03C7B8
:10064000270083C73700A207D98F03D7618963F4D6
:10065000E700239BF18803D761899307F003130A0E
:10066000000463E7E70003DA6189420A135A0A01CA
:1006700083AA018A528613850173D6851536D29ACC
:1006800023A0518B9307F00FE315F9EAB737024027
:100690001307F0FCBDBB83D78189A9FFB7270020D2
:1006A0009387A78B23A0F18AA54745B783D7A18954
:1006B000094793F7F70F6387E702636BF70099EF3A
:1006C0009387818723A0F18A014983C70700B5BFBB
:1006D000E392D7F2B1679387C7B8B9B7B167938789
:1006E00007BD99B7B167938747BA3DBF83D7A18943
:1006F00093F7F70F238AF1882DBD83C75189238093
:10070000F60003D761898547E3F5E7E2239BF1888B
:100710000DB583D7A18993F7F70FA38AF188054711
:100720002389E18839B583C6C189FD8A99EE83D7CB
:10073000A189054793F7F70FE39DE7DE83C731896A
:1007400093F7E70FA389F188EDB383C6C189094602
:10075000FD8AE39DC6F283D7A18993F7F70F9DF732
:1007600083D78189054793F7F70F6381E702130762
:100770002008E39DE7F0373702408347A74393F70C
:10078000C70B93E72700230DF74265B337370240C5
:100790008347674393F73707230BF7428347674342
:1007A00093F7C70B93E72700230BF74259B383C690
:1007B000C189FD8A8DE683D7A189054793F7F70F95
:1007C000E396E7ECB727002083C7F78A93F7070281
:1007D000E38E07EA83C7318993E71700A5B783C67D
:1007E000C1890946FD8AE393C6EA83D7A18993F7B5
:1007F000F70FE39D07E883D781891307100893F764
:10080000F70F638FE70013072008E391E7E8373716
:1008100002408347A74393F7C70B93E73700A5B779
:10082000373702408347674393F7370793E7C7009B
:10083000230BF7428347674393F7C70B93E73700D0
:10084000A5B72380060075BD83C7C18923980172AF
:10085000FD8B99EB83C73189858BBDC38947238085
:10086000F60003D761894DB583C7C1890946FD8B61
:10087000639CC70403D78189130610081377F70F09
:10088000630DC700130620086305C70203D76189FB
:10089000E3FEE7DE239BF188D5BB373702400347F1
:1008A00067433146318BE31EC7FA05472380E600D4
:1008B0004DBF373702400347A7430D460D8BE5B7C1
:1008C00003D76189894789B583D76189E370F6DCED
:1008D000239BC18865BB83D7618991EBB737024001
:1008E0002388074203C727431377C70F1DB637373F
:1008F00002408347274393F7370FADB993F71600AC
:100900009DC3A38A0188238A0188A389018823893A
:100910000188A30104404D328347644093E71700E8
:100920002303F440B9BC93F746009DCB91472303C2
:10093000F4402945EF40905103475440118B11CBAF
:1009400003C7318913672700A389E18883C73189E9
:100950000DBC03C731891377D70FA389E18815B47C
:100960002303D44039BCEFF2BF80B74702409387DE
:1009700007809843C1E51367870098C33734024066
:1009800099472300F4402DCD2945EF40304C9D4739
:10099000230004402301F440930790022300F44015
:1009A000213A930710F8A300F44013071004E1461E
:1009B000138681A2938501071385C169EF404043E7
:1009C000B725002013071004E146138601A4938580
:1009D00005BA13858168EF40A04137E700E093072F
:1009E000402F7CC3B207B183B706003BD58F3CD301
:1009F000B70700082322F7106FF0CFF95D9BB5BF52
:100A00002945EF40B044B7E700E023000440B84375
:100A1000C146B4C33706000893860718D0C2B8C3CE
:100A2000E1BFEFF2EFF437070001AA87130707F0E1
:100A30007D8FA1662E856303D702BD666307D7024B
:100A40009966631BD700B735002093F7F70F93859E
:100A50004598BE95EFF0CFF46FF0CFF3B735002097
:100A600093F7F70F9385C593EDB793F7F70F93853A
:100A70000177C5B71306400893850177014515A98D
:100A8000130640089385017701456DAEB735002008
:100A90001306100B938545981305001019A9B73557
:100AA00000201306100B938545981305001059AECE
:100AB000EFF26FEAB7070001938707F0E98F21672C
:100AC000AA84B2893684638EE7023D67638EE704A9
:100AD000196701456395E702B737002013F9F40F52
:100AE000938747983E994A85EFF08FEB19C0453FB1
:100AF0002A844E86CA852685EF50801522856FF0A0
:100B0000CFE8373A00201379F50F9307CA933E993F
:100B10004A85EFF0EFE871DC130680049305CA9371
:100B2000130500200526E9B71379F50F93870177A0
:100B30003E994A85EFF0CFE64DDC993755BFEFF28D
:100B40002FE3054513840177EF40807A0345C40104
:100B5000EF90B01283A50186EF80B06023A0A1982A
:100B60000345D401EF90701183A50186EF80705F7B
:100B700023AEA1960345E401EF90301083A50186D2
:100B8000EF80305E0357040123ACA1963307E702E0
:100B90009387418A98C3035724013307E702D8C3D8
:100BA000FD21EF00606DEF10002083471400898B5A
:100BB00081CF1307C058D147B72600202395E6946C
:100BC0002397F18C6FF00FDD1307404C9307C00D96
:100BD000E5B7EFF2EFD9373400201306100BFD55BF
:100BE00013054498EFF02FDD55359307449883C7DC
:100BF000070113044498638D070E930700F8230040
:100C0000F400E9778D072319F4008547A30DF4005C
:100C10009307C0FCA30EF4029567938747CC231F6C
:100C2000F402B71780CC938707803CC0B757000801
:100C3000938747CC7CC0B7D7C44C938707C83CC4C4
:100C4000F1779387C74C2316F4049307C004230756
:100C5000F404B73732FF938727133CC8FD57231A94
:100C6000F4048D67BD072313F408B7B790D9930434
:100C70000408938717E69CC4B71754419387474DE0
:100C8000DCC4B757C779938757419CC8B7373663D9
:100C90009387C73949469305640813058409DCC85E
:100CA000EFF00FD0B7078BFF9387B7051CD0B707BE
:100CB0000040938767195CD0B74700401CD4B70742
:100CC000BEFFF5075CD4B7073C34B9171CD8B7375B
:100CD0003B349387B7435CD8C167938707D59CC0E3
:100CE0008567938767FC2312F40823080400453BBB
:100CF000930700F82300F400E9778D072319F40027
:100D00008547A30DF40037340020130680049305B3
:100D1000C49313050020712A9307C49303C70700E7
:100D200015C32147A38007002381E700A3810700A3
:100D30002382E700A38207002383E700A383070041
:100D40002384E70013064008FD5513850177EFF073
:100D50008FC60D3383C7017713840177858BDDCB75
:100D600013064008814513850177EFF0CFC40D6766
:100D70009387A1771307D7D22390E7002391E70049
:100D8000617793876177130707081146930500047D
:100D9000138511792390E7002391E700EFF0AFC1AD
:100DA00093070004A301F4008567938787802312CB
:100DB000F400930700FCA300F400FD472303F402B2
:100DC0009307606D2317F400B7077805938787575B
:100DD0001CC801478D45FD567D46B307B702050780
:100DE000A297A383D7022384D702A384D702E31652
:100DF000C7FEB7877F029387F7F75CCC8D67938731
:100E0000C74B231AF4008347040093E707F8230035
:100E1000F400BD312D3303475400B72700209387DA
:100E2000878AA380E702034744003735002019462C
:100E30002384E7029305640113052564EFF04FB6A0
:100E40006FF04FB5EFF22FB1B7F700083304F5009C
:100E50003307C400B7070108637BF7042E8A228595
:100E6000930500103289EF50B03B1147AA8489479F
:100E7000631CE502B739002013060010FD551385E9
:100E800089A3EFF04FB34A86D285138589A3EFF08B
:100E90002FB113060010938589A32285EF50F049E6
:100EA0008D476313950081473E856FF00FAE8547F0
:100EB000E5BF37F70008AE87B305E5003387C50007
:100EC000B7060108637CD700094599CBEFF24FAA1A
:100ED0003E85EFF0EFAC01456FF0CFAB054582806A
:100EE0008280AA872E8563D3B7003E858280EFF289
:100EF0002FA84111AA8511466800EFF06FAA32456C
:100F000041016FF02FA9AA872E8563C6B7003E85E1
:100F10006353F60032858280EFF28FA579716146C6
:100F200081452808EFF02FA9014502C602C802CA70
:100F3000EF606020371501409307A0036C00130594
:100F40000580372401402316F10002CAEF5090506B
:100F500013050440EF50205685473ECE3ED0B707DC
:100F60000E003ED22C089147130504402306F102DF
:100F700002CC02D4EF50C056854513050440EF5013
:100F8000205C854513050440EF50805A130504404A
:100F9000EF50205C930404402685EF50205C6DFDEB
:100FA0001305044037240140EF50C05B9304044014
:100FB0002685EF50C05B6DFD13050440EF50A0681F
:100FC0002396A18A45616FF0EF9CEFF2CF9879717B
:100FD0002A84AE89328981451306C0024800B6844E
:100FE000EFF06F9D2285EF50207E930700083ECCE6
:100FF000930700103ECE930700403ED093070002B7
:101000003ED24C008D6722854EC24AC426C83ED4CB
:1010100002C602CA02D6EF50300945616FF0EF9662
:10102000EFF20F95D53D37240140B70402409305F8
:10103000C4441385840091461386018B79371305C8
:1010400004409D4605468545EF5060541305044015
:101050009D4609469545EF508053130504409D4633
:101060000D468D45EF50A0529D4611461305044094
:101070009145EF50C051138584008545EF505006CF
:10108000854513050440EF50004F6FF0AF90C166E7
:1010900037370020930787B313860610D0D71386FF
:1010A000160093860604D4C3B716020094C3B7068D
:1010B000020013858600E8C313850602A8C3616594
:1010C000E8C713850601A8C713850620A8CF3725D2
:1010D000040088CF13850610E8CF37450400C8CF39
:1010E0001385060488D33785040090D7C8D3938628
:1010F00006083785020037260200B745020088DB64
:10110000D4DBD0C78CC783C60177930787B313F5A9
:10111000060119C1CCC790C713F7860001CB37175A
:101120000200D8C341671307070498C3918A89CA8C
:1011300023A2070423A0070423A6070423A407046B
:101140008280EFF2EF8241118D472E8432C63EC479
:10115000AA8402C2014681470147C16563438706ED
:1011600019C22312F100371501404C001305058008
:10117000EF50502E01462312010081470147B70569
:101180000200634D870419C22312F1003715014094
:101190004C00130505C0EF50F02B0146231201004F
:1011A00081470147B70504006347870419C223122A
:1011B000F1004C0037150140EF50D02941016FE09C
:1011C0007FFD93162700A696944233F5B60009C515
:1011D000D58FC207C1830546050749B79316270077
:1011E000A696944233F5B60009C5D58FC207C183D0
:1011F0000546050779B793162700A696944233F55E
:10120000B60009C5D58FC207C1830546050769BF6A
:10121000EFE21FF637050020130680029145130503
:1012200005000537370500204146914513050501A6
:10123000093FB7070020938707023737002013863E
:101240000704130787B394438A06BA9623A00600BF
:10125000D4438A06BA9623A0060094478A06BA9613
:1012600023A00600D447C1078A06BA9623A0060029
:10127000E39BC7FC6FE01FF2EFE29FEF093D83C7DE
:101280001177918B91C3693737350020130680049D
:10129000E145130585B375356FE0DFEFEFE2DFEA77
:1012A0003704002013040401B7040020370900208C
:1012B000B70A002093840402130B0401014A1309A6
:1012C0000906938A0A00C14B0C400546814993D711
:1012D000E500F18BCA978843C205C181EF50B02465
:1012E0005145EF40A036B38759018C4393D7E500B1
:1012F000F18BCA978843C205C181EF509021B38713
:1013000034019C4391093315F500336AAA00E39C2C
:1013100079FD0C400146110493D7E500F18BCA9783
:101320008843C205C181EF5010205145EF40003283
:10133000C104E31B64F952856FE09FE4EFE2DFE054
:1013400083C711770144918B99C3893F2A84B719C8
:101350000140B7340020138B09C0938484B3014942
:10136000370A0700B70A0200B70B0400416C9389E3
:1013700009808C40B3F7450163895703638B77037A
:10138000054563978701C205C1814E85EF507018EE
:1013900093371500B39727015D8C0509E147910448
:1013A000E319F9FC22856FE0BFDDC205C1815A85D2
:1013B000F1BFC205C18137150140C9BFEFE25FDB54
:1013C000B7070700E98F37070200AA856384E702A1
:1013D000370704006388E70241670545639AE70021
:1013E000C20537150140C18113050580EF50701209
:1013F0006FE05FDA9315050137150140C1811305D0
:1014000005C0EDB793150501C18137150140F9BF3E
:10141000EFE21FD679712A848545314502CA02CC94
:1014200002CE02D002D202D402D602C402C62318CF
:101430000100EF50905F6315040E85450945EF509C
:10144000B0603715014061478D474C08130505C052
:101450003ACE37040040231AF1003ECCEF50807F93
:101460009307005A2C00130504403EC602C4EF50F7
:10147000106F0546854513050440EF60E00BC1671A
:10148000938707060C10130504403ED02313010276
:1014900023140102EF5030740C1013050440EF5078
:1014A000907E854513050440EF60A007A145130514
:1014B0000440EF60A00BA14513050440EF60200C31
:1014C000814513050440EF6080089305002D130546
:1014D0000440EF60600C9305002D13050440EF609D
:1014E000000CEF00D00E9307D0122310F1009D479F
:1014F0002301F1000A8585473EC2EF50502D8967D0
:101500009387470737E700E07CC3B207B183B7068C
:10151000002DD58F3CD7854513050440EF50B07E94
:1015200045616FE03FC7AA853705004013050540B8
:101530006F50707DEFE2DFC3AA8832883E8689470C
:101540002E85BA85638CF8008D476388F800638325
:101550000800368842856FE0FFC34295EFF0BF9ADE
:101560001318050113580841F5B719473305E5026B
:10157000B7070020938707082E86014781463E95CE
:1015800083152500034505009307C01165B719476A
:101590003305E502B7070020938707082E86130757
:1015A000000C930600103E95831545000345150079
:1015B0009307001441B71387418C1443B7370020B9
:1015C00058430E05938787B9AA9794C3D8C38280DE
:1015D000EFE21FBAAA84034535001384418C8315BA
:1015E000040005817D8951372310A40003C5340010
:1015F0008315240005817D89593F83C73400231159
:10160000A40003C5240083154400858B9207118133
:101610005D8DA13F83C734002312A40003C52400BD
:1016200083156400858B920711815D8D8D3723139F
:10163000A400014549370547A386E18C6FE09FB5BB
:10164000EFE21FB38347350003472500B7050020AD
:1016500093F7F703135677008607D18F93850524F8
:101660008607AE9783D70700370600201377F70762
:101670001306061406079386418C32972390F600D2
:1016800083570700034705002391F60083471500A1
:10169000098393F7E70FBE9583D705002392F600E1
:1016A000834715000145858B9A07D98F86073E969B
:1016B000835706002393F600FD3D0547A386E18C82
:1016C0006FE05FADEFE2DFAA834735008346250078
:1016D0000347050093F7F7039D82860713764700BB
:1016E000D58F058BAA841384418C8607630E070C63
:1016F0006302060C3707002013070714BA9783D735
:1017000007002313F40001457D3503C5240083152C
:10171000040009817D89913D2310A40003C52400A4
:101720008315240009817D899D3583C724002311F9
:10173000A40003C51400831544008D8B8E0715810A
:101740005D8D253583C724002312A40003C5140032
:10175000831564008D8B8E0715815D8D0D3D2313E0
:10176000A4000545893D03C51400831504007D8947
:10177000ED3B2310A40003C51400831524007D89CC
:1017800039352311A40003C50400831544000D81DD
:10179000E93B2312A40003C50400831564000D81F6
:1017A000FD332313A400094539350D47A386E18C89
:1017B0006FE05F9E3707002013070724BA9783D78F
:1017C00007002312F40081B719CA37070020130756
:1017D0000714BA9783D707002311F4002DB73707F2
:1017E000002013070724BA9783D707002310F400BB
:1017F00019BFEFE2FF97AA84034535001384418C9B
:101800008315040005817D898D332310A40003C551
:1018100034008315240005817D89953B83C73400FE
:101820002311A40003C5240083154400858B92076F
:1018300011815D8D1D3B83C734002312A40003C5B5
:10184000240083156400858B920711815D8D81339F
:101850002313A4000145853383C7240003C5140066
:1018600083150400BD8B86071D815D8DFD3983C7FF
:1018700024002310A40003C5140083152400BD8B8D
:1018800086071D815D8D21332311A40003C514003B
:101890008315440009817D89C9392312A40003C539
:1018A00014008315640009817D89D5312313A400B8
:1018B000054511330947A386E18C6FE0BF8DEFE248
:1018C0003F8BAA8483C734000345250037070020D7
:1018D00093F7F703935675008607D58F13070724F0
:1018E0008607BA9703C7040083960700B70700204E
:1018F0001376E70F93870714B2970981058B8397B7
:1019000007007D891384418C51CF83150400231275
:10191000D4002313F400EFF05FC52310A40003C527
:1019200024008315240009817D89EFF05FC623110F
:10193000A4000145EFF03FC883C7240003C514008D
:10194000831504008D8B8E0715815D8DEFF0FFC12F
:1019500083C724002310A40003C5140083152400AA
:101960008D8B8E0715815D8DEFF07FC22311A40052
:1019700003C51400831544007D89EFF01FBF2312B7
:10198000A40003C51400831564007D89EFF03FC0F7
:101990002313A4000545EFF01FC20947A386E18C7D
:1019A0006FE04FFF831544002310D4002311F4008F
:1019B000EFF0BFBB2312A40003C52400831564000D
:1019C00009817D89EFF0BFBC2313A4009DB7EFE22E
:1019D0002FFAAA84034535001384418C8315040033
:1019E00005817D89EFF07FB82310A40003C5340082
:1019F0008315240005817D89EFF07FB983C734000A
:101A00002311A40003C5240083154400858B92078D
:101A100011815D8DEFF07FB583C734002312A400E0
:101A200003C5240083156400858B920711815D8DA9
:101A3000EFF0FFB52313A4000145EFF0DFB783C734
:101A4000240003C5140083150400BD8B86071D8187
:101A50005D8DEFF09FB183C724002310A40003C560
:101A6000140083152400BD8B86071D815D8DEFF06A
:101A70001FB22311A40003C514008315440009817B
:101A80007D89EFF09FAE2312A40003C514008315D7
:101A9000640009817D89EFF09FAF2313A400054501
:101AA000EFF07FB183C7140003C504008315040061
:101AB0008D8B8E0715815D8DEFF03FAB83C71400D2
:101AC0002310A40003C50400831524008D8B8E070A
:101AD00015815D8DEFF0BFAB2311A40003C5040099
:101AE000831544007D89EFF05FA82312A40003C58D
:101AF0000400831564007D89EFF07FA92313A400FF
:101B00000945EFF05FAB0D47A386E18C6FE08FE8EE
:101B1000EFE28FE303473500373400202386018C42
:101B2000A386018C19838946AE84130484B9630BA0
:101B3000D70C8D466306D70E59EF8547A386F18CE7
:101B4000231204002310040003C5D18C0D468145E7
:101B5000EFF06FBBB70A0020938CC18BA386A18CDA
:101B6000814B228A938A0A36138B01779389C18B22
:101B700083C7D18C63C8FB0A83C73400054723861B
:101B8000E18CA386018C998389466382D7168D46A2
:101B9000638ED71663940712A386E18C2312040088
:101BA0002310040003C5D18C0D468145EFF0AFB57D
:101BB000B7090020138BC18BA386A18C814A93891E
:101BC0000936138A01779384C18B83C7D18C63C391
:101BD000FA146FE0EFDA03471500834725008346C8
:101BE00005002207BD8B558FC207D98F81E7EFF023
:101BF0003F9E99BF8D8A81E6EFF09FA4B1B7EFF0C9
:101C00007FAC99B783471500034705008D8BA2076A
:101C1000D98F81E7EFF0FFBD05BFEFF05FCA2DB7A9
:101C20007D331DB703174A0083476B000A07569799
:101C30001843B387E702918323A2FC0083176A004D
:101C40008A07D697884319C9130600143306C502BC
:101C5000814637952F50A545EF50D03F23A0A900CE
:101C6000CE850145312403170A0083478B000A07FC
:101C700056971843B387E70203073B009183B307E6
:101C8000F040B387E7029D8723A2F90083172A005B
:101C90008A07D697884319C91306000A3306C50276
:101CA000814637952F50A545EF50D03A23A0A90083
:101CB000CE850945752A850B210A5DBD03C7140031
:101CC00083C7240083C604002207BD8B558FC2073B
:101CD000D98F89E72685EFF0BF8FE9B58D8A2685F4
:101CE00081E6EFF0FF957DBDEFF0DF9D65BD83C719
:101CF000140003C7040026858D8BA207D98F81E7C6
:101D0000EFF03FAF45B5EFF09FBB69BD2685EFF023
:101D10001FCC49BD0317440083477A000A074E973A
:101D20001843B387E70291832322FB0083176400E3
:101D30008A07CE97884319C9130600143306C502D3
:101D4000814637952F50A545EF50D03088C0A685E5
:101D50000545392A0317040083479A000A074E975E
:101D60001843B387E70203073A009183B307F040B3
:101D7000B387E7029D87DCC0831724008A07CE97CC
:101D8000884319C91306000A3306C50281463795F0
:101D90002F50A545EF50102C88C0A6850D45C928A9
:101DA000850A21041DB583C71177370500204146F8
:101DB000C18B89CBB70500209385053513052524F4
:101DC0006FE00FBEB705002093850534C5BFEFE275
:101DD0002FBA37360020B73500203735002021478D
:101DE00093060002130606BB938505F31305C5068B
:101DF000EF30000037360020B7350020373500209F
:101E0000214793060002130606BD938505E31305DB
:101E10008505EF20F07D37360020B73500203735B7
:101E20000020214793060002130606BF938505D3C1
:101E300013054504EF20D07B37360020B73500204E
:101E400037350020214793060002130606C193850B
:101E500005C313050503EF20B07985472386F1906C
:101E6000A386F1902387F190A387F1906FE08FB262
:101E7000B9CDEFE2EFAF89476309F50263E2A7024C
:101E80001DE93735002021461305C506EF20307ABD
:101E900019C9054705452388E18EEF30604521A02B
:101EA0008D476300F5026FE0EFAE37350020214625
:101EB00013058505E1BF373500202146130545048C
:101EC000F1B737350020214613050503C1B78280DD
:101ED000EFE20FAA83C7F19095CF37350020930723
:101EE000C506D44785CA83C78700B73600209386C6
:101EF00006F38E07B6979443DC43A38701901387BC
:101F0000C1921305C5065CC314C3EF30A005054795
:101F1000A389E19083C7E19095CF373500209307DF
:101F20008505D44785CA83C78700B73600209386C6
:101F300006E38E07B6979443DC432387019013870B
:101F40004192130585055CC314C3EF30A00105471A
:101F50002389E19083C7D19095CF3735002093072F
:101F60004504D44785CA83C78700B73600209386C7
:101F700006D38E07B6979443DC43A386019013875C
:101F8000C191130545045CC314C3EF20B07D054720
:101F9000A388E19083C7C19095CF37350020930780
:101FA0000503D44785CA83C78700B73600209386C8
:101FB00006C38E07B6979443DC43238601901387AC
:101FC0004191130505035CC314C3EF20B0790547A5
:101FD0002388E1906FE00F9C21C29841E1679387CD
:101FE000076A3E9798C16374C70001458280B35663
:101FF000C702835705003377C702B697C207C1836C
:102000002310F50098C1056713070780E37FF7FCED
:1020100093F7F77F2310F50005458280EFE24F9597
:1020200083C701772A87368493F707042E855443A4
:10203000B28595C3854781CE1043793F814701C959
:1020400083A7418D818F93B7A70F93C7170013F50F
:10205000F70F6FE02F9499EA03A5418D018D133599
:10206000A50F134515001375F50FE5B71043AD37F0
:1020700065F5D5BF37050040397185451305054025
:1020800022DE26DC4ADA4ED852D656D45AD25ED058
:1020900062CE66CC6ACA6EC8EF508051854763191C
:1020A000F52483A7418DAA86938D170023AAB18DAD
:1020B00003C711779384C193371400201377070265
:1020C000938BC194138B4194138D41931304048615
:1020D0006307072C83A6418E138601909385A190F8
:1020E0001385C19436C61D3F01CD83C5319103C60A
:1020F000018DB246638D0520136616002388C18CBE
:1021000083A6018E1386C18F938581901385419498
:1021100036C6293701CD83C5219103C6018DB2464C
:1021200063890520136626002388C18C83A6C18D90
:102130001386818F938561901385C19336C6F93DCF
:1021400001CD83C5119103C6018DB246638505207B
:10215000136646002388C18C83A6818D1386418F28
:10216000938541901385419336C64D3D01CD83C57E
:10217000019103C6018DB246638105201366860076
:102180002388C18C83C6018D13F6160005C6A3896A
:1021900001901386C1920C42504223A0BB0023A29F
:1021A000CB0085452395019023A00190A387B19092
:1021B00023A2B18F13F6260005C62389019013864A
:1021C00041920C4250422320BB002322CB0023AE7D
:1021D000018E8545239401902387B19023A0B18F70
:1021E00013F6460015C2A38801901386C1910C42D4
:1021F00050428CC0D0C023AC018E85452393019002
:10220000A386B19023AEB18DA18A85C623880190A3
:10221000938641919042D4422320CD002322DD00B9
:1022200005462392019023AA018E2386C19023ACF8
:10223000B18D83D7A19003A74B0083264B0086075F
:10224000A2978397070003264D002388018CB3874C
:10225000E70203D781900607229703170700330789
:10226000D7029306201CBA97A987B387D702C587E0
:102270009387072D23A6F18E83D76190D8408607D8
:10228000A29783970700B387E70203D74190060719
:102290002297031707003307C702BA97A987B387A6
:1022A000D702C5879387072D23A4F18E37290020F5
:1022B0000356A99483D5E18C03A5C18E3704004051
:1022C00013040440EFE03FC442054181231EA402F1
:1022D00083D5E18C0356A99403A5818EEFE0BFC29C
:1022E000420541812310A40485452285EF50002E2C
:1022F0007254E2545259C259325AA25A125B825B4A
:10230000724CE24C524DC24D216173002030316657
:10231000B386DD401306F634E374D6DE372600209C
:102320008346C69423A20B0093E616002306D69498
:10233000C1BB3166B386DD401306F634E378D6DEE2
:10234000372600208346C69423220B0093E62600FE
:102350002306D694E1BB3166B386DD401306F6341E
:10236000E37CD6DE372600208346C69423A20400F1
:1023700093E646002306D694C5B33166B386DD40A6
:102380001306F634E370D6E0372600208346C69461
:1023900023220D0093E686002306D694E5B303A618
:1023A0000B00938501901385A19036C6EFF0DFC234
:1023B00003260B009385C18F13858190EFF0DFC159
:1023C00090409385818F13856190EFF0FFC00326C5
:1023D0000D009385418F13854190EFF0FFBF03D728
:1023E000A19003A64B0083254B00060722970317F5
:1023F000070003254D003307C70203D68190060668
:102400002296031606003306B602CC40329729877F
:102410001306201C3307C70245871307072D23A681
:10242000E18E03D761900607229703170700330751
:10243000B70283D5419086052E9483150400B38599
:10244000A5022E9729873307C70245871307072D53
:1024500023A4E18E03C631912DC683C52191B5C158
:10246000A389019013874192238901901043584317
:10247000B2462322EB001387C1922387D1902320F9
:10248000CB0010435843A387D19023A0B18F23A042
:10249000CB0023A2EB0023A2B18F11C319E623A026
:1024A00001902395019023A00B0003274B0001C747
:1024B00003270B0019E723AE018E239401902320FC
:1024C0000B0083C61191E38306DE03C60191E30F7F
:1024D00006DCA3880190138741912388019014435F
:1024E000584305462322ED001387C1912386C190EE
:1024F0002320DD0014435843A386C19023ACB18D43
:1025000094C0D8C023AEB18D11C399E623AC018E1F
:102510002393019023A0040083274D0089C78327BC
:102520000D00E39507D823AA018E23920190232062
:102530000D00ADBBEFD2DFC3AA85376500401305A0
:102540000580EF40B024133515006FD0BFC4EFD223
:102550003FC2AA853765004013050580EF40702112
:102560001375F50F6FD01FC337670040835747813E
:1025700013070780A183A38AF19483574701C207F9
:10258000C18393F707F0C207C183231AF7007300D2
:102590002030EFD25FBC3765004041118145130503
:1025A0000580EF40F00F37140140930700400D49BC
:1025B000D1494C00130504C03EC24AC44EC68564CE
:1025C000EF404069938404804C00130504C04EC65C
:1025D0004AC423129100EF40E067930500401305C1
:1025E00004C0EF400074A685130504C0EF402073BB
:1025F0000545EF30A00593050040130504C0EF40EA
:1026000000720545EF308004A685130504C0EF4035
:1026100040710545EF308003A949130A04C00569DC
:10262000930500405285EF40C06FA6855285EF406C
:10263000006F0545EF308001930500405285EF4063
:10264000006E0545FD19EF306000E39B09FC1305A2
:1026500004C093050040EF40C06C9305098013054A
:1026600004C0EF40006C0545EF20507E930500400C
:10267000130504C0EF40A06A0545EF20307D9305A7
:102680000980130504C0EF4080690545EF20107CE8
:1026900091474C00130504C03EC6EF40A05B930574
:1026A0000980130504C0EF40C06641016FD0FFAD43
:1026B000EFD21FAC37640040814513050480A38B23
:1026C0000194EF40E07D13050480EF402069EFF0B6
:1026D0005FEC83C751955D8D1375F50F01C93735D3
:1026E0000C0001468145130505502920EF20106F8D
:1026F0006FD05FAAEFD23FA60111AE842A8985452B
:102700002545328402C202C402C602C802CA02CCF3
:1027100002CEEF409031854537054000EF40D03282
:10272000371A014093090040714B8D4A4C00130544
:102730000AC0231231015AC656C4EF40A051856722
:10274000938707804C0013050AC02312F1005AC674
:1027500056C4EF402050B7070040231C9100B764D7
:1027600000403ECA0C08916713850480231EF100C7
:102770004AC8231D3101EF408061854513850480DF
:10278000EF40007209651306800CB70502001305BF
:102790004553EF20F06709C909C8854513850480B2
:1027A000EF406079EFF0DFF00544A38B8194056181
:1027B0006FD0BF9D83C77195638C0712EFD2BF990D
:1027C00037640040AA8A2E8A130504808545EF40AD
:1027D000A07209651306800CB70502001305455366
:1027E000EF20106383C751951375F50FC98F91C7FB
:1027F0000547238BE1946FD05F99854513050480CD
:10280000EF40C06BB709030009691306800C93857C
:1028100019001305E954EF20B05F83C75195137574
:10282000F50FC98F99C30947E9B701469305400DD4
:1028300013050480EF40206F370B07001306800C50
:1028400093052B081305E954EF20905C83C751953D
:102850001375F50FC98F99C30D4761BFD685130551
:102860000480EF40406B1306800C93054B08130562
:10287000E954EF20F05983C751951375F50FC98FAF
:1028800099C31147BDB7D28513050480EF40C066D8
:10289000854513050480EF4060621306800C938524
:1028A00019001305E954EF20B05683C751951375ED
:1028B000F50FC98F99C315472DBF05469305400DE8
:1028C00013050480EF4020661306800C93852900D1
:1028D0001305E954EF20D0539377F50F03C55195B5
:1028E0005D8DE30A05F09946238BD1943E8521B78F
:1028F00005458280EFD23F862E891375F50F8145FD
:10290000EFF05FEB83C75195238AA1945D8D1DE5A0
:10291000B705030009651306800C938505041305AC
:10292000E554EF20F04E83C751951375F50F238AB8
:10293000A1945D8D19C52547238BE194EFF05FD7F6
:1029400025A0B769004013850980EF40205D230072
:10295000A900854513850980EF40205883C741951C
:1029600003C75195D98FF9FB03C54195B7370020AF
:102970002383A7946FD07F81EFD20FFD8547631625
:10298000F600EFF03FF76FD0AFFF2E898545328418
:10299000EFF05FE2AA8435E17D14370A0300856A0F
:1029A000B76900401374F40F130A0A04896B938A01
:1029B0000A80938909809307F00F6303F4021306DA
:1029C000800CD2851385EB54EF20904483C751953A
:1029D0001375F50FC98F95C71D47238BE194AA8402
:1029E00037650040130505808545EF40004F83C7DC
:1029F0005195C58F13F5F70F59D5EFF07FCB26858D
:102A000059B785476316F400D6854E85EF400054CC
:102A10004E85EF40A0507D142300A9001374F40FDD
:102A2000050951BF83C7719591E38280EFD2AFF260
:102A3000AA8A09654111AE891306800CB705020008
:102A400013054553EF20D03C83C751951375F50FFF
:102A5000C98F8DC32947238BE19483C75195C98FB3
:102A600093F7F70F89C72AC6EFF09FC4324541019B
:102A70006FD0AFF137690040854513050980EF40FD
:102A8000E043B7050300096A1306800C85051305AA
:102A9000EA54EF20F03783C751951375F50FC98FAE
:102AA00099C32D474DBF01469305400D130509807D
:102AB000EF406047370B07001306800C93052B0887
:102AC0001305EA54EF20D03483C751951375F50FE1
:102AD000C98F99C3314741B7D68513050980EF40A7
:102AE00080431306800C93054B081305EA54EF202E
:102AF000303283C751951375F50FC98F99C3354788
:102B000099BFCE8513050980EF40E0401306800C85
:102B100093054B081305EA54EF20902F83C7519576
:102B20001375F50FC98F99C3394735B71305098058
:102B30008545EF40803A01450DB737350C00054615
:102B40008145130505506FF0FFBAEFD26FE24111D6
:102B50002E849305F1002A89B284EFF0BFD909EDE4
:102B60008347F10093C4F4FF4A85E58FB365F40011
:102B7000A307B100EFF01FEB41016FD0AFE1EFD23F
:102B80002FDF41119305F1003D45A3070100EFF050
:102B90007FD611E98347F1008546938777F993F74C
:102BA000F70F63FCF60483A7C196850723A6F19669
:102BB00003C7819609C70D4541016FD0AFDD254799
:102BC0006363F7029305F1007945EFF0BFD21DC9A9
:102BD00083A74197850723AAF19683A701978507C5
:102BE00023A8F196D1BF85472384F1960545EF20B0
:102BF000207083C78196F9D77DBF23A601962384D1
:102C00000196EDB78347F1000D4709458D8BE3959C
:102C1000E7FA83A74197B7350020314685079385AA
:102C2000850D1305200223AAF196EFF0FFD449D5B4
:102C300083A701970545850723A8F196B5BFEFD275
:102C40002FD319441306F00F85454945EFF0FFEFE8
:102C500009C57D141374F40F75F42945EF20102174
:102C600019441306F00F930500084D45EFF0FFEDF2
:102C700009C57D141374F40F6DF419441306F00F95
:102C80009305E0084145EFF05FEC09C57D1413742E
:102C9000F40F6DF419441306F00F9305C005454574
:102CA000EFF0BFEA09C57D141374F40F6DF41944F5
:102CB0001306F00F930540044945EFF01FE909C5DD
:102CC0007D141374F40F6DF413351500A382A198CD
:102CD0006FD04FCCEFD2CFC91306000F81454145CD
:102CE000A3820198EFF07FE61306000F814545456A
:102CF000EFF0BFE56FD00FCA8280EFD26FC483C7F9
:102D0000019613075002B7390020B387E7021387F3
:102D1000090841119386090836C6BA9703870177D7
:102D200023AEF194635D07001306400281453E85A2
:102D3000EFD06FC8EF30805A41016FD02FC483C7E6
:102D40007195FDDB83C74198E5DB83C761981384E8
:102D5000017781E78D472383F198EF20300883477F
:102D6000F40003A741968346E400A2073307E54039
:102D7000D58F2A8BE362F7FCEFF07FE055FD373CFF
:102D80000020930C4C0E373700201307870D138655
:102D90008C0193074C0E93044C0E9443831507004B
:102DA0000907AE9694C39107E399C7FE03C4119631
:102DB00003A7819505041374F40F8567A38081969A
:102DC00023A261973307EB4093877738E3F6E7F662
:102DD0008840373D0020EF70406A83A50198EF607E
:102DE000D079EF70806388C0C840EF70006983A518
:102DF000C197EF609078EF704062C8C08844EF7070
:102E0000C06783A58197EF605077EF70006188C439
:102E10009304CD0C1386C4001307CD0C814719C44D
:102E200083A70C00B3C78702C207C1872310F7002E
:102E30000907910CE314C7FE6146814513054C0E4A
:102E4000A3800196EFD02FB703A4C195194623ACF8
:102E50006195130CC400E2852285EFD06FB4130B8B
:102E600084011946DA856285EFD08FB3B73500202B
:102E700019469385E50D5A85EFD08FB283C74198E7
:102E80000547639EE708996769771386640093870F
:102E9000871A130787E58396040063DDD70623901E
:102EA000F4008904E399C4FE930424011946A6851D
:102EB00013056400EFD0CFAE79041946A2852685AC
:102EC000EFD00FAE19469305CD0C2285EFD04FAD54
:102ED00083C76198FD1793F7F70F2383F198E39D5C
:102EE00007E403A5C195EF30603F03C50196930742
:102EF000500213065002133515002380A1963305A6
:102F0000F502B24781453E95EFD0EFAA8D47238366
:102F1000F1981DB5E3D7E6F82390E40059B70947C7
:102F2000E398E7FA2285EF00E0665DB7EFD2AFA243
:102F3000832A0500032A45002A8483298500032962
:102F4000C500D6855685EF605063AA84D285528528
:102F5000EF60B062AA852685EF60206AAA84CE85DC
:102F60004E85EF609061AA852685EF600069AA848E
:102F7000CA854A85EF607060AA852685EF60E067A4
:102F8000EF408077AA8503A54186EF60901DAA8453
:102F9000AA855685EF60705E08C0A6855285EF60F1
:102FA000D05D48C0A6854E85EF60305D08C4A6851B
:102FB0004A85EF60905C48C46FD02F9DEFD2CF98C8
:102FC000832BC500C445832A050083A90500032A75
:102FD000450003AB45000329850003AC85002A8426
:102FE000A6855E85EF607059AA8CCE855685EF6008
:102FF000D058AA856685EF70C005AA8CDA855285FF
:10300000EF60B057AA856685EF70A004AA8CE285B0
:103010004A85EF609056AA856685EF70800348C4A4
:10302000CE855E85EF607055AA8CD6852685EF60CB
:10303000D054AA856685EF60405CAA8CE2855285F3
:10304000EF60B053AA856685EF60205BAA8CCA85C5
:103050005A85EF609052AA856685EF60907F08C020
:10306000DA855E85EF607051AA8CE2855685EF6047
:10307000D050AA856685EF60D07DAA8CD285268542
:10308000EF60B04FAA856685EF602057AA8CCA858D
:103090004E85EF60904EAA856685EF60005648C069
:1030A000E2855E85EF60704DAA8BDA855685EF600C
:1030B000D04CAA855E85EF604054AA8AD2854E85A1
:1030C000EF60B04BAA855685EF60B078AA89CA85B3
:1030D0002685EF60904AAA854E85EF60005208C4AD
:1030E0006FD00F8AEFD2CF852A8403A5C19879715A
:1030F000AE843305A640328AEF602049AA8903C511
:10310000140083C704002E8922055D8D4205418588
:1031100023A64199EF6060404E86CA86EF50E07763
:1031200003A6818283A6C182EF5020772A8D03C532
:10313000340083C72400AE8C22055D8D4205418595
:10314000EF60A03D4E86CA86EF50207503A68182AF
:1031500083A6C182EF5060742A8C03C5540083C7D4
:103160004400AE8B22055D8D42054185EF60E03A5B
:103170004E86CA86EF50607203A6818283A6C18202
:10318000EF50A0712A8AAE896A86E6866A85E6854E
:10319000EF50A0702A89AE846286DE866285DE8565
:1031A000EF50A06F2A86AE864A85A685EF4090250F
:1031B0002A89AE845286CE865285CE85EF50E06D48
:1031C0002A86AE864A85A685EF40D0232A86AE861B
:1031D0002A89AE84EF50606C03A6018383A64183E5
:1031E000AE8D2AC6EF50801003A6818383A6C183CB
:1031F0002A8BAE8A4A85A685EF50400F2A86AE8676
:103200005A85D685EF50103E03A6018483A64184DB
:10321000EF40501F2A8BAE8A2A86AE866A85E685E5
:10322000EF50A067EF7020325A86D6862ACADE8514
:103230006285EF508066EF7000315A86D6862ACCC0
:10324000CE855285EF506065EF70E02FB24703A640
:10325000818483A6C1842ACEEE853E85EF50000985
:1032600003A6018583A641852A8AAE894A85A6855B
:10327000EF50A0622A86AE865285CE85EF509036FA
:1032800003A6818583A6C185B7240020EF4090174F
:10329000EF70602B4C082AD013850486EFF01FD204
:1032A00013850486EFF09FC883471400034704008A
:1032B00093840486A207D98F2398F40083473400AF
:1032C00003472400A207D98F2399F40083475400B1
:1032D00003474400A207D98F239AF40045616FC0C9
:1032E000FFE9EFC27FE683C76500B7340020AA89F3
:1032F000F19B93E727002383F50003C761988D476F
:103300002E84938484106312F702EF20A02E23A44E
:10331000A19823A0040023A2040023A4040023A650
:10332000040023980400A383019803C5719899476A
:103330001946130A15003305F502137AFA0FA38311
:103340004199373900209305C90C2695EFC05FE5F8
:103350008D47631CFA2283476400370B0080854A3F
:10336000CD9B2303F4007D1B914B034A640093978C
:103370002A00CE9788439377CA00CE978C43337543
:103380006501B3F56501EF60700C635BA00093F716
:103390003A008A07137A3AFF336AFA00230344019A
:1033A000850AE3947AFD03A5090093050000EF6008
:1033B0005013635E051C83AB818603ACC186373A2C
:1033C0000020938A4900130BCA0FC109130ACA0FC0
:1033D00003A50A00E285910AEF60301ADE85EF60EE
:1033E000D019EF7080032320AB00110BE39259FF3B
:1033F00083270A00034764001309C90CA98793F6C1
:10340000F70092063D8B558F2303E40013D7470046
:10341000A303E40013D7C7002304E4000347940088
:10342000D183858B799BD98FA304F40083274A002D
:1034300003479400A98793F6F7078606058B558FF7
:10344000A304E40013D777002305E4000347B40086
:10345000BD8393F7F703137707FCD98FA305F40017
:1034600083278A000347B40093D6A7409A061377B0
:10347000F703558FB187A305E40013D78700A3098D
:10348000E40003D78198039804002309F400230182
:10349000E4022183A301E40203474402C1839D8B1C
:1034A000137707FC136737002302E40203170900B0
:1034B000B306074113F6860FD18FA182230AF400C9
:1034C000A30AD400031629008398240083467401BC
:1034D000B30716418D87230BF400A183819AFD8BDE
:1034E000D58FA30BF4008316490003954400834550
:1034F0007401B387A64013D337401603FD89B3E5A3
:103500006500A30BB40003936400998793D58700EB
:10351000230FF400B30707019A977558B3C7070341
:1035200013F735009A97A58713F3F7030A03336758
:103530006700A30FE400034704029983858B799BFE
:10354000D98F2300F40203978400B3071601BA97BA
:10355000B3C70703BA9703470402A5878607058BFD
:10356000D98F2300F4020397A400B387A600BA976B
:10357000B3C70703BA9703471402A58793F7F70762
:10358000137707F8D98FA300F4026FC07FBF83AB16
:10359000418625B5EFC2DFBDEF2040042A86B7354E
:1035A0000020373500209385C50C1305250DEFF05D
:1035B0007FB383C7019613075002B7350020B38746
:1035C000E702938505083725002013050586BE957B
:1035D000EFF03FD16FC01FBC83C7C19A89EBEFC228
:1035E0003FB9EFD0BFD523ACA18A6FC0BFBA0145A8
:1035F00023ACA18A828031C9EFC29FB72A84EFF041
:10360000BFFD03C7818B2300E40003C7918B83C7F1
:10361000A18BA300E4002301F40083A7819AA301F6
:10362000F40013D78700C183A302F40083A7419A53
:103630002302E4002303F40013D78700C183A3030C
:10364000E4002304F4006FC0FFB48280EFC2BFB077
:103650009387017703C717008946328A19839384B9
:103660000177931716006305D7108D46630BD712A9
:1036700085466318D7029356F54133C7A600158FC8
:10368000B386F40003C61602635DC70013D6F54186
:1036900083C626023347B600118F6354D700814595
:1036A0000145A6978389A7000389B70083C7540102
:1036B000B389A90203C74401A207D98F3309B9020C
:1036C00093D9594013595940BDCFB3072903131754
:1036D0002A00238C0198338439033E949387418ACE
:1036E000BA979C436365F4008547238CF198EF10EB
:1036F000F06E11E10545E147B307FA0237360020C5
:103700009306061393050613BE969C4289CF330792
:10371000F54083C7540103C64401A207D18F6369F2
:10372000F70C23A0060083C7819991CFE147330AA4
:10373000FA023386450100CA7D8423223601232400
:10374000260140CA08C28564138504802A9913861D
:10375000F4FF81454E95EFD00FFB2A841386F4FFCA
:1037600081454A85EFD02FFA320522956FC0FFA11F
:103770009356F54133C7A600158FB386F40083C670
:1037800016026353D700014593D6F54133C7B600FF
:10379000158FB386F40083C62602E354D7F0814523
:1037A00009B73387F4001356F54103471702B346B0
:1037B000A600918E63CCE602FD566343A0008546C9
:1037C0003307D7023A953387F40013D6F541034700
:1037D0002702B346B600918EE3C3E6FCFD56634371
:1037E000B00085463307D702BA9565BD0145E1BFF4
:1037F000D8429C463387E902B307F9023E97E35467
:1038000007F2904AD44A9357F441B307F602B386BD
:10381000860233088602B69733368602B2970D4683
:10382000B307F602B3060603333606038D82B2975A
:103830001396D701D18E3306E7028D873317E7023F
:10384000E363F7EE6394E700E36FD6EC238C019813
:1038500001498149C9BDEFC2BF919387018B03D74D
:10386000470003D5070083D52700B734002083D74E
:103870006700373400201304C4939384041698C45B
:1038800003474400DCC48347340022078346140006
:103890005D8F8347240088C0CCC0A207D58F998D47
:1038A00001461D8DEFF09FDA0347840023A4A19AFF
:1038B000834774002207834654005D8F834764006A
:1038C000CC448844A207D58F0546998D1D8DEFF015
:1038D000FFD723A2A19A6FC0FF8B83C7C19A6385CC
:1038E0000720EFC25F8737250200A38B0198238B47
:1038F0000198EFD0BFAC3705020013050504EFD0E7
:10390000FFAB6317051C83C751999DC313870177CC
:103910008347070093C6070893F6060893F7F7074F
:10392000D58F2300F7008547A38BF198238BF1985F
:10393000A38AA19837850400EFD05FA82A89631B6A
:10394000051883C7419995CB1387017783470700F3
:1039500093C6F7FF93F6060293F7F7FDD58F230082
:10396000F700958393C7170013F51700EFD0BFBB7F
:103970008547A38BF198238BF19837050200130537
:103980000508238A2199EFD07FA36317051483C705
:1039900031998DC3138701778347070093C6F7FFDB
:1039A000898AF59BD58F2300F7008547A38BF19873
:1039B000238BF198A389A19837850200EFD01FA02F
:1039C0002A89631D051083C721999DCF37350020B3
:1039D0009307C51103D727001305C511019B136772
:1039E00067002391E70003C70700137707F82380D8
:1039F000E70003C7D19B133717002382E700EF20AE
:103A000060188547238BF1984165130505102389BC
:103A10002199EFD0BF9A2A8961E583C7119995CF83
:103A2000938701771385A7FF938501779306F00F9E
:103A300003C7B70113061700A38DC7006315D7008E
:103A4000FD17E397A7FE373500201946D905130562
:103A50002564EFC0EFF4EFD0AF82B737002083C703
:103A60001764A3882199BDEF41650505EFD01F9527
:103A70002A892DE983C701998DCF37350020930717
:103A8000C51103D72700054A1305C511019B13670C
:103A900037002391E70003C707002382470113770C
:103AA00007F8136757002380E700EF20A00D238B52
:103AB000419983C761992388219981C70545EF10F2
:103AC000300383C7719999C3EFC09FFB6FC0EFEBC1
:103AD0000545B9BD054955B50545E9BD05492DB7AC
:103AE0000549A5BF0549F1B78280EFC26FE83705E8
:103AF00002001105EFD09F8C1DED83A7019A9DC791
:103B0000EF10502F83A7019A1D8D9307400663FD88
:103B1000A70083C7C19A91E73165130545AEEF60F1
:103B2000105585472386F19A6FC0CFE6EF10902C91
:103B300023A0A19AD5BF2386019A23A0019AEDB7AD
:103B4000EFC20FE383A7819B850723ACF19A91E72E
:103B5000B7270020054723A8E794EF10B02983A7D3
:103B6000C1996302F502EF10F02837270020832760
:103B7000079583A6C199958FAA972328F794EF10EC
:103B8000702723AEA198EFF05FF6EFE06FB4EFF08F
:103B9000CF96EFF09FD46FC0EFDFEFC26FDD2A84C6
:103BA000AA8513050020EF304068A2850545EF3057
:103BB000E065A2850545EF302069A2850945EF3013
:103BC000A068A2850565EF304066A2851165EF30DB
:103BD000C065B7040240A28513854404EF2050500D
:103BE000A28513858405EF20B04FA285138584003C
:103BF000EF20104FA28537050040EF30D010370579
:103C00000040A28513050540EF30F00FB744014096
:103C1000A28513850480EF30B02622869305000428
:103C200013850480EF3050276FC0CFD6EFC24FD43A
:103C3000371702401C43B70608000111D58F1CC37B
:103C40000545EF306050716513050520EF30D02732
:103C5000373500201306500281451305C563EFC0B8
:103C60008FD53165130545AFEF60704085457145CF
:103C7000EF30A05B854513050020EF30005B8545E4
:103C80000545EF30A05885450545EF30E05B85459B
:103C90000945EF30605B85450565EF300059854586
:103CA0001165EF308058EF105015EF1010122945B4
:103CB000EF10D01BEFC0FFF16800EF30204AEFD0CB
:103CC000AFDBEF10302CEF101021EFD06FB5EF20ED
:103CD000E00BEF10600AEF108066EFE01FE6EFF0F8
:103CE000AF81EFE0DFF5EFC08FD8EF30603EAA85FF
:103CF0000545EFC05FC705616FC0CFC9EFC2AFC553
:103D00000545EF30C02BEF10A07BEFF03FF283A50D
:103D100001813165130585B0EF60F0203145EFD0AA
:103D2000EFE9238EA19AEF00D0750D651305655F4D
:103D3000EF206050EF20005B03C5C19BB73400202B
:103D40003744002013351500EFD08FECEF10C00280
:103D50001304840B9384C463054BEF10104EEFF0F3
:103D60009FAFEFF07F8783A7818B13D78700230056
:103D7000F400C1832301F40083A7819AA300E40027
:103D8000A301F40013D78700C183A302F40083A723
:103D9000419A2302E4002303F40013D78700C18370
:103DA0002304F400A303E400EFF09FD983C7218923
:103DB00081CF23826401EF204062EF208053EF2007
:103DC0008041EF10902E51BFA38204002382040093
:103DD000FDB782808345D5000345B5001306F00F7B
:103DE0006FE0BFD6828082808280B73700209387C1
:103DF000071723A807022396070223A4070282803D
:103E0000EFC20FB737340020AA84EFF01FFE13096A
:103E1000041789679387071A130620029385B40055
:103E2000130529002318F416EFC08FB7930740023B
:103E3000130504172316F902EF0050696FC08FB500
:103E4000EFC20FB32A84EFF05FFA0347A4003735BF
:103E5000002093070517930600F8A380E7001305D9
:103E600005170D472380D7002381E7002396E7023B
:103E7000EF00D0656FC00FB2EFC2EFADAA84EFF0D4
:103E8000DFF603C7A40083C9B400373A00209307C4
:103E90000A17930610F82380D700A380E700238138
:103EA0003701854713090A17638EF9008947638A2A
:103EB000F9048D4713050A172316F902EF00106164
:103EC0006FC0AFAC373400201304C4631946938528
:103ED000C4001305C400EFC0AFAC194693056400DD
:103EE00013053900A3093401EFC08FABB1656146FA
:103EF000938505A713059900EFC08FAA93071002B9
:103F000055BFB73500204146938505651305390037
:103F1000EFC00FA9CD4779BFEFC28FA52A84EFF07C
:103F2000DFEC83C7F178ADCF0547638FE7060D4718
:103F300093079004B72500209386C5882380E60068
:103F40000347A40037340020A380F600930704172A
:103F5000930620F82380D700A380E700B73700201E
:103F60009387C7631387C5889386A7FF93040417B5
:103F700003C6B700FD170507A301C700E39AD7FEE4
:103F800031469385C58813852400EFC06FA1B947DA
:103F9000130504172396F402EF0050536FC08F9F50
:103FA0000D479307800479B711479307300359B73A
:103FB000EFC20F9C2A84EFF05FE30347B4008D4605
:103FC000930707FD93F7F70F63E6F600B727002086
:103FD000A386E7940347A40037350020930705170D
:103FE000930600F8A380E70013050517094723800F
:103FF000D7002396E702EF00704D6FC0AF99EFC274
:104000002F972A84EFF07FDE8347A400B734002087
:1040100013840417B7250020130730F83946938519
:10402000C587130524002300E400A300F400EFC0BB
:104030002F97C147138504172316F402EF00104988
:104040006FC04F95EFC2CF922A84EFF01FDA03477B
:10405000A4003735002093070517A380E700054724
:10406000930600F82381E700130505170D47238009
:10407000D7002396E702EF0070456FC0AF91EFC203
:104080002F8F2A84EFF07FD60347A4003735002016
:1040900093070517930600F8A380E700130505179B
:1040A0000D472380D700238107002396E702EF0006
:1040B000F0416FC02F8E6FF09FFC6FF05FFC6FF0D0
:1040C0001FFCEFC24F894111AA84EFF01FD29385E4
:1040D000B4002E852EC6EFC09FE183C7F40075475C
:1040E000B2452A8975446364F70013F4F70F83C758
:1040F000A400B739002037350020130700F9938456
:1041000009171546130525172380E400A380F40042
:10411000EFC00F89B73500202286938575174A8531
:10412000EFC03F901D041374F40F138509172396F5
:104130008402EF00B03941016FC02F85EFC24F8379
:1041400041112A84EFF07FCA1305B400EFC03FDAB3
:104150000346F400930504018546AA8432C62EC4A2
:10416000EFC01F953246A2452685EF10702E0347FB
:10417000A4003735002093070517930600F8A380A5
:10418000E700130505170D472380D700238107009B
:104190002396E702EF00903341016FB0BFFFEFB20B
:1041A0003FFD2A84EFF07FC40347A4003735002089
:1041B00093070517930600F8A380E700130505177A
:1041C00009472380D7002396E702EF0030306FB015
:1041D0007FFC6FF0DFFC6FF09FFCEFB27FF92A8469
:1041E000EFF0BFC00347A400373500209307051741
:1041F000930600F8A380E700130505171307400294
:104200002380D7002396E702EF00502C6FB09FF871
:10421000EFB21FF62A84EFF05FBD0347A4003735E5
:10422000002093070517A380E7001305051709472A
:10423000238007002396E702EF0050296FB09FF517
:10424000EFB21FF32A84EFF05FBA0347A4003735BB
:10425000002093070517930600F8A380E7001305D5
:10426000051759472380D7002396E702EF00102651
:104270006FB05FF2EFB2DFEF2A84EFF01FB70345B4
:10428000B400A38AA19AEF10C00F0347A4003735EA
:10429000002093070517930600F8A380E700130595
:1042A000051709472380D7002396E702EF00102265
:1042B000B73700200547A380E7646FB0BFEDEFB2CA
:1042C0003FEB2A84EFF07FB20347A400373500208C
:1042D00093070517A380E70003C7519B930600FBD4
:1042E000130505172381E7000D472380D700239688
:1042F000E702EF00B01D6FB0FFE9EFB27FE72A845D
:10430000EFF0BFAE0347B4008346A4002388E19AD0
:10431000373500202382E19893070517130600F82C
:104320002381E700130505170D472380C700A380ED
:10433000D7002396E702EF0070196FB0BFE5EFB228
:104340003FE3AA84EFF07FAA03C7B4003739002007
:104350002382E19813040917130700141385019BA6
:104360002311E400034705001DE783C6A4000547A9
:104370002382E198930700F82300F4002300E5006E
:10438000A300D4008D47130509172316F402EF008C
:10439000F0136FB03FE011469385B4000505EFB010
:1043A0003FE083C7A400130700F82300E400A30044
:1043B000F4008947C9BFEFB2BFDBAA84EFF0FFA2C8
:1043C00003C7C4009306000203C5B40093070002AC
:1043D00063E3E600BA8703C7A40013F4F70F373985
:1043E0000020B735002093040917930600FC2286AD
:1043F000938545172380D400A380E400A381F400B3
:104400002381A4001104EFE02FD71374F40F1305D8
:10441000091723968402EF00700B6FB0BFD7EFB27D
:104420003FD52A84EFF07F9C0347B400B7270020D4
:10443000373500202384E7940347A400930705172A
:10444000930600F8A380E7001305051709472380AA
:10445000D7002396E702EF0070076FB0BFD3EFB22B
:104460003FD12A84EFF07F980347A400373500201E
:1044700093070517A380E70013078061930600FDEB
:104480002391E7001305051711472380D7002396D2
:10449000E702EF00B0036FB0FFCFEFB27FCD2A8409
:1044A000EFF0BF940347A4003735002093070517AA
:1044B000A380E7005147930610FD2381E700130511
:1044C00005170D472380D7002396E702EF00100061
:1044D0006FB05FCCB737002011679387471A130777
:1044E00007E498C31167130787E7D8C31167130759
:1044F00087F198C71167130707FBD8C71167130720
:10450000E7FF98CB116713074704D8CB1167130750
:1045100027DD98CF1167130787DED8CF1167130700
:10452000E70798D311671307270CB8C31167130760
:10453000C713F8C311671307670B9166B8C7938653
:1045400046DE1387070814C39166938606E054C3BA
:1045500091669386E61914C791669386A60B14CBD1
:1045600091669386E60B54CB91669386261D14D3F1
:1045700091669386A61D54D391669386062114D71F
:1045800091669386062454D791669386462734C352
:1045900091669386E62B74C39166938666DE34D368
:1045A0001167938707101307A72F98C31167130785
:1045B000E733D8C31167130747DD98C7116713079F
:1045C000673BD8C711671307E74198D311671307F3
:1045D000E745B8C311671307671DF8C311671307D1
:1045E000A749B8C7828083C7C19B99C70841930573
:1045F000650009056FD0CFD18280EFB27FB72A84E2
:1046000083454400084137370020D11593F5F50F55
:104610002302B4008347A5001307471A8A07BA97F5
:104620009C4399C3829719A01C43EDFF2285EFF0AC
:104630009FFB6FB03FB603474500854763F3E7082C
:104640001C41C1C383C717001547FD1793F7F70F28
:104650006369F706EFB2DFB131678A07130787B1E5
:10466000BA979C43373400208287B70700031305AD
:10467000C45F93871718B73500201CC1194693856E
:1046800025641105EFB0DFB1854629469305C45F67
:104690001385C169EF0090026FB0DFAF9307102858
:1046A000231EF45E85460946D5B793071038CDBF63
:1046B00093071048F5B793071058DDB793071068B4
:1046C000C5B78280B73700201387C75BA300A70058
:1046D000F956138625002300D7001376F60F85467A
:1046E0009385C75B1385C1696F00407DEFB25FA8FA
:1046F000B7340020373400201304C45B1306D00302
:10470000938501771385F45B23010400EFB05FA963
:104710009305E0030545EFF0FFFA85471306D00344
:104720009385D17A1385F45B2301F400EFB05FA782
:104730009305E0030545EFF0FFF837350020130639
:10474000300381451305955CEFB0FFA689472946E4
:104750009385A17E1385F45B2301F400EFB05FA481
:10476000AD450545EFF01FF69307F03F8945054538
:104770002311F400EFF01FF56FB0DFA1EFB25F9FE0
:104780000C411307F00F83C7150003C4619B6396A8
:10479000E70483C725002A890147639C870003C774
:1047A000350085476314F700EFC08FADEFC02FB918
:1047B0000547B73700209387C75B2381E7000327AE
:1047C00009008945094503473700238B019AA381D6
:1047D000E700EFF03FEF6FB0FF9B1307D003B38705
:1047E000E70213064008138501771D8E3E9563741A
:1047F000C7001306D00389050504EFB07F9A238B09
:10480000819AD1BFEFB2DF962A8408410505EFC037
:104810000FEE0C40AA843735002015468505130598
:10482000E55BEFB0FF971C40B7350020268503C637
:1048300057009385355CEFC0CF9E1C400D4583C566
:104840005700950593F5F50FEFF0DFE76FB09F94F4
:10485000EFB21F922A8408410505EFC04FE90C40D2
:10486000854603C655009905EFC08FA4B7370020D1
:10487000238FA75A85451145EFF0DFE46FB09F9174
:10488000EFB27F8D37340020AA8961468145130538
:10489000445AEFB05F92014AB73A002063143A01DC
:1048A00081440DA01545EF00705C1949EFE02FAD74
:1048B000AA841545EF00905BA9C87D191379F90FFB
:1048C000E31609FE1304445A0840EF50103B83A539
:1048D0000198EF50804AEF50503408C04840EF50E4
:1048E000D03983A5C197EF504049EF50103348C0ED
:1048F0000844EF50903883A58197EF500048EF505F
:10490000D03108C426856FB05F889307445A138757
:104910008A0D138687019443831507000907AE9615
:1049200094C39107E319F6FE050A8DBFEFB2BF826B
:10493000EFF01FF52A8A63170516B7340020938419
:10494000445AC844EF50703383A5018737340020A0
:1049500013044498EF50E00083A54187EF40F049ED
:104960008347140803470408AA8AA207D98F33058E
:10497000F040EF509030AA855685EF401048EF5038
:10498000D029931705012300A4028848C183A1837D
:10499000A300F402EF50702E83A50187EF40707CD6
:1049A00083A54187EF4070458347340803472408B7
:1049B000AA8AA207D98F3305F040EF50102CAA85A0
:1049C0005685EF409043EF50502593170501230182
:1049D000A402C848C183A183A301F402EF50F029C7
:1049E00083A50187EF40F07783A54187EF40F04032
:1049F0008347540803474408AA8AA207D98F33057E
:104A0000F040EF509027AA855685EF40103FEF50B9
:104A1000D020931705012302A4028840C183A183FB
:104A2000A302F402EF50702583A50187EF40707355
:104A300083A54187EF40703CEF50301E931705016E
:104A40002306A402C840C183A183A306F402EF5049
:104A5000D02283A50187EF40D07083A54187EF4026
:104A6000D039EF50901B931705012307A402884407
:104A7000C183A183A307F402EF50302083A50187EF
:104A8000EF40306E83A54187EF403037EF50F0188C
:104A900093170501C183A1832308A402A308F4028C
:104AA000EFB0FFFF52856FB04FEEEFB26FEC5145A4
:104AB000EFF0DFE703C76195B73700209387C75B47
:104AC0002381A70089451545A381E700EFF09FBF2B
:104AD0006FB04FECEFB2CFE91387018B835607001D
:104AE000B73700209387C793A380D700A182238183
:104AF000D7008356270001468145A381D700A182B4
:104B00002382D70083564700035767002165A3829D
:104B1000D700A1822383D700A383E70085462183A2
:104B20002384E70023800700EFB09FF8B737002009
:104B3000238FA75A85451D45EFF0DFB86FB08FE58D
:104B4000EFB20FE3B73500209385F55B3D45EFD01D
:104B50007FDAB73700201387C75BB7260020230111
:104B6000A70003A706959387C75B01E7054723A81E
:104B7000E69483A6069503A7819B3735002033571B
:104B8000D7021146938541971305155C2382E700F0
:104B9000EFB00FE1373500201146938501971305DB
:104BA000555CEFB0EFDFAD451305D00FEFF09FB1CF
:104BB0006FB04FDEEFB2CFDB0145EF0060732945E8
:104BC000EF00D02AB707EFBE37E700E0938707086A
:104BD0003CC76FB02FDCB737002013070040894572
:104BE0001305F00F239FE75A6FF0DFAD1441054620
:104BF000938716001CC1834745006373F608EFB224
:104C00002FD7FD172302F50083C716009D4663E0EA
:104C1000F60295CBFD1793F7F70F994663E5F60279
:104C2000B1668A07938606B3B6979C4382871307BB
:104C3000E00F638EE7021307F00F6387E7021307A5
:104C4000D00F6389E7026FB0EFD4EFF03FAAE5BF62
:104C5000EFF0DFB2CDBFEFF0FFBAF5B7EFF05FBF17
:104C6000DDB7EFF09FE4C5B7EFF0FFF6E9BFEFF077
:104C70007FF4D1BFEFF0DFECF9B7EFF0BFE5E1B7BC
:104C800082806FF03F85EFB2AFCE1C411307000862
:104C900083C707006389E702636AF7000547638EED
:104CA000E7004147638EE7006FB0CFCE1307E00FF8
:104CB000E39CE7FEEFF09FF3C5BFEFF01F94EDB765
:104CC000EFF07F92D5B7EFF01F97F9BF0346C5020B
:104CD000AA8581461385C169D5A2EFB26FC941117A
:104CE0002A848545054502C002C202C402C6EF20DF
:104CF000C05385450545EF20A0031149B1448947BC
:104D00000A853EC04AC226C422C6EF105043BD45A4
:104D10000945EF20E001A1670A853EC04AC226C4CA
:104D200022C6EF10D04199450545EF20600093075A
:104D300000040A853EC04AC226C422C6EF10304095
:104D40009D450545EF10D07E930700080A853EC0BB
:104D50004AC226C422C6EF10903EB9450545EF1061
:104D6000307D91670A853EC04AC226C422C6EF1034
:104D7000103D41016FB00FC2EFB28FBF4111371527
:104D8000014091474C00130505C03EC62312F100B7
:104D9000231301002314010023150100EF10906B71
:104DA00041016FB02FBFEFB2AFBC0545EFF0FFF28E
:104DB0000545EF2060390145252B13054006EF001E
:104DC000F00813051006EF20C04D854719CD0545A5
:104DD000EF00D00989450545EF2080280545EF0003
:104DE000F0080145EFF07FEF81473E856FB08FBA45
:104DF0000DCDEFB24FB62A84AE8405458DC5328AFB
:104E000081452D4613059400B6893A89EFB0AFBAB3
:104E1000854704C023224401230534012304F40000
:104E2000A308240101456FB04FB605458280EFB25B
:104E30002FB49304F00F35CDADCD1C412A84B5CBF2
:104E400083440501B5E80347A5005C4563D6E70642
:104E50008347150113F9F70F6374F6001379F60F02
:104E600085471307C400AF27F7005C4483479400CD
:104E70000347A400850793F7F70F63E3E700814733
:104E800003451401A304F4004A86B307F502084061
:104E90003E95EFB0EFB0034794005C40BA97238093
:104EA00027018347A40058446345F700854723083A
:104EB000F40026856FB00FAE8544E5BFEFB24FAB6F
:104EC0001309F00F59C9D1C91C412A84D9C7034914
:104ED0000501631709080347A5005C4563D2E7088D
:104EE00083471501B2846365F600FD1793F4F70F4D
:104EF00085471307C400AF27F7005C44834794003D
:104F00000347A400850793F7F70F63E3E7008147A2
:104F100003471401A304F40026863307F7021C405C
:104F20008504BA972380D700034794008347140170
:104F30000840B387E70285073E95EFB06FA60347A9
:104F400094005C40BA97238097008347A40058449C
:104F50006345F70085472308F4004A856FB08FA3A7
:104F60000549E5BFAA8729C518411305F00F39C3C4
:104F7000D847014521C37D579386C7002FA7E60078
:104F8000D84703C7870083C6A70005071377F70F25
:104F90006363D70001472384E70003C7070101CB00
:104FA000D847B326D70093C616002388D70082803F
:104FB0001305F00F8280EFB2AF9B056501118545A7
:104FC00011053714014002C002C202C402C602C861
:104FD00002CA02CC231E0100EF202025D14713096D
:104FE00000088D448A85130504803EC423102101E6
:104FF00026C2EF1030469305000813050480EF1019
:1050000050526545A525E1478A8513050480231084
:1050100021013EC426C2EF10F043B7C704013EC6CB
:10502000B70700023ECA930700023ECC6C009D47C2
:1050300037350140231EF10002C8EF2060290546E4
:10504000894537350140EF20203005616FB08F94DE
:10505000EFB26F9079712A84AE8932898145130647
:10506000C0024800B684EFB00F9585450545EF2096
:10507000E0192285EF104075C1473EC6930700082E
:105080003ECC930700103ECE4C00856722854EC271
:105090004AC426C83ED402CA02D002D202D6EF10B9
:1050A000B00045616FB06F8EB70600014111014736
:1050B00081479385C180FD166148137615002E96B1
:1050C0000346060005813316E600D18F0D07F58FE4
:1050D000E31507FF1395070141812390A19CC1832C
:1050E0001375F50F9386019C2381A6002380F19C04
:1050F00083D7019C42055D8D41018280EFB2AF856F
:105100008D4AB304550337340020328513044466B6
:105110002E8AB689EFF05FF9935785001389540002
:105120003309590322992300A9004181A300F90002
:105130002301A90013896400330959039D04528592
:10514000EFF09FF693578500B38454032299230010
:10515000A90041812301A9004E85A300F900EFF0C9
:10516000BFF49357850026942300A4004181A30037
:10517000F4002301A4006FB04F81EFA2DFFD2A8A63
:105180003735002013065013814513054566EFB0EF
:105190008F8281498144138401778D4A8347640259
:1051A0000349040063C9F40EB737002083C6E763E0
:1051B0009307400683491400B386F602131B890146
:1051C00093F41900268A8A042685135B8B41938AFF
:1051D000140093F6F60F3686B685EFF03FF293068D
:1051E000400663530B0081463686B6855685EFF040
:1051F000FFF083C6D19B9307400613853400B38626
:10520000F60293F6F60F3686B685EFF03FEF634C65
:105210000B0083C7819681CB814601469305800CA4
:105220005685EFF0BFED13790902890481466317B3
:10523000090093F70902CDCB93064006014681454C
:105240002685EFF0BFEB83C7018F81CB81460146F6
:10525000930540062685EFF07FEAB14463130A0008
:10526000914493F9890063860902834694050346B5
:1052700084058345740513854400EFF03FE88346B9
:105280008406034674068345640613855400EFF0D4
:10529000FFE66FA09FEF1379290013F5F40F631455
:1052A000090063190A00814601468145EFF01FE5B8
:1052B0008504EDB5B3875903A29783C6970203C649
:1052C000870283C57702EFF07FE383471400858B65
:1052D00099E793A7440093C71700BE99D1BF93875E
:1052E000C4FF93B74700C5BF81461306400681BF80
:1052F000EFA21FE837040240AA8481451305040386
:10530000EF10005E2685EFF05FE7B737002013054A
:105310000403938747665CC583C761790D4785455C
:10532000B387E702A907B387E7025CC1EF10405BD0
:10533000854537350140EF10507F6FA0BFE5EFA2E4
:105340003FE3EFF05FC70945152683C761790D4735
:105350008D46B387E70237360020B7350140370561
:10536000024013064666B10513050503A907B38677
:10537000D702EFF0FFCD0545EFF09FF701456FA095
:105380007FE1A381A19C828013050020EF10A05A29
:105390000DC113050010EF10405A3705024081453A
:1053A00013050503EF10C053814537350140EF1059
:1053B000D07773002030411102C43717024002C673
:1053C0001C43C16637060200D58F1CC3B7160240C6
:1053D00015679C42F18F3EC6A24785073EC4B2477F
:1053E00081E7A247E397E7FEB71702409C433707E0
:1053F0000200F98FC9C385473EC632478547631E01
:10540000F706B72702409843B706C1FFFD1613679A
:10541000070198C39843719B98C39843136727006B
:1054200098C3B7170240D843D8C3D843D8C3D8438A
:10543000D8C3D843758FD8C3D843B7061D00558F3E
:10544000D8C39843B7060001558F98C3B70600022A
:105450009843758F75DFD843B7160240719BD8C348
:10546000D84313672700D8C32147DC42B18BE39EA2
:10547000E7FE4101828002C649B701A0B71702408A
:105480009843B706FFF81367170098C3D843758F82
:10549000D8C39843B706F7FEFD16758F98C3984397
:1054A000B706FCFFFD16758F98C3D843B70681FF7A
:1054B000FD16758FD8C337079F0098C76FF0BFEFF1
:1054C000371702405C43A146B18B6391D7065C431A
:1054D00054434166C983BD8BF18E890781EE3747FE
:1054E000024003270780418B19CB37177A00130737
:1054F000072011A85843B7060200758F7DD73717CC
:105500003D0013070790B387E70237170240544363
:1055100037270020130787899182BD8A3697034772
:105520000700B3D7E70023A8F1808280B7177A007D
:1055300093870720D9BF6FF01FE8854537050040E6
:10554000EF2040068547631CF50083A7C19C854575
:1055500037050040850723A6F19CEF202007730044
:105560002030EFA2FFC00111930770043ECA4C081F
:105570009307703E370500403ECCEF10505E054665
:10558000854537050040EF10307B854537050040E5
:10559000EF1070779307C0022316F10089472307A5
:1055A000F100680085473EC8EF107022956737E725
:1055B00000E09387A7537CC3B207B706002CB183E2
:1055C000D58F7CD305616FA0FFBC03A7419C11E779
:1055D000054723A2E19C6FF0DFF8828083A7C19C7E
:1055E0001307803EB387E7023707004003554702A1
:1055F0003E95828003A5C19C828083A701813717D5
:105600007A0013070720B3D7E7022384F19C828036
:1056100019E501458280014541016FA0BFB7EFA2A6
:105620003FB541112A84AE843289EFF03FFB2AC690
:10563000268502946DF1EFF07FFAB2471D8DE37974
:10564000A9FE2685029413351500F9B7EFA25FB2C3
:1056500041112A84EFF09FF82AC6EFF03FF8B247D5
:105660001D8DE37CA4FE41016FA0DFB283A7C19C26
:1056700041113EC683A7C19CB246958FE37CF5FEDF
:1056800041018280034635009306450001471376A9
:10569000F6079D4503C80600B357E6409E07B3E7EB
:1056A00007012380F60005078506E315B7FE83474B
:1056B00025000347B50095838D8B93967700558F12
:1056C000A305E5000347C5009A0793F707F8D98FAC
:1056D0002306F5008280EFA2BFA979711306C002EC
:1056E00081454800EFA03FAD3704024081451305D6
:1056F0004404EF10E01E13054404EF10E00CB7441F
:105700000140938744803EC2C1473EC693070008CC
:105710003ECC4C008567130544043ED402C402C845
:1057200002CA02CE02D002D202D6EF10E0178145A3
:1057300013058405EF10C01A13058405EF10C00887
:10574000B7470020938747EE3EC4930700183EC832
:10575000930700023ED24C008967130584053ED4AE
:1057600002C6EF106014130584058545EF1040173D
:1057700005469305000413850480EF10F071456120
:105780006FA05FA1EFA2DF9E01118545114502C206
:1057900002C402C602C802CA02CC02CEEF10F02830
:1057A00085451165EF107028930700202312F10042
:1057B000371401408D473EC44C00E1471305048077
:1057C0003EC6EF102049930700402312F1004C0021
:1057D00093078004130504803EC6EF10A047B7C7A7
:1057E0002D00374401409387076C3EC80C08B7076B
:1057F0000C00130504803ECC02CA231E0100EF10EA
:10580000D05D1305048093050004EF10106B1305A1
:1058100004808545EF10D06637460020B74500204C
:1058200037350020354793060004130646829385DA
:1058300045BA1305057DEFF0AFDB37360020B745DD
:105840000020373500203547930600041306467EB6
:10585000938545861305C57BEFF08FD905616FA051
:105860007F93EFA25F8FB74901402A89AE841385E9
:1058700009809305000437040240EF1010641305FB
:1058800044048145EF10C005232824051305440472
:1058900044C18545EF10C0040546930500081385F3
:1058A0000980EF10705F6FA05F8EEFA27F8C83C7BF
:1058B000A19D9DCBB744014093050004138504804E
:1058C000EF10F05E05C19305000413850480EF100E
:1058D000D05E01469305000813850480EF10D05B6D
:1058E000238D019C6FA01F8BB73700201387C77BC8
:1058F0004C479387C77BFDD503C68700354503C852
:1059000097003305A602374700201307478683C652
:10591000A7003A95130718006376C802918E9395F5
:105920000601C181D8C72384070023880700B54733
:10593000B385F502C205C181EFF0BFF28547238D23
:10594000F19C4DB7C2051377F70FC1816363D70090
:1059500001472384E70023A60700C1BF45C50147CF
:1059600081471D46B306F50083C6460093C5770000
:10597000850793F60608B3D6B640558F1377F70719
:10598000E392C7FE834735009306D50093F707F8E7
:10599000D98FA301F5008347C5000347B500998758
:1059A0001D83898BD98F0347250096071377F7F955
:1059B000D98F2301F5009307450003C7070085072A
:1059C0001377F707A38FE7FEE399F6FE83470500F9
:1059D0001307250093F7F707034607000507B18F64
:1059E00093F7F707E39AE6FE03472500A306F500C1
:1059F0001377F7072301E500034735001377F7070F
:105A0000A301E50082801DC583470500130725001B
:105A10009306D50093F7F707034607000507B18FF4
:105A2000E31CD7FE0345D5001375F5071D8D3335EF
:105A3000A00082801305F00F8280EFA2EFF03705FF
:105A4000024013058505EF00F06A239CA19C03D654
:105A5000619D83D7819D6300F60403D6619D83D742
:105A6000819D63FFC70483D7619D03D6819D03D7C2
:105A7000819D918FC20742074183239BE19C03D7FD
:105A8000419DC183930600183E9763D2E604239A92
:105A9000D19C239E019CB7490020B73A00201309EE
:105AA0001008938949EE138BCA7A854B83D7419DA1
:105AB00091C77D191379F90F631309026FA04FEC99
:105AC00083D7619D03D6819D938707184DB703D770
:105AD000419DBA97C207C183239AF19C5DBF83D7CA
