:100000006F50905F13000000130000001300000009
:100010001300000013000000130000001300000094
:100020001300000013000000130000001300000084
:08003000130000007300100032
:100038006FF09FFC000000006F0060186F00A01AAE
:1000480000000000000000000000000000000000A8
:100058000000000000000000000000000000000098
:100068006F50F058000000006F50705800000000FA
:100078006F50F0576F50B0576F5070576F503057E0
:100088006F50F0566F50B0566F5070566F503056D4
:100098006F50F0556F50B0556F5070556F503055C8
:1000A8006F50F0546F4090556F5070546F503054EB
:1000B8006F50F0536F50B0536F50705300000000F2
:1000C8000000000000000000000000006F503052E7
:1000D8006F50F0516F50B0516F5070516F50305198
:1000E8006F40F0686F1070586F50104C6F50305060
:1000F8006F50F04F6F50B04F6F20E0006F50304F8F
:100108006F50F04E6F50B04E6F50704E6F50304E73
:100118006F50F04D6F50B04D6F50704D6F004028CC
:1001280000000000000000000000000000000000C7
:080138000000000000000000BF
:10014000397101436EC619A0397141536AC866CA34
:1001500062CC5ECE19A0397101535AD056D252D416
:100160004ED64AD826DA22DC06DE3301614082828E
:1001700041114AC026C222C406C68282B24D410144
:10018000024D924C224CB24B4101024B924A224A00
:10019000B2494101024992442244B2404101828065
:1001A0002A8309CA83830500230073007D16050393
:1001B00085056DFA82802A8311C62300B3007D165F
:1001C000050365FE82800145EF40503B3717024032
:1001D0001C47B7068000D58F1CC7EF40905937E702
:1001E00000E03C4793E787003CC77300203001459F
:1001F000EF40D0387327203423A6E188F32610344B
:1002000083A7C18823A4D188373700201307C79A52
:1002100013D68700A300C70413D607012301C70420
:1002200013D68701A301C70413D68600A302C7040F
:1002300013D606012303C70413D686012300F7044F
:100240002302D704A303C70463CD07000D476382CD
:10025000E7026375F700F1176365F7009106739085
:10026000163437E700E03C4793E707023CC77300CA
:10027000203001A0EFF2DFEF11458545EF60501609
:10028000B7470240938707809843014513674700AB
:1002900098C303A74181B7A74A049387072063093E
:1002A000F700B777DC02938707C06315F7000545B1
:1002B000EF60900185450565EF60B010E1BD37370F
:1002C0000240930700FC2306F740B73700209387CE
:1002D000878EC207C1832318F740B7370020938762
:1002E000878623A2F1A0C207C183231AF74089475A
:1002F0002309F742230BF74293870189A380070064
:100300008280EFF2FFE6B747024093870780984369
:10031000ADE91367870098C337340240994723003B
:10032000F44035C12945EF4010569D472300044055
:100330002301F440930790022300F44049379307C8
:1003400010F8A300F440930600046146938501066B
:1003500013850173EF40C05DB725002093060004AC
:100360006146938585AC1385016AEF40605CB7E711
:1003700000E04147A38DE7423707000823A2E710BA
:1003800011BD5D9B49BF2945EF40F04FB7E700E045
:1003900023000440B843C146B4C33706000893861F
:1003A0000718D0C2B8C3E9BF011122CE26CC4ACA71
:1003B0004EC852C656C43734024003476440834790
:1003C00074409376F70F098B630B075E93F7F70F73
:1003D00013F70703930500026303B70493060003B2
:1003E0006304D71829E713F7F70363030712854659
:1003F000631FD70293F707049DCB8347644381466D
:1004000093C70708230BF4420356844083A541A0F9
:100410001376F60F1385016AEF40E05509A893F7AC
:10042000F7036384E702130710026380E70CB73712
:10043000024009472383E7407244E2445249C249DB
:10044000324AA24A05617300203083D7E18999E7D7
:100450008347244393F7370F2309F44283C7418A24
:1004600093F70706E9F783C7518A954613F7F70F05
:100470006381D7069947E31CF7FA03D7E18993070D
:10048000F0031304000463E6E70003D4E1894204A7
:10049000418003A9818A373500202286CA85130549
:1004A000858EFD3983D7E189229923A4218B818F01
:1004B000C207C183239FF1881374F40FB73702403A
:1004C0002388874203C72743134707042389E7424A
:1004D000B9BFB736024003C7364083C7C189137717
:1004E0000708D98FA381F64099B78347644393F7F0
:1004F000C70F93E72700230BF4428347644393C756
:100500000704230BF44293870189A380070005B7F2
:1005100093F70704E38D07F083C7418A93F7070633
:10052000E38707F083C7418A93F70706E391B7F0A3
:1005300003C7518AA547E31CF7EEB73500203745BE
:100540000020130600049385858E130585318939B3
:100550000547238CE19E8347244393F7C70F93E716
:1005600027002309F442E1B59307A0FC37350020AA
:100570002309F4421307858E834707002382F18AFB
:100580008347170083562700A382F18A83576700A9
:10059000239FF1882391D18A835647002390D18AE3
:1005A00003C9418A9306858E137909066309090CEC
:1005B00083C7418A93F70706639EB70283C7518AB0
:1005C0002946FD1793F7F70F6363F6182D668A0720
:1005D00013060650B2979C43828783D7018A63989B
:1005E0000716B745002013060004938585311305CF
:1005F000858E7D3683C7418AE207E18763DE07384F
:1006000003D7E1899307000463E6E70083D7E18914
:10061000C207C18303D7E1891D8F42074183239F0E
:10062000E18893F7F70F373702402308F7428347F3
:10063000274393F7C70F2309F742D5BB83D7018A16
:100640006397071003C73600A38CE18865B783D78B
:10065000018A639E070E03C72600238CE18859BFD9
:1006600083D7018A6395070E83C791892380F6009B
:1006700051B783D7018AE1EF83C78189C5BF83C59D
:10068000518A2D4813F6F50F6363B80CAD650A0661
:100690009385C5522E961042028683D6218A0D4636
:1006A000A1826386C60C636CD6008547638CF60214
:1006B00089476381F60481471309F00F81A89307E6
:1006C0001002638BF60893072002E396F6FE83D7A9
:1006D000018AF5F3AD679387476523A4F18A9307F1
:1006E000F00D2DA0AD679387477323A4F18A83C7CC
:1006F000070029A8B72700209387878023A4F18AC1
:1007000003C7270083C73700A207D98F03D7E18922
:1007100063F4E700239FF18803D7E1899307F0038F
:10072000130A000463E7E70003DAE189420A135A77
:100730000A0183AA818A52861305858ED6858D3457
:10074000D29A23A4518B9307F00FE315F9EAB73738
:1007500002401307F0FC9DBB83D7018AA9FFB7278E
:1007600000209387A78123A4F18AA54745B783D7A3
:10077000218A094793F7F70F6387E702636BF70056
:1007800099EF9387018823A4F18A014983C7070061
:10079000B5BFE392D7F2AD6793874760B9B7AD674E
:1007A0009387876499B7AD679387C7613DBF83D748
:1007B000218A93F7F70F238EF1882DBD83C7D18946
:1007C0002380F60003D7E1898547E3F5E7E2239F1D
:1007D000F1880DB583D7218A93F7F70FA38EF1889F
:1007E0000547238DE18839B583C6418AFD8A99EE94
:1007F00083D7218A054793F7F70FE39DE7DE83C789
:10080000B18993F7E70FA38DF188EDB383C6418AD1
:100810000946FD8AE39DC6F283D7218A93F7F70F35
:100820009DF783D7018A054793F7F70F6381E702A6
:1008300013072008E39DE7F0373702408347A743BB
:1008400093F7C70B93E72700230DF74265B33737BC
:1008500002408347674393F73707230BF7428347E9
:10086000674393F7C70B93E72700230BF74259B36E
:1008700083C6418AFD8A8DE683D7218A054793F78F
:10088000F70FE396E7ECB727002083C7F78093F7CD
:100890000702E38E07EA83C7B18993E71700A5B77C
:1008A00083C6418A0946FD8AE393C6EA83D7218A33
:1008B00093F7F70FE39D07E883D7018A1307100822
:1008C00093F7F70F638FE70013072008E391E7E83A
:1008D000373702408347A74393F7C70B93E73700A7
:1008E000A5B7373702408347674393F7370793E746
:1008F000C700230BF7428347674393F7C70B93E780
:100900003700A5B72380060075BD83C7418A23142D
:10091000058EFD8B99EB83C7B189858BBDC3894754
:100920002380F60003D7E1894DB583C7418A094684
:10093000FD8B639CC70403D7018A13061008137745
:10094000F70F630DC700130620086305C70203D71E
:10095000E189E3FEE7DE239FF188D5BB373702400C
:10096000034767433146318BE31EC7FA05472380AF
:10097000E6004DBF373702400347A7430D460D8BB6
:10098000E5B703D7E189894789B583D7E189E37062
:10099000F6DC239FC18865BB83D7E18991EBB7372C
:1009A00002402388074203C727431377C70F39BE86
:1009B000373702408347274393F7370FADB993F793
:1009C00016009DC3A38E0188238E0188A38D018804
:1009D000238D0188A3010440DD308347644093E701
:1009E00017002303F44089BC93F746009DCB914741
:1009F0002303F4402945EF40006903475440118B1D
:100A000011CB03C7B18913672700A38DE18883C782
:100A1000B1891DB403C7B1891377D70FA38DE188BE
:100A200021BC2303D44009BCEFF28FF43707000147
:100A3000AA87130707F07D8FA1662E856303D7026F
:100A4000BD666307D7029966631BD700B7350020E0
:100A500093F7F70F9385459FBE95EFF06FF46FF016
:100A60006FF3B735002093F7F70F9385C59AEDB76D
:100A7000B735002093F7F70F93858592F1BFB7350F
:100A8000002013064008938585920145EDAEB735E9
:100A9000002013064008938585920145B5AEB73511
:100AA00000201306100B9385459F13050010E1AE3F
:100AB000B73500201306100B9385459F13050010D2
:100AC000A1AEEFF24FE9B7070001938707F0E98F76
:100AD00021672A843289638CE7023D67638BE704D0
:100AE00019676397E706B73700209379F50F938767
:100AF000479FBE994E85EFF0AFEA5D3FAA844A86D4
:100B0000CE852285EF40103026856FF00FE8B73490
:100B100000209387C49A9379F50FBE994E85EFF024
:100B20002FE8130680049385C49A13050020ED2452
:100B3000F1B7373700209377F50F13078792BA97ED
:100B40003E85EFF0EFE5AA854A862285EF40902B9F
:100B500081445DBFEFF2CFE1054537340020130437
:100B60008492EF40A0210345C401EF90603883A533
:100B70008186EF80700623AAA1960345D401EF90E9
:100B8000203783A58186EF80300523A8A1960345F1
:100B9000E401EF90E03583A58186EF80F0030357F1
:100BA000040123A6A1963307E7029387C18A98C35D
:100BB000035724013307E702D8C365216FF08FDDA7
:100BC000EFF20FDB373400201306100BFD55130531
:100BD000449FEFF04FDEE1359307449F83C7070141
:100BE0001304449FFDC3930700F82300F400E97742
:100BF0008D072319F4008547A30DF4009307C0FC6B
:100C0000A30EF4029567938747CC231FF4022312A7
:100C1000F404371780CC93076404130707803E85DC
:100C200025469305D40338C0EFF08FD7373732FF0E
:100C30001307271338C87D57231AE4040D673D07AF
:100C40002313E40837B790D993040408130717E671
:100C500098C4371754411307474DD8C43757C7793D
:100C60001307574198C8373736631307C7399305B9
:100C70000504494613058409D8C8EFF06FD2B707B9
:100C80008BFF9387B7051CD0B70700409387671980
:100C90005CD0B74700401CD4B707BEFFF5075CD453
:100CA000B7073C34B9171CD8B7373B349387B743E1
:100CB0005CD8C167938707D59CC08567938767FC1D
:100CC0002312F40823080400E533930700F82300F7
:100CD000F400E9778D072319F4008547A30DF4008C
:100CE00037340020130680049305C49A13050020AE
:100CF000592A9307C49A03C7070015C32147A38045
:100D000007002381E700A38107002382E700A38275
:100D100007002383E700A38307002384E700B73499
:100D2000002013064008FD5513858492EFF0AFC8EC
:100D3000B93383C7849213848492858BD5C71306F5
:100D40004008814513858492EFF0EFC6856793874D
:100D500087802312F4001167B73700209387279309
:100D6000130787832390E7002391E700373500209E
:100D7000B737002061779387E7921307070811467A
:100D800093050006130595942390E7002391E7004F
:100D9000EFF06FC28547A302F402FD472303F4027C
:100DA0009307606D2317F400B7077805938787577B
:100DB0001CC801478D45FD567D46B307B7020507A0
:100DC000A297A383D7022384D702A384D702E31672
:100DD000C7FEB7877F029387F7F75CCC8D67938751
:100DE000470D231AF4006531B53303475400B72784
:100DF000002093878780A380E7020347440037459C
:100E0000002019462384E702930564011305258217
:100E1000EFF00FB96FF00FB8EFF2EFB3B7F70008CC
:100E20003304F5003307C400B7070108637BF704F8
:100E30002E8A2285930500103289EF50605A11479F
:100E4000AA848947631CE502B73900201306001005
:100E5000FD55138589AAEFF00FB64A86D285138512
:100E600089AAEFF0EFB313060010938589AA2285B3
:100E7000EF50A0688D476313950081473E856FF062
:100E8000CFB08547E5BF37F70008AE87B305E5006B
:100E90003387C500B7060108637CD700094599CBA5
:100EA000EFF20FAD3E85EFF0AFAF01456FF08FAEC3
:100EB000054582808280AA872E8563D3B7003E8550
:100EC0008280EFF2EFAA4111AA8511466800EFF087
:100ED0002FAD324541016FF0EFABAA872E8563C677
:100EE000B7003E856353F60032858280EFF24FA84B
:100EF0007971614681452808EFF0EFAB014502C6E4
:100F000002C802CAEF50903E371501409307A00374
:100F10006C0013050580372401402316F10002CA36
:100F2000EF50406F13050440EF40F07485473ECE0C
:100F30003ED0B7070E003ED22C089147130504405F
:100F40002306F10202CC02D4EF40907585451305CB
:100F50000440EF40F07A854513050440EF40507996
:100F600013050440EF40F07A930404402685EF40D7
:100F7000F07A6DFD1305044037240140EF40907A6C
:100F8000930404402685EF40907A6DFD13050440DC
:100F9000EF506007239AA18A45616FF0AF9FEFF28F
:100FA0008F9B79712A84AE89328981451306C002EC
:100FB0004800B684EFF02FA02285EF50E01C930785
:100FC00000083ECC930700103ECE930700403ED071
:100FD000930700023ED24C008D6722854EC24AC460
:100FE00026C83ED402C602CA02D6EF50E0274561A9
:100FF0006FF0AF99EFF2CF97D53D37240140B7049A
:1010000002409305C4441385840091461386818B66
:101010007937130504409D4605468545EF403073FA
:10102000130504409D4609469545EF40507213054F
:1010300004409D460D468D45EF4070719D4611461A
:10104000130504409145EF40907013858400854559
:10105000EF500025854513050440EF40D06D6FF03B
:101060006F93C16637370020930787BA138606103F
:10107000D0D71386160093860604D4C3B716020091
:1010800094C3B706020013858600E8C313850602E1
:10109000A8C36165E8C713850601A8C713850620A4
:1010A000A8CF3725040088CF13850610E8CF374531
:1010B0000400C8CF1385060488D33785040090D771
:1010C000C8D3938606083785020037260200B74545
:1010D000020088DBD4DBD0C78CC7B737002083C6BB
:1010E0008792930787BA13F5060119C1CCC790C739
:1010F00013F7860001CB37170200D8C341671307E7
:10110000070498C3918A89CA23A2070423A007046D
:1011100023A6070423A407048280EFF26F85411100
:101120008937930780043EC6B7370020138487BAF7
:1011300002C202C493040406938787BA814601471A
:10114000C16590433375B60009C5518F420741838D
:1011500085469107E39797FE99C22312E100371560
:1011600001404C0013050580EF50C04A228723122E
:10117000010081468147B705020010433375B60070
:1011800009C5D18FC207C18385461107E31797FEB2
:1011900099C22312F100371501404C00130505C018
:1011A000EF504047014723120100814737060400F2
:1011B0001440B3F5C60089C5D58FC207C183054762
:1011C0001104E31794FE19C32312F1004C003715E4
:1011D0000140EF50204441016FE0DFFBEFE2DFF61A
:1011E0003719014037340020130B09C0130484BAA7
:1011F00081448149370A0700B70A0200B70B04008F
:10120000416C130909800C40B3F74501638A570309
:10121000638C7703054563978701C205C1814A85C1
:10122000EF50204B1335150033159500E147850429
:10123000B3E9A9001104E398F4FC4E856FE05FF474
:10124000C205C1815A85E9BFC205C1813715014078
:10125000C1BFEFE2FFF1B7070700E98F37070200D0
:10126000AA856384E702370704006388E7024167C1
:101270000545639AE700C20537150140C181130592
:101280000580EF5000456FE0FFF09315050137151D
:101290000140C181130505C0EDB793150501C1815A
:1012A00037150140F9BFEFE2BFEC79712A8485451B
:1012B000314502CA02CC02CE02D002D202D402D6FA
:1012C00002C402C623180100EF50901163100412EB
:1012D00085450945EF50B0123715014061478D47EC
:1012E0004C08130505C03ACE37040040231AF1001C
:1012F0003ECCEF5020329307005A2C0013050440D7
:101300003EC602C4EF501021054685451305044032
:10131000EF507046C167938707060C101305044011
:101320003ED02313010223140102EF5030260C108B
:1013300013050440EF50102E0C1013050440EF501D
:101340007038854513050440EF509041A1451305C1
:101350000440EF509045A14513050440EF5010465E
:10136000A14513050440EF501047A1451305044063
:10137000EF509047814513050440EF5030419305ED
:10138000002D13050440EF50D0479305002D1305A1
:101390000440EF5070479305002D13050440EF50B3
:1013A00010479305002D13050440EF50B046EF00A1
:1013B000D0039307D0122310F10099472301F100C5
:1013C0000A8585473EC2EF50E05B8967938727E730
:1013D00037E700E07CC3B207B183B706002DD58F95
:1013E0003CD7854513050440EF50D03545616FE08B
:1013F0007FDAAA8537050040130505406F50903409
:101400002A883A850947630AE8000D47630EE80019
:101410003285630508023685828063C1A5022E8568
:1014200063DCB7003E8509A82E96420641866347D5
:10143000A6003285E3C8C7FE420541858280194770
:101440003305E502B7070020938707002E86014782
:1014500081463E958315250003450500930700103E
:1014600045B719473305E502B70700209387070002
:101470002E861307000C930600103E958315450039
:101480000345150093070014A5BF1387C18C1443AF
:10149000B737002058430E05938787C0AA9794C397
:1014A000D8C38280EFE2DFCC834435001384C18C43
:1014B000831504008580FD882A8926854937831590
:1014C00024002310A4002685693F83443900834704
:1014D000290083154400858891839204DD8C2311B3
:1014E000A4002685A93F831564002312A400268545
:1014F0008D3F2313A4000145493F0547A38AE18C92
:101500006FE05FC9EFE2DFC6034735008347250080
:10151000370600201377F70393D677000607558F19
:10152000931517009306061CAE96839506001306C6
:10153000061C2396B18C9386C18C89C5B7250020E3
:1015400023A6E58A3707002093F7F7071307070C50
:101550008607BA9783D707002391F60083471500C3
:1015600093F7E70F3E968357060003460500239244
:10157000F6008347150009820145858B9A07D18FB4
:1015800086073E97835707002393F600FD3D0547E6
:10159000A38AE18C6FE01FC0EFE29FBD8347350057
:1015A000834625000347050093F7F7039D828607CE
:1015B00013764700D58F058BAA841384C18C8607C8
:1015C0006309070C630D060A370700201307070C91
:1015D000BA9783D707002313F40001457D3503C96B
:1015E000240083150400135929001379F9014A8551
:1015F000B935831524002310A4004A859D3503C9FD
:10160000240083C71400831544001379390095839F
:101610000E093369F9002311A4004A850D3583159D
:1016200064002312A4004A852D3D2313A400054520
:10163000A93D03C91400831504001379F9014A85F3
:10164000FD3B831524002310A4004A85193D83C463
:101650000400831544002311A4008D802685C53322
:10166000831564002312A4002685E53B2313A40000
:101670000945213D0D47A38AE18C6FE0BFB13707D3
:1016800000201307071CBA9783D707002312F40022
:10169000A9B719CA370700201307070CBA9783D7D1
:1016A00007002311F40015BF370700201307071C9C
:1016B000BA9783D707002310F40005B7EFE25FABBA
:1016C000034935001384C18C831504001359190094
:1016D0001379F901AA844A859D33831524002310C8
:1016E000A4004A85BD3B03C9340083C72400831589
:1016F000440013791900918312093369F900231109
:10170000A4004A852D3B831564002312A4004A855A
:10171000893B2313A40001458D3B03C9240083C7E3
:101720001400831504001379F9009D8306093369B9
:10173000F9004A852933831524002310A4004A8523
:101740000D3383C41400831544002311A400898041
:10175000FD882685ED31831564002312A4002685BB
:1017600009332313A40005450D330947A38AE18CEF
:101770006FE05FA2EFE2DF9F8347350083442500DF
:101780003707002093F7F70393D674008607D58FA9
:101790001307071C8607BA970347050083960700BF
:1017A000B70700201376E70F9387070CB29789805D
:1017B000058B839707002A89FD881384C18C35CF58
:1017C0008315040026852312D4002313F4008539E1
:1017D000831524002310A400268561312311A40061
:1017E00001456531834429008347190083150400AE
:1017F0008D8895838E04DD8C268591318315240098
:101800002310A4002685B1398344190083154400B0
:101810002311A400FD882685EFF07FC283156400A4
:101820002312A400268535392313A4000545B139B8
:101830000947A38AE18C6FE0FF9583154400268554
:101840002310D4002311F400EFF07FBF8315640050
:101850002312A4002685EFF0DFC02313A40049B7AC
:10186000EFE21F91034935001384C18C83150400F6
:10187000135919001379F901AA844A85EFF03FBC86
:10188000831524002310A4004A85EFF09FBD03C9EF
:10189000340083C724008315440013791900918311
:1018A00012093369F9002311A4004A85EFF03FB90A
:1018B000831564002312A4004A85EFF09FBA231316
:1018C000A4000145EFF07FBC03C9240083C71400C6
:1018D000831504001379F9009D8306093369F90023
:1018E0004A85EFF0DFB5831524002310A4004A8554
:1018F000EFF03FB703C91400831544002311A4007F
:10190000135929001379F9014A85EFF05FB3831564
:1019100064002312A4004A85EFF0BFB42313A4008F
:101920000545EFF09FB603C9140083C70400831573
:1019300004001379390095830E093369F9004A854B
:10194000EFF0FFAF831524002310A4004A85EFF0C9
:101950005FB183C40400831544002311A400FD88F3
:101960002685EFF0DFAD831564002312A4002685E1
:10197000EFF03FAF2313A4000945EFF01FB10D476F
:10198000A38AE18C6FE01F81EFE28FFB03473500F4
:10199000238A018CA38A018C198389462E84630EC5
:1019A000D70E8D466308D71085466310D7020347CC
:1019B000150083472500834605002207BD8B558F00
:1019C000C207D98FF9E3EFF0FFAD03C5518D0D4686
:1019D0008145B7340020EFF04FD0370C0020B73CE2
:1019E0000020938B84C0A38AA18C014D938484C072
:1019F000938A418C130C0C2C938C8C92930D0014B5
:101A000037992F50A54983C7518D6347FD0A8347F6
:101A100034000547238AE18CA38A018C9983894687
:101A20006386D7128D466382D7146392E702034719
:101A3000140083472400834604002207BD8B558F82
:101A4000C207D98F639B070E2285EFF0BFA503C5A0
:101A5000518D0D468145EFF04FC8B70A0020373B46
:101A60000020A38AA18C814B1384418C938A0A2C79
:101A7000130B8B92130C001437992F50A54983C771
:101A8000518D63C7FB0E6FE06FEF8D8A81E6EFF03B
:101A90007FA725BFEFF05FB00DBF83471500034759
:101AA00005008D8BA207D98F81E7EFF03FC131BFD1
:101AB000D13121BF753311BF03974B0083C76C0031
:101AC00081460A07629718434A85CE85B387E702A5
:101AD000050DA10BAD8323A2FA008397EBFF8A07C4
:101AE000E29790433386CD020506EF50007E23A097
:101AF000AA00D68501459D2A03978BFF83C78C00DA
:101B00001306000A0A076297184381464A85B3877D
:101B1000E702CE85AD8323A2FA008397ABFF8A0745
:101B2000E2979C433306F6020506EF50007A23A0A5
:101B3000AA00D68509451D2AF9B58D8A228581E638
:101B4000EFF05F9C29B7EFF03FA511B78347140072
:101B50000347040022858D8BA207D98F81E7EFF020
:101B6000FFB5F5B5EFF01FC1DDB52285D539C5B597
:101B70000397440083477B0081460A075697184322
:101B80004A85CE85B387E702850BA104AD835CC08F
:101B90008397E4FF8A07D69790433306CC02050665
:101BA000EF50A07208C0A2850545C920039784FFA5
:101BB00083479B001306000A0A075697184381467D
:101BC0004A85B387E702CE85AD835CC08397A4FFC7
:101BD0008A07D6979C433306F6020506EF50E06E5F
:101BE00008C0A2850D45592059BDEFE26FD8B73521
:101BF000002037350020A14613060002938505F228
:101C00001305051DEF20D052B735002037350020D1
:101C1000A14613060002938505E213050514EF2083
:101C20003051B735002037350020A1461306000299
:101C3000938505D21305050BEF20904FB735002093
:101C400037350020A14613060002938505C213050F
:101C50000502EF20F04D85472382F190A382F19099
:101C60002383F190A383F1906FE0CFD2A1CDEFE277
:101C70002FD089476303F50263ECA70015E53735DC
:101C80000020814621461305051DEF20D04E21A0DE
:101C90008D476302F5026FE0EFCF373500208146B4
:101CA000214613050514D5B7373500208146214656
:101CB0001305050BD9BF3735002081462146130592
:101CC0000502E1B78280EFE2AFCA83C771909DCF72
:101CD000373500209307051D83A6870885CA83C76B
:101CE0004708B7360020938606F28E07B6979443CE
:101CF000DC43A3830190138741921305051D5CC348
:101D000014C3EF20D0500547A385E19083C76190AD
:101D10009DCF373500209307051483A6870885CA11
:101D200083C74708B7360020938606E28E07B6972A
:101D30009443DC43238301901387C1911305051459
:101D40005CC314C3EF20B04C05472385E19083C7E3
:101D500051909DCF373500209307050B83A6870848
:101D600085CA83C74708B7360020938606D28E07F8
:101D7000B6979443DC43A3820190138741911305E6
:101D8000050B5CC314C3EF2090480547A384E19082
:101D900083C741909DCF373500209307050283A666
:101DA000870885CA83C74708B7360020938606C2CE
:101DB0008E07B6979443DC43238201901387C1902A
:101DC000130505025CC314C3EF2070440547238448
:101DD000E1906FE02FBC15CE9841E1679387076AC9
:101DE0003E9798C16374C70001458280B356C7020D
:101DF000835705003377C702B697C207C183231004
:101E0000F50098C113D7B70065D393F7F77F231078
:101E1000F50005458280EFE2AFB5B737002083C7F4
:101E200087922A87368493F707042E855443B28518
:101E300095C3854781CE1043793F814701C983A768
:101E4000818D818F93B7A70F93C7170013F5F70FF5
:101E50006FE04FB499EA03A5818D018D1335A50F6D
:101E6000134515001375F50FE5B71043AD3765F54C
:101E7000D5BF37050040797185451305054022D649
:101E800026D44AD24ED052CE56CC5ACA5EC862C66A
:101E900066C46AC26EC0EF50001985476318F51C0E
:101EA00003A4818D83A4818E2A890504138541941E
:101EB000A6861386818F9385219023AC818CA13FC8
:101EC000938A41941DC503C7B1906300071CA38585
:101ED0000190938741929843DC432391019023A082
:101EE000EA0023A2FA0023AC018EA383219123A44C
:101EF000818E03A9418E1385C193CA861386418FB3
:101F000093850190093F9384C19315C503C7A190A0
:101F100063070718238501909387C1919843DC4399
:101F20002390019098C0DCC0054723AA018E23832B
:101F3000E19023A2818E03A9018E13854193CA8665
:101F40001386018F9385E18FF9359389419305C9F4
:101F500003C79190630F0714A38401909387419165
:101F60009843DC43239F018E23A0E90023A2F900BC
:101F7000054723A8018EA382E19023A0818E83AC24
:101F8000C18D1385C192E6861386C18E9385C18F5C
:101F900059351389C19205C903C78190630507129A
:101FA000238401909387C1909843DC43239E018E44
:101FB0002320E9002322F900054723A6018E23826E
:101FC000E19023AE818C83D7219037040020130445
:101FD000047C8607A2970395070083A74A00D84090
:101FE000930A002D3305F50283D701901306005A9A
:101FF00081458607A29783970700B7040040938422
:102000000440B387E7023E95330555035185130518
:10201000052DEFE09FEC42054181239EA40283D76A
:10202000E18F0327490081458607A29703950700A2
:1020300083A749001306005A3305F50283D7C18FE1
:1020400086073E9483170400B387E7023E95330565
:10205000550351851305052DEFE03FE84205418109
:102060002390A40485452685EF40B07D3254A254C8
:1020700012598259724AE24A524BC24B324CA24C1C
:10208000124D824D4561730020308567B304944042
:1020900093877738E3FF97E423A20A0099BD856709
:1020A0003309244193877738E3F727E923A2040013
:1020B00059B585673309244193877738E3F127EDD4
:1020C00023A209006DBD8567330494419387773857
:1020D000E3FB87EE23220900FDB5EFE26F89AA85B5
:1020E0003765004013050580EF40B0051335150036
:1020F0006FE04F8AEFE2CF87AA853765004013056E
:102100000580EF4070021375F50F6FE0AF883767F9
:1021100000408357478113070780A183A386F1946A
:1021200083574701C207C18393F707F0C207C183F2
:10213000231AF70073002030EFE2EF81376500408B
:102140004111814513050580EF40E07037140140CF
:10215000930700400D49D1494C00130504C03EC20D
:102160004AC44EC68564EF40E04A938404804C0024
:10217000130504C04EC64AC423129100EF408049A3
:1021800093050040130504C0EF40A055A685130534
:1021900004C0EF40C0540545EF20F06E93050040A9
:1021A000130504C0EF40A0530545EF20D06DA68570
:1021B000130504C0EF40E0520545EF20D06CA9495B
:1021C000130A04C00569930500405285EF40605131
:1021D000A6855285EF40A0500545EF20D06A9305B3
:1021E00000405285EF40A04F0545FD19EF20B06932
:1021F000E39B09FC130504C093050040EF40604ECB
:1022000093050980130504C0EF40A04D0545EF205C
:10221000906793050040130504C0EF40404C05450E
:10222000EF20706693050980130504C0EF40204B32
:102230000545EF20506591474C00130504C03EC68C
:10224000EF40403D93050980130504C0EF4060480E
:1022500041016FD09FF3EFD2BFF137640040814559
:1022600013050480A3870194EF40E05E130504800A
:10227000EF40204AEFF05FEC83C7D1945D8D13757A
:10228000F50F01C937350C0001468145130505508E
:102290002920EF2050586FD0FFEFEFD2DFEB011174
:1022A000AE842A8985452545328402C202C402C60D
:1022B00002C802CA02CC02CEEF4090128545370513
:1022C0004000EF40D013371A014093090040714B92
:1022D0008D4A4C0013050AC0231231015AC656C458
:1022E000EF4040338567938707804C0013050AC091
:1022F0002312F1005AC656C4EF40C031B707004060
:10230000231C9100B76400403ECA0C0891671385F6
:102310000480231EF1004AC8231D3101EF40804292
:10232000854513850480EF40005309651306800C32
:10233000B70502001305A50DEF20305109C909C8E2
:10234000854513850480EF40605AEFF0DFF00544C7
:10235000A387819405616FD05FE383C7F194638C99
:102360000712EFD25FDF37640040AA8A2E8A130576
:1023700004808545EF40A05309651306800CB7051E
:1023800002001305A50DEF20504C83C7D19413759F
:10239000F50FC98F91C705472387E1946FD0FFDE02
:1023A000854513050480EF40C04CB7090300096957
:1023B0001306800C938519001305490FEF20F04890
:1023C00083C7D1941375F50FC98F99C30947E9B72E
:1023D00001469305400D13050480EF402050370B54
:1023E00007001306800C93052B081305490FEF20F7
:1023F000D04583C7D1941375F50FC98F99C30D4785
:1024000061BFD68513050480EF40404C1306800C55
:1024100093054B081305490FEF20304383C7D19430
:102420001375F50FC98F99C31147BDB7D285130531
:102430000480EF40C047854513050480EF406043AA
:102440001306800C938519001305490FEF20F03F08
:1024500083C7D1941375F50FC98F99C315472DBF45
:1024600005469305400D13050480EF4020471306F1
:10247000800C938529001305490FEF20103D9377B9
:10248000F50F03C5D1945D8DE30A05F099462387C6
:10249000D1943E8521B705458280EFD2DFCB2E89CE
:1024A0001375F50F8145EFF05FEB83C7D194238659
:1024B000A1945D8D1DE5B705030009651306800C29
:1024C000938505041305450FEF20303883C7D19459
:1024D0001375F50F2386A1945D8D19C525472387B4
:1024E000E194EFF05FD725A0B7690040138509801C
:1024F000EF40203E2300A900854513850980EF4069
:10250000203983C7C19403C7D194D98FF9FB03C580
:10251000C194B7370020238BA79A6FD01FC7EFD283
:10252000BFC285476316F600EFF03FF76FD05FC577
:102530002E8985453284EFF05FE2AA8435E17D146F
:10254000370A0300856AB76900401374F40F130A51
:102550000A04896B938A0A80938909809307F00F94
:102560006303F4021306800CD28513854B0FEF2012
:10257000D02D83C7D1941375F50FC98F95C71D470B
:102580002387E194AA8437650040130505808545BB
:10259000EF40003083C7D194C58F13F5F70F59D59D
:1025A000EFF07FCB268559B785476316F400D685B3
:1025B0004E85EF4000354E85EF40A0317D1423005D
:1025C000A9001374F40F050951BF83C7F19491E377
:1025D0008280EFD25FB8AA8A09654111AE891306DD
:1025E000800CB70502001305A50DEF20102683C748
:1025F000D1941375F50FC98F8DC329472387E194B3
:1026000083C7D194C98F93F7F70F89C72AC6EFF014
:102610009FC4324541016FD05FB73769004085459F
:1026200013050980EF40E024B7050300096A13068B
:10263000800C850513054A0FEF20302183C7D19404
:102640001375F50FC98F99C32D474DBF01469305EB
:10265000400D13050980EF406028370B0700130673
:10266000800C93052B0813054A0FEF20101E83C71B
:10267000D1941375F50FC98F99C3314741B7D685EA
:1026800013050980EF4080241306800C93054B0846
:1026900013054A0FEF20701B83C7D1941375F50FF4
:1026A000C98F99C3354799BFCE8513050980EF407F
:1026B000E0211306800C93054B0813054A0FEF2009
:1026C000D01883C7D1941375F50FC98F99C33947B3
:1026D00035B7130509808545EF40801B01450DB7CF
:1026E00037350C0005468145130505506FF0FFBADC
:1026F000EFD21FA841112E849305F1002A89B284DC
:10270000EFF0BFD909ED8347F10093C4F4FF4A8588
:10271000E58FB365F400A307B100EFF01FEB4101B3
:102720006FD05FA7EFD2DFA4938541957945EFF095
:10273000DFD609CD83A78196850723A4F19683A7C9
:102740004196850723A2F1966FD0DFA483C74195F8
:102750000D4709458D8BE399E7FE83A78196B73531
:102760000020314685079385852B1305200223A47D
:10277000F196EFF0DFDA69D983A741960545850721
:1027800023A2F196D1B7EFD2BF9E19441306F00FE2
:1027900085454945EFF0DFF509C57D141374F40F45
:1027A00075F42945EF20301019441306F00F9305F6
:1027B00000084D45EFF0DFF309C57D141374F40FE5
:1027C0006DF419441306F00F9305E0084145EFF04E
:1027D0003FF209C57D141374F40F6DF41944130608
:1027E000F00F9305C0054545EFF09FF009C57D1436
:1027F0001374F40F6DF419441306F00F930540049D
:102800004945EFF0FFEE09C57D141374F40F6DF424
:1028100013351500A38CA1966FD0DF97EFD25F958B
:102820001306000F81454145A38C0196EFF05FEC44
:102830001306000F81454545EFF09FEB6FD09F9544
:102840008280EFD2FF8F83C7C19513075002B7393B
:102850000020B387E702373400201387092641118F
:102860009386092636C6BA970307849223ACF1945F
:10287000635D07001306400281453E85EFD0BF939C
:10288000EF30A03A41016FD07F8F83C7F194FDDB19
:1028900083C78197E5DB83C7A1971304849281E7FF
:1028A0008D47238DF196EF2000778347F40003A72F
:1028B00001968346E400A2073307E540D58F2A8BB3
:1028C000E362F7FCEFF01FE655FD373C0020930C68
:1028D0004C2C373700201307872B13868C01930766
:1028E0004C2C93044C2C9443831507000907AE9697
:1028F00094C39107E399C7FE03C4D19503A701953B
:1029000005041374F40F8567A38E819423A0619747
:102910003307EB4093877738E3F6E7F68840373D97
:102920000020EF70E05C83A54197EF60706CEF7062
:10293000205688C0C840EF70A05B83A50197EF6068
:10294000306BEF70E054C8C08844EF70605A83A5C4
:10295000C196EF60F069EF70A05388C49304CD2A4C
:102960001386C4001307CD2A814719C483A70C001E
:10297000B3C78702C207C1872310F7000907910C6C
:10298000E314C7FE6146814513054C2CA38E0194C8
:10299000EFD07F8203A48195194623A86195130C7B
:1029A000C400E2852285EFD0AFFF130B84011946E6
:1029B000DA856285EFD0CFFEB735002019469385C2
:1029C000E52B5A85EFD0CFFD83C781970547639EDE
:1029D000E70899676977138664009387871A130756
:1029E00087E58396040063DDD7062390F40089040D
:1029F000E399C4FE930424011946A68513056400D7
:102A0000EFD00FFA79041946A2852685EFD04FF949
:102A100019469305CD2A2285EFD08FF883C7A19759
:102A2000FD1793F7F70F238DF196E39D07E403A5B8
:102A30008195EF30801F03C5C1959307500213069F
:102A4000500213351500238EA1943305F502B247C9
:102A500081453E95EFD02FF68D47238DF1961DB51C
:102A6000E3D7E6F82390E40059B70947E398E7FA7B
:102A70002285EF00E0665DB7EFD2EFED832A050017
:102A8000032A45002A84832985000329C500D685A9
:102A90005685EF60F055AA84D2855285EF60505577
:102AA000AA852685EF60C05CAA84CE854E85EF603E
:102AB0003054AA852685EF60A05BAA84CA854A8522
:102AC000EF601053AA852685EF60805AEF40206A98
:102AD000AA8503A5C186EF603010AA84AA85568511
:102AE000EF60105108C0A6855285EF60705048C055
:102AF000A6854E85EF60D04F08C4A6854A85EF6055
:102B0000304F48C46FD06FE8EFD20FE4832BC5007D
:102B1000C445832A050083A90500032A450003ABA9
:102B200045000329850003AC85002A84A6855E85BF
:102B3000EF60104CAA8CCE855685EF60704BAA854D
:102B40006685EF607078AA8CDA855285EF60504A0E
:102B5000AA856685EF605077AA8CE2854A85EF608A
:102B60003049AA856685EF60307648C4CE855E859B
:102B7000EF601048AA8CD6852685EF607047AA853D
:102B80006685EF60E04EAA8CE2855285EF60504684
:102B9000AA856685EF60C04DAA8CCA855A85EF600C
:102BA0003045AA856685EF60307208C0DA855E859B
:102BB000EF601044AA8CE2855685EF607043AA85C9
:102BC0006685EF607070AA8CD2852685EF605042D2
:102BD000AA856685EF60C049AA8CCA854E85EF60DC
:102BE0003041AA856685EF60A04848C0E2855E85D1
:102BF000EF601040AA8BDA855685EF60703FAA859A
:102C00005E85EF60E046AA8AD2854E85EF60503E31
:102C1000AA855685EF60506BAA89CA852685EF6024
:102C2000303DAA854E85EF60A04408C46FD04FD5D3
:102C3000EFD20FD12A8403A501987971AE843305B0
:102C4000A640328AEF60C03BAA8903C5140083C73F
:102C500004002E8922055D8D4205418523A04199FE
:102C6000EF6000334E86CA86EF50806A03A6018368
:102C700083A64183EF50C0692A8D03C5340083C702
:102C80002400AE8C22055D8D42054185EF60403009
:102C90004E86CA86EF50C06703A6018383A6418390
:102CA000EF5000672A8C03C5540083C74400AE8BE5
:102CB00022055D8D42054185EF60802D4E86CA86D6
:102CC000EF50006503A6018383A64183EF50406463
:102CD0002A8AAE896A86E6866A85E685EF50406371
:102CE0002A89AE846286DE866285DE85EF50406288
:102CF0002A86AE864A85A685EF4030182A89AE849A
:102D00005286CE865285CE85EF5080602A86AE866A
:102D10004A85A685EF4070162A86AE862A89AE843B
:102D2000EF50005F03A6818383A6C183AE8D2AC6C0
:102D3000EF50200303A6018483A641842A8BAE8A28
:102D40004A85A685EF50E0012A86AE865A85D6854B
:102D5000EF50B03003A6818483A6C184EF40F01108
:102D60002A8BAE8A2A86AE866A85E685EF50405A5F
:102D7000EF70C0245A86D6862ACADE856285EF5057
:102D80002059EF70A0235A86D6862ACCCE8552854C
:102D9000EF500058EF708022B24703A6018583A64A
:102DA00041852ACEEE853E85EF40B07B03A6818526
:102DB00083A6C1852A8AAE894A85A685EF504055EB
:102DC0002A86AE865285CE85EF50302903A601862D
:102DD00083A64186B7140020EF40300AEF70001E32
:102DE0004C082AD01385047CEFF01FD21385047C95
:102DF000EFF09FC883471400034704009384047CCA
:102E0000A207D98F2398F400834734000347240096
:102E1000A207D98F2399F400834754000347440045
:102E2000A207D98F239AF40045616FD02FB5EFD256
:102E3000AFB183C76500B7340020AA89F19B93E73F
:102E400027002383F50003C7A1978D472E84938421
:102E5000842E6312F702EF20801D23AEA19623A0DB
:102E6000040023A2040023A4040023A60400239842
:102E70000400A38D019603C5B19799471946130A1B
:102E800015003305F502137AFA0FA38D41973739F0
:102E900000209305C92A2695EFD08FB08D47631C7B
:102EA000FA2283476400370B0080854ACD9B2303B9
:102EB000F4007D1B914B034A640093972A00CE9740
:102EC00088439377CA00CE978C4333756501B3F579
:102ED0006501EF60007F635BA00093F73A008A070B
:102EE000137A3AFF336AFA0023034401850AE39414
:102EF0007AFD03A5090093050000EF60F005635E0D
:102F0000051C83AB018703AC4187373A0020938AC5
:102F10004900130BCA2DC109130ACA2D03A50A00C3
:102F2000E285910AEF60D00CDE85EF60700CEF60F7
:102F300030762320AB00110BE39259FF83270A0060
:102F4000034764001309C92AA98793F6F70092067C
:102F50003D8B558F2303E40013D74700A303E40000
:102F600013D7C7002304E40003479400D183858B63
:102F7000799BD98FA304F40083274A000347940068
:102F8000A98793F6F7078606058B558FA304E400FF
:102F900013D777002305E4000347B400BD8393F7FC
:102FA000F703137707FCD98FA305F40083278A0062
:102FB0000347B40093D6A7409A061377F703558FBB
:102FC000B187A305E40013D78700A309E40003D762
:102FD000C197039804002309F4002301E40221832C
:102FE000A301E40203474402C1839D8B137707FCCE
:102FF000136737002302E40203170900B3060741F1
:1030000013F6860FD18FA182230AF400A30AD400FD
:10301000031629008398240083467401B3071641E0
:103020008D87230BF400A183819AFD8BD58FA30B91
:10303000F400831649000395440083457401B38767
:10304000A64013D337401603FD89B3E56500A30BF3
:10305000B40003936400998793D58700230FF4008D
:10306000B30707019A977558B3C7070313F73500DD
:103070009A97A58713F3F7030A0333676700A30F33
:10308000E400034704029983858B799BD98F230041
:10309000F40203978400B3071601BA97B3C7070376
:1030A000BA9703470402A5878607058BD98F2300AB
:1030B000F4020397A400B387A600BA97B3C7070327
:1030C000BA9703471402A58793F7F707137707F812
:1030D000D98FA300F4026FD0AF8A83ABC18625B528
:1030E000EFD20F89EF1030732A86B73500203735BD
:1030F00000209385C52A1305252BEFF07FB383C7E6
:10310000C19513075002B7350020B387E7029385B6
:103110000526371500201305057CBE95EFF03FD13D
:103120006FD04F8783C7019A89EBEFD26F84EFE0AE
:10313000EF8A23A0A18C6FD0EF85014523A0A18C3D
:10314000828031C9EFD2CF822A84EFF0BFFD03C75E
:10315000018C2300E40003C7118C83C7218CA300DA
:10316000E4002301F40083A7C199A301F40013D75D
:103170008700C183A302F40083A781992302E4009E
:103180002303F40013D78700C183A303E4002304BF
:10319000F4006FD02F808280EFC2FFFBB734002095
:1031A0009387849203C757028946328A9384849214
:1031B000931716006305D7108D46630BD71285460B
:1031C0006318D7029356F54133C7A600158FB3860F
:1031D000F40003C61602635DC70013D6F54183C62B
:1031E00026023347B600118F6354D700814501454D
:1031F000A6978389A7000389B70083C75401B389C1
:10320000A90203C74401A207D98F3309B90293D990
:10321000594013595940BDCFB307290313172A004A
:1032200023860198338439033E949387C18ABA97E1
:103230009C436365F40085472386F198EF10B05DE9
:1032400011E10545E147B307FA023736002093063E
:10325000063193050631BE969C4289CF3307F5406F
:1032600083C7540103C64401A207D18F6369F70CD9
:1032700023A0060083C7C19891CFE147330AFA0221
:103280003386450100CA7D8423223601232426018A
:1032900040CA08C28564138504802A991386F4FF06
:1032A00081454E95EFD07FC32A841386F4FF814574
:1032B0004A85EFD09FC2320522956FC01FED93560D
:1032C000F54133C7A600158FB386F40083C61602F6
:1032D0006353D700014593D6F54133C7B600158F28
:1032E000B386F40083C62602E354D7F0814509B7BC
:1032F0003387F4001356F54103471702B346A6007F
:10330000918E63CCE602FD566343A00085463307E9
:10331000D7023A953387F40013D6F54103472702C5
:10332000B346B600918EE3C3E6FCFD566343B0009E
:1033300085463307D702BA9565BD0145E1BFD8423E
:103340009C463387E902B307F9023E97E35407F23C
:10335000904AD44A9357F441B307F602B3868602E3
:1033600033088602B69733368602B2970D46B30706
:10337000F602B3060603333606038D82B297139620
:10338000D701D18E3306E7028D873317E702E36357
:10339000F7EE6394E700E36FD6EC238601980149CA
:1033A0008149C9BDEFC2DFDC9387818B03D747001A
:1033B00003D5070083D52700B734002083D76700E3
:1033C000373400201304C49A9384043498C4034708
:1033D0004400DCC4834734002207834614005D8F19
:1033E0008347240088C0CCC0A207D58F998D0146A1
:1033F0001D8DEFF07FDA0347840023AEA198834749
:1034000074002207834654005D8F83476400CC44D8
:103410008844A207D58F0546998D1D8DEFF0DFD723
:1034200023ACA1986FC01FD783C7019A638507207B
:10343000EFC27FD237250200A3850198238501982A
:10344000EFD03FE13705020013050504EFD07FE020
:103450006317051C83C791988DC737370020130762
:1034600087928347070093C6070893F6060893F7E9
:10347000F707D58F2300F7008547A385F1982385AB
:10348000F198A384A19837850400EFD09FDC2A89A6
:103490006319051883C7819885CF37370020130734
:1034A00087928347070093C6F7FF93F6060293F7C8
:1034B000F7FDD58F2300F700958393C7170013F509
:1034C0001700EFD01FF38547A385F1982385F19866
:1034D000370502001305050823842199EFD07FD713
:1034E0006313051483C771989DC3373700201307F2
:1034F00087928347070093C6F7FF898AF59BD58F8C
:103500002300F7008547A385F1982385F198A383CD
:10351000A19837850200EFD0DFD32A896317051001
:1035200083C7619885CF373500208357C52F7977BA
:1035300013070708F98F93E70760231EF52E83C74B
:10354000119B1307C52F1305C52F93B71700A301B0
:10355000F700EF20600685472385F1984165130544
:10356000051023832199EFD0DFCE2A8969E183C733
:103570005198A1C3B7350020938785921385A7FF83
:10358000938585929306F00F03C7B70113061700C2
:10359000A38DC7006315D700FD17E397A7FE374536
:1035A00000201946D90513052582EFC07FBFEFD053
:1035B0000FCEB747002083C71782A3822199B5EBAE
:1035C00041650505EFD0FFC82A8925E583C74198E5
:1035D00085CB373500208327C52F37E7FF0013073A
:1035E0000708F98F3707000113075730D98F232EAB
:1035F000F52E1305C52FEF10307C85472385F198F4
:1036000083C7A1982382219981C70545EF100077D0
:1036100083C7B19899C3EFD08FC76FC01FB7054557
:103620008DB5054975B50545DDB5054905BF0549A4
:1036300049B70549F1B78280EFC29FB33705020051
:103640001105EFD01FC11DED83A741999DC7EF1054
:10365000101E83A741991D8D9307400663FDA700A7
:1036600083C7019A91E72D651305C555EF60904713
:1036700085472380F19A6FC0FFB1EF10501B23AA3A
:10368000A198D5BF2380019A23AA0198EDB7EFC274
:103690003FAE83A7C19A850723A6F19A81E7054724
:1036A00023A6E180EF10B01883A701996300F5020B
:1036B000EF10F01783A7C18083A60199958FAA9771
:1036C00023A6F180EF10B01623A8A198EFF0DFF643
:1036D000EFE06FDFEFF0EF96EFF01FD56FC09FAB1D
:1036E000EFC21FA92A84AA8513050020EF30404F9E
:1036F000A2850545EF30E04CA2850545EF3020500E
:10370000A2850945EF30A04FA2850565EF30404DF9
:10371000A2851165EF30C04CB7040240A285138525
:103720004404EF20F037A28513858405EF2050373D
:10373000A28513858400EF20B036A28537050040AE
:10374000EF30500037050040A28513050540EF30EB
:10375000607FB7440140A28513850480EF30B01923
:1037600022869305000413850480EF30501A6FC041
:103770007FA2EFC2FF9F371702401C43B706080025
:103780000111D58F1CC30545EF30603771651305F6
:103790000520EF30D01A374500201306500281452E
:1037A0001305C581EFC03FA12D651305C556EF6018
:1037B000703385457145EF30A042854513050020E3
:1037C000EF30004285450545EF30A03F8545054572
:1037D000EF30E04285450945EF306042854505659B
:1037E000EF30004085451165EF30803FEF109004C9
:1037F000EF1050012945EF10100BEFD06FBC68009F
:10380000EF302031EFD07F91EF10701BEF10501090
:10381000EFD04FFEEF109070EF10000AEF10405AFB
:10382000EFE01FECEFF0CF81EFE0FFF5EFC09FA4DA
:10383000EF306025AA850545EFC0BFAC05616FC0BC
:103840007F95EFC25F910545EF30C012EF10006B1E
:10385000EFF03FF283A541812D6513050558EF6018
:10386000F0133145EFD0FF9E2388A19AEF00903DE1
:103870000D6513052514EF20A030EF20603B03C534
:10388000019BB74400203744002013351500EFD0CA
:103890009FA1EF1060021304C4309384C481054BD0
:1038A000EF10D03CEFF01FB0EFF0DF8783A7018C63
:1038B00013D787002300F400C1832301F40083A7FA
:1038C000C199A300E400A301F40013D78700C183CA
:1038D000A302F40083A781992302E4002303F400E8
:1038E00013D78700C1832304F400A303E400EFF09F
:1038F0001FDA83C7A18991CF23826401EF20E044BE
:10390000EF20E033EF20A021EF10D01CEF20404942
:1039100041BFA382040023820400EDB78280834567
:10392000D5000345B5001306F00F6FE07FDC828001
:1039300082808280B73700209387073523A807024B
:103940002396070223A407028280EFC27F823734C6
:103950000020AA84EFF01FFE1309043589679387BE
:10396000071A130620029385B400130529002318B3
:10397000F434EFC0FF829307400213050435231689
:10398000F902EF00702C6FC0FF80EFC26FFE2A8437
:10399000EFF05FFA0347A4003735002093070535A1
:1039A000930600F8A380E700130505350D47238033
:1039B000D7002381E7002396E702EF00F0286FC0CD
:1039C0006FFDEFC24FF9AA84EFF0DFF603C7A40042
:1039D00083C9B400373A002093070A35930610F8DC
:1039E0002380D700A380E70023813701854713098F
:1039F0000A35638EF9008947638AF9048D471305F8
:103A00000A352316F902EF0030246FC00FF837444F
:103A100000201304C48119469385C4001305C40013
:103A2000EFC00FF819469305640013053900A30988
:103A30003401EFC0EFF6AD6561469385854E130501
:103A40009900EFC0EFF59307100255BFB74500206E
:103A500041469385058313053900EFC06FF4CD47C8
:103A600079BFEFC2EFF02A84EFF0DFECB737002028
:103A700083C77794ADCF0547638FE7060D4793075C
:103A80009004B71500209386C57E2380E600034787
:103A9000A40037340020A380F60093070435930672
:103AA00020F82380D700A380E700B7470020938742
:103AB000C7811387C57E9386A7FF9304043503C689
:103AC000B700FD170507A301C700E39AD7FE3146EB
:103AD0009385C57E13852400EFC08FECB94713058D
:103AE00004352396F402EF0030166FC0AFEA0D479D
:103AF0009307800479B711479307300359B7EFC292
:103B00002FE72A84EFF01FE30347B4008D469307A5
:103B100007FD93F7F70F63E6F600B7270020238829
:103B2000E78A0347A400373500209307053593063D
:103B300000F8A380E7001305053509472380D70067
:103B40002396E702EF0050106FC0CFE4EFC24FE2C0
:103B50002A84EFF03FDE8347A400B73400201384AB
:103B60000435B7150020130730F839469385C57D15
:103B7000130524002300E400A300F400EFC04FE28B
:103B8000C147138504352316F402EF00F00B6FC014
:103B90006FE0EFC2EFDD2A84EFF0DFD90347A40026
:103BA0003735002093070535A380E70005479306C6
:103BB00000F82381E700130505350D472380D70062
:103BC0002396E702EF0050086FC0CFDCEFC24FDA58
:103BD0002A84EFF03FD60347A4003735002093072F
:103BE0000535930600F8A380E700130505350D475A
:103BF0002380D700238107002396E702EF00D0043B
:103C00006FC04FD96FF09FFC6FF05FFC6FF01FFC2F
:103C1000EFC26FD44111AA84EFF0DFD19385B400D5
:103C20002E852EC6EFD0EFA983C7F4007547B245A5
:103C30002A8975446364F70013F4F70F83C7A4005F
:103C4000B739002037350020130700F99384093570
:103C50001546130525352380E400A380F400EFC04A
:103C60002FD4B73500202286938575354A85EFC05D
:103C7000BFDB1D041374F40F1385093523968402EA
:103C8000EF00807C41016FC04FD0EFC26FCE411179
:103C90002A84EFF03FCA1305B400EFD08FA2034689
:103CA000F40093050401AA8432C62EC4EFC07FE15C
:103CB0003246A2452685EF10F0140347A40037359D
:103CC000002093070535930600F8A380E70013054D
:103CD00005350D472380D700238107002396E7028F
:103CE000EF00807641016FC0EFCAEFC26FC82A842F
:103CF000EFF05FC40347A400373500209307053574
:103D0000930600F8A380E7001305053509472380D3
:103D1000D7002396E702EF0020736FC0AFC76FF0A4
:103D2000DFFC6FF09FFCEFC2AFC42A84EFF09FC0AE
:103D30000347A4003735002093070535930600F8A4
:103D4000A380E70013050535130740022380D70041
:103D50002396E702EF00406F6FC0CFC3EFC24FC1A1
:103D60002A84EFF03FBD0347A400373500209307B6
:103D70000535A380E70013050535094723800700B3
:103D80002396E702EF00406C6FC0CFC0EFC24FBE7A
:103D90002A84EFF03FBA0347A40037350020930789
:103DA0000535930600F8A380E7001305053559474C
:103DB0002380D7002396E702EF0000696FC08FBD14
:103DC000EFC20FBB2A84EFF0FFB60347B4003735CC
:103DD0000020A384E19A0347A400930705359306C6
:103DE00000F8A380E7001305053509472380D700B5
:103DF0002396E702EF004065B74700200547A38000
:103E0000E7826FC02FB9EFC2AFB62A84EFF09FB23E
:103E10000347A4003735002093070535A380E7004A
:103E200003C7919A930600FB130505352381E7002C
:103E30000D472380D7002396E702EF00E0606FC0B4
:103E40006FB5EFC2EFB22A84EFF0DFAE8347B40064
:103E5000373500202382F19A238CF1960347A40082
:103E600093070535930600F8A380E7001305053591
:103E700009472380D7002396E702F9236FC08FB14B
:103E8000EFC20FAFAA84EFF0FFAA03C7B4001385F7
:103E9000419A238CE19683470500373900201304AB
:103EA000093585EB83C7A40005472300E500A3007F
:103EB000F400130700F8930700142311F400230003
:103EC000E4008D47130509352316F402B52B6FC0A6
:103ED0006FAC11469385B4000505EFC06FAC83C786
:103EE000A400130700F82300E400A300F4008947AE
:103EF000D1BFEFC2EFA7AA84EFF0DFA303C7C400CE
:103F00009306000203C5B4009307000263E3E600D2
:103F1000BA8703C7A40013F4F70F37390020B73569
:103F2000002093040935930600FC228693854535CD
:103F30002380D400A380E400A381F4002381A400A3
:103F40001104EFE0CFDD1374F40F13050935239648
:103F50008402DD296FC00FA4EFC28FA12A84EFF085
:103F60007F9D0347B400B727002037350020238406
:103F7000E78A0347A40093070535930600F8A3805A
:103F8000E7001305053509472380D7002396E7028C
:103F900065296FC02FA0EFC2AF9D2A84EFF09F99D3
:103FA0000347A4003735002093070535A380E700B9
:103FB00013078061930600FD2391E7001305053583
:103FC00011472380D7002396E702BD296FC08F9C3D
:103FD000EFC20F9A2A84EFF0FF950347A40037350C
:103FE000002093070535A380E7005147930610FD95
:103FF0002381E700130505350D472380D70023965D
:10400000E70299216FC00F99B73700201167938796
:1040100047381307A79898C311671307279CD8C37D
:104020001167130727A698C711671307E7AFD8C70B
:1040300011671307C7B498CB1167130727B9D8CBFB
:1040400011671307C79198CF116713072793D8CF2C
:1040500011671307C7BC98D31167130707C1B8C30B
:1040600011671307A7C8F8C31167130747C0916604
:10407000B8C79386E6921387070814C391669386A0
:10408000A69454C391669386A6CE14C79166938670
:1040900086C014CB91669386C6C054CB9166938636
:1040A000E6D114D39166938666D254D391669386F3
:1040B000C6D514D791669386C6D854D79166938691
:1040C00006DC34C39166938666E074C3916693867A
:1040D000069334D3116793870710130727E498C317
:1040E0001167130707E8D8C311671307E79198C74B
:1040F0001167130727EFD8C71167130787F598D300
:104100001167130767F9B8C31167130727D2F8C3FC
:104110001167130707FDB8C7828083C7019B99C742
:1041200008419305650009056FD01F868280EFC2A4
:104130002F842A8483454400084137370020D11555
:1041400093F5F50F2302B4008347A5001307473802
:104150008A07BA979C4399C3829719A01C43EDFF25
:104160002285EFF09FFB6FC0EF8203474500854734
:1041700063F3E7081C41C1C383C717001547FD1748
:1041800093F7F70F6369F706EFB29FFE2D678A0773
:1041900013070759BA979C43373400208287B70723
:1041A00000031305C47D93871718B74500201CC171
:1041B0001946938525821105EFB09FFE8546294655
:1041C0009305C47D13850173EF00E07A6FB09FFC07
:1041D00093071028231EF47C85460946D5B793071C
:1041E0001038CDBF93071048F5B793071058DDB7C7
:1041F00093071068C5B78280EFB2FFF5373400200F
:10420000AA896146814513054478EFB0DFFA014A77
:10421000B73A002063143A0181440DA01545EF0020
:1042200090681949EFE00FD0AA841545EF00B067F8
:10423000A9C87D191379F90FE31609FE1304447810
:104240000840EF50F04A83A54197EF50605AEF5075
:10425000304408C04840EF50B04983A50197EF5063
:104260002059EF50F04248C00844EF50704883A5F1
:10427000C196EF50E057EF50B04108C426856FB0AB
:10428000DFF09307447813878A2B138687019443C2
:10429000831507000907AE9694C39107E319F6FE4C
:1042A000050A8DBFEFB23FEBEFF01FF52A8A6317C7
:1042B0000516B734002093844478C844EF50504327
:1042C00083A58187373400201304449FEF50C0102A
:1042D00083A5C187EF40D0598347140803470408DA
:1042E000AA8AA207D98F3305F040EF507040AA8503
:1042F0005685EF40F057EF50B03993170501230072
:10430000A4028848C183A183A300F402EF50503E69
:1043100083A58187EF50400C83A5C187EF4050559E
:104320008347340803472408AA8AA207D98F330594
:10433000F040EF50F03BAA855685EF407053EF50A8
:104340003035931705012301A402C848C183A18316
:10435000A301F402EF50D03983A58187EF50C00745
:1043600083A5C187EF40D0508347540803474408D2
:10437000AA8AA207D98F3305F040EF507037AA857B
:104380005685EF40F04EEF50B030931705012302F1
:10439000A4028840C183A183A302F402EF505035E8
:1043A00083A58187EF50400383A5C187EF40504C20
:1043B000EF50102E931705012306A402C840C183B5
:1043C000A183A306F402EF50B03283A58187EF509A
:1043D000A00083A5C187EF40B049EF50702B931721
:1043E00005012307A4028844C183A183A307F40223
:1043F000EF50103083A58187EF40107E83A5C187E1
:10440000EF401047EF50D02893170501C183A183D7
:104410002308A402A308F402EFC08FE952856FB00D
:10442000DFD6EFB2FFD40145EF0050152945EF006C
:104430009047B707EFBE37E700E0938707083CC710
:104440006FB05FD56FF05FBC0346C502AA85814699
:10445000138501730DA32E86AA858D4613850173DE
:1044600019ABB73700201387C7798905F956A30020
:10447000A70093F5F50F1385C7792300D7006FF0D8
:104480009FFDEFB2FFCEB734002037340020B735A0
:1044900000201304C4791306D003938585921385F5
:1044A000F47923010400EFB0BFCF9305E003054585
:1044B000EFF03FFBB735002085471306D003938507
:1044C00055961385F4792301F400EFB07FCD930561
:1044D000E0030545EFF0FFF8373500201306300301
:1044E00081451305957AEFB01FCDB7350020894778
:1044F00029469385259A1385F4792301F400EFB0BA
:104500003FCAAD450545EFF0DFF59307F03F89451C
:1045100005452311F400EFF0DFF46FB0BFC7EFB231
:104520003FC50C411307F00F83C7150003C4A19AC0
:104530006396E70483C725002A890147639C8700A7
:1045400003C7350085476314F700EFC04FD4EFC0B1
:104550006FE00547B73700209387C7792381E700CD
:104560000327090089450945034737002385019A38
:10457000A381E700EFF0FFEE6FB0DFC11307D003B8
:10458000B387E702373500201306400813058592EC
:104590001D8E3E956374C7001306D003890505047C
:1045A000EFB01FC02385819AC1BFEFB27FBC2A84C0
:1045B00008410505EFC0FF900C40AA843735002064
:1045C000154685051305E579EFB09FBD1C40B7354D
:1045D0000020268503C657009385357AEFC0CFC4E7
:1045E0001C400D4583C55700950593F5F50FEFF079
:1045F0005FE76FB03FBAEFB2BFB72A840841050545
:10460000EFC03F8C0C4003C655009905EFC06FCB3F
:10461000B7370020238FA77885451145EFF07FE459
:104620006FB05FB7EFB2DFB45145EFF0BFC703C75C
:10463000E194B73700209387C7792381A700894584
:104640001545A381E700EFF0DFE16FB0BFB4EFB233
:104650003FB21387818B83560700B73700209387BB
:10466000C79AA380D700A1822381D7008356270051
:1046700001468145A381D700A1822382D7008356BA
:104680004700035767002165A382D700A383E70093
:10469000A18221832383D7002384E700238007009E
:1046A000EFC02FC2B7370020238FA77885451D455F
:1046B000EFF03FDB6FB01FAEEFB29FABB73500201E
:1046C0009385F5793D45EFD05FDDB737002013873F
:1046D000C7792301A70003A7C1809387C77901E7A2
:1046E000054723A6E18083A6C18003A7C19A373579
:1046F00000203357D7021146938581961305157A0A
:104700002382E700EFB0DFA93735002011469385FB
:1047100041961305557AEFB0BFA8AD451305D00FEC
:10472000EFF03FD46FB01FA7B7370020130700404A
:1047300089451305F00F239FE7786FF09FD214414E
:104740000546938716001CC1834745006373F6082E
:10475000EFB21FA2FD172302F50083C716009D4686
:1047600063E0F60295CBFD1793F7F70F994663E5E3
:10477000F602AD668A079386865AB6979C4382876F
:104780001307E00F638EE7021307F00F6387E7025A
:104790001307D00F6389E7026FB0DF9FEFF07FCE82
:1047A000E5BFEFF0DFD7CDBFEFF03FE0F5B7EFF0BB
:1047B0009FE4DDB7EFF01FE7C5B7EFF0FFF6E9BF05
:1047C000EFF03FC6D1BFEFF03FEFF9B7EFF03FE8B2
:1047D000E1B78280EFB2DF991C411307000883C75D
:1047E00007006389E702636AF7000547638EE70005
:1047F0004147638EE7006FB0FF991307E00FE39C1A
:10480000E7FEEFF0DFF3C5BFEFF07F92EDB7EFF01B
:10481000DF90D5B7EFF07F95F9BFEFB27F954111EB
:104820002A848545054502C002C202C402C6EF20A3
:10483000203B85450545EF10106B1149B144894770
:104840000A853EC04AC226C422C6EF10502BBD4581
:104850000945EF105069A1670A853EC04AC226C4C7
:1048600022C6EF10D02999450545EF10D067930770
:1048700000040A853EC04AC226C422C6EF10302872
:104880009D450545EF103066930700080A853EC038
:104890004AC226C422C6EF109026B9450545EF103E
:1048A000906491670A853EC04AC226C422C6EF10B2
:1048B000102541016FB01F8EEFB29F8B411137154C
:1048C000014091474C00130505C03EC62312F1007C
:1048D000231301002314010023150100EF1090534E
:1048E00041016FB03F8BEFB2BF880545EFF0FFF29B
:1048F0000545EF20C0200145512113054006EF007A
:10490000807813051006EF202035854719CD054521
:10491000EF00607989450545EF20E00F0545EF0080
:1049200080780145EFF07FEF81473E856FB09F862D
:104930009307000463EEC702EFB2FF812A840545A6
:1049400015C42E8985C5B28481451306C008130598
:104950004400B689EFB03F86854723202401230316
:1049600094082302F408A306340901456FB0FF81BF
:104970001305F00F8280EFB20FFE9304F00F59C1C0
:10498000D1C11C412A84BDCF8344C508BDEC034777
:1049900065088327850863DAE7068347D508B68963
:1049A00013F9F70F6374F6001379F60F9307840871
:1049B00005472FA7E7008327840883475408034748
:1049C0006408850793F7F70F63E3E7008147034522
:1049D000D408A302F4084A86B307F50208403E95BE
:1049E000EFB00FFC83475408A2972382270123824C
:1049F000370583476408032784086345F700854724
:104A00002306F40826856FB04FF88544E5BFAA87D2
:104A100021C918411305F00F31C703A787080145C5
:104A200031C313878708FD56AF26D70003A7870831
:104A300003C7470883C6670805071377F70F636343
:104A4000D70001472382E70803C7C70809CB03A79C
:104A50008708B326D70093C616002386D70882801E
:104A60001305F00F8280EFB2AFF0056501118545A7
:104A7000110502C002C202C402C602C802CA02CCA8
:104A8000231E0100EF20C015930700082310F1003A
:104A900037150140E1473EC48A858D4713050580DF
:104AA0003EC2EF103037B7C704013EC6B707000259
:104AB0003ECA930700023ECC6C009D47373501404B
:104AC000231EF10002C8EF20001C0546894537353A
:104AD0000140EF20C02205616FB0CFEBEFB2AFE72E
:104AE00079712A84AE89328981451306C002480053
:104AF000B684EFB04FEC85450545EF20800C22854C
:104B0000EF108068C1473EC6930700083ECC93076C
:104B100000103ECE4C00856722854EC24AC426C88E
:104B20003ED402CA02D002D202D6EF10E073456131
:104B30006FB0AFE5B706000141110147814793858A
:104B40000181FD166148137615002E960346060076
:104B500005813316E600D18F0D07F58FE31507FFAA
:104B6000139507014181239AA19AC1831375F50F0B
:104B70009386419B2381A600238AF19A83D7419B88
:104B800042055D8D41018280EFB2EFDC8D4AB304B6
:104B90005503374400203285130444842E8AB68995
:104BA000EFF05FF9935785001389540033095903D7
:104BB00022992300A9004181A300F9002301A90043
:104BC00013896400330959039D045285EFF09FF661
:104BD00093578500B384540322992300A90041818F
:104BE0002301A9004E85A300F900EFF0BFF493570D
:104BF000850026942300A4004181A300F400230132
:104C0000A4006FB08FD8EFB20FD5AA893745002026
:104C10001306501381451305458437340020EFB047
:104C20008FD981440149130484920D4A854A8347F0
:104C300064026340F908638C0906834414008D887C
:104C4000F1E4B747002083C6E781930780FC014564
:104C5000B386F60293F6F60F3686B685EFF0DFF2EE
:104C6000034404009306800C93178401E18763D307
:104C7000070081463686B685054513740402EFF0B9
:104C8000BFF019E09304800CA6862686A685094508
:104C9000EFF09FEF83C6119B930780FC0D45B38611
:104CA000F60293F6F60F3686B685EFF0FFED6FB09D
:104CB000CFCD834704001375F90F898B99E363996E
:104CC0000900814601468145EFF01FEC050985B7D3
:104CD000B3874403A29783C6970203C6870283C59E
:104CE0007702EFF07FEA834714008D8B89C7638AD0
:104CF00057018504E1BF9327490093C71700BE946D
:104D0000F1B79307C9FF93B74700C5BF8547E39045
:104D1000F4FAB747002083C6E781930780FC11456A
:104D2000B386F60293F6F60F3686B685EFF0DFE52A
:104D3000034404009306800C93178401E18763D336
:104D4000070081463686B6851545EFF0FFE31374FC
:104D50000402814619E09306800C3686B685194513
:104D6000EFF09FE283C6119B930780FC1D45B3863D
:104D7000F60293F6F60F3686B68505BFEFB24FBF43
:104D8000EFF07FE837050240B74700201305050321
:104D9000938747845CC5B737002083C7E7940D47E6
:104DA0008545B387E702A907B387E7025CC1EF1027
:104DB000204F854537350140EF1090726FB08FBDA1
:104DC000EFB20FBBEFF03FCAB737002083C7E794BD
:104DD0000D478D46B387E70237460020B7350140BF
:104DE0003705024013064684B10513050503A907DC
:104DF000B386D702EFF09FCE0545EFF03FF80145AF
:104E00006FB04FB913050020EF10E04E0DC1130530
:104E10000010EF10804E3705024081451305050351
:104E2000EF100048814537350140EF10706B73007B
:104E30002030B7470240938707809843B706C1FFE9
:104E4000FD161367070198C3B727024098431367FD
:104E5000070198C39843719B98C398431367270031
:104E600098C3B7170240D843D8C3D843D8C3D84350
:104E700013670740D8C3D843758FD8C3D843B70644
:104E80001C00558FD8C39843B7060001558F98C3AF
:104E9000B70600029843758F75DFD843B7160240F6
:104EA000719BD8C3D84313672700D8C32147DC427E
:104EB000B18BE39EE7FE8280B71702409843B706A6
:104EC000FFF81367170098C3D843758FD8C398436A
:104ED000B706F7FEFD16758F98C39843B706FCFF1B
:104EE000FD16758F98C3D843B70681FFFD16758FE1
:104EF000D8C337079F0098C76FF0BFF3371702403A
:104F00005C43A146B18B6391D7065C435443416631
:104F1000C983BD8BF18E890781EE37470240032795
:104F20000780418B19CB37177A001307072011A888
:104F30005843B7060200758F7DD737173D0013071A
:104F40000790B387E7023717024054433717002012
:104F50001307877F9182BD8A369703470700B3D72F
:104F6000E70023AAF1808280B7177A009387072091
:104F7000D9BF6FF01FEC854537050040EF20E009F1
:104F80008547631CF50083A7019C854537050040D4
:104F9000850723A0F19CEF20C00A73002030EFB2F8
:104FA0002F9D0111930770043ECA4C089307703E71
:104FB000370500403ECCEF10F055054685453705D6
:104FC0000040EF10507B854537050040EF1090778B
:104FD0009307C0122316F100680085472307F100EC
:104FE0003EC8EF10301A956737E700E0938767F700
:104FF0007CC3B207B706002CB183D58F7CD3056183
:105000006FB04F9903A7819B11E7054723ACE19A45
:105010006FF0FFF8828083A7019C1307803EB3875F
:10502000E70237070040035547023E95828003A5FB
:10503000019C828083A7418137177A0013070720DC
:10504000B3D7E702238EF19A828019E50145828069
:10505000014541016FB00F94EFB28F9141112A8445
:10506000AE843289EFF03FFB2AC6268502946DF1AB
:10507000EFF07FFAB2471D8DE379A9FE26850294F1
:1050800013351500F9B7EFB2AF8E41112A84EFF056
:105090009FF82AC6EFF03FF8B2471D8DE37CA4FECF
:1050A00041016FB02F8F83A7019C41113EC683A79A
:1050B000019CB246958FE37CF5FE41018280034658
:1050C00025009306350001471376F6079D4503C872
:1050D0000600B357E6409E07B3E707012380F600BA
:1050E00005078506E315B7FE834715000347A500AE
:1050F00095838D8B93967700558F2305E5000347A5
:10510000B5009A0793F707F8D98FA305F5008280B9
:10511000EFB20F8679711306C00281454800EFB0E7
:105120008F8937040240814513054404EF1040176E
:1051300013054404EF104005B744014093874480B1
:105140003EC2C1473EC6930700083ECC4C0085676F
:10515000130544043ED402C402C802CA02CE02D0DF
:1051600002D202D6EF104010814513058405EF10DE
:10517000201313058405EF102001B7470020938703
:10518000C7133EC4930700183EC8930700023ED2DF
:105190004C008967130584053ED402C6EF10C00C8D
:1051A000130584058545EF10A00F054693050004FF
:1051B00013850480EF10B07545616FA0BFFDEFA2AD
:1051C0003FFB01118545114502C202C402C602C857
:1051D00002CA02CC02CEEF10B02085451165EF1057
:1051E0003020930700202312F100371401408D472F
:1051F0003EC44C00E147130504803EC6EF108041D9
:10520000930700402312F1004C009307800413051C
:1052100004803EC6EF100040B7C72D003744014060
:105220009387076C3EC80C08B7070C001305048071
:105230003ECC02CA231E0100EF10906113050480CA
:1052400093050004EF10D06E130504808545EF1020
:10525000906AB745002037450020B5461306000484
:105260009385C5DF1305C5A2EFF08FECB74500208D
:1052700037450020B546130600049385C5AB1305DA
:10528000C599EFF0EFEA05616FA0DFF0EFA2BFEC88
:10529000B74901402A89AE8413850980930500042B
:1052A00037040240EF10D068130544048145EF0035
:1052B000307F232824051305440444C18545EF00AD
:1052C000307E05469305000813850980EF10306491
:1052D0006FA0BFEBEFA2DFE983C7E19C9DCBB74492
:1052E00001409305000413850480EF10B06305C1ED
:1052F0009305000413850480EF1090630146930525
:10530000000813850480EF1090602387019C6FA034
:105310007FE8B74700201387C799832587089387BD
:10532000C799F5D503C64708354503C8570833055F
:10533000A602374700201307C7AB83C667083A9514
:10534000130718006377C802918E93950601C181F7
:1053500023A4E7082382070823860708B547B385F7
:10536000F502C205C181EFF07FF285472387F19CEA
:1053700079BFC2051377F70FC1816363D700014777
:105380002382E70823A40708C1BF55C50147814709
:105390001D46B306F50083C6360093C57700850722
:1053A00093F60608B3D6B640558F1377F707E39206
:1053B000C7FE834725009306C50093F707F8D98FEA
:1053C0002301F5008347B5000347A50099871D8396
:1053D000898BD98F0347150096071377F7F9D98F73
:1053E000A300F5009307350003C70700850713776F
:1053F000F707A38FE7FEE399F6FE8347050005470D
:10540000B14693F7F7073306E500034606000507A4
:10541000B18F93F7F707E318D7FE0347150023066C
:10542000F5001377F707A300E5000347250013777E
:10543000F7072301E50082801DC583470500054766
:10544000B14693F7F7073306E50003460600050764
:10545000B18FE31AD7FE0345C5001375F5071D8DFF
:105460003335A00082801305F00F8280EFA2DFCDDC
:105470003705024013058505EF00D0632396A19CF4
:1054800003D6A19C83D7C19C6300F60403D6A19CDC
:1054900083D7C19C63FFC70483D7A19C03D6C19C5B
:1054A00003D7C19C918FC207420741832395E19C9A
:1054B00003D7819CC183930600183E9763D2E6040C
:1054C0002394D19C2398019CB7490020B74A00201F
:1054D000130910089389C913138BCA98854B83D776
:1054E000819C91C77D191379F90F631309026FA08D
:1054F0003FC983D7A19C03D6C19C938707184DB79A
:1055000003D7819CBA97C207C1832394F19C5DBFE6
:1055100083D7619CCE978387070063D2070483D724
:10552000619C2382719DCE9783C707002300FB00F7
:1055300083D7819CFD17C207C1832394F19C83D735
:10554000619C8507C207C1832393F19C03D7619CAB
:105550009307F017E3F5E7F82393019C49B7838796
:10556000419C6358F00483D6619C1387170062073F
:10557000CE9683C60600DA9761872380D700238200
:10558000E19CB147E3D6E7FA5A852382019CEFF00C
:10559000BFEA59FD1385CA98EFF07FB23745002066
:1055A000814635469385CA981305C5A2EFF0AFBC76
:1055B00041B72382019CADBF39C1EFA27FBB374405
:1055C0000020AA8535461305C497EFA07FBD1305BB
:1055D000C497EFF09FDB9304C49783C7040037455B
:1055E0000020814693E707F835469305C4971305D5
:1055F000C5992380F400EFF00FB86FA0BFB9130571
:10560000E00F8280EFA23FB59357C5008566938671
:10561000068093F7F707D58F896637470020938672
:10562000F6F7F58F8356C72BB289797613060608ED
:10563000F18ED58F2A892E8A231EF72A81441304DE
:10564000C72BB74A0020B3059A0063C434016FA08A
:10565000DFB3B3079900214613850A2CA301F40098
:10566000EFA01FB42285EFF03FF5A104E9BFEFA240
:105670003FB0374400201305C42BB74500209307E3
:1056800010102320050025469385C53023220500F0
:1056900023240500230605000D05231EF42AEFA090
:1056A0003FB01305C42BEFF03FF16FA0BFAE83A74F
:1056B000018CA5C7EFA2DFAB374400209307C4815C
:1056C00083C757001304C481B9E7EFF05F969307CF
:1056D000007D63F2A7048347040099C78347340021
:1056E00003471400D98F81C7834724008DE73745CE
:1056F00000208327C52B37E7FF0013070708F98F22
:105700003707000113070730D98F232EF52A130519
:10571000C52BEFF07FEA6FA0FFA78280EFA25FA505
:10572000374400208357C42B797713070708F98F74
:105730003745002093E717602546FD551305F52BE7
:10574000231EF42AEFA03FA71305C42BEFF0DFE6DA
:105750006FA05FA4B74500209387C52B9C433D47AE
:1057600093F7F7076368F70CEFA29FA02D678A07EE
:105770001307475CBA979C439385C52B82873744B0
:1057800000201304C48119468D0513056400EFA0A1
:105790003FA185472309F4006FA0DF9FAE87938662
:1057A000950003C7370085071347A7FA2381E70051
:1057B000E399D7FE3745002025468D05130505835F
:1057C000EFA01F9ED1BF1387750083C735008505E5
:1057D00093C7A7FA2381F500E399E5FEB7450020BA
:1057E000374500201D469385F52B13059583EFA0C3
:1057F0003F9BB747002005472380E78471BFB74729
:1058000000209387C78103C5170003C735001335F0
:1058100015002381E700EFF06FD6BDBFB74700202A
:10582000A387078295BF03C73500B7470020A38F22
:10583000E7809DB78280B747002083A7C72B93F7E7
:10584000F70799EBB7450020374500209385352CA5
:105850001305F52B6FC04F93828037470020130745
:10586000C72B1C43854693F7F7076381D702EFA246
:105870003F9089466381D70281EB03473700054596
:10588000A388E19AEFF08FCF6FA0DF903747002019
:10589000A30EF78082800145EFF04FCE2945EFF04F
:1058A0009F80B707EFBE37E700E0938707083CC744
:1058B000E1BFEFA2FF8B374400209307C42B83C6C0
:1058C0001700214713F6E6016318E6049843FD8AA2
:1058D0001377F707639DC6046302D704BD46630EC2
:1058E000D70099466316D702B745002003C5370095
:1058F00021469385052C996709A8B745002003C563
:10590000370021469385052CBD675D8DEFB0CF91A3
:105910001305C42BEFF05FCA6FA0DF87B7450020E7
:1059200003C5370021469385052CA167F9BF630B9A
:10593000C704BD466305D7029946E31BD7FC83C461
:1059400037009305100B2145858DEFB0CFD6B745B5
:1059500000201376F50F9385052C196505A083C4E7
:105960003700930540082145858DEFB0CFD4B7456A
:1059700000201376F50F9385052C3D65458DEFB01E
:105980004F9479B783C43700930580042145858DF2
:10599000EFB06FD2B74500201376F50F9385052C35
:1059A0002165E9BFEFA2CFFCB747002083A7C72B33
:1059B0001947A183FD8B638AE702636AF7000D47ED
:1059C000638FE7001147638FE7006FA0AFFCE1072B
:1059D000FD8B0547E36BF7FEEFF0BFEDFDB7EFF092
:1059E0007FD7E5B7EFF03FE5CDB7EFF01FE7F1BFA9
:1059F000EFA20FF8EFF0BFCB374400209307C4812C
:105A000003C747001304C4810DEB83C7170095C774
:105A10000145EFD0FFCCEFC07FE0EFE0DFEC01C944
:105A2000B707EFBE37E700E0938707083CC7EFD022
:105A30005FD4EFF0BFCE6FA0EFF583470400E5DF42
:105A400083471400EDFBEFF08FDE83A7419D1D8D92
:105A50008947E3F2A7FEEFF08FDD8347340123AAE5
:105A6000A19CA1C3374900209304C92B83C704001C
:105A7000374500202D4693F707F893E73700814517
:105A80001305D52B2380F400EFA0EFF21946930500
:105A9000C40013853400EFA0AFF01305C92BEFF05D
:105AA000BFB183475400B1EBEFF07FBC83472401C3
:105AB0008DE3374500208357C52B797713070708F7
:105AC000F98F93E71730231EF52A1305C52BEFF046
:105AD000BFAE83474402A5F3374500208357C52B4B
