:100000006F50907B130000001300000013000000ED
:100010001300000013000000130000001300000094
:100020001300000013000000130000001300000084
:08003000130000007300100032
:100038006FF09FFC000000006F0060186F00A01AAE
:1000480000000000000000000000000000000000A8
:100058000000000000000000000000000000000098
:100068006F50F074000000006F50707400000000C2
:100078006F50F0736F50B0736F5070736F50307370
:100088006F50F0726F50B0726F5070726F50307264
:100098006F50F0716F50B0716F5070716F50307158
:1000A8006F50F0706F4070706F5070706F5030709C
:1000B8006F50F06F6F50B06F6F50706F000000009E
:1000C8000000000000000000000000006F50306ECB
:1000D8006F50F06D6F50B06D6F50706D6F50306D28
:1000E8006F50C0036F10307C6F50F0666F50306CEB
:1000F8006F50F06B6F50B06B6F2020246F50306BD7
:100108006F50F06A6F50B06A6F50706A6F50306A03
:100118006F50F0696F50B0696F5070696F00202A96
:1001280000000000000000000000000000000000C7
:080138000000000000000000BF
:10014000397101436EC619A0397141536AC866CA34
:1001500062CC5ECE19A0397101535AD056D252D416
:100160004ED64AD826DA22DC06DE3301614082828E
:1001700041114AC026C222C406C68282B24D410144
:10018000024D924C224CB24B4101024B924A224A00
:10019000B2494101024992442244B2404101828065
:1001A0002A8309CA83830500230073007D16050393
:1001B00085056DFA82802A8311C62300B3007D165F
:1001C000050365FE82800145EF4030563717024037
:1001D0001C47B7068000D58F1CC7EF40707437E707
:1001E00000E03C4793E787003CC773002030411193
:1001F000014522C626C4EF405053F327203423A6DE
:10020000F1887327103483A6C188B73500209387FF
:10021000859A13D686002380D704A380C70413D6FB
:100220000601E182A381D704935687002381C70486
:100230002382E704A382D70423A4E188935607010D
:100240001306800461839385859A01452383D7042F
:10025000A383E704EF00D05F83A7C18863CF0700C3
:100260000D476387E7026375F700F1176367F700CF
:1002700083A7818891077390173437E700E03C47E4
:100280003244A24493E707023CC741017300203087
:1002900001A0EFF2FFED11458545EF607030B747E3
:1002A000024093870780984301451367470098C32E
:1002B00003A74181B7A74A04938707206309F70082
:1002C000B777DC02938707C06315F7000545EF6039
:1002D000B01B85450565EF60D02A6DBD37370240FC
:1002E000930700FC2306F740B73700209387C78E9B
:1002F000C207C1832318F740B73700209387C7860A
:1003000023A4F1A0C207C183231AF7408947230918
:10031000F742230BF74293870189A380070082806D
:10032000EFF21FE5B7470240938707809843ADE996
:100330001367870098C33734024099472300F4407D
:1003400035C12945EF40106F9D472300044023012C
:10035000F440930790022300F4404937930710F8C4
:10036000A300F4409306000461469385410613857B
:100370004173EF40C07FB72500209306000461461B
:100380009385C5AC1385416AEF40607EB7E700E016
:100390004147A38DE7423707000823A2E710DDBBE2
:1003A0005D9B49BF2945EF40F068B7E700E02300B7
:1003B0000440B843C146B4C3370600089386071803
:1003C000D0C2B8C3E9BF011122CE26CC4ACA4EC85A
:1003D00052C656C4373402400347644083477440D2
:1003E0009376F70F098B630B075E93F7F70F13F7FD
:1003F0000703930500026303B70493060003630435
:10040000D71829E713F7F703630307128546631F1D
:10041000D70293F707049DCB83476443814693C774
:100420000708230BF4420356844083A581A013766A
:10043000F60F1385416AEF40E07709A893F7F703B9
:100440006384E702130710026380E70CB7370240AA
:1004500009472383E7407244E2445249C249324A81
:10046000A24A05617300203083D7E18999E7834769
:10047000244393F7370F2309F44283C7418A93F744
:100480000706E9F783C7518A954613F7F70F63818B
:10049000D7069947E31CF7FA03D7E1899307F003DE
:1004A0001304000463E6E70003D4E18942044180B9
:1004B00003A9818A373500202286CA851305C58E97
:1004C000C53183D7E189229923A4218B818FC2076B
:1004D000C183239FF1881374F40FB7370240238838
:1004E000874203C72743134707042389E742B9BF5D
:1004F000B736024003C7364083C7C1891377070860
:10050000D98FA381F64099B78347644393F7C70F08
:1005100093E72700230BF4428347644393C7070400
:10052000230BF44293870189A380070005B793F753
:100530000704E38D07F083C7418A93F70706E38733
:1005400007F083C7418A93F70706E391B7F003C723
:10055000518AA547E31CF7EEB73500203745002048
:10056000130600049385C58E1305C5271539054765
:10057000238EE19E8347244393F7C70F93E7270019
:100580002309F442E1B59307A0FC37350020230985
:10059000F4421307C58E834707002382F18A8347FD
:1005A000170083562700A382F18A83576700239F91
:1005B000F1882391D18A835647002390D18A03C9B9
:1005C000418A9306C58E137909066309090C83C70E
:1005D000418A93F70706639EB70283C7518A29466B
:1005E000FD1793F7F70F6363F6182D668A07130656
:1005F000066CB2979C43828783D7018A639807165B
:10060000B7450020130600049385C5271305C58E42
:10061000413E83C7418AE207E18763DE073803D79B
:10062000E1899307000463E6E70083D7E189C20705
:10063000C18303D7E1891D8F42074183239FE1884E
:1006400093F7F70F373702402308F74283472743D2
:1006500093F7C70F2309F742D5BB83D7018A639766
:10066000071003C73600A38CE18865B783D7018ADA
:10067000639E070E03C72600238CE18859BF83D7EA
:10068000018A6395070E83C791892380F60051B7CD
:1006900083D7018AE1EF83C78189C5BF83C5518AAA
:1006A0002D4813F6F50F6363B80CAD650A06938504
:1006B000C56E2E961042028683D6218A0D46A182EF
:1006C0006386C60C636CD6008547638CF602894747
:1006D0006381F60481471309F00F81A89307100284
:1006E000638BF60893072002E396F6FE83D7018A10
:1006F000F5F3B1679387478123A4F18A9307F00D3F
:100700002DA0B1679387478F23A4F18A83C7070081
:1007100029A8B72700209387878023A4F18A03C7DD
:10072000270083C73700A207D98F03D7E18963F475
:10073000E700239FF18803D7E1899307F003130AA9
:10074000000463E7E70003DAE189420A135A0A0169
:1007500083AA818A52861305C58ED6859134D29A92
:1007600023A4518B9307F00FE315F9EAB737024042
:100770001307F0FC9DBB83D7018AA9FFB727002090
:100780009387A78123A4F18AA54745B783D7218AF8
:10079000094793F7F70F6387E702636BF70099EF59
:1007A0009387018823A4F18A014983C70700B5BF55
:1007B000E392D7F2AD679387477CB9B7B167938768
:1007C000878099B7AD679387C77D3DBF83D7218A5F
:1007D00093F7F70F238EF1882DBD83C7D18923802E
:1007E000F60003D7E1898547E3F5E7E2239FF18827
:1007F0000DB583D7218A93F7F70FA38EF1880547AC
:10080000238DE18839B583C6418AFD8A99EE83D765
:10081000218A054793F7F70FE39DE7DE83C7B18988
:1008200093F7E70FA38DF188EDB383C6418A09469C
:10083000FD8AE39DC6F283D7218A93F7F70F9DF7D0
:1008400083D7018A054793F7F70F6381E702130700
:100850002008E39DE7F0373702408347A74393F72B
:10086000C70B93E72700230DF74265B337370240E4
:100870008347674393F73707230BF7428347674361
:1008800093F7C70B93E72700230BF74259B383C6AF
:10089000418AFD8A8DE683D7218A054793F7F70FB2
:1008A000E396E7ECB727002083C7F78093F70702AA
:1008B000E38E07EA83C7B18993E71700A5B783C61C
:1008C000418A0946FD8AE393C6EA83D7218A93F7D2
:1008D000F70FE39D07E883D7018A1307100893F702
:1008E000F70F638FE70013072008E391E7E8373736
:1008F00002408347A74393F7C70B93E73700A5B799
:10090000373702408347674393F7370793E7C700BA
:10091000230BF7428347674393F7C70B93E73700EF
:10092000A5B72380060075BD83C7418A2316058EAF
:10093000FD8B99EB83C7B189858BBDC38947238024
:10094000F60003D7E1894DB583C7418A0946FD8B7F
:10095000639CC70403D7018A130610081377F70FA7
:10096000630DC700130620086305C70203D7E1899A
:10097000E3FEE7DE239FF188D5BB3737024003470C
:1009800067433146318BE31EC7FA05472380E600F3
:100990004DBF373702400347A7430D460D8BE5B7E0
:1009A00003D7E189894789B583D7E189E370F6DC0C
:1009B000239FC18865BB83D7E18991EBB73702409C
:1009C0002388074203C727431377C70F39BE37373A
:1009D00002408347274393F7370FADB993F71600CB
:1009E0009DC3A38E0188238E0188A38D0188238D4A
:1009F0000188A3010440DD308347644093E717007A
:100A00002303F44089BC93F746009DCB9147230311
:100A1000F4402945EF40100203475440118B11CB9D
:100A200003C7B18913672700A38DE18883C7B18904
:100A30001DB403C7B1891377D70FA38DE18821BCFB
:100A40002303D44009BCEFF2AFF237070001AA87B5
:100A5000130707F07D8FA1662E856303D702BD665D
:100A60006307D7029966631BD700B735002093F759
:100A7000F70F9385059FBE95EFF08FF26FF08FF122
:100A8000B735002093F7F70F9385859AEDB7B73503
:100A9000002093F7F70F9385C592F1BFB73500207B
:100AA0001306C0079385C5920545DDABB735002019
:100AB0001306C0079385C592054559ABEFF24FEB7E
:100AC00003A4C18A25C013060008FD552285B7344A
:100AD00000209384049FEFF00FEE6146938504029B
:100AE00013054400EFF0CFEB49469385D40313057B
:100AF000C401EFF0EFEA3546938504051305E402DF
:100B0000EFF00FEA6146938504081305B403EFF094
:100B10002FE949469385840913053405EFF04FE822
:100B2000230004006FF00FE7EFF28FE403A5C18A02
:100B300071370945AD236FF0EFE5EFF2CFE1B7076D
:100B40000001938707F0E98F21672A843289638C3B
:100B5000E7023D67638AE70419676396E706B737DC
:100B600000209379F50F9387079FBE994E85EFF08C
:100B70002FE35D3FAA844A86CE852285EF407043ED
:100B800026856FF08FE0B73400209387849A93799D
:100B9000F50FBE994E85EFF0AFE013068004938504
:100BA000849A01457521F9B7373700209377F50FFF
:100BB0001307C792BA973E85EFF08FDEAA854A8663
:100BC0002285EF40103F814465BFEFF2CFD803A4E8
:100BD000C18A63040420834704009309C4011309F4
:100BE00034056381071A930740FCA30EF4009307B2
:100BF000C0041307C0FC230FF4002302F402930780
:100C000000F8230EE4002301E402A300F40213071A
:100C100040FCA147A301E4022300F4022546CE854F
:100C2000A30F040013055402EFF08FD7930720039E
:100C30002307F4022308F402930700032301F404BA
:100C400093071006A301F4049307E0FA2302F404C7
:100C5000930700F9A302F404930790FD2303F4041F
:100C6000930740FDA303F404D1472304F40493073E
:100C70004005A304F4042306F404930770FCA306C0
:100C8000F404930790072307F4049307C0F91307AC
:100C90001003A307F40493073003A307E402230817
:100CA000F4041307100493076003FD543D4A230521
:100CB000E404A308F404554793073006A305E404AD
:100CC0002309F404A308940223099402A3099402BB
:100CD000A30044054946930514044A85EFF04FCC20
:100CE0009307B0052302F4009307B0F82303F40040
:100CF000930760F92304F4008547A304F4009307E5
:100D00000004A305F400A306F400A307F400F547CC
:100D10002308F4009307E0FB2309F400B957230AE2
:100D2000F40093074003A30BF400A30CF400A30DFD
:100D3000F40093070005A30DF402F5571307B00361
:100D4000230EF402930760FCA3020400A3039400A3
:100D5000230504002306040023070400A30804005D
:100D6000A3099400A30A9400230BE400230CE400DD
:100D7000230DE400A30E0402230F0402A30FF402C8
:100D800023004405B73400209384049F61469305F3
:100D9000440013850402EFF0AFC04946CE851385A9
:100DA000D403EFF0EFBF35469305E4021385040545
:100DB000EFF00FBF61469305B40313850408EFF00D
:100DC0002FBE4946CA8513858409EFF06FBD83475E
:100DD000040081C723000400813B6FF00FBBEFF2DA
:100DE0002FB983A5C18A130650060945552C03A5C2
:100DF000C18AE13B6FF00FBAEFF28FB70545373488
:100E00000020EF4080121304C49203459401EF9038
:100E1000202A83A58186EF80207823ACA196034504
:100E2000A401EF90E02883A58186EF80E07623AAD5
:100E3000A1960345B401EF90A02783A58186EF809A
:100E4000A075544423A8A19693D78600C207C183F6
:100E5000B387F7021387018BE1821CC38347040128
:100E6000A207D58FB387F7025CC30D216FF08FB255
:100E7000EFF20FB0373400201306100BFD551305A9
:100E8000049FEFF04FB3392423A6A18A893F93072B
:100E9000049F130700F82380E70069770D073734B4
:100EA00000202399E7001306800405479305849AE0
:100EB0000145A38DE700ED229307849A03C707003D
:100EC00015C32147A38007002381E700A381070002
:100ED0002382E700A38207002383E700A3830700A0
:100EE0002384E700B73400201306C007FD5513859F
:100EF000C492EFF04FAC5D3683C7C4921384C492A2
:100F0000858BF1C71306C00781451385C492EFF0A6
:100F10008FAA37350020A14711469305800313059A
:100F20003593A300F4002301F400EFF0CFA8373588
:100F300000201146930500081305F592EFF0AFA7C6
:100F4000B737002019679387A794130707062391E3
:100F5000E7002390E70095472307F4002308F400F7
:100F60008967938717B02311F402930760FD130775
:100F70008007A305F4009947A306E400A307E40053
:100F80002306F40001478D45FD566D46B307B702B1
:100F90000507A2972382D702A382D7022383D70211
:100FA000E316C7FE9307F007A30CF400E17793C79D
:100FB000F7F7231DF4008947230EF400930740FD43
:100FC000A308F400930700032309F400C5342D356A
:100FD00003472400B727002093878780A380E70278
:100FE000034714003735002019462384E702930590
:100FF00034011305A579EFF0AF9A6FF0AF998D47E3
:1010000063E5A704EFF2CF96B70710009387071E9A
:101010003E9513147500930500082285EF50405843
:101020001147AA848947631FE500B73500201306DE
:101030000008938545AA2285EF5020688D476313E9
:10104000950081473E856FF0EF9485473E8582800D
:101050009DCDEFF24F90930700082A89B2841305C3
:10106000E00F63E4C702B73900202E84130600089E
:101070008145138549AAEFF00F942686A285138532
:1010800049AAEFF0EF914A859D3F6FF00F9013054D
:10109000F00F828037350020130545AA828085B77E
:1010A0000D47AA87636BA7022E851307F00F9DC516
:1010B000930500081307E00F63E2C502EFF24F8BC0
:1010C000370710001307071EBA9793957700EFF0C4
:1010D0002F8D01473A856FF0EF8B05473A85828067
:1010E000AA872E8563D3B7003E858280EFF24F88B2
:1010F0004111AA8511466800EFF08F8A32454101FF
:101100006FF04F89AA872E8563C6B7003E8563536B
:10111000F60032858280EFF2AF85797161468145B4
:101120002808EFF04F89014502C602C802CAEF50F5
:10113000F037371501409307A0036C0013050580B5
:10114000372401402316F10002CAEF50A0681305AE
:101150000440EF40506E85473ECE3ED0B7070E00AC
:101160003ED22C089147130504402306F10202CC1D
:1011700002D4EF40F06E854513050440EF405074F3
:10118000854513050440EF40B07213050440EF405D
:101190005074930404402685EF4050746DFD130590
:1011A000044037240140EF40F07393040440268547
:1011B000EF40F0736DFD13050440EF50C000239C19
:1011C000A18A45616FE01FFDEFE2FFF879712A8483
:1011D000AE89328981451306C0024800B684EFE02B
:1011E0009FFD2285EF504016930700083ECC9307E1
:1011F00000103ECE930700403ED0930700023ED23F
:101200004C008D6722854EC24AC426C83ED402C611
:1012100002CA02D6EF50402145616FE01FF7EFE2AE
:101220003FF5D53D37240140B70402409305C4443F
:101230001385840091461386C18B793713050440CA
:101240009D4605468545EF40906C130504409D463C
:1012500009469545EF40B06B130504409D460D4689
:101260008D45EF40D06A9D461146130504409145D7
:10127000EF40F069138584008545EF50601E854579
:1012800013050440EF4030676FE0DFF0C166373789
:101290000020930747B213860610D0D71386160096
:1012A00093860604D4C3B716020094C3B70602009F
:1012B00013858600E8C313850602A8C36165E8C7E5
:1012C00013850601A8C713850620A8CF372504007B
:1012D00088CF13850610E8CF37450400C8CF1385A3
:1012E000060488D33785040090D7C8D393860608B0
:1012F0003785020037260200B745020088DBD4DBC1
:10130000D0C78CC7B737002083C6C792930747B2B0
:1013100013F5060119C1CCC790C713F7860001CB9E
:1013200037170200D8C341671307070498C3918A8F
:1013300089CA23A2070423A0070423A6070423A421
:1013400007048280EFE2DFE24111893793078004CE
:101350003EC6B7370020138447B202C202C49304CA
:101360000406938747B281460147C16590433375B0
:10137000B60009C5518F4207418385469107E3971F
:1013800097FE99C22312E100371501404C00130566
:101390000580EF50204422872312010081468147B7
:1013A000B705020010433375B60009C5D18FC207D7
:1013B000C18385461107E31797FE99C22312F100F6
:1013C000371501404C00130505C0EF50A040014700
:1013D000231201008147370604001440B3F5C6000C
:1013E00089C5D58FC207C18305471104E31794FE51
:1013F00019C32312F1004C0037150140EF50803D16
:1014000041016FE03FD9EFE23FD437190140373453
:101410000020130B09C0130444B281448149370AE8
:101420000700B70A0200B70B0400416C13090980DA
:101430000C40B3F74501638A5703638C7703054576
:1014400063978701C205C1814A85EF5080441335F7
:10145000150033159500E1478504B3E9A90011048F
:10146000E398F4FC4E856FE0BFD1C205C1815A8577
:10147000E9BFC205C18137150140C1BFEFE25FCFAF
:10148000B7070700E98F37070200AA856384E702E0
:10149000370704006388E70241670545639AE70060
:1014A000C20537150140C18113050580EF50603E2C
:1014B0006FE05FCE9315050137150140C18113051B
:1014C00005C0EDB793150501C18137150140F9BF7E
:1014D000EFE21FCA79712A848545314502CA02CCE0
:1014E00002CE02D002D202D402D602C402C623180F
:1014F0000100EF50F00A6310041285450945EF50D2
:10150000100C3715014061478D474C08130505C085
:101510003ACE37040040231AF1003ECCEF50802B26
:101520009307005A2C00130504403EC602C4EF5036
:10153000701A0546854513050440EF50D03FC1673A
:10154000938707060C10130504403ED023130102B5
:1015500023140102EF50901F0C1013050440EF50AC
:1015600070270C1013050440EF50D031854513054A
:101570000440EF50F03AA14513050440EF50F03E0F
:10158000A14513050440EF50703FA14513050440E9
:10159000EF507040A14513050440EF50F0408145E5
:1015A00013050440EF50903A9305002D13050440B5
:1015B000EF5030419305002D13050440EF50D0400B
:1015C0009305002D13050440EF5070409305002D46
:1015D00013050440EF501040EF00F0049307D012C1
:1015E0002310F10099472301F1000A8585473EC287
:1015F000EF50405589679387E70A37E700E07CC3DF
:10160000B207B183B706002DD58F3CD785451305AA
:101610000440EF50302F45616FE0DFB7AA853705F2
:101620000040130505406F50F02D2A883A85094780
:10163000630AE8000D47630EE8003285630508027F
:101640003685828063C1A5022E8563DCB7003E85A6
:1016500009A82E96420641866347A6003285E3C854
:10166000C7FE42054185828019473305E502B70769
:101670000020938707002E86014781463E958315FB
:101680002500034505009307001045B719473305AA
:10169000E502B7070020938707002E861307000C8A
:1016A000930600103E9583154500034515009307EA
:1016B0000014A5BF1387018D1443B737002058438A
:1016C0000E05938747B8AA9794C3D8C38280EFE2E8
:1016D0003FAA834435001384018D8315040085805F
:1016E000FD882A8926854937831524002310A40004
:1016F0002685693F834439008347290083154400C8
:10170000858891839204DD8C2311A4002685A93F4E
:10171000831564002312A40026858D3F2313A400A3
:101720000145493F0547A38CE18C6FE0BFA6EFE27E
:101730003FA4034735008347250037060020137771
:10174000F70393D677000607558F93151700930676
:10175000061CAE96839506001306061C2398B18CD2
:101760009386018D89C5B725002023A6E58A370712
:10177000002093F7F7071307070C8607BA9783D75C
:1017800007002391F6008347150093F7E70F3E9675
:1017900083570600034605002392F6008347150091
:1017A00009820145858B9A07D18F86073E9783571B
:1017B00007002393F600FD3D0547A38CE18C6FE005
:1017C0007F9DEFE2FF9A834735008346250003475C
:1017D000050093F7F7039D82860713764700D58FA0
:1017E000058BAA841384018D86076309070C630D9A
:1017F000060A370700201307070CBA9783D707009C
:101800002313F40001457D3503C92400831504002A
:10181000135929001379F9014A85B9358315240034
:101820002310A4004A859D3503C9240083C71400F2
:10183000831544001379390095830E093369F90043
:101840002311A4004A850D35831564002312A400DA
:101850004A852D3D2313A4000545A93D03C9140065
:10186000831504001379F9014A85FD3B8315240093
:101870002310A4004A85193D83C404008315440045
:101880002311A4008D802685C5338315640023129F
:10189000A4002685E53B2313A4000945213D0D47FF
:1018A000A38CE18C6FE01F8F370700201307071C04
:1018B000BA9783D707002312F400A9B719CA3707CC
:1018C00000201307070CBA9783D707002311F400F1
:1018D00015BF370700201307071CBA9783D70700E7
:1018E0002310F40005B7EFE2BF88034935001384E5
:1018F000018D83150400135919001379F901AA8485
:101900004A859D33831524002310A4004A85BD3BDE
:1019100003C9340083C724008315440013791900D8
:10192000918312093369F9002311A4004A852D3BE4
:10193000831564002312A4004A85893B2313A40065
:1019400001458D3B03C9240083C71400831504009F
:101950001379F9009D8306093369F9004A85293313
:10196000831524002310A4004A850D3383C414007A
:10197000831544002311A4008980FD882685ED315C
:10198000831564002312A400268509332313A400C1
:1019900005450D330947A38CE18C6FE0AFFFEFE203
:1019A0002FFD83473500834425003707002093F738
:1019B000F70393D674008607D58F1307071C860795
:1019C000BA970347050083960700B70700201376F0
:1019D000E70F9387070CB2978980058B83970700E1
:1019E0002A89FD881384018D49C783150400268543
:1019F0002312D4002313F400EFF01FC78315240033
:101A00002310A4002685EFF07FC82311A400014510
:101A1000EFF05FCA8344290083471900831504004F
:101A20008D8895838E04DD8C2685EFF0FFC38315AA
:101A300024002310A4002685EFF05FC5834419001D
:101A4000831544002311A400FD882685EFF0DFC133
:101A5000831564002312A4002685EFF03FC32313EF
:101A6000A4000545EFF01FC50947A38CE18C6FE08A
:101A70006FF28315440026852310D4002311F4004F
:101A8000EFF09FBE831564002312A4002685EFF0BB
:101A9000FFBF2313A400A5BFEFE28FED034935007C
:101AA0001384018D83150400135919001379F9016A
:101AB000AA844A85EFF05FBB831524002310A4009D
:101AC0004A85EFF0BFBC03C9340083C724008315E7
:101AD000440013791900918312093369F900231125
:101AE000A4004A85EFF05FB8831564002312A400B8
:101AF0004A85EFF0BFB92313A4000145EFF09FBB67
:101B000003C9240083C71400831504001379F90066
:101B10009D8306093369F9004A85EFF0FFB4831508
:101B200024002310A4004A85EFF05FB603C9140017
:101B3000831544002311A400135929001379F901D6
:101B40004A85EFF07FB2831564002312A4004A8512
:101B5000EFF0DFB32313A4000545EFF0BFB503C9D1
:101B6000140083C70400831504001379390095839A
:101B70000E093369F9004A85EFF01FAF8315240081
:101B80002310A4004A85EFF07FB083C404008315BE
:101B900044002311A400FD882685EFF0FFAC8315D7
:101BA00064002312A4002685EFF05FAE2313A40087
:101BB0000945EFF03FB00D47A38CE18C6FE08FDD5E
:101BC000EFE20FD803473500238C018CA38C018CE6
:101BD000198389462E84630ED70E8D466309D7106C
:101BE00085466310D70203471500834725008346C7
:101BF00005002207BD8B558FC207D98FF9E3EFF09F
:101C00001FAD03C5918D0D468145B7340020EFF01F
:101C10006FCF370C0020B73C0020938B44B8A38CC7
:101C2000A18C014D938444B8938A818C130C0C2CA5
:101C3000938CCC92930D001437992F50A54983C7EC
:101C4000918D6348FD0A834734000547238CE18C5E
:101C5000A38C018C998389466387D7128D46638351
:101C6000D7146392E7020347140083472400834696
:101C700004002207BD8B558FC207D98F639C070EC6
:101C80002285EFF0DFA403C5918D0D468145EFF06D
:101C90006FC7B70A0020373B0020A38CA18C814B73
:101CA0001384818C938A0A2C130BCB92130C00148F
:101CB00037992F50A54983C7918D63C9FB0E6FE0FB
:101CC000EFCB8D8A81E6EFF09FA625BFEFF07FAFC7
:101CD0000DBF83471500034705008D8BA207D98FE1
:101CE00081E7EFF05FC031BFEFF07FCB19BF6D33FD
:101CF00009BF03974B0083C73C0081460A076297E0
:101D000018434A85CE85B387E702050DA10BAD8345
:101D100023A2FA008397EBFF8A07E297904333866A
:101D2000CD020506EF50607623A0AA00D6850145B6
:101D3000A52A03978BFF83C75C001306000A0A07D6
:101D40006297184381464A85B387E702CE85AD8303
:101D500023A2FA008397ABFF8A07E2979C433306DE
:101D6000F6020506EF50607223A0AA00D685094549
:101D7000252AF1B58D8A228581E6EFF05F9B21B798
:101D8000EFF03FA409B783471400034704002285FE
:101D90008D8BA207D98F81E7EFF0FFB4EDB5EFF09F
:101DA0001FC0D5B52285EFF03FCFF1BD03974400AA
:101DB00083474B0081460A07569718434A85CE85CC
:101DC000B387E702850BA104AD835CC08397E4FF72
:101DD0008A07D69790433306CC020506EF50E06A97
:101DE00008C0A2850545C920039784FF83476B007F
:101DF0001306000A0A075697184381464A85B38797
:101E0000E702CE85AD835CC08397A4FF8A07D6978F
:101E10009C433306F6020506EF50206708C0A285F2
:101E20000D45592049BDEFE2AFB4B7350020373535
:101E30000020A146130600029385C5E91305C514C9
:101E4000EF20F052B735002037350020A1461306A9
:101E500000029385C5D91305C50BEF205051B73546
:101E6000002037350020A146130600029385C5C91E
:101E70001305C502EF20B04FB735002037350020DD
:101E8000A146130600029385C5B91305C5F9EF20D5
:101E9000104E85472384F190A384F1902385F1901F
:101EA000A385F1906FE00FAFA1CDEFE26FAC894752
:101EB0006303F50263ECA70015E537350020814682
:101EC00021461305C514EF20F04E21A08D47630273
:101ED000F5026FE02FAC373500208146214613050F
:101EE000C50BD5B737350020814621461305C502FD
:101EF000D9BF37350020814621461305C5F9E1B722
:101F00008280EFE2EFA683C7B1909DCF37350020E6
:101F10009307C51483A6870885CA83C74708B736C1
:101F200000209386C6E98E07B6979443DC43A385C9
:101F30000190138781921305C5145CC314C3EF206D
:101F4000F0500547A387E19083C7A1909DCF373517
:101F500000209307C50B83A6870885CA83C7470857
:101F6000B73600209386C6D98E07B6979443DC43D4
:101F700023850190138701921305C50B5CC314C31D
:101F8000EF20D04C05472387E19083C791909DCFE8
:101F9000373500209307C50283A6870885CA83C703
:101FA0004708B73600209386C6C98E07B697944374
:101FB000DC43A3840190138781911305C5025CC3A0
:101FC00014C3EF20B0480547A386E19083C78190F2
:101FD0009DCF373500209307C5F983A6870885CAAA
:101FE00083C74708B73600209386C6B98E07B697D1
:101FF0009443DC4323840190138701911305C5F9B1
:102000005CC314C3EF20904405472386E1906FE042
:102010006F9815CE9841E1679387076A3E9798C1FC
:102020006374C70001458280B356C7028357050019
:102030003377C702B697C207C1832310F50098C152
:1020400013D7B70065D393F7F77F2310F500054545
:102050008280EFE2EF91B737002083C7C7922A87CB
:10206000368493F707042E855443B28595C385477C
:1020700081CE1043793F814701C983A7C18D818FEC
:1020800093B7A70F93C7170013F5F70F6FE08F9063
:1020900099EA03A5C18D018D1335A50F13451500D0
:1020A0001375F50FE5B71043AD3765F5D5BF3705A7
:1020B0000040797185451305054022D626D44AD2C1
:1020C0004ED052CE56CC5ACA5EC862C666C46AC2E8
:1020D0006EC0EF50401185476318F51C03A4C18DF5
:1020E00083A4C18E2A89050413858194A68613864C
:1020F000C18F9385619023AE818CA13F938A819497
:102100001DC503C7F1906300071CA3870190938747
:1021100081929843DC432393019023A0EA0023A2F9
:10212000FA0023AE018EA385219123A6818E03A9F7
:10213000818E13850194CA861386818F9385419081
:10214000093F9384019415C503C7E19063060718FE
:1021500023870190938701929843DC432392019057
:1021600098C0DCC0054723AC018E2385E19023A4F1
:10217000818E03A9418E13858193CA861386418F70
:1021800093852190F9359389819305C903C7D1902F
:10219000630D0714A3860190938781919843DC43D4
:1021A0002391019023A0E90023A2F900054723AA67
:1021B000018EA384E19023A2818E83AC018E1385CE
:1021C0000193E6861386018F938501905935138913
:1021D000019305C903C7C1906302071223860190CA
:1021E000938701919843DC43239001902320E900D9
:1021F0002322F900054723A8018E2384E19023A020
:10220000818E83D76190370400201304047C8607F5
:10221000A2970395070083A74A00D840930A002D90
:102220003305F50283D741901306005A814586078E
:10223000A29783970700B704004093840440B387B4
:10224000E7023E953305550351851305052DEFE053
:102250007FEB42054181239EA40283D7219003276F
:10226000490081458607A2970395070083A7490087
:102270001306005A3305F50283D7019086073E9472
:1022800083170400B387E7023E9533055503518554
:102290001305052DEFE01FE7420541812390A404BB
:1022A00085452685EF40F0753254A2541259825963
:1022B000724AE24A524BC24B324CA24C124D824DF2
:1022C000456173002030B30494409307F063E3F05A
:1022D00097E623A20A00A1BD330924419307F063C6
:1022E000E3F927E923A2040069B5330924419307E0
:1022F000F063E3F427ED23A20900C1B53304944150
:102300009307F063E3FF87EE23220900DDBDEFD2E0
:102310003FE6AA853765004013050580EF40607EE3
:10232000133515006FD01FE7EFD29FE4AA853765FC
:10233000004013050580EF40207B1375F50F6FD02B
:102340007FE5376700408357478113070780A183E4
:10235000A388F19483574701C207C18393F707F01D
:10236000C207C183231AF70073002030EFD2BFDE0B
:10237000376500404111814513050580EF40A06994
:1023800037140140930700400D49D1494C00130513
:1023900004C03EC24AC44EC68564EF40A043938445
:1023A00004804C00130504C04EC64AC42312910099
:1023B000EF40404293050040130504C0EF40604EDB
:1023C000A685130504C0EF40804D0545EF209066BB
:1023D00093050040130504C0EF40604C0545EF2015
:1023E0007065A685130504C0EF40A04B0545EF209E
:1023F0007064A949130A04C0056993050040528519
:10240000EF40204AA6855285EF4060490545EF2000
:102410007062930500405285EF4060480545FD1904
:10242000EF205061E39B09FC130504C093050040B5
:10243000EF40204793050980130504C0EF40604634
:102440000545EF20305F93050040130504C0EF40C1
:1024500000450545EF20105E93050980130504C073
:10246000EF40E0430545EF20F05C91474C00130539
:1024700004C03EC6EF40003693050980130504C032
:10248000EF40204141016FD05FD0EFD27FCE376463
:102490000040814513050480A3890194EF40A057B3
:1024A00013050480EF40E042EFF05FEC83C7119525
:1024B0005D8D1375F50F01C937350C000146814557
:1024C000130505502920EF20F04F6FD0BFCCEFD27D
:1024D0009FC80111AE842A8985452545328402C2F0
:1024E00002C402C602C802CA02CC02CEEF40500BA0
:1024F000854537054000EF40900C371A014093099D
:102500000040714B8D4A4C0013050AC02312310163
:102510005AC656C4EF40002C8567938707804C004D
:1025200013050AC02312F1005AC656C4EF40802A90
:10253000B7070040231C9100B76400403ECA0C0856
:10254000916713850480231EF1004AC8231D3101C1
:10255000EF40403B854513850480EF40C04B096543
:102560001306800CB70502001305E530EF20D048B4
:1025700009C909C8854513850480EF402053EFF051
:10258000DFF00544A389819405616FD01FC083C724
:102590003195638C0712EFD21FBC37640040AA8AC2
:1025A0002E8A130504808545EF40604C09651306AB
:1025B000800CB70502001305E530EF20F04383C718
:1025C00011951375F50FC98F91C705472389E194BC
:1025D0006FD0BFBB854513050480EF408045B70928
:1025E000030009691306800C9385190013058932CD
:1025F000EF20904083C711951375F50FC98F99C3CC
:102600000947E9B701469305400D13050480EF40E3
:10261000E048370B07001306800C93052B081305C1
:102620008932EF20703D83C711951375F50FC98F5F
:1026300099C30D4761BFD68513050480EF4000455F
:102640001306800C93054B0813058932EF20D03A0E
:1026500083C711951375F50FC98F99C31147BDB77E
:10266000D28513050480EF40804085451305048022
:10267000EF40203C1306800C938519001305893226
:10268000EF20903783C711951375F50FC98F99C344
:1026900015472DBF05469305400D13050480EF40F7
:1026A000E03F1306800C9385290013058932EF2043
:1026B000B0349377F50F03C511955D8DE30A05F0EE
:1026C00099462389D1943E8521B705458280EFD272
:1026D0009FA82E891375F50F8145EFF05FEB83C737
:1026E00011952388A1945D8D1DE5B705030009654B
:1026F0001306800C9385050413058532EF20D02F37
:1027000083C711951375F50F2388A1945D8D19C5A5
:1027100025472389E194EFF05FD725A0B7690040F2
:1027200013850980EF40E0362300A9008545138515
:102730000980EF40E03183C7019503C71195D98F18
:10274000F9FB03C50195B73700202389A79A6FD0FD
:10275000DFA3EFD27F9F85476316F600EFF03FF7C8
:102760006FD01FA22E8985453284EFF05FE2AA84E4
:1027700035E17D14370A0300856AB7690040137498
:10278000F40F130A0A04896B938A0A8093890980DB
:102790009307F00F6303F4021306800CD2851385B0
:1027A0008B32EF20702583C711951375F50FC98FF4
:1027B00095C71D472389E194AA8437650040130516
:1027C00005808545EF40C02883C71195C58F13F557
:1027D000F70F59D5EFF07FCB268559B7854763169C
:1027E000F400D6854E85EF40C02D4E85EF40602A1F
:1027F0007D142300A9001374F40F050951BF83C78A
:10280000319591E38280EFD21F95AA8A0965411123
:10281000AE891306800CB70502001305E530EF20E2
:10282000B01D83C711951375F50FC98F8DC3294747
:102830002389E19483C71195C98F93F7F70F89C74F
:102840002AC6EFF09FC4324541016FD01F9437690B
:102850000040854513050980EF40A01DB705030022
:10286000096A1306800C850513058A32EF20D018FB
:1028700083C711951375F50FC98F99C32D474DBFA8
:1028800001469305400D13050980EF402021370BC9
:1028900007001306800C93052B0813058A32EF20DE
:1028A000B01583C711951375F50FC98F99C33147BB
:1028B00041B7D68513050980EF40401D1306800CF3
:1028C00093054B0813058A32EF20101383C7119527
:1028D0001375F50FC98F99C3354799BFCE85130579
:1028E0000980EF40A01A1306800C93054B081305CE
:1028F0008A32EF20701083C711951375F50FC98FB9
:1029000099C3394735B7130509808545EF40401411
:1029100001450DB737350C000546814513050550B7
:102920006FF0FFBAEFD2DF8441112E849305F100DE
:102930002A89B284EFF0BFD909ED8347F10093C42F
:10294000F4FF4A85E58FB365F400A307B100EFF00B
:102950001FEB41016FD01F84EFD29F81938581953A
:102960007945EFF0DFD609CD83A7C196850723A669
:10297000F19683A78196850723A4F1966FD09F8156
:1029800083C781950D4709458D8BE399E7FE83A7A2
:10299000C196B73500203146850793854523130539
:1029A000200223A6F196EFF0DFDA69D983A781969A
:1029B0000545850723A4F196D1B7EFD26FFB1944E3
:1029C0001306F00F85454945EFF0DFF509C57D1485
:1029D0001374F40F75F42945EF20D007194413063A
:1029E000F00F930500084D45EFF0DFF309C57D14A6
:1029F0001374F40F6DF419441306F00F9305E008F7
:102A00004145EFF03FF209C57D141374F40F6DF4E6
:102A100019441306F00F9305C0054545EFF09FF0EC
:102A200009C57D141374F40F6DF419441306F00FE7
:102A3000930540044945EFF0FFEE09C57D1413747A
:102A4000F40F6DF413351500A38EA1966FD08FF49B
:102A5000EFD20FF21306000F81454145A38E019678
:102A6000EFF05FEC1306000F81454545EFF09FEB5B
:102A70006FD04FF28280EFD2AFEC83C7019613077D
:102A80005002B7390020B387E7023734002013879C
:102A9000C91D41119386C91D36C6BA970307C49252
:102AA00023AEF194635D07001306400281453E8525
:102AB000EFD06FF0EF30403241016FD02FEC83C781
:102AC0003195FDDB83C7C197E5DB83C7E19713042D
:102AD000C49281E78D47238FF196EF20A06E834744
:102AE000C40003A741968346B400A2073307E5401C
:102AF000D58F2A8BE362F7FCEFF01FE655FD373CDC
:102B00000020930C0C24373700201307472313862B
:102B10008C0193070C2493040C2494438315070021
:102B20000907AE9694C39107E399C7FE03C41196B3
:102B300003A7419505041374F40F8567A38081965C
:102B400023A261973307EB4093877738E3F6E7F6E4
:102B50008840373D0020EF70A05583A58197EF6036
:102B60003065EF70E04E88C0C840EF70605483A5B8
:102B70004197EF60F063EF70A04DC8C08844EF70DC
:102B8000205383A50197EF60B062EF70604C88C45A
:102B900093048D221386C40013078D22814719C424
:102BA00083A70C00B3C78702C207C1872310F700B1
:102BB0000907910CE314C7FE6146814513050C24F7
:102BC000A3800196EFD02FDF03A4C195194623AA55
:102BD0006195130CC400E2852285EFD06FDC130BE6
:102BE00084011946DA856285EFD08FDBB735002086
:102BF00019469385A5235A85EFD08FDA83C7C197ED
:102C00000547639EE7089967697713866400938791
:102C1000871A130787E58396040063DDD7062390A0
:102C2000F4008904E399C4FE930424011946A6859F
:102C300013056400EFD0CFD679041946A285268506
:102C4000EFD00FD6194693058D222285EFD04FD5B0
:102C500083C7E197FD1793F7F70F238FF196E39D55
:102C600007E403A5C195EF30201703C5019693072C
:102C7000500213065002133515002380A196330528
:102C8000F502B24781453E95EFD0EFD28D47238FB5
:102C9000F1961DB5E3D7E6F82390E40059B709474C
:102CA000E398E7FA2285EF00E0665DB7EFD2AFCA9E
:102CB000832A0500032A45002A84832985000329E5
:102CC000C500D6855685EF60B04EAA84D285528560
:102CD000EF60104EAA852685EF608055AA84CE85C8
:102CE0004E85EF60F04CAA852685EF606054AA847B
:102CF000CA854A85EF60D04BAA852685EF60405390
:102D0000EF40E062AA8503A5C186EF60F008AA84BF
:102D1000AA855685EF60D04908C0A6855285EF6028
:102D2000304948C0A6854E85EF60904808C4A68506
:102D30004A85EF60F04748C46FD02FC5EFD2CFC0AF
:102D4000832BC500C445832A050083A90500032AF7
:102D5000450003AB45000329850003AC85002A84A8
:102D6000A6855E85EF60D044AA8CCE855685EF603F
:102D70003044AA856685EF603071AA8CDA85528569
:102D8000EF601043AA856685EF601070AA8CE2851B
:102D90004A85EF60F041AA856685EF60F06E48C411
:102DA000CE855E85EF60D040AA8CD6852685EF6003
:102DB0003040AA856685EF60A047AA8CE2855285DF
:102DC000EF60103FAA856685EF608046AA8CCA85B1
:102DD0005A85EF60F03DAA856685EF60F06A08C00D
:102DE000DA855E85EF60D03CAA8CE2855685EF607F
:102DF000303CAA856685EF603069AA8CD28526852D
:102E0000EF60103BAA856685EF608042AA8CCA8578
:102E10004E85EF60F039AA856685EF60604148C055
:102E2000E2855E85EF60D038AA8BDA855685EF6043
:102E30003038AA855E85EF60A03FAA8AD2854E858C
:102E4000EF601037AA855685EF601064AA89CA859D
:102E50002685EF60F035AA854E85EF60603D08C499
:102E60006FD00FB2EFD2CFAD2A8403A5419879710C
:102E7000AE843305A640328AEF608034AA8903C548
:102E8000140083C704002E8922055D8D420541850B
:102E900023A24199EF60C02B4E86CA86EF50406353
:102EA00003A6018383A64183EF5080622A8D03C568
:102EB000340083C72400AE8C22055D8D4205418518
:102EC000EF6000294E86CA86EF50806003A601831A
:102ED00083A64183EF50C05F2A8C03C5540083C78B
:102EE0004400AE8B22055D8D42054185EF60402692
:102EF0004E86CA86EF50C05D03A6018383A6418338
:102F0000EF50005D2A8AAE896A86E6866A85E68584
:102F1000EF50005C2A89AE846286DE866285DE859B
:102F2000EF50005B2A86AE864A85A685EF40F010FA
:102F30002A89AE845286CE865285CE85EF5040597E
:102F40002A86AE864A85A685EF40300F2A86AE8651
:102F50002A89AE84EF50C05703A6818383A6C1831C
:102F6000AE8D2AC6EF40F07B03A6018483A6418480
:102F70002A8BAE8A4A85A685EF40B07A2A86AE862D
:102F80005A85D685EF50702903A6818483A6C18413
:102F9000EF40B00A2A8BAE8A2A86AE866A85E6851D
:102FA000EF500053EF70801D5A86D6862ACADE8500
:102FB0006285EF50E051EF70601C5A86D6862ACCAD
:102FC000CE855285EF50C050EF70401BB24703A62C
:102FD000018583A641852ACEEE853E85EF4070743B
:102FE00003A6818583A6C1852A8AAE894A85A685DE
:102FF000EF50004E2A86AE865285CE85EF50F021E6
:1030000003A6018683A64186B7140020EF40F00294
:10301000EF70C0164C082AD01385047CEFF01FD245
:103020001385047CEFF09FC8834714000347040016
:103030009384047CA207D98F2398F400834734003B
:1030400003472400A207D98F2399F4008347540033
:1030500003474400A207D98F239AF40045616FD03B
:10306000EF91EFD26F8E83C76500B7340020AA8935
:10307000F19B93E727002383F50003C7E1978D4772
:103080002E84938444266312F702EF20201523A098
:10309000A19823A0040023A2040023A4040023A6D3
:1030A000040023980400A38F019603C5F197994764
:1030B0001946130A15003305F502137AFA0FA38F88
:1030C000419737390020930589222695EFD04F8DFF
:1030D0008D47631CFA2283476400370B0080854AC2
:1030E000CD9B2303F4007D1B914B034A640093970F
:1030F0002A00CE9788439377CA00CE978C433375C6
:103100006501B3F56501EF60C077635BA00093F7DD
:103110003A008A07137A3AFF336AFA00230344011C
:10312000850AE3947AFD03A5090093050000EF608A
:10313000A07E635E051C83AB018703AC4187373AF1
:103140000020938A4900130B8A25C109130A8A2596
:1031500003A50A00E285910AEF609005DE85EF6025
:103160003005EF60F06E2320AB00110BE39259FFA6
:1031700083270A000347640013098922A98793F66D
:10318000F70092063D8B558F2303E40013D74700C9
:10319000A303E40013D7C7002304E400034794000B
:1031A000D183858B799BD98FA304F40083274A00B0
:1031B00003479400A98793F6F7078606058B558F7A
:1031C000A304E40013D777002305E4000347B40009
:1031D000BD8393F7F703137707FCD98FA305F4009A
:1031E00083278A000347B40093D6A7409A06137733
:1031F000F703558FB187A305E40013D78700A30910
:10320000E40003D70198039804002309F400230184
:10321000E4022183A301E40203474402C1839D8B9E
:10322000137707FC136737002302E4020317090032
:10323000B306074113F6860FD18FA182230AF4004B
:10324000A30AD4000316290083982400834674013E
:10325000B30716418D87230BF400A183819AFD8B60
:10326000D58FA30BF40083164900039544008345D2
:103270007401B387A64013D337401603FD89B3E525
:103280006500A30BB40003936400998793D587006E
:10329000230FF400B30707019A977558B3C70703C4
:1032A00013F735009A97A58713F3F7030A033367DB
:1032B0006700A30FE400034704029983858B799B81
:1032C000D98F2300F40203978400B3071601BA973D
:1032D000B3C70703BA9703470402A5878607058B80
:1032E000D98F2300F4020397A400B387A600BA97EE
:1032F000B3C70703BA9703471402A58793F7F707E5
:10330000137707F8D98FA300F4026FC07FE783AB70
:10331000C18625B5EFC2DFE5EF10D06A2A86B73542
:10332000002037350020938585221305E522EFF034
:103330007FB383C7019613075002B7350020B387C8
:10334000E7029385C51D371500201305057CBE9542
:10335000EFF03FD16FC01FE483C7419A89EBEFC202
:103360003FE1EFE04F8A23A2A18C6FC0BFE201458D
:1033700023A2A18C828031C9EFC29FDF2A84EFF0A3
:10338000BFFD03C7418C2300E40003C7518C83C7F2
:10339000618CA300E4002301F40083A7019AA30138
:1033A000F40013D78700C183A302F40083A7C19957
:1033B0002302E4002303F40013D78700C183A3038F
:1033C000E4002304F4006FC0FFDC8280EFC2BFD8AA
:1033D000B73400209387C49203C727028946328AF4
:1033E0009384C492931716006305D7108D46630B20
:1033F000D71285466318D7029356F54133C7A60006
:10340000158FB386F40003C6E601635DC70013D6CB
:10341000F54183C6F6013347B600118F6354D700D8
:1034200081450145A697838977000389870083C773
:103430002401B389A90203C71401A207D98F330954
:10344000B90293D9594013595940BDCFB307290345
:1034500013172A0023880198338439033E949387F5
:10346000018BBA979C436365F40085472388F198E4
:10347000EF10505511E10545E147B307FA02373621
:1034800000209306862893058628BE969C4289CF05
:103490003307F54083C7240103C61401A207D18F67
:1034A0006369F70C23A0060083C7019991CFE14718
:1034B000330AFA023386450100CA7D84232236018D
:1034C0002324260140CA08C28564138504802A99F2
:1034D0001386F4FF81454E95EFD0DFC22A84138610
:1034E000F4FF81454A85EFD0FFC1320522956FC0B8
:1034F000DFC99356F54133C7A600158FB386F40094
:1035000083C6E6016353D700014593D6F54133C71F
:10351000B600158FB386F40083C6F601E354D7F0E6
:10352000814509B73387F4001356F5410347E70196
:10353000B346A600918E63CCE602FD566343A0001D
:1035400085463307D7023A953387F40013D6F54101
:103550000347F701B346B600918EE3C3E6FCFD5680
:103560006343B00085463307D702BA9565BD014570
:10357000E1BFD8429C463387E902B307F9023E9780
:10358000E35407F2904AD44A9357F441B307F60242
:10359000B386860233088602B69733368602B29720
:1035A0000D46B307F602B3060603333606038D82D3
:1035B000B2971396D701D18E3306E7028D87331762
:1035C000E702E363F7EE6394E700E36FD6EC23884A
:1035D000019801498149C9BDEFC29FB99387C18B49
:1035E00003D7470003D5070083D52700B734002051
:1035F00083D76700373400201304849A9384842B84
:1036000098C403474400DCC4834734002207834640
:1036100014005D8F8347240088C0CCC0A207D58FDB
:10362000998D01461D8DEFF07FDA0347840023A0BA
:10363000A19A834774002207834654005D8F834715
:103640006400CC448844A207D58F0546998D1D8D12
:10365000EFF0DFD723AEA1986FC0DFB383C7419AE5
:1036600063850720EFC23FAF37250200A38701988B
:1036700023870198EFD09FE037050200130505046A
:10368000EFD0DFDF6317051C83C7D1988DC73737AD
:1036900000201307C7928347070093C6070893F6D5
:1036A000060893F7F707D58F2300F7008547A38710
:1036B000F1982387F198A386A19837850400EFD06D
:1036C000FFDB2A896319051883C7C19885CF37376F
:1036D00000201307C7928347070093C6F7FF93F6AE
:1036E000060293F7F7FDD58F2300F700958393C764
:1036F000170013F51700EFD07FF28547A387F198E5
:103700002387F198370502001305050823862199C0
:10371000EFD0DFD66313051483C7B1989DC3373745
:1037200000201307C7928347070093C6F7FF898AD3
:10373000F59BD58F2300F7008547A387F198238752
:10374000F198A385A19837850200EFD03FD32A894D
:103750006317051083C7A19885CF3735002083579D
:103760008527797713070708F98F93E70760231CEC
:10377000F52683C7519B130785271305852793B724
:103780001700A301F700EF10107E85472387F198FB
:1037900041651305051023852199EFD03FCE2A8975
:1037A00069E183C79198A1C3B73500209387C5927B
:1037B0001385A7FF9385C5929306F00F03C7870172
:1037C00013061700238CC7006315D700FD17E39776
:1037D000A7FE373500201946CD051305A579EFC0A2
:1037E0003F9CEFD0AFACB737002083C79779A38455
:1037F0002199B5EB41650505EFD05FC82A8925E51C
:1038000083C7819885CB373500208327852737E705
:10381000FF0013070708F98F370700011307573018
:10382000D98F232CF52613058527EF10D0738547F4
:103830002387F19883C7E1982384219981C705459F
:10384000EF10A06E83C7F19899C3EFD02FA66FC079
:10385000DF9305458DB5054975B50545DDB50549C8
:1038600005BF054949B70549F1B78280EFC25F90AE
:10387000370502001105EFD07FC01DED83A78199A8
:103880009DC7EF10B01583A781991D8D9307400642
:1038900063FDA70083C7419A91E72D651305C571A4
:1038A000EF60504085472382F19A6FC0BF8EEF10C2
:1038B000F01223ACA198D5BF2382019A23AC0198C2
:1038C000EDB7EFC2FF8A83A7019B850723A8F19A72
:1038D00081E7054723A6E180EF10501083A74199A7
:1038E0006300F502EF10900F83A7C18083A6419972
:1038F000958FAA9723A6F180EF10500E23AAA198C6
:10390000EFF0DFF6EFE0EFDFEFF0EF96EFF01FD52F
:103910006FC05F88EFC2DF852A84AA851305002067
:10392000EF300048A2850545EF30A045A28505454A
:10393000EF30E048A2850945EF306048A285056573
:10394000EF300046A2851165EF308045B704024094
:10395000A28513854404EF20B030A2851385840529
:10396000EF201030A28513858400EF20702FA285F0
:1039700037050040EF30007937050040A285130578
:103980000540EF302078B7440140A28513850480BC
:10399000EF30701222869305000413850480EF3007
:1039A00010136FC02FFFEFC2AFFC371702401C434C
:1039B000B70608000111D58F1CC30545EF30203034
:1039C000716513050520EF3090133735002013067D
:1039D0005002814513054579EFC0EFFD2D651305B4
:1039E000C572EF60302C85457145EF30603B8545F1
:1039F00013050020EF30C03A85450545EF306038AB
:103A000085450545EF30A03B85450945EF30203B16
:103A100085450565EF30C03885451165EF30403884
:103A2000EF10207CEF10E0782945EF10B002EFD0C6
:103A30002FC46800EF30E029EFD0DF90EF101013B3
:103A4000EF10F007EFD0AFFDEF103068EF10A00AD5
:103A5000EF10E051EFE01FECEFF0CF81EFE0FFF56A
:103A6000EFC03F83EF30201EAA850545EFC05F8B76
:103A700005616FC02FF2EFC20FEE0545EF30800BEE
:103A8000EF10A062EFF03FF283A541812D65130591
:103A90000574EF60B00C3145EFD05F9E238AA19A88
:103AA000EF00903D0D6513056537EF204028EF20AE
:103AB000003303C5419BB734002037440020133541
:103AC0001500EFD0FFA0EF10000313040427938428
:103AD0004479054BEF107034EFF01FB0EFF0DF8743
:103AE00083A7418C13D787002300F400C1832301EF
:103AF000F40083A7019AA300E400A301F40013D704
:103B00008700C183A302F40083A7C1992302E400C4
:103B10002303F40013D78700C1832304F400A30315
:103B2000E400EFF01FDA83C7A18991CF23826401FB
:103B3000EF20803CEF20802BEF204019EF10701415
:103B4000EF20E04041BFA382040023820400EDB7D0
:103B500082808345D5000345B5001306F00F6FE062
:103B60007FDC828082808280B73700209387872C19
:103B700023A807022396070223A407028280EFC22C
:103B80002FDF37340020AA84EFF01FFE1309842CA6
:103B900089679387071A130620029385B4001305DB
:103BA00029002314F42CEFC0AFDF93074002130564
:103BB000842C2316F902EF00702C6FC0AFDDEFC22A
:103BC0002FDB2A84EFF05FFA0347A400373500208B
:103BD0009307852C930600F8A380E7001305852C36
:103BE0000D472380D7002381E7002396E702EF00EB
:103BF000F0286FC02FDAEFC20FD6AA84EFF0DFF6FD
:103C000003C7A40083C9B400373A002093078A2C65
:103C1000930610F82380D700A380E70023813701A3
:103C2000854713098A2C638EF9008947638AF90452
:103C30008D4713058A2C2316F902EF0030246FC03C
:103C4000CFD4373400201304447919469385C40037
:103C50001305C400EFC0CFD41946930564001305C3
:103C60003900A3093401EFC0AFD3AD656146938538
:103C7000856A13059900EFC0AFD29307100255BFB4
:103C8000B735002041469385857A13053900EFC08A
:103C90002FD1CD4779BFEFC2AFCD2A84EFF0DFEC53
:103CA000B737002083C78794ADCF0547638FE706FA
:103CB0000D4793079004B71500209386C57E238097
:103CC000E6000347A40037340020A380F6009307E2
:103CD000842C930620F82380D700A380E700B73711
:103CE0000020938747791387C57E9386A7FF9304A7
:103CF000842C03C6B700FD170507A301C700E39A8C
:103D0000D7FE31469385C57E13852400EFC04FC989
:103D1000B9471305842C2396F402EF0030166FC0C8
:103D20006FC70D479307800479B711479307300396
:103D300059B7EFC2EFC32A84EFF01FE30347B40083
:103D40008D46930707FD93F7F70F63E6F600B72755
:103D500000202388E78A0347A40037350020930713
:103D6000852C930600F8A380E7001305852C0947EE
:103D70002380D7002396E702EF0050106FC08FC159
:103D8000EFC20FBF2A84EFF03FDE8347A400B734B1
:103D900000201384842CB7150020130730F839460F
:103DA0009385C57D130524002300E400A300F400DF
:103DB000EFC00FBFC1471385842C2316F402EF0018
:103DC000F00B6FC02FBDEFC2AFBA2A84EFF0DFD97E
:103DD0000347A400373500209307852CA380E70014
:103DE0000547930600F82381E7001305852C0D474E
:103DF0002380D7002396E702EF0050086FC08FB9E9
:103E0000EFC20FB72A84EFF03FD60347A40037353F
:103E100000209307852C930600F8A380E700130584
:103E2000852C0D472380D700238107002396E702C6
:103E3000EF00D0046FC00FB66FF09FFC6FF05FFC17
:103E40006FF01FFCEFC22FB14111AA84EFF0DFD158
:103E50009385B4002E852EC6EFD04FA983C7F400FA
:103E60007547B2452A8975446364F70013F4F70F68
:103E700083C7A400B739002037350020130700F9A5
:103E80009384892C15461305A52C2380E400A38078
:103E9000F400EFC0EFB0B735002022869385F52CF3
:103EA0004A85EFC05FBA1D041374F40F1385892C83
:103EB00023968402EF00807C41016FC00FADEFC2FA
:103EC0002FAB41112A84EFF03FCA1305B400EFD0A5
:103ED000EFA10346F40093050401AA8432C62EC460
:103EE000EFC0BFC53246A2452685EF10900C0347B0
:103EF000A400373500209307852C930600F8A38093
:103F0000E7001305852C0D472380D7002381070088
:103F10002396E702EF00807641016FC0AFA7EFC2A2
:103F20002FA52A84EFF05FC40347A4003735002093
:103F30009307852C930600F8A380E7001305852CD2
:103F400009472380D7002396E702EF0020736FC054
:103F50006FA46FF0DFFC6FF09FFCEFC26FA12A84AB
:103F6000EFF09FC00347A400373500209307852C4E
:103F7000930600F8A380E7001305852C1307400281
:103F80002380D7002396E702EF00406F6FC08FA019
:103F9000EFC20F9E2A84EFF03FBD0347A4003735E0
:103FA00000209307852CA380E7001305852C094783
:103FB000238007002396E702EF00406C6FC08F9DBF
:103FC000EFC20F9B2A84EFF03FBA0347A4003735B6
:103FD00000209307852C930600F8A380E7001305C3
:103FE000852C59472380D7002396E702EF0000690C
:103FF0006FC04F9AEFC2CF972A84EFF0FFB6034706
:10400000B40037350020A386E19A0347A400930744
:10401000852C930600F8A380E7001305852C09473B
:104020002380D7002396E702EF004065B7370020D2
:104030000547A38CE7786FC0EF95EFC26F932A8492
:10404000EFF09FB20347A400373500209307852C7B
:10405000A380E70003C7D19A930600FB1305852CC4
:104060002381E7000D472380D7002396E702EF0066
:10407000E0606FC02F92EFC2AF8F2A84EFF0DFAE07
:104080008347B400373500202384F19A238EF196BC
:104090000347A4009307852C930600F8A380E7004C
:1040A0001305852C09472380D7002396E702F923BF
:1040B0006FC04F8EEFC2CF8BAA84EFF0FFAA03C769
:1040C000B4001385819A238EE19683470500373922
:1040D00000201304892C85EB83C7A4000547230027
:1040E000E500A300F400130700F893070014231160
:1040F000F4002300E4008D471305892C2316F402F5
:10410000B52B6FC02F8911469385B4000505EFC00C
:104110002F8983C7A400130700F82300E400A3003D
:10412000F4008947D1BFEFC2AF84AA84EFF0DFA3C8
:1041300003C7C4009306000203C5B400930700023E
:1041400063E3E600BA8703C7A40013F4F70F373917
:104150000020B73500209304892C930600FC2286AA
:104160009385C52C2380D400A380E400A381F400B0
:104170002381A4001104EFE0CFDD1374F40F1305C5
:10418000892C23968402DD296FC0CF80EFB25FFEB9
:104190002A84EFF07F9D0347B400B727002037350E
:1041A00000202384E78A0347A4009307852C930605
:1041B00000F8A380E7001305852C09472380D7006A
:1041C0002396E70265296FB0FFFCEFB27FFA2A84DD
:1041D000EFF09F990347A400373500209307852C03
:1041E000A380E70013078061930600FD2391E70099
:1041F0001305852C11472380D7002396E702BD299C
:104200006FB05FF9EFB2DFF62A84EFF0FF95034756
:10421000A400373500209307852CA380E700514781
:10422000930610FD2381E7001305852C0D4723809D
:10423000D7002396E70299216FB0DFF5B73700204A
:1042400011679387C72F1307E7BB98C3116713073D
:1042500067BFD8C31167130767C998C711671307EA
:1042600027D3D8C71167130707D898CB116713074F
:1042700067DCD8CB1167130707B598CF1167130711
:1042800067B6D8CF1167130707E098D311671307F4
:1042900047E4B8C311671307E7EBF8C311671307C7
:1042A00087E39166B8C7938626B61387070814C3B9
:1042B00091669386E6B754C391669386E6F114C778
:1042C00091669386C6E314CB9166938606E454CB3D
:1042D0009166938626F514D391669386A6F554D3FA
:1042E0009166938606F914D79166938606FC54D797
:1042F0009166938646FF34C391669386A60374C382
:104300009166938646B634D31167938707101307D7
:10431000670798C311671307470BD8C311671307C3
:1043200027B598C7116713076712D8C71167130716
:10433000C71898D311671307A71CB8C311671307D1
:1043400067F5F8C3116713074720B8C7828083C792
:10435000419B99C708419305650009056FD05F86A9
:104360008280EFB2FFE02A8483454400084137375A
:104370000020D11593F5F50F2302B4008347A50063
:104380001307C72F8A07BA979C4399C3829719A02E
:104390001C43EDFF2285EFF09FFB6FB0BFDF0347AB
:1043A0004500854763F3E7081C41C1C383C7170075
:1043B0001547FD1793F7F70F6369F706EFB25FDB59
:1043C0002D678A0713070775BA979C433734002077
:1043D0008287B70700031305447593871718B7350D
:1043E00000201CC119469385A5791105EFB05FDB4C
:1043F000854629469305447513854173EF00807BFC
:104400006FB05FD993071028231AF47485460946C4
:10441000D5B793071038CDBF93071048F5B793076A
:104420001058DDB793071068C5B78280EFB2BFD2CE
:1044300037340020AA89614681451305C46FEFB067
:104440009FD7014AB73A002063143A0181440DA076
:104450001545EF0030601949EFE00FD0AA841545EB
:10446000EF00505FA9C87D191379F90FE31609FE13
:104470001304C46F0840EF50B04383A58197EF50F9
:104480002053EF50F03C08C04840EF50704283A5E5
:104490004197EF50E051EF50B03B48C00844EF5017
:1044A000304183A50197EF50A050EF50703A08C4F7
:1044B00026856FB09FCD9307C46F13874A23138659
:1044C00087019443831507000907AE9694C39107AB
:1044D000E319F6FE050A8DBFEFB2FFC7EFF01FF537
:1044E0002A8A63170516B73400209384C46FC84422
:1044F000EF50103C83A58187373400201304049FBC
:10450000EF50800983A5C187EF409052834714087C
:1045100003470408AA8AA207D98F3305F040EF5059
:104520003039AA855685EF40B050EF50703293175E
:1045300005012300A4028848C183A183A300F402DB
:10454000EF50103783A58187EF50000583A5C18701
:10455000EF40104E8347340803472408AA8AA20775
:10456000D98F3305F040EF50B034AA855685EF401F
:10457000304CEF50F02D931705012301A402C848D9
:10458000C183A183A301F402EF50903283A58187F8
:10459000EF50800083A5C187EF40904983475408BE
:1045A00003474408AA8AA207D98F3305F040EF5089
:1045B0003030AA855685EF40B047EF5070299317E9
:1045C00005012302A4028840C183A183A302F4024F
:1045D000EF50102E83A58187EF40107C83A5C18703
:1045E000EF401045EF50D026931705012306A40293
:1045F000C840C183A183A306F402EF50702B83A5AA
:104600008187EF40707983A5C187EF407042EF50FA
:104610003024931705012307A4028844C183A18392
:10462000A307F402EF50D02883A58187EF40D0760E
:1046300083A5C187EF40D03FEF509021931705012C
:10464000C183A1832308A402A308F402EFC0CFCD45
:1046500052856FB09FB3EFB2BFB10145EF00F00CD0
:104660002945EF00303FB707EFBE37E700E09387FB
:1046700007083CC76FB01FB26FF05FBC0346C502AE
:10468000AA8581461385417335A32E86AA858D465A
:104690001385417305A3B737002013874771890538
:1046A000F956A300A70093F5F50F13854771230072
:1046B000D7006FF09FFDEFB2BFABB73400203734A7
:1046C0000020B7350020130444711306D0039385EE
:1046D000C5921385747123010400EFB07FAC93057C
:1046E000E0030545EFF03FFBB73500208547130693
:1046F000D00393859596138574712301F400EFB070
:104700003FAA9305E0030545EFF0FFF83735002099
:104710001306B003814513059571EFB0DFA98947F2
:104720002301F400B73700209387679A03C7070077
:1047300083C71700138974718D4505452300E9006F
:10474000A300F900EFF03FF59307F03F89450545D9
:104750002311F400EFF03FF46FB0DFA3EFB25FA1DD
:104760000C411307F00F83C7150003C4E19A639649
:10477000E70483C725002A890147639C870003C794
:10478000350085476314F700EFC04FB2EFC0CFE6A6
:104790000547B7370020938747712381E700032738
:1047A000090089450945034737002387019AA381FA
:1047B000E700EFF05FEE6FB0FF9D1307D003B38704
:1047C000E702373500201306C0071305C5921D8E7A
:1047D0003E956374C7001306D00389050504EFB046
:1047E0003F9C2387819AC1BFEFB29F982A840841DA
:1047F0000505EFC0BF8F0C40AA8437350020154651
:10480000850513056571EFB0BF991C40B7350020D1
:10481000268503C657009385B571EFC0CFA21C4013
:104820000D4583C55700950593F5F50FEFF0BFE6ED
:104830006FB05F96EFB2DF932A8408410505EFC0A1
:10484000FF8A0C4003C655009905EFC00FAFB7377C
:104850000020238BA77085451145EFF0DFE36FB093
:104860007F93EFB2FF905145EFF01FC703C721952B
:10487000B7370020938747712381A70089451545E5
:10488000A381E700EFF03FE16FB0DF90EFB25F8E02
:104890001387C18B83560700B73700209387879A09
:1048A000A380D700A1822381D70083562700014629
:1048B0008145A381D700A1822382D7008356470078
:1048C000035767002165A382D700A383E700A18275
:1048D00021832383D7002384E70023800700EFC0D0
:1048E000CFA5B7370020238BA77085451D45EFF076
:1048F0009FDA6FB03F8AEFB2BF87B735002093854C
:1049000075713D45EFD0BFDCB73700201387477185
:104910002301A70003A7C1809387477101E70547DB
:1049200023A6E18083A6C18003A7019B3735002021
:104930003357D70211469385C1961305957123828B
:10494000E700EFB0FF85373500201146938581964B
:104950001305D571EFB0DF84AD451305D00FEFF02F
:104960009FD36FB03F83B7370020130700308945CE
:104970001305F00F239BE7706FF0FFD1144105463C
:10498000938716001CC1834745006373F608EFB296
:104990002FFEFD172302F50083C716009D4663E036
:1049A000F60295CBFD1793F7F70F994663E5F602EC
:1049B000AD668A0793868676B6979C4382871307EF
:1049C000E00F638EE7021307F00F6387E702130718
:1049D000D00F6389E7026FB0EFFBEFF0DFCDE5BFEB
:1049E000EFF0DFD7CDBFEFF03FE0F5B7EFF09FE49A
:1049F000DDB7EFF01FE7C5B7EFF0FFF6E9BFEFF067
:104A00009FC5D1BFEFF03FEFF9B7EFF03FE8E1B757
:104A10008280EFB2EFF51C411307000883C707003F
:104A20006389E702636AF7000547638EE700414741
:104A3000638EE7006FB00FF61307E00FE39CE7FE0D
:104A4000EFF0DFF3C5BFEFF0DF91EDB7EFF03F9090
:104A5000D5B7EFF0DF94F9BFEFB28FF141112A849F
:104A60008545054502C002C202C402C6EF2040339C
:104A700085450545EF1030631149B14489470A85E2
:104A80003EC04AC226C422C6EF107023BD45094568
:104A9000EF107061A1670A853EC04AC226C422C6D3
:104AA000EF10F02199450545EF10F05F93070004E2
:104AB0000A853EC04AC226C422C6EF1050209D453A
:104AC0000545EF10505E930700080A853EC04AC2B4
:104AD00026C422C6EF10B01EB9450545EF10B05CE4
:104AE00091670A853EC04AC226C422C6EF10301D17
:104AF00041016FB02FEAEFB2AFE741113715014026
:104B000091474C00130505C03EC62312F100231344
:104B100001002314010023150100EF10B04B4101E7
:104B20006FB04FE7EFB2CFE40545EFF0FFF2054578
:104B3000EF20E0180145D52E13054006EF00806FE9
:104B400013051006EF20402D854719CD0545EF00D0
:104B5000607089450545EF2000080545EF00806F2E
:104B60000145EFF07FEF81473E856FB0AFE29307DD
:104B7000000463EEC702EFB20FDE2A84054515C4B8
:104B80002E8985C5B28481451306C00813054400EB
:104B9000B689EFB04FE28547232024012303940810
:104BA0002302F408A306340901456FB00FDE130594
:104BB000F00F8280EFB22FDA9304F00F59C1D1C108
:104BC0001C412A84BDCF8344C508BDEC034765085A
:104BD0008327850863DAE7068347D508B68913F982
:104BE000F70F6374F6001379F60F930784080547EF
:104BF0002FA7E700832784088347540803476408E6
:104C0000850793F7F70F63E3E70081470345D4086F
:104C1000A302F4084A86B307F50208403E95EFB0B8
:104C20002FD883475408A297238227012382370570
:104C300083476408032784086345F70085472306F4
:104C4000F40826856FB06FD48544E5BFAA8721C9D3
:104C500018411305F00F31C703A78708014531C379
:104C600013878708FD56AF26D70003A7870803C719
:104C7000470883C6670805071377F70F6363D700F4
:104C800001472382E70803C7C70809CB03A78708A2
:104C9000B326D70093C616002386D7088280130553
:104CA000F00F8280EFB2CFCC05650111854511056B
:104CB00002C002C202C402C602C802CA02CC231E3B
:104CC0000100EF20E00D930700082310F1003715D5
:104CD0000140E1473EC48A858D47130505803EC2E9
:104CE000EF10502FB7C704013EC6B70700023ECAF7
:104CF000930700023ECC6C009D4737350140231ED0
:104D0000F10002C8EF2020140546894537350140DF
:104D1000EF20E01A05616FB0EFC7EFB2CFC3797132
:104D20002A84AE89328981451306C0024800B684C0
:104D3000EFB06FC885450545EF20A0042285EF1030
:104D4000A060C1473EC6930700083ECC9307001001
:104D50003ECE4C00856722854EC24AC426C83ED44A
:104D600002CA02D002D202D6EF10006C45616FB0C9
:104D7000CFC1B706000141110147814793850181E9
:104D8000FD166148137615002E9603460600058130
:104D90003316E600D18F0D07F58FE31507FF139546
:104DA00007014181239CA19AC1831375F50F938656
:104DB000819B2381A600238CF19A83D7819B420596
:104DC0005D8D41018280EFB20FB98D4AB304550366
:104DD0003734002032851304C47B2E8AB689EFF065
:104DE0005FF99357850013895400330959032299B9
:104DF0002300A9004181A300F9002301A900138920
:104E00006400330959039D045285EFF09FF69357D0
:104E10008500B384540322992300A9004181230112
:104E2000A9004E85A300F900EFF0BFF49357850069
:104E300026942300A4004181A300F4002301A400D0
:104E40006FB0AFB4EFB22FB12A8937350020130607
:104E5000301281451305C57B37340020EFB0AFB564
:104E6000814981441304C4920D4A8347340263CCC0
:104E7000F40663080906B737002083C667799307ED
:104E800080FC1145B386F60293F6F60F3686B6859A
:104E9000EFF07FF3034404009306800C9317840122
:104EA000E18763D3070081463686B6851545EFF066
:104EB0009FF113740402814619E09306800C368634
:104EC000B6851945EFF03FF083C6519B930780FCF0
:104ED0001D45B386F60293F6F60F3686B685EFF0DB
:104EE0009FEE6FB08FAA8347040013F5F40F898BF0
:104EF00099E363190900814601468145EFF0BFEC53
:104F00008504A5B7B3874903A29783C6670203C682
:104F1000570283C54702EFF01FEB9387C4FF93B797
:104F2000470093C71700BE99E1BFEFB26FA4EFF03F
:104F30007FF137050240B73700201305050393873B
:104F4000C77B5CC5B737002083C7F7940D478545FD
:104F5000B387E702A907B387E7025CC1EF104050AF
:104F6000854537350140EF10B0736FB0AFA2EFB297
:104F70002FA0EFF03FD3B737002083C7F7940D473A
:104F80008D46B387E70237360020B7350140370535
:104F900002401306C67BB10513050503A907B386B6
:104FA000D702EFF09FD70545EFF03FF801456FB00E
:104FB0006F9E13050020EF1000500DC11305001067
:104FC000EF10A04F37050240814513050503EF1090
:104FD0002049814537350140EF10906C7300203037
:104FE000B7470240938707809843B706C1FFFD1675
:104FF0001367070198C3B727024098431367070157
:1050000098C39843719B98C398431367270098C32C
:10501000B7170240D843D8C3D843D8C3D84313677F
:105020000740D8C3D843758FD8C3D843B7061C00F0
:10503000558FD8C39843B7060001558F98C3B7065C
:1050400000029843758F75DFD843B7160240719BF5
:10505000D8C3D84313672700D8C32147DC42B18B9C
:10506000E39EE7FE8280B71702409843B706FFF839
:105070001367170098C3D843758FD8C39843B706F2
:10508000F7FEFD16758F98C39843B706FCFFFD1613
:10509000758F98C3D843B70681FFFD16758FD8C3A7
:1050A00037079F0098C76FF0BFF3371702405C4384
:1050B000A146B18B6391D7065C4354434166C983D3
:1050C000BD8BF18E890781EE3747024003270780A9
:1050D000418B19CB37177A001307072011A85843C3
:1050E000B7060200758F7DD737173D00130707906D
:1050F000B387E702371702405443371700201307DE
:10510000877F9182BD8A369703470700B3D7E700B0
:1051100023AAF1808280B7177A0093870720D9BF2E
:105120006FF01FEC854537050040EF20000B8547E9
:10513000631CF50083A7419C854537050040850722
:1051400023A2F19CEF20E00B73002030EFB24F82DE
:105150000111930770043ECA4C089307703E37054F
:1051600000403ECCEF1010570546854537050040FE
:10517000EF10707C854537050040EF10B07893073D
:10518000C0122316F100680085472307F1003EC8CE
:10519000EF10501B956737E700E0938747127CC3F9
:1051A000B207B706002CB183D58F7CD305616FA001
:1051B0007FFE03A7C19B11E7054723AEE19A6FF07D
:1051C000FFF8828083A7419C1307803EB387E702E4
:1051D00037070040035547023E95828003A5419C56
:1051E000828083A7418137177A0013070720B3D73E
:1051F000E7022380F19C828019E501458280014508
:1052000041016FA03FF9EFA2BFF641112A84AE849D
:105210003289EFF03FFB2AC6268502946DF1EFF04C
:105220007FFAB2471D8DE379A9FE268502941335D6
:105230001500F9B7EFA2DFF341112A84EFF09FF8D0
:105240002AC6EFF03FF8B2471D8DE37CA4FE410172
:105250006FA05FF483A7419C41113EC683A7419C88
:10526000B246958FE37CF5FE41018280034625001E
:105270009306350001471376F6079D4503C80600DF
:10528000B357E6409E07B3E707012380F600050702
:105290008506E315B7FE834715000347A5009583F0
:1052A0008D8B93967700558F2305E5000347B50056
:1052B0009A0793F707F8D98FA305F5008280EFA22C
:1052C0003FEB79711306C00281454800EFA0BFEEA5
:1052D00037040240814513054404EF10601813059C
:1052E0004404EF106006B7440140938744803EC2F7
:1052F000C1473EC6930700083ECC4C0085671305A6
:1053000044043ED402C402C802CA02CE02D002D271
:1053100002D6EF106011814513058405EF1040148B
:1053200013058405EF104002B74700209387070A52
:105330003EC4930700183EC8930700023ED24C00BB
:105340008967130584053ED402C6EF10E00D1305EE
:1053500084058545EF10C0100546930500041385AC
:105360000480EF10D07645616FA0DFE2EFA25FE02E
:1053700001118545114502C202C402C602C802CA13
:1053800002CC02CEEF10D02185451165EF105021DF
:10539000930700202312F100371401408D473EC4CB
:1053A0004C00E147130504803EC6EF10A04293076E
:1053B00000402312F1004C00930780041305048081
:1053C0003EC6EF102041B7C72D00374401409387F8
:1053D000076C3EC80C08B7070C00130504803ECCD0
:1053E00002CA231E0100EF10B0621305048093056A
:1053F0000004EF10F06F130504808545EF10B06BCB
:10540000B745002037450020B546130600049385B4
:1054100005D613050599EFF08FF5B7450020374500
:105420000020B54613060004938505A213050590D8
:10543000EFF0EFF305616FA0FFD5EFA2DFD1B74921
:1054400001402A89AE84138509809305000437043E
:105450000240EF10F069130544048145EF1040004D
:10546000232824051305440444C18545EF00507FDB
:1054700005469305000813850980EF1050656FA05D
:10548000DFD0EFA2FFCE83C7219D9DCBB744014063
:105490009305000413850480EF10D06405C19305C3
:1054A000000413850480EF10B064014693050008E2
:1054B00013850480EF10B0612389019C6FA09FCDFC
:1054C000B7470020138707908325870893870790A5
:1054D000F5D503C64708354503C857083305A60266
:1054E00037470020130707A283C667083A951307BA
:1054F00018006377C802918E93950601C18123A499
:10550000E7082382070823860708B547B385F50215
:10551000C205C181EFF07FF285472389F19C79BFF5
:10552000C2051377F70FC1816363D7000147238258
:10553000E70823A40708C1BF55C5014781471D4699
:10554000B306F50083C6360093C57700850793F64A
:105550000608B3D6B640558F1377F707E392C7FE18
:10556000834725009306C50093F707F8D98F2301D9
:10557000F5008347B5000347A50099871D83898BF4
:10558000D98F0347150096071377F7F9D98FA30032
:10559000F5009307350003C7070085071377F70762
:1055A000A38FE7FEE399F6FE834705000547B14662
:1055B00093F7F7073306E500034606000507B18FAA
:1055C00093F7F707E318D7FE034715002306F50006
:1055D0001377F707A300E500034725001377F707C4
:1055E0002301E50082801DC5834705000547B146BC
:1055F00093F7F7073306E500034606000507B18F6A
:10560000E31AD7FE0345C5001375F5071D8D333525
:10561000A00082801305F00F8280EFA2FFB2370551
:10562000024013058505EF00F0642398A19C03D682
:10563000E19C83D7019D6300F60403D6E19C83D7E8
:10564000019D63FFC70483D7E19C03D6019D03D767
:10565000019D918FC207420741832397E19C03D7A5
:10566000C19CC183930600183E9763D2E60423963B
:10567000D19C239A019CB7490020B74A0020130906
:1056800010089389090A138B0A8F854B83D7C19C15
:1056900091C77D191379F90F631309026FA05FAEEB
:1056A00083D7E19C03D6019D938707184DB703D795
:1056B000C19CBA97C207C1832396F19C5DBF83D773
:1056C000A19CCE978387070063D2070483D7A19C50
:1056D0002384719DCE9783C707002300FB0083D7E7
:1056E000C19CFD17C207C1832396F19C83D7A19C5F
:1056F0008507C207C1832395F19C03D7A19C93071B
:10570000F017E3F5E7F82395019C49B78387819C5F
:105710006358F00483D6A19C138717006207CE96C6
:1057200083C60600DA9761872380D7002384E19C33
:10573000B147E3D6E7FA5A852384019CEFF0BFEA2C
:1057400059FD13850A8FEFF07FB23745002081465F
:10575000354693850A8F13050599EFF0AFC541B71C
:105760002384019CADBF39C1EFA29FA03744002024
:10577000AA8535461305048EEFA09FA21305048E5B
:10578000EFF09FDB9304048E83C7040037450020AD
:10579000814693E707F835469305048E1305059077
:1057A0002380F400EFF00FC16FA0DF9E1305E00F20
:1057B0008280EFA25F9A9357C50085669386068024
:1057C00093F7F707D58F8966374700209386F6F75A
:1057D000F58F83560722B289797613060608F18E73
:1057E000D58F2A892E8A2310F72281441304072299
:1057F000B74A0020B3059A0063C434016FA0FF9834
:10580000B3079900214613854A22A301F400EFA0B3
:105810003F992285EFF03FF5A104E9BFEFA25F9524
:105820003744002013050422B745002093071010C9
:1058300023200500254693850527232205002324E0
:105840000500230605000D052310F422EFA05F9547
:1058500013050422EFF03FF16FA0DF9383A7418C83
:10586000A5C7EFA2FF90373400209307447983C780
:10587000570013044479B9E7EFF05F969307007D72
:1058800063F2A7048347040099C7834734000347A2
:105890001400D98F81C7834724008DE73745002046
:1058A0008327052237E7FF0013070708F98F37071B
:1058B000000113070730D98F2320F5221305052295
:1058C000EFF07FEA6FA01F8D8280EFA27F8A3744BE
:1058D000002083570422797713070708F98F37458B
:1058E000002093E717602546FD5513053522231048
:1058F000F422EFA05F8C13050422EFF0DFE66FA027
:105900007F89B7450020938705229C433D4793F745
:10591000F7076368F70CEFA2BF852D678A071307A7
:105920004778BA979C4393850522828737340020B5
:105930001304447919468D0513056400EFA05F86B2
:1059400085472309F4006FA0FF84AE8793869500F6
:1059500003C7370085071347A7FA2381E700E399B8
:10596000D7FE3735002025468D051305857AEFA033
:105970003F83D1BF1387750083C73500850593C763
:10598000A7FA2381F500E399E5FEB74500203735F6
:1059900000201D46938535221305157BEFA05F80FF
:1059A000B73700200547238CE77A71BFB73700204F
:1059B0009387477903C5170003C7350013351500D2
:1059C0002381E700EFF06FD6BDBFB7370020A38378
:1059D000077A95BF03C73500B7370020A38BE77858
:1059E0009DB78280B747002083A7072293F7F70768
:1059F00099EBB745002037450020938575221305A4
:105A000035226FC0EF9B82803747002013070722A3
:105A10001C43854693F7F7076381D702EFA24FF542
:105A200089466381D70281EB034737000545A38A86
:105A3000E19AEFF08FCF6FA0EFF537370020A30A80
:105A4000F77882800145EFF04FCE2945EFF09F8037
:105A5000B707EFBE37E700E0938707083CC7E1BF11
:105A6000EFA20FF1374400209307042283C61700EA
:105A7000214713F6E6016318E6049843FD8A13777D
:105A8000F707639DC6046302D704BD46630ED700C3
:105A900099466316D702B745002003C53700214653
:105AA00093854522996709A8B745002003C53700AB
:105AB000214693854522BD675D8DEFA0DFF8130574
:105AC0000422EFF05FCA6FA0EFECB745002003C5DA
:105AD0003700214693854522A167F9BF630BC704B0
