:100000006F60C063130000001300000013000000C5
:100010001300000013000000130000001300000094
:100020001300000013000000130000001300000084
:08003000130000007300100032
:100038006FF09FFC000000006F0060186F00A01AAE
:1000480000000000000000000000000000000000A8
:100058000000000000000000000000000000000098
:100068006F60205D000000006F60A05C0000000071
:100078006F60205C6F60E05B6F60A05B6F60605BCF
:100088006F60205B6F60E05A6F60A05A6F60605AC3
:100098006F60205A6F60E0596F60A0596F606059B7
:1000A8006F6020596F50C04C6F60A0586F606058E7
:1000B8006F6020586F60E0576F60A0570000000025
:1000C8000000000000000000000000006F606056A3
:1000D8006F6020566F60E0556F60A0556F60605587
:1000E8006F5020646F20800B6F60A0546F60605465
:1000F8006F6020546F60E0536F20C0556F6060538D
:100108006F6020536F60E0526F60A0526F60605262
:100118006F6020526F60E0516F60A0516F00001D4A
:1001280000000000000000000000000000000000C7
:080138000000000000000000BF
:10014000397101436EC619A0397141536AC866CA34
:1001500062CC5ECE19A0397101535AD056D252D416
:100160004ED64AD826DA22DC06DE3301614082828E
:1001700041114AC026C222C406C68282B24D410144
:10018000024D924C224CB24B4101024B924A224A00
:10019000B2494101024992442244B2404101828065
:1001A0002A8309CA83830500230073007D16050393
:1001B00085056DFA82802A8311C62300B3007D165F
:1001C000050365FE82800145EF50E0343717024099
:1001D0001C47B7068000D58F1CC7EF50C05437E7C7
:1001E00000E03C4793E787003CC77300203073274B
:1001F000203423AAE188F326103483A7418923A859
:10020000D188372700201307C73313D68700A300F0
:10021000C70413D607012301C70413D68701A3011E
:10022000C70413D68600A302C70413D6060123030E
:10023000C70413D686012300F7042302D704A303BF
:10024000C70463CD07000D476382E7026375F700BB
:10025000F1176365F70091067390163437E700E0F5
:100260003C4793E707023CC77300203001A0EFF240
:100270003FF011458545EF70A016B74702409387C0
:100280000780984301451367470098C303A701827D
:10029000B7A74A04938707206309F700B777DC0202
:1002A000938707C06315F7000545EF70E0018545AA
:1002B0000565EF700011F9BD37370240930700FC68
:1002C0002306F74093874174C207C1832318F74080
:1002D0009387416C23A0F1A2C207C183231AF74080
:1002E00089472309F742230BF74293878189A3802B
:1002F00007008280011122CE26CC4ACA4EC852C6BF
:1003000056C43734024003476440834774409376B1
:10031000F70F098B6304075E93F7F70F13F70703D3
:10032000930500026302B70493060003630FD71618
:1003300021E713F7F703630007128546631ED70210
:1003400093F7070495CB834764431385C16993C72B
:100350000708230BF4420356844083A501A21376B9
:10036000F60FEF40704709A893F7F7036384E7029D
:1003700013071002638EE70AB73702400947238349
:10038000E7407244E2445249C249324AA24A0561F6
:100390007300203083D7618A99E78347244393F71A
:1003A000370F2309F44283C7C18A93F70706E9F799
:1003B00083C7D18A954613F7F70F638FD704994700
:1003C000E31CF7FA03D7618A9307F00313040004D0
:1003D00063E6E70003D4618A4204418003A9018BEC
:1003E0002286CA8513854174653B83D7618A229929
:1003F00023A8218B818FC207C1832393F18A1374B1
:10040000F40FB73702402388874203C727431347B7
:1004100007042389E7428DB7B736024003C7364049
:1004200083C7418A13770708D98FA381F640A9B7FC
:100430008347644393F7C70F93E72700230BF442E6
:100440008347644393C70704230BF442938781894E
:10045000A380070015B793F70704E38F07F083C75E
:10046000C18A93F70706E38907F083C7C18A93F728
:100470000706E393B7F003C7D18AA547E31EF7EE5B
:100480003745002013060004938541741305C5AC5D
:10049000013B0547238CE1A08347244393F7C70F13
:1004A00093E727002309F442C1BD9307A0FC230969
:1004B000F44213874174834707002386F18A8347F8
:1004C000170083562700A386F18A8357670023937A
:1004D000F18A2395D18A835647002394D18A03C990
:1004E000C18A93864174137909066309090C83C78D
:1004F000C18A93F70706639EB70283C7D18A29464C
:10050000FD1793F7F70F6363F61831668A07130632
:1005100046CEB2979C43828783D7818A6398071619
:10052000B7450020130600049385C5AC13854174BC
:10053000853983C7C18AE207E18763DE073803D7BD
:10054000618A9307000463E6E70083D7618AC207E4
:10055000C18303D7618A1D8F420741832393E18AB8
:1005600093F7F70F373702402308F74283472743B3
:1005700093F7C70F2309F74201B583D7818A6397A1
:10058000071003C73600A380E18A65B783D7818A45
:10059000639E070E03C726002380E18A59BF83D7D5
:1005A000818A6395070E83C7118A2380F60051B7AD
:1005B00083D7818AE1EF83C7018AC5BF83C5D18A0A
:1005C0002D4813F6F50F6363B80CB1650A069385E1
:1005D00005D12E961042028683D6A18A0D46A182AD
:1005E0006386C60C636CD6008547638CF602894728
:1005F0006381F60481471309F00F81A89307100265
:10060000638BF60893072002E396F6FE83D7818A70
:10061000F5F3B1679387076A23A8F18A9307F00D72
:100620002DA0B1679387077823A8F18A83C70700B5
:1006300029A8B71700209387872823A8F18A03C722
:10064000270083C73700A207D98F03D7618A63F4D5
:10065000E7002393F18A03D7618A9307F003130A13
:10066000000463E7E70003DA618A420A135A0A01C9
:1006700083AA018B528613854174D6851536D29A8A
:1006800023A8518B9307F00FE315F9EAB73702401F
:100690001307F0FCBDBB83D7818AA9FFB7170020E1
:1006A0009387A72923A8F18AA54745B783D7A18AAD
:1006B000094793F7F70F6387E702636BF70099EF3A
:1006C0009387818823A8F18A014983C70700B5BFB2
:1006D000E392D7F2B16793870765B9B7B16793879C
:1006E000476999B7B167938787663DBF83D7A18A6A
:1006F00093F7F70F2382F18A2DBD83C7518A238098
:10070000F60003D7618A8547E3F5E7E22393F18A90
:100710000DB583D7A18A93F7F70FA382F18A054716
:100720002381E18A39B583C6C18AFD8A99EE83D7D0
:10073000A18A054793F7F70FE39DE7DE83C7318A68
:1007400093F7E70FA381F18AEDB383C6C18A094607
:10075000FD8AE39DC6F283D7A18A93F7F70F9DF731
:1007600083D7818A054793F7F70F6381E702130761
:100770002008E39DE7F0373702408347A74393F70C
:10078000C70B93E72700230DF74265B337370240C5
:100790008347674393F73707230BF7428347674342
:1007A00093F7C70B93E72700230BF74259B383C690
:1007B000C18AFD8A8DE683D7A18A054793F7F70F93
:1007C000E396E7ECB717002083C7F72893F70702F3
:1007D000E38E07EA83C7318A93E71700A5B783C67C
:1007E000C18A0946FD8AE393C6EA83D7A18A93F7B3
:1007F000F70FE39D07E883D7818A1307100893F763
:10080000F70F638FE70013072008E391E7E8373716
:1008100002408347A74393F7C70B93E73700A5B779
:10082000373702408347674393F7370793E7C7009B
:10083000230BF7428347674393F7C70B93E73700D0
:10084000A5B72380060075BD83C7C18A23920174B2
:10085000FD8B99EB83C7318A858BBDC38947238084
:10086000F60003D7618A4DB583C7C18A0946FD8B5F
:10087000639CC70403D7818A130610081377F70F08
:10088000630DC700130620086305C70203D7618AFA
:10089000E3FEE7DE2393F18AD5BB373702400347F7
:1008A00067433146318BE31EC7FA05472380E600D4
:1008B0004DBF373702400347A7430D460D8BE5B7C1
:1008C00003D7618A894789B583D7618AE370F6DCEB
:1008D0002393C18A65BB83D7618A91EBB737024006
:1008E0002388074203C727431377C70F1DB637373F
:1008F00002408347274393F7370FADB993F71600AC
:100900009DC3A382018A2382018AA381018A238154
:10091000018AA30104404D328347644093E71700E6
:100920002303F440B9BC93F746009DCB91472303C2
:10093000F4402945EF40907003475440118B11CB90
:1009400003C7318A13672700A381E18A83C7318AED
:100950000DBC03C7318A1377D70FA381E18A15B481
:100960002303D44039BCEFF2BF80B74702409387DE
:1009700007809843C1E51367870098C33734024066
:1009800099472300F4402DCD2945EF40306B9D471A
:10099000230004402301F440930790022300F44015
:1009A000213A930710F8A300F44013071004E1461E
:1009B0001386C1A3938541081385016BEF40E05D69
:1009C000B715002013071004E146138641A593854F
:1009D00045591385C169EF40405C37E700E0930754
:1009E000402F7CC3B207B183B706003BD58F3CD301
:1009F000B70700082322F7106FF0CFF95D9BB5BF52
:100A00002945EF40B063B7E700E023000440B84356
:100A1000C146B4C33706000893860718D0C2B8C3CE
:100A2000E1BF83C751789DCB0547638EE70213076B
:100A3000401F9307802A23A8E18023A6F180938694
:100A4000072D371700202328D7321307002DB307AF
:100A5000F740371700202326F73282801307A0289B
:100A60009307002DC9BF1307C021DDBFEFF24FF080
:100A700037070001AA87130707F07D8FA1662E852F
:100A8000630ED70263E8E60029C39966630ED700B8
:100A90006FF04FF0BD66E31DD7FEB725002093F73A
:100AA000F70F9385852B39A0B725002093F7F70F13
:100AB00093854538BE95EFF0AFEED9BFB72500203E
:100AC00093F7F70F9385C533F5B793F7F70F938532
:100AD0004178CDB7B7250020130640089385852BB4
:100AE000014565A9B7250020130640089385852B8D
:100AF00001452DA9B72500201306100B9385453815
:100B00001305001059A9B72500201306100B938573
:100B100045381305001019A9EFF28FE5372400209E
:100B20001304842B0345C401EF90D03A83A50187B9
:100B3000EF90C00823A6A1980345D401EF90903907
:100B400083A50187EF90800723A4A1980345E401C2
:100B5000EF90503883A50187EF90400603570401BA
:100B600023A2A1983307E7029387418B98C30357C9
:100B700024013307E702D8C3FD2BEF00F000EF108C
:100B800020330545EF4030196FF0CFE0EFF24FDE34
:100B9000372900201306100BFD5513054938EFF0D7
:100BA0008FE12D46FD5513854178EFF0CFE02D46BE
:100BB0009385417813050030CD2683C7417893840F
:100BC0004178858B9DC3854723A00400A380F40052
:100BD0002D46FD47938541781305003023A204007C
:100BE000239404002385F4009126293713094938FA
:100BF0008347090137240020130444386380071019
:100C0000930700F82300F400E9778D072319F40017
:100C10008547A30DF4009307C0FCA30EF40295676B
:100C2000938747CC231FF402B71780CC93870780A4
:100C30003CC0B7570008938747CC7CC0B7D7C44C9B
:100C4000938707C83CC4F1779387C74C2316F404F5
:100C50009307C0042307F404B73732FF93872713A1
:100C60003CC8FD57231AF4048D67BD072313F4080D
:100C7000B7B790D9938717E62324F408B7175441E0
:100C80009387474D2326F408B757C7799387574171
:100C90002328F408B73736639387C7394946930545
:100CA000640813058409232AF408EFF06FCFB7070F
:100CB0008BFF9387B7051CD0B70700409387671950
:100CC0005CD0B74700401CD4B707BEFFF5075CD423
:100CD000B7073C34B9171CD8B7373B349387B743B1
:100CE0005CD8C167938707D52320F408856793876D
:100CF00067FC2312F408230804003135930700F839
:100D00002300F400E9778D072319F4008547A30D2C
:100D1000F40037240020130680049305C433130520
:100D20000020A52C9307C43303C7070015C3214730
:100D3000A38007002381E700A38107002382E70047
:100D4000A38207002383E700A38307002384E7002F
:100D50003729002013064008FD551305892BEFF0B5
:100D60008FC58D3B8347892B1304892B858BCDC37E
:100D70001306400881451305892BEFF0CFC3856723
:100D8000938787802312F4000967B7270020938791
:100D9000272C130707022390E7002391E70037254C
:100DA0000020B727002061779387E72B13070708F8
:100DB0001146930500041305952D2390E700239118
:100DC000E700EFF04FBF930700FCA300F400930788
:100DD000606D2317F40003C6A400B7077805938756
:100DE00087571CC801478D45FD56634BC704B7871D
:100DF0007F029387F7F75CCC8D679387C74B231AE5
:100E0000F4008347040093E707F82300F400D9397E
:100E1000213303475400B717002093878728A38006
:100E2000E702034744003735002019462384E702D0
:100E3000930564011305E502EFF08FB66FF08FB5EF
:100E4000B307B7020507A297A383D7022384D7026B
:100E5000A384D70259BFEFF2AFB1E1360545EF40A9
:100E6000806B6FF02FB3EFF20FAFB70700019387DE
:100E700007F0E98F2167AA8432893684638FE704FB
:100E8000636AF700B5CF19676386E70201442285DC
:100E90006FF0AFAF3D67E39BE7FEB7270020937984
:100EA000F50F9387872BBE994E85EFF06FAF05C086
:100EB000153929A8B72700209379F50F938747386C
:100EC000BE994E85EFF0CFAD19C035392A844A86D8
:100ED000CE852685EF40F0775DBF372A00209379D5
:100EE000F50F9307CA33BE994E85EFF06FAB65D00F
:100EF000130680049305CA33130500200528F9B7AB
:100F00001375F50F938741783E95AE89EFF04FA9A1
:100F100019C44A86CE851305003009282A844A86DA
:100F2000CE852685EF40F0723D3795B7EFF2AFA240
:100F3000B7F700083304F5003307C400B70701080A
:100F4000637BF7042E8A2285930500103289EF50C7
:100F5000704D1147AA848947631CE502B729002018
:100F600013060010FD5513858943EFF0CFA44A8680
:100F7000D28513858943EFF0AFA213060010938545
:100F800089432285EF50B05B8D47631395008147FD
:100F90003E856FF08F9F8547E5BF37F70008AE8726
:100FA000B305E5003387C500B7060108637CD700A9
:100FB000094599CBEFF2CF9B3E85EFF06F9E01453F
:100FC0006FF04F9D054582808280AA872E8563D36E
:100FD000B7003E858280EFF2AF994111AA85114694
:100FE0006800EFF0EF9B324541016FF0AF9AAA879E
:100FF0002E8563C6B7003E856353F6003285828036
:10100000EFF20F977971614681452808EFF0AF9AAA
:10101000014502C602C802CAEF60402D37150140E3
:101020009307A0036C0013050580372401402316A5
:10103000F10002CAEF50506213050440EF50E06720
:1010400085473ECE3ED0B7070E003ED22C089147D2
:10105000130504402306F10202CC02D4EF5080684D
:10106000854513050440EF50E06D854513050440A8
:10107000EF50406C13050440EF50E06D93040440C2
:101080002685EF50E06D6DFD1305044037240140C7
:10109000EF50806D930404402685EF50806D6DFD08
:1010A00013050440EF50607A239EA18A45616FF0DA
:1010B0006F8EEFF24F8A79712A84AE893289814529
:1010C0001306C0024800B684EFF0EF8E2285EF5081
:1010D000F00F930700083ECC930700103ECE930715
:1010E00000403ED0930700023ED24C008D6722851F
:1010F0004EC24AC426C83ED402C602CA02D6EF5027
:10110000F01A45616FF06F88EFF28F86D53D372476
:101110000140B70402409305C444138584009146FE
:101120001386018C7937130504409D460546854595
:10113000EF502066130504409D4609469545EF5043
:101140004065130504409D460D468D45EF50606493
:101150009D461146130504409145EF508063138569
:1011600084008545EF501018854513050440EF5065
:10117000C0606FF02F82C166372700209307875326
:1011800013860610D0D71386160093860604D4C3A0
:10119000B716020094C3B706020013858600E8C3A1
:1011A00013850602A8C36165E8C713850601A8C7B1
:1011B00013850620A8CF3725040088CF1385061095
:1011C000E8CF37450400C8CF1385060488D3378598
:1011D000040090D7C8D393860608378502003726C7
:1011E0000200B745020088DBD4DBD0C78CC7B72725
:1011F000002083C6872B9307875313F5060119C177
:10120000CCC790C713F7860001CB37170200D8C3AD
:1012100041671307070498C3918A89CA23A2070468
:1012200023A0070423A6070423A407048280EFE277
:101230003FF441118D472E8432C63EC4AA8402C2B7
:10124000014681470147C1656343870619C22312DE
:10125000F100371501404C0013050580EF50D03FD9
:1012600001462312010081470147B7050200634D83
:10127000870419C22312F100371501404C001305F1
:1012800005C0EF50703D0146231201008147014720
:10129000B70504006347870419C22312F1004C000C
:1012A00037150140EF50503B41016FE0BFEE931600
:1012B0002700A696944233F5B60009C5D58FC2071C
:1012C000C1830546050749B793162700A6969442A1
:1012D00033F5B60009C5D58FC207C183054605079A
:1012E00079B793162700A696944233F5B60009C540
:1012F000D58FC207C1830546050769BFEFE25FE7E7
:101300004111B78702005146854568003EC6053742
:10131000B70700209387070688470546A165EF5069
:10132000D0403705002013068002914513050500C3
:10133000FD3D370500204146914513050501C53D9A
:10134000B70700209387070237270020138607047A
:101350001307875394438A06BA9623A00600D44302
:101360008A06BA9623A0060094478A06BA9623A056
:101370000600D447C1078A06BA9623A00600E39B5D
:10138000C7FC41016FE01FE1EFE29FDEED3383C751
:10139000B17891C3A5373725002013068004E145B5
:1013A0001305855369356FE0FFDEEFE2FFD937049F
:1013B000002013040401B704002037090020B70AF5
:1013C000002093840402130B0401014A1309090647
:1013D000938A0A00C14B0C400546814993D7E5002A
:1013E000F18BCA978843C205C181EF501034514533
:1013F000EF40C044B38759018C4393D7E500F18B8C
:10140000CA978843C205C181EF50F030B3873401D9
:101410009C4391093315F500336AAA00E39C79FDDA
:101420000C400146110493D7E500F18BCA9788431D
:10143000C205C181EF50702F5145EF402040C104DB
:10144000E31B64F952856FE0BFD3EFE2FFCF83C7A0
:10145000B178014499C3913F2A84B7190140B72458
:101460000020138B09C0938484530149370A070075
:10147000B70A0200B70B0400416C938909808C40C5
:10148000B3F7450163895703638B7703054563977A
:101490008701C205C1814E85EF50F02793371500B3
:1014A000B39727015D8C0509E1479104E319F9FC25
:1014B00022856FE0FFCCC205C1815A85F1BFC2050C
:1014C000C18137150140C9BFEFE29FCAB7070700C6
:1014D000E98F37070200AA856384E7023707040013
:1014E0006388E70241670545639AE700C20537153F
:1014F0000140C18113050580EF50F0216FE09FC9C5
:101500009315050137150140C181130505C0EDB7DD
:1015100093150501C18137150140F9BF1357E50047
:10152000B7070020718B93870706BA972E8693150D
:1015300005018843C1816F50501FEFE27FC379716D
:101540002A848545314502CA02CC02CE02D002D29D
:1015500002D402D602C402C623180100EF5050681C
:101560006315040E85450945EF5070693715014034
:1015700061478D474C08130505C03ACE370400403B
:10158000231AF1003ECCEF50300D9307005A2C0087
:10159000130504403EC602C4EF50D077054685458A
:1015A00013050440EF60A014C167938707060C1071
:1015B000130504403ED02313010223140102EF500F
:1015C000F07C0C1013050440EF60400785451305BF
:1015D0000440EF606010A14513050440EF60601403
:1015E000A14513050440EF60E01481451305044054
:1015F000EF6040119305002D13050440EF602015A6
:101600009305002D13050440EF60C014EF00F00EA9
:101610009307D0122310F1009D472301F1000A85A2
:1016200085473EC2EF50F03A89679387471A37E7FC
:1016300000E07CC3B207B183B706002DD58F3CD73D
:10164000854513050440EF60600745616FE09FB476
:10165000AA8537050040130505406F602006EFE2BC
:101660003FB1AA8832883E8689472E85BA85638C29
:10167000F8008D476388F800638308003688428548
:101680006FE05FB14295EFF09F9613180501135874
:101690000841F5B719473305E502B70700209387DE
:1016A00007082E86014781463E9583152500034590
:1016B00005009307C01165B719473305E502B70761
:1016C0000020938707082E861307000C930600104E
:1016D0003E9583154500034515009307001441B757
:1016E0001387418D1443B727002058430E05938775
:1016F0008759AA9794C3D8C38280EFE27FA7AA84B0
:10170000034535001384418D8315040005817D89CF
:1017100051372310A40003C534008315240005812C
:101720007D89593F83C734002311A40003C52400D9
:1017300083154400858B920711815D8DA13F83C77E
:1017400034002312A40003C5240083156400858B94
:10175000920711815D8D8D372313A4000145493710
:101760000547A38EE18C6FE0FFA2EFE27FA08347E5
:10177000350003472500B705002093F7F7031356FC
:1017800077008607D18F938505148607AE9783D798
:10179000070031661377F707130606D4060793860A
:1017A000418D32972390F6008357070003470500C9
:1017B0002391F60083471500098393F7E70FBE9541
:1017C00083D705002392F600834715000145858BDA
:1017D0009A07D98F86073E96835706002393F60013
:1017E00001370547A38EE18C6FE0DF9AEFE25F9847
:1017F00083473500834625000347050093F7F70329
:101800009D82860713764700D58F058BAA841384A3
:10181000418D8607630D070C6301060C31671307C2
:1018200007D4BA9783D707002313F40001454D3D31
:1018300003C524008315040009817D89A13D23107F
:10184000A40003C524008315240009817D89AD35DA
:1018500083C724002311A40003C51400831544008A
:101860008D8B8E0715815D8D353583C7240023123E
:10187000A40003C51400831564008D8B8E071581A9
:101880005D8D1D3D2313A4000545993D03C514003E
:10189000831504007D89FD3B2310A40003C51400BB
:1018A000831524007D89093D2311A40003C504008C
:1018B000831544000D81F93B2312A40003C50400E5
:1018C000831564000D81CD3B2313A4000945093D18
:1018D0000D47A38EE18C6FE0FF8B370700201307C5
:1018E0000714BA9783D707002312F40081B711CAEF
:1018F0003167130707D4BA9783D707002311F40081
:1019000035B73707002013070714BA9783D70700A6
:101910002310F40021BFEFE2BF85AA840345350000
:101920001384418D8315040005817D89A53323101F
:10193000A40003C534008315240005817D89AD3BD7
:1019400083C734002311A40003C524008315440079
:10195000858B920711815D8D353B83C7340023123F
:10196000A40003C5240083156400858B92071181B0
:101970005D8D99332313A40001459D3383C7240053
:1019800003C5140083150400BD8B86071D815D8D82
:10199000113383C724002310A40003C5140083154A
:1019A0002400BD8B86071D815D8D39332311A40072
:1019B00003C514008315440009817D89E139231290
:1019C000A40003C514008315640009817D89ED31ED
:1019D0002313A400054529330947A38EE18C6FE04A
:1019E0006FFBEFE2EFF8AA8483C7340003452500BC
:1019F0003707002093F7F703935675008607D58FB6
:101A0000130707148607BA9703C7040083960700D5
:101A1000B1671376E70F938707D4B2970981058BD7
:101A2000839707007D891384418D51CF831504006E
:101A30002312D4002313F400EFF0DFC52310A40019
:101A400003C524008315240009817D89EFF0DFC6DA
:101A50002311A4000145EFF0BFC883C7240003C5CC
:101A60001400831504008D8B8E0715815D8DEFF0BA
:101A70007FC283C724002310A40003C5140083156C
:101A800024008D8B8E0715815D8DEFF0FFC2231131
:101A9000A40003C51400831544007D89EFF09FBFA7
:101AA0002312A40003C51400831564007D89EFF0A0
:101AB000BFC02313A4000545EFF09FC20947A38EC2
:101AC000E18C6FE02FED831544002310D400231127
:101AD000F400EFF03FBC2312A40003C524008315DB
:101AE000640009817D89EFF03FBD2313A4009DB7F9
:101AF000EFE20FE8AA84034535001384418D831576
:101B0000040005817D89EFF0FFB82310A40003C510
:101B100034008315240005817D89EFF0FFB983C768
:101B200034002311A40003C5240083154400858BD1
:101B3000920711815D8DEFF0FFB583C7340023124A
:101B4000A40003C5240083156400858B92071181CE
:101B50005D8DEFF07FB62313A4000145EFF05FB871
:101B600083C7240003C5140083150400BD8B8607BA
:101B70001D815D8DEFF01FB283C724002310A400E8
:101B800003C5140083152400BD8B86071D815D8D60
:101B9000EFF09FB22311A40003C514008315440085
:101BA00009817D89EFF01FAF2312A40003C5140043
:101BB0008315640009817D89EFF01FB02313A40011
:101BC0000545EFF0FFB183C7140003C5040083157A
:101BD00004008D8B8E0715815D8DEFF0BFAB83C741
:101BE00014002310A40003C50400831524008D8B6A
:101BF0008E0715815D8DEFF03FAC2311A40003C566
:101C00000400831544007D89EFF0DFA82312A400AF
:101C100003C50400831564007D89EFF0FFA9231339
:101C2000A4000945EFF0DFAB0D47A38EE18C6FE018
:101C30006FD6EFE26FD10347350037240020238EA3
:101C4000018CA38E018C19838946AE8413048459B8
:101C5000630DD70C8D466308D70E4DE38547A38EE1
:101C6000F18C231204002310040003C5D18D0D460E
:101C70008145EFF0CFB7316BB72B0020938CC18C2F
:101C8000A38EA18C014CA28A130B0B05938B8B2B7B
:101C90009389C18C83C7D18D6349FC0A83C7340003
:101CA0000547238EE18CA38E018C99838946638C32
:101CB000D7148D466388D716639E0710A38EE18CD8
:101CC000231204002310040003C5D18D0D46814565
:101CD000EFF0EFB1B169372A0020138BC18CA38ECE
:101CE000A18C814A93890905130A8A2B9384C18C9C
:101CF00083C7D18D63CCFA126FE08FC803471500FC
:101D000083472500834605002207BD8B558FC207F8
:101D1000D98F81E7EFF07F9E89BF8D8A81E6EFF052
:101D2000DFA4A1B7EFF09FAC89B783471500034745
:101D300005008D8BA207D98F81E7EFF0DFBD35B7A6
:101D4000EFF03FCA1DB76D330DB703974A0083C745
:101D50006B000A075A971843B387E702918323A2BF
:101D6000FC0083976A008A07DA97884319C913062B
:101D700000143306C502814637952F50A545EF5014
:101D8000105323A0A900CE850145092C03970A0012
:101D900083C78B000A075A971843B387E7029183DA
:101DA00023A2F90083972A008A07DA97884319C982
:101DB0001306000A3306C502814637952F50A54504
:101DC000EF50F04E23A0A900CE850945C12A050C8D
:101DD000A10AC9B503C7140083C7240083C6040041
:101DE0002207BD8B558FC207D98F89E72685EFF073
:101DF000DF90D9BD8D8A268581E6EFF01F97E9B582
:101E0000EFF0DF9ED1B583C7140003C70400268519
:101E10008D8BA207D98F81E7EFF0FFAF75B5EFF09B
:101E20005FBC5DB52685EFF0BFCC79BD03174400DC
:101E300083477A000A074E971843B387E7029183D6
:101E40002322FB00831764008A07CE97884319C9B1
:101E5000130600143306C502814637952F50A54559
:101E6000EF50F04488C0A68505450D2A03170400ED
:101E700083479A000A074E971843B387E702918376
:101E8000DCC0831724008A07CE97884319C913063C
:101E9000000A3306C502814637952F50A545EF50FD
:101EA000104188C0A6850D45D528850A210489B52D
:101EB000EFE20FACB727002083C4972B3704002034
:101EC0001306001093F784008DC7B165938505E470
:101ED00013050414C188EFE0AFAC91C813050414D6
:101EE000B1654146938505F40905EFE06FAB6FE0FE
:101EF0006FAAB165938505F5E1BFEFE26FA73726BD
:101F00000020B73500203735002021479306000216
:101F10001306065B938505931305C5A6EF30E0070E
:101F200037260020B735002037350020214793069B
:101F300000021306065D93850583130585A5EF3022
:101F4000C00537260020B72500203735002021475F
:101F5000930600021306065F93850573130545A4D7
:101F6000EF30A00337260020B725002037350020AA
:101F70002147930600021306066193850563130546
:101F800005A3EF3080018547238CF190A38CF1905D
:101F9000238DF190A38DF1906FE0CF9FB9CDEFE24B
:101FA0002F9D89476309F50263E2A7021DE93735D2
:101FB000002021461305C5A6EF30000219C90547C8
:101FC0000545238EE18EEF30005521A08D4763003B
:101FD000F5026FE02F9C373500202146130585A5BB
:101FE000E1BF373500202146130545A4F1B7373549
:101FF00000202146130505A3C1B78280EFE24F9769
:1020000083C7B19195CF373500209307C5A6D44734
:1020100085CA83C78700B7360020938606938E074C
:10202000B6979443DC43A38D0190138781931305E6
:10203000C5A65CC314C3EF30800D0547A38FE190A4
:1020400083C7A19195CF37350020930785A5D44745
:1020500085CA83C78700B7360020938606838E071C
:10206000B6979443DC43238D0190138701931305A6
:1020700085A55CC314C3EF3080090547238FE19029
:1020800083C7919195CF37350020930745A4D44756
:1020900085CA83C78700B7260020938606738E07FC
:1020A000B6979443DC43A38C019013878192130568
:1020B00045A45CC314C3EF3080050547A38EE190AF
:1020C00083C7819195CF37350020930705A3D44767
:1020D00085CA83C78700B7260020938606638E07CC
:1020E000B6979443DC43238C019013870192130528
:1020F00005A35CC314C3EF3080010547238EE19034
:102100006FE04F8921C29841E1679387076A3E9744
:1021100098C16374C70001458280B356C7028357D4
:1021200005003377C702B697C207C1832310F500B5
:1021300098C1056713070780E37FF7FC93F7F77FE4
:102140002310F50005458280EFE28F82B72700203B
:1021500083C7872B2A87368493F707042E85544339
:10216000B28595C3854781CE1043693F814701C938
:1021700083A7018E818F93B7A70F93C7170013F51D
:10218000F70F6FE02F8199EA03A5018E018D1335BA
:10219000A50F134515001375F50FE5B710439D37CF
:1021A00065F5D5BF370500403971854513050540F4
:1021B00022DE26DC4ADA4ED852D656D45AD25ED027
:1021C00062CE66CC6ACA6EC8EF50E0598547631D7F
:1021D000F52483A7018E138D170023A0A18F372725
:1021E00000200347972B93848194370400201377B2
:1021F0000702138C81959389019513890194130427
:1022000004246302072C83A6018F1386C190938553
:1022100061911385819536C6053F01CD83C5F19146
:1022200003C6E18DB2466380052213661600238F34
:10223000C18C83A6C18E13868190938541911385AD
:10224000019536C6113701CD83C5E19103C6E18DF5
:10225000B246638A052013662600238FC18C83A6AD
:10226000818E13864190938521911385819436C682
:10227000E13D01CD83C5D19103C6E18DB2466384B2
:10228000052013664600238FC18C83A6418E1386DA
:102290000190938501911385019436C6EFF0DFEA32
:1022A00001CD83C5C19103C6E18DB246638D051E84
:1022B00013668600238FC18C83C6E18D13F616004A
:1022C00005C6A38F0190138681930C4250422320B0
:1022D000BC002322CC008545239B019023A60190BE
:1022E000A38DB19023A8A18F13F6260005C6238FD6
:1022F0000190138601930C42504223A0B90023A2FF
:10230000C90023A401908545239A0190238DB190A3
:1023100023A6A18F13F6460015C2A38E0190138643
:1023200081920C4250428CC0D0C023A201908545BE
:1023300023990190A38CB19023A4A18FA18A85C673
:10234000238E0190938601929042D4422320C900AB
:102350002322D90005462398019023A00190238CC5
:10236000C19023A2A18F83A6018183D76191032706
:102370004C0003A649008607A29783970700238F86
:10238000018CB387E70203D7419106072297031711
:1023900007003307C702BA97A987B387D702C58753
:1023A0009387072D23ACF18E83D72191D8408607E0
:1023B000A29783970700B387E70203D70191060727
:1023C00022970317070003264900B7190020330797
:1023D000C7023719002003A609338325C932370401
:1023E000004013040440BA97A987B387D702C58772
:1023F0009387072D23AAF18E03A5818FEFE03FBFBE
:1024000042054181231EA4028325C93203A6093354
:1024100003A5418FEFE0BFBD420541812310A40415
:1024200085452285EF50E0357254E2545259C25925
:10243000325AA25A125B825B724CE24C524DC24D30
:102440002161730020303166B306DD401306F63497
:10245000E371D6DE83C6418123220C0093E6160089
:10246000238AD180F9B33166B306DD401306F63412
:10247000E377D6DE83C6418123A2090093E62600D6
:10248000238AD180E9BB3166B306DD401306F634FA
:10249000E37DD6DE83C6418123A2040093E6460095
:1024A000238AD180DDB33166B306DD401306F634EE
:1024B000E374D6E083C641812322090093E68600B7
:1024C000238AD180D5BB03C7F1910DCBA38F019097
:1024D000938681939842D4422320EC002322DC008F
:1024E000A38DA1909387819391C209EB23A60190BC
:1024F000239B019023200C0023A2070003C7E19136
:1025000015C7238F0190938701939843DC430546B9
:1025100023A0E90023A2F900238DC19091C319E7FC
:1025200023A40190239A019023A0090003C7D1910D
:1025300015C7A38E0190938781929843DC4305468B
:1025400098C0DCC0A38CC19091C309EB23A2019079
:102550002399019023A0040023A2040003C7C19182
:1025600015C7238E0190938701929843DC4305465B
:102570002320E9002322F900238CC19091C319E79D
:1025800023A00190239801902320090003260C002A
:102590009385C19013856191EFF0DFB603A6090022
:1025A0009385819013854191EFF0DFB5904093853D
:1025B000419013852191EFF0FFB403260900938524
:1025C000019013850191EFF0FFB383A6018183D7BA
:1025D000619103274C0003A649008607A2978397C1
:1025E0000700B387E70203D7419106072297031735
:1025F00007003307C702BA97A987B387D702C587F1
:102600009387072D23ACF18E83D72191D84086077D
:10261000A29783970700B387E70203D701910607C4
:102620003A940317040045B3EFD29FB4AA853765E7
:10263000004013050580EF40B035133515006FD00D
:102640007FB5EFD2FFB2AA8537650040130505803C
:10265000EF4070321375F50F6FD0DFB3376700406E
:102660008357478113070780A183A380F19683577F
:102670004701C207C18393F707F0C207C183231A3A
:10268000F70073002030EFD21FAD376500404111D5
:10269000814513050580EF40F02037140140930772
:1026A00000400D49D1494C00130504C03EC24AC444
:1026B0004EC68564EF40407A938404804C00130535
:1026C00004C04EC64AC423129100EF40E07893053F
:1026D0000040130504C0EF401005A685130504C093
:1026E000EF4030040545EF306015930500401305B9
:1026F00004C0EF4010030545EF304014A6851305D4
:1027000004C0EF4050020545EF304013A949130AB9
:1027100004C00569930500405285EF40D000A685AE
:102720005285EF4010000545EF3040119305004001
:102730005285EF40007F0545FD19EF302010E39BE7
:1027400009FC130504C093050040EF40C07D9305CC
:102750000980130504C0EF40007D0545EF30000EF1
:1027600093050040130504C0EF40A07B0545EF3002
:10277000E00C93050980130504C0EF40807A0545FD
:10278000EF30C00B91474C00130504C03EC6EF402C
:10279000A06C93050980130504C0EF40C077410188
:1027A0006FD0BF9EEFD2DF9C376400408145130598
:1027B0000480A3810196EF40F00E13050480EF40E2
:1027C000207AEFF05FEC83C711965D8D1375F50FDE
:1027D00001C937350C0001468145130505502920F4
:1027E000EF20D07E6FD01F9BEFD2FF960111AE84F9
:1027F0002A8985452545328402C202C402C602C820
:1028000002CA02CC02CEEF40B03D854537054000FC
:10281000EF40F03E371A014093090040714B8D4A5A
:102820004C0013050AC0231231015AC656C4EF40AA
:10283000A0628567938707804C0013050AC02312A6
:10284000F1005AC656C4EF402061B7070040231C70
:102850009100B76400403ECA0C089167138504805C
:10286000231EF1004AC8231D3101EF4080728545C7
:1028700013850480EF40100309651306800CB7052B
:10288000020013058562EF20B07709C909C88545A4
:1028900013850480EF40700AEFF0DFF00544A38158
:1028A000819605616FD07F8E83C73196638C071246
:1028B000EFD27F8A37640040AA8A2E8A13050480EB
:1028C0008545EF40B00309651306800CB70502008B
:1028D00013058562EF20D07283C711961375F50F2B
:1028E000C98F91C705472381E1966FD01F8A85451F
:1028F00013050480EF40C07CB70903000969130683
:10290000800C9385190013052964EF20706F83C72D
:1029100011961375F50FC98F99C30947E9B7014699
:102920009305400D13050480EF403000370B07007E
:102930001306800C93052B0813052964EF20506CB7
:1029400083C711961375F50FC98F99C30D4761BFE2
:10295000D68513050480EF40407C1306800C930558
:102960004B0813052964EF20B06983C711961375CE
:10297000F50FC98F99C31147BDB7D28513050480E0
:10298000EF40C077854513050480EF406073130660
:10299000800C9385190013052964EF20706683C7A6
:1029A00011961375F50FC98F99C315472DBF0546AD
:1029B0009305400D13050480EF4020771306800C2B
:1029C0009385290013052964EF2090639377F50F11
:1029D00003C511965D8DE30A05F099462381D196D2
:1029E0003E8521B705458280EFD2EFF62E8913751B
:1029F000F50F8145EFF05FEB83C711962380A19619
:102A00005D8D1DE5B705030009651306800C9385F0
:102A1000050413052564EF20B05E83C71196137576
:102A2000F50F2380A1965D8D19C525472381E19679
:102A3000EFF05FD725A0B769004013850980EF400C
:102A4000206E2300A900854513850980EF40206989
:102A500083C7019603C71196D98FF9FB03C5019669
:102A6000B72700202383A7346FD02FF2EFD2CFED0A
:102A700085476316F600EFF03FF76FD06FF02E89B1
:102A800085453284EFF05FE2AA8435E17D14370A90
:102A90000300856AB76900401374F40F130A0A042F
:102AA000896B938A0A80938909809307F00F6303E7
:102AB000F4021306800CD28513852B64EF2050544A
:102AC00083C711961375F50FC98F95C71D472381CD
:102AD000E196AA8437650040130505808545EF40DF
:102AE000006083C71196C58F13F5F70F59D5EFF026
:102AF0007FCB268559B785476316F400D6854E856A
:102B0000EF4000654E85EF40A0617D142300A900D1
:102B10001374F40F050951BF83C7319691E3828086
:102B2000EFD26FE3AA8A09654111AE891306800CC2
:102B3000B705020013058562EF20904C83C71196FC
:102B40001375F50FC98F8DC329472381E19683C77C
:102B50001196C98F93F7F70F89C72AC6EFF09FC464
:102B6000324541016FD06FE237690040854513055A
:102B70000980EF40E054B7050300096A1306800C92
:102B8000850513052A64EF20B04783C71196137596
:102B9000F50FC98F99C32D474DBF01469305400DD1
:102BA00013050980EF406058370B07001306800CAF
:102BB00093052B0813052A64EF20904483C71196D0
:102BC0001375F50FC98F99C3314741B7D6851305E2
:102BD0000980EF4080541306800C93054B081305C1
:102BE0002A64EF20F04183C711961375F50FC98F42
:102BF00099C3354799BFCE8513050980EF40E05151
:102C00001306800C93054B0813052A64EF20503FF0
:102C100083C711961375F50FC98F99C3394735B717
:102C2000130509808545EF40804B01450DB73735C9
:102C30000C0005468145130505506FF0FFBAEFD231
:102C40002FD341112E849305F1002A89B284EFF02D
:102C5000BFD909ED8347F10093C4F4FF4A85E58F9E
:102C6000B365F400A307B100EFF01FEB41016FD093
:102C70006FD2EFD2EFCF41119305F1003D45A3078D
:102C80000100EFF07FD611E98347F1008546938775
:102C900077F993F7F70F63FBF60483A7819785070E
:102CA00023ACF19603C7419709C70D4541016FD089
:102CB0006FCE2547637BF70085470545238AF1964C
:102CC000EF20700583C74197EDF39305F100794537
:102CD000EFF09FD11DC583A70198850723A0F19828
:102CE00083A7C197850723AEF196C9B783C74197DC
:102CF00023AC019681C70545EF20F001238A019698
:102D0000E9B78347F1000D4709458D8BE390E7FA5A
:102D100083A70198B735002031468507938545ADD7
:102D20001305200223A0F198EFF05FD441D183A7CF
:102D3000C1970545850723AEF1968DBFEFD24FC3EE
:102D400019441306F00F85454945EFF05FEF09C5BB
:102D50007D141374F40F75F42945EF2030301944B5
:102D60001306F00F930500084D45EFF05FED09C520
:102D70007D141374F40F6DF419441306F00F9305CA
:102D8000E0084145EFF0BFEB09C57D141374F40F63
:102D90006DF419441306F00F9305C0054545EFF097
:102DA0001FEA09C57D141374F40F6DF4194413065A
:102DB000F00F930540044945EFF07FE809C57D1405
:102DC0001374F40F6DF413351500A388A1986FD018
:102DD0006FBCEFD2EFB91306000F81454145A388C0
:102DE0000198EFF0DFE51306000F81454545EFF050
:102DF0001FE56FD02FBA8280EFD28FB483C7C19600
:102E000013074002B7390020B387E70237240020B8
:102E1000138709A84111938609A836C6BA970307F4
:102E2000842B23A4F196635D0700130640028145BD
:102E30003E85EFD04FB8EF30606A41016FD00FB4DC
:102E400083C73196FDDB83C70199E5DB83C72199F1
:102E50001304842B81E78D472389F198EF20101705
:102E60008347F40003A701978346E400A2073307D2
:102E7000E540D58F2A8BE362F7FCEFF09FDF55FD2D
:102E8000373C0020930C0CAE37370020130747ADBA
:102E900013868C0193070CAE93040CAE94438315F8
:102EA00007000907AE9694C39107E399C7FE03C4D0
:102EB000D19603A7419605041374F40F8567A38682
:102EC000819623A861973307EB4093877738E3F621
:102ED000E7F68840373D0020EF70C07F83A5C1989A
:102EE000EF70400FEF70007988C0C840EF70807EAF
:102EF00083A58198EF70000EEF70C077C8C088443A
:102F0000EF70407D83A54198EF70C00CEF70807624
:102F100088C493048DAC1386C40013078DAC81471D
:102F200019C483A70C00B3C78702C207C187231047
:102F3000F7000907910CE314C7FE614681451305AC
:102F40000CAEA3860196EFD00FA703A4819623A20F
:102F500061971946130BC400DA852285EFD04FA480
:102F6000130C84011946E2855A85EFD06FA3373BD5
:102F7000002019469305EBAC6285EFD06FA283C7A2
:102F800001990547639EE70899676977130BEBACD6
:102F90009387871A130787E58396040063DDD706B6
:102FA0002390F4008904E39964FF930424011946F3
:102FB000A68513056400EFD0AF9E79041946A2855B
:102FC0002685EFD0EF9D194693058DAC2285EFD075
:102FD0002F9D83C72199FD1793F7F70F2389F19848
:102FE000E39D07E403A58196EF30404F03C5C196EA
:102FF0009307400213064002133515002386A1965D
:103000003305F502B24781453E95EFD0CF9A8D4703
:103010002389F1981DB5E3D7E6F82390E40059B76A
:103020000947E398E7FA2285EF00206E5DB7EFD2FB
:103030008F92832A0500032A45002A84832985006C
:103040000329C500D6855685EF60D078AA84D2853D
:103050005285EF603078AA852685EF60A07FAA842C
:10306000CE854E85EF601077AA852685EF60807E3D
:10307000AA84CA854A85EF60F075AA852685EF6027
:10308000607DEF40100DAA8503A54187EF601033E6
:10309000AA84AA855685EF60F07308C0A68552857C
:1030A000EF60507348C0A6854E85EF60B07208C4CB
:1030B000A6854A85EF60107248C46FD00F8DEFD29D
:1030C000AF88832BC500C445832A050083A905006A
:1030D000032A450003AB45000329850003AC8500A6
:1030E0002A84A6855E85EF60F06EAA8CCE85568513
:1030F000EF60506EAA856685EF70401BAA8CDA855A
:103100005285EF60306DAA856685EF70201AAA8C13
:10311000E2854A85EF60106CAA856685EF7000191C
:1031200048C4CE855E85EF60F06AAA8CD685268578
:10313000EF60506AAA856685EF60C071AA8CE2854F
:103140005285EF603069AA856685EF60A070AA8C11
:10315000CA855A85EF601068AA856685EF700015EC
:1031600008C0DA855E85EF60F066AA8CE285568538
:10317000EF605066AA856685EF704013AA8CD285F1
:103180002685EF603065AA856685EF60A06CAA8C05
:10319000CA854E85EF601064AA856685EF60806BF6
:1031A00048C0E2855E85EF60F062AA8BDA855685BD
:1031B000EF605062AA855E85EF60C069AA8AD285F9
:1031C0004E85EF603061AA855685EF70200EAA8982
:1031D000CA852685EF601060AA854E85EF608067FE
:1031E00008C46FC0FFF9EFC2BFF52A8403A5819917
:1031F0007971AE843305A640328AEF60A05EAA8959
:1032000003C5140083C704002E8922055D8D420585
:10321000418523AC4199EF60E0554E86CA86EF5058
:10322000700D03A6818383A6C183EF50B00C2A8D55
:1032300003C5340083C72400AE8C22055D8D420592
:103240004185EF6020534E86CA86EF50B00A03A630
:10325000818383A6C183EF50F0092A8C03C55400F3
:1032600083C74400AE8B22055D8D42054185EF602A
:1032700060504E86CA86EF50F00703A6818383A66E
:10328000C183EF5030072A8AAE896A86E6866A854E
:10329000E685EF5030062A89AE846286DE86628536
:1032A000DE85EF5030052A86AE864A85A685EF403A
:1032B000103B2A89AE845286CE865285CE85EF5049
:1032C00070032A86AE864A85A685EF4050392A8645
:1032D000AE862A89AE84EF50F00103A6018483A64E
:1032E0004184AE8D2AC6EF50002603A6818483A6B2
:1032F000C1842A8BAE8A4A85A685EF50C0242A86CF
:10330000AE865A85D685EF50905303A6018583A6D5
:103310004185EF40D0342A8BAE8A2A86AE866A85F4
:10332000E685EF50207DEF70A0475A86D6862ACAE0
:10333000DE856285EF50007CEF7080465A86D68627
:103340002ACCCE855285EF50E07AEF706045B247C7
:1033500003A6818583A6C1852ACEEE853E85EF50E2
:10336000801E03A6018683A641862A8AAE894A85E5
:10337000A685EF5020782A86AE865285CE85EF50FE
:10338000104C03A6818683A6C186B7140020EF40A7
:10339000102DEF70E0404C082AD013850424EFF084
:1033A0001FD213850424EFF09FC8834714000347FE
:1033B000040093840424A207D98F2398F400834740
:1033C000340003472400A207D98F2399F4008347D0
:1033D000540003474400A207D98F239AF4004561A3
:1033E0006FC0DFD9EFC25FD683C7650037390020D1
:1033F0004111F19B93E727002383F50003C721992F
:103400008D47AA842E84130989AF6312F702EF2037
:10341000603D23AAA1982320090023220900232428
:1034200009002326090023180900A389019803C570
:10343000319999471946130A15003305F502137A95
:10344000FA0FA3894199B7390020938589AC4A9531
:10345000EFC01FD58D47631BFA2683476400370BE7
:103460000080854ACD9B2303F4007D1B914B034ACA
:10347000640093972A00A69788439377CA00A6977B
:103480008C4333756501B3F56501EF60D021635B53
:10349000A00093F73A008A07137A3AFF336AFA00DA
:1034A00023034401850AE3947AFD034A64009305EB
:1034B0000000135A2A00137A3A0093172A00A6979D
:1034C0008843EF60B027635F052203AB818783AB3E
:1034D000C187130C4100814A050A8D4CB3075A017C
:1034E0008D8B8A07A6978843DE85850AEF60902E2C
:1034F000DA85EF60302EEF70E0172320AC00110C5E
:10350000E39E9AFD8347140203476400A30A040064
:1035100093F707F8A300F40292473D8B230B0400B6
:10352000A58793F6F7009206558F2303E40013D77F
:103530004700A303E40013D7C7002304E400224795
:10354000D183858B25879376F7078606D58FA304CD
:10355000F400935777002305F400B2473D831377B7
:10356000F70393D697409A06558FAD87A305E400DD
:10357000A30B0400A30F04002300040213D7870049
:103580002309F400C183A309E4009D8B03A741999B
:10359000230AF40083471402058B1E0793F7F707ED
:1035A000D98FA300F40283A74199230F04009389C4
:1035B00089AC85832301F40203A741998347340230
:1035C00025830D8BF19BD98FA301F402EF2080217D
:1035D00083A741991D8D834734020A058D8BC98FBE
:1035E000A301F4020397090003180900834744016B
:1035F000B306074113F6860F9D8BD18FA182230A54
:10360000F400A30AD40003962900831829008346F6
:103610007401B30716418D87230BF400A183819AAF
:10362000FD8BD58FA30BF400839649000315490049
:1036300083457401B387A64013D337401603FD8931
:10364000B3E56500A30BB40003136900998793D514
:103650008700230FF400B30707019A977558B3C783
:10366000070313F735009A97A58713F3F7030A03A7
:1036700033676700A30FE400034704029983858B37
:10368000799BD98F2300F40203178900B307160131
:10369000BA97B3C70703BA9703470402A5878607FB
:1036A000058BD98F2300F4020317A900B387A60066
:1036B000BA97B3C70703BA9703471402A58793F7CE
:1036C000F707137707F8D98FA300F40283C7040123
:1036D0002300F40083C71401A300F40083C724016E
:1036E0002301F40083D72401A183A301F40083C73D
:1036F00044012302F40083C75401A302F4004101F2
:103700006FC01FA803AB4187D9B3EFC27FA62A843D
:10371000EF20C00B2A86B73500203735002093856F
:1037200085AC1305E5ACEFF01FAC37150020A28582
:1037300013050524EFF01FCB6FC0DFA583C7819B66
:1037400089EBEFC2FFA2EFD05FD023A4A18C6FC0A2
:103750007FA4014523A4A18C828031C9EFC25FA15F
:103760002A84EFF0BFFD03C7818C2300E40003C768
:10377000918C83C7A18CA300E4002301F40083A7EC
:10378000419BA301F40013D78700C183A302F40077
:1037900083A7019B2302E4002303F40013D78700CF
:1037A000C183A303E4002304F4006FC0BF9E8280A2
:1037B000EFC27F9AB72400209387842B03C717009A
:1037C0008946328A19839384842B931716006305E4
:1037D000D7108D46630BD71285466318D7029356D0
:1037E000F54133C7A600158FB386F40003C6160251
:1037F000635DC70013D6F54183C626023347B60082
:10380000118F6354D70081450145A6978389A7008E
:103810000389B70083C75401B389A90203C74401D0
:10382000A207D98F3309B90293D959401359594086
:10383000BDCFB307290313172A002382019A3384CB
:1038400039033E949387418BBA979C436365F40098
:1038500085472382F19AEF10707711E10545E14722
:10386000B307FA0237360020930606B2930506B274
:10387000BE969C4289CF3307F54083C7540103C6E7
:103880004401A207D18F6369F70C23A0060083C708
:10389000419A91CFE147330AFA023386450100CAC3
:1038A0007D84232236012324260140CA08C2856470
:1038B000138504802A991386F4FF81454E95EFD035
:1038C0000FF32A841386F4FF81454A85EFD02FF247
:1038D000320522956FC07F8B9356F54133C7A60002
:1038E000158FB386F40083C616026353D7000145D3
:1038F00093D6F54133C7B600158FB386F40083C65F
:103900002602E354D7F0814509B73387F4001356F4
:10391000F54103471702B346A600918E63CCE60239
:10392000FD566343A00085463307D7023A95338797
:10393000F40013D6F54103472702B346B600918E33
:10394000E3C3E6FCFD566343B00085463307D70268
:10395000BA9565BD0145E1BFD8429C463387E9026F
:10396000B307F9023E97E35407F2904AD44A9357BB
:10397000F441B307F602B386860233088602B6978F
:1039800033368602B2970D46B307F602B306060336
:10399000333606038D82B2971396D701D18E330644
:1039A000E7028D873317E702E363F7EE6394E700DE
:1039B000E36FD6EC2382019A01498149C9BDEFC268
:1039C0002FFB9387018C03D7470003D5070083D5CE
:1039D0002700B734002083D7670037240020130462
:1039E000C433938404B598C403474400DCC48347BC
:1039F00034002207834614005D8F8347240088C06B
:103A0000CCC0A207D58F998D01461D8DEFF05FDAEE
:103A10000347840023AAA19A8347740022078346A0
:103A200054005D8F83476400CC448844A207D58F3F
:103A30000546998D1D8DEFF0BFD723A8A19A6FC0C1
:103A40006FF583C7819B63850720EFC2CFF03725D1
:103A50000200A381019A2381019AEFD0FFA63705C6
:103A6000020013050504EFD03FA66317051C83C7AA
:103A7000119A8DC7372700201307872B834707002C
:103A800093C6070893F6060893F7F707D58F230028
:103A9000F7008547A381F19A2381F19AA380A19A27
:103AA00037850400EFD05FA22A896319051883C700
:103AB000019A85CF372700201307872B83470700FC
:103AC00093C6F7FF93F6060293F7F7FDD58F230011
:103AD000F700958393C7170013F51700EFD05FB772
:103AE0008547A381F19A2381F19A370502001305D6
:103AF00005082380219BEFD03F9D6313051483C7E6
:103B0000F1999DC3372700201307872B83470700B0
:103B100093C6F7FF898AF59BD58F2300F700854769
:103B2000A381F19A2381F19AA38FA198378502008E
:103B3000EFD09F992A896317051083C7E19985CF34
:103B4000373500208357C5B0797713070708F98FF9
:103B500093E707602316F5B083C7919C1307C5B0A0
:103B60001305C5B093B71700A301F700EF20E01FBE
:103B700085472381F19A416513050510238F21990B
:103B8000EFD09F942A8969E183C7D199A1C3B72552
:103B900000209387852B1385A7FF9385852B93069C
:103BA000F00F03C7B70113061700A38DC7006315F5
:103BB000D700FD17E397A7FE373500201946D90532
:103BC0001305E502EFC0CFDDEFC0DFF1B73700200E
:103BD00083C7D702A38E2199B5EB41650505EFD0C8
:103BE000BF8E2A8925E583C7C19985CB373500204B
:103BF0008357C5B0797713070708F98F93E75730D4
:103C00002316F5B0054A9307C5B01305C5B0A381C7
:103C10004701EF2080152381419B83C7219A238E82
:103C2000219981C70545EF10100F83C7319A99C3B9
:103C3000EFC05FEB6FC06FD505458DB5054975B514
:103C40000545DDB5054905BF054949B70549F1B742
:103C50008280EFC2EFD1370502001105EFD0DF8679
:103C60001DED83A7C19A9DC7EF10D03783A7C19AD6
:103C70001D8D9307400663FDA70083C7819B91E7D5
:103C8000316513050555EF6030648547238CF19A43
:103C90006FC04FD0EF10103523A6A19AD5BF238C4B
:103CA000019A23A6019AEDB7EFC28FCC83A7419C5E
:103CB000850723A2F19C81E7054723ACE180EF1043
:103CC000703283A7819A6300F502EF10B03183A7A9
:103CD000818183A6819A958FAA9723ACF180EF10FA
:103CE000703023A4A19AEFF0DFF6EFE02FB1EFF0F0
:103CF000AF90EFF01FD56FC0EFC9EFC26FC72A8436
:103D0000AA8513050020EF30A06DA2850545EF3090
:103D1000406BA2850545EF30806EA2850945EF30E6
:103D2000006EA2850565EF30A06BA2851165EF30AE
:103D3000206BB7040240A28513854404EF20905AFB
:103D4000A28513858405EF20F059A2851385840090
:103D5000EF205059A28537050040EF303016370567
:103D60000040A28513050540EF305015B7440140CF
:103D7000A28513850480EF30102C22869305000461
:103D800013850480EF30B02C6FC0CFC0EFC24FBEA0
:103D9000371702401C43B70608000111D58F1CC31A
:103DA0000545EF30C055716513050520EF30D02D66
:103DB0003735002013065002814513058502EFC0F8
:103DC0008FBF316513050556EF601050854571456D
:103DD000EF300061854513050020EF3060608545B8
:103DE0000545EF30005E85450545EF30406185456E
:103DF0000945EF30C06085450565EF30605E85455B
:103E00001165EF30E05DEF10501EEF10101B2945DB
:103E1000EF10D024EFC09FD76800EF30804FEFD075
:103E2000AFD6EF103035EF10102AEFD0EFADEF2006
:103E30004017EF10200AEF10406FEFE05FDFEFE078
:103E40009FFBEFE0BFEFEFC03FCDEFC04FC2EF30C1
:103E50004042AA850545EFC01FB105616FC08FB311
:103E6000EFC26FAF0545EF30C035EF107004EFF0D3
:103E7000FFF183A50182316513054557EF6050308E
:103E80003145EFD06FE42384A19CEF0050740D65A1
:103E90001305A575EF20205AEF20C0640145374473
:103EA0000020B7340020EFD04FE9130404AC938412
:103EB0008402054BEF10B057EFF07FB0EFF01F8892
:103EC00083A7818C13D787002300F400C1832301CB
:103ED000F40083A7419BA300E400A301F40013D7DF
:103EE0008700C183A302F40083A7019B2302E4009F
:103EF0002303F40013D78700C1832304F40083C78E
:103F0000218AA303E40091CF23826401EF20206D76
:103F1000EF20205EEF20204CEF103038EFF0DFD89C
:103F200051BFA382040023820400EDB78280834541
:103F3000D5000345B5001306F00F6FE05FD0828017
:103F400082808280B7370020938707B623A60702B6
:103F50002394070223A207028280EFC26FA13734A5
:103F60000020AA84EFF01FFE130904B68967938727
:103F7000071A130620029385B400130529002310A5
:103F8000F4B6EFC0EFA193074002130504B6231463
:103F9000F902EF0070686FC0EF9FEFC26F9D2A8437
:103FA000EFF05FFA0347A40037350020930705B60A
:103FB000930600F8A380E700130505B60D4723809C
:103FC000D7002381E7002394E702EF00F0646FC07D
:103FD0006F9CEFC24F98AA84EFF0DFF603C7A400EE
:103FE00083C9B400373A002093070AB6930610F845
:103FF0002380D700A380E700238137018547130979
:104000000AB6638EF9008947638AF9048D47130560
:104010000AB62314F902EF0030606FC00F973734EF
:1040200000201304840219469385C4001305C400BC
:10403000EFC00F9719469305640013053900A309D3
:104040003401EFC0EF95B16561469385C5CC13058A
:104050009900EFC0EF949307100255BFB7350020C9
:1040600041469385C50313053900EFC06F93CD47D3
:1040700079BFEFC2EF8F2A84EFF0DFECB727002083
:1040800083C7772DADCF0547638FE7060D479307AD
:104090009004B71500209386C5262380E6000347C9
:1040A000A40037340020A380F600930704B69306DB
:1040B00020F82380D700A380E700B737002093873C
:1040C00087021387C5269386A7FF930404B603C609
:1040D000B700FD170507A301C700E39AD7FE3146D5
:1040E0009385C52613852400EFC08F8BB947130530
:1040F00004B62394F402EF0030526FC0AF890D472D
:104100009307800479B711479307300359B7EFC27B
:104110002F862A84EFF01FE30347B4008D469307F0
:1041200007FD93F7F70F63E4F600A38AE1800347E6
:10413000A40037350020930705B6930600F8A38046
:10414000E700130505B609472380D7002394E7024B
:10415000EF00904C6FC00F84EFC28F812A84EFF084
:104160007FDE8347A400B7340020138404B6B7155C
:104170000020130730F839469385C5251305240020
:104180002300E400A300F400EFC08F81C147138532
:1041900004B62314F402EF0030486FB0BFFFEFB253
:1041A0003FFD2A84EFF01FDA0347A40037350020D3
:1041B000930705B6A380E7000547930600F823811F
:1041C000E700130505B60D472380D7002394E702C7
:1041D000EF0090446FB01FFCEFB29FF92A84EFF01C
:1041E0007FD60347A40037350020930705B6930612
:1041F00000F8A380E700130505B60D472380D7001C
:10420000238107002394E702EF0010416FB09FF86D
:104210006FF09FFC6FF05FFC6FF01FFCEFB2BFF31D
:104220004111AA84EFF01FD29385B4002E852EC6CB
:10423000EFC07FDA83C7F4007547B2452A89754419
:104240006364F70013F4F70F83C7A400B7390020A5
:1042500037350020130700F9938409B61546130576
:1042600025B62380E400A380F400EFB07FF3B735D8
:1042700000202286938575B64A85EFC02FFF1D0466
:104280001374F40F138509B623948402EF00D03819
:1042900041016FB09FEFEFB2BFED41112A84EFF003
:1042A0007FCA1305B400EFC01FD30346F400930583
:1042B00004018546AA8432C62EC4EFC0DFBA324656
:1042C000A2452685EF10F0380347A40037350020BB
:1042D000930705B6930600F8A380E700130505B61B
:1042E0000D472380D700238107002394E702EF00C6
:1042F000B03241016FB01FEAEFB29FE72A84EFF0BE
:104300007FC40347A40037350020930705B6930602
:1043100000F8A380E700130505B609472380D700FE
:104320002394E702EF00502F6FB0DFE66FF0DFFC61
:104330006FF09FFCEFB2DFE32A84EFF0BFC00347CA
:10434000A40037350020930705B6930600F8A38034
:10435000E700130505B6130740022380D700239416
:10436000E702EF00702B6FB0FFE2EFB27FE02A842C
:10437000EFF05FBD0347A40037350020930705B673
:10438000A380E700130505B609472380070023949F
:10439000E702EF0070286FB0FFDFEFB27FDD2A8405
:1043A000EFF05FBA0347A40037350020930705B646
:1043B000930600F8A380E700130505B6594723804C
:1043C000D7002394E702EF0030256FB0BFDCEFB2D7
:1043D0003FDA2A84EFF01FB70345B400A380A19C05
:1043E0003335A000EF10A0180347A4003735002094
:1043F000930705B6930600F8A380E700130505B6FA
:1044000009472380D7002394E702EF00F020B73755
:1044100000200547A386E7026FB0DFD7EFB25FD574
:104420002A84EFF03FB20347A400373500209307FA
:1044300005B6A380E70003C7119C930600FB130594
:1044400005B62381E7000D472380D7002394E702B8
:10445000EF00901C6FB01FD4EFB29FD12A84EFF011
:104460007FAE8347B40037350020238EF19A23882E
:10447000F1980347A400930705B6930600F8A380BC
:10448000E700130505B609472380D7002394E70208
:10449000EF0090186FB01FD0EFB29FCDB73400205F
:1044A0002A84EFF03FAA938704B6130700142391E0
:1044B000E70003C7C19B138904B69387C19B01E73B
:1044C00005472380E70011469305B40013851700C4
:1044D000EFB01FCD8347A400130700F8138504B67F
:1044E000A300F90089472300E9002314F902EF0033
:1044F000B0126FB03FCAEFB2BFC7AA84EFF09FA45B
:1045000003C7C4009306000203C5B400930700026A
:1045100063E3E600BA8703C7A40013F4F70F373943
:104520000020B7350020930409B6930600FC2286CC
:10453000938545B62380D400A380E400A381F400D2
:104540002381A4001104EFE06FD21374F40F13055C
:1045500009B623948402EF00300C6FB0BFC3EFB2F2
:104560003FC12A84EFF01F9E0347B400B717002015
:10457000373500202384E7320347A400930705B6AC
:10458000930600F8A380E700130505B609472380CA
:10459000D7002394E702EF0030086FB0BFBFEFB23F
:1045A0003FBD2A84EFF01F9A0347A400373500204F
:1045B000930705B6A380E70013078061930600FD0B
:1045C0002391E700130505B611472380D7002394F4
:1045D000E702EF0070046FB0FFBBEFB27FB92A842F
:1045E000EFF05F960347A40037350020930705B628
:1045F000A380E7005147930610FD2381E7001305D0
:1046000005B60D472380D7002394E702EF00D000C2
:104610006FB05FB8B73700201167938707B91307EA
:10462000A7F998C31167130727FDD8C311671307AC
:10463000270798C711671307E710D8C71167130733
:10464000871598CB11671307E719D8CB11671307A4
:10465000C7F298CF1167130727F4D8CF1167130754
:10466000871D98D311671307C721B8C311671307B4
:104670006729F8C31167130707219166B8C79386A6
:10468000E6F31387070814C391669386A6F554C30F
:1046900091669386862F14C791669386462114CB24
:1046A00091669386862154CB91669386C63214D345
:1046B00091669386463354D391669386A63614D773
:1046C00091669386A63954D791669386E63C34C3A7
:1046D00091669386C64174C39166938606F434D37B
:1046E0001167938707101307874598C3116713074E
:1046F0008749D8C311671307E7F298C711671307F3
:10470000674FD8C711671307E75598D31167130789
:10471000E759B8C3116713070733F8C311671307C5
:10472000A75DB8C7828083C7819C99C7084193055C
:10473000650009056FD0EFCF8280EFB27FA32A8496
:1047400083454400084137370020D11593F5F50F14
:104750002302B4008347A500130707B98A07BA9755
:104760009C4399C3829719A01C43EDFF2285EFF06B
:104770009FFB6FB03FA203474500854763F3E708FF
:104780001C41C1C383C717001547FD1793F7F70FE7
:104790006369F706EFB2DF9D31678A071307475851
:1047A000BA979C43373400208287B707000313056C
:1047B00084FE93871718B73500201CC119469385CE
:1047C000E5021105EFB0DF9D85462946930584FE7D
:1047D0001385016BEF0030096FB0DF9B9307102842
:1047E0002314F4FE85460946D5B793071038CDBF8C
:1047F00093071048F5B793071058DDB79307106873
:10480000C5B78280B7370020138787FAA300A700B7
:10481000F956138625002300D7001376F60F854638
:10482000938587FA1385016B6F00F003EFB25F94F5
:10483000B734002037340020B7250020130484FA51
:104840001306D0039385852B1385B4FA2301040046
:10485000EFB01F959305E0030545EFF0BFFAB725CC
:10486000002085471306D0039385552F1385B4FA8E
:104870002301F400EFB0DF929305E0030545EFF06C
:104880007FF837350020130630038145130555FBAB
:10489000EFB07F92B72500208947294693852533BD
:1048A0001385B4FA2301F400EFB09F8FAD450545A1
:1048B000EFF05FF59307F03F894505452311F400BC
:1048C000EFF05FF46FB01F8DEFB29F8A0C411307BA
:1048D000F00F83C7150003C4219C6396E70483C7C8
:1048E00025002A890147639C870003C73500854757
:1048F0006314F700EFC00F9FEFC00FA20547B73753
:104900000020938787FA2381E70003270900894560
:104910000945034737002381019CA381E700EFF09D
:104920007FEE6FB03F871307D003B387E7023725C9
:104930000020130640081305852B1D8E3E956374D9
:10494000C7001306D00389050504EFB07F852381D6
:10495000819CC1BFEFB2DF812A8408410505EFC009
:104960008FE70C40AA8437350020154685051305CE
:10497000A5FAEFB0FF821C40B7350020268503C69C
:1049800057009385F5FAEFC06F8E1C400D4583C527
:104990005700950593F5F50FEFF0DFE66FB08FFF49
:1049A000EFB20FFD2A8408410505EFC0CFE20C40AD
:1049B000854603C655009905EFC0EFCAB7370020FA
:1049C0002385A7FA85451145EFF0DFE36FB08FFC33
:1049D000EFB26FF837340020AA896146814513058C
:1049E00004F9EFB04FFD014AB73A002063143A01D1
:1049F00081440DA01545EF0070661949EFE06FA7DF
:104A0000AA841545EF009065A9C87D191379F90F9F
:104A1000E31609FE130404F90840EF50B04B83A5D8
:104A2000C198EF50205BEF50F04408C04840EF5071
:104A3000704A83A58198EF50E059EF50B04348C0C9
:104A40000844EF50304983A54198EF50A058EF50EB
:104A5000704208C426856FB04FF3930704F913879B
:104A60004AAD138687019443831507000907AE9664
:104A700094C39107E319F6FE050A8DBFEFB2AFEDBF
:104A8000EFF01FF52A8A63170516B73400209384C8
:104A900004F9C844EF50104483A50188372400204E
:104AA00013044438EF50801183A54188EF40905A99
:104AB0008347140803470408AA8AA207D98F33053D
:104AC000F040EF503041AA855685EF40B058EF5086
:104AD000703A931705012300A4028848C183A1837B
:104AE000A300F402EF50103F83A50188EF50000DA2
:104AF00083A54188EF4010568347340803472408B4
:104B0000AA8AA207D98F3305F040EF50B03CAA859E
:104B10005685EF403054EF50F035931705012301CF
:104B2000A402C848C183A183A301F402EF50903AC4
:104B300083A50188EF50800883A54188EF409051FC
:104B40008347540803474408AA8AA207D98F33052C
:104B5000F040EF503038AA855685EF40B04FEF5007
:104B60007031931705012302A4028840C183A183F9
:104B7000A302F402EF50103683A50188EF50000421
:104B800083A54188EF40104DEF50D02E93170501BB
:104B90002306A402C840C183A183A306F402EF50F8
:104BA000703383A50188EF50600183A54188EF40F1
:104BB000704AEF50302C931705012307A402884454
:104BC000C183A183A307F402EF50D03083A50188ED
:104BD000EF40D07E83A54188EF40D047EF50902929
:104BE00093170501C183A1832308A402A308F4023B
:104BF000EFB07FF152856FB04FD9EFB26FD751450B
:104C0000EFF0DFE703C72196B7370020938787FAD5
:104C10002381A70089451545A381E700EFF09FBEDA
:104C20006FB04FD7EFB2CFD41387018C83560700F4
:104C3000B72700209387C733A380D700A1822381A1
:104C4000D7008356270001468145A381D700A18262
:104C50002382D70083564700035767002165A3824C
:104C6000D700A1822383D700A383E7008546218351
:104C70002384E70023800700EFC0EF9EB7370020B2
:104C80002385A7FA85451D45EFF0DFB76FB08FD0BC
:104C9000EFB20FCEB73500209385B5FA3D45EFD082
:104CA000BFD4B7370020138787FA2301A70003A7D3
:104CB0008181938787FA01E7054723ACE18083A6CA
:104CC000818103A7419C373500203357D702114615
:104CD000938501981305D5FA2382E700EFB04FCCF6
:104CE0003735002011469385C197130515FBEFB0AA
:104CF0002FCBAD451305D00FEFF0DFB06FB08FC9EC
:104D0000EFB20FC70145EF0010012945EF00103544
:104D1000B707EFBE37E700E0938707083CC76FB0DF
:104D20006FC7B73700201307101089451305F00F20
:104D30002395E7FA6FF01FAD1441054693871600DF
:104D40001CC1834745006373F608EFB26FC2FD17BD
:104D50002302F50083C716009D4663E0F60295CB5B
:104D6000FD1793F7F70F994663E5F602B1668A07D8
:104D70009386C659B6979C4382871307E00F638ECC
:104D8000E7021307F00F6387E7021307D00F638969
:104D9000E7026FB02FC0EFF07FA9E5BFEFF0DFB201
:104DA000CDBFEFF03FBBF5B7EFF09FBFDDB7EFF042
:104DB000DFE4C5B7EFF0FFF6E9BFEFF07FF4D1BF56
:104DC000EFF01FEDF9B7EFF0FFE5E1B782806FF08C
:104DD0007F84EFB2EFB91C411307000883C70700B7
:104DE0006389E702636AF7000547638EE70041477E
:104DF000638EE7006FB00FBA1307E00FE39CE7FE86
:104E0000EFF09FF3C5BFEFF05F93EDB7EFF0BF9109
:104E1000D5B7EFF05F96F9BF03468502AA858146B4
:104E20001385016B89A4EFB2AFB441112A84854583
:104E3000054502C002C202C402C6EF20605A854581
:104E40002145EF20E05985454145EF206059BD459A
:104E50000545EF20200E1149C14489470A853EC00F
:104E60004AC226C422C6EF10D04DBD450945EF20E9
:104E7000600CA1670A853EC04AC226C422C6EF1054
:104E8000504C99450545EF20E00A930700040A8538
:104E90003EC04AC226C422C6EF10B04A9D45054511
:104EA000EF204009930700080A853EC04AC226C485
:104EB00022C6EF101049B9450545EF20A0079167BC
:104EC0000A853EC04AC226C422C6EF10904741015F
:104ED0006FB04FACEFB2CFA94111371501409147E8
:104EE0004C00130505C03EC62312F1002313010038
:104EF0002314010023150100EF10107641016FB05B
:104F00006FA9EFB2EFA6371702405C439146B18B11
:104F10006386D7005C434167F98F81C70145EF2065
:104F20006039B7F700E0938707D0984B1367870283
:104F300098CB984B1367870098CB73005010984B11
:104F40001367870098CB730050106FB0AFA4EFB217
:104F50002FA20145C9232945EF00501031651305E3
:104F6000855BEF5070360145EFE03FD9EFD07FE62B
:104F70000545EFF05FEB0545EF206038130510069F
:104F8000EF20804D854719C5EFF0BFF70145EFF0E1
:104F90009FE981473E856FB0EF9F0DCDEFB2AF9B8C
:104FA0002A84AE8405458DC5328A81452D46130578
:104FB0009400B6893A89EFB00FA0854704C0232238
:104FC0004401230534012304F400A308240101450E
:104FD0006FB0AF9B05458280EFB28F999304F00FBD
:104FE00035CDADCD1C412A84B5CB83440501B5E850
:104FF0000347A5005C4563D6E7068347150113F90F
:10500000F70F6374F6001379F60F85471307C40092
:10501000AF27F7005C44834794000347A40085074B
:1050200093F7F70F63E3E700814703451401A304F7
:10503000F4004A86B307F50208403E95EFB04F965C
:10504000034794005C40BA97238027018347A4005C
:1050500058446345F70085472308F40026856FB060
:105060006F938544E5BFEFB2AF901309F00F59C9B4
:10507000D1C91C412A84D9C703490501631709080E
:105080000347A5005C4563D2E70883471501B28456
:105090006365F600FD1793F4F70F85471307C40007
:1050A000AF27F7005C44834794000347A4008507BB
:1050B00093F7F70F63E3E700814703471401A30465
:1050C000F40026863307F7021C408504BA97238034
:1050D000D70003479400834714010840B387E702D1
:1050E00085073E95EFB0CF8B034794005C40BA979D
:1050F000238097008347A40058446345F700854701
:105100002308F4004A856FB0EF880549E5BFAA87F8
:1051100029C518411305F00F39C3D847014521C3EC
:105120007D579386C7002FA7E600D84703C787009F
:1051300083C6A70005071377F70F6363D7000147FE
:105140002384E70003C7070101CBD847B326D70064
:1051500093C616002388D70082801305F00F828043
:10516000EFB20F81056501118545110502C002C22C
:1051700002C402C602C802CA02CC231E0100EF20EC
:105180002026930700082310F10037150140E1475E
:105190003EC48A858D47130505803EC2EF10D04B73
:1051A000B7C704013EC6B70700023ECA9307000214
:1051B0003ECC6C009D4737350140231EF10002C8EC
:1051C000EF20602C0546894537350140EF2020331C
:1051D00005616FA03FFCEFA21FF879712A84AE89A8
:1051E000328981451306C0024800B684EFA0BFFC97
:1051F00085450545EF20E01C2285EF10207DC14745
:105200003EC6930700083ECC930700103ECE4C00EC
:10521000856722854EC24AC426C83ED402CA02D03F
:1052200002D202D6EF10900845616FA01FF6B706B4
:1052300000014111014781479385C181FD166148F5
:10524000137615002E960346060005813316E600F8
:10525000D18F0D07F58FE31507FF139507014181E6
:105260002396A19CC1831375F50F9386C19C23815E
:10527000A6002386F19C83D7C19C42055D8D410128
:105280008280EFA25FED8D4AB304550337340020CE
:105290003285130404052E8AB689EFF05FF993571F
:1052A00085001389A4003309590322992300A9001A
:1052B0004181A300F9002301A9001389B400330937
:1052C0005903B1045285EFF09FF693578500B384DC
:1052D000540322992300A90041812301A9004E858E
:1052E000A300F900EFF0BFF4935785002694230044
:1052F000A4004181A300F4002301A4006FA0FFE8F3
:10530000EFA29FE42A84373500201306301581452B
:1053100013050505EFA03FEA9387417803CB77009B
:10532000138941786319041863070B008145378599
:105330000200EFC0AF9E014409A81375F40F814627
:1053400001468145EFF0FFF305048347A900E346DA
:10535000F4FE6FA0FFE293F929001375FA0F638042
:105360000912814601468145EFF0BFF1050A8347E6
:10537000A90083C90400834A8900E34EFAFCB737C9
:10538000002083C6A702930740061384FAFFB38662
:10539000F602133414000A042285939B890193DBDF
:1053A0008B41130A140093F6F60F3686B685EFF09C
:1053B0005FED9306400663D30B0081463686B685C3
:1053C0005285EFF01FEC83C6919C930740061305AE
:1053D0003400B386F60293F6F60F3686B685EFF004
:1053E0005FEA63CF0B0083C7419781E783C731969C
:1053F00081EB814601469305800C5285EFF07FE8F2
:1054000093F90902090481466399090083C71400CE
:1054100093F70702D5CB93064006014681452285C6
:10542000EFF03FE683C7C18F81CB814601469305EC
:1054300040062285EFF0FFE4854711446393FA00AC
:1054400031448347990085E783C6A40403C69404C6
:1054500083C584042285EFF0DFE283C6940503C68A
:10546000840583C5740513051400EFF09FE1E30282
:105470000BEE854537850200EFC04F8AD9BDB307D3
:105480007403A69783C6970203C6870283C5770273
:10549000EFF03FDF63860A00638A8A010504F9B5ED
:1054A00093274A0093C717003E94C9B59307CAFFD4
:1054B00093B74700C5BFB72400200144014A938435
:1054C000842B8D4B054C65B5814613064006B9B754
:1054D000EFA21FCA37040240130504038145EF10F1
:1054E0006060B737002013050403938707055CC588
:1054F00083C7E1780D478545B387E702D107B387B6
:10550000E7025CC1EF10005E854537350140EF10C2
:10551000307D6FA03FC8EFA2BFC52A84EFF05FDEE9
:105520002285EFF0FFFA6FA0FFC6EFA27FC4EFF075
:105530003FC30945252683C7E1780D478D46B387CC
:10554000E70237360020B735014037050240130621
:105550000605B10513050503D107B386D702EFF0A1
:105560009FC70545EFF03FFB01456FA0BFC2A38772
:10557000A19C05456FF03FFA13050020EF10E05B9A
:105580000DC113050010EF10805B37050240814507
:1055900013050503EF100055814537350140EF1025
:1055A000307473002030411102C43717024002C624
:1055B0001C43C16637060200D58F1CC3B7160240D4
:1055C00015679C42F18F3EC6A24785073EC4B2478D
:1055D00081E7A247E397E7FEB71702409C433707EE
:1055E0000200F98FC9C385473EC632478547631E0F
:1055F000F706B72702409843B706C1FFFD161367A9
:10560000070198C39843719B98C398431367270079
:1056100098C3B7170240D843D8C3D843D8C3D84398
:10562000D8C3D843758FD8C3D843B7061D00558F4C
:10563000D8C39843B7060001558F98C3B706000238
:105640009843758F75DFD843B7160240719BD8C356
:10565000D84313672700D8C32147DC42B18BE39EB0
:10566000E7FE4101828002C649B701A0B717024098
:105670009843B706FFF81367170098C3D843758F90
:10568000D8C39843B706F7FEFD16758F98C39843A5
:10569000B706FCFFFD16758F98C3D843B70681FF88
:1056A000FD16758FD8C337079F0098C76FF0BFEFFF
:1056B000371702405C43A146B18B6391D7065C4328
:1056C00054434166C983BD8BF18E890781EE37470C
:1056D000024003270780418B19CB37177A00130745
:1056E000072011A85843B7060200758F7DD73717DA
:1056F0003D0013070790B387E70237170240544372
:1057000037170020130787279182BD8A36970347F2
:105710000700B3D7E70023A0F1828280B7177A0091
:1057200093870720D9BF6FF01FE8854537050040F4
:10573000EF20A0028547631CF50083A7819D854566
:1057400037050040850723ACF19CEF2080037300F0
:105750002030EFA2FFA10111930770043ECA4C084C
:105760009307703E370500403ECCEF10B05A054617
:10577000854537050040EF10907785453705004097
:10578000EF10D0739307C0022316F1008947230757
:10579000F100680085473EC8EF10B023956737E7F2
:1057A00000E09387A7727CC3B207B706002CB183D1
:1057B000D58F7CD305616FA0FF9D03A7019D11E7E5
:1057C000054723A8E19C6FF0DFF8828083A7819DC5
:1057D0001307803EB387E7023707004003554702AF
:1057E0003E95828003A5819D828083A70182371721
:1057F0007A0013070720B3D7E702238AF19C82803F
:1058000019E501458280014541016FA0BF98EFA2D3
:105810003F9641112A84AE843289EFF03FFB2AC6BD
:10582000268502946DF1EFF07FFAB2471D8DE37982
:10583000A9FE2685029413351500F9B7EFA25F93F0
:1058400041112A84EFF09FF82AC6EFF03FF8B247E3
:105850001D8DE37CA4FE41016FA0DF9383A7819D92
:1058600041113EC683A7819DB246958FE37CF5FE2C
:1058700041018280034625009306350001471376D7
:10588000F6079D4503C80600B357E6409E07B3E7F9
:1058900007012380F60005078506E315B7FE834759
:1058A00015000347A50095838D8B93967700558F40
:1058B0002305E5000347B5009A0793F707F8D98F4A
:1058C000A305F5008280EFA2BF8A79711306C0029A
:1058D00081454800EFA03F8E370402408145130503
:1058E0004404EF10202013054404EF10200EB744A9
:1058F0000140938744803EC2C1473EC693070008DB
:105900003ECC4C008567130544043ED402C402C853
:1059100002CA02CE02D002D202D6EF10201981456F
:1059200013058405EF10001C13058405EF10000A11
:10593000B74700209387C78E3EC4930700183EC820
:10594000930700023ED24C008967130584053ED4BC
:1059500002C6EF10A015130584058545EF108018C9
:1059600005469305000413850480EF10506E4561D1
:105970006FA05F82EFA2CFFF01118545114502C2E2
:1059800002C402C602C802CA02CC02CEEF105025E1
:1059900085451165EF10D024930700202312F100F4
:1059A000371401408D473EC44C00E1471305048085
:1059B0003EC6EF10604A930700402312F1004C00EE
:1059C00093078004130504803EC6EF10E048B7C774
:1059D0002D00374401409387076C3EC80C08B70779
:1059E0000C00130504803ECC02CA231E0100EF10F8
:1059F000305A1305048093050004EF101068130556
:105A000004808545EF10306337360020B73500201D
:105A1000373500203547930600041306C6229385C8
:105A2000C55A1305851DEFF04FD737360020B7351F
:105A30000020373500203547930600041306C61EA4
:105A40009385C5261305451CEFF02FD505616FA082
:105A50006FF4EFA24FF0B74901402A89AE84138555
:105A600009809305000437040240EF10106113050C
:105A700044048145EF10000723282405130544043E
:105A800044C18545EF1000060546930500081385BF
:105A90000980EF10D05B6FA04FEFEFA26FED83C7CF
:105AA000619E9DCBB744014093050004138504809B
:105AB000EF10F05B05C19305000413850480EF101F
:105AC000D05B01469305000813850480EF10305821
:105AD0002383019E6FA00FECB73700201387471C6C
