:100000006F60D027130000001300000013000000F1
:100010001300000013000000130000001300000094
:100020001300000013000000130000001300000084
:08003000130000007300100032
:100038006FF09FFC000000006F0060186F00A01AAE
:1000480000000000000000000000000000000000A8
:100058000000000000000000000000000000000098
:100068006F603021000000006F60B02000000000C9
:100078006F6030206F60F01F6F60B01F6F60701F7F
:100088006F60301F6F60F01E6F60B01E6F60701E73
:100098006F60301E6F60F01D6F60B01D6F60701D67
:1000A8006F60301D6F5000756F60B01C6F60701C02
:1000B8006F60301C6F60F01B6F60B01B00000000A9
:1000C8000000000000000000000000006F60701ACF
:1000D8006F60301A6F60F0196F60B0196F60701937
:1000E8006F50700C6F2020106F60B0186F60701820
:1000F8006F6030186F60F0176F20605A6F6070176C
:100108006F6030176F60F0166F60B0166F60701612
:100118006F6030166F60F0156F60B0156F00401596
:1001280000000000000000000000000000000000C7
:080138000000000000000000BF
:10014000397101436EC619A0397141536AC866CA34
:1001500062CC5ECE19A0397101535AD056D252D416
:100160004ED64AD826DA22DC06DE3301614082828E
:1001700041114AC026C222C406C68282B24D410144
:10018000024D924C224CB24B4101024B924A224A00
:10019000B2494101024992442244B2404101828065
:1001A0002A8309CA83830500230073007D16050393
:1001B00085056DFA82802A8311C62300B3007D165F
:1001C000050365FE82800145EF50203F371702404E
:1001D0001C47B7068000D58F1CC7EF50007D37E75E
:1001E00000E03C4793E787003CC773002030730072
:1001F0002030EFF2FFF711458545EF706062B74799
:10020000024093870780984301451367470098C3CE
:1002100003A74182B7A74A04938707206309F70021
:10022000B777DC02938707C06315F7000545EF70C9
:10023000A04D85450565EF70C05CA9BF373702400A
:10024000930700FC2306F74093874177C207C183D9
:100250002318F7409387416F23A8F1A4C207C183F5
:10026000231AF74089472309F742230BF742938764
:10027000018AA38007008280011122CE26CC4ACABF
:100280004EC852C656C437340240034764408347C1
:1002900074409376F70F098B6304075E93F7F70FAB
:1002A00013F70703930500026302B70493060003E4
:1002B000630FD71621E713F7F7036300071285468C
:1002C000631ED70293F7070495CB834764431385D6
:1002D000C16C93C70708230BF4420356844083A5DF
:1002E00001A51376F60FEF40906509A893F7F70381
:1002F0006384E70213071002638EE70AB7370240F0
:1003000009472383E7407244E2445249C249324AD2
:10031000A24A05617300203083D7E18A99E78347B9
:10032000244393F7370F2309F44283C7418B93F794
:100330000706E9F783C7518B954613F7F70F638FCD
:10034000D7049947E31CF7FA03D7E18A9307F00330
:100350001304000463E6E70003D4E18A4204418009
:1003600003A9818B2286CA8513854177153D83D7E2
:10037000E18A229923AC218B818FC207C183239705
:10038000F18A1374F40FB73702402388874203C7FA
:100390002743134707042389E7428DB7B736024046
:1003A00003C7364083C7C18A13770708D98FA38153
:1003B000F640A9B78347644393F7C70F93E7270035
:1003C000230BF4428347644393C70704230BF4428F
:1003D0009387018AA380070015B793F70704E38F7B
:1003E00007F083C7418B93F70706E38907F083C7BC
:1003F000418B93F70706E393B7F003C7518BA547EB
:10040000E31EF7EE3745002013060004938541777D
:1004100013054521713305472384E1A48347244311
:1004200093F7C70F93E727002309F442C1BD930751
:10043000A0FC2309F4421387417783470700238AEE
:10044000F18A8347170083562700A38AF18A8357CE
:1004500067002397F18A2399D18A8356470023980E
:10046000D18A03C9418B93864177137909066309C1
:10047000090C83C7418B93F70706639EB70283C7B6
:10048000518B2946FD1793F7F70F6363F618316612
:100490008A0713060626B2979C43828783D7018B6F
:1004A00063980716B745002013060004938545217D
:1004B00013854177F53183C7418BE207E18763DE1E
:1004C000073803D7E18A9307000463E6E70083D780
:1004D000E18AC207C18303D7E18A1D8F42074183A6
:1004E0002397E18A93F7F70F373702402308F74243
:1004F0008347274393F7C70F2309F74201B583D7F3
:10050000018B6397071003C73600A384E18A65B7A0
:1005100083D7018B639E070E03C726002384E18ADD
:1005200059BF83D7018B6395070E83C7918A2380B8
:10053000F60051B783D7018BE1EF83C7818AC5BF2E
:1005400083C5518B2D4813F6F50F6363B80CB16565
:100550000A069385C5282E961042028683D6218BE3
:100560000D46A1826386C60C636CD6008547638CFA
:10057000F60289476381F60481471309F00F81A8C9
:1005800093071002638BF60893072002E396F6FEAA
:1005900083D7018BF5F3B5679387C7BE23ACF18A88
:1005A0009307F00D2DA0B5679387C7CC23ACF18AD4
:1005B00083C7070029A8B71700209387872823AC93
:1005C000F18A03C7270083C73700A207D98F03D753
:1005D000E18A63F4E7002397F18A03D7E18A93075E
:1005E000F003130A000463E7E70003DAE18A420A32
:1005F000135A0A0183AA818B528613854177D685C7
:100600004536D29A23AC518B9307F00FE315F9EAE4
:10061000B73702401307F0FCBDBB83D7018BA9FF9E
:10062000B71700209387A72923ACF18AA54745B7C0
:1006300083D7218B094793F7F70F6387E702636B33
:10064000F70099EF9387818923ACF18A014983C729
:100650000700B5BFE392D7F2B5679387C7B9B9B7BB
:10066000B567938707BE99B7B567938747BB3DBF0B
:1006700083D7218B93F7F70F2386F18A2DBD83C78C
:10068000D18A2380F60003D7E18A8547E3F5E7E2C4
:100690002397F18A0DB583D7218B93F7F70FA386A4
:1006A000F18A05472385E18A39B583C6418BFD8AE6
:1006B00099EE83D7218B054793F7F70FE39DE7DE8C
:1006C00083C7B18A93F7E70FA385F18AEDB383C699
:1006D000418B0946FD8AE39DC6F283D7218B93F7B0
:1006E000F70F9DF783D7018B054793F7F70F6381CA
:1006F000E70213072008E39DE7F0373702408347FE
:10070000A74393F7C70B93E72700230DF74265B381
:10071000373702408347674393F73707230BF74286
:100720008347674393F7C70B93E72700230BF742F1
:1007300059B383C6418BFD8A8DE683D7218B05474C
:1007400093F7F70FE396E7ECB717002083C7F72876
:1007500093F70702E38E07EA83C7B18A93E717008E
:10076000A5B783C6418B0946FD8AE393C6EA83D7C2
:10077000218B93F7F70FE39D07E883D7018B1307CE
:10078000100893F7F70F638FE70013072008E39132
:10079000E7E8373702408347A74393F7C70B93E750
:1007A0003700A5B7373702408347674393F73707CA
:1007B00093E7C700230BF7428347674393F7C70BC1
:1007C00093E73700A5B72380060075BD83C7418B2B
:1007D000239A0176FD8B99EB83C7B18A858BBDC3C4
:1007E00089472380F60003D7E18A4DB583C7418B43
:1007F0000946FD8B639CC70403D7018B13061008C1
:100800001377F70F630DC700130620086305C702AF
:1008100003D7E18AE3FEE7DE2397F18AD5BB3737BA
:100820000240034767433146318BE31EC7FA054751
:100830002380E6004DBF373702400347A7430D46EC
:100840000D8BE5B703D7E18A894789B583D7E18A5C
:10085000E370F6DC2397C18A65BB83D7E18A91EB0D
:10086000B73702402388074203C727431377C70FD0
:100870001DB6373702408347274393F7370FADB98B
:1008800093F716009DC3A386018A2386018AA38558
:10089000018A2385018AA30104404D3283476440C5
:1008A00093E717002303F440B9BC93F746009DCBB0
:1008B00091472303F4402945EF50802003475440DB
:1008C000118B11CB03C7B18A13672700A385E18A77
:1008D00083C7B18A0DBC03C7B18A1377D70FA3852D
:1008E000E18A15B42303D44039BCEFF27F88B747BF
:1008F0000240938707809843C1E51367870098C338
:100900003734024099472300F4402DCD2945EF505C
:10091000201B9D47230004402301F44093079002CD
:100920002300F440213A930710F8A300F440130782
:100930001004E1461386C1A69385410B1385016E11
:10094000EF40007CB715002013071004E146138622
:1009500041A89385455C1385C16CEF40607A37E709
:1009600000E0930780277CC3B207B183B706003B42
:10097000D58F3CD3B70700082322F7106FF09F8173
:100980005D9BB5BF2945EF50A013B7E700E02300FA
:100990000440B843C146B4C337060008938607181D
:1009A000D0C2B8C3E1BF83C7517B9DCB0547638EDF
:1009B000E7021307401F9307802A23A8E18023A69C
:1009C000F1809386072D371700202328D73213078D
:1009D000002DB307F740371700202326F732828017
:1009E0001307A0289307002DC9BF1307C021DDBF3F
:1009F000EFF20FF837070001AA87130707F07D8F82
:100A0000A1662E856301D70463E8E60021C79966D5
:100A10006301D7026FF00FF8A5666302D704BD66C5
:100A2000E31AD7FEB725002093F7F70F9385853E8D
:100A300039A0B725002093F7F70F93858545BE951C
:100A4000EFF00FF6C1BFB725002093F7F70F93859E
:100A50000541F5B793F7F70F9385417BCDB7B725E0
:100A6000002093F7F70F9385852ED1BFB72500207F
:100A7000130660029385853E0145ADA3B72500208E
:100A8000130660029385853E0145F5A1B725002038
:100A90001306100B9385854513050010A1A3B725F8
:100AA00000201306100B9385854513050010E1A166
:100AB000EFF20FEC372400201304843E0345D401E9
:100AC000EF90507B83A58187EF90004923AEA198DA
:100AD0000345E401EF90107A83A58187EF90C0472A
:100AE00023ACA1980345F401EF90D07883A58187CA
:100AF000EF908046144823AAA19893D78600C20796
:100B0000C183B387F7021387018CE1821CC383473B
:100B10004401A207D58FB387F7025CC3EF00100A28
:100B2000EF10A03D5C400545A207A18393C7F7FFE6
:100B300023AEF18AEF4070286FF0CFE5EFF2AFE11E
:100B4000B72900201306100BFD5513858945EFF0DA
:100B50008FE62D46FD551385417BEFF0CFE5B72499
:100B600000201306F00FFD551385842EEFF0AFE43F
:100B70002D469385417B13050030AD211306F00F00
:100B80009385842E13050040B12983C7417B1389C7
:100B9000417B858B95CB232009008547A300F90075
:100BA0002D46FD479385417B130500302322090024
:100BB000231409002305F9007D2E1306F00F9385F9
:100BC000842E13050040452ED1359389894583C76E
:100BD000090137240020130484456380071093071C
:100BE00000F82300F400E9778D072319F400854706
:100BF000A30DF4009307C0FCA30EF402956793873E
:100C000047CC231FF402B71780CC938707803CC0E2
:100C1000B7570008938747CC7CC0B7D7C44C93879D
:100C200007C83CC4F1779387C74C2316F404930795
:100C3000C0042307F404B73732FF938727133CC857
:100C4000FD57231AF4048D67BD072313F408B7B7C3
:100C500090D9938717E62324F408B7175441938754
:100C6000474D2326F408B757C77993875741232860
:100C7000F408B73736639387C73949469305640844
:100C800013058409232AF408EFF08FD1B7078BFFEF
:100C90009387B7051CD0B7070040938767195CD0CE
:100CA000B74700401CD4B707BEFFF5075CD4B707B1
:100CB0003C34B9171CD8B7373B349387B7435CD85B
:100CC000C167938707D52320F4088567938767FC5E
:100CD0002312F40823080400D933930700F82300F3
:100CE000F400E9778D072319F4008547A30DF4007C
:100CF00037240020130680049305044113050020C7
:100D0000D5249307044103C7070015C32147A380D7
:100D100007002381E700A38107002382E700A38265
:100D200007002383E700A38307002384E700B72994
:100D3000002013066002FD551385893EEFF0AFC712
:100D4000353383C7893E1384893E858BE1C71306FB
:100D5000200281451385893EEFF0EFC5372500203D
:100D60001146930500021305353FEFF0CFC4372538
:100D700000201146930500081305F53EEFF0AFC3C0
:100D8000B727002011679387A74013070704239014
:100D9000E7002391E70095472309F400230AF400B4
:100DA000930700FCA300F4008567938787802311D5
:100DB000F4000346A900930760FD13078007A3070B
:100DC000F4009947A308E400A309E4002308F40011
:100DD00001479384842E8D45FD566345C7069307CE
:100DE000F007A30EF400E17793C7F7F7231FF40091
:100DF00089472300F4029307C0FBA30AF40093077A
:100E00004003230BF4008347040093E707F8230013
:100E1000F400AD31713903473400B71700209387D0
:100E20008728A380E70203472400373500201946AE
:100E30002384E7029305740113056511EFF04FB6A3
:100E40006FF0AFB4B307B7020507A6972380D700AA
:100E5000A380D7002381D70049B7EFF26FB1A13645
:100E60000545EF4080756FF0EFB2EFF2CFAEB7F708
:100E7000FF00E98F2167AA8432893684638AE706F6
:100E8000AE89636AF700C1CB19676380E704014448
:100E900022856FF08FAF25676384E70A3D67E3988B
:100EA000E7FE93174501B7290020D1831385893EBA
:100EB0003E95EFF0EFAE9389893E19C0C1362A8482
:100EC00093F5F40F4A86CE9505A0B72700209379B5
:100ED000F50F93878745BE994E85EFF06FAC19C02B
:100EE0007D3E2A844A86CE852685EF5040214DB727
:100EF000372A00209379F50F93070A41BE994E8552
:100F0000EFF00FAA65D01306800493050A4113057C
:100F100000209520F9B71375F50F9387417B3E9517
:100F2000EFF00FA819C44A86CE8513050030A12022
:100F30002A844A86CE852685EF50601C393F89BFBA
:100F4000372A00201375F50F93078A2E3E95EFF090
:100F50002FA509C81306F00F93058A2E130500402C
:100F600019282A844A86CE852685EF5040190545E2
:100F7000EF40A06431BFEFF20F9EB7F700083304D3
:100F8000F5003307C400B7070108637BF7042E8A16
:100F90002285930500103289EF60C00C1147AA84A6
:100FA0008947631CE502B729002013060010FD5590
:100FB0001385C950EFF02FA04A86D2851385C950FA
:100FC000EFF00F9E130600109385C9502285EF6045
:100FD000001B8D476313950081473E856FF0EF9AA4
:100FE0008547E5BF37F70008AE87B305E5003387CF
:100FF000C500B7060108637CD700094599CBEFF21D
:101000002F973E85EFF0CF9901456FF0AF980545DA
:1010100082808280AA872E8563D3B7003E85828036
:10102000EFF20F954111AA8511466800EFF04F9736
:10103000324541016FF00F96AA872E8563C6B7002F
:101040003E856353F60032858280EFF26F927971AC
:10105000614681452808EFF00F96014502C602C897
:1010600002CAEF60A06C371501409307A0036C0023
:1010700013050580372401402316F10002CAEF60F2
:10108000A02113050440EF50502785473ECE3ED0A7
:10109000B7070E003ED22C089147130504402306E3
:1010A000F10202CC02D4EF50F0278545130504402D
:1010B000EF50502D854513050440EF50B02B13051C
:1010C0000440EF50502D930404402685EF50502DDE
:1010D0006DFD1305044037240140EF50F02C9304BC
:1010E00004402685EF50F02C6DFD13050440EF50B1
:1010F000D0392394A18C45616FF0CF89EFF2AF8591
:1011000079712A84AE89328981451306C00248006C
:10111000B684EFF04F8A2285EF50504F93070008B6
:101120003ECC930700103ECE930700403ED093077D
:1011300000023ED24C008D6722854EC24AC426C8AA
:101140003ED402C602CA02D6EF50505A45616FF033
:10115000CF83EFF2EF81D53D37240140B704024041
:101160009305C4441385840091461386C18C793756
:10117000130504409D4605468545EF50902513050F
:1011800004409D4609469545EF50B02413050440A0
:101190009D460D468D45EF50D0239D4611461305C3
:1011A00004409145EF50F022138584008545EF50AF
:1011B0007057854513050440EF5030206FE09FFDC8
:1011C0004167B72600209387C66013060710D0D763
:1011D0001306170013070704D8C33717020098C374
:1011E0003707020013058700E8C313050702A8C3E9
:1011F0006165E8C713050701A8C713050720A8CF35
:101200003725040088CF13050710E8CF37450400C1
:10121000C8CF1305070488D33785040090D7C8D3F7
:10122000130707083785020037260200B74502007A
:1012300088DBD8DBD0C78CC7B727002003C7873E21
:101240009387C6601375070119C1CCC790C7218B5E
:1012500001CB37170200D8C341671307070498C3AF
:101260008280EFE2FFF041118D472E8432C63EC4EA
:10127000AA8402C2014681470147C16563438706CC
:1012800019C22312F100371501404C0013050580E7
:10129000EF60800001462312010081470147B70536
:1012A0000200634D870419C22312F1003715014073
:1012B0004C00130505C0EF50307E0146231201009B
:1012C00081470147B70504006347870419C2231209
:1012D000F1004C0037150140EF50107C41016FE0E8
:1012E0007FEB93162700A696944233F5B60009C506
:1012F000D58FC207C1830546050749B79316270056
:10130000A696944233F5B60009C5D58FC207C183AE
:101310000546050779B793162700A696944233F53C
:10132000B60009C5D58FC207C1830546050769BF49
:10133000EFE21FE44111B78702005146854568007E
:101340003EC60537B707002093870706884705463E
:10135000A165EF60800137050020130680029145EA
:1013600013050500FD3D3705002041469145130555
:101370000501C53DB70700209387070237270020E6
:10138000138607041307C76094438A06BA9623A0FE
:101390000600D4438A06BA9623A0060094478A061C
:1013A000BA9623A00600D447C1078A06BA9623A09E
:1013B0000600E39BC7FC41016FE0DFDDEFE25FDB8E
:1013C000013583C7B17B91C3A537372500201306AC
:1013D0008004E1451305C56069356FE0BFDBEFE2CE
:1013E000BFD63704002013040401B70400203709D6
:1013F0000020B70A002093840402130B0401014A61
:1014000013090906938A0A00C14B0C40054681491D
:1014100093D7E500F18BCA978843C205C181EF508D
:10142000D0745145EF40C069B38759018C4393D7BD
:10143000E500F18BCA978843C205C181EF50B071B6
:10144000B38734019C4391093315F500336AAA0030
:10145000E39C79FD0C400146110493D7E500F18B24
:10146000CA978843C205C181EF5030705145EF40A3
:101470002065C104E31B64F952856FE07FD0EFE281
:10148000BFCC83C7B17B014499C3913F2A84B7196C
:101490000140B7240020138B09C09384C460014924
:1014A000370A0700B70A0200B70B0400416C9389A2
:1014B00009808C40B3F74501638B5703638D770335
:1014C000054563978701C205C1814E85EF50B0681D
:1014D00093371500B39727015D8C0509E147910407
:1014E000E319F9FC23AA818C22856FE07FC9C2052C
:1014F000C1815A85E1BFC205C18137150140F9B7E5
:10150000EFE21FC7B7070700E98F37070200AA8578
:101510006384E702370704006388E70241670545F3
:10152000639AE700C20537150140C18113050580A4
:10153000EF5070626FE01FC693150501371501402B
:10154000C181130505C0EDB793150501C18137159C
:101550000140F9BF1357E500B7070020718B93874F
:101560000706BA972E86931505018843C1816F50EF
:10157000D05F85473395A70083A7418D7D8D333597
:10158000A0008280EFE2DFBE79712A848545314573
:1015900002CA02CC02CE02D002D202D402D602C4C7
:1015A00002C623180100EF60A0276315040E8545CD
:1015B0000945EF60C0283715014061478D474C0849
:1015C000130505C03ACE37040040231AF1003ECC83
:1015D000EF50904C9307005A2C00130504403EC670
:1015E00002C4EF6020370546854513050440EF60CF
:1015F0000054C167938707060C10130504403ED0C2
:101600002313010223140102EF60403C0C10130568
:101610000440EF60A046854513050440EF60C04FCD
:10162000A14513050440EF60C053A14513050440D4
:10163000EF604054814513050440EF60A0509305CE
:10164000002D13050440EF6080549305002D130511
:101650000440EF602054EF00F00E9307D0122310E7
:10166000F1009D472301F1000A8585473EC2EF50F6
:10167000507A89679387E71E37E700E07CC3B2079B
:10168000B183B706002DD58F3CD78545130504409F
:10169000EF60C04645616FE0FFAFAA8537050040A7
:1016A000130505406F608045EFE29FACAA88328841
:1016B0003E8689472E85BA85638CF8008D476388FE
:1016C000F80063830800368842856FE0BFAC42951E
:1016D000EFF09F961318050113580841F5B7194705
:1016E0003305E502B7070020938707082E860147D8
:1016F00081463E9583152500034505009307C011DB
:1017000065B719473305E502B70700209387070837
:101710002E861307000C930600103E958315450096
:10172000034515009307001441B71387418E1443F6
:10173000B727002058430E059387C766AA9794C31E
:10174000D8C38280EFE2DFA2AA8403453500138468
:10175000418E8315040005817D8951372310A40033
:1017600003C534008315240005817D89593F83C753
:1017700034002311A40003C5240083154400858B85
:10178000920711815D8DA13F83C734002312A4000D
:1017900003C5240083156400858B920711815D8D3C
:1017A0008D372313A400014549370547A386E18EF1
:1017B0006FE05F9EEFE2DF9B834735000347250024
:1017C000B705002093F7F703135677008607D18FEC
:1017D000938505148607AE9783D707003166137784
:1017E000F7071306C62B06079386418E3297239080
:1017F000F60083570700034705002391F60083474F
:101800001500098393F7E70FBE9583D70500239250
:10181000F600834715000145858B9A07D98F860707
:101820003E96835706002393F60001370547A386AB
:10183000E18E6FE03F96EFE2BF938347350083462A
:1018400025000347050093F7F7039D82860713766B
:101850004700D58F058BAA841384418E8607630DBC
:10186000070C6301060C31671307C72BBA9783D7A0
:1018700007002313F40001454D3D03C524008315E3
:10188000040009817D89A13D2310A40003C5240023
:101890008315240009817D89AD3583C72400231178
:1018A000A40003C51400831544008D8B8E07158199
:1018B0005D8D353583C724002312A40003C51400B1
:1018C000831564008D8B8E0715815D8D1D3D23135F
:1018D000A4000545993D03C51400831504007D89C6
:1018E000FD3B2310A40003C51400831524007D894B
:1018F000093D2311A40003C50400831544000D8194
:10190000F93B2312A40003C50400831564000D8174
:10191000CD3B2313A4000945093D0D47A386E18E65
:101920006FE05F873707002013070714BA9783D744
:1019300007002312F40081B711CA31671307C72BC0
:10194000BA9783D707002311F40035B73707002073
:1019500013070714BA9783D707002310F40021BF99
:10196000EFE21F81AA84034535001384418E83155D
:10197000040005817D89A5332310A40003C534002C
:101980008315240005817D89AD3B83C73400231175
:10199000A40003C5240083154400858B92071181A0
:1019A0005D8D353B83C734002312A40003C524009A
:1019B00083156400858B920711815D8D9933231304
:1019C000A40001459D3383C7240003C5140083157B
:1019D0000400BD8B86071D815D8D113383C72400F4
:1019E0002310A40003C5140083152400BD8B8607B3
:1019F0001D815D8D39332311A40003C514008315A7
:101A0000440009817D89E1392312A40003C5140033
:101A10008315640009817D89ED312313A4000545F8
:101A200029330947A386E18E6FE0CFF6EFE24FF44A
:101A3000AA8483C73400034525003707002093F7A5
:101A4000F703935675008607D58F1307071486078B
:101A5000BA9703C7040083960700B1671376E70FB0
:101A60009387C72BB2970981058B839707007D89E0
:101A70001384418E51CF831504002312D400231305
:101A8000F400EFF0DFC52310A40003C52400831584
:101A9000240009817D89EFF0DFC62311A4000145F0
:101AA000EFF0BFC883C7240003C5140083150400EA
:101AB0008D8B8E0715815D8DEFF07FC283C724006B
:101AC0002310A40003C51400831524008D8B8E07FA
:101AD00015815D8DEFF0FFC22311A40003C5140032
:101AE000831544007D89EFF09FBF2312A40003C536
:101AF0001400831564007D89EFF0BFC02313A40098
:101B00000545EFF09FC20947A386E18E6FE08FE89D
:101B1000831544002310D4002311F400EFF03FBCE0
:101B20002312A40003C524008315640009817D8964
:101B3000EFF03FBD2313A4009DB7EFE26FE3AA844B
:101B4000034535001384418E8315040005817D898A
:101B5000EFF0FFB82310A40003C534008315240060
:101B600005817D89EFF0FFB983C734002311A400FC
:101B700003C5240083154400858B920711815D8D78
:101B8000EFF0FFB583C734002312A40003C524007F
:101B900083156400858B920711815D8DEFF07FB610
:101BA0002313A4000145EFF05FB883C7240003C5E9
:101BB000140083150400BD8B86071D815D8DEFF039
:101BC0001FB283C724002310A40003C5140083158B
:101BD0002400BD8B86071D815D8DEFF09FB2231120
:101BE000A40003C514008315440009817D89EFF02A
:101BF0001FAF2312A40003C51400831564000981DC
:101C00007D89EFF01FB02313A4000545EFF0FFB16D
:101C100083C7140003C50400831504008D8B8E0751
:101C200015815D8DEFF0BFAB83C714002310A400B6
:101C300003C50400831524008D8B8E0715815D8DEF
:101C4000EFF03FAC2311A40003C50400831544004A
:101C50007D89EFF0DFA82312A40003C504008315DB
:101C600064007D89EFF0FFA92313A4000945EFF07C
:101C7000DFAB0D47A386E18E6FE0CFD1EFE2CFCC93
:101C800003473500372400202386018EA386018E6A
:101C900019838946AE841304C466630DD70C8D4640
:101CA0006308D70E4DE38547A386F18E2312040007
:101CB0002310040003C5D18E0D468145EFF0CFB748
:101CC000316BB72B0020938CC18DA386A18E014C64
:101CD000A28A130BCB5C938B8B3E9389C18D83C7F8
:101CE000D18E6349FC0A83C7340005472386E18E01
:101CF000A386018E99838946638CD7148D466388A9
:101D0000D716639E0710A386E18E231204002310CA
:101D1000040003C5D18E0D468145EFF0EFB1B169E6
:101D2000372A0020138BC18DA386A18E814A938907
:101D3000C95C130A8A3E9384C18D83C7D18E63CC5C
:101D4000FA126FE0EFC3034715008347250083466F
:101D500005002207BD8B558FC207D98F81E7EFF0B1
:101D60007F9E89BF8D8A81E6EFF0DFA4A1B7EFF0F7
:101D70009FAC89B783471500034705008D8BA207E9
:101D8000D98F81E7EFF0DFBD35B7EFF03FCA1DB760
:101D90006D330DB703974A0083C77B000A075A9734
:101DA0001843B387E702918323A2FC0083976A005C
:101DB0008A07DA97884319C9130600143306C50247
:101DC000814637952F50A545EF60200823A0A90034
:101DD000CE850145092C03970A0083C79B000A079B
:101DE0005A971843B387E702918323A2F900839798
:101DF0002A008A07DA97884319C91306000A3306AE
:101E0000C502814637952F50A545EF60000423A0F9
:101E1000A900CE850945C12A050CA10AC9B503C789
:101E2000140083C7240083C604002207BD8B558F8E
:101E3000C207D98F89E72685EFF0DF90D9BD8D8A5B
:101E4000268581E6EFF01F97E9B5EFF0DF9ED1B56B
:101E500083C7140003C7040026858D8BA207D98F82
:101E600081E7EFF0FFAF75B5EFF05FBC5DB526859C
:101E7000EFF0BFCC79BD0317440083478A000A07FF
:101E80004E971843B387E70291832322FB00831701
:101E900064008A07CE97884319C9130600143306D5
:101EA000C502814637952F50A545EF50107A88C05E
:101EB000A68505450D2A031704008347AA000A07D3
:101EC0004E971843B387E7029183DCC08317240041
:101ED0008A07CE97884319C91306000A3306C5023C
:101EE000814637952F50A545EF50307688C0A6859E
:101EF0000D45D528850A210489B5EFE26FA7B727DC
:101F0000002083C4973E370400201306001093F787
:101F100084008DC7B1659385C53B13050414C18842
:101F2000EFE00FA891C813050414B16541469385ED
:101F3000C54B0905EFE0CFA66FE0CFA5B16593854E
:101F4000C54CE1BFEFE2CFA237260020B735002015
:101F50003735002021479306000213064668938513
:101F600045A0130505B4EF30A01937260020B7357A
:101F70000020373500202147930600021306466AE9
:101F8000938545901305C5B2EF30801737260020A2
:101F9000B73500203735002021479306000213068D
:101FA000466C93854580130585B1EF306015372663
:101FB0000020B72500203735002021479306000276
:101FC0001306466E93854570130545B0EF304013F8
:101FD00085472384F192A384F1922385F192A3850E
:101FE000F1926FE02F9BB9CDEFE28F98894763099B
:101FF000F50263E2A7021DE93735002021461305EB
:1020000005B4EF30C01319C9054705452386E19093
:10201000EF30A05A21A08D476300F5026FE08F9743
:102020003735002021461305C5B2E1BF3735002002
:102030002146130585B1F1B7373500202146130538
:1020400045B0C1B78280EFE2AF9283C7B19295CF1E
:1020500037350020930705B4D44785CA83C7870066
:10206000B7360020938646A08E07B6979443DC438C
:10207000A385019213878194130505B45CC314C32F
:10208000EF30801F0547A387E19283C7A19295CFC8
:10209000373500209307C5B2D44785CA83C7870068
:1020A000B7360020938646908E07B6979443DC435C
:1020B00023850192138701941305C5B25CC314C331
:1020C000EF30801B05472387E19283C7919295CF1C
:1020D00037350020930785B1D44785CA83C7870069
:1020E000B7360020938646808E07B6979443DC432C
:1020F000A384019213878193130585B15CC314C334
:10210000EF3080170547A386E19283C7819295CF70
:1021100037350020930745B0D44785CA83C7870069
:10212000B7260020938646708E07B6979443DC430B
:102130002384019213870193130545B05CC314C334
:10214000EF30801305472386E1926FE0AF8421C210
:102150009841E1679387076A3E9798C16374C70007
:1021600001458280B356C702835705003377C70203
:10217000B697C207C1832310F50098C105671307FE
:102180000780E37FF7FC93F7F77F2310F500054501
:102190008280EFD2FFFDB727002083C7873E2A87C2
:1021A000368493F707042E855443B28595C385473B
:1021B00081CE1043693F814701C983A7018F818F79
:1021C00093B7A70F93C7170013F5F70F6FD09FFCB6
:1021D00099EA03A5018F018D1335A50F134515004D
:1021E0001375F50FE5B710439D3765F5D5BF370576
:1021F0000040397185451305054022DE26DC4ADAA8
:102200004ED852D656D45AD25ED062CE66CC6ACA66
:102210006EC8EF5050198547631DF52483A7018FC1
:10222000138D170023A8A18F372700200347973E5F
:10223000938481953704002013770702138C8196CD
:102240009389019613890195130404246302072CD2
:1022500083A601901386C19193856192138581961F
:1022600036C6053F01CD83C5F19203C6E18EB24665
:1022700063800522136616002387C18E83A6C18F53
:1022800013868191938541921385019636C6113745
:1022900001CD83C5E19203C6E18EB246638A052073
:1022A000136626002387C18E83A6818F13864191F2
:1022B000938521921385819536C6E13D01CD83C575
:1022C000D19203C6E18EB2466384052013664600B0
:1022D0002387C18E83A6418F138601919385019236
:1022E0001385019536C6EFF0DFEA01CD83C5C192B3
:1022F00003C6E18EB246638D051E136686002387F2
:10230000C18E83C6E18E13F6160005C6A38701921F
:10231000138681940C4250422320BC002322CC001F
:1023200085452393019223AE0190A385B19223A00A
:10233000A19113F6260005C6238701921386019406
:102340000C42504223A0B90023A2C90023AC019043
:102350008545239201922385B19223AEA18F13F676
:10236000460015C2A3860192138681930C42504207
:102370008CC0D0C023AA0190854523910192A384EB
:10238000B19223ACA18FA18A85C623860192938640
:1023900001939042D4422320C9002322D90005464C
:1023A0002390019223A801902384C19223AAA18F94
:1023B00083A6018183D7619203274C0003A64900BD
:1023C0008607A297839707002387018EB387E702CA
:1023D00003D7419206072297031707003307C70266
:1023E000BA97A987B387D702C5879387072D23A4F8
:1023F000F19083D72192D8408607A2978397070050
:10240000B387E70203D70192060722970317070055
:1024100003264900B71900203307C70237190020E7
:1024200003A609338325C93237040040130404404E
:10243000BA97A987B387D702C5879387072D23A2A9
:10244000F19003A58190EFE03FBF42054181231E3B
:10245000A4028325C93203A6093303A54190EFE006
:10246000BFBD420541812310A40485452285EF505C
:1024700040757254E2545259C259325AA25A125BF0
:10248000825B724CE24C524DC24D21617300203090
:102490003166B306DD401306F634E371D6DE83C63B
:1024A000418123220C0093E61600238AD180F9B3E0
:1024B0003166B306DD401306F634E377D6DE83C615
:1024C000418123A2090093E62600238AD180E9BB3B
:1024D0003166B306DD401306F634E37DD6DE83C6EF
:1024E000418123A2040093E64600238AD180DDB314
:1024F0003166B306DD401306F634E374D6E083C6D6
:1025000041812322090093E68600238AD180D5BB2E
:1025100003C7F1920DCBA3870192938681949842D1
:10252000D4422320EC002322DC00A385A1929387D0
:10253000819491C209EB23AE019023930192232051
:102540000C0023A2070003C7E19215C7238701925D
:10255000938701949843DC43054623A0E90023A216
:10256000F9002385C19291C319E723AC019023920E
:10257000019223A0090003C7D19215C7A386019237
:10258000938781939843DC43054698C0DCC0A384BD
:10259000C19291C309EB23AA01902391019223A038
:1025A000040023A2040003C7C19215C72386019229
:1025B000938701939843DC4305462320E9002322B7
:1025C000F9002384C19291C319E723A801902390B5
:1025D00001922320090003260C009385C1911385E5
:1025E0006192EFF0DFB603A6090093858191138510
:1025F0004192EFF0DFB59040938541911385219290
:10260000EFF0FFB403260900938501911385019231
:10261000EFF0FFB383A6018183D7619203274C00BB
:1026200003A649008607A29783970700B387E702AE
:1026300003D7419206072297031707003307C70203
:10264000BA97A987B387D702C5879387072D23A495
:10265000F19083D72192D8408607A29783970700ED
:10266000B387E70203D7019206073A9403170400E1
:1026700045B3EFD2FFAFAA8537650040130505804B
:10268000EF401075133515006FD0DFB0EFD25FAE9D
:10269000AA853765004013050580EF40D07113759A
:1026A000F50F6FD03FAF376700408357478113075F
:1026B0000780A183A388F19683574701C207C1838E
:1026C00093F707F0C207C183231AF7007300203085
:1026D000EFD27FA837650040411181451305058081
:1026E000EF40506037140140930700400D49D14935
:1026F0004C00130504C03EC24AC44EC68564EF4078
:10270000B039938404804C00130504C04EC64AC4FB
:1027100023129100EF40503893050040130504C088
:10272000EF407044A685130504C0EF409043054573
:10273000EF30003993050040130504C0EF407042AC
:102740000545EF30E037A685130504C0EF40B041E2
:102750000545EF30E036A949130A04C00569930521
:1027600000405285EF403040A6855285EF40703FD3
:102770000545EF30E034930500405285EF40703E50
:102780000545FD19EF30C033E39B09FC130504C078
:1027900093050040EF40303D93050980130504C0C8
:1027A000EF40703C0545EF30A03193050040130524
:1027B00004C0EF40103B0545EF30803093050980A1
:1027C000130504C0EF40F0390545EF30602F914705
:1027D0004C00130504C03EC6EF40102C9305098041
:1027E000130504C0EF40303741016FD01F9AEFD27C
:1027F0003F9837640040814513050480A389019602
:10280000EF40504E13050480EF409039EFF05FEC3D
:1028100083C711975D8D1375F50F01C937350C000E
:1028200001468145130505502920EF3060226FD005
:102830007F96EFD25F920111AE842A8985452545A6
:10284000328402C202C402C602C802CA02CC02CE4C
:10285000EF40107D854537054000EF40507E371A28
:10286000014093090040714B8D4A4C0013050AC08A
:10287000231231015AC656C4EF4010228567938750
:1028800007804C0013050AC02312F1005AC656C433
:10289000EF409020B7070040231C9100B764004030
:1028A0003ECA0C08916713850480231EF1004AC8B4
:1028B000231D3101EF40F031854513850480EF4041
:1028C000704209651306800CB705020013052567E1
:1028D000EF30401B09C909C8854513850480EF40C6
:1028E000D049EFF0DFF00544A389819605616FD0F0
:1028F000DF8983C73197638C0712EFD2DF85376496
:102900000040AA8A2E8A130504808545EF401043B3
:1029100009651306800CB705020013052567EF3023
:10292000601683C711971375F50FC98F91C70547B7
:102930002389E1966FD07F85854513050480EF409C
:10294000303CB709030009691306800C9385190010
:102950001305C968EF30001383C711971375F50F7E
:10296000C98F99C30947E9B701469305400D13057F
:102970000480EF40903F370B07001306800C93054F
:102980002B081305C968EF30E00F83C71197137543
:10299000F50FC98F99C30D4761BFD6851305048014
:1029A000EF40B03B1306800C93054B081305C96834
:1029B000EF30400D83C711971375F50FC98F99C379
:1029C0001147BDB7D28513050480EF4030378545E8
:1029D00013050480EF40D0321306800C9385190054
:1029E0001305C968EF30000A83C711971375F50FF7
:1029F000C98F99C315472DBF05469305400D130593
:102A00000480EF4090361306800C9385290013054F
:102A1000C968EF3020079377F50F03C511975D8DD7
:102A2000E30A05F099462389D1963E8521B70545ED
:102A30008280EFD24FF22E891375F50F8145EFF0AA
:102A40005FEB83C711972388A1965D8D1DE5B705C0
:102A5000030009651306800C938505041305C568FA
:102A6000EF30400283C711971375F50F2388A196A5
:102A70005D8D19C525472389E196EFF05FD725A025
:102A8000B769004013850980EF40902D2300A9000D
:102A9000854513850980EF40902883C7019703C7B8
:102AA0001197D98FF9FB03C50197B7270020238D14
:102AB000A7406FD08FEDEFD22FE985476316F60060
:102AC000EFF03FF76FD0CFEB2E8985453284EFF0E2
:102AD0005FE2AA8435E17D14370A0300856AB7698D
:102AE00000401374F40F130A0A04896B938A0A8056
:102AF000938909809307F00F6303F4021306800C97
:102B0000D2851385CB68EF20F07783C711971375B3
:102B1000F50FC98F95C71D472389E196AA843765AC
:102B20000040130505808545EF40701F83C711974E
:102B3000C58F13F5F70F59D5EFF07FCB268559B721
:102B400085476316F400D6854E85EF4070244E8588
:102B5000EF4010217D142300A9001374F40F050920
:102B600051BF83C7319791E38280EFD2CFDEAA8A2B
:102B700009654111AE891306800CB70502001305E3
:102B80002567EF20307083C711971375F50FC98F34
:102B90008DC329472389E19683C71197C98F93F77E
:102BA000F70F89C72AC6EFF09FC4324541016FD0A5
:102BB000CFDD37690040854513050980EF4050148B
:102BC000B7050300096A1306800C85051305CA685A
:102BD000EF20506B83C711971375F50FC98F99C3F9
:102BE0002D474DBF01469305400D13050980EF4069
:102BF000D017370B07001306800C93052B0813051D
:102C0000CA68EF20306883C711971375F50FC98F15
:102C100099C3314741B7D68513050980EF40F013BA
:102C20001306800C93054B081305CA68EF209065C6
:102C300083C711971375F50FC98F99C3354799BF8E
:102C4000CE8513050980EF4050111306800C9305C3
:102C50004B081305CA68EF20F06283C711971375FC
:102C6000F50FC98F99C3394735B7130509808545D5
:102C7000EF40F00A01450DB737350C000546814598
:102C8000130505506FF0FFBAEFD28FCE41112E849D
:102C90009305F1002A89B284EFF0BFD909ED83478B
:102CA000F10093C4F4FF4A85E58FB365F400A307F0
:102CB000B100EFF01FEB41016FD0CFCDEFD24FCB82
:102CC00041119305F1003D45A3070100EFF07FD6C8
:102CD00011E98347F1008546938777F993F7F70F5A
:102CE00063FBF60483A78198850723A4F19803C7A3
:102CF000419809C70D4541016FD0CFC92547637B76
:102D0000F700854705452382F198EF20100B83C714
:102D10004198EDF39305F1007945EFF09FD11DC582
:102D200083A70199850723A8F19883A7C1988507F0
:102D300023A6F198C9B783C7419823A4019881C7F6
:102D40000545EF20900723820198E9B78347F100FA
:102D50000D4709458D8BE390E7FA83A70199B735B5
:102D6000002031468507938585BA1305200223A8E4
:102D7000F198EFF05FD441D183A7C198054585074D
:102D800023A6F1988DBFEFD2AFBE19441306F00F02
:102D900085454945EFF05FEF09C57D141374F40FC5
:102DA00075F42945EF20D05319441306F00F93050D
:102DB00000084D45EFF05FED09C57D141374F40F65
:102DC0006DF419441306F00F9305E0084145EFF048
:102DD000BFEB09C57D141374F40F6DF41944130689
:102DE000F00F9305C0054545EFF01FEA09C57D14B6
:102DF0001374F40F6DF419441306F00F9305400497
:102E00004945EFF07FE809C57D141374F40F6DF4A4
:102E100013351500A380A19A6FD0CFB7EFD24FB56D
:102E20001306000F81454145A380019AEFF0DFE5CD
:102E30001306000F81454545EFF01FE56FD08FB5B4
:102E40008280EFD2EFAF83C7C19713074002373AB2
:102E50000020B387E7023724002013074AB5411149
:102E600093064AB536C6BA970307843E23ACF1965B
:102E7000635D07001306400281453E85EFD0AFB386
:102E8000EF30D02941016FD06FAF83C73197FDDBA1
:102E900083C7019AE5DB83C7219A1304843E81E747
:102EA0008D472381F19AEF20B03A8347040103A7AD
:102EB00001988346F400A2073307E540D58F2A8C9A
:102EC000E362F7FCEFF09FDF55FDB73C0020138D68
:102ED0004CBB37370020130787BA13068D01938741
:102EE0004CBB13844CBB9443831507000907AE9673
:102EF00094C39107E399C7FE03C9D19703A74197EC
:102F000005091379F90F8567A38E219723A081996D
:102F10003307EC4093877738E3F6E7F60840373A13
:102F200000209304CAB9EF70F03483A5C199EF7003
:102F30002044EF70302E08C04840EF70B03383A5B6
:102F40008199EF70E042EF70F02C48C00844EF70B8
:102F5000703283A54199EF70A041EF70B02B5844B7
:102F600093070006130640063387E70208C4334779
:102F7000C70258C418483387E7023347C70218C846
:102F80005848B387E7021307CAB9B3C7C702138605
:102F9000C4005CC881476308090083270D00B3C7DC
:102FA0002703C207C1872310F7000907110DE31398
:102FB000C7FE6146814513854CBBA38E0196EFD0B9
:102FC0008F9F03A48197194623AA81971309C400F0
:102FD000CA852285EFD0CF9C130C84011946E28567
:102FE0004A85EFD0EF9B373900201946930529BA5F
:102FF0006285EFD0EF9A83C7019A0547639EE70881
:1030000099676977130929BA9387871A130787E5A0
:103010008396040063DDD7062390F4008904E399C6
:1030200024FF930424011946A68513056400EFD0FC
:103030002F9779041946A2852685EFD06F961946F9
:103040009305CAB92285EFD0AF9583C7219AFD17A2
:1030500093F7F70F2381F19AE39607E203A581978F
:10306000EF30D00B03C5C19793074002130640020F
:1030700013351500238EA1963305F502B24781451D
:103080003E95EFD04F938D472381F19AE5BBE3D76F
:10309000E6F82390E40059B70947E398E7FA228558
:1030A000EF00206E5DB7EFD20F8B832A0500032A55
:1030B00045002A84832985000329C500D6855685C5
:1030C000EF70002BAA84D2855285EF70602AAA8502
:1030D0002685EF60F031AA84CE854E85EF704029B9
:1030E000AA852685EF60D030AA84CA854A85EF700C
:1030F0002028AA852685EF60B02FEF40503FAA8593
:1031000003A5C187EF605065AA84AA855685EF7034
:10311000202608C0A6855285EF70802548C0A68568
:103120004E85EF70E02408C4A6854A85EF704024E0
:1031300048C46FD08F85EFD22F81832BC500C44543
:10314000832A050083A90500032A450003AB450037
:103150000329850003AC85002A84A6855E85EF706F
:103160002021AA8CCE855685EF708020AA856685A1
:10317000EF70C04DAA8CDA855285EF70601FAA856A
:103180006685EF70A04CAA8CE2854A85EF70401EE0
:10319000AA856685EF70804B48C4CE855E85EF704A
:1031A000201DAA8CD6852685EF70801CAA85668591
:1031B000EF601024AA8CE2855285EF70601BAA850F
:1031C0006685EF60F022AA8CCA855A85EF70401A96
:1031D000AA856685EF70804708C0DA855E85EF7046
:1031E0002019AA8CE2855685EF708018AA8566851D
:1031F000EF70C045AA8CD2852685EF706017AA852E
:103200006685EF60F01EAA8CCA854E85EF70401669
:10321000AA856685EF60D01D48C0E2855E85EF70A7
:103220002015AA8BDA855685EF708014AA855E85F5
:10323000EF60101CAA8AD2854E85EF706013AA85B4
:103240005685EF70A040AA89CA852685EF70401286
:10325000AA854E85EF60D01908C46FC07FF2EFC217
:103260003FEE2A8403A5819A7971AE843305A64086
:10327000328AEF60F010AA8903C5140083C70400E6
:103280002E8922055D8D4205418523A4419BEF6077
:1032900030084E86CA86EF50B03F03A6018483A64D
:1032A0004184EF50F03E2A8D03C5340083C72400CB
:1032B000AE8C22055D8D42054185EF6070054E861E
:1032C000CA86EF50F03C03A6018483A64184EF50E8
:1032D000303C2A8C03C5540083C74400AE8B2205C2
:1032E0005D8D42054185EF60B0024E86CA86EF5083
:1032F000303A03A6018483A64184EF5070392A8AAC
:10330000AE896A86E6866A85E685EF5070382A8936
:10331000AE846286DE866285DE85EF5070372A864F
:10332000AE864A85A685EF40506D2A89AE845286C6
:10333000CE865285CE85EF50B0352A86AE864A8538
:10334000A685EF40906B2A86AE862A89AE84EF5020
:10335000303403A6818483A6C184AE8D2AC6EF5083
:10336000405803A6018583A641852A8BAE8A4A85EB
:10337000A685EF5000572A86AE865A85D685EF601F
:10338000C00503A6818583A6C185EF4010672A8BFF
:10339000AE8A2A86AE866A85E685EF50702FEF707A
:1033A000F0175A86D6862ACADE856285EF50502EDF
:1033B000EF70D0165A86D6862ACCCE855285EF502D
:1033C000302DEF70B015B24703A6018683A6418663
:1033D0002ACEEE853E85EF50C05003A6818683A697
:1033E000C1862A8AAE894A85A685EF50702A2A8628
:1033F000AE865285CE85EF50507E03A6018783A608
:103400004187B7140020EF40505FEF7030114C0837
:103410002AD013850424EFF01FD213850424EFF083
:103420009FC8834714000347040093840424A20721
:10343000D98F2398F4008347340003472400A20760
:10344000D98F2399F4008347540003474400A2070F
:10345000D98F239AF40045616FC05FD2EFC2DFCEEF
:1034600083C76500373900204111F19B93E727009E
:103470002383F50003C7219A8D47AA842E8413095C
:10348000C9BC6312F702EF20205E23A2A19A232079
:1034900009002322090023240900232609002318F8
:1034A0000900A381019A03C5319A99471946130A65
:1034B00015003305F502137AFA0FA381419BB73942
:1034C00000209385C9B94A95EFC09FCD8D47631BF6
:1034D000FA2683476400370B0080854ACD9B23037F
:1034E000F4007D1B914B034A640093972A00A69732
:1034F00088439377CA00A6978C4333756501B3F56B
:103500006501EF601054635BA00093F73A008A07EF
:10351000137A3AFF336AFA0023034401850AE394DD
:103520007AFD034A640093050000135A2A00137AB7
:103530003A0093172A00A6978843EF60F059635F1B
:10354000052203AB018883AB4188130C4100814AFB
:10355000050A8D4CB3075A018D8B8A07A6978843BD
:10356000DE85850AEF60D060DA85EF607060EF700D
:10357000604A2320AC00110CE39E9AFD834714029D
:1035800003476400A30A040093F707F8A300F402BA
:1035900092473D8B230B0400A58793F6F700920614
:1035A000558F2303E40013D74700A303E40013D788
:1035B000C7002304E4002247D183858B25879376B7
:1035C000F7078606D58FA304F400935777002305E9
:1035D000F400B2473D831377F70393D697409A06DA
:1035E000558FAD87A305E400A30B0400A30F0400CF
:1035F0002300040213D787002309F400C183A30921
:10360000E4009D8B03A7419A230AF4008347140228
:10361000058B1E0793F7F707D98FA300F40283A742
:10362000419A230F04009389C9B985832301F402C9
:1036300003A7419A8347340225830D8BF19BD98FD1
:10364000A301F402EF20404283A7419A1D8D8347D6
:1036500034020A058D8BC98FA301F4020397090078
:103660000318090083474401B306074113F6860F88
:103670009D8BD18FA182230AF400A30AD400039664
:1036800029008318290083467401B30716418D87EA
:10369000230BF400A183819AFD8BD58FA30BF4003B
:1036A000839649000315490083457401B387A640FA
:1036B00013D337401603FD89B3E56500A30BB400AF
:1036C00003136900998793D58700230FF400B3078C
:1036D00007019A977558B3C7070313F735009A97F0
:1036E000A58713F3F7030A0333676700A30FE4000A
:1036F000034704029983858B799BD98F2300F402B9
:1037000003178900B3071601BA97B3C70703BA971F
:1037100003470402A5878607058BD98F2300F4028F
:103720000317A900B387A600BA97B3C70703BA97D0
:1037300003471402A58793F7F707137707F8D98F84
:10374000A300F40283C704012300F40083C714011B
:10375000A300F40083C724012301F40083D72401CC
:10376000A183A301F40083C744012302F40083C7AB
:103770005401A302F40041016FC09FA003ABC187B5
:10378000D9B3EFC2FF9E2A84EF20802C2A86B7355A
:103790000020373500209385C5B9130525BAEFF011
:1037A0001FAC37150020A28513050524EFF01FCBB1
:1037B0006FC05F9EEFC2DF9BEFD07FCC83C7819D40
:1037C00091C3014523ACA18C6FC0DF9C31C9EFC20E
:1037D0003F9A2A84EFF01FFE03C7818D2300E40087
:1037E00003C7918D83C7A18DA300E4002301F400DA
:1037F00083A7419DA301F40013D78700C183A302CF
:10380000F40083A7019D2302E4002303F40013D7EF
:103810008700C183A303E4002304F4006FC09F97D3
:103820008280EFC27F92372400209307843E03C733
:1038300017008946328A19831304843E93171600B1
:103840006305D71C8D46630BD71E85466318D702C8
:103850009356F54133C7A600158FB306F40003C68F
:103860002602635DC70013D6F54183C6360233478F
:10387000B600118F6354D70081450145A297838913
:10388000B7000389C70083476401B389A9020347CE
:103890005401A207D98F3309B90293D9594013595A
:1038A0005940BDCFB307290313172A002382019C77
:1038B000B3843903BE949387018CBA979C4363E524
:1038C000F40085472382F19CEF20801811E1054523
:1038D000E147B307FA0237370020930607BF930585
:1038E00007BFBE969C4289CF3307F54083476401EA
:1038F00003465401A207D18F6369F71823A006007D
:1039000083C7419C91CFE147B307FA023387F500A3
:1039100004CBFD84232237012324270144CB08C391
:10392000856793840780FD1723ACF19A23AAF19A47
:103930008347140023A0019C23AE019A918BA69982
:103940002699D5C3A547B307FA02372600201306E8
:1039500086453E96834746040347360413F5F70031
:103960002205598D23AEA19A0347E6038346D60369
:103970009375F700A205D58D23AAB19A93D6470077
:103980008347560411839207D58F23A0F19C834768
:10399000F6039207D98F23ACF19AEFD0AFE783A556
:1039A000819B23AEA19A23AAA19A03A5019CEFD0E3
:1039B0006FE603A6419B83A5C19B23A0A19C23ACDA
:1039C000A19A2696B385B4404E85EFD0EFE603A6C4
:1039D000819B83A5019CAA8926964A85B385B4401C
:1039E000EFD08FE52A8985641386F4FF81454E85E3
:1039F000EFD08FE42A841386F4FF81454A85EFD007
:103A0000AFE3320522956FC0AFF79356F54133C748
:103A1000A600158FB306F40083C626026353D700B1
:103A2000014593D6F54133C7B600158FB306F400B0
:103A300083C63602E354D7E4814589B53307F400E1
:103A40001356F54103472702B346A600918E63CC77
:103A5000E602FD566343A00085463307D7023A9538
:103A60003307F40013D6F54103473702B346B600D7
:103A7000918EE3C3E6FCFD566343B00085463307F1
:103A8000D702BA95E5BB0145E1BFD8429C463387D2
:103A9000E902B307F9023E97E35407E6904AD44A95
:103AA00093D7F441B307F602B38696023308960221
:103AB000B69733369602B2970D46B307F602B306B1
:103AC0000603333606038D82B2971396D701D18E43
:103AD0003306E7028D873317E702E363F7E2639467
:103AE000E700E36FD6E02382019C0149814909BDCB
:103AF000EFC20FE89387C18C03D7470003D50700B7
:103B000083D52700B734002083D7670037240020EF
:103B100013040441938404C298C403474400DCC4E2
:103B2000834734002207834614005D8F83472400B7
:103B300088C0CCC0A207D58F998D01461D8DEFF0AE
:103B40005FCE0347840023AAA19C83477400220709
:103B5000834654005D8F83476400CC448844A207A9
:103B6000D58F0546998D1D8DEFF0BFCB23A8A19C65
:103B70006FC04FE2EFC22FDE83C7819DA389019AF8
:103B80002389019A6389071C0D45EFD09F9E83C747
:103B9000819D6382071C2145EFD0BF9D630D051AEF
:103BA00083C7119B8DC7372700201307873E8347A4
:103BB000070093C6070893F6060893F7F707D58F13
:103BC0002300F7008547A389F19A2389F19A814759
:103BD000A388F19A83C7819D638107182545EFD09B
:103BE0005F99630C051683C7019B9DCBB727002007
:103BF0009387873E03C507001347F5FF1377070236
:103C00001375F5FD598D2380A70015811345150007
:103C10000589EFD09FA88547A389F19A2389F19A56
:103C200081472388F19A83C7819D638A07123545AE
:103C3000EFD03F946305051283C7F19A9DC33727E0
:103C400000201307873E8347070093C6F7FF898A42
:103C5000F59BD58F2300F7008547A389F19A238927
:103C6000F19A8147A387F19A83C7819D638B070EE1
:103C70002945EFD01F906306050E83C7E19A85CFD3
:103C800037350020835705BE797713070708F98F6A
:103C900093E707602310F5BE83C7919E130705BE07
:103CA000130505BE93B71700A301F700EF202034DA
:103CB00085472389F19A81472387F19A83C7819D9C
:103CC000DDC32D45EFD0FF8A59CD83C7D19AA1C35B
:103CD000B72500209387853E1385A7FF9385853EF2
:103CE0009306F00F03C7C70113061700238EC70002
:103CF0006315D700FD17E397A7FE37350020194657
:103D0000DD0513056511EFC0AFC9EFC03FD781478F
:103D1000A386F19A83C7819DA9CBB737002083C7BB
:103D20005711A1E73145EFD0DF8421C183C7C19A84
:103D300081C70545EF20004A2386019A83C7219B4E
:103D400081C70545EF10700783C7319B99C3EFC04A
:103D5000FFD26FC08FC38547A5BD8547D9B58547BD
:103D600011B7854791BF854765B701452386019AFD
:103D7000EF204046E1B7EFC2AFBF370502001105A3
:103D8000EFD00FF815E983A7C19C95C3EF10D04D74
:103D900083A7C19C1D8D9307400663F8A7000547C4
:103DA0000545238CE19CEF10D01F6FC0AFBEEF1014
:103DB000B04B23A6A19CD5BF83C7819DFDD70145EC
:103DC000EF10301E238C019C23A6019CF9BFEFC28B
:103DD0002FBA83A7419E850723A2F19E81E705475D
:103DE00023ACE180EF10504883A7819C6300F5026B
:103DF000EF10904783A7818183A6819C958FAA9716
:103E000023ACF180EF10504623A4A19CEFF0BFF645
:103E1000EFE06FA3EFF0EF82EFF0DFD5B7370020D0
:103E200003C55711EF103019EF20B0066FC08FB6E1
:103E3000EFC20FB42A84AA8513050020EF30501E6C
:103E4000A2850545EF30F01BA2850545EF30301FF8
:103E5000A2850945EF30B01EA2850565EF30501CE4
:103E6000A2851165EF30D01BB7040240A2851385EF
:103E70004404EF30200BA28513858405EF30800ABF
:103E8000A28513858400EF30E009A2853705004044
:103E9000EF30D04637050040A28513050540EF30CE
:103EA000F045B7440140A28513850480EF30B05C33
:103EB00022869305000413850480EF30505D6FC0A7
:103EC0006FADEFC2EFAA371702401C43B7060800D8
:103ED0000111D58F1CC30545EF30700671651305C0
:103EE0000520EF30D05D37350020130650028145A4
:103EF00013050511EFC02FAC35651305C5ACEF7088
:103F0000601485457145EF30B011854513050020DB
:103F1000EF30101185450545EF30B00E854505455C
:103F2000EF30F01185450945EF3070118545056585
:103F3000EF30100F85451165EF30900EEF103033E4
:103F4000EF10F02F2945EF10B039EF202071EFC0AE
:103F5000FFBE6800EF30E07FEFD04FC6EF10D049D2
:103F6000EF10B03EEFD0EF9EEF20E032EF10E00C0C
:103F7000EF10E065EFE05FD0EFE09FECEFE0BFE037
:103F8000EFC01FB3EFC0EFA6EF30A072AA850545C2
:103F9000EFC0BF9505616FC0EF9FEFC2CF9B054596
:103FA000EF302066EF101019EFF0BFF183A54182CA
:103FB0003565130505AEEF6070743145EFD04FD411
:103FC0002384A19EEF0010770D651305C57CEF20BB
:103FD000D007EF203015014537440020B7340020CA
:103FE000EFD04FDA1304842093840411054BEF10B3
:103FF000506CEFF0FFAFEFF0EFFB83A7818D13D78D
:1040000087002300F400C1832301F40083A7419DAE
:10401000A300E400A301F40013D78700C183A30227
:10402000F40083A7019D2302E4002303F40013D7C7
:104030008700C1832304F40083C7A18AA303E4009B
:1040400091CF23826401EF20901DEF20900EEF208E
:10405000C079EF10D04CEFF09FD751BFA38204007E
:1040600023820400EDB782808345D5000345B50067
:104070001306F00F6FE05FC1828082808280B737C5
:104080000020938707C323A607022394070223A2D5
:1040900007028280EFC2CF8D37340020AA84EFF070
:1040A0001FFE130904C389679387071A13062002AA
:1040B0009385B400130529002318F4C2EFC04F8E76
:1040C00093074002130504C32314F902EF00306B79
:1040D0006FC04F8CEFC2CF892A84EFF05FFA03479D
:1040E000A40037350020930705C3930600F8A3808A
:1040F000E700130505C30D472380D7002381E700A0
:104100002394E702EF00B0676FC0CF88EFC2AF849F
:10411000AA84EFF0DFF603C7A40083C9B400373ADE
:10412000002093070AC3930610F82380D700A380CA
:10413000E70023813701854713090AC3638EF9001D
:104140008947638AF9048D4713050AC32314F902CA
:10415000EF00F0626FC06F83373400201304041146
:1041600019469385C4001305C400EFC06F83194638
:104170009305640013053900A3093401EFC04F8291
:10418000B16561469385852413059900EFC04F8181
:104190009307100255BFB73500204146938545125D
:1041A00013053900EFB0DFFFCD4779BFEFB25FFCF9
:1041B0002A84EFF0DFECB727002083C78740ADCF1C
:1041C0000547638FE7060D4793079004B715002056
:1041D0009386C5262380E6000347A40037340020D9
:1041E000A380F600930704C3930620F82380D7002A
:1041F000A380E700B7370020938707111387C526F0
:104200009386A7FF930404C303C6B700FD170507F1
:10421000A301C700E39AD7FE31469385C5261385CF
:104220002400EFB0FFF7B947130504C32394F40249
:10423000EF00F0546FB01FF60D479307800479B775
:1042400011479307300359B7EFB29FF22A84EFF07A
:104250001FE30347B4008D46930707FD93F7F70F5D
:1042600063E4F600A38AE1800347A4003735002009
:10427000930705C3930600F8A380E700130505C361
:1042800009472380D7002394E702EF00504F6FB017
:104290007FF0EFB2FFED2A84EFF07FDE8347A400CA
:1042A000B7340020138404C3B7150020130730F877
:1042B00039469385C525130524002300E400A30097
:1042C000F400EFB0FFEDC147138504C32314F402DB
:1042D000EF00F04A6FB01FECEFB29FE92A84EFF0D5
:1042E0001FDA0347A40037350020930705C3A380D6
:1042F000E7000547930600F82381E700130505C38F
:104300000D472380D7002394E702EF0050476FB09A
:104310007FE8EFB2FFE52A84EFF07FD60347A400E1
:1043200037350020930705C3930600F8A380E70004
:10433000130505C30D472380D7002381070023946D
:10434000E702EF00D0436FB0FFE46FF09FFC6FF027
:104350005FFC6FF01FFCEFB21FE04111AA84EFF089
:104360001FD29385B4002E852EC6EFC07FCB83C7A6
:10437000F4007547B2452A8975446364F70013F465
:10438000F70F83C7A400B739002037350020130783
:1043900000F9938409C31546130525C32380E4005F
:1043A000A380F400EFB0DFDFB735002022869385CD
:1043B00075C34A85EFC0CFE31D041374F40F138552
:1043C00009C323948402EF00903B41016FB0FFDBEF
:1043D000EFB21FDA41112A84EFF07FCA1305B4004F
:1043E000EFC01FC40346F400930504018546AA8468
:1043F00032C62EC4EFC07FA73246A2452685EF10F5
:1044000010500347A40037350020930705C39306D7
:1044100000F8A380E700130505C30D472380D700EC
:10442000238107002394E702EF00703541016FB04C
:104430007FD6EFB2FFD32A84EFF07FC40347A400F6
:1044400037350020930705C3930600F8A380E700E3
:10445000130505C309472380D7002394E702EF0023
:1044600010326FB03FD36FF0DFFC6FF09FFCEFB204
:104470003FD02A84EFF0BFC00347A40037350020A7
:10448000930705C3930600F8A380E700130505C34F
:10449000130740022380D7002394E702EF00302E59
:1044A0006FB05FCFEFB2DFCC2A84EFF05FBD034780
:1044B000A40037350020930705C3A380E700130548
:1044C00005C30947238007002394E702EF00302B40
:1044D0006FB05FCCEFB2DFC92A84EFF05FBA034759
:1044E000A40037350020930705C3930600F8A38086
:1044F000E700130505C359472380D7002394E7023B
:10450000EF00F0276FB01FC9EFB29FC62A84EFF00B
:104510001FB70345B400A380A19EEF10C027034737
:10452000A40037350020930705C3930600F8A38045
:10453000E700130505C309472380D7002394E7024A
:10454000EF00F023B73700200547A38AE7106FB0CC
:104550007FC4EFB2FFC12A84EFF07FB20347A4000B
:1045600037350020930705C3A380E70003C7119EDA
:10457000930600FB130505C32381E7000D47238045
:10458000D7002394E702EF00901F6FB0BFC0EFB2D7
:104590003FBE2A84EFF0BFAE8347B400373500201A
:1045A000238EF19C2380F19A0347A400930705C34F
:1045B000930600F8A380E700130505C3094723808D
:1045C000D7002394E702EF00901B6FB0BFBCEFB29F
:1045D0003FBAB73400202A84EFF07FAA938704C340
:1045E000130700142391E70003C7C19D138904C377
:1045F0009387C19D01E705472380E7001146930596
:10460000B40013851700EFB0BFB98347A4001307A8
:1046100000F8138504C3A300F90089472300E900CB
:104620002314F902EF00B0156FB0DFB6EFB25FB43C
:10463000AA84EFF0DFA403C7C4009306000203C5F9
:10464000B4009307000263E3E600BA8703C7A4003F
:1046500013F4F70F37390020B7350020930409C34E
:10466000930600FC2286938545C32380D400A38053
:10467000E400A381F4002381A4001104EFE0AFC3A0
:104680001374F40F130509C323948402EF00300F51
:104690006FB05FB0EFB2DFAD2A84EFF05F9E0347EB
:1046A000B400B7170020373500202384E7320347D2
:1046B000A400930705C3930600F8A380E700130541
:1046C00005C309472380D7002394E702EF00300B8E
:1046D0006FB05FACEFB2DFA92A84EFF05F9A0347B7
:1046E000A40037350020930705C3A380E700130714
:1046F0008061930600FD2391E700130505C3114770
:104700002380D7002394E702EF0070076FB09FA8C3
:10471000EFB21FA62A84EFF09F960347A400373517
:104720000020930705C3A380E7005147930610FDBF
:104730002381E700130505C30D472380D700239489
:10474000E702EF00D0036FB0FFA4B7370020116776
:10475000938707C61307470D98C311671307C71040
:10476000D8C311671307C71A98C71167130787249F
:10477000D8C711671307272998CB11671307872D0F
:10478000D8CB11671307670698CF11671307C707C0
:10479000D8CF11671307273198D3116713076735EF
:1047A000B8C311671307073DF8C311671307A73490
:1047B0009166B8C7938686071387070814C3916666
:1047C0009386460954C391669386264314C791661F
:1047D0009386E63414CB91669386263554CB916646
:1047E0009386664614D391669386E64654D39166C3
:1047F0009386464A14D791669386464D54D7916660
:104800009386865034C391669386265574C3916609
:104810009386A60734D31167938707101307E758C9
:1048200098C311671307E75CD8C31167130787069E
:1048300098C711671307C762D8C71167130747697D
:1048400098D311671307476DB8C311671307A746BD
:10485000F8C3116713070771B8C7828083C7819EA9
:1048600099C708419305650009056FD02FC1828063
:10487000EFB21F902A848345440008413737002057
:10488000D11593F5F50F2302B4008347A500130754
:1048900007C68A07BA979C4399C3829719A01C43FD
:1048A000EDFF2285EFF09FFB6FB0DF8E03474500E1
:1048B000854763F3E7081C41C1C383C71700154749
:1048C000FD1793F7F70F6369F706EFB27F8A356735
:1048D0008A07130707AFBA979C43373400208287B3
:1048E000B70700031305040D93871718B735002089
:1048F0001CC11946938565111105EFB07F8A854665
:1049000029469305040D1385016EEF00500C6FB01E
:104910007F88930710282318F40C85460946D5B7DD
:1049200093071038CDBF93071048F5B79307105879
:10493000DDB793071068C5B78280B73700201387AB
:104940000709A300A700F956138625002300D70006
:104950001376F60F8546938507091385016E6F0060
:104960001007EFB2FF80373500205D468145130503
:10497000950BEFB05F843734002013040409B7258A
:104980000020130660029385853E13053400230141
:104990000400EFB0FF80930570020545EFF0FFF9CA
:1049A0009307F01F894505452311F400EFF0FFF848
:1049B0006FB04FFEEFB22FFA2A8408414111B7348D
:1049C00000200505EFC0CFE51C40B73900202AC6FE
:1049D00003C45700130A9003B73A002093842409B4
:1049E0009389090963658A0421C03245B7350020DF
:1049F000938575092286EFB0BFFF0357C100B73713
:104A00000020938727092390E7000357E1009305CF
:104A1000540093F5F50F2391E7000D45B7370020BB
:104A2000238B8708EFF07FF141016FB00FF6324919
:104A300093857A09130690034A85EFB07FFB83576D
:104A4000C10013099903130474FC2390F4008357E5
:104A5000E1009305E0030D452391F4002383490110
:104A60001374F40F4AC6EFF05FEDADBFEFB24FF035
:104A70002A840841B7340020938404090505EFC057
:104A80002FDA1C4083C767002381F4000C4083C6E3
:104A9000650003C655009D05EFC02FBDA381A4008E
:104AA00089451145EFF07FE96FB0CFEEEFB2AFEA85
:104AB00037340020AA891306000381451305040634
:104AC000EFB06FEF814A373A002063943A01814496
:104AD00025A01305B004EF10A0001949EFE00F9EC8
:104AE000AA8413052003EF00B07F6384040A7D19B4
:104AF0001379F90FE31409FE130404064C4008402F
:104B0000EF60600D83A5C199EF509006EF60400300
:104B100008C04CC008444C44EF60E00B83A5819969
:104B2000EF501005EF60C00108C44CC408484C4861
:104B3000EF60600A83A54199EF509003EF60400059
:104B400008C84CC8084C4C4CEF60E00883A581882D
:104B5000EF501002EF50D07E08CC4CCC08504C5097
:104B6000EF60600783A58188EF509000EF50507D83
:104B70004CD008D008544C54EF60E00583A58188E0
:104B8000EF50007FEF50D07B08D44CD426856FB017
:104B9000CFDF9307040613068ABA138507039843E9
:104BA00083160600CC43090613D8F641BA9633B7EC
:104BB000E600C2952E9794C3D8C3A107E311F5FE72
:104BC000850A21B7EFB22FD9EFF05FEE2A8A631D75
:104BD0000516B734002093840406CC4C884CEF5063
:104BE000907F83A5C1883724002013048445EF50AB
:104BF000A03683A50189EF40B07F8347140803479F
:104C00000408AA8AA207D98F3305F040EF509066B6
:104C1000AA855685EF40D07DEF50D05FCC509317DA
:104C200005012300A4028850C183A183A300F402DC
:104C3000EF50707A83A5C188EF50003283A50189B7
:104C4000EF40107B8347340803472408AA8AA20751
:104C5000D98F3305F040EF50F061AA855685EF40BB
:104C60003079EF50305BCC54931705012301A40237
:104C70008854C183A183A301F402EF50D07583A5AA
:104C8000C188EF50602D83A50189EF4070760347FE
:104C9000440883475408AA8AA207D98F3305F040F5
:104CA000EF50505DAA855685EF409074EF509056B6
:104CB000CC40931705012302A4028840C183A1833D
:104CC000A302F402EF50307183A5C188EF50C028D1
:104CD00083A50189EF40D071EF50D053CC44931796
:104CE00005012306A4028844C183A183A306F4021C
:104CF000EF50706E83A5C188EF50002683A501890F
:104D0000EF40106FEF501051CC4893170501230767
:104D1000A4028848C183A183A307F402EF50B06BBB
:104D200083A5C188EF50402383A50189EF40506CD3
:104D3000EF50504E93170501C183A1832308A402AD
:104D4000A308F402EFB0BFD552856FB00FC4EFB225
:104D50002FC213052003EFF0FFE603C72197B737F3
:104D60000020938707092381A70089451545A38162
:104D7000E700EFF09FBC6FB0EFC1EFB26FBF1387DA
:104D8000C18C83560700B727002093870741A38073
:104D9000D700A1822381D700835627000146814591
:104DA000A381D700A1822382D700835647000357EF
:104DB00067002165A382D700A1822383D700A38344
:104DC000E700854621832384E70023800700EFC0A6
:104DD000CF89B73700202389A70885451D45EFF007
:104DE000DFB56FB02FBBEFB2AFB8B73500209385FA
:104DF00035093D45EFD0FFC3B737002013870709BA
:104E00002301A70003A781819387070901E70547CD
:104E100023ACE18083A6818103A7419E3735002022
:104E20003357D702114693850199130555092382FB
:104E3000E700EFB0EFB63735002011469385C198F3
:104E400013059509EFB0CFB5AD451305D00FEFF0C1
:104E5000DFAE6FB02FB4EFB2AFB10145EF00E07538
:104E60002945EF00F047B707EFBE37E700E093872B
:104E700007083CC76FB00FB283D6418913874189B9
:104E800003572700B737002093872709914513055B
:104E9000F00F2390D7002391E7006FF01FAA144171
:104EA0000546938716001CC1834745006373F608C7
:104EB000EFB20FACFD172302F50083C716009D4625
:104EC00063E0F60295CBFD1793F7F70F994663E57C
:104ED000F602B5668A07938686B0B6979C438287AA
:104EE0001307E00F638EE7021307F00F6387E702F3
:104EF0001307D00F6389E7026FB0CFA9EFF07FA649
:104F0000E5BFEFB0FFBACDBFEFF0DFAAF5B7EFF026
:104F1000FFB5DDB7EFF0BFE3C5B7EFF0FFF5E9BFD1
:104F2000EFF07FF3D1BFEFF01FECF9B7EFF0FFE444
:104F3000E1B782806FF07F81EFB28FA31C4113072E
:104F4000000883C707006389E702636AF700054723
:104F5000638EE7004147638EE7006FB0AFA313078E
:104F6000E00FE39CE7FEEFF09FF3C5BFEFF05F902B
:104F7000EDB7EFF0BF8ED5B7EFF05F93F9BF034603
:104F80008502AA8581461385016E91A4EFB24F9EDA
:104F900041112A848545054502C002C202C402C6E9
:104FA000EF20100885452145EF20900785454145B4
:104FB000EF201007BD450545EF20C03B1149C14416
:104FC00089470A853EC04AC226C422C6EF10707BBC
:104FD000BD450945EF20003AA1670A853EC04AC297
:104FE00026C422C6EF10F07999450545EF20803898
:104FF000930700040A853EC04AC226C422C6EF10A9
:1050000050789D450545EF20E036930700080A8556
:105010003EC04AC226C422C6EF10B076B945054547
:10502000EF20403591670A853EC04AC226C422C699
:10503000EF10307541016FB0EF95EFB26F934111F2
:105040003715014091474C00130505C03EC6231299
:10505000F100231301002314010023150100EF20A8
:10506000A02341016FB00F93EFB28F90371702402A
:105070005C439146B18B6386D7005C434167F98FEF
:1050800081C70145EF200067B7F700E0938707D09D
:10509000984B1367870298CB984B1367870098CB80
:1050A00073005010984B1367870098CB7300501013
:1050B0006FB04F8EEFB2CF8B014501232945EF0032
:1050C00030223565130545B2EF50D0770145EFE04A
:1050D0003FD6EFD0BFD40545EFF05FEB0545EF209D
:1050E000006613051006EF20207B854719C5EFF0F9
:1050F000BFF70145EFF09FE981473E856FB08F898B
:105100000DCDEFB24F852A84AE8405458DC5328A18
:1051100081452D4613059400B6893A89EFB0AF89D1
:10512000854704C023224401230534012304F400ED
:10513000A308240101456FB04F8505458280EFB279
:105140002F839304F00F3DCDB5CD1C412A84BDCBF8
:1051500083440501BDE80347A5005C4563D7E70626
:105160008347150113F9F70F6374F6001379F60FEF
:1051700085471307C400AF27F7005C4483479400BA
:105180000347A400850793F7F70F63E3E700814720
:1051900003451401A304F4004A86B307F50208404E
:1051A0003E95EFA0FFFF5C4091C703479400BA977C
:1051B000238027018347A40058446345F7008547AF
:1051C0002308F40026856FA0FFFC8544E5BFEFA20D
:1051D0003FFA1309F00F41CDD9C91C412A84C1CB34
:1051E00003490501631809080347A5005C4563D31B
:1051F000E70883471501B2846365F600FD1793F451
:10520000F70F85471307C400AF27F7005C448347B7
:1052100094000347A400850793F7F70F63E3E700C3
:10522000814703471401A304F40026863307F702DD
:105230001C40BA972380D70083471401034794008A
:105240000840B387E70285073E95EFA07FF55C40F5
:1052500099C7034794008504BA9723809700834732
:10526000A40058446345F70085472308F4004A85A5
:105270006FA05FF20549E5BFAA8731C51841130544
:10528000F00F21C7D84719E3014582807D579386E7
:10529000C7002FA7E600D84703C7870083C6A7002B
:1052A00005071377F70F6363D70001472384E700EF
:1052B00003C7070171DBD847B326D70093C6160092
:1052C0002388D700D1B71305F00F8280EFA25FEAE1
:1052D000056501118545110502C002C202C402C65E
:1052E00002C802CA02CC231E0100EF2060539307BC
:1052F00000082310F10037150140E1473EC48A85BC
:105300008D47130505803EC2EF101079B7C7040121
:105310003EC6B70700023ECA930700023ECC6C00AF
:105320009D4737350140231EF10002C8EF20A059E8
:105330000546894537350140EF20606005616FA063
:105340007FE5EFA25FE179712A84AE8932898145D8
:105350001306C0024800B684EFA0FFE58545054569
:10536000EF20204A2285EF10702AC1473EC69307DE
:1053700000083ECC4C00856722854EC24AC426C830
:105380003ED402CA02CE02D002D202D6EF101036AC
:1053900045616FA09FDFB7060001411101478147BA
:1053A00093850182FD166148137615002E960346FB
:1053B000060005813316E600D18F0D07F58FE31542
:1053C00007FF1395070141812398A19EC18313759F
:1053D000F50F9386019F2381A6002388F19E83D732
:1053E000019F42055D8D41018280EFA2DFD68D4A8B
:1053F000B3045503373400203285130484132E8AF6
:10540000B689EFF05FF993578500138904013309DA
:10541000590322992300A9004181A300F900230127
:10542000A9001389140133095903C9045285EFF007
:105430009FF693578500B384540322992300A90053
:1054400041812301A9004E85A300F900EFF0BFF4CC
:105450009357850026942300A4004181A300F40003
:105460002301A4006FA07FD2EFA21FCE9387417BC0
:1054700083CA77001384417B79E963870A008145F9
:1054800037850200EFC00F8D81448347A40063C4B9
:10549000F4006FA0FFCE13F5F40F8146014681455D
:1054A000EFF0BFF48504D5B703C70900098B35C7F2
:1054B00081460146814513F5F40FEFF01FF3850493
:1054C0000347A40083478400E3C0E4FE05479144FA
:1054D0006393E700B1448347940085EB37240020B1
:1054E0001304842E834634020346240283451402A7
:1054F0002685EFF09FEF834624030346140383457C
:10550000040313851400EFF05FEEE3840AF8854589
:1055100037850200EFC00F84ADBF95C36384770366
:10552000B307690313F5F40F0509D29783C6270063
:1055300003C6170083C50700EFF03FEB49B7E3410F
:105540009BFEB5BF9387C4FFE36CFBFC8DBFB729FF
:105550000020372A0020014981449389893E130A9B
:105560008A2E0D4B854BA9BFEFA29FC081453735D1
:105570000140EF20E03A370402401305040381455F
:10558000EF10501AB73700201305040393878713D1
:105590005CC583C7E17B0D478545B387E7029387E9
:1055A0000702B387E7025CC1EF10D0178545373596
:1055B0000140EF20E0366FA0FFBDEFA27FBB2A8441
:1055C000EFF09FEA2285EFF03FFA6FA0BFBCEFA299
:1055D0003FBA373400201306D035814513058413B4
:1055E000EFA07FBDEFF09FCE0945DD2983C7E17BAA
:1055F0000D478D46B387E702B735014037050240B6
:1056000013068413B1051305050393870702B386B8
:10561000D702EFF01FD30545EFF03FFA01456FA029
:105620007FB7EFA25FB303C4C17BB737002083C647
:105630002711930720037D14B386F6021334140058
:105640000A0422859304140093F6F60F3686B68575
:10565000EFF0BFD9B727002003CA873E9389873E62
:10566000814613198A01135989416344090093063D
:1056700020033686B6852685EFF03FD783C6919EF8
:105680009307200313053400B386F60293F6F60F52
:105690003686B685EFF07FD5634F090083C7419802
:1056A00081E783C7319781EB81460146930520034B
:1056B0002685EFF09FD393770A020904814681EB98
:1056C00083C7190093F7070285C793062003014695
:1056D00081452285EFF07FD183C7C19081CB814680
:1056E0000146930520032285EFF03FD06FA0FFA96C
:1056F000814613062003E9BFEFA2FFA503C4C17BC7
:1057000003C9419F7D14133414000A0409C593573B
:10571000490033E927016308090281449149B357DD
:10572000994033059400858B1375F50F814601462A
:105730009305200391E381458504EFF01FCBE390AF
:1057400034FF6FA09FA42285930620031306200335
:1057500093052003EFF07FC913051400930620037F
:105760001306200393052003EFF03FC81305240020
:10577000930620031306200393052003EFF0FFC6D2
:10578000930620031306200393052003130534001A
:10579000EFF0BFC57DB7238AA19E0547238EE18028
:1057A000828003C7319F6307A700A389A19E054795
:1057B000238EE1808280EFA2BF9B2A84752483A779
:1057C000C19E1D8D9D4763FDA700792C83C7319F26
:1057D00023A6A19E81CBEFF0DFE40545EFF0DFD8F3
:1057E0006FA05F9B83C7C181E5DF2285EFF0DFF00B
:1057F0000545EFF07FD7238E0180DDB7130500202C
:10580000EF10A0770DC113050010EF10407737059A
:105810000240814513050503EF10C07081453735FF
:105820000140EF20E00F73002030411102C4371710
:10583000024002C61C43C16637060200D58F1CC356
:10584000B716024015679C42F18F3EC6A2478507F6
:105850003EC4B24781E7A247E397E7FEB71702408D
:105860009C4337070200F98FC9C385473EC63247BC
:105870008547631EF706B72702409843B706C1FF66
:10588000FD161367070198C39843719B98C398430B
:105890001367270098C3B7170240D843D8C3D8432B
:1058A000D8C3D843D8C3D843758FD8C3D843B70615
:1058B0001D00558FD8C39843B7060001558F98C374
:1058C000B70600029843758F75DFD843B7160240BC
:1058D000719BD8C3D84313672700D8C32147DC4244
:1058E000B18BE39EE7FE4101828002C649B701A069
:1058F000B71702409843B706FFF81367170098C31D
:10590000D843758FD8C39843B706F7FEFD16758F39
:1059100098C39843B706FCFFFD16758F98C3D8430C
:10592000B70681FFFD16758FD8C337079F0098C74C
:105930006FF0BFEF371702405C43A146B18B639114
:10594000D7065C4354434166C983BD8BF18E8907FA
:1059500081EE3747024003270780418B19CB371769
:105960007A001307072011A85843B7060200758F65
:105970007DD737173D0013070790B387E702371726
:105980000240544337170020130787279182BD8AAE
:10599000369703470700B3D7E70023A2F18282803E
:1059A000B7177A0093870720D9BF6FF01FE88545A6
:1059B00037050040EF20601E8547631CF50083A774
:1059C00001A0854537050040850723A0F1A0EF2001
:1059D000401F73002030EFA2AFF90111930770044C
:1059E0003ECA4C089307703E370500403ECCEF108E
:1059F00070760546854537050040EF204013854504
:105A000037050040EF20800F9307C0022316F100F6
:105A100089472307F100680085473EC8EF10703FB3
:105A2000996737E700E09387E79A7CC3B207B70628
:105A3000002CB183D58F7CD305616FA0AFF503A790
:105A4000819F11E7054723ACE19E6FF0DFF882806C
:105A500083A701A01307803EB387E7023707004002
:105A6000035547023E95828003A501A0828083A74B
:105A7000418237177A0013070720B3D7E702238E36
:105A8000F19E828019E501458280014541016FA0A8
:105A90006FF0EFA2EFED41112A84AE843289EFF06E
:105AA0003FFB2AC6268502946DF1EFF07FFAB247DC
:105AB0001D8DE379A9FE2685029413351500F9B7EB
:105AC000EFA20FEB41112A84EFF09FF82AC6EFF006
:105AD0003FF8B2471D8DE37CA4FE41016FA08FEB20
