:100000006F60004D1300000013000000130000009B
:100010001300000013000000130000001300000094
:100020001300000013000000130000001300000084
:08003000130000007300100032
:100038006FF09FFC000000006F0060186F00A01AAE
:1000480000000000000000000000000000000000A8
:100058000000000000000000000000000000000098
:100068006F606046000000006F60E045000000001F
:100078006F6060456F6020456F60E0446F60A0442A
:100088006F6060446F6020446F60E0436F60A0431E
:100098006F6060436F6020436F60E0426F60A04212
:1000A8006F6060426F50C0366F60E0416F60A04182
:1000B8006F6060416F6020416F60E04000000000A9
:1000C8000000000000000000000000006F60A03F7A
:1000D8006F60603F6F60203F6F60E03E6F60A03EE2
:1000E8006F50204E6F20A0046F60E03D6F60A03D10
:1000F8006F60603D6F60203D6F20C04E6F60A03C18
:100108006F60603C6F60203C6F60E03B6F60A03BBD
:100118006F60603B6F60203B6F60E03A6F00001DCE
:1001280000000000000000000000000000000000C7
:080138000000000000000000BF
:10014000397101436EC619A0397141536AC866CA34
:1001500062CC5ECE19A0397101535AD056D252D416
:100160004ED64AD826DA22DC06DE3301614082828E
:1001700041114AC026C222C406C68282B24D410144
:10018000024D924C224CB24B4101024B924A224A00
:10019000B2494101024992442244B2404101828065
:1001A0002A8309CA83830500230073007D16050393
:1001B00085056DFA82802A8311C62300B3007D165F
:1001C000050365FE82800145EF50801B3717024012
:1001D0001C47B7068000D58F1CC7EF50C03E37E7DD
:1001E00000E03C4793E787003CC77300203073274B
:1001F000203423AAE188F326103483A7418923A859
:10020000D188373700201307479513D68700A300FE
:10021000C70413D607012301C70413D68701A3011E
:10022000C70413D68600A302C70413D6060123030E
:10023000C70413D686012300F7042302D704A303BF
:10024000C70463CD07000D476382E7026375F700BB
:10025000F1176365F70091067390163437E700E0F5
:100260003C4793E707023CC77300203001A0EFF240
:100270003FF011458545EF70C004B74702409387B2
:100280000780984301451367470098C303A701827D
:10029000B7A74A04938707206309F700B777DC0202
:1002A000938707C06315F7000545EF60107085451B
:1002B0000565EF60307FF9BD37370240930700FCDA
:1002C0002306F7409387C173C207C1832318F74001
:1002D0009387C16B23ACF1A0C207C183231AF740F7
:1002E00089472309F742230BF74293878189A3802B
:1002F00007008280011122CE26CC4ACA4EC852C6BF
:1003000056C43734024003476440834774409376B1
:10031000F70F098B6304075E93F7F70F13F70703D3
:10032000930500026302B70493060003630FD71618
:1003300021E713F7F703630007128546631ED70210
:1003400093F7070495CB834764431385416993C7AB
:100350000708230BF4420356844083A581A113763A
:10036000F60FEF40D03609A893F7F7036384E7024E
:1003700013071002638EE70AB73702400947238349
:10038000E7407244E2445249C249324AA24A0561F6
:100390007300203083D7618A99E78347244393F71A
:1003A000370F2309F44283C7C18A93F70706E9F799
:1003B00083C7D18A954613F7F70F638FD704994700
:1003C000E31CF7FA03D7618A9307F00313040004D0
:1003D00063E6E70003D4618A4204418003A9018BEC
:1003E0002286CA851385C173653B83D7618A2299AA
:1003F00023A8218B818FC207C1832393F18A1374B1
:10040000F40FB73702402388874203C727431347B7
:1004100007042389E7428DB7B736024003C7364049
:1004200083C7418A13770708D98FA381F640A9B7FC
:100430008347644393F7C70F93E72700230BF442E6
:100440008347644393C70704230BF442938781894E
:10045000A380070015B793F70704E38F07F083C75E
:10046000C18A93F70706E38907F083C7C18A93F728
:100470000706E393B7F003C7D18AA547E31EF7EE5B
:1004800037450020130600049385C1731305850FBB
:10049000013B05472388E1A08347244393F7C70F17
:1004A00093E727002309F442C1BD9307A0FC230969
:1004B000F4421387C173834707002386F18A834779
:1004C000170083562700A386F18A8357670023937A
:1004D000F18A2395D18A835647002394D18A03C990
:1004E000C18A9386C173137909066309090C83C70E
:1004F000C18A93F70706639EB70283C7D18A29464C
:10050000FD1793F7F70F6363F61831668A07130632
:1005100006B2B2979C43828783D7818A6398071675
:10052000B7450020130600049385850F1385C1731A
:10053000853983C7C18AE207E18763DE073803D7BD
:10054000618A9307000463E6E70083D7618AC207E4
:10055000C18303D7618A1D8F420741832393E18AB8
:1005600093F7F70F373702402308F74283472743B3
:1005700093F7C70F2309F74201B583D7818A6397A1
:10058000071003C73600A380E18A65B783D7818A45
:10059000639E070E03C726002380E18A59BF83D7D5
:1005A000818A6395070E83C7118A2380F60051B7AD
:1005B00083D7818AE1EF83C7018AC5BF83C5D18A0A
:1005C0002D4813F6F50F6363B80CB1650A069385E1
:1005D000C5B42E961042028683D6A18A0D46A1820A
:1005E0006386C60C636CD6008547638CF602894728
:1005F0006381F60481471309F00F81A89307100265
:10060000638BF60893072002E396F6FE83D7818A70
:10061000F5F3B167938747C723A8F18A9307F00DD5
:100620002DA0B167938747D523A8F18A83C7070018
:1006300029A8B72700209387878A23A8F18A03C7B0
:10064000270083C73700A207D98F03D7618A63F4D5
:10065000E7002393F18A03D7618A9307F003130A13
:10066000000463E7E70003DA618A420A135A0A01C9
:1006700083AA018B52861385C173D6851536D29A0B
:1006800023A8518B9307F00FE315F9EAB73702401F
:100690001307F0FCBDBB83D7818AA9FFB7270020D1
:1006A0009387A78B23A8F18AA54745B783D7A18A4B
:1006B000094793F7F70F6387E702636BF70099EF3A
:1006C0009387818823A8F18A014983C70700B5BFB2
:1006D000E392D7F2B167938747C2B9B7B1679387FF
:1006E00087C699B7B1679387C7C33DBF83D7A18A30
:1006F00093F7F70F2382F18A2DBD83C7518A238098
:10070000F60003D7618A8547E3F5E7E22393F18A90
:100710000DB583D7A18A93F7F70FA382F18A054716
:100720002381E18A39B583C6C18AFD8A99EE83D7D0
:10073000A18A054793F7F70FE39DE7DE83C7318A68
:1007400093F7E70FA381F18AEDB383C6C18A094607
:10075000FD8AE39DC6F283D7A18A93F7F70F9DF731
:1007600083D7818A054793F7F70F6381E702130761
:100770002008E39DE7F0373702408347A74393F70C
:10078000C70B93E72700230DF74265B337370240C5
:100790008347674393F73707230BF7428347674342
:1007A00093F7C70B93E72700230BF74259B383C690
:1007B000C18AFD8A8DE683D7A18A054793F7F70F93
:1007C000E396E7ECB727002083C7F78A93F7070281
:1007D000E38E07EA83C7318A93E71700A5B783C67C
:1007E000C18A0946FD8AE393C6EA83D7A18A93F7B3
:1007F000F70FE39D07E883D7818A1307100893F763
:10080000F70F638FE70013072008E391E7E8373716
:1008100002408347A74393F7C70B93E73700A5B779
:10082000373702408347674393F7370793E7C7009B
:10083000230BF7428347674393F7C70B93E73700D0
:10084000A5B72380060075BD83C7C18A239E0172A8
:10085000FD8B99EB83C7318A858BBDC38947238084
:10086000F60003D7618A4DB583C7C18A0946FD8B5F
:10087000639CC70403D7818A130610081377F70F08
:10088000630DC700130620086305C70203D7618AFA
:10089000E3FEE7DE2393F18AD5BB373702400347F7
:1008A00067433146318BE31EC7FA05472380E600D4
:1008B0004DBF373702400347A7430D460D8BE5B7C1
:1008C00003D7618A894789B583D7618AE370F6DCEB
:1008D0002393C18A65BB83D7618A91EBB737024006
:1008E0002388074203C727431377C70F1DB637373F
:1008F00002408347274393F7370FADB993F71600AC
:100900009DC3A382018A2382018AA381018A238154
:10091000018AA30104404D328347644093E71700E6
:100920002303F440B9BC93F746009DCB91472303C2
:10093000F4402945EF40905A03475440118B11CBA6
:1009400003C7318A13672700A381E18A83C7318AED
:100950000DBC03C7318A1377D70FA381E18A15B481
:100960002303D44039BCEFF2BF80B74702409387DE
:1009700007809843C1E51367870098C33734024066
:1009800099472300F4402DCD2945EF4030559D4730
:10099000230004402301F440930790022300F44015
:1009A000213A930710F8A300F44013071004E1461E
:1009B000138641A39385C1071385816AEF40404D9B
:1009C000B725002013071004E1461386C1A49385C0
:1009D000C5BA13854169EF40A04B37E700E09307A4
:1009E000402F7CC3B207B183B706003BD58F3CD301
:1009F000B70700082322F7106FF0CFF95D9BB5BF52
:100A00002945EF40B04DB7E700E023000440B8436C
:100A1000C146B4C33706000893860718D0C2B8C3CE
:100A2000E1BF83C7D1778DCF05476380E704130704
:100A3000401F9307802A23A8E18023A6F180938694
:100A4000072D372700202328D7941307002DB3073D
:100A5000F740372700202326F7941305C021828012
:100A60001307A0289307002DF9B71307C021DDBF96
:100A7000EFF20FF037070001AA87130707F07D8F09
:100A8000A1662E85630ED70263E8E60029C3996646
:100A9000630ED7006FF00FF0BD66E31DD7FEB735CC
:100AA000002093F7F70F9385058D39A0B735002007
:100AB00093F7F70F9385C599BE95EFF06FEED9BF09
:100AC000B735002093F7F70F93854595F5B793F762
:100AD000F70F9385C177CDB7B735002013064008CF
:100AE0009385058D014569A9B73500201306400897
:100AF0009385058D014531A9B73500201306100BEC
:100B00009385C59913050010A5A9B73500201306D4
:100B1000100B9385C59913050010E5AEEFF2AFE316
:100B2000B7070001938707F0E98F2167AA8432890C
:100B30003684638FE704636AF700B5CF196763866D
:100B4000E702014422856FF04FE43D67E39BE7FE37
:100B5000B73700209379F50F9387078DBE994E859F
:100B6000EFF00FE405C0493729A8B7370020937983
:100B7000F50F9387C799BE994E85EFF06FE219C0C4
:100B800069372A844A86CE852685EF5060155DBF79
:100B9000373A00209379F50F93074A95BE994E8511
:100BA000EFF00FE065D01306800493054A95130516
:100BB00000208526F9B71375F50F9387C1773E9509
:100BC000AE89EFF0EFDD5DDC4A86CE85130500309F
:100BD000CDB7EFF2EFD90545373400201304048D6B
:100BE000EF40007A0345C401EF90B01283A501875E
:100BF000EF80B06023A6A1980345D401EF90701157
:100C000083A50187EF80705F23A4A1980345E401C9
:100C1000EF90301083A50187EF80305E0357040109
:100C200023A2A1983307E7029387418B98C3035708
:100C300024013307E702D8C31523EF000071EF103A
:100C40002022C5336FF00FD5EFF28FD23739002055
:100C50001306100BFD551305C999EFF0CFD52D469E
:100C6000FD551385C177EFF00FD52D469385C177DC
:100C700013050030312683C7C1779384C177858BF4
:100C80009DC3854723A00400A380F4002D46FD47A3
:100C90009385C1771305003023A204002394040038
:100CA0002385F400BD24893D1309C99983470901AF
:100CB000373400201304C49963800710930700F8A9
:100CC0002300F400E9778D072319F4008547A30D6D
:100CD000F4009307C0FCA30EF4029567938747CCFA
:100CE000231FF402B71780CC938707803CC0B75707
:100CF0000008938747CC7CC0B7D7C44C938707C8FC
:100D00003CC4F1779387C74C2316F4049307C004BF
:100D10002307F404B73732FF938727133CC8FD57E6
:100D2000231AF4048D67BD072313F408B7B790D9CD
:100D3000938717E62324F408B71754419387474D48
:100D40002326F408B757C779938757412328F40817
:100D5000B73736639387C739494693056408130547
:100D60008409232AF408EFF0AFC3B7078BFF9387FA
:100D7000B7051CD0B7070040938767195CD0B74709
:100D800000401CD4B707BEFFF5075CD4B7073C345E
:100D9000B9171CD8B7373B349387B7435CD8C167C2
:100DA000938707D52320F4088567938767FC231270
:100DB000F40823080400913B930700F82300F40093
:100DC000E9778D072319F4008547A30DF400373424
:100DD00000201306800493054495130500204D223E
:100DE0009307449503C7070015C32147A380070055
:100DF0002381E700A38107002382E700A382070085
:100E00002383E700A38307002384E700373900200A
:100E100013064008FD551305098DEFF0CFB96D3964
:100E20008347098D1304098D858BCDC313064008B4
:100E300081451305098DEFF00FB88567938787808B
:100E40002312F4000967B73700209387A78D130793
:100E500007022390E7002391E70037350020B737DA
:100E6000002061779387678D130707081146930564
:100E700000041305158F2390E7002391E700EFF09E
:100E80008FB3930700FCA300F4009307606D231752
:100E9000F40003C6A400B7077805938787571CC8DA
:100EA00001478D45FD56634BC704B7877F02938783
:100EB000F7F75CCC8D679387C74B231AF400834701
:100EC000040093E707F82300F40039391933034786
:100ED0005400B72700209387878AA380E70203473F
:100EE00044003735002019462384E7029305640146
:100EF0001305A565EFF0CFAA6FF0CFA9B307B7022E
:100F00000507A297A383D7022384D702A384D7021D
:100F100059BFEFF24FA4B7F700083304F5003307C9
:100F2000C400B7070108637BF7042E8A2285930566
:100F300000103289EF5050381147AA848947631C4A
:100F4000E502B739002013060010FD55138509A5E9
:100F5000EFF06FA64A86D285138509A5EFF04FA45E
:100F600013060010938509A52285EF5090468D4702
:100F70006313950081473E856FF02FA18547E5BF3C
:100F800037F70008AE87B305E5003387C500B7061D
:100F90000108637CD700094599CBEFF26F9D3E8530
:100FA000EFF00FA001456FF0EF9E05458280828033
:100FB000AA872E8563D3B7003E858280EFF24F9BD0
:100FC0004111AA8511466800EFF08F9D324541011D
:100FD0006FF04F9CAA872E8563C6B7003E8563538A
:100FE000F60032858280EFF2AF98797161468145D3
:100FF0002808EFF04F9C014502C602C802CAEF6004
:10100000001D371501409307A0036C0013050580F0
:10101000372401402316F10002CAEF50304D13056A
:101020000440EF50C05285473ECE3ED0B7070E0079
:101030003ED22C089147130504402306F10202CC4E
:1010400002D4EF506053854513050440EF50C0585B
:10105000854513050440EF50205713050440EF5019
:10106000C058930404402685EF50C0586DFD130509
:10107000044037240140EF50605893040440268513
:10108000EF5060586DFD13050440EF504065239EFE
:10109000A18A45616FF00F90EFF2EF8B79712A848E
:1010A000AE89328981451306C0024800B684EFF04C
:1010B0008F902285EF50C07A930700083ECC9307AB
:1010C00000103ECE930700403ED0930700023ED270
:1010D0004C008D6722854EC24AC426C83ED402C643
:1010E00002CA02D6EF50D00545616FF00F8AEFF2C9
:1010F0002F88D53D37240140B70402409305C444EE
:101100001385840091461386018C793713050440BA
:101110009D4605468545EF500051130504409D4608
:1011200009469545EF502050130504409D460D4655
:101130008D45EF50404F9D461146130504409145A3
:10114000EF50604E138584008545EF50F0028545D1
:1011500013050440EF50A04B6FF0CF83C1663737C3
:101160000020930707B513860610D0D71386160004
:1011700093860604D4C3B716020094C3B7060200D0
:1011800013858600E8C313850602A8C36165E8C716
:1011900013850601A8C713850620A8CF37250400AC
:1011A00088CF13850610E8CF37450400C8CF1385D4
:1011B000060488D33785040090D7C8D393860608E1
:1011C0003785020037260200B745020088DBD4DBF2
:1011D000D0C78CC7B737002083C6078D930707B5E4
:1011E00013F5060119C1CCC790C713F7860001CBD0
:1011F00037170200D8C341671307070498C3918AC1
:1012000089CA23A2070423A0070423A6070423A452
:1012100007048280EFE2DFF541118D472E8432C64C
:101220003EC4AA8402C2014681470147C1656343A7
:10123000870619C22312F100371501404C0013052F
:101240000580EF50B02A0146231201008147014773
:10125000B7050200634D870419C22312F100371548
:1012600001404C00130505C0EF50502801462312E1
:10127000010081470147B70504006347870419C28D
:101280002312F1004C0037150140EF503026410188
:101290006FE05FF093162700A696944233F5B600F0
:1012A00009C5D58FC207C1830546050749B79316FF
:1012B0002700A696944233F5B60009C5D58FC2071C
:1012C000C1830546050779B793162700A696944271
:1012D00033F5B60009C5D58FC207C183054605079A
:1012E00069BFEFE2FFE83705002013068002914551
:1012F00013050500053737050020414691451305C4
:101300000501093FB7070020938707023737002000
:1013100013860704130707B594438A06BA9623A0D9
:101320000600D4438A06BA9623A0060094478A068C
:10133000BA9623A00600D447C1078A06BA9623A00E
:101340000600E39BC7FC6FE0FFE4EFE27FE2393584
:1013500083C7317891C37137373500201306800475
:10136000E145130505B57D356FE0DFE2EFE2DFDD36
:101370003704002013040401B704002037090020BB
:10138000B70A002093840402130B0401014A1309D5
:101390000906938A0A00C14B0C400546814993D740
:1013A000E500F18BCA978843C205C181EF50302117
:1013B0005145EF40A032B38759018C4393D7E500E4
:1013C000F18BCA978843C205C181EF50101EB387C5
:1013D00034019C4391093315F500336AAA00E39C5C
:1013E00079FD0C400146110493D7E500F18BCA97B3
:1013F0008843C205C181EF50901C5145EF40002E3B
:10140000C104E31B64F952856FE09FD7EFE2DFD39D
:1014100083C73178014499C3913F2A84B7190140A9
:10142000B7340020138B09C0938404B50149370AEF
:101430000700B70A0200B70B0400416C93890980CA
:101440008C40B3F7450163895703638B77030545E8
:1014500063978701C205C1814E85EF501015933700
:101460001500B39727015D8C0509E1479104E31945
:10147000F9FC22856FE0DFD0C205C1815A85F1BF3A
:10148000C205C18137150140C9BFEFE27FCEB70762
:101490000700E98F37070200AA856384E702370750
:1014A00004006388E70241670545639AE700C205C7
:1014B00037150140C18113050580EF50100F6FE013
:1014C0007FCD9315050137150140C181130505C076
:1014D000EDB793150501C18137150140F9BFEFE262
:1014E0003FC979712A848545314502CA02CC02CEB2
:1014F00002D002D202D402D602C402C623180100CE
:10150000EF50305C6315040E85450945EF50505D82
:101510003715014061478D474C08130505C03ACE89
:1015200037040040231AF1003ECCEF50207C930793
:10153000005A2C00130504403EC602C4EF50B06BA5
:101540000546854513050440EF608008C167938711
:1015500007060C10130504403ED023130102231488
:101560000102EF50D0700C1013050440EF50307B97
:10157000854513050440EF604004A1451305044070
:10158000EF604008A14513050440EF60C0088145A5
:1015900013050440EF6020059305002D130504405A
:1015A000EF6000099305002D13050440EF60A008CB
:1015B000EF00D00D9307D0122310F1009D472301B7
:1015C000F1000A8585473EC2EF50F029896793876D
:1015D000671337E700E07CC3B207B183B706002D7D
:1015E000D58F3CD7854513050440EF50507B4561AE
:1015F0006FE05FBAAA8537050040130505406F50BC
:10160000107AEFE2FFB6AA8832883E8689472E8597
:10161000BA85638CF8008D476388F80063830800FF
:10162000368842856FE01FB74295EFF0BF9A1318D6
:10163000050113580841F5B719473305E502B70707
:101640000020938707082E86014781463E95831523
:101650002500034505009307C01165B719473305F9
:10166000E502B7070020938707082E861307000CB2
:10167000930600103E95831545000345150093071A
:10168000001441B71387418D1443B73700205843E6
:101690000E05938707BBAA9794C3D8C38280EFE255
:1016A0003FADAA84034535001384418D83150400A2
:1016B00005817D8951372310A40003C534008315AB
:1016C000240005817D89593F83C734002311A4007C
:1016D00003C5240083154400858B920711815D8D1D
:1016E000A13F83C734002312A40003C5240083153F
:1016F0006400858B920711815D8D8D372313A400C3
:10170000014549370547A38EE18C6FE0BFA8EFE2A2
:101710003FA68347350003472500B705002093F710
:10172000F703135677008607D18F93850524860724
:10173000AE9783D70700370600201377F707130605
:10174000061406079386418D32972390F60083573F
:101750000700034705002391F6008347150009831E
:1017600093F7E70FBE9583D705002392F6008347D2
:1017700015000145858B9A07D98F86073E968357BA
:1017800006002393F600FD3D0547A38EE18C6FE034
:101790007FA0EFE2FF9D8347350083462500034786
:1017A000050093F7F7039D82860713764700D58FD0
:1017B000058BAA841384418D8607630E070C630290
:1017C000060C3707002013070714BA9783D70700C2
:1017D0002313F40001457D3503C52400831504005F
:1017E00009817D89913D2310A40003C52400831540
:1017F000240009817D899D3583C724002311A4001D
:1018000003C51400831544008D8B8E0715815D8DF3
:10181000253583C724002312A40003C514008315B3
:1018200064008D8B8E0715815D8D0D3D2313A40003
:101830000545893D03C51400831504007D89ED3BF2
:101840002310A40003C51400831524007D893935B5
:101850002311A40003C50400831544000D81E93B56
:101860002312A40003C50400831564000D81FD3319
:101870002313A400094539350D47A38EE18C6FE091
:101880007F913707002013070724BA9783D70700F3
:101890002312F40081B719CA370700201307071471
:1018A000BA9783D707002311F4002DB7370700201C
:1018B00013070724BA9783D707002310F40019BF32
:1018C000EFE21F8BAA84034535001384418D8315F5
:1018D000040005817D898D332310A40003C53400E5
:1018E0008315240005817D89953B83C7340023112E
:1018F000A40003C5240083154400858B9207118141
:101900005D8D1D3B83C734002312A40003C5240052
:1019100083156400858B920711815D8D81332313BC
:10192000A4000145853383C7240003C51400831533
:101930000400BD8B86071D815D8DFD3983C72400A2
:101940002310A40003C5140083152400BD8B860753
:101950001D815D8D21332311A40003C5140083155F
:10196000440009817D89C9392312A40003C51400EC
:101970008315640009817D89D5312313A4000545B1
:1019800011330947A38EE18C6FE0DF80EFE24FFE59
:10199000AA8483C73400034525003707002093F746
:1019A000F703935675008607D58F1307072486071C
:1019B000BA9703C7040083960700B7070020137681
:1019C000E70F93870714B2970981058B8397070068
:1019D0007D891384418D51CF831504002312D400D7
:1019E0002313F400EFF05FC52310A40003C5240007
:1019F0008315240009817D89EFF05FC62311A400BF
:101A00000145EFF03FC883C7240003C514008315C8
:101A100004008D8B8E0715815D8DEFF0FFC183C7AC
:101A200024002310A40003C51400831524008D8B0B
:101A30008E0715815D8DEFF07FC22311A40003C5D1
:101A40001400831544007D89EFF01FBF2312A4000A
:101A500003C51400831564007D89EFF03FC0231394
:101A6000A4000545EFF01FC20947A38EE18C6FE08B
:101A70006FF2831544002310D4002311F400EFF01B
:101A8000BFBB2312A40003C5240083156400098191
:101A90007D89EFF0BFBC2313A4009DB7EFE24FEDAB
:101AA000AA84034535001384418D83150400058104
:101AB0007D89EFF07FB82310A40003C5340083159F
:101AC000240005817D89EFF07FB983C7340023119D
:101AD000A40003C5240083154400858B920711815F
:101AE0005D8DEFF07FB583C734002312A40003C5DA
:101AF000240083156400858B920711815D8DEFF0C2
:101B0000FFB52313A4000145EFF0DFB783C724001E
:101B100003C5140083150400BD8B86071D815D8DF0
:101B2000EFF09FB183C724002310A40003C5140065
:101B300083152400BD8B86071D815D8DEFF01FB2DC
:101B40002311A40003C514008315440009817D8975
:101B5000EFF09FAE2312A40003C5140083156400A8
:101B600009817D89EFF09FAF2313A4000545EFF0B5
:101B70007FB183C7140003C50400831504008D8B57
:101B80008E0715815D8DEFF03FAB83C714002310E6
:101B9000A40003C50400831524008D8B8E071581D6
:101BA0005D8DEFF0BFAB2311A40003C504008315C6
:101BB00044007D89EFF05FA82312A40003C5040050
:101BC000831564007D89EFF07FA92313A4000945E4
:101BD000EFF05FAB0D47A38EE18C6FE0AFDBEFE280
:101BE000AFD60347350037340020238E018CA38EF7
:101BF000018C19838946AE84130404BB630FD70C90
:101C00008D46630AD70E5DE38547A38EF18C2312C0
:101C100004002310040003C5D18D0D468145EFF06B
:101C20006FBB370B0020B73B0020938CC18CA38E79
:101C3000A18C014CA28A130B0B36938B0B8D9389CD
:101C4000C18C83C7D18D634AFC0A83C73400054722
:101C5000238EE18CA38E018C99838946638DD714E2
:101C60008D466389D716639F0710A38EE18C2312DC
:101C700004002310040003C5D18D0D468145EFF00B
:101C80006FB5B7090020373A0020138BC18CA38EA3
:101C9000A18C814A93890936130A0A8D9384C18CD9
:101CA00083C7D18D63CCFA126FE08FCD0347150047
:101CB00083472500834605002207BD8B558FC20749
:101CC000D98F81E7EFF0BF9DB9B78D8A81E6EFF03C
:101CD0001FA491B7EFF0FFAB3DBF8347150003474B
:101CE00005008D8BA207D98F81E7EFF07FBD25B767
:101CF000EFF0DFC90DB75D3339BF03974A0083C7E3
:101D00006B000A075A971843B387E702918323A20F
:101D1000FC0083976A008A07DA97884319C913067B
:101D200000143306C502814637952F50A545EF5064
:101D3000F03B23A0A900CE850145D52A03970A00D0
:101D400083C78B000A075A971843B387E70291832A
:101D500023A2F90083972A008A07DA97884319C9D2
:101D60001306000A3306C502814637952F50A54554
:101D7000EF50D03723A0A900CE8509454D2A050C88
:101D8000A10AC1B503C7140083C7240083C6040099
:101D90002207BD8B558FC207D98F89E72685EFF0C3
:101DA0001F90D1BD8D8A268581E6EFF05F96E1B563
:101DB000EFF03F9EC9B583C7140003C70400268512
:101DC0008D8BA207D98F81E7EFF09FAF6DB5EFF054
:101DD000FFBB55B52685EFF07FCC71BD03174400DE
:101DE00083477A000A074E971843B387E702918327
:101DF0002322FB00831764008A07CE97884319C902
:101E0000130600143306C502814637952F50A545A9
:101E1000EF50D02D88C0A6850545112A0317040070
:101E200083479A000A074E971843B387E7029183C6
:101E3000DCC0831724008A07CE97884319C913068C
:101E4000000A3306C502814637952F50A545EF504D
:101E5000F02988C0A6850D45D928850A210489B5B1
:101E6000B737002083C7178D370500204146C18B47
:101E700089CBB705002093850535130525246FE030
:101E80002FB2B705002093850534C5BFEFE24FAEF2
:101E900037360020B735002037350020214793061C
:101EA0000002130686BC938585F413054508EF20D0
:101EB000307E37360020B7350020373500202147E7
:101EC00093060002130686BE938585E41305050775
:101ED000EF20107C37360020B73500203735002042
:101EE000214793060002130686C0938585D4130507
:101EF000C505EF20F07937360020B735002037359B
:101F00000020214793060002130686C2938585C4EC
:101F100013058504EF20D0778547238CF190A38C9F
:101F2000F190238DF190A38DF1906FE0AFA6B9CD24
:101F3000EFE20FA489476309F50263E2A7021DE9F6
:101F400037350020214613054508EF20507819C980
:101F500005470545238EE18EEF30804221A08D4755
:101F60006300F5026FE00FA337350020214613050B
:101F70000507E1BF3735002021461305C505F1B738
:101F800037350020214613058504C1B78280EFE272
:101F90002F9E83C7B19195CF373500209307450811
:101FA000D44785CA83C78700B7360020938686F456
:101FB0008E07B6979443DC43A38D019013878193DA
:101FC000130545085CC314C3EF30C0030547A38F56
:101FD000E19083C7A19195CF37350020930705077E
:101FE000D44785CA83C78700B7360020938686E426
:101FF0008E07B6979443DC43238D0190138701939A
:10200000130505075CC314C3EF20D07F0547238F5A
:10201000E19083C7919195CF373500209307C5058F
:10202000D44785CA83C78700B7360020938686D4F5
:102030008E07B6979443DC43A38C0190138781925B
:102040001305C5055CC314C3EF20D07B0547A38EE1
:10205000E19083C7819195CF3735002093078504A0
:10206000D44785CA83C78700B7360020938686C4C5
:102070008E07B6979443DC43238C0190138701921B
:10208000130585045CC314C3EF20D0770547238E66
:10209000E1906FE02F9021C29841E1679387076A32
:1020A0003E9798C16374C70001458280B356C7024A
:1020B000835705003377C702B697C207C183231041
:1020C000F50098C1056713070780E37FF7FC93F7D6
:1020D000F77F2310F50005458280EFE26F89B7375F
:1020E000002083C7078D2A87368493F707042E853F
:1020F0005443B28595C3854781CE1043693F8147DC
:1021000001C983A7018E818F93B7A70F93C71700CB
:1021100013F5F70F6FE00F8899EA03A5018E018D83
:102120001335A50F134515001375F50FE5B71043CB
:102130009D3765F5D5BF37050040397185451305D5
:10214000054022DE26DC4ADA4ED852D656D45AD280
:102150005ED062CE66CC6ACA6EC8EF50E04E85474C
:10216000631CF52483A7018E138D170023A0A18F74
:10217000373700200347178D93848194371400204C
:1021800013770702138C8195938901951389019424
:10219000130404866301072C83A6018F1386C19064
:1021A000938561911385819536C6053F01CD83C521
:1021B000F19103C6E18DB246638F052013661600C8
:1021C000238FC18C83A6C18E138681909385419104
:1021D0001385019536C6113701CD83C5E19103C63C
:1021E000E18DB2466389052013662600238FC18CDA
:1021F00083A6818E138641909385219113858194C6
:1022000036C6E13D01CD83C5D19103C6E18DB2460D
:102210006383052013664600238FC18C83A6418EFD
:1022200013860190938501911385019436C6753507
:1022300001CD83C5C19103C6E18DB246638D051EF4
:1022400013668600238FC18C83C6E18D13F61600BA
:1022500005C6A38F0190138681930C425042232020
:10226000BC002322CC008545239B019023A601902E
:10227000A38DB19023A8A18F13F6260005C6238F46
:102280000190138601930C42504223A0B90023A26F
:10229000C90023A401908545239A0190238DB19014
:1022A00023A6A18F13F6460015C2A38E01901386B4
:1022B00081920C4250428CC0D0C023A2019085452F
:1022C00023990190A38CB19023A4A18FA18A85C6E4
:1022D000238E0190938601929042D4422320C9001C
:1022E0002322D90005462398019023A00190238C36
:1022F000C19023A2A18F83A6018183D76191032777
:102300004C0003A649008607A29783970700238FF6
:10231000018CB387E70203D7419106072297031781
:1023200007003307C702BA97A987B387D702C583C7
:102330009387072D23ACF18E83D72191D840860750
:10234000A29783970700B387E70203D70191060797
:1023500022970317070003264900B72900203307F7
:10236000C7023729002003A609958325C99437049D
:10237000004013040440BA97A987B387D702C583E6
:102380009387072D23AAF18E03A5818FEFE09FC4C9
:1023900042054181231EA4028325C99403A6099501
:1023A00003A5418FEFE01FC3420541812310A40420
:1023B00085452285EF50002B7254E2545259C25980
:1023C000325AA25A125B825B724CE24C524DC24DA1
:1023D0002161730020303166B306DD401306F63408
:1023E000E372D6DE83C6418123220C0093E61600F9
:1023F000238AD180C1BB3166B306DD401306F634B3
:10240000E378D6DE83C6418123A2090093E6260045
:10241000238AD180F1BB3166B306DD401306F63462
:10242000E37ED6DE83C6418123A2040093E6460004
:10243000238AD180E5B33166B306DD401306F63456
:10244000E374D6E083C641812322090093E6860027
:10245000238AD180D5BB03C7F1910DCBA38F019007
:10246000938681939842D4422320EC002322DC00FF
:10247000A38DA1909387819391C209EB23A601902C
:10248000239B019023200C0023A2070003C7E191A6
:1024900015C7238F0190938701939843DC4305462A
:1024A00023A0E90023A2F900238DC19091C319E76D
:1024B00023A40190239A019023A0090003C7D1917E
:1024C00015C7A38E0190938781929843DC430546FC
:1024D00098C0DCC0A38CC19091C309EB23A20190EA
:1024E0002399019023A0040023A2040003C7C191F3
:1024F00015C7238E0190938701929843DC430546CC
:102500002320E9002322F900238CC19091C319E70D
:1025100023A00190239801902320090003260C009A
:102520009385C19013856191EFF0FFB603A6090072
:102530009385819013854191EFF0FFB5904093858D
:10254000419013852191EFF01FB503260900938573
:10255000019013850191EFF01FB483A6018183D709
:10256000619103274C0003A649008607A297839731
:102570000700B387E70203D74191060722970317A5
:1025800007003307C702BA97A987B387D702C58365
:102590009387072D23ACF18E83D72191D8408607EE
:1025A000A29783970700B387E70203D70191060735
:1025B0003A940317040045B3EFD29FBBAA85376551
:1025C000004013050580EF40F025133515006FD04E
:1025D0007FBCEFD2FFB9AA8537650040130505809F
:1025E000EF40B0221375F50F6FD0DFBA37670040A8
:1025F0008357478113070780A183A380F1968357F0
:102600004701C207C18393F707F0C207C183231AAA
:10261000F70073002030EFD21FB43765004041113E
:10262000814513050580EF403011371401409307B1
:1026300000400D49D1494C00130504C03EC24AC4B4
:102640004EC68564EF40806A938404804C00130575
:1026500004C04EC64AC423129100EF40206993057E
:102660000040130504C0EF404075A685130504C063
:10267000EF4060740545EF30600693050040130598
:1026800004C0EF4040730545EF304005A6851305B3
:1026900004C0EF4080720545EF304004A949130A99
:1026A00004C00569930500405285EF400071A6857E
:1026B0005285EF4040700545EF30400293050040E1
:1026C0005285EF40406F0545FD19EF302001E39B37
:1026D00009FC130504C093050040EF40006E93050C
:1026E0000980130504C0EF40406D0545EF20107FC1
:1026F00093050040130504C0EF40E06B0545EF2053
:10270000F07D93050980130504C0EF40C06A0545BC
:10271000EF20D07C91474C00130504C03EC6EF402B
:10272000E05C93050980130504C0EF400068410197
:102730006FD0BFA5EFD2DFA33764004081451305FA
:102740000480A3810196EF40207F13050480EF40B1
:10275000606AEFF05FEC83C711965D8D1375F50F1E
:1027600001C937350C000146814513050550292064
:10277000EF20D06F6FD01FA2EFD2FF9D0111AE846A
:102780002A8985452545328402C202C402C602C890
:1027900002CA02CC02CEEF40D03285453705400058
:1027A000EF401034371A014093090040714B8D4AB5
:1027B0004C0013050AC0231231015AC656C4EF401B
:1027C000E0528567938707804C0013050AC02312E7
:1027D000F1005AC656C4EF406051B7070040231CB1
:1027E0009100B76400403ECA0C08916713850480CD
:1027F000231EF1004AC8231D3101EF40C062854508
:1028000013850480EF40407309651306800CB705FB
:1028100002001305855BEF20B06809C909C885452A
:1028200013850480EF40A07AEFF0DFF00544A38128
:10283000819605616FD07F9583C73196638C0712AF
:10284000EFD27F9137640040AA8A2E8A1305048054
:102850008545EF40E07309651306800CB70502005B
:102860001305855BEF20D06383C711961375F50FB1
:10287000C98F91C705472381E1966FD01F91854588
:1028800013050480EF40006DB709030009691306C2
:10289000800C938519001305295DEF20706083C7B4
:1028A00011961375F50FC98F99C30947E9B701460A
:1028B0009305400D13050480EF406070370B07004F
:1028C0001306800C93052B081305295DEF20505D3E
:1028D00083C711961375F50FC98F99C30D4761BF53
:1028E000D68513050480EF40806C1306800C930599
:1028F0004B081305295DEF20B05A83C71196137555
:10290000F50FC98F99C31147BDB7D2851305048050
:10291000EF400068854513050480EF40A06313066F
:10292000800C938519001305295DEF20705783C72C
:1029300011961375F50FC98F99C315472DBF05461D
:102940009305400D13050480EF4060671306800C6B
:10295000938529001305295DEF2090549377F50F97
:1029600003C511965D8DE30A05F099462381D19642
:102970003E8521B705458280EFD2EFFD2E89137584
:10298000F50F8145EFF05FEB83C711962380A19689
:102990005D8D1DE5B705030009651306800C938561
:1029A00005041305255DEF20B04F83C711961375FD
:1029B000F50F2380A1965D8D19C525472381E196EA
:1029C000EFF05FD725A0B769004013850980EF407D
:1029D000605E2300A900854513850980EF4060599A
:1029E00083C7019603C71196D98FF9FB03C50196DA
:1029F000B7370020238FA7946FD02FF9EFD2CFF4F1
:102A000085476316F600EFF03FF76FD06FF72E891A
:102A100085453284EFF05FE2AA8435E17D14370A00
:102A20000300856AB76900401374F40F130A0A049F
:102A3000896B938A0A80938909809307F00F630357
:102A4000F4021306800CD28513852B5DEF205045D0
:102A500083C711961375F50FC98F95C71D4723813D
:102A6000E196AA8437650040130505808545EF404F
:102A7000405083C71196C58F13F5F70F59D5EFF066
:102A80007FCB268559B785476316F400D6854E85DA
:102A9000EF4040554E85EF40E0517D142300A900E2
:102AA0001374F40F050951BF83C7319691E38280F7
:102AB000EFD26FEAAA8A09654111AE891306800C2C
:102AC000B70502001305855BEF20903D83C7119683
:102AD0001375F50FC98F8DC329472381E19683C7ED
:102AE0001196C98F93F7F70F89C72AC6EFF09FC4D5
:102AF000324541016FD06FE93769004085451305C4
:102B00000980EF402045B7050300096A1306800CD1
:102B1000850513052A5DEF20B03883C7119613751C
:102B2000F50FC98F99C32D474DBF01469305400D41
:102B300013050980EF40A048370B07001306800CEF
:102B400093052B0813052A5DEF20903583C7119656
:102B50001375F50FC98F99C3314741B7D685130552
:102B60000980EF40C0441306800C93054B08130501
:102B70002A5DEF20F03283C711961375F50FC98FC8
:102B800099C3354799BFCE8513050980EF40204290
:102B90001306800C93054B0813052A5DEF20503077
:102BA00083C711961375F50FC98F99C3394735B788
:102BB000130509808545EF40C03B01450DB737350A
:102BC0000C0005468145130505506FF0FFBAEFD2A2
:102BD0002FDA41112E849305F1002A89B284EFF097
:102BE000BFD909ED8347F10093C4F4FF4A85E58F0F
:102BF000B365F400A307B100EFF01FEB41016FD004
:102C00006FD9EFD2EFD641119305F1003D45A307EF
:102C10000100EFF07FD611E98347F10085469387E5
:102C200077F993F7F70F63FCF60483A7819785077D
:102C300023ACF19603C7419709C70D4541016FD0F9
:102C40006FD525476363F7029305F1007945EFF0EF
:102C5000BFD21DC983A70198850723A0F19883A738
:102C6000C197850723AEF196D1BF8547238AF19698
:102C70000545EF20E07083C74197F9D77DBF23ACAE
:102C80000196238A0196EDB78347F1000D47094568
:102C90008D8BE395E7FA83A70198B735002031467D
:102CA00085079385050F1305200223A0F198EFF007
:102CB000FFD449D583A7C1970545850723AEF19673
:102CC000B5BFEFD2EFCA19441306F00F8545494549
:102CD000EFF0FFEF09C57D141374F40F75F4294567
:102CE000EF20D02119441306F00F930500084D453D
:102CF000EFF0FFED09C57D141374F40F6DF4194462
:102D00001306F00F9305E0084145EFF05FEC09C5AD
:102D10007D141374F40F6DF419441306F00F93052A
:102D2000C0054545EFF0BFEA09C57D141374F40FE3
:102D30006DF419441306F00F930540044945EFF074
:102D40001FE909C57D141374F40F6DF413351500D4
:102D5000A388A1986FD00FC4EFD28FC11306000FC4
:102D600081454145A3880198EFF07FE61306000FE7
:102D700081454545EFF0BFE56FD0CFC18280EFD2EE
:102D80002FBC83C7C19613075002B7390020B38701
:102D9000E702373400201387890941119386890996
:102DA00036C6BA970307048D23A4F196635D070026
:102DB0001306400281453E85EFD0EFBFEF30405B08
:102DC00041016FD0AFBB83C73196FDDB83C701994B
:102DD000E5DB83C721991304048D81E78D4723899F
:102DE000F198EF20B0088347F40003A701978346CA
:102DF000E400A2073307E540D58F2A8BE362F7FC96
:102E0000EFF03FE055FD373C0020930CCC0F3737F7
:102E100000201307070F13868C019307CC0F930430
:102E2000CC0F9443831507000907AE9694C391070E
:102E3000E399C7FE03C4D19603A741960504137412
:102E4000F40F8567A386819623A861973307EB402B
:102E500093877738E3F6E7F68840373D0020EF7038
:102E6000406B83A5C198EF60D07AEF70806488C012
:102E7000C840EF70006A83A58198EF609079EF7089
:102E80004063C8C08844EF70C06883A54198EF6074
:102E90005078EF70006288C493044D0E1386C4000E
:102EA00013074D0E814719C483A70C00B3C78702CF
:102EB000C207C1872310F7000907910CE314C7FE6E
:102EC000614681451305CC0FA3860196EFD0AFAEC6
:102ED00003A48196194623A26197130CC400E285CE
:102EE0002285EFD0EFAB130B84011946DA8562859A
:102EF000EFD00FABB735002019469385650F5A8583
:102F0000EFD00FAA83C701990547639EE708996729
:102F10006977138664009387871A130787E583967A
:102F2000040063DDD7062390F4008904E399C4FE0E
:102F3000930424011946A68513056400EFD04FA61B
:102F400079041946A2852685EFD08FA519469305E9
:102F50004D0E2285EFD0CFA483C72199FD1793F79B
:102F6000F70F2389F198E39D07E403A58196EF30DD
:102F7000204003C5C1969307500213065002133533
:102F800015002386A1963305F502B24781453E958B
:102F9000EFD06FA28D472389F1981DB5E3D7E6F8EE
:102FA0002390E40059B70947E398E7FA2285EF0038
:102FB000E0665DB7EFD22F9A832A0500032A450009
:102FC0002A84832985000329C500D6855685EF60AC
:102FD0005064AA84D2855285EF60B063AA852685A5
:102FE000EF60206BAA84CE854E85EF609062AA8543
:102FF0002685EF60006AAA84CA854A85EF60706101
:10300000AA852685EF60E068EF408078AA8503A551
:103010004187EF60901EAA84AA855685EF60705F95
:1030200008C0A6855285EF60D05E48C0A6854E8553
:10303000EF60305E08C4A6854A85EF60905D48C4A5
:103040006FD0AF94EFD24F90832BC500C445832A35
:10305000050083A90500032A450003AB45000329A9
:10306000850003AC85002A84A6855E85EF60705AD2
:10307000AA8CCE855685EF60D059AA856685EF70FB
:10308000C006AA8CDA855285EF60B058AA8566859D
:10309000EF70A005AA8CE2854A85EF609057AA855B
:1030A0006685EF70800448C4CE855E85EF607056FB
:1030B000AA8CD6852685EF60D055AA856685EF60F7
:1030C000405DAA8CE2855285EF60B054AA85668582
:1030D000EF60205CAA8CCA855A85EF609053AA8560
:1030E0006685EF70800008C0DA855E85EF607052FB
:1030F000AA8CE2855685EF60D051AA856685EF607F
:10310000D07EAA8CD2852685EF60B050AA856685D0
:10311000EF602058AA8CCA854E85EF60904FAA8533
:103120006685EF60005748C0E2855E85EF60704EAF
:10313000AA8BDA855685EF60D04DAA855E85EF6053
:103140004055AA8AD2854E85EF60B04CAA85568537
:10315000EF60B079AA89CA852685EF60904BAA8571
:103160004E85EF60005308C46FD08F81EFC25FFDC2
:103170002A8403A581997971AE843305A640328AE9
:10318000EF60204AAA8903C5140083C704002E8972
:1031900022055D8D4205418523AC4199EF60604178
:1031A0004E86CA86EF50E07803A6818383A6C1834A
:1031B000EF5020782A8D03C5340083C72400AE8CDD
:1031C00022055D8D42054185EF60A03E4E86CA8690
:1031D000EF50207603A6818383A6C183EF506075EC
:1031E0002A8C03C5540083C74400AE8B22055D8D35
:1031F00042054185EF60E03B4E86CA86EF50607322
:1032000003A6818383A6C183EF50A0722A8AAE8968
:103210006A86E6866A85E685EF50A0712A89AE84C3
:103220006286DE866285DE85EF50A0702A86AE86D5
:103230004A85A685EF4090262A89AE845286CE869E
:103240005285CE85EF50E06E2A86AE864A85A685E9
:10325000EF40D0242A86AE862A89AE84EF50606D76
:1032600003A6018483A64184AE8D2AC6EF50801147
:1032700003A6818483A6C1842A8BAE8A4A85A6854B
:10328000EF5040102A86AE865A85D685EF50103F03
:1032900003A6018583A64185EF4050202A8BAE8A84
:1032A0002A86AE866A85E685EF50A068EF702033E7
:1032B0005A86D6862ACADE856285EF508067EF700F
:1032C00000325A86D6862ACCCE855285EF5060666B
:1032D000EF70E030B24703A6818583A6C1852ACE70
:1032E000EE853E85EF50000A03A6018683A641863F
:1032F0002A8AAE894A85A685EF50A0632A86AE86C3
:103300005285CE85EF50903703A6818683A6C1866D
:10331000B7240020EF409018EF70602C4C082AD0A2
:1033200013850486EFF01FD213850486EFF09FC843
:10333000834714000347040093840486A207D98FAF
:103340002398F4008347340003472400A207D98F51
:103350002399F4008347540003474400A207D98F00
:10336000239AF40045616FC07FE1EFC2FFDD83C7A0
:103370006500B7340020AA89F19B93E727002383D7
:10338000F50003C721998D472E849384041263129C
:10339000F702EF20202F23AAA19823A0040023A244
:1033A000040023A4040023A6040023980400A38996
:1033B000019803C5319999471946130A1500330539
:1033C000F502137AFA0FA389419937390020930542
:1033D000490E2695EFC0DFDC8D47631CFA22834738
:1033E0006400370B0080854ACD9B2303F4007D1BCE
:1033F000914B034A640093972A00CE9788439377B2
:10340000CA00CE978C4333756501B3F56501EF6053
:10341000700D635BA00093F73A008A07137A3AFFB6
:10342000336AFA0023034401850AE3947AFD03A575
:10343000090093050000EF605014635E051C83AB28
:10344000818703ACC187373A0020938A4900130B68
:103450004A11C109130A4A1103A50A00E285910A1B
:10346000EF60301BDE85EF60D01AEF708004232000
:10347000AB00110BE39259FF83270A000347640056
:103480001309490EA98793F6F70092063D8B558FD5
:103490002303E40013D74700A303E40013D7C700B6
:1034A0002304E40003479400D183858B799BD98F53
:1034B000A304F40083274A0003479400A98793F6E6
:1034C000F7078606058B558FA304E40013D7770012
:1034D0002305E4000347B400BD8393F7F703137794
:1034E00007FCD98FA305F40083278A000347B400A3
:1034F00093D6A7409A061377F703558FB187A30594
:10350000E40013D78700A309E40003D74199039887
:1035100004002309F4002301E4022183A301E4024F
:1035200003474402C1839D8B137707FC1367370061
:103530002302E40203170900B306074113F6860FBE
:10354000D18FA182230AF400A30AD4000316290014
:103550008398240083467401B30716418D87230B9B
:10356000F400A183819AFD8BD58FA30BF400831601
:1035700049000395440083457401B387A64013D3E3
:1035800037401603FD89B3E56500A30BB400039330
:103590006400998793D58700230FF400B3070701D0
:1035A0009A977558B3C7070313F735009A97A587FD
:1035B00013F3F7030A0333676700A30FE40003471D
:1035C00004029983858B799BD98F2300F40203979A
:1035D0008400B3071601BA97B3C70703BA97034726
:1035E0000402A5878607058BD98F2300F402039771
:1035F000A400B387A600BA97B3C70703BA970347D7
:103600001402A58793F7F707137707F8D98FA3005C
:10361000F4026FC0FFB683AB418725B5EFC25FB53B
:10362000EF20C0042A86B735002037350020938567
:10363000450E1305A50EEFF07FB383C7C1961307A0
:103640005002B7350020B387E702938585093725F7
:10365000002013050586BE95EFF03FD16FC09FB3E4
:1036600083C7819B89EBEFC2BFB0EFD03FDA23A4C1
:10367000A18C6FC03FB2014523A4A18C828031C9C7
:10368000EFC21FAF2A84EFF0BFFD03C7818C230078
:10369000E40003C7918C83C7A18CA300E40023013D
:1036A000F40083A7419BA301F40013D78700C183D3
:1036B000A302F40083A7019B2302E4002303F40088
:1036C00013D78700C183A303E4002304F4006FC071
:1036D0007FAC8280EFC23FA8B73400209387048D6F
:1036E00003C717008946328A19839384048D931780
:1036F00016006305D7108D46630BD71285466318F5
:10370000D7029356F54133C7A600158FB386F40050
:1037100003C61602635DC70013D6F54183C62602B1
:103720003347B600118F6354D70081450145A697F2
:103730008389A7000389B70083C75401B389A9020D
:1037400003C74401A207D98F3309B90293D959405D
:1037500013595940BDCFB307290313172A002382F9
:10376000019A338439033E949387418BBA979C43E3
:103770006365F40085472382F19AEF10306F11E101
:103780000545E147B307FA02373600209306861451
:1037900093058614BE969C4289CF3307F54083C7B4
:1037A000540103C64401A207D18F6369F70C23A01B
:1037B000060083C7419A91CFE147330AFA02338664
:1037C000450100CA7D84232236012324260140CAF4
:1037D00008C28564138504802A991386F4FF814505
:1037E0004E95EFD02FFF2A841386F4FF81454A853A
:1037F000EFD04FFE320522956FC03F999356F541A9
:1038000033C7A600158FB386F40083C61602635330
:10381000D700014593D6F54133C7B600158FB3865F
:10382000F40083C62602E354D7F0814509B73387F5
:10383000F4001356F54103471702B346A600918ED4
:1038400063CCE602FD566343A00085463307D702EA
:103850003A953387F40013D6F54103472702B34660
:10386000B600918EE3C3E6FCFD566343B000854687
:103870003307D702BA9565BD0145E1BFD8429C46E2
:103880003387E902B307F9023E97E35407F2904AFF
:10389000D44A9357F441B307F602B386860233083D
:1038A0008602B69733368602B2970D46B307F60204
:1038B000B3060603333606038D82B2971396D701FB
:1038C000D18E3306E7028D873317E702E363F7EE05
:1038D0006394E700E36FD6EC2382019A01498149A2
:1038E000C9BDEFC2FF889387018C03D7470003D57A
:1038F000070083D52700B734002083D7670037340B
:103900000020130444959384841798C4034744000B
:10391000DCC4834734002207834614005D8F83474D
:10392000240088C0CCC0A207D58F998D01461D8D7B
:10393000EFF05FDA0347840023AAA19A834774005B
:103940002207834654005D8F83476400CC4488443B
:10395000A207D58F0546998D1D8DEFF0BFD723A8FF
:10396000A19A6FC03F8383C7819B638D0720EFC2FD
:103970008FFE37250200A381019A2381019AEFD09F
:10398000DFB03705020013050504EFD01FB0631F39
:10399000051C83C7119A8DC7373700201307078D81
:1039A0008347070093C6070893F6060893F7F707BF
:1039B000D58F2300F7008547A381F19A2381F19ADF
:1039C000A380A19A37850400EFD03FAC2A89631108
:1039D000051A83C7019A85CF373700201307078D53
:1039E0008347070093C6F7FF93F6060293F7F7FDA8
:1039F000D58F2300F700958393C7170013F51700A1
:103A0000EFD05FBF8547A381F19A2381F19A3705F3
:103A10000200130505082380219BEFD01FA7631B1D
:103A2000051483C7F1999DC3373700201307078D0D
:103A30008347070093C6F7FF898AF59BD58F23003C
:103A4000F7008547A381F19A2381F19AA38FA1986A
:103A500037850200EFD07FA32A89631F051083C733
:103A6000E1999DCF373500209307451303D72700F1
:103A700013054513019B136767002391E70003C7F4
:103A80000700137707F82380E70003C7919C1337DB
:103A900017002382E700EF20E01785472381F19A82
:103AA000416513050510238F2199EFD01F9E2A89A8
:103AB00071E583C7D199A1C3B73500209387058DE0
:103AC0001385A7FF9385058D9306F00F03C7B701F4
:103AD00013061700A38DC7006315D700FD17E397E2
:103AE000A7FE373500201946D9051305A565EFC097
:103AF0002FEBEFC07FFFB737002083C79765A38EFA
:103B00002199BDEF41650505EFD03F982A892DE940
:103B100083C7C1998DCF373500209307451303D74D
:103B20002700054A13054513019B136737002391AE
:103B3000E70003C7070023824701137707F81367DD
:103B400057002380E700EF20E00C2381419B83C7CF
:103B5000219A238E219981C70545EF10700283C7F2
:103B6000319A99C3EFC05FF86FC02FE2054589BD58
:103B7000054971BD0545D9BD05491DB70549A5BF15
:103B80000549F1B78280EFC2AFDE370502001105AB
:103B9000EFD0BF8F1DED83A7C19A9DC7EF10902E68
:103BA00083A7C19A1D8D9307400663FDA70083C7B5
:103BB000819B91E731651305C5B7EF60D054854708
:103BC000238CF19A6FC00FDDEF10D02B23A6A19AA2
:103BD000D5BF238C019A23A6019AEDB7EFC24FD926
:103BE00083A7419C850723A2F19C81E7054723AC6D
:103BF000E180EF10302983A7819A6300F502EF106E
:103C0000702883A7818183A6819A958FAA9723AC78
:103C1000F180EF10302723A4A19AEFF0DFF6EFE058
:103C20000FB7EFF0CF95EFF01FD46FC0AFD6EFC254
:103C30002FD42A84AA8513050020EF308068A2853E
:103C40000545EF302066A2850545EF306069A28505
:103C50000945EF30E068A2850565EF308066A285F2
:103C60001165EF300066B7040240A2851385440455
:103C7000EF209050A28513858405EF20F04FA28598
:103C800013858400EF20504FA28537050040EF30A8
:103C9000101137050040A28513050540EF303010A4
:103CA000B7440140A28513850480EF30F0262286B8
:103CB0009305000413850480EF3090276FC08FCDEB
:103CC000EFC20FCB371702401C43B70608000111A3
:103CD000D58F1CC30545EF30A05071651305052035
:103CE000EF301028373500201306500281451305A8
:103CF0004565EFC04FCC31651305C5B8EF60B040E6
:103D000085457145EF30E05B854513050020EF30B8
:103D1000405B85450545EF30E05885450545EF306A
:103D2000205C85450945EF30A05B85450565EF3092
:103D3000405985451165EF30C058EF101015EF1050
:103D4000D0112945EF10901BEFC01FF06800EF3035
:103D5000604AEFD08FDFEF10F02BEF10D020EFD0C4
:103D60000FB9EF20A00BEF10200BEF104066EFE033
:103D70001FE5EFF0AF80EFE0DFF4EFC04FCFEF30A3
:103D8000A03EAA850545EFC01FBE05616FC08FC06C
:103D9000EFC26FBC0545EF30002CEF10607BEFF0F9
:103DA0003FF283A501823165130505BAEF6030212A
:103DB0003145EFD08FED2384A19CEF0090760D6507
:103DC0001305E567EF202050EF20005B03C5819CC1
:103DD000B73400203744002013351500EFD02FF002
:103DE000EF1080031304C40E93844465054BEF1059
:103DF000D04DEFF01FAFEFF0BF8683A7818C13D7B4
:103E000087002300F400C1832301F40083A7419BB2
:103E1000A300E400A301F40013D78700C183A30229
:103E2000F40083A7019B2302E4002303F40013D7CB
:103E30008700C1832304F400A303E400EFF01FDA3A
:103E400083C7218A81CF23826401EF208062EF2023
:103E50008053EF204041EF10502E51BFA382040049
:103E600023820400FDB782808345D5000345B50059
:103E70001306F00F6FE0BFD5828082808280B73753
:103E800000209387871823A807022396070223A4FC
:103E900007028280EFC2CFAD37340020AA84EFF052
:103EA0001FFE1309841889679387071A13062002D7
:103EB0009385B400130529002314F418EFC04FAE06
:103EC00093074002130584182316F902EF00106AC5
:103ED0006FC04FACEFC2CFA92A84EFF05FFA03475F
:103EE000A4003735002093078518930600F8A380B7
:103EF000E700130585180D472380D7002381E700CD
:103F00002396E702EF0090666FC0CFA8EFC2AFA480
:103F1000AA84EFF0DFF603C7A40083C9B400373AE0
:103F2000002093078A18930610F82380D700A380F7
:103F3000E70023813701854713098A18638EF9004A
:103F40008947638AF9048D4713058A182316F902F5
:103F5000EF00D0616FC06FA33734002013044465B5
:103F600019469385C4001305C400EFC06FA319461A
:103F70009305640013053900A3093401EFC04FA273
:103F8000B1656146938585B013059900EFC04FA1D7
:103F90009307100255BFB7350020414693858566CB
:103FA00013053900EFC0CF9FCD4779BFEFC24F9CBB
:103FB0002A84EFF0DFECB737002083C7F78EADCF50
:103FC0000547638FE7060D4793079004B725002048
:103FD0009386C5882380E6000347A4003734002079
:103FE000A380F60093078418930620F82380D70057
:103FF000A380E700B7370020938747651387C588FC
:104000009386A7FF9304841803C6B700FD1705071E
:10401000A301C700E39AD7FE31469385C58813856F
:104020002400EFC0EF97B947130584182396F402D4
:10403000EF00D0536FC00F960D479307800479B7F8
:1040400011479307300359B7EFC28F922A84EFF0DC
:104050001FE30347B4008D46930707FD93F7F70F5F
:1040600063E4F600A38AE1800347A400373500200B
:1040700093078518930600F8A380E70013058518B9
:1040800009472380D7002396E702EF00304E6FC028
:104090006F90EFC2EF8D2A84EFF07FDE8347A4009C
:1040A000B734002013848418B7250020130730F894
:1040B00039469385C587130524002300E400A30037
:1040C000F400EFC0EF8DC147138584182316F40266
:1040D000EF00D0496FC00F8CEFC28F892A84EFF0B8
:1040E0001FDA0347A4003735002093078518A38003
:1040F000E7000547930600F82381E70013058518BC
:104100000D472380D7002396E702EF0030466FC0AB
:104110006F88EFC2EF852A84EFF07FD60347A400B3
:104120003735002093078518930600F8A380E70031
:10413000130585180D472380D70023810700239698
:10414000E702EF00B0426FC0EF846FF09FFC6FF0AA
:104150005FFC6FF01FFCEFC20F804111AA84EFF0EB
:104160001FD29385B4002E852EC6EFC03FE583C7CE
:10417000F4007547B2452A8975446364F70013F467
:10418000F70F83C7A400B739002037350020130785
:1041900000F99384891815461305A5182380E400B7
:1041A000A380F400EFB0DFFFB735002022869385AF
:1041B000F5184A85EFC0DF8B1D041374F40F1385C7
:1041C000891823968402EF00703A41016FB0FFFB1B
:1041D000EFB21FFA41112A84EFF07FCA1305B40031
:1041E000EFC0DFDD0346F400930504018546AA8491
:1041F00032C62EC4EFC09F923246A2452685EF10EC
:10420000302E0347A4003735002093078518930606
:1042100000F8A380E700130585180D472380D70019
:10422000238107002396E702EF00503441016FB06D
:104230007FF6EFB2FFF32A84EFF07FC40347A400B8
:104240003735002093078518930600F8A380E70010
:104250001305851809472380D7002396E702EF004E
:10426000F0306FB03FF36FF0DFFC6FF09FFCEFB208
:104270003FF02A84EFF0BFC00347A4003735002089
:1042800093078518930600F8A380E70013058518A7
:10429000130740022380D7002396E702EF00102D7A
:1042A0006FB05FEFEFB2DFEC2A84EFF05FBD034742
:1042B000A4003735002093078518A380E700130575
:1042C00085180947238007002396E702EF00102A8C
:1042D0006FB05FECEFB2DFE92A84EFF05FBA03471B
:1042E000A4003735002093078518930600F8A380B3
:1042F000E7001305851859472380D7002396E70266
:10430000EF00D0266FB01FE9EFB29FE62A84EFF0EE
:104310001FB70345B400A380A19CEF10800F034793
:10432000A4003735002093078518930600F8A38072
:10433000E7001305851809472380D7002396E70275
:10434000EF00D022B73700200547A38CE7646FB099
:104350007FE4EFB2FFE12A84EFF07FB20347A400CD
:104360003735002093078518A380E70003C7119C09
:10437000930600FB130585182381E7000D47238072
:10438000D7002396E702EF00701E6FB0BFE0EFB2D8
:104390003FDE2A84EFF0BFAE0347B4008346A4009B
:1043A000238EE19A373500202388E19893078518FA
:1043B000130600F82381E700130585180D472380B5
:1043C000C700A380D7002396E702EF00301A6FB032
:1043D0007FDCEFB2FFD9AA84EFF07FAA03C7B40055
:1043E000373900202388E198130489181307001433
:1043F0001385C19B2311E400034705001DE783C615
:10440000A40005472388E198930700F82300F400EF
:104410002300E500A300D4008D4713058918231657
:10442000F402EF00B0146FB0FFD611469385B400CC
:104430000505EFB0FFD683C7A400130700F82300DB
:10444000E400A300F4008947C9BFEFB27FD2AA8479
:10445000EFF0FFA203C7C4009306000203C5B40037
:104460009307000263E3E600BA8703C7A40013F4CE
:10447000F70F37390020B7350020930489189306C9
:1044800000FC22869385C5182380D400A380E40015
:10449000A381F4002381A4001104EFE02FD613744C
:1044A000F40F1305891823968402EF00300C6FB0C7
:1044B0007FCEEFB2FFCB2A84EFF07F9C0347B4009E
:1044C000B7270020373500202384E7940347A40052
:1044D00093078518930600F8A380E7001305851855
:1044E00009472380D7002396E702EF0030086FB01A
:1044F0007FCAEFB2FFC72A84EFF07F980347A4007A
:104500003735002093078518A380E70013078061E3
:10451000930600FD2391E7001305851811472380BA
:10452000D7002396E702EF0070046FB0BFC6EFB26A
:104530003FC42A84EFF0BF940347A400373500201E
:1045400093078518A380E7005147930610FD238148
:10455000E700130585180D472380D7002396E7024F
:10456000EF00D0006FB01FC3B737002011679387EB
:10457000C71B130747ED98C311671307C7F0D8C3CC
:1045800011671307C7FA98C7116713078704D8C7BD
:1045900011671307270998CB11671307870DD8CB2D
:1045A0001167130767E698CF11671307C7E7D8CFDE
:1045B00011671307271198D3116713076715B8C33D
:1045C00011671307071DF8C311671307A714916636
:1045D000B8C7938686E71387070814C39166938646
:1045E00046E954C391669386262314C79166938641
:1045F000E61414CB91669386261554CB9166938668
:10460000662614D391669386E62654D391669386E4
:10461000462A14D791669386462D54D79166938681
:10462000863034C391669386263574C3916693862B
:10463000A6E734D31167938707101307E73898C3A9
:1046400011671307273DD8C31167130787E698C77B
:1046500011671307A744D8C711671307274B98D3CF
:1046600011671307274FB8C311671307A726F8C3AD
:1046700011671307E752B8C7828083C7819C99C727
:1046800008419305650009056FD06FD58280EFB2B0
:104690003FAE2A8483454400084137370020D115B6
:1046A00093F5F50F2302B4008347A5001307C71B3A
:1046B0008A07BA979C4399C3829719A01C43EDFFC0
:1046C0002285EFF09FFB6FB0FFAC034745008547A5
:1046D00063F3E7081C41C1C383C717001547FD17E3
:1046E00093F7F70F6369F706EFB29FA831678A0760
:1046F000130707BBBA979C43373400208287B7075C
:1047000000031305446193871718B73500201CC1B7
:1047100019469385A5651105EFB09FA885462946E2
:10472000930544611385816AEF0050036FB09FA623
:1047300093071028231AF46085460946D5B79307D6
:104740001038CDBF93071048F5B793071058DDB761
:1047500093071068C5B78280B73700201387475D7D
:10476000A300A700F956138625002300D70013766F
:10477000F60F85469385475D1385816A6F00007E3D
:10478000EFB21F9FB734002037340020B735002028
:104790001304445D1306D0039385058D1385745D62
:1047A00023010400EFB0DF9F9305E0030545EFF020
:1047B000BFFAB735002085471306D0039385D590FF
:1047C0001385745D2301F400EFB09F9D9305E00312
:1047D0000545EFF07FF8373500201306300381459B
:1047E0001305155EEFB03F9DB73500208947294678
:1047F0009385A5941385745D2301F400EFB05F9A4F
:10480000AD450545EFF05FF59307F03F8945054558
:104810002311F400EFF05FF46FB0DF97EFB25F9514
:104820000C411307F00F83C7150003C4219C639646
:10483000E70483C725002A890147639C870003C7D3
:10484000350085476314F700EFC00FAAEFC06FB8BB
:104850000547B73700209387475D2381E70003278B
:10486000090089450945034737002381019CA3813D
:10487000E700EFF07FEE6FB0FF911307D003B3872F
:10488000E70237350020130640081305058D1D8EFD
:104890003E956374C7001306D00389050504EFB085
:1048A0003F902381819CC1BFEFB29F8C2A84084135
:1048B0000505EFC0AFF00C40AA843735002015463F
:1048C00085051305655DEFB0BF8D1C40B735002031
:1048D000268503C657009385B55DEFC06F991C40D0
:1048E0000D4583C55700950593F5F50FEFF0DFE60D
:1048F0006FB05F8AEFB2DF872A8408410505EFC0F9
:10490000EFEB0C40854603C655009905EFC00FA19B
:10491000B7370020238BA75C85451145EFF0DFE317
:104920006FB05F87EFB23F8337340020AA896146BA
:1049300081451305C45BEFB01F88014AB73A0020D8
:1049400063143A0181440DA01545EF00305B19490D
:10495000EFE02FABAA841545EF00505AA9C87D1986
:104960001379F90FE31609FE1304C45B0840EF50F6
:10497000503A83A5C198EF50C049EF50903308C01A
:104980004840EF50103983A58198EF508048EF5090
:10499000503248C00844EF50D03783A54198EF50BB
:1049A0004047EF50103108C426856FB00FFE9307C3
:1049B000C45B13870A0F138687019443831507008E
:1049C0000907AE9694C39107E319F6FE050A8DBF59
:1049D000EFB26FF8EFF01FF52A8A63170516B734A8
:1049E00000209384C45BC844EF50B03283A5018893
:1049F000373400201304C499EF50200083A5418868
:104A0000EF4030498347140803470408AA8AA207E5
:104A1000D98F3305F040EF50D02FAA855685EF404F
:104A20005047EF501029931705012300A40288482E
:104A3000C183A183A300F402EF50B02D83A50188A8
:104A4000EF40B07B83A54188EF40B04483473408F2
:104A500003472408AA8AA207D98F3305F040EF50F4
:104A6000502BAA855685EF40D042EF5090249317E3
:104A700005012301A402C848C183A183A301F40254
:104A8000EF50302983A50188EF40307783A5418816
:104A9000EF4030408347540803474408AA8AA207DE
:104AA000D98F3305F040EF50D026AA855685EF40C8
:104AB000503EEF501020931705012302A4028840B6
:104AC000C183A183A302F402EF50B02483A501881F
:104AD000EF40B07283A54188EF40B03BEF50701DAE
:104AE000931705012306A402C840C183A183A3062E
:104AF000F402EF50102283A50188EF40107083A5C7
:104B00004188EF401039EF50D01A93170501230761
:104B1000A4028844C183A183A307F402EF50701F4D
:104B200083A50188EF40706D83A54188EF40703602
:104B3000EF50301893170501C183A1832308A40205
:104B4000A308F402EFB07FFC52856FB00FE4EFB220
:104B50002FE25145EFF0DFE703C72196B73700207A
:104B60009387475D2381A70089451545A381E70009
:104B7000EFF09FBE6FB00FE2EFB28FDF1387018CB3
:104B800083560700B737002093874795A380D70047
:104B9000A1822381D7008356270001468145A38146
:104BA000D700A1822382D7008356470003576700AE
:104BB0002165A382D700A1822383D700A383E700C6
:104BC000854621832384E70023800700EFB01FF58B
:104BD000B7370020238BA75C85451D45EFF0DFB775
:104BE0006FB04FDBEFB2CFD8B73500209385755D3E
:104BF0003D45EFD07FD8B73700201387475D2301AD
:104C0000A70003A781819387475D01E7054723AC90
:104C1000E18083A6818103A7419C3735002033576B
:104C2000D7021146938501981305955D2382E7000D
:104C3000EFB00FD73735002011469385C197130584
:104C4000D55DEFB0EFD5AD451305D00FEFF0DFB078
:104C50006FB04FD4EFB2CFD10145EF00607229455C
:104C6000EF00D029B707EFBE37E700E093870708CA
:104C70003CC76FB02FD2B7370020130710108945FB
:104C80001305F00F239BE75C6FF01FAD1441054641
:104C9000938716001CC1834745006373F608EFB283
:104CA0002FCDFD172302F50083C716009D4663E054
:104CB000F60295CBFD1793F7F70F994663E5F602D9
:104CC000B1668A07938686BCB6979C438287130792
:104CD000E00F638EE7021307F00F6387E702130705
:104CE000D00F6389E7026FB0EFCAEFF07FA9E5BF8D
:104CF000EFF0DFB2CDBFEFF03FBBF5B7EFF09FBFF6
:104D0000DDB7EFF0DFE4C5B7EFF0FFF6E9BFEFF096
:104D10007FF4D1BFEFF01FEDF9B7EFF0FFE5E1B79A
:104D200082806FF07F84EFB2AFC41C41130700088C
:104D300083C707006389E702636AF7000547638E4C
:104D4000E7004147638EE7006FB0CFC41307E00F61
:104D5000E39CE7FEEFF09FF3C5BFEFF05F93EDB785
:104D6000EFF0BF91D5B7EFF05F96F9BF0346C502EC
:104D7000AA8581461385816AD5A2EFB26FBF411122
:104D80002A848545054502C002C202C402C6EF203E
:104D9000405385450545EF2020031149B14489471B
:104DA0000A853EC04AC226C422C6EF10D042BD4585
:104DB0000945EF206001A1670A853EC04AC226C4AA
:104DC00022C6EF10504199450545EF10F07F93073B
:104DD00000040A853EC04AC226C422C6EF10B03F76
:104DE0009D450545EF10507E930700080A853EC09B
:104DF0004AC226C422C6EF10103EB9450545EF1041
:104E0000B07C91670A853EC04AC226C422C6EF1014
:104E1000903C41016FB00FB8EFB28FB5411137151B
:104E2000014091474C00130505C03EC62312F10016
:104E3000231301002314010023150100EF10106B50
:104E400041016FB02FB5EFB2AFB20545EFF0FFF201
:104E50000545EF20E0380145252313054006EF0006
:104E6000F00713051006EF20404D854719CD054585
:104E7000EF00D00889450545EF2000280545EF00E3
:104E8000F0070145EFF07FEF81473E856FB08FB0AF
:104E90000DCDEFB24FAC2A84AE8405458DC5328A64
:104EA00081452D4613059400B6893A89EFB0AFB01D
:104EB000854704C023224401230534012304F40060
:104EC000A308240101456FB04FAC05458280EFB2C5
:104ED0002FAA9304F00F35CDADCD1C412A84B5CB5C
:104EE00083440501B5E80347A5005C4563D6E706A2
:104EF0008347150113F9F70F6374F6001379F60F62
:104F000085471307C400AF27F7005C44834794002C
:104F10000347A400850793F7F70F63E3E700814792
:104F200003451401A304F4004A86B307F5020840C0
:104F30003E95EFB0EFA6034794005C40BA972380FC
:104F400027018347A40058446345F7008547230899
:104F5000F40026856FB00FA48544E5BFEFB24FA1E2
:104F60001309F00F59C9D1C91C412A84D9C7034973
:104F70000501631709080347A5005C4563D2E708EC
:104F800083471501B2846365F600FD1793F4F70FAC
:104F900085471307C400AF27F7005C44834794009C
:104FA0000347A400850793F7F70F63E3E700814702
:104FB00003471401A304F40026863307F7021C40BC
:104FC0008504BA972380D7000347940083471401D0
:104FD0000840B387E70285073E95EFB06F9C034713
:104FE00094005C40BA97238097008347A4005844FC
:104FF0006345F70085472308F4004A856FB08F9911
:105000000549E5BFAA8729C518411305F00F39C323
:10501000D847014521C37D579386C7002FA7E600D7
:10502000D84703C7870083C6A70005071377F70F84
:105030006363D70001472384E70003C7070101CB5F
:10504000D847B326D70093C616002388D70082809E
:105050001305F00F8280EFB2AF9105650111854510
:10506000110502C002C202C402C602C802CA02CCB2
:10507000231E0100EF20E024930700082310F10015
:1050800037150140E1473EC48A858D4713050580E9
:105090003EC2EF10B045B7C704013EC6B7070002D5
:1050A0003ECA930700023ECC6C009D473735014055
:1050B000231EF10002C8EF20202B05468945373515
:1050C0000140EF20E03105616FB0CF8CEFB2AF88C7
:1050D00079712A84AE89328981451306C00248005D
:1050E000B684EFB04F8D85450545EF20A01B228586
:1050F000EF100077C1473EC6930700083ECC9307E8
:1051000000103ECE4C00856722854EC24AC426C898
:105110003ED402CA02D002D202D6EF10700245611C
:105120006FB0AF86B70600014111014781479385F3
:10513000C181FD166148137615002E9603460600C0
:1051400005813316E600D18F0D07F58FE31507FFB4
:105150001395070141812396A19CC1831375F50F17
:105160009386C19C2381A6002386F19C83D7C19C92
:1051700042055D8D41018280EFA2FFFD8D4AB3049F
:1051800055033734002032851304C4672E8AB6894C
:10519000EFF05FF9935785001389A4003309590391
:1051A00022992300A9004181A300F9002301A9004D
:1051B0001389B40033095903B1045285EFF09FF607
:1051C00093578500B384540322992300A900418199
:1051D0002301A9004E85A300F900EFF0BFF4935717
:1051E000850026942300A4004181A300F40023013C
:1051F000A4006FA09FF9EFA23FF52A8B373500205E
:105200001306301581451305C567B7340020EFA09C
:105210009FFA014481499384048D138AC1778D4B91
:10522000054C8347AA0003C90400834A8A0063CA65
:10523000F90EB737002083C66765930740061384CD
:10524000FAFFB386F602133414000A042285131BF6
:105250008901135B8B419309140093F6F60F368690
:10526000B685EFF07FF19306400663530B0081464D
:105270003686B6854E85EFF03FF083C6919C930746
:10528000400613053400B386F60293F6F60F368611
:10529000B685EFF07FEE634C0B0083C7419781CB5F
:1052A000814601469305800C4E85EFF0FFEC1379A3
:1052B0000902090481466319090083C7140093F7A2
:1052C0000702DDCB93064006014681452285EFF0BB
:1052D000BFEA83C7C18F81CB814601469305400653
:1052E0002285EFF07FE9854711446393FA0031444A
:1052F00083479A008DE783C6940503C6840583C55A
:10530000740513054400EFF03FE783C6840603C627
:10531000740683C5640613055400EFF0FFE56FA023
:105320003FE61379290013F5F90F63140900631997
:105330000B00814601468145EFF01FE48509D5B594
:10534000B3077403A69783C6970203C6870283C573
:105350007702EFF07FE263860A00638A8A01050420
:10536000F1BF93A7490093C717003E94C1BF93872D
:10537000C9FF93B74700C5BF814613064006B1B7C2
:10538000EFA21FDF37040240AA84814513050403FE
:10539000EF10805E2685EFF01FE6B737002013057B
:1053A00004039387C7675CC583C761780D4785454C
:1053B000B387E702D107B387E7025CC1EF10C05B98
:1053C000854537350140EF10D07F6FA0BFDCEFA2DD
:1053D0003FDAEFF05FC80945152683C761780D47AE
:1053E0008D46B387E70237360020B73501403705D1
:1053F00002401306C667B10513050503D107B3863E
:10540000D702EFF0BFCC0545EFF09FF701456FA045
:105410007FD8A387A19C828013050020EF10205B1A
:105420000DC113050010EF10C05A37050240814529
:1054300013050503EF104054814537350140EF1047
:10544000507873002030411102C43717024002C661
:105450001C43C16637060200D58F1CC3B716024035
:1054600015679C42F18F3EC6A24785073EC4B247EE
:1054700081E7A247E397E7FEB71702409C4337074F
:105480000200F98FC9C385473EC632478547631E70
:10549000F706B72702409843B706C1FFFD1613670A
:1054A000070198C39843719B98C3984313672700DB
:1054B00098C3B7170240D843D8C3D843D8C3D843FA
:1054C000D8C3D843758FD8C3D843B7061D00558FAE
:1054D000D8C39843B7060001558F98C3B70600029A
:1054E0009843758F75DFD843B7160240719BD8C3B8
:1054F000D84313672700D8C32147DC42B18BE39E12
:10550000E7FE4101828002C649B701A0B7170240F9
:105510009843B706FFF81367170098C3D843758FF1
:10552000D8C39843B706F7FEFD16758F98C3984306
:10553000B706FCFFFD16758F98C3D843B70681FFE9
:10554000FD16758FD8C337079F0098C76FF0BFEF60
:10555000371702405C43A146B18B6391D7065C4389
:1055600054434166C983BD8BF18E890781EE37476D
:10557000024003270780418B19CB37177A001307A6
:10558000072011A85843B7060200758F7DD737173B
:105590003D0013070790B387E702371702405443D3
:1055A00037270020130787899182BD8A36970347E2
:1055B0000700B3D7E70023A0F1828280B7177A00F3
:1055C00093870720D9BF6FF01FE885453705004056
:1055D000EF20C0068547631CF50083A7819D8545A4
:1055E00037050040850723ACF19CEF20A00773002E
:1055F0002030EFA2FFB70111930770043ECA4C0898
:105600009307703E370500403ECCEF10D05E054654
:10561000854537050040EF10B07B854537050040D4
:10562000EF10F0779307C0022316F1008947230794
:10563000F100680085473EC8EF10F022956737E714
:1056400000E09387A75C7CC3B207B706002CB18348
:10565000D58F7CD305616FA0FFB303A7019D11E730
:10566000054723A8E19C6FF0DFF8828083A7819D26
:105670001307803EB387E702370700400355470210
:105680003E95828003A5819D828083A70182371782
:105690007A0013070720B3D7E702238AF19C8280A0
:1056A00019E501458280014541016FA0BFAEEFA21F
:1056B0003FAC41112A84AE843289EFF03FFB2AC609
:1056C000268502946DF1EFF07FFAB2471D8DE379E4
:1056D000A9FE2685029413351500F9B7EFA25FA93C
:1056E00041112A84EFF09FF82AC6EFF03FF8B24745
:1056F0001D8DE37CA4FE41016FA0DFA983A7819DDE
:1057000041113EC683A7819DB246958FE37CF5FE8D
:105710004101828003463500930645000147137618
:10572000F6079D4503C80600B357E6409E07B3E75A
:1057300007012380F60005078506E315B7FE8347BA
:1057400025000347B50095838D8B93967700558F81
:10575000A305E5000347C5009A0793F707F8D98F1B
:105760002306F5008280EFA2BFA079711306C00264
:1057700081454800EFA03FA437040240814513054E
:105780004404EF10601F13054404EF10600DB7448C
:105790000140938744803EC2C1473EC6930700083C
:1057A0003ECC4C008567130544043ED402C402C8B5
:1057B00002CA02CE02D002D202D6EF106018814592
:1057C00013058405EF10401B13058405EF104009F5
:1057D000B7470020938787F13EC4930700183EC85F
:1057E000930700023ED24C008967130584053ED41E
:1057F00002C6EF10E014130584058545EF10C017AD
:1058000005469305000413850480EF10707245610E
:105810006FA05F98EFA2DF9501118545114502C287
:1058200002C402C602C802CA02CC02CEEF1070291E
:1058300085451165EF10F028930700202312F10031
:10584000371401408D473EC44C00E14713050480E6
:105850003EC6EF10A049930700402312F1004C0010
:1058600093078004130504803EC6EF102048B7C795
:105870002D00374401409387076C3EC80C08B707DA
:105880000C00130504803ECC02CA231E0100EF1059
:10589000505E1305048093050004EF10906B130510
:1058A00004808545EF10506737460020B74500203B
:1058B00037450020354793060004130686859385F7
:1058C00085BD13054580EFF0AFDC37460020B745B6
:1058D00000203735002035479306000413068681E3
:1058E000938585891305057FEFF08FDA05616FA039
:1058F0007F8AEFA25F86B74901402A89AE8413856B
:1059000009809305000437040240EF1090641305EA
:1059100044048145EF104006232824051305440460
:1059200044C18545EF1040050546930500081385E1
:105930000980EF10F05F6FA05F85EFA27F8383C7C0
:10594000619E9DCBB74401409305000413850480FC
:10595000EF10705F05C19305000413850480EF10FC
:10596000505F01469305000813850480EF10505CDA
:105970002383019E6FA01F82B73700201387077F04
:105980004C479387077FFDD503C68700354503C87D
:1059900097003305A602374700201307878983C67F
:1059A000A7003A95130718006376C802918E939565
:1059B0000601C181D8C72384070023880700B547A3
:1059C000B385F502C205C181EFF0BFF2854723839D
:1059D000F19E4DB7C2051377F70FC1816363D700FE
:1059E00001472384E70023A60700C1BF45C501473F
:1059F00081471D46B306F50083C6460093C5770070
:105A0000850793F60608B3D6B640558F1377F70788
:105A1000E392C7FE834735009306D50093F707F856
:105A2000D98FA301F5008347C5000347B5009987C7
:105A30001D83898BD98F0347250096071377F7F9C4
:105A4000D98F2301F5009307450003C70700850799
:105A50001377F707A38FE7FEE399F6FE8347050068
:105A60001307250093F7F707034607000507B18FD3
:105A700093F7F707E39AE6FE03472500A306F50030
:105A80001377F7072301E500034735001377F7077E
:105A9000A301E50082801DC583470500130725008B
:105AA0009306D50093F7F707034607000507B18F64
:105AB000E31CD7FE0345D5001375F5071D8D33355F
:105AC000A00082801305F00F8280EFA2EFE7370578
:105AD000024013058505EF00706B2392A19E03D64B
