:100000006F60E04D130000001300000013000000BB
:100010001300000013000000130000001300000094
:100020001300000013000000130000001300000084
:08003000130000007300100032
:100038006FF09FFC000000006F0060186F00A01AAE
:1000480000000000000000000000000000000000A8
:100058000000000000000000000000000000000098
:100068006F604047000000006F60C046000000005D
:100078006F6040466F6000466F60C0456F608045A6
:100088006F6040456F6000456F60C0446F6080449A
:100098006F6040446F6000446F60C0436F6080438E
:1000A8006F6040436F50A0376F60C0426F608042FE
:1000B8006F6040426F6000426F60C0410000000006
:1000C8000000000000000000000000006F60804099
:1000D8006F6040406F6000406F60C03F6F60803F5E
:1000E8006F50004F6F2080056F60C03E6F60803E8C
:1000F8006F60403E6F60003E6F20A04F6F60803D94
:100108006F60403D6F60003D6F60C03C6F60803C39
:100118006F60403C6F60003C6F60C03B6F00001D2B
:1001280000000000000000000000000000000000C7
:080138000000000000000000BF
:10014000397101436EC619A0397141536AC866CA34
:1001500062CC5ECE19A0397101535AD056D252D416
:100160004ED64AD826DA22DC06DE3301614082828E
:1001700041114AC026C222C406C68282B24D410144
:10018000024D924C224CB24B4101024B924A224A00
:10019000B2494101024992442244B2404101828065
:1001A0002A8309CA83830500230073007D16050393
:1001B00085056DFA82802A8311C62300B3007D165F
:1001C000050365FE82800145EF50601C3717024031
:1001D0001C47B7068000D58F1CC7EF50A03F37E7FC
:1001E00000E03C4793E787003CC77300203073274B
:1001F000203423AAE188F326103483A7418923A859
:10020000D188372700201307473313D68700A30070
:10021000C70413D607012301C70413D68701A3011E
:10022000C70413D68600A302C70413D6060123030E
:10023000C70413D686012300F7042302D704A303BF
:10024000C70463CD07000D476382E7026375F700BB
:10025000F1176365F70091067390163437E700E0F5
:100260003C4793E707023CC77300203001A0EFF240
:100270003FF011458545EF70A005B74702409387D1
:100280000780984301451367470098C303A701827D
:10029000B7A74A04938707206309F700B777DC0202
:1002A000938707C06315F7000545EF60F07085453B
:1002B0000565EF700000F9BD37370240930700FC79
:1002C0002306F7409387C173C207C1832318F74001
:1002D0009387C16B23ACF1A0C207C183231AF740F7
:1002E00089472309F742230BF74293878189A3802B
:1002F00007008280011122CE26CC4ACA4EC852C6BF
:1003000056C43734024003476440834774409376B1
:10031000F70F098B6304075E93F7F70F13F70703D3
:10032000930500026302B70493060003630FD71618
:1003300021E713F7F703630007128546631ED70210
:1003400093F7070495CB834764431385416993C7AB
:100350000708230BF4420356844083A581A113763A
:10036000F60FEF40B03709A893F7F7036384E7026D
:1003700013071002638EE70AB73702400947238349
:10038000E7407244E2445249C249324AA24A0561F6
:100390007300203083D7618A99E78347244393F71A
:1003A000370F2309F44283C7C18A93F70706E9F799
:1003B00083C7D18A954613F7F70F638FD704994700
:1003C000E31CF7FA03D7618A9307F00313040004D0
:1003D00063E6E70003D4618A4204418003A9018BEC
:1003E0002286CA851385C173653B83D7618A2299AA
:1003F00023A8218B818FC207C1832393F18A1374B1
:10040000F40FB73702402388874203C727431347B7
:1004100007042389E7428DB7B736024003C7364049
:1004200083C7418A13770708D98FA381F640A9B7FC
:100430008347644393F7C70F93E72700230BF442E6
:100440008347644393C70704230BF442938781894E
:10045000A380070015B793F70704E38F07F083C75E
:10046000C18A93F70706E38907F083C7C18A93F728
:100470000706E393B7F003C7D18AA547E31EF7EE5B
:1004800037450020130600049385C173130585AD1D
:10049000013B05472388E1A08347244393F7C70F17
:1004A00093E727002309F442C1BD9307A0FC230969
:1004B000F4421387C173834707002386F18A834779
:1004C000170083562700A386F18A8357670023937A
:1004D000F18A2395D18A835647002394D18A03C990
:1004E000C18A9386C173137909066309090C83C70E
:1004F000C18A93F70706639EB70283C7D18A29464C
:10050000FD1793F7F70F6363F61831668A07130632
:1005100006B3B2979C43828783D7818A6398071674
:10052000B745002013060004938585AD1385C1737C
:10053000853983C7C18AE207E18763DE073803D7BD
:10054000618A9307000463E6E70083D7618AC207E4
:10055000C18303D7618A1D8F420741832393E18AB8
:1005600093F7F70F373702402308F74283472743B3
:1005700093F7C70F2309F74201B583D7818A6397A1
:10058000071003C73600A380E18A65B783D7818A45
:10059000639E070E03C726002380E18A59BF83D7D5
:1005A000818A6395070E83C7118A2380F60051B7AD
:1005B00083D7818AE1EF83C7018AC5BF83C5D18A0A
:1005C0002D4813F6F50F6363B80CB1650A069385E1
:1005D000C5B52E961042028683D6A18A0D46A18209
:1005E0006386C60C636CD6008547638CF602894728
:1005F0006381F60481471309F00F81A89307100265
:10060000638BF60893072002E396F6FE83D7818A70
:10061000F5F3B1679387474923A8F18A9307F00D53
:100620002DA0B1679387475723A8F18A83C7070096
:1006300029A8B71700209387872823A8F18A03C722
:10064000270083C73700A207D98F03D7618A63F4D5
:10065000E7002393F18A03D7618A9307F003130A13
:10066000000463E7E70003DA618A420A135A0A01C9
:1006700083AA018B52861385C173D6851536D29A0B
:1006800023A8518B9307F00FE315F9EAB73702401F
:100690001307F0FCBDBB83D7818AA9FFB7170020E1
:1006A0009387A72923A8F18AA54745B783D7A18AAD
:1006B000094793F7F70F6387E702636BF70099EF3A
:1006C0009387818823A8F18A014983C70700B5BFB2
:1006D000E392D7F2B16793874744B9B7B16793877D
:1006E000874899B7B1679387C7453DBF83D7A18A2C
:1006F00093F7F70F2382F18A2DBD83C7518A238098
:10070000F60003D7618A8547E3F5E7E22393F18A90
:100710000DB583D7A18A93F7F70FA382F18A054716
:100720002381E18A39B583C6C18AFD8A99EE83D7D0
:10073000A18A054793F7F70FE39DE7DE83C7318A68
:1007400093F7E70FA381F18AEDB383C6C18A094607
:10075000FD8AE39DC6F283D7A18A93F7F70F9DF731
:1007600083D7818A054793F7F70F6381E702130761
:100770002008E39DE7F0373702408347A74393F70C
:10078000C70B93E72700230DF74265B337370240C5
:100790008347674393F73707230BF7428347674342
:1007A00093F7C70B93E72700230BF74259B383C690
:1007B000C18AFD8A8DE683D7A18A054793F7F70F93
:1007C000E396E7ECB717002083C7F72893F70702F3
:1007D000E38E07EA83C7318A93E71700A5B783C67C
:1007E000C18A0946FD8AE393C6EA83D7A18A93F7B3
:1007F000F70FE39D07E883D7818A1307100893F763
:10080000F70F638FE70013072008E391E7E8373716
:1008100002408347A74393F7C70B93E73700A5B779
:10082000373702408347674393F7370793E7C7009B
:10083000230BF7428347674393F7C70B93E73700D0
:10084000A5B72380060075BD83C7C18A239E0172A8
:10085000FD8B99EB83C7318A858BBDC38947238084
:10086000F60003D7618A4DB583C7C18A0946FD8B5F
:10087000639CC70403D7818A130610081377F70F08
:10088000630DC700130620086305C70203D7618AFA
:10089000E3FEE7DE2393F18AD5BB373702400347F7
:1008A00067433146318BE31EC7FA05472380E600D4
:1008B0004DBF373702400347A7430D460D8BE5B7C1
:1008C00003D7618A894789B583D7618AE370F6DCEB
:1008D0002393C18A65BB83D7618A91EBB737024006
:1008E0002388074203C727431377C70F1DB637373F
:1008F00002408347274393F7370FADB993F71600AC
:100900009DC3A382018A2382018AA381018A238154
:10091000018AA30104404D328347644093E71700E6
:100920002303F440B9BC93F746009DCB91472303C2
:10093000F4402945EF40705B03475440118B11CBC5
:1009400003C7318A13672700A381E18A83C7318AED
:100950000DBC03C7318A1377D70FA381E18A15B481
:100960002303D44039BCEFF2BF80B74702409387DE
:1009700007809843C1E51367870098C33734024066
:1009800099472300F4402DCD2945EF4010569D474F
:10099000230004402301F440930790022300F44015
:1009A000213A930710F8A300F44013071004E1461E
:1009B000138641A39385C1071385816AEF40204EBA
:1009C000B715002013071004E1461386C1A49385D0
:1009D000C55813854169EF40804C37E700E0930725
:1009E000402F7CC3B207B183B706003BD58F3CD301
:1009F000B70700082322F7106FF0CFF95D9BB5BF52
:100A00002945EF40904EB7E700E023000440B8438B
:100A1000C146B4C33706000893860718D0C2B8C3CE
:100A2000E1BF83C7D1779DCB0547638EE7021307EC
:100A3000401F9307802A23A8E18023A6F180938694
:100A4000072D371700202328D7321307002DB307AF
:100A5000F740371700202326F73282801307A0289B
:100A60009307002DC9BF1307C021DDBFEFF24FF080
:100A700037070001AA87130707F07D8FA1662E852F
:100A8000630ED70263E8E60029C39966630ED700B8
:100A90006FF04FF0BD66E31DD7FEB725002093F73A
:100AA000F70F9385052B39A0B725002093F7F70F93
:100AB0009385C537BE95EFF0AFEED9BFB7250020BF
:100AC00093F7F70F93854533F5B793F7F70F9385B2
:100AD000C177CDB7B7250020130640089385052BB5
:100AE000014569A9B7250020130640089385052B09
:100AF000014531A9B72500201306100B9385C53792
:100B000013050010A5A9B72500201306100B938527
:100B1000C53713050010E5AEEFF2EFE3B7070001AC
:100B2000938707F0E98F2167AA8432893684638F1F
:100B3000E704636AF700B5CF19676386E7020144EB
:100B400022856FF08FE43D67E39BE7FEB727002027
:100B50009379F50F9387072BBE994E85EFF04FE4FD
:100B600005C0493729A8B72700209379F50F938747
:100B7000C737BE994E85EFF0AFE219C069372A84B6
:100B80004A86CE852685EF5080165DBF372A002025
:100B90009379F50F93074A33BE994E85EFF04FE0F6
:100BA00065D01306800493054A331305002085267B
:100BB000F9B71375F50F9387C1773E95AE89EFF0BE
:100BC0002FDE5DDC4A86CE8513050030CDB7EFF20F
:100BD0002FDA0545372400201304042BEF40207B37
:100BE0000345C401EF90D01383A50187EF80D06146
:100BF00023A6A1980345D401EF90901283A5018705
:100C0000EF80906023A4A1980345E401EF90501178
:100C100083A50187EF80505F0357040123A2A198A9
:100C20003307E7029387418B98C3035724013307A7
:100C3000E702D8C31523EF000071EF106021D53310
:100C40006FF04FD5EFF2CFD2372900201306100BEB
:100C5000FD551305C937EFF00FD62D46FD55138509
:100C6000C177EFF04FD52D469385C177130500303E
:100C7000312683C7C1779384C177858B9DC3854710
:100C800023A00400A380F4002D46FD479385C1777F
:100C90001305003023A20400239404002385F400EC
:100CA000BD24893D1309C937834709013724002032
:100CB0001304C43763800710930700F82300F4007F
:100CC000E9778D072319F4008547A30DF4009307F6
:100CD000C0FCA30EF4029567938747CC231FF40250
:100CE000B71780CC938707803CC0B757000893871D
:100CF00047CC7CC0B7D7C44C938707C83CC4F177B6
:100D00009387C74C2316F4049307C0042307F40405
:100D1000B73732FF938727133CC8FD57231AF404D3
:100D20008D67BD072313F408B7B790D9938717E6EB
:100D30002324F408B71754419387474D2326F4081A
:100D4000B757C779938757412328F408B7373663D5
:100D50009387C73949469305640813058409232AF4
:100D6000F408EFF0EFC3B7078BFF9387B7051CD0EC
:100D7000B7070040938767195CD0B74700401CD481
:100D8000B707BEFFF5075CD4B7073C34B9171CD8CA
:100D9000B7373B349387B7435CD8C167938707D590
:100DA0002320F4088567938767FC2312F40823083F
:100DB0000400913B930700F82300F400E9778D07C6
:100DC0002319F4008547A30DF400372400201306EF
:100DD000800493054433130500204D2293074433C8
:100DE00003C7070015C32147A38007002381E7003D
:100DF000A38107002382E700A38207002383E70083
:100E0000A38307002384E700372900201306400846
:100E1000FD551305092BEFF00FBA6D398347092BE8
:100E20001304092B858BCDC3130640088145130598
:100E3000092BEFF04FB88567938787802312F40062
:100E40000967B72700209387A72B13070702239072
:100E5000E7002391E70037250020B72700206177BE
:100E60009387672B130707081146930500041305A2
:100E7000152D2390E7002391E700EFF0CFB3930700
:100E800000FCA300F4009307606D2317F40003C671
:100E9000A400B7077805938787571CC801478D457D
:100EA000FD56634BC704B7877F029387F7F75CCC87
:100EB0008D679387C74B231AF4008347040093E799
:100EC00007F82300F4003939193303475400B717E2
:100ED000002093878728A380E70203474400373523
:100EE000002019462384E702930564011305A50336
:100EF000EFF00FAB6FF00FAAB307B7020507A29789
:100F0000A383D7022384D702A384D70259BFEFF269
:100F10008FA4B7F700083304F5003307C400B70700
:100F20000108637BF7042E8A22859305001032891D
:100F3000EF5070391147AA848947631CE502B7292D
:100F4000002013060010FD5513850943EFF0AFA6EE
:100F50004A86D28513850943EFF08FA4130600104B
:100F6000938509432285EF50B0478D476313950061
:100F700081473E856FF06FA18547E5BF37F70008D1
:100F8000AE87B305E5003387C500B7060108637C6B
:100F9000D700094599CBEFF2AF9D3E85EFF04FA00A
:100FA00001456FF02F9F054582808280AA872E859C
:100FB00063D3B7003E858280EFF28F9B4111AA85F3
:100FC00011466800EFF0CF9D324541016FF08F9CD4
:100FD000AA872E8563C6B7003E856353F600328527
:100FE0008280EFF2EF987971614681452808EFF031
:100FF0008F9C014502C602C802CAEF60201E371549
:1010000001409307A0036C001305058037240140BD
:101010002316F10002CAEF50504E13050440EF5062
:10102000E05385473ECE3ED0B7070E003ED22C0897
:101030009147130504402306F10202CC02D4EF507D
:101040008054854513050440EF50E059854513054C
:101050000440EF50405813050440EF50E05993040A
:1010600004402685EF50E0596DFD130504403724F8
:101070000140EF508059930404402685EF50805979
:101080006DFD13050440EF506066239EA18A456103
:101090006FF04F90EFF22F8C79712A84AE893289EC
:1010A00081451306C0024800B684EFF0CF90228538
:1010B000EF50E07B930700083ECC930700103ECE34
:1010C000930700403ED0930700023ED24C008D674C
:1010D00022854EC24AC426C83ED402C602CA02D6DF
:1010E000EF50F00645616FF04F8AEFF26F88D53D03
:1010F00037240140B70402409305C444138584009B
:1011000091461386018C7937130504409D460546A8
:101110008545EF502052130504409D4609469545EC
:10112000EF504051130504409D460D468D45EF504C
:1011300060509D461146130504409145EF50804F85
:10114000138584008545EF50100485451305044040
:10115000EF50C04C6FF00F84C16637270020930713
:10116000075313860610D0D71386160093860604FD
:10117000D4C3B716020094C3B706020013858600D5
:10118000E8C313850602A8C36165E8C71385060195
:10119000A8C713850620A8CF3725040088CF13855C
:1011A0000610E8CF37450400C8CF1385060488D35E
:1011B0003785040090D7C8D3938606083785020088
:1011C00037260200B745020088DBD4DBD0C78CC7C6
:1011D000B727002083C6072B9307075313F5060193
:1011E00019C1CCC790C713F7860001CB371702008F
:1011F000D8C341671307070498C3918A89CA23A2F9
:10120000070423A0070423A6070423A4070482805D
:10121000EFE21FF641118D472E8432C63EC4AA84E8
:1012200002C2014681470147C1656343870619C26F
:101230002312F100371501404C0013050580EF50D3
:10124000D02B01462312010081470147B705020058
:10125000634D870419C22312F100371501404C0079
:10126000130505C0EF507029014623120100814784
:101270000147B70504006347870419C22312F10030
:101280004C0037150140EF50502741016FE09FF0AF
:1012900093162700A696944233F5B60009C5D58F5C
:1012A000C207C1830546050749B793162700A696CE
:1012B000944233F5B60009C5D58FC207C1830546F0
:1012C000050779B793162700A696944233F5B60022
:1012D00009C5D58FC207C1830546050769BFEFE27F
:1012E0003FE93705002013068002914513050500EC
:1012F0000537370500204146914513050501093F93
:10130000B7070020938707023727002013860704BA
:101310001307075394438A06BA9623A00600D443C2
:101320008A06BA9623A0060094478A06BA9623A096
:101330000600D447C1078A06BA9623A00600E39B9D
:10134000C7FC6FE03FE5EFE2BFE2393583C7317894
:1013500091C371373725002013068004E14513053A
:1013600005537D356FE01FE3EFE21FDE37040020F9
:1013700013040401B704002037090020B70A002035
:1013800093840402130B0401014A13090906938A8A
:101390000A00C14B0C400546814993D7E500F18B0B
:1013A000CA978843C205C181EF5050225145EF4092
:1013B000C033B38759018C4393D7E500F18BCA97AB
:1013C0008843C205C181EF50301FB38734019C436D
:1013D00091093315F500336AAA00E39C79FD0C40AE
:1013E0000146110493D7E500F18BCA978843C205E3
:1013F000C181EF50B01D5145EF40202FC104E31BC8
:1014000064F952856FE0DFD7EFE21FD483C73178EC
:10141000014499C3913F2A84B7190140B7240020A1
:10142000138B09C0938404530149370A0700B70A94
:101430000200B70B0400416C938909808C40B3F71C
:10144000450163895703638B7703054563978701DC
:10145000C205C1814E85EF50301693371500B39702
:1014600027015D8C0509E1479104E319F9FC228508
:101470006FE01FD1C205C1815A85F1BFC205C1818C
:1014800037150140C9BFEFE2BFCEB7070700E98FAC
:1014900037070200AA856384E702370704006388E0
:1014A000E70241670545639AE700C2053715014029
:1014B000C18113050580EF5030106FE0BFCD93154B
:1014C000050137150140C181130505C0EDB793151E
:1014D0000501C18137150140F9BFEFE27FC979717C
:1014E0002A848545314502CA02CC02CE02D002D2FE
:1014F00002D402D602C402C623180100EF50505D88
:101500006315040E85450945EF50705E371501409F
:1015100061478D474C08130505C03ACE370400409B
:10152000231AF1003ECCEF50407D9307005A2C0067
:10153000130504403EC602C4EF50D06C05468545F5
:1015400013050440EF60A009C167938707060C10DC
:10155000130504403ED02313010223140102EF506F
:10156000F0710C1013050440EF50507C85451305B5
:101570000440EF606005A14513050440EF60600979
:10158000A14513050440EF60E009814513050440BF
:10159000EF6040069305002D13050440EF60200A1C
:1015A0009305002D13050440EF60C009EF00F00E15
:1015B0009307D0122310F1009D472301F1000A8503
:1015C00085473EC2EF50102B89679387471437E752
:1015D00000E07CC3B207B183B706002DD58F3CD79E
:1015E000854513050440EF50707C45616FE09FBA5C
:1015F000AA8537050040130505406F50307BEFE2A8
:101600003FB7AA8832883E8689472E85BA85638C83
:10161000F8008D476388F8006383080036884285A8
:101620006FE05FB74295EFF0BF9A131805011358AA
:101630000841F5B719473305E502B707002093873E
:1016400007082E86014781463E95831525000345F0
:1016500005009307C01165B719473305E502B707C1
:101660000020938707082E861307000C93060010AE
:101670003E9583154500034515009307001441B7B7
:101680001387418D1443B727002058430E059387D5
:101690000759AA9794C3D8C38280EFE27FADAA848A
:1016A000034535001384418D8315040005817D8930
:1016B00051372310A40003C534008315240005818D
:1016C0007D89593F83C734002311A40003C524003A
:1016D00083154400858B920711815D8DA13F83C7DF
:1016E00034002312A40003C5240083156400858BF5
:1016F000920711815D8D8D372313A4000145493771
:101700000547A38EE18C6FE0FFA8EFE27FA6834739
:10171000350003472500B705002093F7F70313565C
:1017200077008607D18F938505148607AE9783D7F8
:10173000070031661377F7071306C6B806079386C6
:10174000418D32972390F600835707000347050029
:101750002391F60083471500098393F7E70FBE95A1
:1017600083D705002392F600834715000145858B3A
:101770009A07D98F86073E96835706002393F60073
:1017800001370547A38EE18C6FE0DFA0EFE25F9E9B
:1017900083473500834625000347050093F7F70389
:1017A0009D82860713764700D58F058BAA84138404
:1017B000418D8607630D070C6301060C3167130723
:1017C000C7B8BA9783D707002313F40001454D3DEE
:1017D00003C524008315040009817D89A13D2310E0
:1017E000A40003C524008315240009817D89AD353B
:1017F00083C724002311A40003C5140083154400EB
:101800008D8B8E0715815D8D353583C7240023129E
:10181000A40003C51400831564008D8B8E07158109
:101820005D8D1D3D2313A4000545993D03C514009E
:10183000831504007D89FD3B2310A40003C514001B
:10184000831524007D89093D2311A40003C50400EC
:10185000831544000D81F93B2312A40003C5040045
:10186000831564000D81CD3B2313A4000945093D78
:101870000D47A38EE18C6FE0FF913707002013071F
:101880000714BA9783D707002312F40081B711CA4F
:1018900031671307C7B8BA9783D707002311F4003D
:1018A00035B73707002013070714BA9783D7070007
:1018B0002310F40021BFEFE2BF8BAA84034535005B
:1018C0001384418D8315040005817D89A533231080
:1018D000A40003C534008315240005817D89AD3B38
:1018E00083C734002311A40003C5240083154400DA
:1018F000858B920711815D8D353B83C734002312A0
:10190000A40003C5240083156400858B9207118110
:101910005D8D99332313A40001459D3383C72400B3
:1019200003C5140083150400BD8B86071D815D8DE2
:10193000113383C724002310A40003C514008315AA
:101940002400BD8B86071D815D8D39332311A400D2
:1019500003C514008315440009817D89E1392312F0
:10196000A40003C514008315640009817D89ED314D
:101970002313A400054529330947A38EE18C6FE0AA
:101980007F81EFE2EFFEAA8483C734000345250080
:101990003707002093F7F703935675008607D58F16
:1019A000130707148607BA9703C704008396070036
:1019B000B1671376E70F9387C7B8B2970981058B94
:1019C000839707007D891384418D51CF83150400CF
:1019D0002312D4002313F400EFF0DFC52310A4007A
:1019E00003C524008315240009817D89EFF0DFC63B
:1019F0002311A4000145EFF0BFC883C7240003C52D
:101A00001400831504008D8B8E0715815D8DEFF01A
:101A10007FC283C724002310A40003C514008315CC
:101A200024008D8B8E0715815D8DEFF0FFC2231191
:101A3000A40003C51400831544007D89EFF09FBF07
:101A40002312A40003C51400831564007D89EFF000
:101A5000BFC02313A4000545EFF09FC20947A38E22
:101A6000E18C6FE02FF3831544002310D400231181
:101A7000F400EFF03FBC2312A40003C5240083153B
:101A8000640009817D89EFF03FBD2313A4009DB759
:101A9000EFE20FEEAA84034535001384418D8315D0
:101AA000040005817D89EFF0FFB82310A40003C571
:101AB00034008315240005817D89EFF0FFB983C7C9
:101AC00034002311A40003C5240083154400858B32
:101AD000920711815D8DEFF0FFB583C734002312AB
:101AE000A40003C5240083156400858B920711812F
:101AF0005D8DEFF07FB62313A4000145EFF05FB8D2
:101B000083C7240003C5140083150400BD8B86071A
:101B10001D815D8DEFF01FB283C724002310A40048
:101B200003C5140083152400BD8B86071D815D8DC0
:101B3000EFF09FB22311A40003C5140083154400E5
:101B400009817D89EFF01FAF2312A40003C51400A3
:101B50008315640009817D89EFF01FB02313A40071
:101B60000545EFF0FFB183C7140003C504008315DA
:101B700004008D8B8E0715815D8DEFF0BFAB83C7A1
:101B800014002310A40003C50400831524008D8BCA
:101B90008E0715815D8DEFF03FAC2311A40003C5C6
:101BA0000400831544007D89EFF0DFA82312A40010
:101BB00003C50400831564007D89EFF0FFA923139A
:101BC000A4000945EFF0DFAB0D47A38EE18C6FE079
:101BD0006FDCEFE26FD70347350037240020238EF8
:101BE000018CA38E018C19838946AE841304045999
:101BF000630DD70C8D466308D70E4DE38547A38E42
:101C0000F18C231204002310040003C5D18D0D466E
:101C10008145EFF0EFBB316BB72B0020938CC18C6B
:101C2000A38EA18C014CA28A130BCBE9938B0B2BB7
:101C30009389C18C83C7D18D6349FC0A83C7340063
:101C40000547238EE18CA38E018C99838946638C92
:101C5000D7148D466388D716639E0710A38EE18C38
:101C6000231204002310040003C5D18D0D468145C5
:101C7000EFF00FB6B169372A0020138BC18CA38E09
:101C8000A18C814A9389C9E9130A0A2B9384C18CD8
:101C900083C7D18D63CCFA126FE08FCE0347150056
:101CA00083472500834605002207BD8B558FC20759
:101CB000D98F81E7EFF07F9E89BF8D8A81E6EFF0B3
:101CC000DFA4A1B7EFF09FAC89B7834715000347A6
:101CD00005008D8BA207D98F81E7EFF0DFBD35B707
:101CE000EFF03FCA1DB76D330DB703974A0083C7A6
:101CF0006B000A075A971843B387E702918323A220
:101D0000FC0083976A008A07DA97884319C913068B
:101D100000143306C502814637952F50A545EF5074
:101D2000D03D23A0A900CE850145092C03970A00C8
:101D300083C78B000A075A971843B387E70291833A
:101D400023A2F90083972A008A07DA97884319C9E2
:101D50001306000A3306C502814637952F50A54564
:101D6000EF50B03923A0A900CE850945C12A050C42
:101D7000A10AC9B503C7140083C7240083C60400A1
:101D80002207BD8B558FC207D98F89E72685EFF0D3
:101D9000DF90D9BD8D8A268581E6EFF01F97E9B5E2
:101DA000EFF0DF9ED1B583C7140003C7040026857A
:101DB0008D8BA207D98F81E7EFF0FFAF75B5EFF0FC
:101DC0005FBC5DB52685EFF0BFCC79BD031744003D
:101DD00083477A000A074E971843B387E702918337
:101DE0002322FB00831764008A07CE97884319C912
:101DF000130600143306C502814637952F50A545BA
:101E0000EF50B02F88C0A68505450D2A03170400A2
:101E100083479A000A074E971843B387E7029183D6
:101E2000DCC0831724008A07CE97884319C913069C
:101E3000000A3306C502814637952F50A545EF505D
:101E4000D02B88C0A6850D45D528850A210489B5E3
:101E5000EFE20FB2B727002083C4172B370400200E
:101E60001306001093F784008DC7B1659385C5C82C
:101E700013050414C188EFE0AFB291C81305041430
:101E8000B16541469385C5D80905EFE06FB16FE0B4
:101E90006FB0B1659385C5D9E1BFEFE26FAD37266D
:101EA0000020B73500203735002021479306000277
:101EB0001306865A93858592130545A6EF20307E3A
:101EC00037260020B73500203735002021479306FC
:101ED00000021306865C93858582130505A5EF2015
:101EE000107C37260020B7250020373500202147F9
:101EF000930600021306865E938585721305C5A3BB
:101F0000EF20F07937260020B72500203735002054
:101F100021479306000213068660938585621305A8
:101F200085A2EF20D0778547238CF190A38CF19088
:101F3000238DF190A38DF1906FE0CFA5B9CDEFE2A5
:101F40002FA389476309F50263E2A7021DE937352C
:101F500000202146130545A6EF20507819C90547F2
:101F60000545238EE18EEF30804221A08D4763002E
:101F7000F5026FE02FA2373500202146130505A595
:101F8000E1BF3735002021461305C5A3F1B737352A
:101F900000202146130585A2C1B78280EFE24F9D44
:101FA00083C7B19195CF37350020930745A6D44715
:101FB00085CA83C78700B7360020938686928E072E
:101FC000B6979443DC43A38D019013878193130547
:101FD00045A65CC314C3EF30C0030547A38FE1904F
:101FE00083C7A19195CF37350020930705A5D44726
:101FF00085CA83C78700B7360020938686828E07FE
:10200000B6979443DC43238D019013870193130506
:1020100005A55CC314C3EF20D07F0547238FE19053
:1020200083C7919195CF373500209307C5A3D44737
:1020300085CA83C78700B7260020938686728E07DD
:10204000B6979443DC43A38C0190138781921305C8
:10205000C5A35CC314C3EF20D07B0547A38EE190DA
:1020600083C7819195CF37350020930785A2D44748
:1020700085CA83C78700B7260020938686628E07AD
:10208000B6979443DC43238C019013870192130588
:1020900085A25CC314C3EF20D0770547238EE1905F
:1020A0006FE04F8F21C29841E1679387076A3E979F
:1020B00098C16374C70001458280B356C702835735
:1020C00005003377C702B697C207C1832310F50016
:1020D00098C1056713070780E37FF7FC93F7F77F45
:1020E0002310F50005458280EFE28F88B727002096
:1020F00083C7072B2A87368493F707042E8554431A
:10210000B28595C3854781CE1043693F814701C998
:1021100083A7018E818F93B7A70F93C7170013F57D
:10212000F70F6FE02F8799EA03A5018E018D133514
:10213000A50F134515001375F50FE5B710439D372F
:1021400065F5D5BF37050040397185451305054054
:1021500022DE26DC4ADA4ED852D656D45AD25ED087
:1021600062CE66CC6ACA6EC8EF50E04E8547631CEB
:10217000F52483A7018E138D170023A0A18F372785
:1021800000200347172B9384819437040020137792
:102190000702138C81959389019513890194130487
:1021A00004246301072C83A6018F1386C1909385B5
:1021B00061911385819536C6053F01CD83C5F191A7
:1021C00003C6E18DB246638F052013661600238F88
:1021D000C18C83A6C18E138681909385419113850E
:1021E000019536C6113701CD83C5E19103C6E18D56
:1021F000B2466389052013662600238FC18C83A60F
:10220000818E13864190938521911385819436C6E2
:10221000E13D01CD83C5D19103C6E18DB246638313
:10222000052013664600238FC18C83A6418E13863A
:102230000190938501911385019436C6753501CDC2
:1022400083C5C19103C6E18DB246638D051E136639
:102250008600238FC18C83C6E18D13F6160005C658
:10226000A38F0190138681930C4250422320BC001F
:102270002322CC008545239B019023A60190A38DAA
:10228000B19023A8A18F13F6260005C6238F0190D5
:10229000138601930C42504223A0B90023A2C90027
:1022A00023A401908545239A0190238DB19023A604
:1022B000A18F13F6460015C2A38E0190138681925A
:1022C0000C4250428CC0D0C023A201908545239976
:1022D0000190A38CB19023A4A18FA18A85C6238EDF
:1022E0000190938601929042D4422320C900232278
:1022F000D90005462398019023A00190238CC1901A
:1023000023A2A18F83A6018183D7619103274C006B
:1023100003A649008607A29783970700238F018CA5
:10232000B387E70203D741910607229703170700F7
:102330003307C702BA97A987B387D702C5879387A0
:10234000072D23ACF18E83D72191D8408607A29721
:1023500083970700B387E70203D701910607229707
:102360000317070003264900B71900203307C702E7
:102370003719002003A609338325C93237040040EA
:1023800013040440BA97A987B387D702C5879387F8
:10239000072D23AAF18E03A5818FEFE07FC34205AD
:1023A0004181231EA4028325C93203A6093303A554
:1023B000418FEFE0FFC1420541812310A404854510
:1023C0002285EF50002B7254E2545259C259325AAE
:1023D000A25A125B825B724CE24C524DC24D21619B
:1023E000730020303166B306DD401306F634E37225
:1023F000D6DE83C6418123220C0093E61600238A91
:10240000D180C1BB3166B306DD401306F634E378F4
:10241000D6DE83C6418123A2090093E62600238AE3
:10242000D180F1BB3166B306DD401306F634E37E9E
:10243000D6DE83C6418123A2040093E64600238AA8
:10244000D180E5B33166B306DD401306F634E3749C
:10245000D6E083C641812322090093E68600238AC1
:10246000D180D5BB03C7F1910DCBA38F019093868B
:1024700081939842D4422320EC002322DC00A38DD8
:10248000A1909387819391C209EB23A60190239B8E
:10249000019023200C0023A2070003C7E19115C778
:1024A000238F0190938701939843DC43054623A033
:1024B000E90023A2F900238DC19091C319E723A459
:1024C0000190239A019023A0090003C7D19115C759
:1024D000A38E0190938781929843DC43054698C070
:1024E000DCC0A38CC19091C309EB23A20190239976
:1024F000019023A0040023A2040003C7C19115C7C3
:10250000238E0190938701929843DC430546232054
:10251000E9002322F900238CC19091C319E723A07D
:102520000190239801902320090003260C00938535
:10253000C19013856191EFF0FFB603A60900938562
:10254000819013854191EFF0FFB5904093854190C4
:1025500013852191EFF01FB50326090093850190A3
:1025600013850191EFF01FB483A6018183D7619198
:1025700003274C0003A649008607A297839707000C
:10258000B387E70203D74191060722970317070095
:102590003307C702BA97A987B387D702C58793873E
:1025A000072D23ACF18E83D72191D8408607A297BF
:1025B00083970700B387E70203D7019106073A9490
:1025C0000317040045B3EFD2BFBAAA8537650040B0
:1025D00013050580EF40F025133515006FD09FBB24
:1025E000EFD21FB9AA853765004013050580EF407B
:1025F000B0221375F50F6FD0FFB9376700408357CE
:10260000478113070780A183A380F1968357470171
:10261000C207C18393F707F0C207C183231AF700EB
:1026200073002030EFD23FB3376500404111814540
:1026300013050580EF403011371401409307004027
:102640000D49D1494C00130504C03EC24AC44EC6D0
:102650008564EF40806A938404804C00130504C0B5
:102660004EC64AC423129100EF40206993050040F2
:10267000130504C0EF404075A685130504C0EF4064
:1026800060740545EF30600693050040130504C0F3
:10269000EF4040730545EF304005A685130504C0A3
:1026A000EF4080720545EF304004A949130A04C089
:1026B0000569930500405285EF400071A68552855B
:1026C000EF4040700545EF304002930500405285D1
:1026D000EF40406F0545FD19EF302001E39B09FCF9
:1026E000130504C093050040EF40006E9305098078
:1026F000130504C0EF40406D0545EF20107F9305A2
:102700000040130504C0EF40E06B0545EF20F07D6D
:1027100093050980130504C0EF40C06A0545EF200A
:10272000D07C91474C00130504C03EC6EF40E05CEE
:1027300093050980130504C0EF40006841016FD084
:10274000DFA4EFD2FFA23764004081451305048067
:10275000A3810196EF40207F13050480EF40606A5B
:10276000EFF05FEC83C711965D8D1375F50F01C90E
:1027700037350C0001468145130505502920EF200F
:10278000D06F6FD03FA1EFD21F9D0111AE842A8977
:1027900085452545328402C202C402C602C802CA67
:1027A00002CC02CEEF40D032854537054000EF40E5
:1027B0001034371A014093090040714B8D4A4C0088
:1027C00013050AC0231231015AC656C4EF40E05225
:1027D0008567938707804C0013050AC02312F10018
:1027E0005AC656C4EF406051B7070040231C910001
:1027F000B76400403ECA0C08916713850480231E0D
:10280000F1004AC8231D3101EF40C06285451385A0
:102810000480EF40407309651306800CB705020081
:102820001305655CEF20B06809C909C885451385A3
:102830000480EF40A07AEFF0DFF00544A381819699
:1028400005616FD09F9483C73196638C0712EFD2D6
:102850009F9037640040AA8A2E8A1305048085451C
:10286000EF40E07309651306800CB70502001305FD
:10287000655CEF20D06383C711961375F50FC98F80
:1028800091C705472381E1966FD03F908545130599
:102890000480EF40006DB709030009691306800C3E
:1028A000938519001305095EEF20706083C71196A8
:1028B0001375F50FC98F99C30947E9B70146930509
:1028C000400D13050480EF406070370B07001306BE
:1028D000800C93052B081305095EEF20505D83C71C
:1028E00011961375F50FC98F99C30D4761BFD68532
:1028F00013050480EF40806C1306800C93054B0891
:102900001305095EEF20B05A83C711961375F50FB2
:10291000C98F99C31147BDB7D28513050480EF4015
:102920000068854513050480EF40A0631306800C02
:10293000938519001305095EEF20705783C7119620
:102940001375F50FC98F99C315472DBF054693051C
:10295000400D13050480EF4060671306800C9385DB
:1029600029001305095EEF2090549377F50F03C5F6
:1029700011965D8DE30A05F099462381D1963E8537
:1029800021B705458280EFD20FFD2E891375F50F13
:102990008145EFF05FEB83C711962380A1965D8D93
:1029A0001DE5B705030009651306800C9385050432
:1029B0001305055EEF20B04F83C711961375F50F11
:1029C0002380A1965D8D19C525472381E196EFF0FF
:1029D0005FD725A0B769004013850980EF40605E8E
:1029E0002300A900854513850980EF40605983C7FE
:1029F000019603C71196D98FF9FB03C50196B72736
:102A00000020238FA7326FD04FF8EFD2EFF3854726
:102A10006316F600EFF03FF76FD08FF62E898545ED
:102A20003284EFF05FE2AA8435E17D14370A0300B7
:102A3000856AB76900401374F40F130A0A04896B9E
:102A4000938A0A80938909809307F00F6303F40245
:102A50001306800CD28513850B5EEF20504583C78B
:102A600011961375F50FC98F95C71D472381E19600
:102A7000AA8437650040130505808545EF40405026
:102A800083C71196C58F13F5F70F59D5EFF07FCB9C
:102A9000268559B785476316F400D6854E85EF40E5
:102AA00040554E85EF40E0517D142300A90013747A
:102AB000F40F050951BF83C7319691E38280EFD2AD
:102AC0008FE9AA8A09654111AE891306800CB70502
:102AD00002001305655CEF20903D83C711961375C6
:102AE000F50FC98F8DC329472381E19683C71196BE
:102AF000C98F93F7F70F89C72AC6EFF09FC43245F5
:102B000041016FD08FE83769004085451305098082
:102B1000EF402045B7050300096A1306800C8505C0
:102B200013050A5EEF20B03883C711961375F50FB1
:102B3000C98F99C32D474DBF01469305400D13051D
:102B40000980EF40A048370B07001306800C93055F
:102B50002B0813050A5EEF20903583C71196137575
:102B6000F50FC98F99C3314741B7D6851305098041
:102B7000EF40C0441306800C93054B0813050A5E12
:102B8000EF20F03283C711961375F50FC98F99C3E3
:102B9000354799BFCE8513050980EF4020421306C3
:102BA000800C93054B0813050A5EEF20503083C755
:102BB00011961375F50FC98F99C3394735B71305AA
:102BC00009808545EF40C03B01450DB737350C0006
:102BD00005468145130505506FF0FFBAEFD24FD976
:102BE00041112E849305F1002A89B284EFF0BFD9F8
:102BF00009ED8347F10093C4F4FF4A85E58FB3657F
:102C0000F400A307B100EFF01FEB41016FD08FD8A4
:102C1000EFD20FD641119305F1003D45A307010006
:102C2000EFF07FD611E98347F1008546938777F966
:102C300093F7F70F63FCF60483A78197850723AC0E
:102C4000F19603C7419709C70D4541016FD08FD455
:102C500025476363F7029305F1007945EFF0BFD292
:102C60001DC983A70198850723A0F19883A7C19761
:102C7000850723AEF196D1BF8547238AF196054596
:102C8000EF20E07083C74197F9D77DBF23AC019651
:102C9000238A0196EDB78347F1000D4709458D8BD7
:102CA000E395E7FA83A70198B735002031468507F9
:102CB000938505AD1305200223A0F198EFF0FFD412
:102CC00049D583A7C1970545850723AEF196B5BFC2
:102CD000EFD20FCA19441306F00F85454945EFF0AE
:102CE000FFEF09C57D141374F40F75F42945EF2027
:102CF000D02119441306F00F930500084D45EFF05D
:102D0000FFED09C57D141374F40F6DF41944130617
:102D1000F00F9305E0084145EFF05FEC09C57D1425
:102D20001374F40F6DF419441306F00F9305C005E6
:102D30004545EFF0BFEA09C57D141374F40F6DF437
:102D400019441306F00F930540044945EFF01FE9BD
:102D500009C57D141374F40F6DF413351500A388A1
:102D6000A1986FD02FC3EFD2AFC01306000F8145DB
:102D70004145A3880198EFF07FE61306000F8145D7
:102D80004545EFF0BFE56FD0EFC08280EFD24FBB7B
:102D900083C7C19613075002B7390020B387E702F3
:102DA00037240020138789A74111938689A736C647
:102DB000BA970307042B23A4F196635D070013065B
:102DC000400281453E85EFD00FBFEF30405B4101AF
:102DD0006FD0CFBA83C73196FDDB83C70199E5DB9E
:102DE00083C721991304042B81E78D472389F19828
:102DF000EF20B0088347F40003A701978346E4005F
:102E0000A2073307E540D58F2A8BE362F7FCEFF08A
:102E10003FE055FD373C0020930CCCAD3737002008
:102E2000130707AD13868C019307CCAD9304CCAD8B
:102E30009443831507000907AE9694C39107E3995D
:102E4000C7FE03C4D19603A7419605041374F40F7B
:102E50008567A386819623A861973307EB40938704
:102E60007738E3F6E7F68840373D0020EF70406B97
:102E700083A5C198EF60D07AEF70806488C0C840A5
:102E8000EF70006A83A58198EF609079EF704063DE
:102E9000C8C08844EF70C06883A54198EF6050783F
:102EA000EF70006288C493044DAC1386C40013070E
:102EB0004DAC814719C483A70C00B3C78702C20772
:102EC000C1872310F7000907910CE314C7FE614680
:102ED00081451305CCADA3860196EFD0CFAD03A4F9
:102EE0008196194623A26197130CC400E2852285BE
:102EF000EFD00FAB130B84011946DA856285EFD052
:102F00002FAAB73500201946938565AD5A85EFD0B5
:102F10002FA983C701990547639EE70899676977D9
:102F2000138664009387871A130787E58396040046
:102F300063DDD7062390F4008904E399C4FE93046B
:102F400024011946A68513056400EFD06FA5790406
:102F50001946A2852685EFD0AFA4194693054DAC3E
:102F60002285EFD0EFA383C72199FD1793F7F70FC1
:102F70002389F198E39D07E403A58196EF30204073
:102F800003C5C1969307500213065002133515006E
:102F90002386A1963305F502B24781453E95EFD0D1
:102FA0008FA18D472389F1981DB5E3D7E6F82390CB
:102FB000E40059B70947E398E7FA2285EF00E06695
:102FC0005DB7EFD24F99832A0500032A45002A8472
:102FD000832985000329C500D6855685EF60506496
:102FE000AA84D2855285EF60B063AA852685EF60FA
:102FF000206BAA84CE854E85EF609062AA852685D7
:10300000EF60006AAA84CA854A85EF607061AA856C
:103010002685EF60E068EF408078AA8503A54187A8
:10302000EF60901EAA84AA855685EF60705F08C085
:10303000A6855285EF60D05E48C0A6854E85EF60BC
:10304000305E08C4A6854A85EF60905D48C46FD0A5
:10305000CF93EFD26F8F832BC500C445832A050021
:1030600083A90500032A450003AB45000329850019
:1030700003AC85002A84A6855E85EF60705AAA8C11
:10308000CE855685EF60D059AA856685EF70C0065B
:10309000AA8CDA855285EF60B058AA856685EF70F4
:1030A000A005AA8CE2854A85EF609057AA856685BF
:1030B000EF70800448C4CE855E85EF607056AA8CA0
:1030C000D6852685EF60D055AA856685EF60405D80
:1030D000AA8CE2855285EF60B054AA856685EF60C0
:1030E000205CAA8CCA855A85EF609053AA856685B4
:1030F000EF70800008C0DA855E85EF607052AA8CA0
:10310000E2855685EF60D051AA856685EF60D07E56
:10311000AA8CD2852685EF60B050AA856685EF60BF
:103120002058AA8CCA854E85EF60904FAA85668587
:10313000EF60005748C0E2855E85EF60704EAA8B55
:10314000DA855685EF60D04DAA855E85EF604055E3
:10315000AA8AD2854E85EF60B04CAA855685EF606D
:10316000B079AA89CA852685EF60904BAA854E85DD
:10317000EF60005308C46FD0AF80EFC27FFC2A8499
:1031800003A581997971AE843305A640328AEF6038
:10319000204AAA8903C5140083C704002E8922058A
:1031A0005D8D4205418523AC4199EF6060414E86BB
:1031B000CA86EF50E07803A6818383A6C183EF50CF
:1031C00020782A8D03C5340083C72400AE8C2205E5
:1031D0005D8D42054185EF60A03E4E86CA86EF5068
:1031E000207603A6818383A6C183EF5060752A8C65
:1031F00003C5540083C74400AE8B22055D8D420594
:103200004185EF60E03B4E86CA86EF50607303A6AF
:10321000818383A6C183EF50A0722A8AAE896A8611
:10322000E6866A85E685EF50A0712A89AE846286BB
:10323000DE866285DE85EF50A0702A86AE864A85DE
:10324000A685EF4090262A89AE845286CE86528586
:10325000CE85EF50E06E2A86AE864A85A685EF4081
:10326000D0242A86AE862A89AE84EF50606D03A6EC
:10327000018483A64184AE8D2AC6EF50801103A637
:10328000818483A6C1842A8BAE8A4A85A685EF50A5
:1032900040102A86AE865A85D685EF50103F03A689
:1032A000018583A64185EF4050202A8BAE8A2A866D
:1032B000AE866A85E685EF50A068EF7020335A86A7
:1032C000D6862ACADE856285EF508067EF700032AD
:1032D0005A86D6862ACCCE855285EF506066EF702E
:1032E000E030B24703A6818583A6C1852ACEEE854C
:1032F0003E85EF50000A03A6018683A641862A8AEE
:10330000AE894A85A685EF50A0632A86AE8652858F
:10331000CE85EF50903703A6818683A6C186B71469
:103320000020EF409018EF70602C4C082AD01385D5
:103330000424EFF01FD213850424EFF09FC88347C5
:1033400014000347040093840424A207D98F239810
:10335000F4008347340003472400A207D98F239940
:10336000F4008347540003474400A207D98F239AEF
:10337000F40045616FC09FE0EFC21FDD83C76500A9
:10338000B7340020AA89F19B93E727002383F50037
:1033900003C721998D472E84938404B06312F702EA
:1033A000EF20202F23AAA19823A0040023A2040029
:1033B00023A4040023A6040023980400A3890198F1
:1033C00003C5319999471946130A15003305F502CB
:1033D000137AFA0FA389419937390020930549AC34
:1033E0002695EFC0FFDB8D47631CFA2283476400FC
:1033F000370B0080854ACD9B2303F4007D1B914B46
:10340000034A640093972A00CE9788439377CA00B3
:10341000CE978C4333756501B3F56501EF60700D90
:10342000635BA00093F73A008A07137A3AFF336A86
:10343000FA0023034401850AE3947AFD03A50900F9
:1034400093050000EF605014635E051C83AB818719
:1034500003ACC187373A0020938A4900130B4AAF67
:10346000C109130A4AAF03A50A00E285910AEF6079
:10347000301BDE85EF60D01AEF7080042320AB0094
:10348000110BE39259FF83270A00034764001309D5
:1034900049ACA98793F6F70092063D8B558F23031D
:1034A000E40013D74700A303E40013D7C7002304A5
:1034B000E40003479400D183858B799BD98FA304C3
:1034C000F40083274A0003479400A98793F6F7077F
:1034D0008606058B558FA304E40013D777002305D8
:1034E000E4000347B400BD8393F7F703137707FCA9
:1034F000D98FA305F40083278A000347B40093D62D
:10350000A7409A061377F703558FB187A305E40008
:1035100013D78700A309E40003D741990398040057
:103520002309F4002301E4022183A301E4020347F9
:103530004402C1839D8B137707FC13673700230276
:10354000E40203170900B306074113F6860FD18F73
:10355000A182230AF400A30AD40003162900839849
:10356000240083467401B30716418D87230BF400B2
:10357000A183819AFD8BD58FA30BF400831649009C
:103580000395440083457401B387A64013D33740A5
:103590001603FD89B3E56500A30BB4000393640033
:1035A000998793D58700230FF400B30707019A97F3
:1035B0007558B3C7070313F735009A97A58713F318
:1035C000F7030A0333676700A30FE400034704020D
:1035D0009983858B799BD98F2300F402039784000C
:1035E000B3071601BA97B3C70703BA970347040294
:1035F000A5878607058BD98F2300F4020397A400C3
:10360000B387A600BA97B3C70703BA970347140254
:10361000A58793F7F707137707F8D98FA300F4026C
:103620006FC01FB683AB418725B5EFC27FB4EF20D3
:10363000C0042A86B735002037350020938545AC75
:103640001305A5ACEFF07FB383C7C19613075002F3
:10365000B7350020B387E702938585A7371500208B
:1036600013050524BE95EFF03FD16FC0BFB283C7ED
:10367000819B89EBEFC2DFAFEFD01FD923A4A18CD0
:103680006FC05FB1014523A4A18C828031C9EFC214
:103690003FAE2A84EFF0BFFD03C7818C2300E40016
:1036A00003C7918C83C7A18CA300E4002301F4001D
:1036B00083A7419BA301F40013D78700C183A30212
:1036C000F40083A7019B2302E4002303F40013D733
:1036D0008700C183A303E4002304F4006FC09FAB01
:1036E0008280EFC25FA7B72400209387042B03C713
:1036F00017008946328A19839384042B9317160086
:103700006305D7108D46630BD71285466318D70221
:103710009356F54133C7A600158FB386F40003C650
:103720001602635DC70013D6F54183C626023347F0
:10373000B600118F6354D70081450145A697838950
:10374000A7000389B70083C75401B389A90203C73F
:103750004401A207D98F3309B90293D959401359AB
:103760005940BDCFB307290313172A002382019ABA
:10377000338439033E949387418BBA979C436365A6
:10378000F40085472382F19AEF10306F11E105456F
:10379000E147B307FA0237360020930686B2930555
:1037A00086B2BE969C4289CF3307F54083C7540149
:1037B00003C64401A207D18F6369F70C23A006005A
:1037C00083C7419A91CFE147330AFA023386450114
:1037D00000CA7D84232236012324260140CA08C260
:1037E0008564138504802A991386F4FF81454E95DC
:1037F000EFD00FFE2A841386F4FF81454A85EFD06F
:103800002FFD320522956FC05F989356F54133C75F
:10381000A600158FB386F40083C616026353D70043
:10382000014593D6F54133C7B600158FB386F40032
:1038300083C62602E354D7F0814509B73387F400E5
:103840001356F54103471702B346A600918E63CC89
:10385000E602FD566343A00085463307D7023A953A
:103860003387F40013D6F54103472702B346B60069
:10387000918EE3C3E6FCFD566343B00085463307F3
:10388000D702BA9565BD0145E1BFD8429C46338752
:10389000E902B307F9023E97E35407F2904AD44A8B
:1038A0009357F441B307F602B386860233088602C3
:1038B000B69733368602B2970D46B307F602B306C3
:1038C0000603333606038D82B2971396D701D18E45
:1038D0003306E7028D873317E702E363F7EE63945D
:1038E000E700E36FD6EC2382019A01498149C9BD03
:1038F000EFC21F889387018C03D7470003D50700C9
:1039000083D52700B734002083D7670037240020F1
:1039100013044433938484B598C403474400DCC43F
:10392000834734002207834614005D8F83472400B9
:1039300088C0CCC0A207D58F998D01461D8DEFF0B0
:103940005FDA0347840023AAA19A83477400220701
:10395000834654005D8F83476400CC448844A207AB
:10396000D58F0546998D1D8DEFF0BFD723A8A19A5D
:103970006FC05F8283C7819B638D0720EFC2AFFD5D
:1039800037250200A381019A2381019AEFD0BFAFAE
:103990003705020013050504EFD0FFAE631F051CB9
:1039A00083C7119A8DC7372700201307072B83473A
:1039B000070093C6070893F6060893F7F707D58F15
:1039C0002300F7008547A381F19A2381F19AA38010
:1039D000A19A37850400EFD01FAB2A896311051A1D
:1039E00083C7019A85CF372700201307072B83470A
:1039F000070093C6F7FF93F6060293F7F7FDD58FFE
:103A00002300F700958393C7170013F51700EFD035
:103A10003FBE8547A381F19A2381F19A37050200C1
:103A2000130505082380219BEFD0FFA5631B051418
:103A300083C7F1999DC3372700201307072B8347BE
:103A4000070093C6F7FF898AF59BD58F2300F700FF
:103A50008547A381F19A2381F19AA38FA198378595
:103A60000200EFD05FA22A89631F051083C7E19986
:103A70009DCF37350020930745B103D727001305A5
:103A800045B1019B136767002391E70003C7070057
:103A9000137707F82380E70003C7919C13371700BB
:103AA0002382E700EF20E01785472381F19A4165E3
:103AB00013050510238F2199EFD0FF9C2A8971E50A
:103AC00083C7D199A1C3B72500209387052B138500
:103AD000A7FF9385052B9306F00F03C7B7011306C5
:103AE0001700A38DC7006315D700FD17E397A7FE46
:103AF000373500201946D9051305A503EFC04FEA55
:103B0000EFC05FFEB737002083C79703A38E2199CC
:103B1000BDEF41650505EFD01F972A892DE983C7C1
:103B2000C1998DCF37350020930745B103D72700C2
:103B3000054A130545B1019B136737002391E70040
:103B400003C7070023824701137707F8136757005D
:103B50002380E700EF20E00C2381419B83C7219A5B
:103B6000238E219981C70545EF10700283C7319AD2
:103B700099C3EFC03FF76FC04FE1054589BD0549C7
:103B800071BD0545D9BD05491DB70549A5BF054905
:103B9000F1B78280EFC2CFDD370502001105EFD00B
:103BA0009F8E1DED83A7C19A9DC7EF10902E83A70E
:103BB000C19A1D8D9307400663FDA70083C7819BB3
:103BC00091E731651305C539EF60D0548547238CE3
:103BD000F19A6FC02FDCEF10D02B23A6A19AD5BF8E
:103BE000238C019A23A6019AEDB7EFC26FD883A761
:103BF000419C850723A2F19C81E7054723ACE18026
:103C0000EF10302983A7819A6300F502EF10702826
:103C100083A7818183A6819A958FAA9723ACF1808F
:103C2000EF10302723A4A19AEFF0DFF6EFE00FB7F3
:103C3000EFF0CF95EFF01FD46FC0CFD5EFC24FD3C9
:103C40002A84AA8513050020EF308068A2850545E7
:103C5000EF302066A2850545EF306069A2850945F1
:103C6000EF30E068A2850565EF308066A2851165BA
:103C7000EF300066B7040240A28513854404EF20AC
:103C80009050A28513858405EF20F04FA2851385FF
:103C90008400EF20504FA28537050040EF3010110F
:103CA00037050040A28513050540EF303010B744BA
:103CB0000140A28513850480EF30F026228693050B
:103CC000000413850480EF3090276FC0AFCCEFC2A3
:103CD0002FCA371702401C43B70608000111D58FC1
:103CE0001CC30545EF30A050716513050520EF306A
:103CF000102837350020130650028145130545036F
:103D0000EFC06FCB31651305C53AEF60B040854514
:103D10007145EF30E05B854513050020EF30405BD7
:103D200085450545EF30E05885450545EF30205C79
:103D300085450945EF30A05B85450565EF30405965
:103D400085451165EF30C058EF101015EF10D011F8
:103D50002945EF10901BEFC0FFEE6800EF30604A7E
:103D6000EFD06FDEEF10F02BEF10D020EFD0EFB7D9
:103D7000EF20A00BEF10200BEF104066EFE01FE5E7
:103D8000EFF0AF80EFE0DFF4EFC06FCEEF30A03E9A
:103D9000AA850545EFC03FBD05616FC0AFBFEFC24B
:103DA0008FBB0545EF30002CEF10607BEFF03FF24A
:103DB00083A5018231651305053CEF603021314553
:103DC000EFD06FEC2384A19CEF0090760D65130576
:103DD000C568EF202050EF20005B03C5819CB734FD
:103DE00000203744002013351500EFD00FEFEF10FF
:103DF00080031304C4AC93844403054BEF10D04DEF
:103E0000EFF01FAFEFF0BF8683A7818C13D7870039
:103E10002300F400C1832301F40083A7419BA30086
:103E2000E400A301F40013D78700C183A302F400C8
:103E300083A7019B2302E4002303F40013D7870028
:103E4000C1832304F400A303E400EFF01FDA83C767
:103E5000218A81CF23826401EF208062EF2080538A
:103E6000EF204041EF10502E51BFA3820400238267
:103E70000400FDB782808345D5000345B5001306D5
:103E8000F00F6FE0BFD5828082808280B73700203C
:103E9000938787B623A807022396070223A4070265
:103EA0008280EFC2EFAC37340020AA84EFF01FFE0F
:103EB000130984B689679387071A1306200293852E
:103EC000B400130529002314F4B6EFC06FAD9307B7
:103ED0004002130584B62316F902EF00106A6FC082
:103EE0006FABEFC2EFA82A84EFF05FFA0347A4009C
:103EF00037350020930785B6930600F8A380E700C6
:103F0000130585B60D472380D7002381E70023964C
:103F1000E702EF0090666FC0EFA7EFC2CFA3AA84BD
:103F2000EFF0DFF603C7A40083C9B400373A0020DE
:103F300093078AB6930610F82380D700A380E70082
:103F400023813701854713098AB6638EF9008947B3
:103F5000638AF9048D4713058AB62316F902EF0028
:103F6000D0616FC08FA23734002013044403194678
:103F70009385C4001305C400EFC08FA219469305B2
:103F8000640013053900A3093401EFC06FA1B165C6
:103F90006146938585B113059900EFC06FA0930723
:103FA000100255BFB735002041469385850413059F
:103FB0003900EFC0EF9ECD4779BFEFC26F9B2A84D7
:103FC000EFF0DFECB727002083C7F72CADCF054714
:103FD000638FE7060D4793079004B715002093867B
:103FE000C5262380E6000347A40037340020A380C1
:103FF000F600930784B6930620F82380D700A380A9
:10400000E700B7370020938747031387C5269386B9
:10401000A7FF930484B603C6B700FD170507A301E5
:10402000C700E39AD7FE31469385C5261385240041
:10403000EFC00F97B947130584B62396F402EF003B
:10404000D0536FC02F950D479307800479B7114760
:104050009307300359B7EFC2AF912A84EFF01FE303
:104060000347B4008D46930707FD93F7F70F63E40A
:10407000F600A38AE1800347A400373500209307A8
:1040800085B6930600F8A380E700130585B60947B7
:104090002380D7002396E702EF00304E6FC08F8F4A
:1040A000EFC20F8D2A84EFF07FDE8347A400B73480
:1040B0000020138484B6B7150020130730F8394662
:1040C0009385C525130524002300E400A300F40014
:1040D000EFC00F8DC147138584B62316F402EF009D
:1040E000D0496FC02F8BEFC2AF882A84EFF01FDA60
:1040F0000347A40037350020930785B6A380E70067
:104100000547930600F82381E700130585B60D47A0
:104110002380D7002396E702EF0030466FC08F87D9
:10412000EFC20F852A84EFF07FD60347A40037350E
:104130000020930785B6930600F8A380E7001305D7
:1041400085B60D472380D700238107002396E70219
:10415000EF00B0426FC00F846FF09FFC6FF05FFC08
:104160006FF01FFCEFB23FFF4111AA84EFF01FD2A6
:104170009385B4002E852EC6EFC01FE483C7F400DC
:104180007547B2452A8975446364F70013F4F70F45
:1041900083C7A400B739002037350020130700F982
:1041A000938489B615461305A5B62380E400A38041
:1041B000F400EFB0FFFEB735002022869385F5B6F8
:1041C0004A85EFC0BF8A1D041374F40F138589B6A6
:1041D00023968402EF00703A41016FB01FFBEFB2EB
:1041E0003FF941112A84EFF07FCA1305B400EFC0F4
:1041F000BFDC0346F400930504018546AA8432C659
:104200002EC4EFC07F913246A2452685EF10302E96
:104210000347A40037350020930785B6930600F8BE
:10422000A380E700130585B60D472380D7002381BF
:1042300007002396E702EF00503441016FB09FF56D
:10424000EFB21FF32A84EFF07FC40347A400373591
:104250000020930785B6930600F8A380E7001305B6
:1042600085B609472380D7002396E702EF00F03098
:104270006FB05FF26FF0DFFC6FF09FFCEFB25FEFAB
:104280002A84EFF0BFC00347A4003735002093070E
:1042900085B6930600F8A380E700130585B61307DB
:1042A00040022380D7002396E702EF00102D6FB065
:1042B0007FEEEFB2FFEB2A84EFF05FBD0347A4006F
:1042C00037350020930785B6A380E700130585B630
:1042D0000947238007002396E702EF00102A6FB0FA
:1042E0007FEBEFB2FFE82A84EFF05FBA0347A40048
:1042F00037350020930785B6930600F8A380E700C2
:10430000130585B659472380D7002396E702EF00AF
:10431000D0266FB03FE8EFB2BFE52A84EFF01FB7B9
:104320000345B400A380A19CEF10800F0347A400B5
:1043300037350020930785B6930600F8A380E70081
:10434000130585B609472380D7002396E702EF00BF
:10435000D022B73700200547A38CE7026FB09FE358
:10436000EFB21FE12A84EFF07FB20347A400373594
:104370000020930785B6A380E70003C7119C93062E
:1043800000FB130585B62381E7000D472380D70086
:104390002396E702EF00701E6FB0DFDFEFB25FDD44
:1043A0002A84EFF0BFAE0347B4008346A400238EF7
:1043B000E19A373500202388E198930785B61306E4
:1043C00000F82381E700130585B60D472380C70059
:1043D000A380D7002396E702EF00301A6FB09FDB6F
:1043E000EFB21FD9AA84EFF07FAA03C7B400373910
:1043F00000202388E198130489B61307001413855D
:10440000C19B2311E400034705001DE783C6A400F8
:1044100005472388E198930700F82300F400230060
:10442000E500A300D4008D47130589B62316F402D6
:10443000EF00B0146FB01FD611469385B400050588
:10444000EFB01FD683C7A400130700F82300E400D1
:10445000A300F4008947C9BFEFB29FD1AA84EFF04F
:10446000FFA203C7C4009306000203C5B40093076C
:10447000000263E3E600BA8703C7A40013F4F70F52
:1044800037390020B7350020930489B6930600FC25
:1044900022869385C5B62380D400A380E400A3813F
:1044A000F4002381A4001104EFE02FD61374F40F5D
:1044B000130589B623968402EF00300C6FB09FCDB0
:1044C000EFB21FCB2A84EFF07F9C0347B400B717ED
:1044D0000020373500202384E7320347A4009307E8
:1044E00085B6930600F8A380E700130585B6094753
:1044F0002380D7002396E702EF0030086FB09FC9F2
:10450000EFB21FC72A84EFF07F980347A400373526
:104510000020930785B6A380E70013078061930608
:1045200000FD2391E700130585B611472380D700CE
:104530002396E702EF0070046FB0DFC5EFB25FC3F0
:104540002A84EFF0BF940347A40037350020930777
:1045500085B6A380E7005147930610FD2381E7004D
:10456000130585B60D472380D7002396E702EF0099
:10457000D0006FB03FC2B737002011679387C7B92B
:10458000130727EE98C311671307A7F1D8C3116764
:104590001307A7FB98C7116713076705D8C71167EB
:1045A0001307070A98CB11671307670ED8CB11675B
:1045B000130747E798CF11671307A7E8D8CF11670C
:1045C0001307071298D3116713074716B8C311676B
:1045D0001307E71DF8C31167130787159166B8C75E
:1045E000938666E81387070814C39166938626EAC4
:1045F00054C391669386062414C791669386C615A4
:1046000014CB91669386061654CB91669386462703
:1046100014D391669386C62754D391669386262B2E
:1046200014D791669386262E54D791669386663169
:1046300034C391669386063674C39166938686E882
:1046400034D31167938707101307C73998C31167CD
:104650001307073ED8C31167130767E798C71167A9
:1046600013078745D8C711671307074C98D31167FD
:1046700013070750B8C3116713078727F8C31167DB
:104680001307C753B8C7828083C7819C99C7084165
:104690009305650009056FD0CFD38280EFB25FAD7F
:1046A0002A8483454400084137370020D11593F50B
:1046B000F50F2302B4008347A5001307C7B98A0783
:1046C000BA979C4399C3829719A01C43EDFF22859A
:1046D000EFF09FFB6FB01FAC03474500854763F3C6
:1046E000E7081C41C1C383C717001547FD1793F79F
:1046F000F70F6369F706EFB2BFA731678A071307A1
:10470000073DBA979C43373400208287B7070003E0
:10471000130544FF93871718B73500201CC11946AD
:104720009385A5031105EFB0BFA7854629469305DC
:1047300044FF1385816AEF0050036FB0BFA5930754
:104740001028231AF4FE85460946D5B7930710387A
:10475000CDBF93071048F5B793071058DDB79307FF
:104760001068C5B78280B7370020138747FBA300C6
:10477000A700F956138625002300D7001376F60FFD
:104780008546938547FB1385816A6F00007EEFB2F3
:104790003F9EB734002037340020B7250020130493
:1047A00044FB1306D0039385052B138574FB23016B
:1047B0000400EFB0FF9E9305E0030545EFF0BFFA5C
:1047C000B725002085471306D0039385D52E138582
:1047D00074FB2301F400EFB0BF9C9305E003054593
:1047E000EFF07FF8373500201306300381451305BD
:1047F00015FCEFB05F9CB7250020894729469385BB
:10480000A532138574FB2301F400EFB07F99AD4509
:104810000545EFF05FF59307F03F89450545231106
:10482000F400EFF05FF46FB0FF96EFB27F940C41AD
:104830001307F00F83C7150003C4219C6396E70498
:1048400083C725002A890147639C870003C7350079
:1048500085476314F700EFC0EFA8EFC04FB70547D7
:10486000B7370020938747FB2381E7000327090020
:1048700089450945034737002381019CA381E7004F
:10488000EFF07FEE6FB01F911307D003B387E702FD
:1048900037250020130640081305052B1D8E3E9575
:1048A0006374C7001306D00389050504EFB05F8F5A
:1048B0002381819CC1BFEFB2BF8B2A8408410505CB
:1048C000EFC08FEF0C40AA843735002015468505D0
:1048D000130565FBEFB0DF8C1C40B7350020268543
:1048E00003C657009385B5FBEFC04F981C400D459C
:1048F00083C55700950593F5F50FEFF0DFE66FB030
:104900007F89EFB2FF862A8408410505EFC0CFEA10
:104910000C40854603C655009905EFC0EF9FB73799
:104920000020238BA7FA85451145EFF0DFE36FB038
:104930007F86EFB25F8237340020AA8961468145C5
:104940001305C4F9EFB03F87014AB73A002063145A
:104950003A0181440DA01545EF00305B1949EFE0A5
:104960002FABAA841545EF00505AA9C87D191379B9
:10497000F90FE31609FE1304C4F90840EF50503A4A
:1049800083A5C198EF50C049EF50903308C048400C
:10499000EF50103983A58198EF508048EF50503286
:1049A00048C00844EF50D03783A54198EF504047A6
:1049B000EF50103108C426856FB02FFD9307C4F95E
:1049C00013870AAD138687019443831507000907EF
:1049D000AE9694C39107E319F6FE050A8DBFEFB2B8
:1049E0008FF7EFF01FF52A8A63170516B7340020FA
:1049F0009384C4F9C844EF50B03283A501883724AA
:104A000000201304C437EF50200083A54188EF40F5
:104A100030498347140803470408AA8AA207D98F9C
:104A20003305F040EF50D02FAA855685EF40504710
:104A3000EF501029931705012300A4028848C18371
:104A4000A183A300F402EF50B02D83A50188EF40AD
:104A5000B07B83A54188EF40B044834734080347C7
:104A60002408AA8AA207D98F3305F040EF50502BB3
:104A7000AA855685EF40D042EF5090249317050148
:104A80002301A402C848C183A183A301F402EF500B
:104A9000302983A50188EF40307783A54188EF4016
:104AA00030408347540803474408AA8AA207D98F95
:104AB0003305F040EF50D026AA855685EF40503E92
:104AC000EF501020931705012302A4028840C183F0
:104AD000A183A302F402EF50B02483A50188EF4024
:104AE000B07283A54188EF40B03BEF50701D931723
:104AF00005012306A402C840C183A183A306F402D2
:104B0000EF50102283A50188EF40107083A54188E3
:104B1000EF401039EF50D01A931705012307A40274
:104B20008844C183A183A307F402EF50701F83A5BB
:104B30000188EF40706D83A54188EF407036EF50DB
:104B4000301893170501C183A1832308A402A30889
:104B5000F402EFB05FFB52856FB02FE3EFB24FE18D
:104B60005145EFF0DFE703C72196B7370020938761
:104B700047FB2381A70089451545A381E700EFF096
:104B80009FBE6FB02FE1EFB2AFDE1387018C83566B
:104B90000700B727002093874733A380D700A1825F
:104BA0002381D7008356270001468145A381D70082
:104BB000A1822382D70083564700035767002165EF
:104BC000A382D700A1822383D700A383E700854671
:104BD00021832384E70023800700EFB0FFF3B7377A
:104BE0000020238BA7FA85451D45EFF0DFB76FB096
:104BF0006FDAEFB2EFD7B7350020938575FB3D45EF
:104C0000EFD07FD8B7370020138747FB2301A700D9
:104C100003A78181938747FB01E7054723ACE18028
:104C200083A6818103A7419C373500203357D702E3
:104C3000114693850198130595FB2382E700EFB099
:104C40002FD63735002011469385C1971305D5FB24
:104C5000EFB00FD5AD451305D00FEFF0DFB06FB05B
:104C60006FD3EFB2EFD00145EF0060722945EF003E
:104C7000D029B707EFBE37E700E0938707083CC7A6
:104C80006FB04FD1B73700201307101089451305B7
:104C9000F00F239BE7FA6FF01FAD14410546938791
:104CA00016001CC1834745006373F608EFB24FCC72
:104CB000FD172302F50083C716009D4663E0F60248
:104CC00095CBFD1793F7F70F994663E5F602B166AA
:104CD0008A079386863EB6979C4382871307E00F28
:104CE000638EE7021307F00F6387E7021307D00F05
:104CF0006389E7026FB00FCAEFF07FA9E5BFEFF05D
:104D0000DFB2CDBFEFF03FBBF5B7EFF09FBFDDB730
:104D1000EFF0DFE4C5B7EFF0FFF6E9BFEFF07FF4A7
:104D2000D1BFEFF01FEDF9B7EFF0FFE5E1B78280FB
:104D30006FF07F84EFB2CFC31C411307000883C715
:104D400007006389E702636AF7000547638EE7009F
:104D50004147638EE7006FB0EFC31307E00FE39C9A
:104D6000E7FEEFF09FF3C5BFEFF05F93EDB7EFF015
:104D7000BF91D5B7EFF05F96F9BF0346C502AA858C
:104D800081461385816AD5A2EFB28FBE41112A8474
:104D90008545054502C002C202C402C6EF20405349
:104DA00085450545EF2020031149B14489470A850F
:104DB0003EC04AC226C422C6EF10D042BD450945B6
:104DC000EF206001A1670A853EC04AC226C422C600
:104DD000EF10504199450545EF10F07F930700040F
:104DE0000A853EC04AC226C422C6EF10B03F9D4588
:104DF0000545EF10507E930700080A853EC04AC261
:104E000026C422C6EF10103EB9450545EF10B07C10
:104E100091670A853EC04AC226C422C6EF10903C64
:104E200041016FB02FB7EFB2AFB441113715014058
:104E300091474C00130505C03EC62312F100231311
:104E400001002314010023150100EF10106B410134
:104E50006FB04FB4EFB2CFB10545EFF0FFF20545AB
:104E6000EF20E0380145252313054006EF00F00749
:104E700013051006EF20404D854719CD0545EF007D
:104E8000D00889450545EF2000280545EF00F007CB
:104E90000145EFF07FEF81473E856FB0AFAF0DCD9D
:104EA000EFB26FAB2A84AE8405458DC5328A814549
:104EB0002D4613059400B6893A89EFB0CFAF8547E8
:104EC00004C023224401230534012304F400A30871
:104ED000240101456FB06FAB05458280EFB24FA949
:104EE0009304F00F35CDADCD1C412A84B5CB83445E
:104EF0000501B5E80347A5005C4563D6E70683478F
:104F0000150113F9F70F6374F6001379F60F85474F
:104F10001307C400AF27F7005C448347940003479E
:104F2000A400850793F7F70F63E3E7008147034584
:104F30001401A304F4004A86B307F50208403E9525
:104F4000EFB00FA6034794005C40BA972380270177
:104F50008347A40058446345F70085472308F400BD
:104F600026856FB02FA38544E5BFEFB26FA013096C
:104F7000F00F59C9D1C91C412A84D9C70349050179
:104F8000631709080347A5005C4563D2E708834718
:104F90001501B2846365F600FD1793F4F70F85479A
:104FA0001307C400AF27F7005C448347940003470E
:104FB000A400850793F7F70F63E3E70081470347F2
:104FC0001401A304F40026863307F7021C4085046D
:104FD000BA972380D7000347940083471401084001
:104FE000B387E70285073E95EFB08F9B0347940098
:104FF0005C40BA97238097008347A40058446345D8
:10500000F70085472308F4004A856FB0AF9805493B
:10501000E5BFAA8729C518411305F00F39C3D84742
:10502000014521C37D579386C7002FA7E600D847C7
:1050300003C7870083C6A70005071377F70F6363CD
:10504000D70001472384E70003C7070101CBD847F6
:10505000B326D70093C616002388D7008280130595
:10506000F00F8280EFB2CF900565011185451105E3
:1050700002C002C202C402C602C802CA02CC231E77
:105080000100EF20E024930700082310F1003715FA
:105090000140E1473EC48A858D47130505803EC225
:1050A000EF10B045B7C704013EC6B70700023ECABD
:1050B000930700023ECC6C009D4737350140231E0C
:1050C000F10002C8EF20202B054689453735014005
:1050D000EF20E03105616FB0EF8BEFB2CF877971D0
:1050E0002A84AE89328981451306C0024800B684FD
:1050F000EFB06F8C85450545EF20A01B2285EF1092
:105100000077C1473EC6930700083ECC93070010C6
:105110003ECE4C00856722854EC24AC426C83ED486
:1051200002CA02D002D202D6EF10700245616FB0FF
:10513000CF85B70600014111014781479385C181A1
:10514000FD166148137615002E960346060005816C
:105150003316E600D18F0D07F58FE31507FF139582
:10516000070141812396A19CC1831375F50F938696
:10517000C19C2381A6002386F19C83D7C19C420554
:105180005D8D41018280EFA21FFD8D4AB30455035E
:105190003734002032851304C4052E8AB689EFF017
:1051A0005FF9935785001389A400330959032299A5
:1051B0002300A9004181A300F9002301A90013895C
:1051C000B40033095903B1045285EFF09FF69357A9
:1051D0008500B384540322992300A900418123014F
:1051E000A9004E85A300F900EFF0BFF493578500A6
:1051F00026942300A4004181A300F4002301A4000D
:105200006FA0BFF8EFA25FF42A8B3735002013069A
:10521000301581451305C505B7240020EFA0BFF95F
:10522000014481499384042B138AC1778D4B054C2B
:105230008347AA0003C90400834A8A0063CAF90E9F
:10524000B737002083C66703930740061384FAFF2D
:10525000B386F602133414000A042285131B890155
:10526000135B8B419309140093F6F60F3686B685CF
:10527000EFF07FF19306400663530B0081463686BC
:10528000B6854E85EFF03FF083C6919C93074006AC
:1052900013053400B386F60293F6F60F3686B6850C
:1052A000EFF07FEE634C0B0083C7419781CB8146C3
:1052B00001469305800C4E85EFF0FFEC137909024F
:1052C000090481466319090083C7140093F7070294
:1052D000DDCB93064006014681452285EFF0BFEA0B
:1052E00083C7C18F81CB8146014693054006228545
:1052F000EFF07FE9854711446393FA003144834717
:105300009A008DE783C6940503C6840583C574059A
:1053100013054400EFF03FE783C6840603C6740616
:1053200083C5640613055400EFF0FFE56FA05FE549
:105330001379290013F5F90F6314090063190B00A1
:10534000814601468145EFF01FE48509D5B5B307D5
:105350007403A69783C6970203C6870283C57702A4
:10536000EFF07FE263860A00638A8A010504F1BFD9
:1053700093A7490093C717003E94C1BF9387C9FF05
:1053800093B74700C5BF814613064006B1B7EFA2E9
:105390003FDE37040240AA84814513050403EF1061
:1053A000805E2685EFF01FE6B73700201305040363
:1053B0009387C7055CC583C761780D478545B3876B
:1053C000E702D107B387E7025CC1EF10C05B8545F8
:1053D00037350140EF10D07F6FA0DFDBEFA25FD940
:1053E000EFF05FC80945152683C761780D478D46E4
:1053F000B387E70237360020B73501403705024052
:105400001306C605B10513050503D107B386D702F8
:10541000EFF0BFCC0545EFF09FF701456FA09FD798
:10542000A387A19C828013050020EF10205B0DC193
:1054300013050010EF10C05A3705024081451305CF
:105440000503EF104054814537350140EF10507887
:1054500073002030411102C43717024002C61C43BA
:10546000C16637060200D58F1CC3B7160240156708
:105470009C42F18F3EC6A24785073EC4B24781E7F2
:10548000A247E397E7FEB71702409C4337070200A5
:10549000F98FC9C385473EC632478547631EF70665
:1054A000B72702409843B706C1FFFD1613670701EF
:1054B00098C39843719B98C398431367270098C378
:1054C000B7170240D843D8C3D843D8C3D843D8C3AA
:1054D000D843758FD8C3D843B7061D00558FD8C39E
:1054E0009843B7060001558F98C3B706000298434A
:1054F000758F75DFD843B7160240719BD8C3D84368
:1055000013672700D8C32147DC42B18BE39EE7FE37
:105510004101828002C649B701A0B71702409843F3
:10552000B706FFF81367170098C3D843758FD8C321
:105530009843B706F7FEFD16758F98C39843B706D4
:10554000FCFFFD16758F98C3D843B70681FFFD1683
:10555000758FD8C337079F0098C76FF0BFEF371715
:1055600002405C43A146B18B6391D7065C43544330
:105570004166C983BD8BF18E890781EE37470240B2
:1055800003270780418B19CB37177A0013070720B1
:1055900011A85843B7060200758F7DD737173D0015
:1055A00013070790B387E7023717024054433717B2
:1055B0000020130787279182BD8A3697034707008B
:1055C000B3D7E70023A0F1828280B7177A009387D0
:1055D0000720D9BF6FF01FE8854537050040EF2051
:1055E000C0068547631CF50083A7819D8545370567
:1055F0000040850723ACF19CEF20A007730020300A
:10560000EFA21FB70111930770043ECA4C0893071D
:10561000703E370500403ECCEF10D05E0546854514
:1056200037050040EF10B07B854537050040EF108F
:10563000F0779307C0022316F10089472307F10092
:10564000680085473EC8EF10F022956737E700E015
:105650009387875D7CC3B207B706002CB183D58FD3
:105660007CD305616FA01FB303A7019D11E7054718
:1056700023A8E19C6FF0DFF8828083A7819D130748
:10568000803EB387E70237070040035547023E9547
:10569000828003A5819D828083A7018237177A00CB
:1056A00013070720B3D7E702238AF19C828019E50C
:1056B00001458280014541016FA0DFADEFA25FABE4
:1056C00041112A84AE843289EFF03FFB2AC6268539
:1056D00002946DF1EFF07FFAB2471D8DE379A9FED8
:1056E0002685029413351500F9B7EFA27FA8411162
:1056F0002A84EFF09FF82AC6EFF03FF8B2471D8DDD
:10570000E37CA4FE41016FA0FFA883A7819D411106
:105710003EC683A7819DB246958FE37CF5FE41018D
:105720008280034635009306450001471376F6074D
:105730009D4503C80600B357E6409E07B3E707013F
:105740002380F60005078506E315B7FE834725008D
:105750000347B50095838D8B93967700558FA305EE
:10576000E5000347C5009A0793F707F8D98F23068A
:10577000F5008280EFA2DF9F79711306C002814598
:105780004800EFA05FA3370402408145130544049D
:10579000EF10601F13054404EF10600DB744014083
:1057A000938744803EC2C1473EC6930700083ECC63
:1057B0004C008567130544043ED402C402C802CAE3
:1057C00002CE02D002D202D6EF1060188145130536
:1057D0008405EF10401B13058405EF104009B747FF
:1057E00000209387878F3EC4930700183EC8930715
:1057F00000023ED24C008967130584053ED402C6E0
:10580000EF10E014130584058545EF10C017054619
:105810009305000413850480EF10707245616FA03A
:105820007F97EFA2FF9401118545114502C202C482
:1058300002C602C802CA02CC02CEEF10702985450A
:105840001165EF10F028930700202312F1003714A0
:1058500001408D473EC44C00E147130504803EC61D
:10586000EF10A049930700402312F1004C0093076A
:105870008004130504803EC6EF102048B7C72D00F2
:10588000374401409387076C3EC80C08B7070C00EB
:10589000130504803ECC02CA231E0100EF10505EA7
:1058A0001305048093050004EF10906B130504802A
:1058B0008545EF10506737360020B7350020373563
:1058C0000020354793060004130686239385855BE5
:1058D0001305451EEFF0AFDC37360020B73500204A
:1058E000373500203547930600041306861F93853D
:1058F00085271305051DEFF08FDA05616FA09F89DD
:10590000EFA27F85B74901402A89AE8413850980BB
:105910009305000437040240EF109064130544041B
:105920008145EF104006232824051305440444C193
:105930008545EF104005054693050008138509804D
:10594000EF10F05F6FA07F84EFA29F8283C7619EFC
:105950009DCBB74401409305000413850480EF10EC
:10596000705F05C19305000413850480EF10505F3C
:1059700001469305000813850480EF10505C2383D3
:10598000019E6FA03F81B73700201387071D4C474A
:105990009387071DFDD503C68700354503C89700CB
:1059A0003305A602373700201307872783C6A700D1
:1059B0003A95130718006376C802918E93950601F5
:1059C000C181D8C72384070023880700B547B38562
:1059D000F502C205C181EFF0BFF285472383F19E36
:1059E0004DB7C2051377F70FC1816363D700014735
:1059F0002384E70023A60700C1BF45C501478147AF
:105A00001D46B306F50083C6460093C5770085079B
:105A100093F60608B3D6B640558F1377F707E3928F
:105A2000C7FE834735009306D50093F707F8D98F53
:105A3000A301F5008347C5000347B50099871D837F
:105A4000898BD98F0347250096071377F7F9D98FEC
:105A50002301F5009307450003C707008507137767
:105A6000F707A38FE7FEE399F6FE834705001307C8
:105A7000250093F7F707034607000507B18F93F753
:105A8000F707E39AE6FE03472500A306F500137720
:105A9000F7072301E500034735001377F707A30154
:105AA000E50082801DC58347050013072500930686
:105AB000D50093F7F707034607000507B18FE31CEE
:105AC000D7FE0345D5001375F5071D8D3335A000AE
:105AD00082801305F00F8280EFA20FE737050240A6
