:100000006F60700613000000130000001300000072
:100010001300000013000000130000001300000094
:100020001300000013000000130000001300000084
:08003000130000007300100032
:100038006FF09FFC000000006F0060186F00A01AAE
:1000480000000000000000000000000000000000A8
:100058000000000000000000000000000000000098
:100068006F60C07F000000006F60407F00000000EC
:100078006F60C07E6F60807E6F60407E6F60007EC4
:100088006F60C07D6F60807D6F60407D6F60007DB8
:100098006F60C07C6F60807C6F60407C6F60007CAC
:1000A8006F60C07B6F5020716F60407B6F60007B1A
:1000B8006F60C07A6F60807A6F60407A00000000DD
:1000C8000000000000000000000000006F600079E0
:1000D8006F60C0786F6080786F6040786F6000787C
:1000E8006F5090086F20800B6F6040776F600077CB
:1000F8006F60C0766F6080766F20C0556F60007645
:100108006F60C0756F6080756F6040756F60007557
:100118006F60C0746F6080746F6040746F00001D02
:1001280000000000000000000000000000000000C7
:080138000000000000000000BF
:10014000397101436EC619A0397141536AC866CA34
:1001500062CC5ECE19A0397101535AD056D252D416
:100160004ED64AD826DA22DC06DE3301614082828E
:1001700041114AC026C222C406C68282B24D410144
:10018000024D924C224CB24B4101024B924A224A00
:10019000B2494101024992442244B2404101828065
:1001A0002A8309CA83830500230073007D16050393
:1001B00085056DFA82802A8311C62300B3007D165F
:1001C000050365FE82800145EF50403C3717024031
:1001D0001C47B7068000D58F1CC7EF50207937E742
:1001E00000E03C4793E787003CC77300203073274B
:1001F000203423A2E18AF326103483A7418A23A066
:10020000D18A372700201307C73513D68700A300EC
:10021000C70413D607012301C70413D68701A3011E
:10022000C70413D68600A302C70413D6060123030E
:10023000C70413D686012300F7042302D704A303BF
:10024000C70463CD07000D476382E7026375F700BB
:10025000F1176365F70091067390163437E700E0F5
:100260003C4793E707023CC77300203001A0EFF240
:100270003FF011458545EF704039B74702409387FD
:100280000780984301451367470098C303A741823D
:10029000B7A74A04938707206309F700B777DC0202
:1002A000938707C06315F7000545EF7080248545E7
:1002B0000565EF70A033F9BD37370240930700FCA6
:1002C0002306F74093874176C207C1832318F7407E
:1002D0009387416E23A0F1A4C207C183231AF7407C
:1002E00089472309F742230BF7429387818AA3802A
:1002F00007008280011122CE26CC4ACA4EC852C6BF
:1003000056C43734024003476440834774409376B1
:10031000F70F098B6304075E93F7F70F13F70703D3
:10032000930500026302B70493060003630FD71618
:1003300021E713F7F703630007128546631ED70210
:1003400093F7070495CB834764431385C16B93C729
:100350000708230BF4420356844083A501A41376B7
:10036000F60FEF40D05A09A893F7F7036384E7022A
:1003700013071002638EE70AB73702400947238349
:10038000E7407244E2445249C249324AA24A0561F6
:100390007300203083D7618B99E78347244393F719
:1003A000370F2309F44283C7C18B93F70706E9F798
:1003B00083C7D18B954613F7F70F638FD7049947FF
:1003C000E31CF7FA03D7618B9307F00313040004CF
:1003D00063E6E70003D4618B4204418003A9018CEA
:1003E0002286CA8513854176653B83D7618B229926
:1003F00023A0218D818FC207C183239BF18A1374AF
:10040000F40FB73702402388874203C727431347B7
:1004100007042389E7428DB7B736024003C7364049
:1004200083C7418B13770708D98FA381F640A9B7FB
:100430008347644393F7C70F93E72700230BF442E6
:100440008347644393C70704230BF4429387818A4D
:10045000A380070015B793F70704E38F07F083C75E
:10046000C18B93F70706E38907F083C7C18B93F726
:100470000706E393B7F003C7D18BA547E31EF7EE5A
:10048000374500201306000493854176130545B0D7
:10049000013B0547238CE1A28347244393F7C70F11
:1004A00093E727002309F442C1BD9307A0FC230969
:1004B000F4421387417683470700238EF18A8347EE
:1004C000170083562700A38EF18A83576700239B6A
:1004D000F18A239DD18A83564700239CD18A03C980
:1004E000C18B93864176137909066309090C83C78A
:1004F000C18B93F70706639EB70283C7D18B29464A
:10050000FD1793F7F70F6363F61831668A07130632
:100510008604B2979C43828783D7818B63980716A2
:10052000B745002013060004938545B01385417636
:10053000853983C7C18BE207E18763DE073803D7BC
:10054000618B9307000463E6E70083D7618BC207E2
:10055000C18303D7618B1D8F42074183239BE18AAF
:1005600093F7F70F373702402308F74283472743B3
:1005700093F7C70F2309F74201B583D7818B6397A0
:10058000071003C73600A388E18A65B783D7818B3C
:10059000639E070E03C726002388E18A59BF83D7CD
:1005A000818B6395070E83C7118B2380F60051B7AB
:1005B00083D7818BE1EF83C7018BC5BF83C5D18B07
:1005C0002D4813F6F50F6363B80CB1650A069385E1
:1005D00045072E961042028683D6A18B0D46A18236
:1005E0006386C60C636CD6008547638CF602894728
:1005F0006381F60481471309F00F81A89307100265
:10060000638BF60893072002E396F6FE83D7818B6F
:10061000F5F3B5679387879C23A0F18C9307F00DC2
:100620002DA0B567938787AA23A0F18C83C7070005
:1006300029A8B71700209387872823A0F18C03C728
:10064000270083C73700A207D98F03D7618B63F4D4
:10065000E700239BF18A03D7618B9307F003130A0A
:10066000000463E7E70003DA618B420A135A0A01C8
:1006700083AA018C528613854176D6851536D29A87
:1006800023A0518D9307F00FE315F9EAB737024025
:100690001307F0FCBDBB83D7818BA9FFB7170020E0
:1006A0009387A72923A0F18CA54745B783D7A18BB2
:1006B000094793F7F70F6387E702636BF70099EF3A
:1006C0009387418923A0F18C014983C70700B5BFF7
:1006D000E392D7F2B56793878797B9B7B5679387E2
:1006E000C79B99B7B567938707993DBF83D7A18B00
:1006F00093F7F70F238AF18A2DBD83C7518B23808F
:10070000F60003D7618B8547E3F5E7E2239BF18A87
:100710000DB583D7A18B93F7F70FA38AF18A05470D
:100720002389E18A39B583C6C18BFD8A99EE83D7C7
:10073000A18B054793F7F70FE39DE7DE83C7318B66
:1007400093F7E70FA389F18AEDB383C6C18B0946FE
:10075000FD8AE39DC6F283D7A18B93F7F70F9DF730
:1007600083D7818B054793F7F70F6381E702130760
:100770002008E39DE7F0373702408347A74393F70C
:10078000C70B93E72700230DF74265B337370240C5
:100790008347674393F73707230BF7428347674342
:1007A00093F7C70B93E72700230BF74259B383C690
:1007B000C18BFD8A8DE683D7A18B054793F7F70F91
:1007C000E396E7ECB717002083C7F72893F70702F3
:1007D000E38E07EA83C7318B93E71700A5B783C67B
:1007E000C18B0946FD8AE393C6EA83D7A18B93F7B1
:1007F000F70FE39D07E883D7818B1307100893F762
:10080000F70F638FE70013072008E391E7E8373716
:1008100002408347A74393F7C70B93E73700A5B779
:10082000373702408347674393F7370793E7C7009B
:10083000230BF7428347674393F7C70B93E73700D0
:10084000A5B72380060075BD83C7C18B23920176AF
:10085000FD8B99EB83C7318B858BBDC38947238083
:10086000F60003D7618B4DB583C7C18B0946FD8B5D
:10087000639CC70403D7818B130610081377F70F07
:10088000630DC700130620086305C70203D7618BF9
:10089000E3FEE7DE239BF18AD5BB373702400347EF
:1008A00067433146318BE31EC7FA05472380E600D4
:1008B0004DBF373702400347A7430D460D8BE5B7C1
:1008C00003D7618B894789B583D7618BE370F6DCE9
:1008D000239BC18A65BB83D7618B91EBB7370240FD
:1008E0002388074203C727431377C70F1DB637373F
:1008F00002408347274393F7370FADB993F71600AC
:100900009DC3A38A018A238A018AA389018A238934
:10091000018AA30104404D328347644093E71700E6
:100920002303F440B9BC93F746009DCB91472303C2
:10093000F4402945EF50E01403475440118B11CB8C
:1009400003C7318B13672700A389E18A83C7318BE3
:100950000DBC03C7318B1377D70FA389E18A15B478
:100960002303D44039BCEFF2BF80B74702409387DE
:1009700007809843C1E51367870098C33734024066
:1009800099472300F4402DCD2945EF50800F9D4716
:10099000230004402301F440930790022300F44015
:1009A000213A930710F8A300F44013071004E1461E
:1009B0001386C1A59385410A1385016DEF404071EF
:1009C000B715002013071004E146138641A793854D
:1009D000455B1385C16BEF40A06F37E700E09307DD
:1009E000402F7CC3B207B183B706003BD58F3CD301
:1009F000B70700082322F7106FF0CFF95D9BB5BF52
:100A00002945EF500008B7E700E023000440B84351
:100A1000C146B4C33706000893860718D0C2B8C3CE
:100A2000E1BF83C7517A9DCB0547638EE702130769
:100A3000401F9307802A23A8E18023A6F180938694
:100A4000072D371700202328D7321307002DB307AF
:100A5000F740371700202326F73282801307A0289B
:100A60009307002DC9BF1307C021DDBFEFF24FF080
:100A700037070001AA87130707F07D8FA1662E852F
:100A8000630ED70263E8E60029C39966630ED700B8
:100A90006FF04FF0BD66E31DD7FEB725002093F73A
:100AA000F70F9385852D39A0B725002093F7F70F11
:100AB0009385453ABE95EFF0AFEED9BFB72500203C
:100AC00093F7F70F9385C535F5B793F7F70F938530
:100AD000417ACDB7B7250020130640089385852DB0
:100AE000014565A9B7250020130640089385852D8B
:100AF00001452DA9B72500201306100B9385453A13
:100B00001305001059A9B72500201306100B938573
:100B1000453A1305001019A9EFF28FE5372400209C
:100B20001304842D0345C401EF90705383A581877E
:100B3000EF90202123AEA1980345D401EF903052CD
:100B400083A58187EF90E01F23ACA1980345E401C2
:100B5000EF90F05083A58187EF90A01E035704010A
:100B600023AAA1983307E7029387418C98C30357C0
:100B700024013307E702D8C3FD2BEF00F000EF108C
:100B800020330545EF4090206FF0CFE0EFF24FDECD
:100B9000372900201306100BFD551305493AEFF0D5
:100BA0008FE12D46FD551385417AEFF0CFE02D46BC
:100BB0009385417A13050030CD2683C7417A93840B
:100BC000417A858B9DC3854723A00400A380F40050
:100BD0002D46FD479385417A1305003023A204007A
:100BE000239404002385F400912629371309493AF8
:100BF00083470901372400201304443A6380071017
:100C0000930700F82300F400E9778D072319F40017
:100C10008547A30DF4009307C0FCA30EF40295676B
:100C2000938747CC231FF402B71780CC93870780A4
:100C30003CC0B7570008938747CC7CC0B7D7C44C9B
:100C4000938707C83CC4F1779387C74C2316F404F5
:100C50009307C0042307F404B73732FF93872713A1
:100C60003CC8FD57231AF4048D67BD072313F4080D
:100C7000B7B790D9938717E62324F408B7175441E0
:100C80009387474D2326F408B757C7799387574171
:100C90002328F408B73736639387C7394946930545
:100CA000640813058409232AF408EFF06FCFB7070F
:100CB0008BFF9387B7051CD0B70700409387671950
:100CC0005CD0B74700401CD4B707BEFFF5075CD423
:100CD000B7073C34B9171CD8B7373B349387B743B1
:100CE0005CD8C167938707D52320F408856793876D
:100CF00067FC2312F408230804003135930700F839
:100D00002300F400E9778D072319F4008547A30D2C
:100D1000F40037240020130680049305C43513051E
:100D20000020A52C9307C43503C7070015C321472E
:100D3000A38007002381E700A38107002382E70047
:100D4000A38207002383E700A38307002384E7002F
:100D50003729002013064008FD551305892DEFF0B3
:100D60008FC58D3B8347892D1304892D858BCDC37A
:100D70001306400881451305892DEFF0CFC3856721
:100D8000938787802312F4000967B7270020938791
:100D9000272E130707022390E7002391E70037254A
:100DA0000020B727002061779387E72D13070708F6
:100DB0001146930500041305952F2390E700239116
:100DC000E700EFF04FBF930700FCA300F400930788
:100DD000606D2317F40003C6A400B7077805938756
:100DE00087571CC801478D45FD56634BC704B7871D
:100DF0007F029387F7F75CCC8D679387C74B231AE5
:100E0000F4008347040093E707F82300F400D9397E
:100E1000213303475400B717002093878728A38006
:100E2000E702034744003735002019462384E702D0
:100E30009305640113056506EFF08FB66FF08FB56B
:100E4000B307B7020507A297A383D7022384D7026B
:100E5000A384D70259BFEFF2AFB1E1360545EF40A9
:100E6000E0726FF02FB3EFF20FAFB7070001938777
:100E700007F0E98F2167AA8432893684638FE704FB
:100E8000636AF700B5CF19676386E70201442285DC
:100E90006FF0AFAF3D67E39BE7FEB7270020937984
:100EA000F50F9387872DBE994E85EFF06FAF05C084
:100EB000153929A8B72700209379F50F9387473A6A
:100EC000BE994E85EFF0CFAD19C035392A844A86D8
:100ED000CE852685EF50401C5DBF372A00209379D0
:100EE000F50F9307CA35BE994E85EFF06FAB65D00D
:100EF000130680049305CA35130500200528F9B7A9
:100F00001375F50F9387417A3E95AE89EFF04FA99F
:100F100019C44A86CE851305003009282A844A86DA
:100F2000CE852685EF5040173D3795B7EFF2AFA23B
:100F3000B7F700083304F5003307C400B70701080A
:100F4000637BF7042E8A2285930500103289EF50C7
:100F500010701147AA848947631CE502B729002055
:100F600013060010FD5513858945EFF0CFA44A867E
:100F7000D28513858945EFF0AFA213060010938543
:100F800089452285EF50507E8D4763139500814738
:100F90003E856FF08F9F8547E5BF37F70008AE8726
:100FA000B305E5003387C500B7060108637CD700A9
:100FB000094599CBEFF2CF9B3E85EFF06F9E01453F
:100FC0006FF04F9D054582808280AA872E8563D36E
:100FD000B7003E858280EFF2AF994111AA85114694
:100FE0006800EFF0EF9B324541016FF0AF9AAA879E
:100FF0002E8563C6B7003E856353F6003285828036
:10100000EFF20F977971614681452808EFF0AF9AAA
:10101000014502C602C802CAEF60E04F3715014021
:101020009307A0036C0013050580372401402316A5
:10103000F10002CAEF60E00413050440EF50900A8B
:1010400085473ECE3ED0B7070E003ED22C089147D2
:10105000130504402306F10202CC02D4EF50300BFA
:10106000854513050440EF50901085451305044055
:10107000EF50F00E13050440EF509010930404401D
:101080002685EF5090106DFD130504403724014074
:10109000EF503010930404402685EF5030106DFD62
:1010A00013050440EF50101D2396A18C45616FF08D
:1010B0006F8EEFF24F8A79712A84AE893289814529
:1010C0001306C0024800B684EFF0EF8E2285EF5081
:1010D0009032930700083ECC930700103ECE930752
:1010E00000403ED0930700023ED24C008D6722851F
:1010F0004EC24AC426C83ED402C602CA02D6EF5027
:10110000903D45616FF06F88EFF28F86D53D3724B3
:101110000140B70402409305C444138584009146FE
:101120001386018D7937130504409D460546854594
:10113000EF50D008130504409D4609469545EF50F1
:10114000F007130504409D460D468D45EF501007EE
:101150009D461146130504409145EF503006138516
:1011600084008545EF50B03A854513050440EF50A3
:1011700070036FF02F82C1663727002093078755D1
:1011800013860610D0D71386160093860604D4C3A0
:10119000B716020094C3B706020013858600E8C3A1
:1011A00013850602A8C36165E8C713850601A8C7B1
:1011B00013850620A8CF3725040088CF1385061095
:1011C000E8CF37450400C8CF1385060488D3378598
:1011D000040090D7C8D393860608378502003726C7
:1011E0000200B745020088DBD4DBD0C78CC7B72725
:1011F000002083C6872D9307875513F5060119C173
:10120000CCC790C713F7860001CB37170200D8C3AD
:1012100041671307070498C3918A89CA23A2070468
:1012200023A0070423A6070423A407048280EFE277
:101230003FF441118D472E8432C63EC4AA8402C2B7
:10124000014681470147C1656343870619C22312DE
:10125000F100371501404C0013050580EF50706216
:1012600001462312010081470147B7050200634D83
:10127000870419C22312F100371501404C001305F1
:1012800005C0EF501060014623120100814701475D
:10129000B70504006347870419C22312F1004C000C
:1012A00037150140EF50F05D41016FE0BFEE93163E
:1012B0002700A696944233F5B60009C5D58FC2071C
:1012C000C1830546050749B793162700A6969442A1
:1012D00033F5B60009C5D58FC207C183054605079A
:1012E00079B793162700A696944233F5B60009C540
:1012F000D58FC207C1830546050769BFEFE25FE7E7
:101300004111B78702005146854568003EC6053742
:10131000B70700209387070688470546A165EF5069
:101320007063370500201306800291451305050000
:10133000FD3D370500204146914513050501C53D9A
:10134000B70700209387070237270020138607047A
:101350001307875594438A06BA9623A00600D44300
:101360008A06BA9623A0060094478A06BA9623A056
:101370000600D447C1078A06BA9623A00600E39B5D
:10138000C7FC41016FE01FE1EFE29FDEED3383C751
:10139000B17A91C3A5373725002013068004E145B3
:1013A0001305855569356FE0FFDEEFE2FFD937049D
:1013B000002013040401B704002037090020B70AF5
:1013C000002093840402130B0401014A1309090647
:1013D000938A0A00C14B0C400546814993D7E5002A
:1013E000F18BCA978843C205C181EF50B056514571
:1013F000EF402069B38759018C4393D7E500F18B07
:10140000CA978843C205C181EF509053B387340116
:101410009C4391093315F500336AAA00E39C79FDDA
:101420000C400146110493D7E500F18BCA9788431D
:10143000C205C181EF5010525145EF408064C10494
:10144000E31B64F952856FE0BFD3EFE2FFCF83C7A0
:10145000B17A014499C3913F2A84B7190140B72456
:101460000020138B09C0938484550149370A070073
:10147000B70A0200B70B0400416C938909808C40C5
:10148000B3F7450163895703638B7703054563977A
:101490008701C205C1814E85EF50904A93371500F0
:1014A000B39727015D8C0509E1479104E319F9FC25
:1014B00022856FE0FFCCC205C1815A85F1BFC2050C
:1014C000C18137150140C9BFEFE29FCAB7070700C6
:1014D000E98F37070200AA856384E7023707040013
:1014E0006388E70241670545639AE700C20537153F
:1014F0000140C18113050580EF5090446FE09FC902
:101500009315050137150140C181130505C0EDB7DD
:1015100093150501C18137150140F9BF1357E50047
:10152000B7070020718B93870706BA972E8693150D
:1015300005018843C1816F50F041EFE27FC37971AB
:101540002A848545314502CA02CC02CE02D002D29D
:1015500002D402D602C402C623180100EF60E00ADA
:101560006315040E85450945EF60000C37150140F1
:1015700061478D474C08130505C03ACE370400403B
:10158000231AF1003ECCEF50D02F9307005A2C00C5
:10159000130504403EC602C4EF60601A0546854547
:1015A00013050440EF604037C167938707060C10AE
:1015B000130504403ED02313010223140102EF60FF
:1015C000801F0C1013050440EF60E02985451305CA
:1015D0000440EF600033A14513050440EF6000377D
:1015E000A14513050440EF60803781451305044091
:1015F000EF60E0339305002D13050440EF60C03722
:101600009305002D13050440EF606037EF00F00EE6
:101610009307D0122310F1009D472301F1000A85A2
:1016200085473EC2EF50905D89679387471A37E739
:1016300000E07CC3B207B183B706002DD58F3CD73D
:10164000854513050440EF60002A45616FE09FB4B3
:10165000AA8537050040130505406F60C028EFE2FA
:101660003FB1AA8832883E8689472E85BA85638C29
:10167000F8008D476388F800638308003688428548
:101680006FE05FB14295EFF09F9613180501135874
:101690000841F5B719473305E502B70700209387DE
:1016A00007082E86014781463E9583152500034590
:1016B00005009307C01165B719473305E502B70761
:1016C0000020938707082E861307000C930600104E
:1016D0003E9583154500034515009307001441B757
:1016E0001387418E1443B727002058430E05938774
:1016F000875BAA9794C3D8C38280EFE27FA7AA84AE
:10170000034535001384418E8315040005817D89CE
:1017100051372310A40003C534008315240005812C
:101720007D89593F83C734002311A40003C52400D9
:1017300083154400858B920711815D8DA13F83C77E
:1017400034002312A40003C5240083156400858B94
:10175000920711815D8D8D372313A4000145493710
:101760000547A386E18E6FE0FFA2EFE27FA08347EB
:10177000350003472500B705002093F7F7031356FC
:1017800077008607D18F938505148607AE9783D798
:10179000070031661377F7071306460A0607938694
:1017A000418E32972390F6008357070003470500C8
:1017B0002391F60083471500098393F7E70FBE9541
:1017C00083D705002392F600834715000145858BDA
:1017D0009A07D98F86073E96835706002393F60013
:1017E00001370547A386E18E6FE0DF9AEFE25F984D
:1017F00083473500834625000347050093F7F70329
:101800009D82860713764700D58F058BAA841384A3
:10181000418E8607630D070C6301060C31671307C1
:10182000470ABA9783D707002313F40001454D3DBB
:1018300003C524008315040009817D89A13D23107F
:10184000A40003C524008315240009817D89AD35DA
:1018500083C724002311A40003C51400831544008A
:101860008D8B8E0715815D8D353583C7240023123E
:10187000A40003C51400831564008D8B8E071581A9
:101880005D8D1D3D2313A4000545993D03C514003E
:10189000831504007D89FD3B2310A40003C51400BB
:1018A000831524007D89093D2311A40003C504008C
:1018B000831544000D81F93B2312A40003C50400E5
:1018C000831564000D81CD3B2313A4000945093D18
:1018D0000D47A386E18E6FE0FF8B370700201307CB
:1018E0000714BA9783D707002312F40081B711CAEF
:1018F00031671307470ABA9783D707002311F4000B
:1019000035B73707002013070714BA9783D70700A6
:101910002310F40021BFEFE2BF85AA840345350000
:101920001384418E8315040005817D89A53323101E
:10193000A40003C534008315240005817D89AD3BD7
:1019400083C734002311A40003C524008315440079
:10195000858B920711815D8D353B83C7340023123F
:10196000A40003C5240083156400858B92071181B0
:101970005D8D99332313A40001459D3383C7240053
:1019800003C5140083150400BD8B86071D815D8D82
:10199000113383C724002310A40003C5140083154A
:1019A0002400BD8B86071D815D8D39332311A40072
:1019B00003C514008315440009817D89E139231290
:1019C000A40003C514008315640009817D89ED31ED
:1019D0002313A400054529330947A386E18E6FE050
:1019E0006FFBEFE2EFF8AA8483C7340003452500BC
:1019F0003707002093F7F703935675008607D58FB6
:101A0000130707148607BA9703C7040083960700D5
:101A1000B1671376E70F9387470AB2970981058B61
:101A2000839707007D891384418E51CF831504006D
:101A30002312D4002313F400EFF0DFC52310A40019
:101A400003C524008315240009817D89EFF0DFC6DA
:101A50002311A4000145EFF0BFC883C7240003C5CC
:101A60001400831504008D8B8E0715815D8DEFF0BA
:101A70007FC283C724002310A40003C5140083156C
:101A800024008D8B8E0715815D8DEFF0FFC2231131
:101A9000A40003C51400831544007D89EFF09FBFA7
:101AA0002312A40003C51400831564007D89EFF0A0
:101AB000BFC02313A4000545EFF09FC20947A386CA
:101AC000E18E6FE02FED831544002310D400231125
:101AD000F400EFF03FBC2312A40003C524008315DB
:101AE000640009817D89EFF03FBD2313A4009DB7F9
:101AF000EFE20FE8AA84034535001384418E831575
:101B0000040005817D89EFF0FFB82310A40003C510
:101B100034008315240005817D89EFF0FFB983C768
:101B200034002311A40003C5240083154400858BD1
:101B3000920711815D8DEFF0FFB583C7340023124A
:101B4000A40003C5240083156400858B92071181CE
:101B50005D8DEFF07FB62313A4000145EFF05FB871
:101B600083C7240003C5140083150400BD8B8607BA
:101B70001D815D8DEFF01FB283C724002310A400E8
:101B800003C5140083152400BD8B86071D815D8D60
:101B9000EFF09FB22311A40003C514008315440085
:101BA00009817D89EFF01FAF2312A40003C5140043
:101BB0008315640009817D89EFF01FB02313A40011
:101BC0000545EFF0FFB183C7140003C5040083157A
:101BD00004008D8B8E0715815D8DEFF0BFAB83C741
:101BE00014002310A40003C50400831524008D8B6A
:101BF0008E0715815D8DEFF03FAC2311A40003C566
:101C00000400831544007D89EFF0DFA82312A400AF
:101C100003C50400831564007D89EFF0FFA9231339
:101C2000A4000945EFF0DFAB0D47A386E18E6FE01E
:101C30006FD6EFE26FD103473500372400202386AB
:101C4000018EA386018E19838946AE841304845BBA
:101C5000630DD70C8D466308D70E4DE38547A386E9
:101C6000F18E231204002310040003C5D18E0D460B
:101C70008145EFF0CFB7316BB72B0020938CC18D2E
:101C8000A386A18E014CA28A130B4B3B938B8B2D09
:101C90009389C18D83C7D18E6349FC0A83C7340001
:101CA00005472386E18EA386018E99838946638C3E
:101CB000D7148D466388D716639E0710A386E18EDE
:101CC000231204002310040003C5D18E0D46814564
:101CD000EFF0EFB1B169372A0020138BC18DA386D5
:101CE000A18E814A9389493B130A8A2D9384C18D21
:101CF00083C7D18E63CCFA126FE08FC803471500FB
:101D000083472500834605002207BD8B558FC207F8
:101D1000D98F81E7EFF07F9E89BF8D8A81E6EFF052
:101D2000DFA4A1B7EFF09FAC89B783471500034745
:101D300005008D8BA207D98F81E7EFF0DFBD35B7A6
:101D4000EFF03FCA1DB76D330DB703974A0083C745
:101D50006B000A075A971843B387E702918323A2BF
:101D6000FC0083976A008A07DA97884319C913062B
:101D700000143306C502814637952F50A545EF5014
:101D8000706B23A0A900CE850145092C03970A009A
:101D900083C78B000A075A971843B387E7029183DA
:101DA00023A2F90083972A008A07DA97884319C982
:101DB0001306000A3306C502814637952F50A54504
:101DC000EF50506723A0A900CE850945C12A050C14
:101DD000A10AC9B503C7140083C7240083C6040041
:101DE0002207BD8B558FC207D98F89E72685EFF073
:101DF000DF90D9BD8D8A268581E6EFF01F97E9B582
:101E0000EFF0DF9ED1B583C7140003C70400268519
:101E10008D8BA207D98F81E7EFF0FFAF75B5EFF09B
:101E20005FBC5DB52685EFF0BFCC79BD03174400DC
:101E300083477A000A074E971843B387E7029183D6
:101E40002322FB00831764008A07CE97884319C9B1
:101E5000130600143306C502814637952F50A54559
:101E6000EF50505D88C0A68505450D2A0317040074
:101E700083479A000A074E971843B387E702918376
:101E8000DCC0831724008A07CE97884319C913063C
:101E9000000A3306C502814637952F50A545EF50FD
:101EA000705988C0A6850D45D528850A210489B5B5
:101EB000EFE20FACB727002083C4972D3704002032
:101EC0001306001093F784008DC7B1659385451AFA
:101ED00013050414C188EFE0AFAC91C813050414D6
:101EE000B16541469385452A0905EFE06FAB6FE088
:101EF0006FAAB1659385452BE1BFEFE26FA7372647
:101F00000020B73500203735002021479306000216
:101F10001306065D938505951305C5A8EF30401B94
:101F200037260020B735002037350020214793069B
:101F300000021306065F93850585130585A7EF301C
:101F4000201937260020B7250020373500202147EB
:101F5000930600021306066193850575130545A6D1
:101F6000EF30001737260020B72500203735002036
:101F70002147930600021306066393850565130542
:101F800005A5EF30E01485472384F192A384F192F4
:101F90002385F192A385F1926FE0CF9FB9CDEFE257
:101FA0002F9D89476309F50263E2A7021DE93735D2
:101FB000002021461305C5A8EF30601519C9054753
:101FC00005452386E190EF30605C21A08D476300DA
:101FD000F5026FE02F9C373500202146130585A7B9
:101FE000E1BF373500202146130545A6F1B7373547
:101FF00000202146130505A5C1B78280EFE24F9767
:1020000083C7B19295CF373500209307C5A8D44731
:1020100085CA83C78700B7360020938606958E074A
:10202000B6979443DC43A3850192138781941305EB
:10203000C5A85CC314C3EF30E0200547A387E19235
:1020400083C7A19295CF37350020930785A7D44742
:1020500085CA83C78700B7360020938606858E071A
:10206000B6979443DC4323850192138701941305AB
:1020700085A75CC314C3EF30E01C05472387E192BA
:1020800083C7919295CF37350020930745A6D44753
:1020900085CA83C78700B7260020938606758E07FA
:1020A000B6979443DC43A38401921387819313056D
:1020B00045A65CC314C3EF30E0180547A386E19240
:1020C00083C7819295CF37350020930705A5D44764
:1020D00085CA83C78700B7260020938606658E07CA
:1020E000B6979443DC43238401921387019313052D
:1020F00005A55CC314C3EF30E01405472386E192C5
:102100006FE04F8921C29841E1679387076A3E9744
:1021100098C16374C70001458280B356C7028357D4
:1021200005003377C702B697C207C1832310F500B5
:1021300098C1056713070780E37FF7FC93F7F77FE4
:102140002310F50005458280EFE28F82B72700203B
:1021500083C7872D2A87368493F707042E85544337
:10216000B28595C3854781CE1043693F814701C938
:1021700083A7018F818F93B7A70F93C7170013F51C
:10218000F70F6FE02F8199EA03A5018F018D1335B9
:10219000A50F134515001375F50FE5B710439D37CF
:1021A00065F5D5BF370500403971854513050540F4
:1021B00022DE26DC4ADA4ED852D656D45AD25ED027
:1021C00062CE66CC6ACA6EC8EF50807C8547631DBC
:1021D000F52483A7018F138D170023A8A18F37271C
:1021E00000200347972D93848195370400201377AF
:1021F0000702138C81969389019613890195130424
:1022000004246302072C83A601901386C191938551
:1022100061921385819636C6053F01CD83C5F19243
:1022200003C6E18EB246638005221366160023873B
:10223000C18E83A6C18F13868191938541921385A8
:10224000019636C6113701CD83C5E19203C6E18EF2
:10225000B246638A0520136626002387C18E83A6B3
:10226000818F13864191938521921385819536C67E
:10227000E13D01CD83C5D19203C6E18EB2466384B0
:102280000520136646002387C18E83A6418F1386DF
:102290000191938501921385019536C6EFF0DFEA2F
:1022A00001CD83C5C19203C6E18EB246638D051E82
:1022B000136686002387C18E83C6E18E13F616004F
:1022C00005C6A3870192138681940C4250422320B5
:1022D000BC002322CC0085452393019223AE0190BC
:1022E000A385B19223A0A19113F6260005C62387EA
:1022F0000192138601940C42504223A0B90023A2FC
:10230000C90023AC01908545239201922385B192A7
:1023100023AEA18F13F6460015C2A3860192138641
:1023200081930C4250428CC0D0C023AA01908545B5
:1023300023910192A384B19223ACA18FA18A85C677
:1023400023860192938601939042D4422320C900B0
:102350002322D90005462390019223A801902384CB
:10236000C19223AAA18F83A6018183D761920327FB
:102370004C0003A649008607A2978397070023878E
:10238000018EB387E70203D741920607229703170E
:1023900007003307C702BA97A987B387D702C58753
:1023A0009387072D23A4F19083D72192D8408607E5
:1023B000A29783970700B387E70203D70192060726
:1023C00022970317070003264900B7190020330797
:1023D000C7023719002003A609338325C932370401
:1023E000004013040440BA97A987B387D702C58772
:1023F0009387072D23A2F19003A58190EFE03FBFC3
:1024000042054181231EA4028325C93203A6093354
:1024100003A54190EFE0BFBD420541812310A40414
:1024200085452285EF5080587254E2545259C25962
:10243000325AA25A125B825B724CE24C524DC24D30
:102440002161730020303166B306DD401306F63497
:10245000E371D6DE83C6418123220C0093E6160089
:10246000238AD180F9B33166B306DD401306F63412
:10247000E377D6DE83C6418123A2090093E62600D6
:10248000238AD180E9BB3166B306DD401306F634FA
:10249000E37DD6DE83C6418123A2040093E6460095
:1024A000238AD180DDB33166B306DD401306F634EE
:1024B000E374D6E083C641812322090093E68600B7
:1024C000238AD180D5BB03C7F1920DCBA38701929C
:1024D000938681949842D4422320EC002322DC008E
:1024E000A385A1929387819491C209EB23AE0190B9
:1024F0002393019223200C0023A2070003C7E1923B
:1025000015C723870192938701949843DC430546BE
:1025100023A0E90023A2F9002385C19291C319E702
:1025200023AC01902392019223A0090003C7D1920A
:1025300015C7A3860192938781939843DC43054690
:1025400098C0DCC0A384C19291C309EB23AA019077
:102550002391019223A0040023A2040003C7C19287
:1025600015C723860192938701939843DC43054660
:102570002320E9002322F9002384C19291C319E7A3
:1025800023A80190239001922320090003260C0028
:102590009385C19113856192EFF0DFB603A6090020
:1025A0009385819113854192EFF0DFB5904093853B
:1025B000419113852192EFF0FFB403260900938522
:1025C000019113850192EFF0FFB383A6018183D7B8
:1025D000619203274C0003A649008607A2978397C0
:1025E0000700B387E70203D7419206072297031734
:1025F00007003307C702BA97A987B387D702C587F1
:102600009387072D23A4F19083D72192D840860782
:10261000A29783970700B387E70203D701920607C3
:102620003A940317040045B3EFD29FB4AA853765E7
:10263000004013050580EF405058133515006FD04A
:102640007FB5EFD2FFB2AA8537650040130505803C
:10265000EF4010551375F50F6FD0DFB337670040AB
:102660008357478113070780A183A388F196835777
:102670004701C207C18393F707F0C207C183231A3A
:10268000F70073002030EFD21FAD376500404111D5
:10269000814513050580EF409043371401409307AF
:1026A00000400D49D1494C00130504C03EC24AC444
:1026B0004EC68564EF40F01C938404804C001305E3
:1026C00004C04EC64AC423129100EF40901B9305EC
:1026D0000040130504C0EF40B027A685130504C0D1
:1026E000EF40D0260545EF30C03993050040130573
:1026F00004C0EF40B0250545EF30A038A68513058E
:1027000004C0EF40F0240545EF30A037A949130A73
:1027100004C00569930500405285EF407023A685EB
:102720005285EF40B0220545EF30A03593050040BB
:102730005285EF40B0210545FD19EF308034E39B11
:1027400009FC130504C093050040EF407020930579
:102750000980130504C0EF40B01F0545EF3060321B
:1027600093050040130504C0EF40501E0545EF30AF
:10277000403193050980130504C0EF40301D054525
:10278000EF30203091474C00130504C03EC6EF40A7
:10279000500F93050980130504C0EF40701A4101E2
:1027A0006FD0BF9EEFD2DF9C376400408145130598
:1027B0000480A3890196EF40903113050480EF4017
:1027C000D01CEFF05FEC83C711975D8D1375F50F8B
:1027D00001C937350C0001468145130505502920F4
:1027E000EF3020236FD01F9BEFD2FF960111AE84F4
:1027F0002A8985452545328402C202C402C602C820
:1028000002CA02CC02CEEF40506085453705400039
:10281000EF409061371A014093090040714B8D4A97
:102820004C0013050AC0231231015AC656C4EF40AA
:1028300050058567938707804C0013050AC0231253
:10284000F1005AC656C4EF40D003B7070040231C1E
:102850009100B76400403ECA0C089167138504805C
:10286000231EF1004AC8231D3101EF403015854574
:1028700013850480EF40B02509651306800CB70569
:10288000020013058562EF30001C09C909C885459F
:1028900013850480EF40102DEFF0DFF00544A3898D
:1028A000819605616FD07F8E83C73197638C071245
:1028B000EFD27F8A37640040AA8A2E8A13050480EB
:1028C0008545EF40502609651306800CB7050200C8
:1028D00013058562EF30201783C711971375F50F25
:1028E000C98F91C705472389E1966FD01F8A854517
:1028F00013050480EF40701FB70903000969130630
:10290000800C9385190013052964EF30C01383C729
:1029100011971375F50FC98F99C30947E9B7014698
:102920009305400D13050480EF40D022370B0700BC
:102930001306800C93052B0813052964EF30A010B3
:1029400083C711971375F50FC98F99C30D4761BFE1
:10295000D68513050480EF40F01E1306800C930506
:102960004B0813052964EF30000E83C711971375C8
:10297000F50FC98F99C31147BDB7D28513050480E0
:10298000EF40701A854513050480EF4010161306BA
:10299000800C9385190013052964EF30C00A83C7A2
:1029A00011971375F50FC98F99C315472DBF0546AC
:1029B0009305400D13050480EF40D0191306800CD9
:1029C0009385290013052964EF30E0079377F50F0D
:1029D00003C511975D8DE30A05F099462389D196C9
:1029E0003E8521B705458280EFD2EFF62E8913751B
:1029F000F50F8145EFF05FEB83C711972388A19610
:102A00005D8D1DE5B705030009651306800C9385F0
:102A1000050413052564EF30000383C71197137570
:102A2000F50F2388A1965D8D19C525472389E19669
:102A3000EFF05FD725A0B769004013850980EF400C
:102A4000D0102300A900854513850980EF40D00BE5
:102A500083C7019703C71197D98FF9FB03C5019766
:102A6000B72700202383A7366FD02FF2EFD2CFED08
:102A700085476316F600EFF03FF76FD06FF02E89B1
:102A800085453284EFF05FE2AA8435E17D14370A90
:102A90000300856AB76900401374F40F130A0A042F
:102AA000896B938A0A80938909809307F00F6303E7
:102AB000F4021306800CD28513852B64EF20B078C6
:102AC00083C711971375F50FC98F95C71D472389C4
:102AD000E196AA8437650040130505808545EF40DF
:102AE000B00283C71197C58F13F5F70F59D5EFF0D3
:102AF0007FCB268559B785476316F400D6854E856A
:102B0000EF40B0074E85EF4050047D142300A9002C
:102B10001374F40F050951BF83C7319791E3828085
:102B2000EFD26FE3AA8A09654111AE891306800CC2
:102B3000B705020013058562EF20F07083C7119777
:102B40001375F50FC98F8DC329472389E19683C774
:102B50001197C98F93F7F70F89C72AC6EFF09FC463
:102B6000324541016FD06FE237690040854513055A
:102B70000980EF408077B7050300096A1306800CCF
:102B8000850513052A64EF20106C83C71197137510
:102B9000F50FC98F99C32D474DBF01469305400DD1
:102BA00013050980EF40007B370B07001306800CEC
:102BB00093052B0813052A64EF20F06883C711974B
:102BC0001375F50FC98F99C3314741B7D6851305E2
:102BD0000980EF4020771306800C93054B081305FE
:102BE0002A64EF20506683C711971375F50FC98FBC
:102BF00099C3354799BFCE8513050980EF4080748E
:102C00001306800C93054B0813052A64EF20B0636C
:102C100083C711971375F50FC98F99C3394735B716
:102C2000130509808545EF40206E01450DB7373506
:102C30000C0005468145130505506FF0FFBAEFD231
:102C40002FD341112E849305F1002A89B284EFF02D
:102C5000BFD909ED8347F10093C4F4FF4A85E58F9E
:102C6000B365F400A307B100EFF01FEB41016FD093
:102C70006FD2EFD2EFCF41119305F1003D45A3078D
:102C80000100EFF07FD611E98347F1008546938775
:102C900077F993F7F70F63FBF60483A7819885070D
:102CA00023A4F19803C7419809C70D4541016FD08E
:102CB0006FCE2547637BF700854705452382F19852
:102CC000EF20D00C83C74198EDF39305F1007945CF
:102CD000EFF09FD11DC583A70199850723A8F1981F
:102CE00083A7C198850723A6F198C9B783C74198E0
:102CF00023A4019881C70545EF205009238201983C
:102D0000E9B78347F1000D4709458D8BE390E7FA5A
:102D100083A70199B735002031468507938545AFD4
:102D20001305200223A8F198EFF05FD441D183A7C7
:102D3000C1980545850723A6F1988DBFEFD24FC3F3
:102D400019441306F00F85454945EFF05FEF09C5BB
:102D50007D141374F40F75F42945EF209054194431
:102D60001306F00F930500084D45EFF05FED09C520
:102D70007D141374F40F6DF419441306F00F9305CA
:102D8000E0084145EFF0BFEB09C57D141374F40F63
:102D90006DF419441306F00F9305C0054545EFF097
:102DA0001FEA09C57D141374F40F6DF4194413065A
:102DB000F00F930540044945EFF07FE809C57D1405
:102DC0001374F40F6DF413351500A380A19A6FD01E
:102DD0006FBCEFD2EFB91306000F81454145A380C8
:102DE000019AEFF0DFE51306000F81454545EFF04E
:102DF0001FE56FD02FBA8280EFD28FB483C7C197FF
:102E000013074002373A0020B387E7023724002037
:102E100013070AAA411193060AAA36C6BA970307EE
:102E2000842D23ACF196635D0700130640028145B3
:102E30003E85EFD04FB8EF30100D41016FD00FB489
:102E400083C73197FDDB83C7019AE5DB83C7219AEE
:102E50001304842D81E78D472381F19AEF20703B85
:102E60008347F40003A701988346E400A2073307D1
:102E7000E540D58F2A8CE362F7FCEFF09FDF55FD2C
:102E8000B73C0020138D0CB037370020130747AF35
:102E900013068D0193870CB013840CB094438315F3
:102EA00007000907AE9694C39107E399C7FE03C9CB
:102EB000D19703A7419705091379F90F8567A38E69
:102EC000219723A081993307EC4093877738E3F665
:102ED000E7F60840373A002093048AAEEF703018C6
:102EE00083A5C199EF706027EF70701108C048404A
:102EF000EF70F01683A58199EF702026EF703010E7
:102F000048C00844EF70B01583A54199EF70E024E4
:102F1000EF70F00E584493070006130640063387FF
:102F2000E70208C43347C70258C418483387E7028A
:102F30003347C70218C85848B387E70213078AAE59
:102F4000B3C7C7021386C4005CC881476308090081
:102F500083270D00B3C72703C207C1872310F700DB
:102F60000907110DE313C7FE6146814513850CB0B7
:102F7000A38E0196EFD02FA403A48197194623AA0C
:102F800081971309C400CA852285EFD06FA1130C65
:102F900084011946E2854A85EFD08FA03739002099
:102FA00019469305E9AE6285EFD08F9F83C7019ADA
:102FB0000547639EE708996769771309E9AE938728
:102FC000871A130787E58396040063DDD7062390ED
:102FD000F4008904E39924FF930424011946A6858B
:102FE00013056400EFD0CF9B79041946A28526858E
:102FF000EFD00F9B194693058AAE2285EFD04F9AEA
:1030000083C7219AFD1793F7F70F2381F19AE3966F
:1030100007E203A58197EF30006F03C5C1979307BF
:1030200040021306400213351500238EA196330586
:10303000F502B24781453E95EFD0EF978D4723814A
:10304000F19AE5BBE3D7E6F82390E40059B70947C6
:10305000E398E7FA2285EF00206E5DB7EFD2AF8FDD
:10306000832A0500032A45002A8483298500032931
:10307000C500D6855685EF70400EAA84D28552854C
:10308000EF70A00DAA852685EF603015AA84CE8545
:103090004E85EF70800CAA852685EF601014AA84F7
:1030A000CA854A85EF70600BAA852685EF60F0120D
:1030B000EF409022AA8503A5C187EF609048AA84BB
:1030C000AA855685EF70600908C0A6855285EF7005
:1030D000C00848C0A6854E85EF70200808C4A685A4
:1030E0004A85EF70800748C46FD02F8AEFD2CF8512
:1030F000832BC500C445832A050083A90500032A44
:10310000450003AB45000329850003AC85002A84F4
:10311000A6855E85EF706004AA8CCE855685EF701B
:10312000C003AA856685EF700031AA8CDA855285C6
:10313000EF70A002AA856685EF70E02FAA8CE28569
:103140004A85EF708001AA856685EF70C02E48C45D
:10315000CE855E85EF706000AA8CD6852685EF60EF
:10316000D07FAA856685EF605007AA8CE2855285DC
:10317000EF60B07EAA856685EF603006AA8CCA85AE
:103180005A85EF60907DAA856685EF70C02A08C0D9
:10319000DA855E85EF60707CAA8CE2855685EF60EB
:1031A000D07BAA856685EF700029AA8CD2852685FA
:1031B000EF60B07AAA856685EF603002AA8CCA8576
:1031C0004E85EF609079AA856685EF60100148C052
:1031D000E2855E85EF607078AA8BDA855685EF60B0
:1031E000D077AA855E85EF60407FAA8AD2854E851A
:1031F000EF60B076AA855685EF70E023AA89CA856C
:103200002685EF609075AA854E85EF60007D08C425
:103210006FC01FF7EFC2DFF22A8403A5819A79718C
:10322000AE843305A640328AEF602074AA8903C5B4
:10323000140083C704002E8922055D8D4205418557
:1032400023A4419BEF60606B4E86CA86EF50F0224C
:1032500003A6018483A64184EF5030222A8D03C542
:10326000340083C72400AE8C22055D8D4205418564
:10327000EF60A0684E86CA86EF50302003A6018416
:1032800083A64184EF50701F2A8C03C5540083C766
:103290004400AE8B22055D8D42054185EF60E065FF
:1032A0004E86CA86EF50701D03A6018483A6418412
:1032B000EF50B01C2A8AAE896A86E6866A85E68562
:1032C000EF50B01B2A89AE846286DE866285DE8579
:1032D000EF50B01A2A86AE864A85A685EF409050F8
:1032E0002A89AE845286CE865285CE85EF50F0185C
:1032F0002A86AE864A85A685EF40D04E2A86AE86BF
:103300002A89AE84EF50701703A6818483A6C184F6
:10331000AE8D2AC6EF50803B03A6018583A641856A
:103320002A8BAE8A4A85A685EF50403A2A86AE8619
:103330005A85D685EF50106903A6818583A6C1857D
:10334000EF40504A2A8BAE8A2A86AE866A85E68589
:10335000EF50B012EF70207B5A86D6862ACADE85DF
:103360006285EF509011EF70007A5A86D6862ACC8B
:10337000CE855285EF507010EF70E078B24703A60B
:10338000018683A641862ACEEE853E85EF50003425
:1033900003A6818683A6C1862A8AAE894A85A68528
:1033A000EF50B00D2A86AE865285CE85EF509061E3
:1033B00003A6018783A64187B7140020EF409042FF
:1033C000EF7060744C082AD013850424EFF01FD2EC
:1033D00013850424EFF09FC88347140003470400BB
:1033E00093840424A207D98F2398F40083473400E0
:1033F00003472400A207D98F2399F4008347540080
:1034000003474400A207D98F239AF40045616FC097
:10341000FFD6EFC27FD383C7650037390020411143
:10342000F19B93E727002383F50003C7219A8D477B
:10343000AA842E84130989B16312F702EF20E05E9B
:1034400023A2A19A23200900232209002324090092
:103450002326090023180900A381019A03C5319A84
:1034600099471946130A15003305F502137AFA0F26
:10347000A381419BB7390020938589AE4A95EFC05F
:103480003FD28D47631BFA2683476400370B0080C9
:10349000854ACD9B2303F4007D1B914B034A6400B6
:1034A00093972A00A69788439377CA00A6978C43E0
:1034B00033756501B3F56501EF605037635BA000BC
:1034C00093F73A008A07137A3AFF336AFA00230324
:1034D0004401850AE3947AFD034A640093050000E1
:1034E000135A2A00137A3A0093172A00A6978843A2
:1034F000EF60303D635F052203AB018883AB4188F9
:10350000130C4100814A050A8D4CB3075A018D8B7B
:103510008A07A6978843DE85850AEF601044DA851E
:10352000EF60B043EF70A02D2320AC00110CE39EA0
:103530009AFD8347140203476400A30A040093F72B
:1035400007F8A300F40292473D8B230B0400A587E4
:1035500093F6F7009206558F2303E40013D7470034
:10356000A303E40013D7C7002304E4002247D18358
:10357000858B25879376F7078606D58FA304F400FD
:10358000935777002305F400B2473D831377F70381
:1035900093D697409A06558FAD87A305E400A30BF9
:1035A0000400A30F04002300040213D7870023099B
:1035B000F400C183A309E4009D8B03A7419A230A69
:1035C000F40083471402058B1E0793F7F707D98F82
:1035D000A300F40283A7419A230F0400938989AEC4
:1035E00085832301F40203A7419A8347340225838C
:1035F0000D8BF19BD98FA301F402EF20004383A729
:10360000419A1D8D834734020A058D8BC98FA30112
:10361000F402039709000318090083474401B30625
:10362000074113F6860F9D8BD18FA182230AF400E8
:10363000A30AD40003962900831829008346740145
:10364000B30716418D87230BF400A183819AFD8B6C
:10365000D58FA30BF40083964900031549008345D9
:103660007401B387A64013D337401603FD89B3E531
:103670006500A30BB40003136900998793D58700F5
:10368000230FF400B30707019A977558B3C70703D0
:1036900013F735009A97A58713F3F7030A033367E7
:1036A0006700A30FE400034704029983858B799B8D
:1036B000D98F2300F40203178900B3071601BA97C4
:1036C000B3C70703BA9703470402A5878607058B8C
:1036D000D98F2300F4020317A900B387A600BA9775
:1036E000B3C70703BA9703471402A58793F7F707F1
:1036F000137707F8D98FA300F40283C704012300CE
:10370000F40083C71401A300F40083C7240123013C
:10371000F40083D72401A183A301F40083C74401EB
:103720002302F40083C75401A302F40041016FC0D7
:103730003FA503ABC187D9B3EFC29FA32A84EF2073
:10374000402D2A86B735002037350020938585AE79
:103750001305E5AEEFF01FAC37150020A285130569
:103760000524EFF01FCB6FC0FFA283C7019D89EB3B
:10377000EFC21FA0EFD07FCD23ACA18C6FC09FA163
:10378000014523ACA18C828031C9EFC27F9E2A847F
:10379000EFF0BFFD03C7818D2300E40003C7918DC7
:1037A00083C7A18DA300E4002301F40083A7C19C7B
:1037B000A301F40013D78700C183A302F40083A7F9
:1037C000819C2302E4002303F40013D78700C18304
:1037D000A303E4002304F4006FC0DF9B8280EFC2E8
:1037E0009F97372400209307842D03C7170089462D
:1037F000328A19831304842D931716006307D71890
:103800008D46630DD71A85466318D7029356F54146
:1038100033C7A600158FB306F40003C61602635D16
:10382000C70013D6F54183C626023347B600118F71
:103830006354D70081450145A2978389A700038976
:10384000B70083475401B389A90203474401A20783
:10385000D98F3309B90293D9594013595940B5CF7B
:10386000B307290313172A00238E019AB38439035F
:10387000BE949387418CBA979C4363E5F4008547D7
:10388000238EF19AEF20E01811E1054561473307D7
:10389000EA02B7370020938607B4138607B4BA96B6
:1038A000984209CF83475401834544013307E540DB
:1038B000A207CD8F636BF71423A0060083C7C19BBB
:1038C00089CFE147B307FA02B29784CBFD8423A2E4
:1038D000370123A42701C4CB88C3856A13850A80D6
:1038E0002A991386FAFF81454E95EFD04FF0AA84AE
:1038F0001386FAFF4A858145EFD06FEF0347140026
:103900002A89118B35CFA5473306FA0237240020C8
:103910001304443A32948346E40303474404834542
:10392000D40303453404BD8A3D8BA2062207D58DFE
:10393000598DEFD08FE923ACA19A0346E403834568
:10394000F40303474404834654041182118392060E
:103950009205D18D33E5E600EFD02FE703A6819BDA
:1039600023AAA19AB305C0402685EFD04FE803A64D
:10397000419BAA844A85B305C040EFD04FE72A890E
:103980001315C90026956FC05F809356F54133C764
:10399000A600158FB306F40083C616026353D70042
:1039A000014593D6F54133C7B600158FB306F40031
:1039B00083C62602E352D7E88145BDBD3307F40034
:1039C0001356F54103471702B346A600918E63CC08
:1039D000E602FD566343A00085463307D7023A95B9
:1039E0003307F40013D6F54103472702B346B60068
:1039F000918EE3C3E6FCFD566343B0008546330772
:103A0000D702BA9515BD0145E1BFD8429C46338720
:103A1000E902B307F9023E97E35207EA8C4AD44A17
:103A200093D7F441B387F502B386960233889502A3
:103A3000B697B3B59502AE978D45B387F502B386B9
:103A40000503B3B505038D82AE979395D701CD8E4F
:103A5000B305E7028D873317E702E361F7E6639466
:103A6000E700E3EDD5E4238E019A01498149B9B518
:103A7000EFC20FF09387018D03D7470003D50700EE
:103A800083D52700B734002083D767003724002070
:103A90001304C435938404B798C403474400DCC4BA
:103AA000834734002207834614005D8F8347240038
:103AB00088C0CCC0A207D58F998D01461D8DEFF02F
:103AC0001FD20347840023A6A19C834774002207CA
:103AD000834654005D8F83476400CC448844A2072A
:103AE000D58F0546998D1D8DEFF07FCF23A4A19C26
:103AF0006FC04FEA83C7019D63850720EFC2AFE522
:103B000037250200A389019A2389019AEFD0DF9B10
:103B10003705020013050504EFD01F9B6317051C32
:103B200083C7119B8DC7372700201307872D834735
:103B3000070093C6070893F6060893F7F707D58F93
:103B40002300F7008547A389F19A2389F19AA38876
:103B5000A19A37850400EFD03F972A896319051889
:103B600083C7019B85CF372700201307872D834705
:103B7000070093C6F7FF93F6060293F7F7FDD58F7C
:103B80002300F700958393C7170013F51700EFD0B4
:103B90003FAC8547A389F19A2389F19A3705020042
:103BA000130505082388219BEFD01F92631305148A
:103BB00083C7F19A9DC3372700201307872D8347BA
:103BC000070093C6F7FF898AF59BD58F2300F7007E
:103BD0008547A389F19A2389F19AA387A19A37850A
:103BE0000200EFD07F8E2A896317051083C7E19A00
:103BF00085CF373500208357C5B27977130707087B
:103C0000F98F93E707602316F5B283C7119E130758
:103C1000C5B21305C5B293B71700A301F700EF2093
:103C2000203985472389F19A4165130505102387BB
:103C3000219BEFD07F892A8969E183C7D19AA1C3EB
:103C4000B72500209387852D1385A7FF9385852DA4
:103C50009306F00F03C7B70113061700A38DC70023
:103C60006315D700FD17E397A7FE373500201946E7
:103C7000D90513056506EFC0AFD2EFC0BFE6B73771
:103C8000002083C75706A386219BB5EB4165050538
:103C9000EFD09F832A8925E583C7C19A85CB373525
:103CA00000208357C5B2797713070708F98F93E788
:103CB00057302316F5B2054A9307C5B21305C5B2AE
:103CC000A3814701EF20C02E2389419B83C7219BFD
:103CD0002386219B81C70545EF10500B83C7319B7D
:103CE00099C3EFC03FE06FC04FCA05458DB5054988
:103CF00075B50545DDB5054905BF054949B7054910
:103D0000F1B78280EFC2CFC6370502001105EFD0B0
:103D1000AFFB15E983A7419C95C3EF10105183A712
:103D2000419C1D8D9307400663F8A7000547054594
:103D30002388E19CEF1010236FC0CFC5EF10F04E29
:103D400023A2A19CD5BF83C7019DFDD70145EF10DC
:103D500070212388019C23A2019CF9BFEFC24FC1AF
:103D600083A7C19D850723AEF19C81E7054723AC5E
:103D7000E180EF10904B83A7019C6300F502EF10E8
:103D8000D04A83A7818183A6019C958FAA9723ACF3
:103D9000F180EF10904923A0A19CEFF0BFF6EFE077
:103DA000EFA5EFF06F85EFF0FFD4B737002003C524
:103DB0005706EF10701C6FC0EFBDEFC26FBB2A84B7
:103DC000AA8513050020EF305004A2850545EF3089
:103DD000F001A2850545EF303005A2850945EF3099
:103DE000B004A2850565EF305002A2851165EF3061
:103DF000D001B7040240A28513854404EF2030713E
:103E0000A28513858405EF209070A2851385840018
:103E1000EF20F06FA28537050040EF30D02C37053A
:103E20000040A28513050540EF30F02BB744014058
:103E3000A28513850480EF30B042228693050004EA
:103E400013850480EF3050436FC0CFB4EFC24FB240
:103E5000371702401C43B70608000111D58F1CC359
:103E60000545EF30606C716513050520EF30D043D8
:103E70003735002013065002814513050506EFC0B3
:103E80008FB335651305458BEF60707A85457145B5
:103E9000EF30A077854513050020EF30007785458A
:103EA0000545EF30A07485450545EF30E077854541
:103EB0000945EF30607785450565EF30007585452C
:103EC0001165EF308074EF10B036EF107033294574
:103ED000EF10303DEFC09FCB6800EF302066EFD091
:103EE000AFCAEF10904DEF107042EFD0EFA1EF206E
:103EF000A02FEF108011EF10A06AEFE05FD3EFE08A
:103F00009FEFEFE0BFE3EFC03FC1EFC04FB6EF3030
:103F1000E058AA850545EFC01FA505616FC08FA7B2
:103F2000EFC26FA30545EF30604CEF10D01CEFF0EF
:103F3000FFF183A5418235651305858CEF60B05A8A
:103F40003145EFD06FD82380A19EEF00B07B0D6587
:103F500013058578EF20C070EF20607B0145374462
:103F60000020B7340020EFD04FDD130484AF9384DA
:103F70000406054BEF101070EFF09FAFEFF0EFFE6F
:103F800083A7818D13D787002300F400C183230109
:103F9000F40083A7C19CA300E400A301F40013D79D
:103FA0008700C183A302F40083A7819C2302E4005D
:103FB0002303F40013D78700C1832304F40083C7CD
:103FC000218BA303E40091CF23826401EF20D0036F
:103FD000EF20C074EF20C062EF109050EFF01FD8B8
:103FE00051BFA382040023820400EDB78280834581
:103FF000D5000345B5001306F00F6FE05FC4828063
:1040000082808280B7370020938707B823A60702F3
:104010002394070223A207028280EFC26F953734F0
:104020000020AA84EFF01FFE130904B88967938764
:10403000071A130620029385B400130529002310E4
:10404000F4B8EFC0EF9593074002130504B82314AA
:10405000F902EF00D06F6FC0EF93EFC26F912A8427
:10406000EFF05FFA0347A40037350020930705B847
:10407000930600F8A380E700130505B80D472380D9
:10408000D7002381E7002394E702EF00506C6FC054
:104090006F90EFC24F8CAA84EFF0DFF603C7A40045
:1040A00083C9B400373A002093070AB8930610F882
:1040B0002380D700A380E7002381370185471309B8
:1040C0000AB8638EF9008947638AF9048D4713059E
:1040D0000AB82314F902EF0090676FC00F8B3734D2
:1040E00000201304040619469385C4001305C40078
:1040F000EFC00F8B19469305640013053900A3091F
:104100003401EFC0EF89B16561469385050313055E
:104110009900EFC0EF889307100255BFB735002014
:1041200041469385450713053900EFC06F87CD479A
:1041300079BFEFC2EF832A84EFF0DFECB7270020CE
:1041400083C7772FADCF0547638FE7060D479307EA
:104150009004B71500209386C5262380E600034708
:10416000A40037340020A380F600930704B8930618
:1041700020F82380D700A380E700B737002093877B
:1041800007061387C5269386A7FF930404B803C6C2
:10419000B700FD170507A301C700E39AD7FE314614
:1041A0009385C52613852400EFB09FFFB9471305FB
:1041B00004B82394F402EF0090596FB0BFFD0D478F
:1041C0009307800479B711479307300359B7EFB2CB
:1041D0003FFA2A84EFF01FE30347B4008D469307AC
:1041E00007FD93F7F70F63E4F600A38AE180034726
:1041F000A40037350020930705B8930600F8A38084
:10420000E700130505B809472380D7002394E70288
:10421000EF00F0536FB01FF8EFB29FF52A84EFF074
:104220007FDE8347A400B7340020138404B8B71599
:104230000020130730F839469385C525130524005F
:104240002300E400A300F400EFB09FF5C1471385FD
:1042500004B82314F402EF00904F6FB0BFF3EFB235
:104260003FF12A84EFF01FDA0347A400373500201E
:10427000930705B8A380E7000547930600F823815C
:10428000E700130505B80D472380D7002394E70204
:10429000EF00F04B6FB01FF0EFB29FED2A84EFF00C
:1042A0007FD60347A40037350020930705B893064F
:1042B00000F8A380E700130505B80D472380D70059
:1042C000238107002394E702EF0070486FB09FEC52
:1042D0006FF09FFC6FF05FFC6FF01FFCEFB2BFE769
:1042E0004111AA84EFF01FD29385B4002E852EC60B
:1042F000EFC07FCE83C7F4007547B2452A89754465
:104300006364F70013F4F70F83C7A400B7390020E4
:1043100037350020130700F9938409B815461305B3
:1043200025B82380E400A380F400EFB07FE7B73521
:1043300000202286938575B84A85EFC02FF31D04AF
:104340001374F40F138509B823948402EF003040EE
:1043500041016FB09FE3EFB2BFE141112A84EFF05A
:104360007FCA1305B400EFC01FC70346F4009305CE
:1043700004018546AA8432C62EC4EFC0DFAE3246A1
:10438000A2452685EF1050510347A4003735002081
:10439000930705B8930600F8A380E700130505B856
:1043A0000D472380D700238107002394E702EF0005
:1043B000103A41016FB01FDEEFB29FDB2A84EFF0AD
:1043C0007FC40347A40037350020930705B8930640
:1043D00000F8A380E700130505B809472380D7003C
:1043E0002394E702EF00B0366FB0DFDA6FF0DFFC46
:1043F0006FF09FFCEFB2DFD72A84EFF0BFC0034716
:10440000A40037350020930705B8930600F8A38071
:10441000E700130505B8130740022380D700239453
:10442000E702EF00D0326FB0FFD6EFB27FD42A841C
:10443000EFF05FBD0347A40037350020930705B8B0
:10444000A380E700130505B80947238007002394DC
:10445000E702EF00D02F6FB0FFD3EFB27FD12A84F5
:10446000EFF05FBA0347A40037350020930705B883
:10447000930600F8A380E700130505B85947238089
:10448000D7002394E702EF00902C6FB0BFD0EFB2BB
:104490003FCE2A84EFF01FB70345B400A38CA19C44
:1044A000EF10802B0347A40037350020930705B891
:1044B000930600F8A380E700130505B80947238099
:1044C000D7002394E702EF009028B7370020054774
:1044D000A382E7066FB01FCCEFB29FC92A84EFF02A
:1044E0007FB20347A40037350020930705B8A380A7
:1044F000E70003C7919D930600FB130505B82381D0
:10450000E7000D472380D7002394E702EF00302413
:104510006FB05FC8EFB2DFC52A84EFF0BFAE83474C
:10452000B40037350020238AF19C2380F19A034799
:10453000A400930705B8930600F8A380E7001305CD
:1045400005B809472380D7002394E702EF00302005
:104550006FB05FC4EFB2DFC1B73400202A84EFF040
:104560007FAA938704B8130700142391E70003C7B9
:10457000419D138904B89387419D01E70547238036
:10458000E70011469305B40013851700EFB05FC133
:104590008347A400130700F8138504B8A300F900AB
:1045A00089472300E9002314F902EF00501A6FB085
:1045B0007FBEEFB2FFBBAA84EFF0DFA403C7C40045
:1045C0009306000203C5B4009307000263E3E6000C
:1045D000BA8703C7A40013F4F70F37390020B735A3
:1045E0000020930409B8930600FC2286938545B801
:1045F0002380D400A380E400A381F4002381A400DD
:104600001104EFE0AFC61374F40F130509B8239437
:104610008402EF00D0136FB0FFB7EFB27FB52A84EA
:10462000EFF05F9E0347B400B71700203735002036
:104630002384E7320347A400930705B8930600F8E4
:10464000A380E700130505B809472380D70023940A
:10465000E702EF00D00F6FB0FFB3EFB27FB12A8453
:10466000EFF05F9A0347A40037350020930705B8A1
:10467000A380E70013078061930600FD2391E70004
:10468000130505B811472380D7002394E702EF00F4
:10469000100C6FB03FB0EFB2BFAD2A84EFF09F9621
:1046A0000347A40037350020930705B8A380E7002F
:1046B0005147930610FD2381E700130505B80D4708
:1046C0002380D7002394E702EF0070086FB09FACFF
:1046D000B73700201167938707BB1307A70598C357
:1046E000116713072709D8C311671307271398C742
:1046F00011671307E71CD8C711671307872198CBE9
:1047000011671307E725D8CB11671307C7FE98CFAA
:10471000116713072700D8CF11671307872998D38C
:1047200011671307C72DB8C3116713076735F8C39F
:1047300011671307072D9166B8C79386E6FF1387A5
:10474000070814C391669386A60154C391669386A5
:10475000863B14C791669386462D14CB916693864B
:10476000862D54CB91669386C63E14D3916693866C
:10477000463F54D391669386A64214D7916693869A
:10478000A64554D791669386E64834C391669386CE
:10479000864D74C391669386060034D31167938760
:1047A00007101307475198C3116713074755D8C31C
:1047B00011671307E7FE98C711671307275BD8C770
:1047C00011671307A76198D311671307A765B8C3CB
:1047D00011671307073FF8C3116713076769B8C765
:1047E000828083C7019E99C708419305650009052A
:1047F0006FD02FC48280EFB2BF972A8483454400D4
:10480000084137370020D11593F5F50F2302B40086
:104810008347A500130707BB8A07BA979C4399C330
:10482000829719A01C43EDFF2285EFF09FFB6FB02C
:104830007F9603474500854763F3E7081C41C1C3E2
:1048400083C717001547FD1793F7F70F6369F7063E
:10485000EFB21F9235678A071307878DBA979C437B
:10486000373400208287B7070003130504029387BB
:104870001718B73500201CC1194693856506110528
:10488000EFB01F9285462946930504021385016DFA
:10489000EF00D0106FB01F90930710282310F40280
:1048A00085460946D5B793071038CDBF9307104802
:1048B000F5B793071058DDB793071068C5B7828026
:1048C000B7370020138707FEA300A700F956138609
:1048D00025002300D7001376F60F8546938507FE43
:1048E0001385016D6F00900BEFB29F88B7340020E5
:1048F00037340020B7250020130404FE1306D0032C
:104900009385852D138534FE23010400EFB05F8964
:104910009305E0030545EFF0BFFAB7250020854772
:104920001306D00393855531138534FE2301F4001B
:10493000EFB01F879305E0030545EFF07FF83735AB
:1049400000201306300381451305D5FEEFB0BF8666
:10495000B72500208947294693852535138534FEE0
:104960002301F400EFB0DF83AD450545EFF05FF5BF
:104970009307F03F894505452311F400EFF05FF4FC
:104980006FB05F81EFB2CFFE0C411307F00F83C70A
:10499000150003C4A19D6396E70483C725002A89F7
:1049A0000147639C870003C7350085476314F70000
:1049B000EFC04F93EFC04F960547B737002093875E
:1049C00007FE2381E70003270900894509450347BE
:1049D0003700238D019CA381E700EFF07FEE6FB0DD
:1049E0006FFB1307D003B387E702372500201306B8
:1049F00040081305852D1D8E3E956374C700130670
:104A0000D00389050504EFB0AFF9238D819CC1BFA8
:104A1000EFB20FF62A8408410505EFC0CFDB0C404A
:104A2000AA843735002015468505130525FEEFB00D
:104A30002FF71C40B7350020268503C65700938505
:104A400075FEEFC0AF821C400D4583C5570095052C
:104A500093F5F50FEFF0DFE66FB0CFF3EFB24FF164
:104A60002A8408410505EFC00FD70C40854603C6D0
:104A700055009905EFC02FBFB73700202381A7FE4F
:104A800085451145EFF0DFE36FB0CFF0EFB2AFEC4B
:104A900037340020AA89130600038145130504FB5F
:104AA000EFB06FF1814A373A002063943A018144B4
:104AB00025A01305B004EF00D07E1949EFE06F9BED
:104AC000AA8413052003EF00D07D6384040A7D19B6
:104AD0001379F90FE31409FE130404FB4C4008405A
:104AE000EF50106E83A5C199EF502067EF50F0632F
:104AF00008C04CC008444C44EF50906C83A5819989
:104B0000EF50A065EF50706208C44CC408484C4890
:104B1000EF50106B83A54199EF502064EF50F06087
:104B200008C84CC8084C4C4CEF50906983A581884C
:104B3000EF50A062EF50705F08CC4CCC08504C5046
:104B4000EF50106883A58188EF502061EF50F05D31
:104B50004CD008D008544C54EF50906683A58188FF
:104B6000EF50A05FEF50705C08D44CD426856FB036
:104B7000CFE1930704FB13064AAF1385070398435D
:104B800083160600CC43090613D8F641BA9633B70C
:104B9000E600C2952E9794C3D8C3A107E311F5FE92
:104BA000850A21B7EFB22FDBEFF05FEE2A8A631D93
:104BB0000516B7340020938404FBCC4C884CEF508E
:104BC000306083A5C188372400201304443AEF5095
:104BD000401783A50189EF405060834714080347BD
:104BE0000408AA8AA207D98F3305F040EF50304756
:104BF000AA855685EF40705EEF507040CC509317F9
:104C000005012300A4028850C183A183A300F402FC
:104C1000EF50105B83A5C188EF50A01283A50189D6
:104C2000EF40B05B8347340803472408AA8AA207F1
:104C3000D98F3305F040EF509042AA855685EF405A
:104C4000D059EF50D03BCC54931705012301A40257
:104C50008854C183A183A301F402EF50705683A549
:104C6000C188EF50000E83A50189EF40105703471C
:104C7000440883475408AA8AA207D98F3305F04015
:104C8000EF50F03DAA855685EF403055EF50303754
:104C9000CC40931705012302A4028840C183A1835D
:104CA000A302F402EF50D05183A5C188EF506009F0
:104CB00083A50189EF407052EF507034CC449317B4
:104CC00005012306A4028844C183A183A306F4023C
:104CD000EF50104F83A5C188EF50A00683A501892E
:104CE000EF40B04FEF50B031CC4893170501230788
:104CF000A4028848C183A183A307F402EF50504C5B
:104D000083A5C188EF50E00383A50189EF40F04CF3
:104D1000EF50F02E93170501C183A1832308A4024D
:104D2000A308F402EFB03FDE52856FB00FC6EFB2BA
:104D30002FC413052003EFF0FFE603C72197B73711
:104D40000020938707FE2381A70089451545A3818D
:104D5000E700EFF0FFB66FB0EFC3EFB26FC113879C
:104D6000018D83560700B72700209387C735A3809E
:104D7000D700A1822381D7008356270001468145B1
:104D8000A381D700A1822382D7008356470003570F
:104D900067002165A382D700A1822383D700A38364
:104DA000E700854621832384E70023800700EFC0C6
:104DB0008F8BB73700202381A7FE85451D45EFF077
:104DC0003FB06FB02FBDEFB2AFBAB73500209385BB
:104DD00035FE3D45EFD05FC1B7370020138707FE92
:104DE0002301A70003A78181938707FE01E70547F9
:104DF00023ACE18083A6818103A7C19D37350020C4
:104E00003357D702114693850199130555FE238226
:104E1000E700EFB0EFB83735002011469385C19811
:104E2000130595FEEFB0CFB7AD451305D00FEFF0EA
:104E30003FA96FB02FB6EFB2AFB30145EF000075D9
:104E40002945EF001046B707EFBE37E700E093872C
:104E500007083CC76FB00FB4B73700201307101016
:104E600089451305F00F2391E7FE6FF07FA51441EC
:104E70000546938716001CC1834745006373F608F7
:104E8000EFB20FAFFD172302F50083C716009D4652
:104E900063E0F60295CBFD1793F7F70F994663E5AC
:104EA000F602B5668A079386068FB6979C4382877B
:104EB0001307E00F638EE7021307F00F6387E70223
:104EC0001307D00F6389E7026FB0CFACEFF0DFA11B
:104ED000E5BFEFF03FABCDBFEFF09FB3F5B7EFF01D
:104EE000FFB7DDB7EFF0BFE4C5B7EFF0FFF6E9BFFE
:104EF000EFF07FF4D1BFEFF01FEDF9B7EFF0FFE572
:104F0000E1B782806FF0CFFCEFB28FA61C41130790
:104F1000000883C707006389E702636AF700054753
:104F2000638EE7004147638EE7006FB0AFA61307BB
:104F3000E00FE39CE7FEEFF09FF3C5BFEFF0BF8B00
:104F4000EDB7EFF01F8AD5B7EFF0BF8EF9BF03467C
:104F50008502AA8581461385016D89A4EFB24FA110
:104F600041112A848545054502C002C202C402C619
:104F7000EF20A06985452145EF2020698545414501
:104F8000EF20A068BD450545EF20601D1149C144D3
:104F900089470A853EC04AC226C422C6EF10105D6A
:104FA000BD450945EF20A01BA1670A853EC04AC246
:104FB00026C422C6EF10905B99450545EF20201AC4
:104FC000930700040A853EC04AC226C422C6EF10D9
:104FD000F0599D450545EF208018930700080A8584
:104FE0003EC04AC226C422C6EF105058B9450545F6
:104FF000EF20E01691670A853EC04AC226C422C649
:10500000EF10D05641016FB0EF98EFB26F9641119B
:105010003715014091474C00130505C03EC62312C9
:10502000F100231301002314010023150100EF20D8
:10503000400541016FB00F96EFB28F9337170240D2
:105040005C439146B18B6386D7005C434167F98F1F
:1050500081C70145EF20A048B7F700E0938707D04C
:10506000984B1367870298CB984B1367870098CBB0
:1050700073005010984B1367870098CB7300501043
:105080006FB04F91EFB2CF8E014509232945EF0054
:10509000502135651305C590EF5070590145EFE07B
:1050A000DFD1EFD01FD30545EFF05FEB0545EF20D3
:1050B000A04713051006EF20C05C854719C5EFF027
:1050C000BFF70145EFF09FE981473E856FB08F8CB8
:1050D0000DCDEFB24F882A84AE8405458DC5328A46
:1050E00081452D4613059400B6893A89EFB0AF8CFF
:1050F000854704C023224401230534012304F4001E
:10510000A308240101456FB04F8805458280EFB2A6
:105110002F869304F00F35CDADCD1C412A84B5CB3D
:1051200083440501B5E80347A5005C4563D6E7065F
:105130008347150113F9F70F6374F6001379F60F1F
:1051400085471307C400AF27F7005C4483479400EA
:105150000347A400850793F7F70F63E3E700814750
:1051600003451401A304F4004A86B307F50208407E
:105170003E95EFB0EF82034794005C40BA972380DE
:1051800027018347A40058446345F7008547230857
:10519000F40026856FB00F808544E5BFEFA25FFD68
:1051A0001309F00F59C9D1C91C412A84D9C7034931
:1051B0000501631709080347A5005C4563D2E708AA
:1051C00083471501B2846365F600FD1793F4F70F6A
:1051D00085471307C400AF27F7005C44834794005A
:1051E0000347A400850793F7F70F63E3E7008147C0
:1051F00003471401A304F40026863307F7021C407A
:105200008504BA972380D70003479400834714018D
:105210000840B387E70285073E95EFA07FF8034774
:1052200094005C40BA97238097008347A4005844B9
:105230006345F70085472308F4004A856FA09FF572
:105240000549E5BFAA8729C518411305F00F39C3E1
:10525000D847014521C37D579386C7002FA7E60095
:10526000D84703C7870083C6A70005071377F70F42
:105270006363D70001472384E70003C7070101CB1D
:10528000D847B326D70093C616002388D70082805C
:105290001305F00F8280EFA2BFED05650111854572
:1052A000110502C002C202C402C602C802CA02CC70
:1052B000231E0100EF206035930700082310F10042
:1052C00037150140E1473EC48A858D4713050580A7
:1052D0003EC2EF10105BB7C704013EC6B70700021D
:1052E0003ECA930700023ECC6C009D473735014013
:1052F000231EF10002C8EF20A03B05468945373543
:105300000140EF20604205616FA0DFE8EFA2BFE43B
:1053100079712A84AE89328981451306C00248001A
:10532000B684EFA05FE985450545EF20202C228556
:10533000EF10700CC1473EC6930700083ECC9307A0
:1053400000103ECE4C00856722854EC24AC426C856
:105350003ED402CA02D002D202D6EF10D017456165
:105360006FA0BFE2B7060001411101478147938555
:105370000182FD166148137615002E96034606003D
:1053800005813316E600D18F0D07F58FE31507FF72
:105390001395070141812394A19EC1831375F50FD5
:1053A0009386819E2381A6002384F19E83D7819ECC
:1053B00042055D8D41018280EFA2FFD98D4AB30481
:1053C0005503373400203285130484082E8AB689A9
:1053D000EFF05FF9935785001389A400330959034F
:1053E00022992300A9004181A300F9002301A9000B
:1053F0001389B40033095903B1045285EFF09FF6C5
:1054000093578500B384540322992300A900418156
:105410002301A9004E85A300F900EFF0BFF49357D4
:10542000850026942300A4004181A300F4002301F9
:10543000A4006FA09FD5EFA23FD1AA8437350020EA
:1054400013063015814513058508EFA0DFD6938735
:10545000417A03CA77001384417AE9EC63070A00B2
:10546000814537850200EFC06F8B81448347A400DC
:1054700063C4F4006FA0DFD013F5F40F814601463A
:105480008145EFF07FF38504D5B783C70900137515
:10549000F90F898BA5C7814601468145EFF0DFF101
:1054A00005098347A400834B8400E340F9FE854748
:1054B00091446393FB00B1448347940085EB372408
:1054C00000201304842D8346A404034694048345DA
:1054D00084042685EFF05FEE834694050346840539
:1054E0008345740513851400EFF01FEDE3040AF8FB
:1054F000854537850200EFC06F82ADBFB387540387
:10550000CE9783C6970203C6870283C57702EFF062
:10551000BFEA63860B00638A6B01850451B793274A
:10552000490093C71700BE94A5BF9307C9FF93B75F
:105530004700C5BFB7290020814401499389892DBF
:105540008D4A054BB9BFEFA2BFC237040240130515
:1055500004038145EF10A07BB73700201305040337
:10556000938787085CC583C7E17A0D478545B38774
:10557000E702D107B387E7025CC1EF1040798545A8
:1055800037350140EF2060186FA0DFC0EFA25FBE8B
:105590002A84EFF05FEA2285EFF0FFFA6FA09FBF49
:1055A000EFA21FBDEFF03FCF0945E52983C7E17AA0
:1055B0000D478D46B387E70237360020B7350140E7
:1055C0003705024013068608B10513050503D10708
:1055D000B386D702EFF09FD30545EFF03FFB0145BF
:1055E0006FA05FBBEFA23FB703C4C17AB7370020FB
:1055F00083C62706930720037D14B386F60213346F
:1056000014000A0422859304140093F6F60F3686DC
:10561000B685EFF07FDAB727002003CA872D93897C
:10562000872D814613198A01135989416344090062
:10563000930620033686B6852685EFF0FFD783C60E
:10564000119E9307200313053400B386F60293F6E8
:10565000F60F3686B685EFF03FD6634F090083C755
:10566000419881E783C7319781EB814601469305D5
:1056700020032685EFF05FD493770A020904814660
:1056800081EB83C7190093F7070285C793062003B0
:10569000014681452285EFF03FD283C7C19081CB7F
:1056A00081460146930520032285EFF0FFD06FA0CD
:1056B000DFAD814613062003E9BFEFA2DFA903C4D3
:1056C000C17A03C9C19E7D14133414000A0409C5AC
:1056D0009357490033E9270163080902814491493E
:1056E000B357994033059400858B1375F50F8146A8
:1056F00001469305200391E381458504EFF0DFCB5C
:10570000E39034FF6FA07FA8228593062003130641
:10571000200393052003EFF03FCA130514009306FE
:1057200020031306200393052003EFF0FFC81305A1
:105730002400930620031306200393052003EFF0B3
:10574000BFC7930620031306200393052003130508
:105750003400EFF07FC67DB72386A19E0547238ED8
:10576000E180828003C7B19E6307A700A385A19E45
:105770000547238EE1808280EFA29F9F2A847524B3
:1057800083A7419E1D8D9D4763FDA700792C83C78C
:10579000B19E23A2A19E81CBEFF0DFE40545EFF09F
:1057A0009FDA6FA03F9F83C7C181E5DF2285EFF0BD
:1057B000DFF00545EFF03FD9238E0180DDB71305FB
:1057C0000020EF10205A0DC113050010EF10C05932
:1057D00037050240814513050503EF10405381450D
:1057E00037350140EF10707273002030411102C450
:1057F0003717024002C61C43C16637060200D58F28
:105800001CC3B716024015679C42F18F3EC6A247E3
:1058100085073EC4B24781E7A247E397E7FEB71783
:1058200002409C4337070200F98FC9C385473EC633
:1058300032478547631EF706B72702409843B706ED
:10584000C1FFFD161367070198C39843719B98C366
:1058500098431367270098C3B7170240D843D8C3AB
:10586000D843D8C3D843D8C3D843758FD8C3D843F7
:10587000B7061D00558FD8C39843B7060001558F52
:1058800098C3B70600029843758F75DFD843B716E3
:105890000240719BD8C3D84313672700D8C3214760
:1058A000DC42B18BE39EE7FE4101828002C649B72C
:1058B00001A0B71702409843B706FFF81367170017
:1058C00098C3D843758FD8C39843B706F7FEFD1623
:1058D000758F98C39843B706FCFFFD16758F98C364
:1058E000D843B70681FFFD16758FD8C337079F00D1
:1058F00098C76FF0BFEF371702405C43A146B18BEA
:105900006391D7065C4354434166C983BD8BF18ED6
:10591000890781EE3747024003270780418B19CB67
:1059200037177A001307072011A85843B70602005B
:10593000758F7DD737173D0013070790B387E702B0
:1059400037170240544337170020130787279182E7
:10595000BD8A369703470700B3D7E70023A2F18239
:105960008280B7177A0093870720D9BF6FF01FE8AE
:10597000854537050040EF20E0008547631CF500B2
:1059800083A7819F854537050040850723ACF19E9D
:10599000EF20C00173002030EFA28FFD01119307AB
:1059A00070043ECA4C089307703E370500403ECC59
:1059B000EF10F0580546854537050040EF10D075CB
:1059C000854537050040EF1010729307C00223167B
:1059D000F10089472307F100680085473EC8EF10B2
:1059E000F021996737E700E0938707977CC3B207F8
:1059F000B706002CB183D58F7CD305616FA08FF9DA
:105A000003A7019F11E7054723A8E19E6FF0DFF888
:105A1000828083A7819F1307803EB387E702370701
:105A20000040035547023E95828003A5819F8280F6
:105A300083A7418237177A0013070720B3D7E702FD
:105A4000238AF19E828019E501458280014541014A
:105A50006FA04FF4EFA2CFF141112A84AE843289B6
:105A6000EFF03FFB2AC6268502946DF1EFF07FFA36
:105A7000B2471D8DE379A9FE2685029413351500E2
:105A8000F9B7EFA2EFEE41112A84EFF09FF82AC692
:105A9000EFF03FF8B2471D8DE37CA4FE41016FA0FB
:105AA0006FEF83A7819F41113EC683A7819FB246B6
:105AB000958FE37CF5FE4101828003462500930625
:105AC000350001471376F6079D4503C80600B35716
:105AD000E6409E07B3E707012380F6000507850629
