:100000006F60B02713000000130000001300000011
:100010001300000013000000130000001300000094
:100020001300000013000000130000001300000084
:08003000130000007300100032
:100038006FF09FFC000000006F0060186F00A01AAE
:1000480000000000000000000000000000000000A8
:100058000000000000000000000000000000000098
:100068006F601021000000006F6090200000000009
:100078006F6010206F60D01F6F60901F6F60501FFF
:100088006F60101F6F60D01E6F60901E6F60501EF3
:100098006F60101E6F60D01D6F60901D6F60501DE7
:1000A8006F60101D6F5080726F60901C6F60501CE5
:1000B8006F60101C6F60D01B6F60901B0000000009
:1000C8000000000000000000000000006F60501AEF
:1000D8006F60101A6F60D0196F6090196F605019B7
:1000E8006F50F0096F20800B6F6090186F60501888
:1000F8006F6010186F60D0176F20C0556F60501771
:100108006F6010176F60D0166F6090166F60501692
:100118006F6010166F60D0156F6090156F00001D2E
:1001280000000000000000000000000000000000C7
:080138000000000000000000BF
:10014000397101436EC619A0397141536AC866CA34
:1001500062CC5ECE19A0397101535AD056D252D416
:100160004ED64AD826DA22DC06DE3301614082828E
:1001700041114AC026C222C406C68282B24D410144
:10018000024D924C224CB24B4101024B924A224A00
:10019000B2494101024992442244B2404101828065
:1001A0002A8309CA83830500230073007D16050393
:1001B00085056DFA82802A8311C62300B3007D165F
:1001C000050365FE82800145EF50A03D37170240D0
:1001D0001C47B7068000D58F1CC7EF50807A37E7E1
:1001E00000E03C4793E787003CC77300203073274B
:1001F000203423A2E18AF326103483A7418A23A066
:10020000D18A372700201307473613D68700A3006B
:10021000C70413D607012301C70413D68701A3011E
:10022000C70413D68600A302C70413D6060123030E
:10023000C70413D686012300F7042302D704A303BF
:10024000C70463CD07000D476382E7026375F700BB
:10025000F1176365F70091067390163437E700E0F5
:100260003C4793E707023CC77300203001A0EFF240
:100270003FF011458545EF70805AB747024093879C
:100280000780984301451367470098C303A741823D
:10029000B7A74A04938707206309F700B777DC0202
:1002A000938707C06315F7000545EF70C045854586
:1002B0000565EF70E054F9BD37370240930700FC45
:1002C0002306F7409387C176C207C1832318F740FE
:1002D0009387C16E23A4F1A4C207C183231AF740F8
:1002E00089472309F742230BF7429387818AA3802A
:1002F00007008280011122CE26CC4ACA4EC852C6BF
:1003000056C43734024003476440834774409376B1
:10031000F70F098B6304075E93F7F70F13F70703D3
:10032000930500026302B70493060003630FD71618
:1003300021E713F7F703630007128546631ED70210
:1003400093F7070495CB834764431385416C93C7A8
:100350000708230BF4420356844083A581A4137637
:10036000F60FEF40D05B09A893F7F7036384E70229
:1003700013071002638EE70AB73702400947238349
:10038000E7407244E2445249C249324AA24A0561F6
:100390007300203083D7618B99E78347244393F719
:1003A000370F2309F44283C7C18B93F70706E9F798
:1003B00083C7D18B954613F7F70F638FD7049947FF
:1003C000E31CF7FA03D7618B9307F00313040004CF
:1003D00063E6E70003D4618B4204418003A9018CEA
:1003E0002286CA851385C176653B83D7618B2299A6
:1003F00023A0218D818FC207C183239BF18A1374AF
:10040000F40FB73702402388874203C727431347B7
:1004100007042389E7428DB7B736024003C7364049
:1004200083C7418B13770708D98FA381F640A9B7FB
:100430008347644393F7C70F93E72700230BF442E6
:100440008347644393C70704230BF4429387818A4D
:10045000A380070015B793F70704E38F07F083C75E
:10046000C18B93F70706E38907F083C7C18B93F726
:100470000706E393B7F003C7D18BA547E31EF7EE5A
:1004800037450020130600049385C176130545FB0C
:10049000013B05472380E1A48347244393F7C70F1B
:1004A00093E727002309F442C1BD9307A0FC230969
:1004B000F4421387C17683470700238EF18A83476E
:1004C000170083562700A38EF18A83576700239B6A
:1004D000F18A239DD18A83564700239CD18A03C980
:1004E000C18B9386C176137909066309090C83C70A
:1004F000C18B93F70706639EB70283C7D18B29464A
:10050000FD1793F7F70F6363F61831668A07130632
:10051000C625B2979C43828783D7818B6398071641
:10052000B745002013060004938545FB1385C1766B
:10053000853983C7C18BE207E18763DE073803D7BC
:10054000618B9307000463E6E70083D7618BC207E2
:10055000C18303D7618B1D8F42074183239BE18AAF
:1005600093F7F70F373702402308F74283472743B3
:1005700093F7C70F2309F74201B583D7818B6397A0
:10058000071003C73600A388E18A65B783D7818B3C
:10059000639E070E03C726002388E18A59BF83D7CD
:1005A000818B6395070E83C7118B2380F60051B7AB
:1005B00083D7818BE1EF83C7018BC5BF83C5D18B07
:1005C0002D4813F6F50F6363B80CB1650A069385E1
:1005D00085282E961042028683D6A18B0D46A182D5
:1005E0006386C60C636CD6008547638CF602894728
:1005F0006381F60481471309F00F81A89307100265
:10060000638BF60893072002E396F6FE83D7818B6F
:10061000F5F3B567938787BE23A0F18C9307F00DA0
:100620002DA0B567938787CC23A0F18C83C70700E3
:1006300029A8B71700209387872823A0F18C03C728
:10064000270083C73700A207D98F03D7618B63F4D4
:10065000E700239BF18A03D7618B9307F003130A0A
:10066000000463E7E70003DA618B420A135A0A01C8
:1006700083AA018C52861385C176D6851536D29A07
:1006800023A0518D9307F00FE315F9EAB737024025
:100690001307F0FCBDBB83D7818BA9FFB7170020E0
:1006A0009387A72923A0F18CA54745B783D7A18BB2
:1006B000094793F7F70F6387E702636BF70099EF3A
:1006C0009387418923A0F18C014983C70700B5BFF7
:1006D000E392D7F2B567938787B9B9B7B5679387C0
:1006E000C7BD99B7B567938707BB3DBF83D7A18BBC
:1006F00093F7F70F238AF18A2DBD83C7518B23808F
:10070000F60003D7618B8547E3F5E7E2239BF18A87
:100710000DB583D7A18B93F7F70FA38AF18A05470D
:100720002389E18A39B583C6C18BFD8A99EE83D7C7
:10073000A18B054793F7F70FE39DE7DE83C7318B66
:1007400093F7E70FA389F18AEDB383C6C18B0946FE
:10075000FD8AE39DC6F283D7A18B93F7F70F9DF730
:1007600083D7818B054793F7F70F6381E702130760
:100770002008E39DE7F0373702408347A74393F70C
:10078000C70B93E72700230DF74265B337370240C5
:100790008347674393F73707230BF7428347674342
:1007A00093F7C70B93E72700230BF74259B383C690
:1007B000C18BFD8A8DE683D7A18B054793F7F70F91
:1007C000E396E7ECB717002083C7F72893F70702F3
:1007D000E38E07EA83C7318B93E71700A5B783C67B
:1007E000C18B0946FD8AE393C6EA83D7A18B93F7B1
:1007F000F70FE39D07E883D7818B1307100893F762
:10080000F70F638FE70013072008E391E7E8373716
:1008100002408347A74393F7C70B93E73700A5B779
:10082000373702408347674393F7370793E7C7009B
:10083000230BF7428347674393F7C70B93E73700D0
:10084000A5B72380060075BD83C7C18B23960176AB
:10085000FD8B99EB83C7318B858BBDC38947238083
:10086000F60003D7618B4DB583C7C18B0946FD8B5D
:10087000639CC70403D7818B130610081377F70F07
:10088000630DC700130620086305C70203D7618BF9
:10089000E3FEE7DE239BF18AD5BB373702400347EF
:1008A00067433146318BE31EC7FA05472380E600D4
:1008B0004DBF373702400347A7430D460D8BE5B7C1
:1008C00003D7618B894789B583D7618BE370F6DCE9
:1008D000239BC18A65BB83D7618B91EBB7370240FD
:1008E0002388074203C727431377C70F1DB637373F
:1008F00002408347274393F7370FADB993F71600AC
:100900009DC3A38A018A238A018AA389018A238934
:10091000018AA30104404D328347644093E71700E6
:100920002303F440B9BC93F746009DCB91472303C2
:10093000F4402945EF50401603475440118B11CB2A
:1009400003C7318B13672700A389E18A83C7318BE3
:100950000DBC03C7318B1377D70FA389E18A15B478
:100960002303D44039BCEFF2BF80B74702409387DE
:1009700007809843C1E51367870098C33734024066
:1009800099472300F4402DCD2945EF50E0109D47B5
:10099000230004402301F440930790022300F44015
:1009A000213A930710F8A300F44013071004E1461E
:1009B000138641A69385C10A1385816DEF4040726D
:1009C000B715002013071004E1461386C1A79385CD
:1009D000C55B1385416CEF40A07037E700E09307DB
:1009E000402F7CC3B207B183B706003BD58F3CD301
:1009F000B70700082322F7106FF0CFF95D9BB5BF52
:100A00002945EF506009B7E700E023000440B843F0
:100A1000C146B4C33706000893860718D0C2B8C3CE
:100A2000E1BF83C7D17A9DCB0547638EE7021307E9
:100A3000401F9307802A23A8E18023A6F180938694
:100A4000072D371700202328D7321307002DB307AF
:100A5000F740371700202326F73282801307A0289B
:100A60009307002DC9BF1307C021DDBFEFF24FF080
:100A700037070001AA87130707F07D8FA1662E852F
:100A8000630ED70263E8E60029C39966630ED700B8
:100A90006FF04FF0BD66E31DD7FEB725002093F73A
:100AA000F70F9385052E39A0B725002093F7F70F90
:100AB0009385C53ABE95EFF0AFEED9BFB7250020BC
:100AC00093F7F70F93854536F5B793F7F70F9385AF
:100AD000C17ACDB7B7250020130640089385052EAF
:100AE000014565A9B7250020130640089385052E0A
:100AF00001452DA9B72500201306100B9385C53A93
:100B00001305001059A9B72500201306100B938573
:100B1000C53A1305001019A9EFF28FE5372400201C
:100B20001304042E0345C401EF90B07483A581879C
:100B3000EF90604223AEA1980345D401EF9070730B
:100B400083A58187EF90204123ACA1980345E40160
:100B5000EF90307283A58187EF90E03F0357040147
:100B600023AAA1983307E7029387418C98C30357C0
:100B700024013307E702D8C3FD2BEF00F000EF108C
:100B800020330545EF40F0216FF0CFE0EFF24FDE6C
:100B9000372900201306100BFD551305C93AEFF055
:100BA0008FE12D46FD551385C17AEFF0CFE02D463C
:100BB0009385C17A13050030CD2683C7C17A93840B
:100BC000C17A858B9DC3854723A00400A380F400D0
:100BD0002D46FD479385C17A1305003023A20400FA
:100BE000239404002385F400912629371309C93A78
:100BF00083470901372400201304C43A6380071097
:100C0000930700F82300F400E9778D072319F40017
:100C10008547A30DF4009307C0FCA30EF40295676B
:100C2000938747CC231FF402B71780CC93870780A4
:100C30003CC0B7570008938747CC7CC0B7D7C44C9B
:100C4000938707C83CC4F1779387C74C2316F404F5
:100C50009307C0042307F404B73732FF93872713A1
:100C60003CC8FD57231AF4048D67BD072313F4080D
:100C7000B7B790D9938717E62324F408B7175441E0
:100C80009387474D2326F408B757C7799387574171
:100C90002328F408B73736639387C7394946930545
:100CA000640813058409232AF408EFF06FCFB7070F
:100CB0008BFF9387B7051CD0B70700409387671950
:100CC0005CD0B74700401CD4B707BEFFF5075CD423
:100CD000B7073C34B9171CD8B7373B349387B743B1
:100CE0005CD8C167938707D52320F408856793876D
:100CF00067FC2312F408230804003135930700F839
:100D00002300F400E9778D072319F4008547A30D2C
:100D1000F40037240020130680049305443613059D
:100D20000020A52C9307443603C7070015C32147AD
:100D3000A38007002381E700A38107002382E70047
:100D4000A38207002383E700A38307002384E7002F
:100D50003729002013064008FD551305092EEFF032
:100D60008FC58D3B8347092E1304092E858BCDC378
:100D70001306400881451305092EEFF0CFC38567A0
:100D8000938787802312F4000967B7270020938791
:100D9000A72E130707022390E7002391E7003725CA
:100DA0000020B727002061779387672E1307070875
:100DB000114693050004130515302390E700239195
:100DC000E700EFF04FBF930700FCA300F400930788
:100DD000606D2317F40003C6A400B7077805938756
:100DE00087571CC801478D45FD56634BC704B7871D
:100DF0007F029387F7F75CCC8D679387C74B231AE5
:100E0000F4008347040093E707F82300F400D9397E
:100E1000213303475400B717002093878728A38006
:100E2000E702034744003735002019462384E702D0
:100E3000930564011305E506EFF08FB66FF08FB5EB
:100E4000B307B7020507A297A383D7022384D7026B
:100E5000A384D70259BFEFF2AFB1E1360545EF40A9
:100E600040746FF02FB3EFF20FAFB7070001938715
:100E700007F0E98F2167AA8432893684638FE704FB
:100E8000636AF700B5CF19676386E70201442285DC
:100E90006FF0AFAF3D67E39BE7FEB7270020937984
:100EA000F50F9387072EBE994E85EFF06FAF05C003
:100EB000153929A8B72700209379F50F9387C73AEA
:100EC000BE994E85EFF0CFAD19C035392A844A86D8
:100ED000CE852685EF5020205DBF372A00209379EC
:100EE000F50F93074A36BE994E85EFF06FAB65D08C
:100EF0001306800493054A36130500200528F9B728
:100F00001375F50F9387C17A3E95AE89EFF04FA91F
:100F100019C44A86CE851305003009282A844A86DA
:100F2000CE852685EF50201B3D3795B7EFF2AFA257
:100F3000B7F700083304F5003307C400B70701080A
:100F4000637BF7042E8A2285930500103289EF60B7
:100F500040111147AA848947631CE502B729002084
:100F600013060010FD5513850946EFF0CFA44A86FD
:100F7000D28513850946EFF0AFA2130600109385C2
:100F800009462285EF60801F8D47631395008147D6
:100F90003E856FF08F9F8547E5BF37F70008AE8726
:100FA000B305E5003387C500B7060108637CD700A9
:100FB000094599CBEFF2CF9B3E85EFF06F9E01453F
:100FC0006FF04F9D054582808280AA872E8563D36E
:100FD000B7003E858280EFF2AF994111AA85114694
:100FE0006800EFF0EF9B324541016FF0AF9AAA879E
:100FF0002E8563C6B7003E856353F6003285828036
:10100000EFF20F977971614681452808EFF0AF9AAA
:10101000014502C602C802CAEF60207137150140BF
:101020009307A0036C0013050580372401402316A5
:10103000F10002CAEF60202613050440EF50D02BC8
:1010400085473ECE3ED0B7070E003ED22C089147D2
:10105000130504402306F10202CC02D4EF50702C99
:10106000854513050440EF50D031854513050440F4
:10107000EF50303013050440EF50D031930404405A
:101080002685EF50D0316DFD130504403724014013
:10109000EF507031930404402685EF5070316DFDA0
:1010A00013050440EF50503E2396A18C45616FF02C
:1010B0006F8EEFF24F8A79712A84AE893289814529
:1010C0001306C0024800B684EFF0EF8E2285EF5081
:1010D000D053930700083ECC930700103ECE9307F1
:1010E00000403ED0930700023ED24C008D6722851F
:1010F0004EC24AC426C83ED402C602CA02D6EF5027
:10110000D05E45616FF06F88EFF28F86D53D372452
:101110000140B70402409305C444138584009146FE
:101120001386018D7937130504409D460546854594
:10113000EF50102A130504409D4609469545EF508F
:101140003029130504409D460D468D45EF5050282B
:101150009D461146130504409145EF5070271385B5
:1011600084008545EF50F05B854513050440EF5042
:10117000B0246FF02F82C1663727002093070756EF
:1011800013860610D0D71386160093860604D4C3A0
:10119000B716020094C3B706020013858600E8C3A1
:1011A00013850602A8C36165E8C713850601A8C7B1
:1011B00013850620A8CF3725040088CF1385061095
:1011C000E8CF37450400C8CF1385060488D3378598
:1011D000040090D7C8D393860608378502003726C7
:1011E0000200B745020088DBD4DBD0C78CC7B72725
:1011F000002083C6072E9307075613F5060119C171
:10120000CCC790C713F7860001CB37170200D8C3AD
:1012100041671307070498C3918A89CA23A2070468
:1012200023A0070423A6070423A407048280EFE277
:101230003FF441118D472E8432C63EC4AA8402C2B7
:10124000014681470147C1656343870619C22312DE
:10125000F100371501404C0013050580EF60A00335
:1012600001462312010081470147B7050200634D83
:10127000870419C22312F100371501404C001305F1
:1012800005C0EF604001014623120100814701477C
:10129000B70504006347870419C22312F1004C000C
:1012A00037150140EF50307F41016FE0BFEE9316DC
:1012B0002700A696944233F5B60009C5D58FC2071C
:1012C000C1830546050749B793162700A6969442A1
:1012D00033F5B60009C5D58FC207C183054605079A
:1012E00079B793162700A696944233F5B60009C540
:1012F000D58FC207C1830546050769BFEFE25FE7E7
:101300004111B78702005146854568003EC6053742
:10131000B70700209387070688470546A165EF6059
:10132000A00437050020130680029145130505002F
:10133000FD3D370500204146914513050501C53D9A
:10134000B70700209387070237270020138607047A
:101350001307075694438A06BA9623A00600D4437F
:101360008A06BA9623A0060094478A06BA9623A056
:101370000600D447C1078A06BA9623A00600E39B5D
:10138000C7FC41016FE01FE1EFE29FDEED3383C751
:10139000317B91C3A5373725002013068004E14532
:1013A0001305055669356FE0FFDEEFE2FFD937041C
:1013B000002013040401B704002037090020B70AF5
:1013C000002093840402130B0401014A1309090647
:1013D000938A0A00C14B0C400546814993D7E5002A
:1013E000F18BCA978843C205C181EF50F077514510
:1013F000EF40806AB38759018C4393D7E500F18BA6
:10140000CA978843C205C181EF50D074B3873401B5
:101410009C4391093315F500336AAA00E39C79FDDA
:101420000C400146110493D7E500F18BCA9788431D
:10143000C205C181EF5050735145EF40E065C104D2
:10144000E31B64F952856FE0BFD3EFE2FFCF83C7A0
:10145000317B014499C3913F2A84B7190140B724D5
:101460000020138B09C0938404560149370A0700F2
:10147000B70A0200B70B0400416C938909808C40C5
:10148000B3F7450163895703638B7703054563977A
:101490008701C205C1814E85EF50D06B933715008F
:1014A000B39727015D8C0509E1479104E319F9FC25
:1014B00022856FE0FFCCC205C1815A85F1BFC2050C
:1014C000C18137150140C9BFEFE29FCAB7070700C6
:1014D000E98F37070200AA856384E7023707040013
:1014E0006388E70241670545639AE700C20537153F
:1014F0000140C18113050580EF50D0656FE09FC9A1
:101500009315050137150140C181130505C0EDB7DD
:1015100093150501C18137150140F9BF1357E50047
:10152000B7070020718B93870706BA972E8693150D
:1015300005018843C1816F503063EFE27FC3797149
:101540002A848545314502CA02CC02CE02D002D29D
:1015500002D402D602C402C623180100EF60202C78
:101560006315040E85450945EF60402D3715014090
:1015700061478D474C08130505C03ACE370400403B
:10158000231AF1003ECCEF5010519307005A2C0063
:10159000130504403EC602C4EF60A03B05468545E6
:1015A00013050440EF608058C167938707060C104D
:1015B000130504403ED02313010223140102EF60FF
:1015C000C0400C1013050440EF60204B8545130507
:1015D0000440EF604054A14513050440EF604058BB
:1015E000A14513050440EF60C05881451305044030
:1015F000EF6020559305002D13050440EF6000595E
:101600009305002D13050440EF60A058EF00F00E85
:101610009307D0122310F1009D472301F1000A85A2
:1016200085473EC2EF50D07E89679387471A37E7D8
:1016300000E07CC3B207B183B706002DD58F3CD73D
:10164000854513050440EF60404B45616FE09FB452
:10165000AA8537050040130505406F60004AEFE298
:101660003FB1AA8832883E8689472E85BA85638C29
:10167000F8008D476388F800638308003688428548
:101680006FE05FB14295EFF09F9613180501135874
:101690000841F5B719473305E502B70700209387DE
:1016A00007082E86014781463E9583152500034590
:1016B00005009307C01165B719473305E502B70761
:1016C0000020938707082E861307000C930600104E
:1016D0003E9583154500034515009307001441B757
:1016E0001387418E1443B727002058430E05938774
:1016F000075CAA9794C3D8C38280EFE27FA7AA842D
:10170000034535001384418E8315040005817D89CE
:1017100051372310A40003C534008315240005812C
:101720007D89593F83C734002311A40003C52400D9
:1017300083154400858B920711815D8DA13F83C77E
:1017400034002312A40003C5240083156400858B94
:10175000920711815D8D8D372313A4000145493710
:101760000547A386E18E6FE0FFA2EFE27FA08347EB
:10177000350003472500B705002093F7F7031356FC
:1017800077008607D18F938505148607AE9783D798
:10179000070031661377F7071306862B0607938633
:1017A000418E32972390F6008357070003470500C8
:1017B0002391F60083471500098393F7E70FBE9541
:1017C00083D705002392F600834715000145858BDA
:1017D0009A07D98F86073E96835706002393F60013
:1017E00001370547A386E18E6FE0DF9AEFE25F984D
:1017F00083473500834625000347050093F7F70329
:101800009D82860713764700D58F058BAA841384A3
:10181000418E8607630D070C6301060C31671307C1
:10182000872BBA9783D707002313F40001454D3D5A
:1018300003C524008315040009817D89A13D23107F
:10184000A40003C524008315240009817D89AD35DA
:1018500083C724002311A40003C51400831544008A
:101860008D8B8E0715815D8D353583C7240023123E
:10187000A40003C51400831564008D8B8E071581A9
:101880005D8D1D3D2313A4000545993D03C514003E
:10189000831504007D89FD3B2310A40003C51400BB
:1018A000831524007D89093D2311A40003C504008C
:1018B000831544000D81F93B2312A40003C50400E5
:1018C000831564000D81CD3B2313A4000945093D18
:1018D0000D47A386E18E6FE0FF8B370700201307CB
:1018E0000714BA9783D707002312F40081B711CAEF
:1018F00031671307872BBA9783D707002311F400AA
:1019000035B73707002013070714BA9783D70700A6
:101910002310F40021BFEFE2BF85AA840345350000
:101920001384418E8315040005817D89A53323101E
:10193000A40003C534008315240005817D89AD3BD7
:1019400083C734002311A40003C524008315440079
:10195000858B920711815D8D353B83C7340023123F
:10196000A40003C5240083156400858B92071181B0
:101970005D8D99332313A40001459D3383C7240053
:1019800003C5140083150400BD8B86071D815D8D82
:10199000113383C724002310A40003C5140083154A
:1019A0002400BD8B86071D815D8D39332311A40072
:1019B00003C514008315440009817D89E139231290
:1019C000A40003C514008315640009817D89ED31ED
:1019D0002313A400054529330947A386E18E6FE050
:1019E0006FFBEFE2EFF8AA8483C7340003452500BC
:1019F0003707002093F7F703935675008607D58FB6
:101A0000130707148607BA9703C7040083960700D5
:101A1000B1671376E70F9387872BB2970981058B00
:101A2000839707007D891384418E51CF831504006D
:101A30002312D4002313F400EFF0DFC52310A40019
:101A400003C524008315240009817D89EFF0DFC6DA
:101A50002311A4000145EFF0BFC883C7240003C5CC
:101A60001400831504008D8B8E0715815D8DEFF0BA
:101A70007FC283C724002310A40003C5140083156C
:101A800024008D8B8E0715815D8DEFF0FFC2231131
:101A9000A40003C51400831544007D89EFF09FBFA7
:101AA0002312A40003C51400831564007D89EFF0A0
:101AB000BFC02313A4000545EFF09FC20947A386CA
:101AC000E18E6FE02FED831544002310D400231125
:101AD000F400EFF03FBC2312A40003C524008315DB
:101AE000640009817D89EFF03FBD2313A4009DB7F9
:101AF000EFE20FE8AA84034535001384418E831575
:101B0000040005817D89EFF0FFB82310A40003C510
:101B100034008315240005817D89EFF0FFB983C768
:101B200034002311A40003C5240083154400858BD1
:101B3000920711815D8DEFF0FFB583C7340023124A
:101B4000A40003C5240083156400858B92071181CE
:101B50005D8DEFF07FB62313A4000145EFF05FB871
:101B600083C7240003C5140083150400BD8B8607BA
:101B70001D815D8DEFF01FB283C724002310A400E8
:101B800003C5140083152400BD8B86071D815D8D60
:101B9000EFF09FB22311A40003C514008315440085
:101BA00009817D89EFF01FAF2312A40003C5140043
:101BB0008315640009817D89EFF01FB02313A40011
:101BC0000545EFF0FFB183C7140003C5040083157A
:101BD00004008D8B8E0715815D8DEFF0BFAB83C741
:101BE00014002310A40003C50400831524008D8B6A
:101BF0008E0715815D8DEFF03FAC2311A40003C566
:101C00000400831544007D89EFF0DFA82312A400AF
:101C100003C50400831564007D89EFF0FFA9231339
:101C2000A4000945EFF0DFAB0D47A386E18E6FE01E
:101C30006FD6EFE26FD103473500372400202386AB
:101C4000018EA386018E19838946AE841304045C39
:101C5000630DD70C8D466308D70E4DE38547A386E9
:101C6000F18E231204002310040003C5D18E0D460B
:101C70008145EFF0CFB7316BB72B0020938CC18D2E
:101C8000A386A18E014CA28A130B8B5C938B0B2E27
:101C90009389C18D83C7D18E6349FC0A83C7340001
:101CA00005472386E18EA386018E99838946638C3E
:101CB000D7148D466388D716639E0710A386E18EDE
:101CC000231204002310040003C5D18E0D46814564
:101CD000EFF0EFB1B169372A0020138BC18DA386D5
:101CE000A18E814A9389895C130A0A2E9384C18D3F
:101CF00083C7D18E63CCFA126FE08FC803471500FB
:101D000083472500834605002207BD8B558FC207F8
:101D1000D98F81E7EFF07F9E89BF8D8A81E6EFF052
:101D2000DFA4A1B7EFF09FAC89B783471500034745
:101D300005008D8BA207D98F81E7EFF0DFBD35B7A6
:101D4000EFF03FCA1DB76D330DB703974A0083C745
:101D50006B000A075A971843B387E702918323A2BF
:101D6000FC0083976A008A07DA97884319C913062B
:101D700000143306C502814637952F50A545EF6004
:101D8000A00C23A0A900CE850145092C03970A00C9
:101D900083C78B000A075A971843B387E7029183DA
:101DA00023A2F90083972A008A07DA97884319C982
:101DB0001306000A3306C502814637952F50A54504
:101DC000EF60800823A0A900CE850945C12A050C33
:101DD000A10AC9B503C7140083C7240083C6040041
:101DE0002207BD8B558FC207D98F89E72685EFF073
:101DF000DF90D9BD8D8A268581E6EFF01F97E9B582
:101E0000EFF0DF9ED1B583C7140003C70400268519
:101E10008D8BA207D98F81E7EFF0FFAF75B5EFF09B
:101E20005FBC5DB52685EFF0BFCC79BD03174400DC
:101E300083477A000A074E971843B387E7029183D6
:101E40002322FB00831764008A07CE97884319C9B1
:101E5000130600143306C502814637952F50A54559
:101E6000EF50907E88C0A68505450D2A0317040013
:101E700083479A000A074E971843B387E702918376
:101E8000DCC0831724008A07CE97884319C913063C
:101E9000000A3306C502814637952F50A545EF50FD
:101EA000B07A88C0A6850D45D528850A210489B554
:101EB000EFE20FACB727002083C4172E37040020B1
:101EC0001306001093F784008DC7B1659385853B99
:101ED00013050414C188EFE0AFAC91C813050414D6
:101EE000B16541469385854B0905EFE06FAB6FE027
:101EF0006FAAB1659385854CE1BFEFE26FA73726E6
:101F00000020B73500203735002021479306000216
:101F10001306865D93858595130545A9EF30401C12
:101F200037260020B735002037350020214793069B
:101F300000021306865F93858585130505A8EF309B
:101F4000201A37260020B7250020373500202147EA
:101F50009306000213068661938585751305C5A651
:101F6000EF30001837260020B72500203735002035
:101F70002147930600021306866393858565130542
:101F800085A5EF30E01585472384F192A384F19273
:101F90002385F192A385F1926FE0CF9FB9CDEFE257
:101FA0002F9D89476309F50263E2A7021DE93735D2
:101FB00000202146130545A9EF30601619C90547D1
:101FC00005452386E190EF30C05D21A08D47630079
:101FD000F5026FE02F9C373500202146130505A838
:101FE000E1BF3735002021461305C5A6F1B73735C7
:101FF00000202146130585A5C1B78280EFE24F97E7
:1020000083C7B19295CF37350020930745A9D447B0
:1020100085CA83C78700B7360020938686958E07CA
:10202000B6979443DC43A3850192138781941305EB
:1020300045A95CC314C3EF3020220547A387E19272
:1020400083C7A19295CF37350020930705A8D447C1
:1020500085CA83C78700B7360020938686858E079A
:10206000B6979443DC4323850192138701941305AB
:1020700005A85CC314C3EF30201E05472387E192F7
:1020800083C7919295CF373500209307C5A6D447D3
:1020900085CA83C78700B7260020938686758E077A
:1020A000B6979443DC43A38401921387819313056D
:1020B000C5A65CC314C3EF30201A0547A386E1927E
:1020C00083C7819295CF37350020930785A5D447E4
:1020D00085CA83C78700B7260020938686658E074A
:1020E000B6979443DC43238401921387019313052D
:1020F00085A55CC314C3EF30201605472386E19203
:102100006FE04F8921C29841E1679387076A3E9744
:1021100098C16374C70001458280B356C7028357D4
:1021200005003377C702B697C207C1832310F500B5
:1021300098C1056713070780E37FF7FC93F7F77FE4
:102140002310F50005458280EFE28F82B72700203B
:1021500083C7072E2A87368493F707042E855443B6
:10216000B28595C3854781CE1043693F814701C938
:1021700083A7018F818F93B7A70F93C7170013F51C
:10218000F70F6FE02F8199EA03A5018F018D1335B9
:10219000A50F134515001375F50FE5B710439D37CF
:1021A00065F5D5BF370500403971854513050540F4
:1021B00022DE26DC4ADA4ED852D656D45AD25ED027
:1021C00062CE66CC6ACA6EC8EF50D01D8547631DCB
:1021D000F52483A7018F138D170023A8A18F37271C
:1021E00000200347172E938481953704002013772E
:1021F0000702138C81969389019613890195130424
:1022000004246302072C83A601901386C191938551
:1022100061921385819636C6053F01CD83C5F19243
:1022200003C6E18EB246638005221366160023873B
:10223000C18E83A6C18F13868191938541921385A8
:10224000019636C6113701CD83C5E19203C6E18EF2
:10225000B246638A0520136626002387C18E83A6B3
:10226000818F13864191938521921385819536C67E
:10227000E13D01CD83C5D19203C6E18EB2466384B0
:102280000520136646002387C18E83A6418F1386DF
:102290000191938501921385019536C6EFF0DFEA2F
:1022A00001CD83C5C19203C6E18EB246638D051E82
:1022B000136686002387C18E83C6E18E13F616004F
:1022C00005C6A3870192138681940C4250422320B5
:1022D000BC002322CC0085452393019223AE0190BC
:1022E000A385B19223A0A19113F6260005C62387EA
:1022F0000192138601940C42504223A0B90023A2FC
:10230000C90023AC01908545239201922385B192A7
:1023100023AEA18F13F6460015C2A3860192138641
:1023200081930C4250428CC0D0C023AA01908545B5
:1023300023910192A384B19223ACA18FA18A85C677
:1023400023860192938601939042D4422320C900B0
:102350002322D90005462390019223A801902384CB
:10236000C19223AAA18F83A6018183D761920327FB
:102370004C0003A649008607A2978397070023878E
:10238000018EB387E70203D741920607229703170E
:1023900007003307C702BA97A987B387D702C58753
:1023A0009387072D23A4F19083D72192D8408607E5
:1023B000A29783970700B387E70203D70192060726
:1023C00022970317070003264900B7190020330797
:1023D000C7023719002003A609338325C932370401
:1023E000004013040440BA97A987B387D702C58772
:1023F0009387072D23A2F19003A58190EFE03FBFC3
:1024000042054181231EA4028325C93203A6093354
:1024100003A54190EFE0BFBD420541812310A40414
:1024200085452285EF50C0797254E2545259C25901
:10243000325AA25A125B825B724CE24C524DC24D30
:102440002161730020303166B306DD401306F63497
:10245000E371D6DE83C6418123220C0093E6160089
:10246000238AD180F9B33166B306DD401306F63412
:10247000E377D6DE83C6418123A2090093E62600D6
:10248000238AD180E9BB3166B306DD401306F634FA
:10249000E37DD6DE83C6418123A2040093E6460095
:1024A000238AD180DDB33166B306DD401306F634EE
:1024B000E374D6E083C641812322090093E68600B7
:1024C000238AD180D5BB03C7F1920DCBA38701929C
:1024D000938681949842D4422320EC002322DC008E
:1024E000A385A1929387819491C209EB23AE0190B9
:1024F0002393019223200C0023A2070003C7E1923B
:1025000015C723870192938701949843DC430546BE
:1025100023A0E90023A2F9002385C19291C319E702
:1025200023AC01902392019223A0090003C7D1920A
:1025300015C7A3860192938781939843DC43054690
:1025400098C0DCC0A384C19291C309EB23AA019077
:102550002391019223A0040023A2040003C7C19287
:1025600015C723860192938701939843DC43054660
:102570002320E9002322F9002384C19291C319E7A3
:1025800023A80190239001922320090003260C0028
:102590009385C19113856192EFF0DFB603A6090020
:1025A0009385819113854192EFF0DFB5904093853B
:1025B000419113852192EFF0FFB403260900938522
:1025C000019113850192EFF0FFB383A6018183D7B8
:1025D000619203274C0003A649008607A2978397C0
:1025E0000700B387E70203D7419206072297031734
:1025F00007003307C702BA97A987B387D702C587F1
:102600009387072D23A4F19083D72192D840860782
:10261000A29783970700B387E70203D701920607C3
:102620003A940317040045B3EFD29FB4AA853765E7
:10263000004013050580EF409079133515006FD0E9
:102640007FB5EFD2FFB2AA8537650040130505803C
:10265000EF4050761375F50F6FD0DFB3376700404A
:102660008357478113070780A183A388F196835777
:102670004701C207C18393F707F0C207C183231A3A
:10268000F70073002030EFD21FAD376500404111D5
:10269000814513050580EF40D0643714014093074E
:1026A00000400D49D1494C00130504C03EC24AC444
:1026B0004EC68564EF40303E938404804C00130581
:1026C00004C04EC64AC423129100EF40D03C93058B
:1026D0000040130504C0EF40F048A685130504C070
:1026E000EF4010480545EF30203B930500401305AF
:1026F00004C0EF40F0460545EF30003AA6851305CB
:1027000004C0EF4030460545EF300039A949130AAF
:1027100004C00569930500405285EF40B044A6858A
:102720005285EF40F0430545EF30003793050040F8
:102730005285EF40F0420545FD19EF30E035E39B4F
:1027400009FC130504C093050040EF40B041930518
:102750000980130504C0EF40F0400545EF30C03359
:1027600093050040130504C0EF40903F0545EF304E
:10277000A03293050980130504C0EF40703E054563
:10278000EF30803191474C00130504C03EC6EF4046
:10279000903093050980130504C0EF40B03B410120
:1027A0006FD0BF9EEFD2DF9C376400408145130598
:1027B0000480A3890196EF40D05213050480EF40B6
:1027C000103EEFF05FEC83C711975D8D1375F50F29
:1027D00001C937350C0001468145130505502920F4
:1027E000EF3080246FD01F9BEFD2FF960111AE8493
:1027F0002A8985452545328402C202C402C602C820
:1028000002CA02CC02CEEF50800185453705400058
:10281000EF50C002371A014093090040714B8D4AB6
:102820004C0013050AC0231231015AC656C4EF40AA
:1028300090268567938707804C0013050AC02312F2
:10284000F1005AC656C4EF401025B7070040231CBC
:102850009100B76400403ECA0C089167138504805C
:10286000231EF1004AC8231D3101EF407036854513
:1028700013850480EF40F04609651306800CB70508
:10288000020013058562EF30601D09C909C885453E
:1028900013850480EF40504EEFF0DFF00544A3892C
:1028A000819605616FD07F8E83C73197638C071245
:1028B000EFD27F8A37640040AA8A2E8A13050480EB
:1028C0008545EF40904709651306800CB705020067
:1028D00013058562EF30801883C711971375F50FC4
:1028E000C98F91C705472389E1966FD01F8A854517
:1028F00013050480EF40B040B709030009691306CF
:10290000800C9385190013052964EF30201583C7C7
:1029100011971375F50FC98F99C30947E9B7014698
:102920009305400D13050480EF401044370B07005A
:102930001306800C93052B0813052964EF30001251
:1029400083C711971375F50FC98F99C30D4761BFE1
:10295000D68513050480EF4030401306800C9305A4
:102960004B0813052964EF30600F83C71197137567
:10297000F50FC98F99C31147BDB7D28513050480E0
:10298000EF40B03B854513050480EF4050371306F8
:10299000800C9385190013052964EF30200C83C740
:1029A00011971375F50FC98F99C315472DBF0546AC
:1029B0009305400D13050480EF40103B1306800C77
:1029C0009385290013052964EF3040099377F50FAB
:1029D00003C511975D8DE30A05F099462389D196C9
:1029E0003E8521B705458280EFD2EFF62E8913751B
:1029F000F50F8145EFF05FEB83C711972388A19610
:102A00005D8D1DE5B705030009651306800C9385F0
:102A1000050413052564EF30600483C7119713750F
:102A2000F50F2388A1965D8D19C525472389E19669
:102A3000EFF05FD725A0B769004013850980EF400C
:102A400010322300A900854513850980EF40102D21
:102A500083C7019703C71197D98FF9FB03C5019766
:102A6000B72700202387A7366FD02FF2EFD2CFED04
:102A700085476316F600EFF03FF76FD06FF02E89B1
:102A800085453284EFF05FE2AA8435E17D14370A90
:102A90000300856AB76900401374F40F130A0A042F
:102AA000896B938A0A80938909809307F00F6303E7
:102AB000F4021306800CD28513852B64EF20107A64
:102AC00083C711971375F50FC98F95C71D472389C4
:102AD000E196AA8437650040130505808545EF40DF
:102AE000F02383C71197C58F13F5F70F59D5EFF072
:102AF0007FCB268559B785476316F400D6854E856A
:102B0000EF40F0284E85EF4090257D142300A9006A
:102B10001374F40F050951BF83C7319791E3828085
:102B2000EFD26FE3AA8A09654111AE891306800CC2
:102B3000B705020013058562EF20507283C7119715
:102B40001375F50FC98F8DC329472389E19683C774
:102B50001197C98F93F7F70F89C72AC6EFF09FC463
:102B6000324541016FD06FE237690040854513055A
:102B70000980EF40D018B7050300096A1306800CDE
:102B8000850513052A64EF20706D83C711971375AF
:102B9000F50FC98F99C32D474DBF01469305400DD1
:102BA00013050980EF40501C370B07001306800CFB
:102BB00093052B0813052A64EF20506A83C71197E9
:102BC0001375F50FC98F99C3314741B7D6851305E2
:102BD0000980EF4070181306800C93054B0813050D
:102BE0002A64EF20B06783C711971375F50FC98F5B
:102BF00099C3354799BFCE8513050980EF40D0159D
:102C00001306800C93054B0813052A64EF2010650A
:102C100083C711971375F50FC98F99C3394735B716
:102C2000130509808545EF40700F01450DB7373515
:102C30000C0005468145130505506FF0FFBAEFD231
:102C40002FD341112E849305F1002A89B284EFF02D
:102C5000BFD909ED8347F10093C4F4FF4A85E58F9E
:102C6000B365F400A307B100EFF01FEB41016FD093
:102C70006FD2EFD2EFCF41119305F1003D45A3078D
:102C80000100EFF07FD611E98347F1008546938775
:102C900077F993F7F70F63FBF60483A7819885070D
:102CA00023A4F19803C7419809C70D4541016FD08E
:102CB0006FCE2547637BF700854705452382F19852
:102CC000EF20300E83C74198EDF39305F10079456D
:102CD000EFF09FD11DC583A70199850723A8F1981F
:102CE00083A7C198850723A6F198C9B783C74198E0
:102CF00023A4019881C70545EF20B00A23820198DB
:102D0000E9B78347F1000D4709458D8BE390E7FA5A
:102D100083A70199B7350020314685079385C5AF54
:102D20001305200223A8F198EFF05FD441D183A7C7
:102D3000C1980545850723A6F1988DBFEFD24FC3F3
:102D400019441306F00F85454945EFF05FEF09C5BB
:102D50007D141374F40F75F42945EF20F0551944D0
:102D60001306F00F930500084D45EFF05FED09C520
:102D70007D141374F40F6DF419441306F00F9305CA
:102D8000E0084145EFF0BFEB09C57D141374F40F63
:102D90006DF419441306F00F9305C0054545EFF097
:102DA0001FEA09C57D141374F40F6DF4194413065A
:102DB000F00F930540044945EFF07FE809C57D1405
:102DC0001374F40F6DF413351500A380A19A6FD01E
:102DD0006FBCEFD2EFB91306000F81454145A380C8
:102DE000019AEFF0DFE51306000F81454545EFF04E
:102DF0001FE56FD02FBA8280EFD28FB483C7C197FF
:102E000013074002373A0020B387E7023724002037
:102E100013078AAA411193068AAA36C6BA970307EE
:102E2000042E23ACF196635D070013064002814532
:102E30003E85EFD04FB8EF30502E41016FD00FB428
:102E400083C73197FDDB83C7019AE5DB83C7219AEE
:102E50001304042E81E78D472381F19AEF20D03CA3
:102E60008347F40003A701988346E400A2073307D1
:102E7000E540D58F2A8CE362F7FCEFF09FDF55FD2C
:102E8000B73C0020138D8CB0373700201307C7AF35
:102E900013068D0193878CB013848CB094438315F3
:102EA00007000907AE9694C39107E399C7FE03C9CB
:102EB000D19703A7419705091379F90F8567A38E69
:102EC000219723A081993307EC4093877738E3F665
:102ED000E7F60840373A002093040AAFEF707039E4
:102EE00083A5C199EF70A048EF70B03208C0484088
:102EF000EF70303883A58199EF706047EF707031C3
:102F000048C00844EF70F03683A54199EF70204621
:102F1000EF7030305844930700061306400633879D
:102F2000E70208C43347C70258C418483387E7028A
:102F30003347C70218C85848B387E70213070AAFD8
:102F4000B3C7C7021386C4005CC881476308090081
:102F500083270D00B3C72703C207C1872310F700DB
:102F60000907110DE313C7FE6146814513858CB037
:102F7000A38E0196EFD02FA403A48197194623AA0C
:102F800081971309C400CA852285EFD06FA1130C65
:102F900084011946E2854A85EFD08FA03739002099
:102FA0001946930569AF6285EFD08F9F83C7019A59
:102FB0000547639EE70899676977130969AF9387A7
:102FC000871A130787E58396040063DDD7062390ED
:102FD000F4008904E39924FF930424011946A6858B
:102FE00013056400EFD0CF9B79041946A28526858E
:102FF000EFD00F9B194693050AAF2285EFD04F9A69
:1030000083C7219AFD1793F7F70F2381F19AE3966F
:1030100007E203A58197EF30501003C5C1979307CE
:1030200040021306400213351500238EA196330586
:10303000F502B24781453E95EFD0EF978D4723814A
:10304000F19AE5BBE3D7E6F82390E40059B70947C6
:10305000E398E7FA2285EF00206E5DB7EFD2AF8FDD
:10306000832A0500032A45002A8483298500032931
:10307000C500D6855685EF70802FAA84D2855285EB
:10308000EF70E02EAA852685EF607036AA84CE8583
:103090004E85EF70C02DAA852685EF605035AA8435
:1030A000CA854A85EF70A02CAA852685EF6030344A
:1030B000EF40D043AA8503A5C187EF60D069AA84F9
:1030C000AA855685EF70A02A08C0A6855285EF70A4
:1030D000002A48C0A6854E85EF70602908C4A685E1
:1030E0004A85EF70C02848C46FD02F8AEFD2CF85B1
:1030F000832BC500C445832A050083A90500032A44
:10310000450003AB45000329850003AC85002A84F4
:10311000A6855E85EF70A025AA8CCE855685EF70BA
:103120000025AA856685EF704052AA8CDA85528503
:10313000EF70E023AA856685EF702051AA8CE285A6
:103140004A85EF70C022AA856685EF70005048C49A
:10315000CE855E85EF70A021AA8CD6852685EF707E
:103160000021AA856685EF609028AA8CE2855285A9
:10317000EF70E01FAA856685EF607027AA8CCA856C
:103180005A85EF70C01EAA856685EF70004C08C096
:10319000DA855E85EF70A01DAA8CE2855685EF70FA
:1031A000001DAA856685EF70404AAA8CD2852685C7
:1031B000EF70E01BAA856685EF607023AA8CCA8534
:1031C0004E85EF70C01AAA856685EF60502248C010
:1031D000E2855E85EF70A019AA8BDA855685EF70BF
:1031E0000019AA855E85EF609020AA8AD2854E8557
:1031F000EF70E017AA855685EF702045AA89CA8529
:103200002685EF70C016AA854E85EF60501E08C453
:103210006FC01FF7EFC2DFF22A8403A5819A79718C
:10322000AE843305A640328AEF607015AA8903C5C3
:10323000140083C704002E8922055D8D4205418557
:1032400023A4419BEF60B00C4E86CA86EF503044F9
:1032500003A6018483A64184EF5070432A8D03C5E1
:10326000340083C72400AE8C22055D8D4205418564
:10327000EF60F0094E86CA86EF50704103A60184C4
:1032800083A64184EF50B0402A8C03C5540083C705
:103290004400AE8B22055D8D42054185EF6030070D
:1032A0004E86CA86EF50B03E03A6018483A64184B1
:1032B000EF50F03D2A8AAE896A86E6866A85E68501
:1032C000EF50F03C2A89AE846286DE866285DE8518
:1032D000EF50F03B2A86AE864A85A685EF40D07136
:1032E0002A89AE845286CE865285CE85EF50303AFA
:1032F0002A86AE864A85A685EF4010702A86AE865D
:103300002A89AE84EF50B03803A6818483A6C18495
:10331000AE8D2AC6EF50C05C03A6018583A6418509
:103320002A8BAE8A4A85A685EF50805B2A86AE86B8
:103330005A85D685EF60400A03A6818583A6C1859C
:10334000EF40906B2A8BAE8A2A86AE866A85E68528
:10335000EF50F033EF70701C5A86D6862ACADE858D
:103360006285EF50D032EF70501B5A86D6862ACC39
:10337000CE855285EF50B031EF70301AB24703A6B8
:10338000018683A641862ACEEE853E85EF504055C4
:1033900003A6818683A6C1862A8AAE894A85A68528
:1033A000EF50F02E2A86AE865285CE85EF60C002A1
:1033B00003A6018783A64187B7140020EF40D0639E
:1033C000EF70B0154C082AD013850424EFF01FD2FB
:1033D00013850424EFF09FC88347140003470400BB
:1033E00093840424A207D98F2398F40083473400E0
:1033F00003472400A207D98F2399F4008347540080
:1034000003474400A207D98F239AF40045616FC097
:10341000FFD6EFC27FD383C7650037390020411143
:10342000F19B93E727002383F50003C7219A8D477B
:10343000AA842E84130909B26312F702EF204060B8
:1034400023A2A19A23200900232209002324090092
:103450002326090023180900A381019A03C5319A84
:1034600099471946130A15003305F502137AFA0F26
:10347000A381419BB7390020938509AF4A95EFC0DE
:103480003FD28D47631BFA2683476400370B0080C9
:10349000854ACD9B2303F4007D1B914B034A6400B6
:1034A00093972A00A69788439377CA00A6978C43E0
:1034B00033756501B3F56501EF609058635BA0005B
:1034C00093F73A008A07137A3AFF336AFA00230324
:1034D0004401850AE3947AFD034A640093050000E1
:1034E000135A2A00137A3A0093172A00A6978843A2
:1034F000EF60705E635F052203AB018883AB418898
:10350000130C4100814A050A8D4CB3075A018D8B7B
:103510008A07A6978843DE85850AEF605065DA85BD
:10352000EF60F064EF70E04E2320AC00110CE39EDE
:103530009AFD8347140203476400A30A040093F72B
:1035400007F8A300F40292473D8B230B0400A587E4
:1035500093F6F7009206558F2303E40013D7470034
:10356000A303E40013D7C7002304E4002247D18358
:10357000858B25879376F7078606D58FA304F400FD
:10358000935777002305F400B2473D831377F70381
:1035900093D697409A06558FAD87A305E400A30BF9
:1035A0000400A30F04002300040213D7870023099B
:1035B000F400C183A309E4009D8B03A7419A230A69
:1035C000F40083471402058B1E0793F7F707D98F82
:1035D000A300F40283A7419A230F0400938909AF43
:1035E00085832301F40203A7419A8347340225838C
:1035F0000D8BF19BD98FA301F402EF20604483A7C8
:10360000419A1D8D834734020A058D8BC98FA30112
:10361000F402039709000318090083474401B30625
:10362000074113F6860F9D8BD18FA182230AF400E8
:10363000A30AD40003962900831829008346740145
:10364000B30716418D87230BF400A183819AFD8B6C
:10365000D58FA30BF40083964900031549008345D9
:103660007401B387A64013D337401603FD89B3E531
:103670006500A30BB40003136900998793D58700F5
:10368000230FF400B30707019A977558B3C70703D0
:1036900013F735009A97A58713F3F7030A033367E7
:1036A0006700A30FE400034704029983858B799B8D
:1036B000D98F2300F40203178900B3071601BA97C4
:1036C000B3C70703BA9703470402A5878607058B8C
:1036D000D98F2300F4020317A900B387A600BA9775
:1036E000B3C70703BA9703471402A58793F7F707F1
:1036F000137707F8D98FA300F40283C704012300CE
:10370000F40083C71401A300F40083C7240123013C
:10371000F40083D72401A183A301F40083C74401EB
:103720002302F40083C75401A302F40041016FC0D7
:103730003FA503ABC187D9B3EFC29FA32A84EF2073
:10374000A02E2A86B735002037350020938505AF97
:10375000130565AFEFF01FAC37150020A2851305E8
:103760000524EFF01FCB6FC0FFA283C7019D89EB3B
:10377000EFC21FA0EFD07FCD23ACA18C6FC09FA163
:10378000014523ACA18C828031C9EFC27F9E2A847F
:10379000EFF0BFFD03C7818D2300E40003C7918DC7
:1037A00083C7A18DA300E4002301F40083A7C19C7B
:1037B000A301F40013D78700C183A302F40083A7F9
:1037C000819C2302E4002303F40013D78700C18304
:1037D000A303E4002304F4006FC0DF9B8280EFC2E8
:1037E0009F97372400209307042E03C717008946AC
:1037F000328A19831304042E931716006307D7180F
:103800008D46630DD71A85466318D7029356F54146
:1038100033C7A600158FB306F40003C61602635D16
:10382000C70013D6F54183C626023347B600118F71
:103830006354D70081450145A2978389A700038976
:10384000B70083475401B389A90203474401A20783
:10385000D98F3309B90293D9594013595940B5CF7B
:10386000B307290313172A00238E019AB38439035F
:10387000BE949387418CBA979C4363E5F4008547D7
:10388000238EF19AEF20401A11E105456147330775
:10389000EA02B7370020938687B4138687B4BA96B6
:1038A000984209CF83475401834544013307E540DB
:1038B000A207CD8F636BF71423A0060083C7C19BBB
:1038C00089CFE147B307FA02B29784CBFD8423A2E4
:1038D000370123A42701C4CB88C3856A13850A80D6
:1038E0002A991386FAFF81454E95EFD04FF0AA84AE
:1038F0001386FAFF4A858145EFD06FEF0347140026
:103900002A89118B35CFA5473306FA0237240020C8
:103910001304C43A32948346E403034744048345C2
:10392000D40303453404BD8A3D8BA2062207D58DFE
:10393000598DEFD08FE923ACA19A0346E403834568
:10394000F40303474404834654041182118392060E
:103950009205D18D33E5E600EFD02FE703A6819BDA
:1039600023AAA19AB305C0402685EFD04FE803A64D
:10397000419BAA844A85B305C040EFD04FE72A890E
:103980001315C90026956FC05F809356F54133C764
:10399000A600158FB306F40083C616026353D70042
:1039A000014593D6F54133C7B600158FB306F40031
:1039B00083C62602E352D7E88145BDBD3307F40034
:1039C0001356F54103471702B346A600918E63CC08
:1039D000E602FD566343A00085463307D7023A95B9
:1039E0003307F40013D6F54103472702B346B60068
:1039F000918EE3C3E6FCFD566343B0008546330772
:103A0000D702BA9515BD0145E1BFD8429C46338720
:103A1000E902B307F9023E97E35207EA8C4AD44A17
:103A200093D7F441B387F502B386960233889502A3
:103A3000B697B3B59502AE978D45B387F502B386B9
:103A40000503B3B505038D82AE979395D701CD8E4F
:103A5000B305E7028D873317E702E361F7E6639466
:103A6000E700E3EDD5E4238E019A01498149B9B518
:103A7000EFC20FF09387018D03D7470003D50700EE
:103A800083D52700B734002083D767003724002070
:103A900013044436938484B798C403474400DCC4B9
:103AA000834734002207834614005D8F8347240038
:103AB00088C0CCC0A207D58F998D01461D8DEFF02F
:103AC0001FD20347840023A6A19C834774002207CA
:103AD000834654005D8F83476400CC448844A2072A
:103AE000D58F0546998D1D8DEFF07FCF23A4A19C26
:103AF0006FC04FEAEFC22FE683C7019DA389019AE9
:103B00002389019A6384071E37250200EFD0DF9BCB
:103B100083C7019D638C071C37050200130505044C
:103B2000EFD09F9A6314051C83C7119B8DC737275D
:103B300000201307072E8347070093C6070893F654
:103B4000060893F7F707D58F2300F7008547A38969
:103B5000F19A2389F19A83C7019DA388A19A638969
:103B6000071837850400EFD03F96AA89631205181D
:103B700083C7019B85CF372700201307072E834774
:103B8000070093C6F7FF93F6060293F7F7FDD58F6C
:103B90002300F700958393C7170013F51700EFD0A4
:103BA0003FAB8547A389F19A2389F19A83C7019D89
:103BB0002388319B6380071437050200130505082D
:103BC000EFD09F906318051283C7F19A9DC33727E2
:103BD00000201307072E8347070093C6F7FF898A43
:103BE000F59BD58F2300F7008547A389F19A238998
:103BF000F19A83C7019DA387A19A638F070E416540
:103C00000505EFD07F8CAA896318050E83C7E19A5A
:103C100085CF37350020835745B3797713070708D9
:103C2000F98F93E70760231AF5B283C7119E130734
:103C300045B3130545B393B71700A301F700EF2071
:103C4000803885472389F19A83C7019D2387319B5B
:103C5000D5C7416513050510EFD01F87AA8959ED17
:103C600083C7D19AA1C3B72500209387052E13855A
:103C7000A7FF9385052E9306F00F03C7B701130620
:103C80001700A38DC7006315D700FD17E397A7FEA4
:103C9000373500201946D9051305E506EFC04FD08A
:103CA000EFC05FE483C7019DA386319BB1CBB737DB
:103CB000002083C7D706A9E737850200EFD0DF8051
:103CC00021E183C7C19A81C70545EF20204E238695
:103CD000019A83C7219B81C70545EF10900C83C7CC
:103CE000319B99C3EFC01FE06FC02FCA0545A5B532
:103CF00085496DBD0545F5BD8549B9B785495DB7B0
:103D000001452386019AEF20604AE1B7EFC24FC612
:103D1000370502001105EFD02FFB15E983A7419C61
:103D200095C3EF10F05183A7419C1D8D930740066A
:103D300063F8A700054705452388E19CEF10F023B1
:103D40006FC04FC5EF10D04F23A2A19CD5BF83C732
:103D5000019DFDD70145EF1050222388019C23A22D
:103D6000019CF9BFEFC2CFC083A7C19D850723AED9
:103D7000F19C81E7054723ACE180EF10704C83A7ED
:103D8000019C6300F502EF10B04B83A7818183A6ED
:103D9000019C958FAA9723ACF180EF10704A23A065
:103DA000A19CEFF0BFF6EFE06FA5EFF0EF84EFF02E
:103DB0007FD4B737002003C5D706EF10501DEF2082
:103DC000700E6FC02FBDEFC2AFBA2A84AA8513054B
:103DD0000020EF30D024A2850545EF307022A28567
:103DE0000545EF30B025A2850945EF303025A28585
:103DF0000565EF30D022A2851165EF305022B7045F
:103E00000240A28513854404EF30A011A2851385DA
:103E10008405EF300011A28513858400EF30601017
:103E2000A28537050040EF30504D37050040A28590
:103E300013050540EF30704CB7440140A28513854F
:103E40000480EF30306322869305000413850480DC
:103E5000EF30D0636FC00FB4EFC28FB1371702409D
:103E60001C43B70608000111D58F1CC30545EF3070
:103E7000F00C716513050520EF30506437350020D4
:103E800013065002814513058506EFC0CFB2356594
:103E9000130585ACEF70E01A85457145EF30301899
:103EA000854513050020EF30901785450545EF3017
:103EB000301585450545EF30701885450945EF30CB
:103EC000F01785450565EF30901585451165EF3094
:103ED0001015EF105037EF1010342945EF10D03D7A
:103EE000EF204075EFC09FCA6800EF307006EFD03A
:103EF000AFC9EF10F04DEF10D042EFD0EFA0EF20A0
:103F00000037EF108011EF10006BEFE05FD2EFE0B1
:103F10009FEEEFE0BFE2EFC03FC0EFC04FB5EF3024
:103F20002079AA850545EFC01FA405616FC08FA643
:103F3000EFC26FA20545EF30A06CEF10301DEFF01F
:103F4000BFF183A5418235651305C5ADEF60F07AF9
:103F50003145EFD06FD72380A19EEF00B07B0D6578
:103F600013058578EF201011EF20B01B0145374471
:103F70000020B7340020EFD04FDC130484FA938480
:103F80008406054BEF107070EFF09FAEEFF0EFFD81
:103F900083A7818D13D787002300F400C1832301F9
:103FA000F40083A7C19CA300E400A301F40013D78D
:103FB0008700C183A302F40083A7819C2302E4004D
:103FC0002303F40013D78700C1832304F40083C7BD
:103FD000218BA303E40091CF23826401EF201024FE
:103FE000EF201015EF201003EF10F050EFF09FD7E7
:103FF00051BFA382040023820400EDB78280834571
:10400000D5000345B5001306F00F6FE05FC3828053
:1040100082808280B7370020938787B823A6070263
:104020002394070223A207028280EFC26F943734E1
:104030000020AA84EFF01FFE130984B889679387D4
:10404000071A130620029385B400130529002314D0
:10405000F4B8EFC0EF9493074002130584B823141B
:10406000F902EF00D06F6FC0EF92EFC26F902A8419
:10407000EFF05FFA0347A40037350020930785B8B7
:10408000930600F8A380E700130585B80D47238049
:10409000D7002381E7002394E702EF00506C6FC044
:1040A0006F8FEFC24F8BAA84EFF0DFF603C7A40037
:1040B00083C9B400373A002093078AB8930610F8F2
:1040C0002380D700A380E7002381370185471309A8
:1040D0008AB8638EF9008947638AF9048D4713050E
:1040E0008AB82314F902EF0090676FC00F8A373443
:1040F00000201304840619469385C4001305C400E8
:10410000EFC00F8A19469305640013053900A3090F
:104110003401EFC0EF88B1656146938545241305EE
:104120009900EFC0EF879307100255BFB735002005
:1041300041469385C50713053900EFC06F86CD470B
:1041400079BFEFC2EF822A84EFF0DFECB7270020BF
:1041500083C7F72FADCF0547638FE7060D4793075A
:104160009004B71500209386C5262380E6000347F8
:10417000A40037340020A380F600930784B8930688
:1041800020F82380D700A380E700B737002093876B
:1041900087061387C5269386A7FF930484B803C6B2
:1041A000B700FD170507A301C700E39AD7FE314604
:1041B0009385C52613852400EFB09FFEB9471305EC
:1041C00084B82394F402EF0090596FB0BFFC0D4700
:1041D0009307800479B711479307300359B7EFB2BB
:1041E0003FF92A84EFF01FE30347B4008D4693079D
:1041F00007FD93F7F70F63E4F600A38AE180034716
:10420000A40037350020930785B8930600F8A380F3
:10421000E700130585B809472380D7002394E702F8
:10422000EF00F0536FB01FF7EFB29FF42A84EFF066
:104230007FDE8347A400B7340020138484B8B71509
:104240000020130730F839469385C525130524004F
:104250002300E400A300F400EFB09FF4C1471385EE
:1042600084B82314F402EF00904F6FB0BFF2EFB2A6
:104270003FF02A84EFF01FDA0347A400373500200F
:10428000930785B8A380E7000547930600F82381CC
:10429000E700130585B80D472380D7002394E70274
:1042A000EF00F04B6FB01FEFEFB29FEC2A84EFF0FE
:1042B0007FD60347A40037350020930785B89306BF
:1042C00000F8A380E700130585B80D472380D700C9
:1042D000238107002394E702EF0070486FB09FEB43
:1042E0006FF09FFC6FF05FFC6FF01FFCEFB2BFE65A
:1042F0004111AA84EFF01FD29385B4002E852EC6FB
:10430000EFC07FCD83C7F4007547B2452A89754455
:104310006364F70013F4F70F83C7A400B7390020D4
:1043200037350020130700F9938489B81546130523
:10433000A5B82380E400A380F400EFB07FE6B73592
:10434000002022869385F5B84A85EFC02FF21D0420
:104350001374F40F138589B823948402EF0030405E
:1043600041016FB09FE2EFB2BFE041112A84EFF04C
:104370007FCA1305B400EFC01FC60346F4009305BF
:1043800004018546AA8432C62EC4EFC0DFAD324692
:10439000A2452685EF1030540347A400373500208E
:1043A000930785B8930600F8A380E700130585B846
:1043B0000D472380D700238107002394E702EF00F5
:1043C000103A41016FB01FDDEFB29FDA2A84EFF09F
:1043D0007FC40347A40037350020930785B89306B0
:1043E00000F8A380E700130585B809472380D700AC
:1043F0002394E702EF00B0366FB0DFD96FF0DFFC37
:104400006FF09FFCEFB2DFD62A84EFF0BFC0034706
:10441000A40037350020930785B8930600F8A380E1
:10442000E700130585B8130740022380D7002394C3
:10443000E702EF00D0326FB0FFD5EFB27FD32A840E
:10444000EFF05FBD0347A40037350020930785B820
:10445000A380E700130585B809472380070023944C
:10446000E702EF00D02F6FB0FFD2EFB27FD02A84E7
:10447000EFF05FBA0347A40037350020930785B8F3
:10448000930600F8A380E700130585B859472380F9
:10449000D7002394E702EF00902C6FB0BFCFEFB2AC
:1044A0003FCD2A84EFF01FB70345B400A38CA19C35
:1044B000EF10E02B0347A40037350020930785B8A1
:1044C000930600F8A380E700130585B80947238009
:1044D000D7002394E702EF009028B7370020054764
:1044E000A386E7066FB01FCBEFB29FC82A84EFF018
:1044F0007FB20347A40037350020930785B8A38017
:10450000E70003C7919D930600FB130585B823813F
:10451000E7000D472380D7002394E702EF00302403
:104520006FB05FC7EFB2DFC42A84EFF0BFAE83473E
:10453000B40037350020238AF19C2380F19A034789
:10454000A400930785B8930600F8A380E70013053D
:1045500085B809472380D7002394E702EF00302075
:104560006FB05FC3EFB2DFC0B73400202A84EFF032
:104570007FAA938784B8130700142391E70003C729
:10458000419D138984B89387419D01E705472380A6
:10459000E70011469305B40013851700EFB05FC024
:1045A0008347A400130700F8138584B8A300F9001B
:1045B00089472300E9002314F902EF00501A6FB075
:1045C0007FBDEFB2FFBAAA84EFF0DFA403C7C40037
:1045D0009306000203C5B4009307000263E3E600FC
:1045E000BA8703C7A40013F4F70F37390020B73593
:1045F0000020930489B8930600FC22869385C5B8F1
:104600002380D400A380E400A381F4002381A400CC
:104610001104EFE0AFC51374F40F130589B82394A8
:104620008402EF00D0136FB0FFB6EFB27FB42A84DC
:10463000EFF05F9E0347B400B71700203735002026
:104640002384E7320347A400930785B8930600F854
:10465000A380E700130585B809472380D70023947A
:10466000E702EF00D00F6FB0FFB2EFB27FB02A8445
:10467000EFF05F9A0347A40037350020930785B811
:10468000A380E70013078061930600FD2391E700F4
:10469000130585B811472380D7002394E702EF0064
:1046A000100C6FB03FAFEFB2BFAC2A84EFF09F9613
:1046B0000347A40037350020930785B8A380E7009F
:1046C0005147930610FD2381E700130585B80D4778
:1046D0002380D7002394E702EF0070086FB09FABF0
:1046E000B73700201167938787BB1307A70698C3C6
:1046F00011671307270AD8C311671307271498C730
:1047000011671307E71DD8C711671307872298CBD6
:1047100011671307E726D8CB11671307C7FF98CF98
:10472000116713072701D8CF11671307872A98D37A
:1047300011671307C72EB8C3116713076736F8C38D
:1047400011671307072E9166B8C79386E600138793
:10475000070814C391669386A60254C39166938694
:10476000863C14C791669386462E14CB9166938639
:10477000862E54CB91669386C63F14D3916693865A
:10478000464054D391669386A64314D79166938688
:10479000A64654D791669386E64934C391669386BC
:1047A000864E74C391669386060134D3116793874E
:1047B00007101307475298C3116713074756D8C30A
:1047C00011671307E7FF98C711671307275CD8C75E
:1047D00011671307A76298D311671307A766B8C3B9
:1047E000116713070740F8C311671307676AB8C753
:1047F000828083C7019E99C708419305650009051A
:104800006FD02FC38280EFB2BF962A8483454400C5
:10481000084137370020D11593F5F50F2302B40076
:104820008347A500130787BB8A07BA979C4399C3A0
:10483000829719A01C43EDFF2285EFF09FFB6FB01C
:104840007F9503474500854763F3E7081C41C1C3D3
:1048500083C717001547FD1793F7F70F6369F7062E
:10486000EFB21F9135678A071307C7AEBA979C430B
:10487000373400208287B70700031305840293872B
:104880001718B73500201CC119469385E506110598
:10489000EFB01F9185462946930584021385816DEB
:1048A000EF00F0106FB01F8F930710282314F4024D
:1048B00085460946D5B793071038CDBF93071048F2
:1048C000F5B793071058DDB793071068C5B7828016
:1048D000B7370020138787FEA300A700F956138679
:1048E00025002300D7001376F60F8546938587FEB3
:1048F0001385816D6F00B00BEFB29F87B734002036
:1049000037340020B7250020130484FE1306D0039B
:104910009385052E1385B4FE23010400EFB05F8854
:104920009305E0030545EFF0BFFAB7250020854762
:104930001306D0039385D5311385B4FE2301F4000B
:10494000EFB01F869305E0030545EFF07FF837359C
:104950000020130630038145130555FFEFB0BF85D6
:10496000B7250020894729469385A5351385B4FED0
:104970002301F400EFB0DF82AD450545EFF05FF5B0
:104980009307F03F894505452311F400EFF05FF4EC
:104990006FB05F80EFB2CFFD0C411307F00F83C7FC
:1049A000150003C4A19D6396E70483C725002A89E7
:1049B0000147639C870003C7350085476314F700F0
:1049C000EFC04F92EFC04F950547B7370020938750
:1049D00087FE2381E700032709008945094503472E
:1049E0003700238D019CA381E700EFF07FEE6FB0CD
:1049F0006FFA1307D003B387E702372500201306A9
:104A000040081305052E1D8E3E956374C7001306DE
:104A1000D00389050504EFB0AFF8238D819CC1BF99
:104A2000EFB20FF52A8408410505EFC0CFDA0C403C
:104A3000AA8437350020154685051305A5FEEFB07D
:104A40002FF61C40B7350020268503C657009385F6
:104A5000F5FEEFC0AF811C400D4583C5570095059D
:104A600093F5F50FEFF0DFE66FB0CFF2EFB24FF056
:104A70002A8408410505EFC00FD60C40854603C6C1
:104A800055009905EFC02FBEB73700202385A7FE3C
:104A900085451145EFF0DFE36FB0CFEFEFB2AFEB3D
:104AA00037340020AA89130600038145130584FBCF
:104AB000EFB06FF0814A373A002063943A018144A5
:104AC00025A01305B004EF00307F1949EFE06F9A7D
:104AD000AA8413052003EF00307E6384040A7D1945
:104AE0001379F90FE31409FE130484FB4C400840CA
:104AF000EF60400E83A5C199EF507007EF6020046E
:104B000008C04CC008444C44EF60C00C83A5819998
:104B1000EF50F005EF60A00208C44CC408484C48B0
:104B2000EF60400B83A54199EF507004EF602001C6
:104B300008C84CC8084C4C4CEF60C00983A581885C
:104B4000EF50F002EF50B07F08CC4CCC08504C50E6
:104B5000EF60400883A58188EF507001EF50307EF0
:104B60004CD008D008544C54EF60C00683A581880F
:104B7000EF50E07FEF50B07C08D44CD426856FB066
:104B8000CFE0930784FB1306CAAF1385070398434E
:104B900083160600CC43090613D8F641BA9633B7FC
:104BA000E600C2952E9794C3D8C3A107E311F5FE82
:104BB000850A21B7EFB22FDAEFF05FEE2A8A631D84
:104BC0000516B7340020938484FBCC4C884CEF60EE
:104BD000600083A5C188372400201304C43AEF5035
:104BE000803783A50189EF5080008347140803476D
:104BF0000408AA8AA207D98F3305F040EF507067E6
:104C0000AA855685EF40B07EEF50B060CC50931728
:104C100005012300A4028850C183A183A300F402EC
:104C2000EF50507B83A5C188EF50E03283A5018906
:104C3000EF40F07B8347340803472408AA8AA20781
:104C4000D98F3305F040EF50D062AA855685EF40EA
:104C5000107AEF50105CCC54931705012301A40285
:104C60008854C183A183A301F402EF50B07683A5D9
:104C7000C188EF50402E83A50189EF40507703474C
:104C8000440883475408AA8AA207D98F3305F04005
:104C9000EF50305EAA855685EF407075EF50705723
:104CA000CC40931705012302A4028840C183A1834D
:104CB000A302F402EF50107283A5C188EF50A0291F
:104CC00083A50189EF40B072EF50B054CC449317E4
:104CD00005012306A4028844C183A183A306F4022C
:104CE000EF50506F83A5C188EF50E02683A501895E
:104CF000EF40F06FEF50F051CC48931705012307B8
:104D0000A4028848C183A183A307F402EF50906CEA
:104D100083A5C188EF50202483A50189EF40306D21
:104D2000EF50304F93170501C183A1832308A402DC
:104D3000A308F402EFB03FDD52856FB00FC5EFB2AC
:104D40002FC313052003EFF0FFE603C72197B73702
:104D50000020938787FE2381A70089451545A381FD
:104D6000E700EFF0FFB66FB0EFC2EFB26FC013878E
:104D7000018D83560700B727002093874736A3800D
:104D8000D700A1822381D7008356270001468145A1
:104D9000A381D700A1822382D700835647000357FF
:104DA00067002165A382D700A1822383D700A38354
:104DB000E700854621832384E70023800700EFC0B6
:104DC0008F8AB73700202385A7FE85451D45EFF064
:104DD0003FB06FB02FBCEFB2AFB9B73500209385AD
:104DE000B5FE3D45EFD05FC0B7370020138787FE83
:104DF0002301A70003A78181938787FE01E7054769
:104E000023ACE18083A6818103A7C19D37350020B3
:104E10003357D7021146938501991305D5FE238296
:104E2000E700EFB0EFB73735002011469385C19802
:104E3000130515FFEFB0CFB6AD451305D00FEFF05A
:104E40003FA96FB02FB5EFB2AFB20145EF0060756B
:104E50002945EF007046B707EFBE37E700E09387BC
:104E600007083CC76FB00FB3B73700201307101007
:104E700089451305F00F2395E7FE6FF07FA51441D8
:104E80000546938716001CC1834745006373F608E7
:104E9000EFB20FAEFD172302F50083C716009D4643
:104EA00063E0F60295CBFD1793F7F70F994663E59C
:104EB000F602B5668A07938646B0B6979C4382870A
:104EC0001307E00F638EE7021307F00F6387E70213
:104ED0001307D00F6389E7026FB0CFABEFF0DFA10C
:104EE000E5BFEFF03FABCDBFEFF09FB3F5B7EFF00D
:104EF000FFB7DDB7EFF0BFE4C5B7EFF0FFF6E9BFEE
:104F0000EFF07FF4D1BFEFF01FEDF9B7EFF0FFE561
:104F1000E1B782806FF0CFFCEFB28FA51C41130781
:104F2000000883C707006389E702636AF700054743
:104F3000638EE7004147638EE7006FB0AFA51307AC
:104F4000E00FE39CE7FEEFF09FF3C5BFEFF0BF8BF0
:104F5000EDB7EFF01F8AD5B7EFF0BF8EF9BF03466C
:104F60008502AA8581461385816D91A4EFB24FA079
:104F700041112A848545054502C002C202C402C609
:104F8000EF20F00985452145EF2070098545414511
:104F9000EF20F008BD450545EF20A03D1149C14473
:104FA00089470A853EC04AC226C422C6EF10507DFA
:104FB000BD450945EF20E03BA1670A853EC04AC2D6
:104FC00026C422C6EF10D07B99450545EF20603AF4
:104FD000930700040A853EC04AC226C422C6EF10C9
:104FE000307A9D450545EF20C038930700080A85B3
:104FF0003EC04AC226C422C6EF109078B945054586
:10500000EF20203791670A853EC04AC226C422C6D7
:10501000EF10107741016FB0EF97EFB26F9541112C
:105020003715014091474C00130505C03EC62312B9
:10503000F100231301002314010023150100EF20C8
:10504000802541016FB00F95EFB28F923717024064
:105050005C439146B18B6386D7005C434167F98F0F
:1050600081C70145EF20E068B7F700E0938707D0DC
:10507000984B1367870298CB984B1367870098CBA0
:1050800073005010984B1367870098CB7300501033
:105090006FB04F90EFB2CF8D014521232945EF002E
:1050A000B0213565130505B2EF50B0790145EFE049
:1050B0009FD1EFD01FD20545EFF05FEB0545EF2004
:1050C000E06713051006EF20007D854719C5EFF056
:1050D000BFF70145EFF09FE981473E856FB08F8BA9
:1050E0000DCDEFB24F872A84AE8405458DC5328A37
:1050F00081452D4613059400B6893A89EFB0AF8BF0
:10510000854704C023224401230534012304F4000D
:10511000A308240101456FB04F8705458280EFB297
:105120002F859304F00F3DCDB5CD1C412A84BDCB16
:1051300083440501BDE80347A5005C4563D7E70646
:105140008347150113F9F70F6374F6001379F60F0F
:1051500085471307C400AF27F7005C4483479400DA
:105160000347A400850793F7F70F63E3E700814740
:1051700003451401A304F4004A86B307F50208406E
:105180003E95EFB0EF815C4091C703479400BA971A
:10519000238027018347A40058446345F7008547CF
:1051A0002308F40026856FA0FFFE8544E5BFEFA22B
:1051B0003FFC1309F00F41CDD9C91C412A84C1CB52
:1051C00003490501631809080347A5005C4563D33B
:1051D000E70883471501B2846365F600FD1793F471
:1051E000F70F85471307C400AF27F7005C448347D8
:1051F00094000347A400850793F7F70F63E3E700E4
:10520000814703471401A304F40026863307F702FD
:105210001C40BA972380D7008347140103479400AA
:105220000840B387E70285073E95EFA07FF75C4013
:1052300099C7034794008504BA9723809700834752
:10524000A40058446345F70085472308F4004A85C5
:105250006FA05FF40549E5BFAA8731C51841130562
:10526000F00F21C7D84719E3014582807D57938607
:10527000C7002FA7E600D84703C7870083C6A7004B
:1052800005071377F70F6363D70001472384E7000F
:1052900003C7070171DBD847B326D70093C61600B2
:1052A0002388D700D1B71305F00F8280EFA25FECFF
:1052B000056501118545110502C002C202C402C67E
:1052C00002C802CA02CC231E0100EF2040559307FA
:1052D00000082310F10037150140E1473EC48A85DC
:1052E0008D47130505803EC2EF10F07AB7C7040161
:1052F0003EC6B70700023ECA930700023ECC6C00D0
:105300009D4737350140231EF10002C8EF20805B26
:105310000546894537350140EF20406205616FA0A1
:105320007FE7EFA25FE379712A84AE8932898145F4
:105330001306C0024800B684EFA0FFE78545054587
:10534000EF20004C2285EF10502CC1473EC693073A
:1053500000083ECC930700103ECE4C0085672285A6
:105360004EC24AC426C83ED402CA02D002D202D6D5
:10537000EF10B03745616FA05FE1B7060001411142
:105380000147814793850182FD1661481376150018
:105390002E960346060005813316E600D18F0D07D1
:1053A000F58FE31507FF1395070141812394A19E13
:1053B000C1831375F50F9386819E2381A6002384F4
:1053C000F19E83D7819E42055D8D41018280EFA2CF
:1053D0009FD88D4AB3045503373400203285130417
:1053E00004092E8AB689EFF05FF993578500138977
:1053F000A4003309590322992300A9004181A30085
:10540000F9002301A9001389B40033095903B10439
:105410005285EFF09FF693578500B3845403229989
:105420002300A90041812301A9004E85A300F900B2
:10543000EFF0BFF49357850026942300A400418128
:10544000A300F4002301A4006FA03FD4EFA2DFCF9C
:10545000AA84373500201306301581451305050948
:10546000EFA07FD59387C17A03CA77001384C17AEE
:10547000E9EC63070A00814537850200EFC00F8A17
:1054800081448347A40063C4F4006FA07FCF13F569
:10549000F40F814601468145EFF07FF38504D5B7CF
:1054A00083C709001375F90F898BA5C7814601468B
:1054B0008145EFF0DFF105098347A400834B8400A9
:1054C000E340F9FE854791446393FB00B144834771
:1054D000940085EB372400201304042E8346A40493
:1054E00003469404834584042685EFF05FEE8346EB
:1054F0009405034684058345740513851400EFF075
:105500001FEDE3040AF8854537850200EFC00F81DF
:10551000ADBFB3875403CE9783C6970203C68702F5
:1055200083C57702EFF0BFEA63860B00638A6B01E5
:10553000850451B79327490093C71700BE94A5BFB0
:105540009307C9FF93B74700C5BFB729002081441F
:1055500001499389092E8D4A054BB9BFEFA25FC15E
:1055600037040240130504038145EF10901BB73741
:10557000002013050403938707095CC583C7617B7B
:105580000D478545B387E702D107B387E7025CC1C2
:10559000EF103019854537350140EF2040386FA0B6
:1055A0007FBFEFA2FFBC2A84EFF05FEA2285EFF015
:1055B000FFFA6FA03FBEEFA2BFBBEFF03FCF0945A0
:1055C000E52983C7617B0D478D46B387E7023736F0
:1055D0000020B73501403705024013060609B10522
:1055E00013050503D107B386D702EFF09FD3054516
:1055F000EFF03FFB01456FA0FFB9EFA2DFB503C499
:10560000417BB737002083C6A706930720037D148C
:10561000B386F602133414000A042285930414009E
:1056200093F6F60F3686B685EFF07FDAB7270020BF
:1056300003CA072E9389072E814613198A0113592D
:10564000894163440900930620033686B685268582
:10565000EFF0FFD783C6119E930720031305340094
:10566000B386F60293F6F60F3686B685EFF03FD690
:10567000634F090083C7419881E783C7319781EB66
:1056800081460146930520032685EFF05FD493778A
:105690000A020904814681EB83C7190093F70702C8
:1056A00085C793062003014681452285EFF03FD24E
:1056B00083C7C19081CB8146014693052003228593
:1056C000EFF0FFD06FA07FAC814613062003E9BF47
:1056D000EFA27FA803C4417B03C9C19E7D1413348C
:1056E00014000A0409C59357490033E927016308E8
:1056F000090281449149B357994033059400858B41
:105700001375F50F814601469305200391E381450A
:105710008504EFF0DFCBE39034FF6FA01FA7228555
:10572000930620031306200393052003EFF03FCADE
:10573000130514009306200313062003930520038A
:10574000EFF0FFC81305240093062003130620037F
:1057500093052003EFF0BFC7930620031306200331
:105760009305200313053400EFF07FC67DB7238631
:10577000A19E0547238EE180828003C7B19E630707
:10578000A700A385A19E0547238EE1808280EFA21A
:105790003F9E2A84752483A7419E1D8D9D4763FDEE
:1057A000A700792C83C7B19E23A2A19E81CBEFF0E5
:1057B000DFE40545EFF09FDA6FA0DF9D83C7C1816D
:1057C000E5DF2285EFF0DFF00545EFF03FD9238ECE
:1057D0000180DDB713050020EF10007A0DC113051D
:1057E0000010EF10A079370502408145130505032D
:1057F000EF102073814537350140EF2040127300D0
:105800002030411102C43717024002C61C43C16652
:1058100037060200D58F1CC3B716024015679C429D
:10582000F18F3EC6A24785073EC4B24781E7A24733
:10583000E397E7FEB71702409C4337070200F98F52
:10584000C9C385473EC632478547631EF706B7275B
:1058500002409843B706C1FFFD161367070198C3BE
:105860009843719B98C398431367270098C3B71751
:105870000240D843D8C3D843D8C3D843D8C3D843A9
:10588000758FD8C3D843B7061D00558FD8C398432A
:10589000B7060001558F98C3B70600029843758F6D
:1058A00075DFD843B7160240719BD8C3D84313673E
:1058B0002700D8C32147DC42B18BE39EE7FE4101BC
:1058C000828002C649B701A0B71702409843B706C5
:1058D000FFF81367170098C3D843758FD8C3984350
:1058E000B706F7FEFD16758F98C39843B706FCFF01
:1058F000FD16758F98C3D843B70681FFFD16758FC7
:10590000D8C337079F0098C76FF0BFEF3717024023
:105910005C43A146B18B6391D7065C435443416617
:10592000C983BD8BF18E890781EE3747024003277B
:105930000780418B19CB37177A001307072011A86E
:105940005843B7060200758F7DD737173D00130700
:105950000790B387E70237170240544337170020F8
:10596000130787279182BD8A369703470700B3D76D
:10597000E70023A2F1828280B7177A00938707207D
:10598000D9BF6FF01FE8854537050040EF20C020E4
:105990008547631CF50083A7819F85453705004037
:1059A000850723ACF19EEF20A02173002030EFA2E9
:1059B0002FFC0111930770043ECA4C089307703EF8
:1059C000370500403ECCEF10D078054685453705B9
:1059D0000040EF20A015854537050040EF20E0117D
:1059E0009307C0022316F10089472307F1006800DE
:1059F00085473EC8EF10D041996737E700E09387AD
:105A000067987CC3B207B706002CB183D58F7CD3CF
:105A100005616FA02FF803A7019F11E7054723A891
:105A2000E19E6FF0DFF8828083A7819F1307803E9D
:105A3000B387E70237070040035547023E9582804F
:105A400003A5819F828083A7418237177A001307BD
:105A50000720B3D7E702238AF19E828019E501452A
:105A60008280014541016FA0EFF2EFA26FF041117A
:105A70002A84AE843289EFF03FFB2AC62685029441
:105A80006DF1EFF07FFAB2471D8DE379A9FE26850F
:105A9000029413351500F9B7EFA28FED41112A8456
:105AA000EFF09FF82AC6EFF03FF8B2471D8DE37C78
:105AB000A4FE41016FA00FEE83A7819F41113EC656
:105AC00083A7819FB246958FE37CF5FE41018280DA
:105AD000034625009306350001471376F6079D45DA
