:100000006F50306B1300000013000000130000005D
:100010001300000013000000130000001300000094
:100020001300000013000000130000001300000084
:08003000130000007300100032
:100038006FF09FFC000000006F0060186F00A01AAE
:1000480000000000000000000000000000000000A8
:100058000000000000000000000000000000000098
:100068006F509064000000006F50106400000000A2
:100078006F5090636F5050636F5010636F50D06231
:100088006F5090626F5050626F5010626F50D06125
:100098006F5090616F5050616F5010616F50D06019
:1000A8006F5090606F40505A6F5010606F50D05F23
:1000B8006F50905F6F50505F6F50105F00000000EE
:1000C8000000000000000000000000006F50D05D3C
:1000D8006F50905D6F50505D6F50105D6F50D05CE9
:1000E8006F40B06D6F10507A6F5090566F50D05B64
:1000F8006F50905B6F50505B6F20801C6F50D05AD0
:100108006F50905A6F50505A6F50105A6F50D059C4
:100118006F5090596F5050596F5010596F00202AE6
:1001280000000000000000000000000000000000C7
:080138000000000000000000BF
:10014000397101436EC619A0397141536AC866CA34
:1001500062CC5ECE19A0397101535AD056D252D416
:100160004ED64AD826DA22DC06DE3301614082828E
:1001700041114AC026C222C406C68282B24D410144
:10018000024D924C224CB24B4101024B924A224A00
:10019000B2494101024992442244B2404101828065
:1001A0002A8309CA83830500230073007D16050393
:1001B00085056DFA82802A8311C62300B3007D165F
:1001C000050365FE82800145EF401040371702406D
:1001D0001C47B7068000D58F1CC7EF40505E37E73D
:1001E00000E03C4793E787003CC773002030411193
:1001F000014522C626C4EF40303DF327203423A614
:10020000F1887327103483A6C188B73500209387FF
:10021000859A13D686002380D704A380C70413D6FB
:100220000601E182A381D704935687002381C70486
:100230002382E704A382D70423A4E188935607010D
:100240001306800461839385859A01452383D7042F
:10025000A383E704EF00F05D83A7C18863CF0700A5
:100260000D476387E7026375F700F1176367F700CF
:1002700083A7818891077390173437E700E03C47E4
:100280003244A24493E707023CC741017300203087
:1002900001A0EFF2FFED11458545EF601011B74762
:1002A000024093870780984301451367470098C32E
:1002B00003A74181B7A74A04938707206309F70082
:1002C000B777DC02938707C06315F7000545EF6039
:1002D000407C85450565EF60700B6DBD373702408A
:1002E000930700FC2306F740B73700209387C78E9B
:1002F000C207C1832318F740B73700209387C7860A
:1003000023A4F1A0C207C183231AF7408947230918
:10031000F742230BF74293870189A380070082806D
:10032000EFF21FE5B7470240938707809843ADE996
:100330001367870098C33734024099472300F4407D
:1003400035C12945EF40F0589D4723000440230163
:10035000F440930790022300F4404937930710F8C4
:10036000A300F4409306000461469385410613857B
:100370004173EF40A069B725002093060004614651
:100380009385C5AC1385416AEF404068B7E700E04C
:100390004147A38DE7423707000823A2E710DDBBE2
:1003A0005D9B49BF2945EF40D052B7E700E02300ED
:1003B0000440B843C146B4C3370600089386071803
:1003C000D0C2B8C3E9BF011122CE26CC4ACA4EC85A
:1003D00052C656C4373402400347644083477440D2
:1003E0009376F70F098B630B075E93F7F70F13F7FD
:1003F0000703930500026303B70493060003630435
:10040000D71829E713F7F703630307128546631F1D
:10041000D70293F707049DCB83476443814693C774
:100420000708230BF4420356844083A581A013766A
:10043000F60F1385416AEF40C06109A893F7F703EF
:100440006384E702130710026380E70CB7370240AA
:1004500009472383E7407244E2445249C249324A81
:10046000A24A05617300203083D7E18999E7834769
:10047000244393F7370F2309F44283C7418A93F744
:100480000706E9F783C7518A954613F7F70F63818B
:10049000D7069947E31CF7FA03D7E1899307F003DE
:1004A0001304000463E6E70003D4E18942044180B9
:1004B00003A9818A373500202286CA851305C58E97
:1004C000C53183D7E189229923A4218B818FC2076B
:1004D000C183239FF1881374F40FB7370240238838
:1004E000874203C72743134707042389E742B9BF5D
:1004F000B736024003C7364083C7C1891377070860
:10050000D98FA381F64099B78347644393F7C70F08
:1005100093E72700230BF4428347644393C7070400
:10052000230BF44293870189A380070005B793F753
:100530000704E38D07F083C7418A93F70706E38733
:1005400007F083C7418A93F70706E391B7F003C723
:10055000518AA547E31CF7EEB73500203745002048
:10056000130600049385C58E1305C5331539054759
:10057000238EE19E8347244393F7C70F93E7270019
:100580002309F442E1B59307A0FC37350020230985
:10059000F4421307C58E834707002382F18A8347FD
:1005A000170083562700A382F18A83576700239F91
:1005B000F1882391D18A835647002390D18A03C9B9
:1005C000418A9306C58E137909066309090C83C70E
:1005D000418A93F70706639EB70283C7518A29466B
:1005E000FD1793F7F70F6363F6182D668A07130656
:1005F000C649B2979C43828783D7018A63980716BE
:10060000B7450020130600049385C5331305C58E36
:10061000413E83C7418AE207E18763DE073803D79B
:10062000E1899307000463E6E70083D7E189C20705
:10063000C18303D7E1891D8F42074183239FE1884E
:1006400093F7F70F373702402308F74283472743D2
:1006500093F7C70F2309F742D5BB83D7018A639766
:10066000071003C73600A38CE18865B783D7018ADA
:10067000639E070E03C72600238CE18859BF83D7EA
:10068000018A6395070E83C791892380F60051B7CD
:1006900083D7018AE1EF83C78189C5BF83C5518AAA
:1006A0002D4813F6F50F6363B80CAD650A06938504
:1006B000854C2E961042028683D6218A0D46A18251
:1006C0006386C60C636CD6008547638CF602894747
:1006D0006381F60481471309F00F81A89307100284
:1006E000638BF60893072002E396F6FE83D7018A10
:1006F000F5F3AD679387075F23A4F18A9307F00DA5
:100700002DA0AD679387076D23A4F18A83C70700E7
:1007100029A8B72700209387878023A4F18A03C7DD
:10072000270083C73700A207D98F03D7E18963F475
:10073000E700239FF18803D7E1899307F003130AA9
:10074000000463E7E70003DAE189420A135A0A0169
:1007500083AA818A52861305C58ED6859134D29A92
:1007600023A4518B9307F00FE315F9EAB737024042
:100770001307F0FC9DBB83D7018AA9FFB727002090
:100780009387A78123A4F18AA54745B783D7218AF8
:10079000094793F7F70F6387E702636BF70099EF59
:1007A0009387018823A4F18A014983C70700B5BF55
:1007B000E392D7F2AD679387075AB9B7AD679387CE
:1007C000475E99B7AD679387875B3DBF83D7218A23
:1007D00093F7F70F238EF1882DBD83C7D18923802E
:1007E000F60003D7E1898547E3F5E7E2239FF18827
:1007F0000DB583D7218A93F7F70FA38EF1880547AC
:10080000238DE18839B583C6418AFD8A99EE83D765
:10081000218A054793F7F70FE39DE7DE83C7B18988
:1008200093F7E70FA38DF188EDB383C6418A09469C
:10083000FD8AE39DC6F283D7218A93F7F70F9DF7D0
:1008400083D7018A054793F7F70F6381E702130700
:100850002008E39DE7F0373702408347A74393F72B
:10086000C70B93E72700230DF74265B337370240E4
:100870008347674393F73707230BF7428347674361
:1008800093F7C70B93E72700230BF74259B383C6AF
:10089000418AFD8A8DE683D7218A054793F7F70FB2
:1008A000E396E7ECB727002083C7F78093F70702AA
:1008B000E38E07EA83C7B18993E71700A5B783C61C
:1008C000418A0946FD8AE393C6EA83D7218A93F7D2
:1008D000F70FE39D07E883D7018A1307100893F702
:1008E000F70F638FE70013072008E391E7E8373736
:1008F00002408347A74393F7C70B93E73700A5B799
:10090000373702408347674393F7370793E7C700BA
:10091000230BF7428347674393F7C70B93E73700EF
:10092000A5B72380060075BD83C7418A2316058EAF
:10093000FD8B99EB83C7B189858BBDC38947238024
:10094000F60003D7E1894DB583C7418A0946FD8B7F
:10095000639CC70403D7018A130610081377F70FA7
:10096000630DC700130620086305C70203D7E1899A
:10097000E3FEE7DE239FF188D5BB3737024003470C
:1009800067433146318BE31EC7FA05472380E600F3
:100990004DBF373702400347A7430D460D8BE5B7E0
:1009A00003D7E189894789B583D7E189E370F6DC0C
:1009B000239FC18865BB83D7E18991EBB73702409C
:1009C0002388074203C727431377C70F39BE37373A
:1009D00002408347274393F7370FADB993F71600CB
:1009E0009DC3A38E0188238E0188A38D0188238D4A
:1009F0000188A3010440DD308347644093E717007A
:100A00002303F44089BC93F746009DCB9147230311
:100A1000F4402945EF40E06B03475440118B11CB64
:100A200003C7B18913672700A38DE18883C7B18904
:100A30001DB403C7B1891377D70FA38DE18821BCFB
:100A40002303D44009BCEFF2AFF237070001AA87B5
:100A5000130707F07D8FA1662E856303D702BD665D
:100A60006307D7029966631BD700B735002093F759
:100A7000F70F9385059FBE95EFF08FF26FF08FF122
:100A8000B735002093F7F70F9385859AEDB7B73503
:100A9000002093F7F70F9385C592F1BFB73500207B
:100AA0001306C0079385C5920545E1ABB735002015
:100AB0001306C0079385C5920545A5ABEFF24FEB32
:100AC00003A4C18A25C013060008FD552285B7344A
:100AD00000209384049FEFF00FEE6146938504029B
:100AE00013054400EFF0CFEB49469385D40313057B
:100AF000C401EFF0EFEA3546938504051305E402DF
:100B0000EFF00FEA6146938504081305B403EFF094
:100B10002FE949469385840913053405EFF04FE822
:100B2000230004006FF00FE7EFF28FE403A5C18A02
:100B300071370945B1236FF0EFE5EFF26FE3B707C7
:100B40000001938707F0E98F21676384E7023D671F
:100B50006381E70419676397E704B7370020938739
:100B6000079F1375F50F3E95EFF08FE3753F6FF01C
:100B70006FE2373400209307849A1375F50F3E9582
:100B8000EFF00FE2130680049305849A0145552186
:100B9000F9BFB73700201375F50F9387C7923E95BD
:100BA000EFF00FE00145E1B7EFF2EFDA03A4C18AFD
:100BB00063040420834704009309C4011309340526
:100BC0006381071A930740FCA30EF4009307C00447
:100BD0001307C0FC230FF4002302F402930700F86C
:100BE000230EE4002301E402A300F402130740FCF7
:100BF000A147A301E4022300F4022546CE85A30FFA
:100C0000040013055402EFF0AFD993072003230724
:100C1000F4022308F402930700032301F40493076A
:100C20001006A301F4049307E0FA2302F4049307E7
:100C300000F9A302F404930790FD2303F40493073F
:100C400040FDA303F404D1472304F40493074005B3
:100C5000A304F4042306F404930770FCA306F4042D
:100C6000930790072307F4049307C0F913071003B1
:100C7000A307F40493073003A307E4022308F40452
:100C80001307100493076003FD543D4A2305E40451
:100C9000A308F404554793073006A305E404230989
:100CA000F404A308940223099402A3099402A30064
:100CB00044054946930514044A85EFF06FCE930727
:100CC000B0052302F4009307B0F82303F400930760
:100CD00060F92304F4008547A304F400930700049B
:100CE000A305F400A306F400A307F400F5472308C6
:100CF000F4009307E0FB2309F400B957230AF4003A
:100D000093074003A30BF400A30CF400A30DF4001D
:100D100093070005A30DF402F5571307B003230E44
:100D2000F402930760FCA3020400A30394002305CC
:100D300004002306040023070400A3080400A309F9
:100D40009400A30A9400230BE400230CE400230D79
:100D5000E400A30E0402230F0402A30FF4022300F5
:100D60004405B73400209384049F614693054400F2
:100D700013850402EFF0CFC24946CE851385D40314
:100D8000EFF00FC235469305E40213850405EFF03A
:100D90002FC161469305B40313850408EFF04FC0DB
:100DA0004946CA8513858409EFF08FBF8347040045
:100DB00081C7230004008D3B6FF02FBDEFF24FBBC6
:100DC00083A5C18A130650060945652C03A5C18A6F
:100DD000E13B6FF02FBCEFF2AFB90545373400208F
:100DE000EF30907E1304C49203459401EF90000A03
:100DF00083A58186EF80005823ACA1960345A4010A
:100E0000EF90C00883A58186EF80C05623AAA196E3
:100E10000345B401EF90800783A58186EF8080555C
:100E2000544423A8A19693D78600C207C183B387F1
:100E3000F7021387018BE1821CC383470401A207D9
:100E4000D58FB387F7025CC31D21EF4010076FF009
:100E50006FB4EFF2EFB1373400201306100BFD55DD
:100E60001305049FEFF02FB5392423A6A18AB937C3
:100E70009307049F130700F82380E70069770D07A5
:100E8000373400202399E7001306800405479305B3
:100E9000849A0145A38DE700ED229307849A03C746
:100EA000070015C32147A38007002381E700A38122
:100EB00007002382E700A38207002383E700A383C0
:100EC00007002384E700B73400201306C007FD5550
:100ED0001385C492EFF02FAED13683C7C49213842A
:100EE000C492858BF1C71306C00781451385C49250
:100EF000EFF06FAC37350020A14711469305800312
:100F000013053593A300F4002301F400EFF0AFAA1A
:100F1000373500201146930500081305F592EFF0D0
:100F20008FA9B737002019679387A794130707067F
:100F30002391E7002390E70095472307F400230857
:100F4000F4008967938717B02311F402930760FDBB
:100F500013078007A305F4009947A306E400A3073D
:100F6000E4002306F40001478D45FD566D46B307A6
:100F7000B7020507A2972382D702A382D702238351
:100F8000D702E316C7FE9307F007A30CF400E1773E
:100F900093C7F7F7231DF4008947230EF400930746
:100FA00040FDA308F400930700032309F400FD3C6F
:100FB0001D3503472400B727002093878780A3802F
:100FC000E702034714003745002019462384E7024F
:100FD000930534011305A5B9EFF08F9C6FF08F9B3B
:100FE0008D4763E5A704EFF2AF98B707100093872A
:100FF000071E3E9513147500930500082285EF50D7
:10100000A0431147AA848947631FE500B735002034
:1010100013060008938545AA2285EF5080538D471B
:101020006313950081473E856FF0CF9685473E85D7
:1010300082809DCDEFF22F92930700082A89B28417
:101040001305E00F63E4C702B73900202E841306AE
:1010500000088145138549AAEFF0EF952686A28501
:10106000138549AAEFF0CF934A859D3F6FF0EF912A
:101070001305F00F828037350020130545AA8280C2
:1010800085B70D47AA87636BA7022E851307F00F5C
:101090009DC5930500081307E00F63E2C502EFF258
:1010A0002F8D370710001307071EBA979395770007
:1010B000EFF00F8F01473A856FF0CF8D05473A85E6
:1010C0008280AA872E8563D3B7003E858280EFF2A7
:1010D0002F8A4111AA8511466800EFF06F8C3245C6
:1010E00041016FF02F8BAA872E8563C6B7003E851E
:1010F0006353F60032858280EFF28F877971614603
:1011000081452808EFF02F8B014502C602C802CAAC
:10111000EF50701A371501409307A0036C001305B8
:101120000580372401402316F10002CAEF50005415
:1011300013050440EF40D05F85473ECE3ED0B70751
:101140000E003ED22C089147130504402306F102FD
:1011500002CC02D4EF407060854513050440EF4097
:10116000D065854513050440EF4030641305044005
:10117000EF40D065930404402685EF40D0656DFDB7
:101180001305044037240140EF4070659304044088
:101190002685EF4070656DFD13050440EF405072E9
:1011A000239CA18A45616FE0FFFEEFE2DFFA7971CF
:1011B0002A84AE89328981451306C0024800B6846C
:1011C000EFE07FFF2285EF50C007930700083ECC79
:1011D000930700103ECE930700403ED093070002D5
:1011E0003ED24C008D6722854EC24AC426C83ED4EA
:1011F00002C602CA02D6EF50C01245616FE0FFF886
:10120000EFE21FF7D53D37240140B70402409305B4
:10121000C4441385840091461386C18B7937130526
:1012200004409D4605468545EF40105E1305044089
:101230009D4609469545EF40305D130504409D46A7
:101240000D468D45EF40505C9D4611461305044008
:101250009145EF40705B138584008545EF50E00FAA
:10126000854513050440EF40B0586FE0BFF2C166FA
:1012700037370020930747B213860610D0D713865E
:10128000160093860604D4C3B716020094C3B706AB
:10129000020013858600E8C313850602A8C36165B2
:1012A000E8C713850601A8C713850620A8CF3725F0
:1012B000040088CF13850610E8CF37450400C8CF57
:1012C0001385060488D33785040090D7C8D3938646
:1012D00006083785020037260200B745020088DB82
:1012E000D4DBD0C78CC7B737002083C6C79293071B
:1012F00047B213F5060119C1CCC790C713F7860092
:1013000001CB37170200D8C341671307070498C3FE
:10131000918A89CA23A2070423A0070423A60704ED
:1013200023A407048280EFE2BFE4411189379307C9
:1013300080043EC6B7370020138447B202C202C4FD
:1013400093040406938747B281460147C1659043E1
:101350003375B60009C5518F420741838546910711
:10136000E39797FE99C22312E100371501404C0024
:1013700013050580EF50802F22872312010081463C
:101380008147B705020010433375B60009C5D18FF8
:10139000C207C18385461107E31797FE99C223123E
:1013A000F100371501404C00130505C0EF50002C2B
:1013B0000147231201008147370604001440B3F5AA
:1013C000C60089C5D58FC207C18305471104E3173D
:1013D00094FE19C32312F1004C0037150140EF5061
:1013E000E02841016FE01FDBEFE21FD63719014013
:1013F00037340020130B09C0130444B281448149DF
:10140000370A0700B70A0200B70B0400416C130942
:1014100009800C40B3F74501638A5703638C770357
:10142000054563978701C205C1814A85EF50E02FCA
:101430001335150033159500E1478504B3E9A9007C
:101440001104E398F4FC4E856FE09FD3C205C1817F
:101450005A85E9BFC205C18137150140C1BFEFE21E
:101460003FD1B7070700E98F37070200AA856384D9
:10147000E702370704006388E70241670545639A7E
:10148000E700C20537150140C18113050580EF5003
:10149000C0296FE03FD09315050137150140C18188
:1014A000130505C0EDB793150501C181371501403E
:1014B000F9BFEFE2FFCB79712A848545314502CA35
:1014C00002CC02CE02D002D202D402D602C402C69C
:1014D00023180100EF50606D631004128545094523
:1014E000EF50806E3715014061478D474C0813055A
:1014F00005C03ACE37040040231AF1003ECCEF502D
:10150000E0169307005A2C00130504403EC602C49F
:10151000EF50007A0546854513050440EF50701FD3
:10152000C167938707060C10130504403ED02313B0
:10153000010223140102EF50207F0C101305044018
:10154000EF5010070C1013050440EF507011854543
:1015500013050440EF50901AA14513050440EF50C5
:10156000901EA14513050440EF50101FA14513051F
:101570000440EF501020A14513050440EF50902087
:10158000814513050440EF50301A9305002D1305D3
:101590000440EF50D0209305002D13050440EF5078
:1015A00070209305002D13050440EF501020930583
:1015B000002D13050440EF50B01FEF00F004930717
:1015C000D0122310F10099472301F1000A858547C5
:1015D0003EC2EF50E03D89679387070937E700E097
:1015E0007CC3B207B183B706002DD58F3CD78545A4
:1015F00013050440EF50D00E45616FE0BFB9AA85D6
:1016000037050040130505406F50900D2A883A8534
:101610000947630AE8000D47630EE8003285630559
:1016200008023685828063C1A5022E8563DCB7007F
:101630003E8509A82E96420641866347A60032855C
:10164000E3C8C7FE42054185828019473305E5029C
:10165000B7070020938707002E86014781463E95F5
:1016600083152500034505009307001045B719476A
:101670003305E502B7070020938707002E8613077E
:10168000000C930600103E95831545000345150098
:1016900093070014A5BF1387018D1443B7370020AB
:1016A00058430E05938747B8AA9794C3D8C382803E
:1016B000EFE21FAC834435001384018D83150400D1
:1016C0008580FD882A8926854937831524002310C3
:1016D000A4002685693F8344390083472900831588
:1016E0004400858891839204DD8C2311A400268513
:1016F000A93F831564002312A40026858D3F231380
:10170000A4000145493F0547A38CE18C6FE09FA8E9
:10171000EFE21FA603473500834725003706002068
:101720001377F70393D677000607558F93151700A5
:101730009306061CAE96839506001306061C239896
:10174000B18C9386018D89C5B725002023A6E58A33
:101750003707002093F7F7071307070C8607BA9798
:1017600083D707002391F6008347150093F7E70F0F
:101770003E9683570600034605002392F6008347F2
:10178000150009820145858B9A07D18F86073E9700
:10179000835707002393F600FD3D0547A38CE18C9A
:1017A0006FE05F9FEFE2DF9C8347350083462500B3
:1017B0000347050093F7F7039D82860713764700DA
:1017C000D58F058BAA841384018D86076309070CC6
:1017D000630D060A370700201307070CBA9783D753
:1017E00007002313F40001457D3503C92400831548
:1017F0000400135929001379F9014A85B935831575
:1018000024002310A4004A859D3503C9240083C702
:101810001400831544001379390095830E09336948
:10182000F9002311A4004A850D35831564002312A5
:10183000A4004A852D3D2313A4000545A93D03C9F5
:101840001400831504001379F9014A85FD3B8315C3
:1018500024002310A4004A85193D83C40400831585
:1018600044002311A4008D802685C53383156400B0
:101870002312A4002685E53B2313A4000945213D3E
:101880000D47A38CE18C6FE0FF9037070020130712
:10189000071CBA9783D707002312F400A9B719CA07
:1018A000370700201307070CBA9783D707002311C7
:1018B000F40015BF370700201307071CBA9783D71A
:1018C00007002310F40005B7EFE29F8A03493500B3
:1018D0001384018D83150400135919001379F9013C
:1018E000AA844A859D33831524002310A4004A85C9
:1018F000BD3B03C9340083C724008315440013791A
:101900001900918312093369F9002311A4004A8553
:101910002D3B831564002312A4004A85893B2313C1
:10192000A40001458D3B03C9240083C7140083151F
:1019300004001379F9009D8306093369F9004A858B
:101940002933831524002310A4004A850D3383C452
:101950001400831544002311A4008980FD88268586
:10196000ED31831564002312A40026850933231367
:10197000A40005450D330947A38CE18C6FE09F81DE
:10198000EFE20FFF8347350083442500370700202F
:1019900093F7F70393D674008607D58F1307071CB8
:1019A0008607BA970347050083960700B70700200C
:1019B0001376E70F9387070CB2978980058B83977F
:1019C00007002A89FD881384018D49C78315040007
:1019D00026852312D4002313F400EFF01FC78315CC
:1019E00024002310A4002685EFF07FC82311A40053
:1019F0000145EFF05FCA834429008347190083152E
:101A000004008D8895838E04DD8C2685EFF0FFC35E
:101A1000831524002310A4002685EFF05FC58344BE
:101A20001900831544002311A400FD882685EFF0DA
:101A3000DFC1831564002312A4002685EFF03FC3A5
:101A40002313A4000545EFF01FC50947A38CE18CC3
:101A50006FE04FF48315440026852310D400231132
:101A6000F400EFF09FBE831564002312A4002685C6
:101A7000EFF0FFBF2313A400A5BFEFE26FEF034910
:101A800035001384018D831504001359190013794F
:101A9000F901AA844A85EFF05FBB83152400231067
:101AA000A4004A85EFF0BFBC03C9340083C72400FB
:101AB0008315440013791900918312093369F900E1
:101AC0002311A4004A85EFF05FB883156400231248
:101AD000A4004A85EFF0BFB92313A4000145EFF03D
:101AE0009FBB03C9240083C7140083150400137926
:101AF000F9009D8306093369F9004A85EFF0FFB4C8
:101B0000831524002310A4004A85EFF05FB603C9B3
:101B10001400831544002311A400135929001379DC
:101B2000F9014A85EFF07FB2831564002312A40007
:101B30004A85EFF0DFB32313A4000545EFF0BFB5EE
:101B400003C9140083C70400831504001379390006
:101B500095830E093369F9004A85EFF01FAF8315AD
:101B600024002310A4004A85EFF07FB083C4040052
:101B7000831544002311A400FD882685EFF0FFACF7
:101B8000831564002312A4002685EFF05FAE2313B3
:101B9000A4000945EFF03FB00D47A38CE18C6FE046
:101BA0006FDFEFE2EFD903473500238C018CA38C64
:101BB000018C198389462E84630ED70E8D466309E6
:101BC000D71085466310D7020347150083472500C9
:101BD000834605002207BD8B558FC207D98FF9E3D5
:101BE000EFF01FAD03C5918D0D468145B734002040
:101BF000EFF06FCF370C0020B73C0020938B44B838
:101C0000A38CA18C014D938444B8938A818C130CCE
:101C10000C2C938CCC92930D001437992F50A5491E
:101C200083C7918D6348FD0A834734000547238CA1
:101C3000E18CA38C018C998389466387D7128D46EA
:101C40006383D7146392E702034714008347240099
:101C5000834604002207BD8B558FC207D98F639C32
:101C6000070E2285EFF0DFA403C5918D0D46814557
:101C7000EFF06FC7B70A0020373B0020A38CA18C80
:101C8000814B1384818C938A0A2C130BCB92130CF7
:101C9000001437992F50A54983C7918D63C9FB0E56
:101CA0006FE0CFCD8D8A81E6EFF09FA625BFEFF0E4
:101CB0007FAF0DBF83471500034705008D8BA2073B
:101CC000D98F81E7EFF05FC031BFEFF07FCB19BF55
:101CD0006D3309BF03974B0083C73C0081460A0759
:101CE000629718434A85CE85B387E702050DA10B9D
:101CF000AD8323A2FA008397EBFF8A07E297904314
:101D00003386CD020506EF50005623A0AA00D685E3
:101D10000145A52A03978BFF83C75C001306000AC1
:101D20000A076297184381464A85B387E702CE8542
:101D3000AD8323A2FA008397ABFF8A07E2979C4307
:101D40003306F6020506EF50005223A0AA00D685FE
:101D50000945252AF1B58D8A228581E6EFF05F9B42
:101D600021B7EFF03FA409B78347140003470400ED
:101D700022858D8BA207D98F81E7EFF0FFB4EDB5F7
:101D8000EFF01FC0D5B52285EFF03FCFF1BD03972F
:101D9000440083474B0081460A07569718434A85FB
:101DA000CE85B387E702850BA104AD835CC0839722
:101DB000E4FF8A07D69790433306CC020506EF501E
:101DC000804A08C0A2850545C920039784FF834740
:101DD0006B001306000A0A075697184381464A8586
:101DE000B387E702CE85AD835CC08397A4FF8A07E3
:101DF000D6979C433306F6020506EF50C04608C04E
:101E0000A2850D45592049BDEFE28FB6B7350020B8
:101E100037350020A146130600049385C519130524
:101E2000C554EF20B03EB735002037350020A1461D
:101E3000130600049385C5F91305C54BEF20103D2B
:101E4000B735002037350020A146130600049385DE
:101E5000C5D91305C542EF20703BB7350020373593
:101E60000020A146130600049385C5B91305C539A2
:101E7000EF20D03985472384F190A384F190238506
:101E8000F190A385F1906FE0EFB0A1CDEFE24FAEFE
:101E900089476303F50263ECA70015E53735002099
:101EA000814621461305C554EF20B03A21A08D4745
:101EB0006302F5026FE00FAE373500208146214600
:101EC0001305C54BD5B7373500208146214613058C
:101ED000C542D9BF37350020814621461305C53993
:101EE000E1B78280EFE2CFA883C7B1909DCF3735AD
:101EF00000209307C55483A6870885CA83C747086F
:101F0000B73600209386C6198E07B6979443DC43F4
:101F1000A3850190138781921305C5545CC314C334
:101F2000EF20B03C0547A387E19083C7A1909DCFE8
:101F3000373500209307C54B83A6870885CA83C71A
:101F40004708B73600209386C6F98E07B6979443A4
:101F5000DC4323850190138701921305C54B5CC3B5
:101F600014C3EF20903805472387E19083C79190F1
:101F70009DCF373500209307C54283A6870885CAC1
:101F800083C74708B73600209386C6D98E07B69711
:101F90009443DC43A3840190138781911305C542C8
:101FA0005CC314C3EF2070340547A386E19083C758
:101FB00081909DCF373500209307C53983A68708C8
:101FC00085CA83C74708B73600209386C6B98E07EF
:101FD000B6979443DC432384019013870191130542
:101FE000C5395CC314C3EF20503005472386E19008
:101FF0006FE04F9A15CE9841E1679387076A3E9745
:1020000098C16374C70001458280B356C7028357E5
:1020100005003377C702B697C207C1832310F500C6
:1020200098C113D7B70065D393F7F77F2310F50056
:1020300005458280EFE2CF93B737002083C7C79270
:102040002A87368493F707042E855443B28595C3B7
:10205000854781CE1043793F814701C983A7C18D50
:10206000818F93B7A70F93C7170013F5F70F6FE092
:102070006F9299EA03A5C18D018D1335A50F134504
:1020800015001375F50FE5B71043AD3765F5D5BFEE
:1020900037050040797185451305054022D626D4C1
:1020A0004AD24ED052CE56CC5ACA5EC862C666C418
:1020B0006AC2EF40107185476310F51C03A4C18DFF
:1020C00083A6C18EAA840504138581941386C18FCB
:1020D0009385619023AE818CB13F138A819415C59D
:1020E00003C7F1901DC3A387019093878192984302
:1020F000DC43239301902320EA002322FA0023AE3D
:10210000018EA385919023A6818E83A6818E13854F
:1021100001941386818F93854190293F938901947F
:102120001DC503C7E19005C72387019093870192DE
:102130009843DC432392019023A0E90023A2F900F5
:10214000054723AC018E2385E19023A4818E83A6CD
:10215000418E138581931386418F93852190D93DBC
:10216000138981931DC503C7D19005C7A38601902C
:10217000938781919843DC43239101902320E900C8
:102180002322F900054723AA018EA384E19023A20C
:10219000818E83A6018E138501931386018F93850B
:1021A0000190493D938401930DC503C7C19015C3A8
:1021B00023860190938701919843DC4323900190FB
:1021C00098C0DCC0054723A8018E2384E19023A09A
:1021D000818E83D76190370400201304047C860726
:1021E000A2970395070083274A0003A74900130A13
:1021F000002D3305F50283D741901306005A81451F
:102200008607A29783970700B70900409389094082
:10221000B387E7023E953305450351851305052D28
:10222000EFE07FEC42054181239EA90283D72190F4
:10223000D84081458607A297039507008327490068
:102240001306005A3305F50283D7019086073E94A2
:1022500083170400B387E7023E9533054503518594
:102260001305052DEFE03FE8420541812390A904C5
:1022700085454E85EF40B0563254A25412598259CA
:10228000724AE24A524BC24B324CA24C124D45614B
:1022900073002030EFD2DFEDAA85376500401305CB
:1022A0000580EF40C06C133515006FD0BFEEEFD244
:1022B0003FECAA853765004013050580EF40806933
:1022C0001375F50F6FD01FED3767004083574781B7
:1022D00013070780A183A388F19483574701C2079E
:1022E000C18393F707F0C207C183231AF700730075
:1022F0002030EFD25FE6376500404111814513057C
:102300000580EF40005837140140930700400D4905
:10231000D1494C00130504C03EC24AC44EC6856470
:10232000EF40C034938404804C00130504C04EC6B3
:102330004AC423129100EF40603393050040130517
:1023400004C0EF40803FA685130504C0EF40A03EC7
:102350000545EF20105893050040130504C0EF40D9
:10236000803D0545EF20F056A685130504C0EF40DB
:10237000C03C0545EF20F055A949130A04C0056982
:10238000930500405285EF40403BA6855285EF40C3
:10239000803A0545EF20F053930500405285EF4009
:1023A00080390545FD19EF20D052E39B09FC130548
:1023B00004C093050040EF404038930509801305A1
:1023C00004C0EF4080370545EF20B0509305004032
:1023D000130504C0EF4020360545EF20904F9305CC
:1023E0000980130504C0EF4000350545EF20704E0D
:1023F00091474C00130504C03EC6EF4020279305CB
:102400000980130504C0EF40403241016FD0FFD76F
:10241000EFD21FD637640040814513050480A3899D
:102420000194EF40004613050480EF404031EFF087
:102430005FEC83C711955D8D1375F50F01C93735B5
:102440000C0001468145130505502920EF207041FD
:102450006FD05FD4EFD23FD00111AE842A89854579
:102460002545328402C202C402C602C802CA02CC96
:1024700002CEEF408073854537054000EF40C074C1
:10248000371A014093090040714B8D4A4C001305E7
:102490000AC0231231015AC656C4EF40201D856779
:1024A000938707804C0013050AC02312F1005AC617
:1024B00056C4EF40A01BB7070040231C9100B7642F
:1024C00000403ECA0C08916713850480231EF1006A
:1024D0004AC8231D3101EF40A0298545138504809A
:1024E000EF40203A09651306800CB705020013057A
:1024F0004529EF20503A09C909C88545138504804C
:10250000EF408041EFF0DFF00544A389819405613D
:102510006FD0BFC783C73195638C0712EFD2BFC39B
:1025200037640040AA8A2E8A130504808545EF404F
:10253000C03A09651306800CB7050200130545294A
:10254000EF20703583C711951375F50FC98F91C7AB
:1025500005472389E1946FD05FC385451305048047
:10256000EF40E033B709030009691306800C938537
:1025700019001305E92AEF20103283C7119513754E
:10258000F50FC98F99C30947E9B701469305400D77
:1025900013050480EF404037370B07001306800C0B
:1025A00093052B081305E92AEF20F02E83C7119518
:1025B0001375F50FC98F99C30D4761BFD6851305F4
:1025C0000480EF4060331306800C93054B0813051D
:1025D000E92AEF20502C83C711951375F50FC98F89
:1025E00099C31147BDB7D28513050480EF40E02E93
:1025F000854513050480EF40802A1306800C9385DF
:1026000019001305E92AEF20102983C711951375C6
:10261000F50FC98F99C315472DBF05469305400D8A
:1026200013050480EF40402E1306800C938529008B
:102630001305E92AEF2030269377F50F03C511958E
:102640005D8DE30A05F099462389D1943E8521B733
:1026500005458280EFD23FB02E891375F50F814575
:10266000EFF05FEB83C711952388A1945D8D1DE585
:10267000B705030009651306800C9385050413054F
:10268000E52AEF20502183C711951375F50F238894
:10269000A1945D8D19C525472389E194EFF05FD79B
:1026A00025A0B769004013850980EF40402523002D
:1026B000A900854513850980EF40402083C7019517
:1026C00003C71195D98FF9FB03C50195B7370020D2
:1026D0002389A79A6FD07FABEFD21FA785476316D8
:1026E000F600EFF03FF76FD0BFA92E898545328401
:1026F000EFF05FE2AA8435E17D14370A0300856AB2
:10270000B76900401374F40F130A0A04896B938AA3
:102710000A80938909809307F00F6303F40213067C
:10272000800CD2851385EB2AEF20F01683C7119514
:102730001375F50FC98F95C71D472389E194AA84A6
:1027400037650040130505808545EF40201783C796
:102750001195C58F13F5F70F59D5EFF07FCB26856F
:1027600059B785476316F400D6854E85EF40201C87
:102770004E85EF40C0187D142300A9001374F40F98
:10278000050951BF83C7319591E38280EFD2BF9C89
:10279000AA8A09654111AE891306800CB7050200AB
:1027A00013054529EF20300F83C711951375F50FD9
:1027B000C98F8DC329472389E19483C71195C98F98
:1027C00093F7F70F89C72AC6EFF09FC4324541013E
:1027D0006FD0BF9B37690040854513050980EF40E6
:1027E000000CB7050300096A1306800C8505130564
:1027F000EA2AEF20500A83C711951375F50FC98F88
:1028000099C32D474DBF01469305400D130509801F
:10281000EF40800F370B07001306800C93052B0841
:102820001305EA2AEF20300783C711951375F50FBA
:10283000C98F99C3314741B7D68513050980EF4049
:10284000A00B1306800C93054B081305EA2AEF2012
:10285000900483C711951375F50FC98F99C3354738
:1028600099BFCE8513050980EF4000091306800C3F
:1028700093054B081305EA2AEF20F00183C7119551
:102880001375F50FC98F99C3394735B713050980FB
:102890008545EF40A00201450DB737350C000546D0
:1028A0008145130505506FF0FFBAEFD27F8C4111BF
:1028B0002E849305F1002A89B284EFF0BFD909ED87
:1028C0008347F10093C4F4FF4A85E58FB365F400B4
:1028D000A307B100EFF01FEB41016FD0BF8BEFD228
:1028E0003F89938581957945EFF0DFD609CD83A7A0
:1028F000C196850723A6F19683A78196850723A411
:10290000F1966FD03F8983C781950D4709458D8B1F
:10291000E399E7FE83A7C196B735002031468507C6
:10292000938545631305200223A6F196EFF0DFDAC5
:1029300069D983A781960545850723A4F196D1B768
:10294000EFD21F8319441306F00F85454945EFF078
:10295000DFF509C57D141374F40F75F42945EF20D4
:10296000407919441306F00F930500084D45EFF028
:10297000DFF309C57D141374F40F6DF419441306C5
:10298000F00F9305E0084145EFF03FF209C57D14D3
:102990001374F40F6DF419441306F00F9305C0057A
:1029A0004545EFF09FF009C57D141374F40F6DF4E5
:1029B00019441306F00F930540044945EFF0FFEE6C
:1029C00009C57D141374F40F6DF413351500A38E2F
:1029D000A1966FD02FFCEFD2AFF91306000F8145FF
:1029E0004145A38E0196EFF05FEC1306000F814581
:1029F0004545EFF09FEB6FD0EFF98280EFD24FF4B7
:102A000083C7019613075002B7390020B387E70246
:102A1000373400201387C95D41119386C95D36C6DE
:102A2000BA970307C49223AEF194635D07001306BF
:102A3000400281453E85EFD00FF8EF3080294101FB
:102A40006FD0CFF383C73195FDDB83C7C197E5DB3B
:102A500083C7E1971304C49281E78D47238FF196D2
:102A6000EF2020608347C40003A741968346B4004B
:102A7000A2073307E540D58F2A8BE362F7FCEFF01E
:102A80001FE655FD373C0020930C0C6437370020BF
:102A90001307476313868C0193070C6493040C643B
:102AA0009443831507000907AE9694C39107E399F1
:102AB000C7FE03C4119603A7419505041374F40FD0
:102AC0008567A380819623A261973307EB409387A4
:102AD0007738E3F6E7F68840373D0020EF70003B9B
:102AE00083A58197EF60904AEF70403488C0C8405A
:102AF000EF70C03983A54197EF605049EF70003304
:102B0000C8C08844EF70803883A50197EF601048F3
:102B1000EF70C03188C493048D621386C40013071C
:102B20008D62814719C483A70C00B3C78702C2070F
:102B3000C1872310F7000907910CE314C7FE614613
:102B4000814513050C64A3800196EFD0CFE603A462
:102B5000C195194623AA6195130CC400E28522850C
:102B6000EFD00FE4130B84011946DA856285EFD0AC
:102B70002FE3B735002019469385A5635A85EFD01A
:102B80002FE283C7C1970547639EE7089967697776
:102B9000138664009387871A130787E583960400DA
:102BA00063DDD7062390F4008904E399C4FE9304FF
:102BB00024011946A68513056400EFD06FDE790461
:102BC0001946A2852685EFD0AFDD194693058D62A3
:102BD0002285EFD0EFDC83C7E197FD1793F7F70F5E
:102BE000238FF196E39D07E403A5C195EF30600EB6
:102BF00003C50196930750021306500213351500C2
:102C00002380A1963305F502B24781453E95EFD06A
:102C10008FDA8D47238FF1961DB5E3D7E6F8239021
:102C2000E40059B70947E398E7FA2285EF00E06628
:102C30005DB7EFD24FD2832A0500032A45002A84CC
:102C4000832985000329C500D6855685EF60103499
:102C5000AA84D2855285EF607033AA852685EF60FD
:102C6000E03AAA84CE854E85EF605032AA8526854B
:102C7000EF60C039AA84CA854A85EF603031AA85E1
:102C80002685EF60A038EF404048AA8503A5C1869D
:102C9000EF60406EAA84AA855685EF60302F08C089
:102CA000A6855285EF60902E48C0A6854E85EF60C0
:102CB000F02D08C4A6854A85EF60502D48C46FD01A
:102CC000CFCCEFD26FC8832BC500C445832A050043
:102CD00083A90500032A450003AB450003298500AD
:102CE00003AC85002A84A6855E85EF60302AAA8C15
:102CF000CE855685EF609029AA856685EF6090564F
:102D0000AA8CDA855285EF607028AA856685EF6007
:102D10007055AA8CE2854A85EF605027AA856685A2
:102D2000EF60505448C4CE855E85EF603026AA8C93
:102D3000D6852685EF609025AA856685EF60002DF3
:102D4000AA8CE2855285EF607024AA856685EF60C3
:102D5000E02BAA8CCA855A85EF605023AA85668528
:102D6000EF60505008C0DA855E85EF603022AA8C93
:102D7000E2855685EF609021AA856685EF60904ECA
:102D8000AA8CD2852685EF607020AA856685EF60C3
:102D9000E027AA8CCA854E85EF60501FAA856685FC
:102DA000EF60C02648C0E2855E85EF60301EAA8BCA
:102DB000DA855685EF60901DAA855E85EF60002557
:102DC000AA8AD2854E85EF60701CAA855685EF6071
:102DD0007049AA89CA852685EF60501BAA854E8551
:102DE000EF60C02208C46FD0AFB9EFD26FB52A84AC
:102DF00003A541987971AE843305A640328AEF600D
:102E0000E019AA8903C5140083C704002E8922058E
:102E10005D8D4205418523A24199EF6020114E86C8
:102E2000CA86EF50A04803A6018383A64183EF50D2
:102E3000E0472A8D03C5340083C72400AE8C2205E9
:102E40005D8D42054185EF60600E4E86CA86EF506B
:102E5000E04503A6018383A64183EF5020452A8CD9
:102E600003C5540083C74400AE8B22055D8D420527
:102E70004185EF60A00B4E86CA86EF50204303A623
:102E8000018383A64183EF5060422A8AAE896A8615
:102E9000E6866A85E685EF5060412A89AE846286BF
:102EA000DE866285DE85EF5060402A86AE864A85E2
:102EB000A685EF4040762A89AE845286CE8652851A
:102EC000CE85EF50A03E2A86AE864A85A685EF4085
:102ED00080742A86AE862A89AE84EF50203D03A6F0
:102EE000818383A6C183AE8D2AC6EF40506103A6BD
:102EF000018483A641842A8BAE8A4A85A685EF4049
:102F000010602A86AE865A85D685EF50D00E03A66D
:102F1000818483A6C184EF4000702A8BAE8A2A8602
:102F2000AE866A85E685EF506038EF70E0025A861B
:102F3000D6862ACADE856285EF504037EF70C00121
:102F40005A86D6862ACCCE855285EF502036EF7031
:102F5000A000B24703A6018583A641852ACEEE854F
:102F60003E85EF40D05903A6818583A6C1852A8A74
:102F7000AE894A85A685EF5060332A86AE86528593
:102F8000CE85EF50500703A6018683A64186B7146D
:102F90000020EF404068EF60307C4C082AD0138559
:102FA000047CEFF01FD21385047CEFF09FC88347A9
:102FB0001400034704009384047CA207D98F23984C
:102FC000F4008347340003472400A207D98F2399D4
:102FD000F4008347540003474400A207D98F239A83
:102FE000F40045616FD08F99EFD20F9683C76500CB
:102FF000B7340020AA89F19B93E727002383F500CB
:1030000003C7E1978D472E84938444666312F702C9
:10301000EF20A00623A0A19823A0040023A204006F
:1030200023A4040023A6040023980400A38F019680
:1030300003C5F19799471946130A15003305F502A0
:10304000137AFA0FA38F41973739002093058962CD
:103050002695EFD0EF948D47631CFA2283476400D6
:10306000370B0080854ACD9B2303F4007D1B914BD9
:10307000034A640093972A00CE9788439377CA0047
:10308000CE978C4333756501B3F56501EF60205D24
:10309000635BA00093F73A008A07137A3AFF336A1A
:1030A000FA0023034401850AE3947AFD03A509008D
:1030B00093050000EF600064635E051C83AB01872D
:1030C00003AC4187373A0020938A4900130B8A6585
:1030D000C109130A8A6503A50A00E285910AEF6017
:1030E000E06ADE85EF60806AEF6050542320AB0019
:1030F000110BE39259FF83270A0003476400130969
:103100008962A98793F6F70092063D8B558F2303BA
:10311000E40013D74700A303E40013D7C700230438
:10312000E40003479400D183858B799BD98FA30456
:10313000F40083274A0003479400A98793F6F70712
:103140008606058B558FA304E40013D7770023056B
:10315000E4000347B400BD8393F7F703137707FC3C
:10316000D98FA305F40083278A000347B40093D6C0
:10317000A7409A061377F703558FB187A305E4009C
:1031800013D78700A309E40003D70198039804002C
:103190002309F4002301E4022183A301E40203478D
:1031A0004402C1839D8B137707FC1367370023020A
:1031B000E40203170900B306074113F6860FD18F07
:1031C000A182230AF400A30AD400031629008398DD
:1031D000240083467401B30716418D87230BF40046
:1031E000A183819AFD8BD58FA30BF4008316490030
:1031F0000395440083457401B387A64013D3374039
:103200001603FD89B3E56500A30BB40003936400C6
:10321000998793D58700230FF400B30707019A9786
:103220007558B3C7070313F735009A97A58713F3AB
:10323000F7030A0333676700A30FE40003470402A0
:103240009983858B799BD98F2300F402039784009F
:10325000B3071601BA97B3C70703BA970347040227
:10326000A5878607058BD98F2300F4020397A40056
:10327000B387A600BA97B3C70703BA9703471402E8
:10328000A58793F7F707137707F8D98FA300F40200
:103290006FC01FEF83ABC18625B5EFC27FEDEF1086
:1032A000505C2A86B735002037350020938585622B
:1032B0001305E562EFF07FB383C701961307500251
:1032C000B7350020B387E7029385C55D3715002029
:1032D0001305057CBE95EFF03FD16FC0BFEB83C7F0
:1032E000419A89EBEFC2DFE8EFE00F9023A2A18CB7
:1032F0006FC05FEA014523A2A18C828031C9EFC271
:103300003FE72A84EFF0BFFD03C7418C2300E400B0
:1033100003C7518C83C7618CA300E4002301F40030
:1033200083A7019AA301F40013D78700C183A302E6
:10333000F40083A7C1992302E4002303F40013D708
:103340008700C183A303E4002304F4006FC09FE45B
:103350008280EFC25FE0B73400209387C49203C736
:1033600027028946328A9384C49293171600630514
:10337000D7108D46630BD71285466318D702935634
:10338000F54133C7A600158FB386F40003C6E601E6
:10339000635DC70013D6F54183C6F6013347B60017
:1033A000118F6354D70081450145A6978389770023
:1033B0000389870083C72401B389A90203C71401C5
:1033C000A207D98F3309B90293D9594013595940EB
:1033D000BDCFB307290313172A002388019833842C
:1033E00039033E949387018BBA979C436365F4003D
:1033F00085472388F198EF10D04611E10545E14754
:10340000B307FA023736002093068668930586686C
:10341000BE969C4289CF3307F54083C7240103C67B
:103420001401A207D18F6369F70C23A0060083C79C
:10343000019991CFE147330AFA023386450100CA68
:103440007D84232236012324260140CA08C28564D4
:10345000138504802A991386F4FF81454E95EFD099
:103460009FC82A841386F4FF81454A85EFD0BFC7E1
:10347000320522956FC07FD19356F54133C7A60020
:10348000158FB386F40083C6E6016353D700014568
:1034900093D6F54133C7B600158FB386F40083C6C3
:1034A000F601E354D7F0814509B73387F40013568A
:1034B000F5410347E701B346A600918E63CCE602CF
:1034C000FD566343A00085463307D7023A953387FC
:1034D000F40013D6F5410347F701B346B600918EC9
:1034E000E3C3E6FCFD566343B00085463307D702CD
:1034F000BA9565BD0145E1BFD8429C463387E902D4
:10350000B307F9023E97E35407F2904AD44A93571F
:10351000F441B307F602B386860233088602B697F3
:1035200033368602B2970D46B307F602B30606039A
:10353000333606038D82B2971396D701D18E3306A8
:10354000E7028D873317E702E363F7EE6394E70042
:10355000E36FD6EC2388019801498149C9BDEFC2C8
:103560003FC19387C18B03D7470003D5070083D59D
:103570002700B734002083D76700373400201304B6
:10358000849A9384846B98C403474400DCC48347C3
:1035900034002207834614005D8F8347240088C0CF
:1035A000CCC0A207D58F998D01461D8DEFF07FDA33
:1035B0000347840023A0A19A83477400220783460F
:1035C00054005D8F83476400CC448844A207D58FA4
:1035D0000546998D1D8DEFF0DFD723AEA1986FC002
:1035E0007FBB83C7419A63850720EFC2DFB63725CB
:1035F0000200A387019823870198EFD05FE6370583
:10360000020013050504EFD09FE56317051C83C76F
:10361000D1988DC7373700201307C792834707001B
:1036200093C6070893F6060893F7F707D58F23008C
:10363000F7008547A387F1982387F198A386A1987F
:1036400037850400EFD0BFE12A896319051883C7C5
:10365000C19885CF373700201307C79283470700EB
:1036600093C6F7FF93F6060293F7F7FDD58F230075
:10367000F700958393C7170013F51700EFD03FF8B5
:103680008547A387F1982387F19837050200130532
:10369000050823862199EFD09FDC6313051483C7A7
:1036A000B1989DC3373700201307C792834707009F
:1036B00093C6F7FF898AF59BD58F2300F7008547CE
:1036C000A387F1982387F198A385A19837850200F5
:1036D000EFD0FFD82A896317051083C7A19885CF3B
:1036E0003735002083578567797713070708F98FE7
:1036F00093E70760231CF56683C7519B1307856713
:103700001305856793B71700A301F700EF10906FBB
:1037100085472387F1984165130505102385219975
:10372000EFD0FFD32A8969E183C79198A1C3B73548
:1037300000209387C5921385A7FF9385C5929306B2
:10374000F00F03C7870113061700238CC70063150A
:10375000D700FD17E397A7FE374500201946CD0592
:103760001305A5B9EFC0DFA3EFD04FB4B7470020D2
:1037700083C797B9A3842199B5EB41650505EFD0BF
:103780001FCE2A8925E583C7819885CB3735002050
:103790008327856737E7FF0013070708F98F370787
:1037A000000113075730D98F232CF5661305856761
:1037B000EF10506585472387F19883C7E1982384EC
:1037C000219981C70545EF10206083C7F19899C3FF
:1037D000EFD0CFAD6FC07F9B05458DB5054975B561
:1037E0000545DDB5054905BF054949B70549F1B7A7
:1037F0008280EFC2FF97370502001105EFD03FC668
:103800001DED83A781999DC7EF10300783A781998C
:103810001D8D9307400663FDA70083C7419A91E77A
:103820002D651305854FEF60B02585472382F19AFA
:103830006FC05F96EF10700423ACA198D5BF2382B0
:10384000019A23AC0198EDB7EFC29F9283A7019B29
:10385000850723A8F19A81E7054723A6E180EF10A9
:10386000D00183A741996300F502EF10100183A7EF
:10387000C18083A64199958FAA9723A6F180EF1066
:10388000C07F23AAA198EFF0DFF6EFE0AFE5EFF0FD
:10389000EF96EFF01FD56FC0FF8FEFC27F8D2A84A8
:1038A000AA8513050020EF304030A2850545EF3092
:1038B000E02DA2850545EF302031A2850945EF3086
:1038C000A030A2850565EF30402EA2851165EF304E
:1038D000C02DB7040240A28513854404EF20F027D1
:1038E000A28513858405EF205027A28513858400C7
:1038F000EF20B026A28537050040EF30605E370527
:103900000040A28513050540EF30805DB7440140BB
:10391000A28513850480EF30C077228693050004CA
:1039200013850480EF3060786FC0DF86EFC25F845C
:10393000371702401C43B70608000111D58F1CC37E
:103940000545EF306018716513050520EF30E0780C
:1039500037450020130650028145130545B9EFC0D5
:103960009F852D6513058550EF6090118545714544
:10397000EF30A023854513050020EF300023854557
:103980000545EF30A02085450545EF30E02385450E
:103990000945EF30602385450565EF3000218545F9
:1039A0001165EF308020EF10A06DEF10606A29459F
:1039B000EF102074EFD0EFC96800EF302012EFD085
:1039C0009F96EF109004EF106079EFD07F83EF1097
:1039D000B05FEF10C000EF106043EFE01FECEFF0BE
:1039E000CF81EFE0FFF5EFC0DF8AEF306006AA85F8
:1039F0000545EFC0FF9205616FC0CFF9EFC2AFF58B
:103A00000545EF20F079EF102054EFF03FF283A549
:103A100041812D651305C551EF6000723145EFD02E
:103A20001FA4238AA19AEF00903D0D651305C52FB1
:103A3000EF20801FEF20402A03C5419BB7440020A0
:103A40003744002013351500EFD0BFA6EF003079C2
:103A500013040433938444B9054BEF10F025EFF0C1
:103A60001FB0EFF0DF8783A7418C13D787002300B7
:103A7000F400C1832301F40083A7019AA300E400AA
:103A8000A301F40013D78700C183A302F40083A726
:103A9000C1992302E4002303F40013D78700C183F4
:103AA0002304F400A303E400EFF01FDA83C7A18925
:103AB00091CF23826401EF20C033EF20C022EF209A
:103AC000A010EF10F005EF20203841BFA3820400C2
:103AD00023820400EDB782808345D5000345B500FD
:103AE0001306F00F6FE07FDC828082808280B73720
:103AF00000209387876C23A807022396070223A43C
:103B000007028280EFC2CFE637340020AA84EFF0AC
:103B10001FFE1309846C89679387071A1306200216
:103B20009385B400130529002314F46CEFC04FE70C
:103B3000930740021305846C2316F902EF00702CE2
:103B40006FC04FE5EFC2CFE22A84EFF05FFA034780
:103B5000A400373500209307856C930600F8A380F6
:103B6000E7001305856C0D472380D7002381E7000C
:103B70002396E702EF00F0286FC0CFE1EFC2AFDD80
:103B8000AA84EFF0DFF603C7A40083C9B400373A74
:103B9000002093078A6C930610F82380D700A38037
:103BA000E70023813701854713098A6C638EF9008A
:103BB0008947638AF9048D4713058A6C2316F90235
:103BC000EF0030246FC06FDC37440020130444B989
:103BD00019469385C4001305C400EFC06FDC194675
:103BE0009305640013053900A3093401EFC04FDBCE
:103BF000AD6561469385454813059900EFC04FDADE
:103C00009307100255BFB74500204146938585BAFA
:103C100013053900EFC0CFD8CD4779BFEFC24FD5DC
:103C20002A84EFF0DFECB737002083C78794ADCF4D
:103C30000547638FE7060D4793079004B7150020EB
:103C40009386C57E2380E6000347A4003734002016
:103C5000A380F6009307846C930620F82380D70096
:103C6000A380E700B7470020938747B91387C57E35
:103C70009386A7FF9304846C03C6B700FD1705075E
:103C8000A301C700E39AD7FE31469385C57E13850D
:103C90002400EFC0EFD0B9471305846C2396F402DB
:103CA000EF0030166FC00FCF0D479307800479B730
:103CB00011479307300359B7EFC28FCB2A84EFF037
:103CC0001FE30347B4008D46930707FD93F7F70FF3
:103CD00063E6F600B72700202388E78A0347A4009D
:103CE000373500209307856C930600F8A380E70022
:103CF0001305856C09472380D7002396E702EF0060
:103D000050106FC02FC9EFC2AFC62A84EFF03FDE5C
:103D10008347A400B73400201384846CB7150020B7
:103D2000130730F839469385C57D13052400230019
:103D3000E400A300F400EFC0AFC6C1471385846C54
:103D40002316F402EF00F00B6FC0CFC4EFC24FC2D6
:103D50002A84EFF0DFD90347A4003735002093070A
:103D6000856CA380E7000547930600F82381E700F0
:103D70001305856C0D472380D7002396E702EF00DB
:103D800050086FC02FC1EFC2AFBE2A84EFF03FD6FC
:103D90000347A400373500209307856C930600F88D
:103DA000A380E7001305856C0D472380D70023818E
:103DB00007002396E702EF00D0046FC0AFBD6FF09D
:103DC0009FFC6FF05FFC6FF01FFCEFC2CFB841119A
:103DD000AA84EFF0DFD19385B4002E852EC6EFD0F4
:103DE0000FAF83C7F4007547B2452A8975446364F1
:103DF000F70013F4F70F83C7A400B7390020373555
:103E00000020130700F99384896C15461305A56CEF
:103E10002380E400A380F400EFC08FB8B735002002
:103E200022869385F56C4A85EFC0FFC11D0413748B
:103E3000F40F1385896C23968402EF00807C410186
:103E40006FC0AFB4EFC2CFB241112A84EFF03FCAC6
:103E50001305B400EFD0AFA70346F40093050401A7
:103E6000AA8432C62EC4EFC05FCD3246A245268555
:103E7000EF10007E0347A400373500209307856CC0
:103E8000930600F8A380E7001305856C0D47238097
:103E9000D700238107002396E702EF0080764101D7
:103EA0006FC04FAFEFC2CFAC2A84EFF05FC40347BF
:103EB000A400373500209307856C930600F8A38093
:103EC000E7001305856C09472380D7002396E70296
:103ED000EF0020736FC00FAC6FF0DFFC6FF09FFC42
:103EE000EFC20FA92A84EFF09FC00347A400373523
:103EF00000209307856C930600F8A380E700130564
:103F0000856C130740022380D7002396E702EF0059
:103F1000406F6FC02FA8EFC2AFA52A84EFF03FBD5E
:103F20000347A400373500209307856CA380E70082
:103F30001305856C0947238007002396E702EF00ED
:103F4000406C6FC02FA5EFC2AFA22A84EFF03FBA3A
:103F50000347A400373500209307856C930600F8CB
:103F6000A380E7001305856C59472380D70023966B
:103F7000E702EF0000696FC0EFA1EFC26F9F2A84D4
:103F8000EFF0FFB60347B40037350020A386E19A6F
:103F90000347A4009307856C930600F8A380E7000D
:103FA0001305856C09472380D7002396E702EF00AD
:103FB0004065B74700200547A38CE7B86FC08F9DC9
:103FC000EFC20F9B2A84EFF09FB20347A40037355E
:103FD00000209307856CA380E70003C7D19A93065E
:103FE00000FB1305856C2381E7000D472380D70074
:103FF0002396E702EF00E0606FC0CF99EFC24F97C2
:104000002A84EFF0DFAE8347B400373500202384E5
:10401000F19A238EF1960347A4009307856C9306CB
:1040200000F8A380E7001305856C09472380D700BB
:104030002396E702F9236FC0EF95EFC26F93AA842E
:10404000EFF0FFAA03C7B4001385819A238EE1968F
:1040500083470500373900201304896C85EB83C73B
:10406000A40005472300E500A300F400130700F8AF
:10407000930700142311F4002300E4008D47130577
:10408000896C2316F402B52B6FC0CF90114693852F
:10409000B4000505EFC0CF9083C7A400130700F854
:1040A0002300E400A300F4008947D1BFEFC24F8C86
:1040B000AA84EFF0DFA303C7C4009306000203C580
:1040C000B4009307000263E3E600BA8703C7A400C5
:1040D00013F4F70F37390020B73500209304896CAB
:1040E000930600FC22869385C56C2380D400A380B0
:1040F000E400A381F4002381A4001104EFE0CFDDEC
:104100001374F40F1305896C23968402DD296FC0A4
:104110006F88EFC2EF852A84EFF07F9D0347B400DC
:10412000B7270020373500202384E78A0347A400FF
:104130009307856C930600F8A380E7001305856C50
:1041400009472380D7002396E70265296FC08F8433
:10415000EFC20F822A84EFF09F990347A4003735FE
:1041600000209307856CA380E70013078061930606
:1041700000FD2391E7001305856C11472380D700CC
:104180002396E702BD296FC0EF80EFB27FFE2A843D
:10419000EFF0FF950347A400373500209307856CA7
:1041A000A380E7005147930610FD2381E700130524
:1041B000856C0D472380D7002396E70299216FB0C5
:1041C0007FFDB737002011679387C76F130747B488
:1041D00098C311671307C7B7D8C311671307C7C1BF
:1041E00098C71167130787CBD8C71167130767D024
:1041F00098CB11671307C7D4D8CB1167130767ADE6
:1042000098CF11671307C7AED8CF1167130767D8C8
:1042100098D311671307A7DCB8C31167130747E4E6
:10422000F8C311671307E7DB9166B8C7938686AEBC
:104230001387070814C39166938646B054C39166EA
:10424000938646EA14C79166938626DC14CB916662
:10425000938666DC54CB9166938686ED14D3916683
:10426000938606EE54D39166938666F114D79166D1
:10427000938666F454D791669386A6F734C3916605
:10428000938606FC74C391669386A6AE34D31167F9
:10429000938707101307C7FF98C311671307A70376
:1042A000D8C31167130787AD98C711671307C70AEB
:1042B000D8C711671307271198D31167130707157C
:1042C000B8C311671307C7EDF8C311671307A71821
:1042D000B8C7828083C7419B99C708419305650091
:1042E00009056FD01F8C8280EFB29FE82A84834536
:1042F0004400084137370020D11593F5F50F23020C
:10430000B4008347A5001307C76F8A07BA979C4379
:1043100099C3829719A01C43EDFF2285EFF09FFB04
:104320006FB05FE703474500854763F3E7081C412B
:10433000C1C383C717001547FD1793F7F70F6369CC
:10434000F706EFB2FFE22D678A071307C752BA9745
:104350009C43374400208287B7070003130544B508
:1043600093871718B74500201CC119469385A5B936
:104370001105EFB0FFE285462946930544B5138544
:104380004173EF00006D6FB0FFE093071028231A10
:10439000F4B485460946D5B793071038CDBF9307C7
:1043A0001048F5B793071058DDB793071068C5B7E5
:1043B0008280EFB25FDA37440020AA8961468145E6
:1043C0001305C4AFEFB03FDF014AB73A00206314D2
:1043D0003A0181440DA01545EF00B0511949EFE0B5
:1043E0000FD0AA841545EF00D050A9C87D191379C4
:1043F000F90FE31609FE1304C4AF0840EF5010296B
:1044000083A58197EF508038EF50502208C0484074
:10441000EF50D02783A54197EF504037EF50102140
:1044200048C00844EF50902683A50197EF5000360E
:10443000EF50D01F08C426856FB03FD59307C4AF97
:1044400013874A631386870194438315070009077E
:10445000AE9694C39107E319F6FE050A8DBFEFB23D
:104460009FCFEFF01FF52A8A63170516B744002087
:104470009384C4AFC844EF50702183A5818737343B
:1044800000201304049FEF40F06E83A5C187EF4026
:10449000F0378347140803470408AA8AA207D98F74
:1044A0003305F040EF50901EAA855685EF40103638
:1044B000EF50D017931705012300A4028848C18349
:1044C000A183A300F402EF50701C83A58187EF4005
:1044D000706A83A5C187EF40703383473408034770
:1044E0002408AA8AA207D98F3305F040EF50101A8A
:1044F000AA855685EF409031EF5050139317050170
:104500002301A402C848C183A183A301F402EF5090
:10451000F01783A58187EF40F06583A5C187EF4041
:10452000F02E8347540803474408AA8AA207D98F6C
:104530003305F040EF509015AA855685EF40102DB9
:10454000EF50D00E931705012302A4028840C183C7
:10455000A183A302F402EF50701383A58187EF407B
:10456000706183A5C187EF40702AEF50300C93171C
:1045700005012306A402C840C183A183A306F40257
:10458000EF50D01083A58187EF40D05E83A5C1870F
:10459000EF40D027EF509009931705012307A4029D
:1045A0008844C183A183A307F402EF50300E83A592
:1045B0008187EF40305C83A5C187EF403025EF5005
:1045C000F00693170501C183A1832308A402A30861
:1045D000F402EFC06FD552856FB03FBBEFB25FB949
:1045E0000145EF00607E2945EF00B030B707EFBE10
:1045F00037E700E0938707083CC76FB0BFB96FF09B
:104600005FBC0346C502AA8581461385417391A10B
:104610002E86AA858D461385417325A9B7470020AC
:10462000138747B18905F956A300A70093F5F50F45
:10463000138547B12300D7006FF09FFDEFB25FB342
:10464000B744002037440020B7350020130444B19C
:104650001306D0039385C592138574B1230104001A
:10466000EFB01FB49305E0030545EFF03FFBB7350E
:10467000002085471306D00393859596138574B162
:104680002301F400EFB0DFB19305E0030545EFF03F
:10469000FFF8374500201306B0038145130595B197
:1046A000EFB07FB189472301F400B737002093872B
:1046B000679A03C7070083C71700138974B18D4534
:1046C00005452300E900A300F900EFF03FF593074B
:1046D000F03F894505452311F400EFF03FF46FB03A
:1046E0007FABEFB2FFA80C411307F00F83C7150093
:1046F00003C4E19A6396E70483C725002A8901472A
:10470000639C870003C7350085476314F700EFC03B
:10471000EFB9EFC04FEC0547B7470020938747B18B
:104720002381E7000327090089450945034737002E
:104730002387019AA381E700EFF05FEE6FB09FA59A
:104740001307D003B387E702373500201306C007ED
:104750001305C5921D8E3E956374C7001306D003E2
:1047600089050504EFB0DFA32387819AC1BFEFB2AB
:104770003FA02A8408410505EFC07F950C40AA841C
:104780003745002015468505130565B1EFB05FA1DB
:104790001C40B7450020268503C657009385B5B158
:1047A000EFC06FAA1C400D4583C55700950593F5D2
:1047B000F50FEFF0BFE66FB0FF9DEFB27F9B2A844D
:1047C00008410505EFC0BF900C4003C65500990590
:1047D000EFC0AFB6B7470020238BA7B08545114582
:1047E000EFF0DFE36FB01F9BEFB29F985145EFF002
:1047F0001FC703C72195B7470020938747B123817F
:10480000A70089451545A381E700EFF03FE16FB0B0
:104810007F98EFB2FF951387C18B83560700B73798
:1048200000209387879AA380D700A1822381D70095
:104830008356270001468145A381D700A1822382A8
:10484000D70083564700035767002165A382D7002E
:10485000A383E700A18221832383D7002384E70079
:1048600023800700EFC06FADB7470020238BA7B0B0
:1048700085451D45EFF09FDA6FB0DF91EFB25F8F96
:10488000B7450020938575B13D45EFD0BFDCB747F4
:104890000020138747B12301A70003A7C180938796
:1048A00047B101E7054723A6E18083A6C18003A79E
:1048B000019B374500203357D70211469385C19697
:1048C000130595B12382E700EFB09F8D3745002097
:1048D0001146938581961305D5B1EFB07F8CAD4518
:1048E0001305D00FEFF09FD36FB0DF8AB7470020DA
:1048F0001307003089451305F00F239BE7B06FF0D5
:10490000FFD114410546938716001CC1834745001B
:104910006373F608EFB2DF85FD172302F50083C746
:1049200016009D4663E0F60295CBFD1793F7F70F4F
:10493000994663E5F602AD668A0793864654B697B4
:104940009C4382871307E00F638EE7021307F00F83
:104950006387E7021307D00F6389E7026FB09F8375
:10496000EFF0DFCDE5BFEFF0DFD7CDBFEFF03FE0F9
:10497000F5B7EFF09FE4DDB7EFF01FE7C5B7EFF055
:10498000FFF6E9BFEFF09FC5D1BFEFF03FEFF9B7FA
:10499000EFF03FE8E1B78280EFB28FFD1C411307D3
:1049A000000883C707006389E702636AF7000547C9
:1049B000638EE7004147638EE7006FB0AFFD1307DA
:1049C000E00FE39CE7FEEFF0DFF3C5BFEFF0DF9110
:1049D000EDB7EFF03F90D5B7EFF0DF94F9BFEFB24E
:1049E0002FF941113715014091474C00130505C0BF
:1049F0003EC62312F10023130100231401002315E6
:104A00000100EF10B04641016FB0CFF893070004EA
:104A100063EEC702EFB22FF42A84054515C42E8930
:104A200085C5B28481451306C00813054400B689C4
:104A3000EFB06FF885472320240123039408230255
:104A4000F408A306340901456FB02FF41305F00FE5
:104A50008280EFB24FF09304F00F59C1D1C11C41D5
:104A60002A84BDCF8344C508BDEC0347650883276E
:104A7000850863DAE7068347D508B68913F9F70F87
:104A80006374F6001379F60F9307840805472FA780
:104A9000E700832784088347540803476408850791
:104AA00093F7F70F63E3E70081470345D408A302B8
:104AB000F4084A86B307F50208403E95EFB04FEE82
:104AC00083475408A297238227012382370583470F
:104AD0006408032784086345F70085472306F40824
:104AE00026856FB08FEA8544E5BFAA8721C91841A2
:104AF0001305F00F31C703A78708014531C313879A
:104B00008708FD56AF26D70003A7870803C74708C5
:104B100083C6670805071377F70F6363D70001475C
:104B20002382E70803C7C70809CB03A78708B32672
:104B3000D70093C616002386D70882801305F00F8E
:104B40008280EFB2EFE2056501118545110502C0D3
:104B500002C202C402C602C802CA02CC231E01005D
:104B6000EF20A004930700082310F100371501403F
:104B7000E1473EC48A858D47130505803EC2EF108C
:104B8000F02EB7C704013EC6B70700023ECA93071E
:104B900000023ECC6C009D4737350140231EF100DA
:104BA00002C8EF2000080546894537350140EF204F
:104BB000C00E05616FB00FDEEFB2EFD979712A84B4
:104BC000AE89328981451306C0024800B684EFB031
:104BD0008FDE85450545EF10707B2285EF106066FE
:104BE000C1473EC6930700083ECC930700103ECE57
:104BF0004C00856722854EC24AC426C83ED402CAEC
:104C000002D002D202D6EF10C07145616FB0EFD76B
:104C1000B706000141110147814793850181FD16C7
:104C20006148137615002E9603460600058133165B
:104C3000E600D18F0D07F58FE31507FF13950701E8
:104C40004181239CA19AC1831375F50F9386819BA3
:104C50002381A600238CF19A83D7819B42055D8D29
:104C600041018280EFB22FCF8D4AB3045503374400
:104C7000002032851304C4BB2E8AB689EFF05FF999
:104C8000935785001389540033095903229923004F
:104C9000A9004181A300F9002301A9001389640040
:104CA000330959039D045285EFF09FF69357850011
:104CB000B384540322992300A90041812301A90050
:104CC0004E85A300F900EFF0BFF4935785002694BA
:104CD0002300A4004181A300F4002301A4006FB0CD
:104CE000CFCAEFB24FC72A893745002013063012CA
:104CF00081451305C5BB37340020EFB0CFCB8149C8
:104D000081441304C4920D4A8347340263CCF406F1
:104D100063080906B747002083C667B9930780FC7C
:104D20001145B386F60293F6F60F3686B685EFF098
:104D30007FF3034404009306800C93178401E187FA
:104D400063D3070081463686B6851545EFF09FF19F
:104D500013740402814619E09306800C3686B685EA
:104D60001945EFF03FF083C6519B930780FC1D452A
:104D7000B386F60293F6F60F3686B685EFF09FEE11
:104D80006FB0AFC08347040013F5F40F898B99E32C
:104D900063190900814601468145EFF0BFEC8504A7
:104DA000A5B7B3874903A29783C6670203C6570214
:104DB00083C54702EFF01FEB9387C4FF93B747000B
:104DC00093C71700BE99E1BFEFB28FBAEFF07FF142
:104DD00037050240B7470020130505039387C7BB7B
:104DE0005CC5B737002083C7F7940D478545B38767
:104DF000E702A907B387E7025CC1EF1000568545BB
:104E000037350140EF1090676FB0CFB8EFB24FB6B3
:104E1000EFF03FD3B737002083C7F7940D478D4697
:104E2000B387E70237460020B73501403705024017
:104E30001306C6BBB10513050503A907B386D70240
:104E4000EFF09FD70545EFF03FF801456FB08FB405
:104E500013050020EF10C0550DC113050010EF1011
:104E6000605537050240814513050503EF10E04EFC
:104E7000814537350140EF10706073002030B7472F
:104E80000240938707809843B706C1FFFD1613675A
:104E9000070198C3B727024098431367070198C3D7
:104EA0009843719B98C398431367270098C3B7171B
:104EB0000240D843D8C3D843D8C3D8431367074068
:104EC000D8C3D843758FD8C3D843B7061C00558FB5
:104ED000D8C39843B7060001558F98C3B7060002A0
:104EE0009843758F75DFD843B7160240719BD8C3BE
:104EF000D84313672700D8C32147DC42B18BE39E18
:104F0000E7FE8280B71702409843B706FFF81367A1
:104F1000170098C3D843758FD8C39843B706F7FED8
:104F2000FD16758F98C39843B706FCFFFD16758F65
:104F300098C3D843B70681FFFD16758FD8C33707CE
:104F40009F0098C76FF0BFF3371702405C43A1463C
:104F5000B18B6391D7065C4354434166C983BD8BD3
:104F6000F18E890781EE3747024003270780418B86
:104F700019CB37177A001307072011A85843B70633
:104F80000200758F7DD737173D0013070790B38751
:104F9000E702371702405443371700201307877F73
:104FA0009182BD8A369703470700B3D7E70023AA4B
:104FB000F1808280B7177A0093870720D9BF6FF0FE
:104FC0001FEC854537050040EF10F07E8547631CD8
:104FD000F50083A7419C854537050040850723A23E
:104FE000F19CEF10D07F73002030EFB26F98011169
:104FF000930770043ECA4C089307703E3705004083
:105000003ECCEF10F04A0546854537050040EF10CD
:105010005070854537050040EF10906C9307C01223
:105020002316F100680085472307F1003EC8EF1002
:105030003018956737E700E0938727FC7CC3B207F9
:10504000B706002CB183D58F7CD305616FB08F94E8
:1050500003A7C19B11E7054723AEE19A6FF0FFF864
:10506000828083A7419C1307803EB387E7023707FE
:105070000040035547023E95828003A5419C8280F3
:1050800083A7418137177A0013070720B3D7E702B8
:105090002380F19C828019E5014582800145410110
:1050A0006FB04F8FEFB2CF8C41112A84AE8432891A
:1050B000EFF03FFB2AC6268502946DF1EFF07FFAF0
:1050C000B2471D8DE379A9FE26850294133515009C
:1050D000F9B7EFB2EF8941112A84EFF09FF82AC6A1
:1050E000EFF03FF8B2471D8DE37CA4FE41016FB0A5
:1050F0006F8A83A7419C41113EC683A7419CB2465B
:10510000958FE37CF5FE41018280034625009306DE
:10511000350001471376F6079D4503C80600B357CF
:10512000E6409E07B3E707012380F60005078506E2
:10513000E315B7FE834715000347A50095838D8BC4
:1051400093967700558F2305E5000347B5009A072E
:1051500093F707F8D98FA305F5008280EFB24F814E
:1051600079711306C00281454800EFB0CF8437043F
:105170000240814513054404EF10201E130544042A
:10518000EF10200CB7440140938744803EC2C147D2
:105190003EC6930700083ECC4C00856713054404C7
:1051A0003ED402C402C802CA02CE02D002D202D643
:1051B000EF102017814513058405EF10001A130521
:1051C0008405EF100008B7470020938707163EC4F8
:1051D000930700183EC8930700023ED24C0089672F
:1051E000130584053ED402C6EF10A01313058405F1
:1051F0008545EF108016054693050004138504804D
:10520000EF10B06A45616FA0FFF8EFA27FF60111C1
:105210008545114502C202C402C602C802CA02CCB8
:1052200002CEEF10901885451165EF101018930706
:1052300000202312F100371401408D473EC44C007A
:10524000E147130504803EC6EF104042930700403B
:105250002312F1004C0093078004130504803EC61E
:10526000EF10C040B7C72D00374401409387076C4B
:105270003EC80C08B7070C00130504803ECC02CAD8
:10528000231E0100EF1090561305048093050004BF
:10529000EF10D063130504808545EF10905FB7458C
:1052A000002037450020B54613060002938505FC13
:1052B000130505D9EFF08FF5B745002037450020DD
:1052C000B54613060002938505E2130505D0EFF0FD
:1052D000EFF305616FA01FECEFA2FFE7B7490140B4
:1052E0002A89AE841385098093050004370402409F
:1052F000EF10D05D130544048145EF10000623280C
:1053000024051305440444C18545EF1000050546F6
:105310009305000813850980EF1030596FA0FFE650
:10532000EFA21FE583C7219D9DCBB74401409305A4
:10533000000413850480EF10B05805C193050004E4
:1053400013850480EF1090580146930500081385DB
:105350000480EF1090552389019C6FA0BFE3B747ED
:105360000020138707D083258708938707D0F5D5BA
:1053700083C64708354503C657083385A602374715
:105380000020130707E23A9503C76708637ED60239
:10539000B306D74093950601C18123A4C708238291
:1053A000070883A6870833A7E6001347170023865C
:1053B000E708B547B385F502C205C181EFF0DFF11B
:1053C00085472389F19C51BFC205C1812382C7084B
:1053D00023A40708F9B755C5014781471D46B30601
:1053E000F50083C6360093C57700850793F6060857
:1053F000B3D6B640558F1377F707E392C7FE8347BE
:1054000025009306C50093F707F8D98F2301F5000F
:105410008347B5000347A50099871D83898BD98FE2
:105420000347150096071377F7F9D98FA300F50006
:105430009307350003C7070085071377F707A38F86
:10544000E7FEE399F6FE834705000547B14693F76B
:10545000F7073306E500034606000507B18F93F70B
:10546000F707E318D7FE034715002306F500137767
:10547000F707A300E500034725001377F70723018B
:10548000E50082801DC5834705000547B14693F7B7
:10549000F7073306E500034606000507B18FE31A58
:1054A000D7FE0345C5001375F5071D8D3335A000E4
:1054B00082801305F00F8280EFA21FC937050240DA
:1054C00013058505EF00B06A2398A19C03D6E19CE3
:1054D00083D7019D6300F60403D6E19C83D7019D29
:1054E00063FFC70483D7E19C03D6019D03D7019DC9
:1054F000918FC207420741832397E19C03D7C19C48
:10550000C183930600183E9763D2E6042396D19C8C
:10551000239A019CB7490020B74A002013091008BC
:1055200093890916138B0ACF854B83D7C19C91C7EA
:105530007D191379F90F631309026FA07FC483D714
:10554000E19C03D6019D938707184DB703D7C19CF3
:10555000BA97C207C1832396F19C5DBF83D7A19CF4
:10556000CE978387070063D2070483D7A19C238447
:10557000719DCE9783C707002300FB0083D7C19C92
:10558000FD17C207C1832396F19C83D7A19C850791
:10559000C207C1832395F19C03D7A19C9307F01701
:1055A000E3F5E7F82395019C49B78387819C63580D
:1055B000F00483D6A19C138717006207CE9683C69A
:1055C0000600DA9761872380D7002384E19CB147E6
:1055D000E3D6E7FA5A852384019CEFF0BFEA59FD30
:1055E00013850ACFEFF07FB237450020814635465C
:1055F00093850ACF130505D9EFF0AFC541B72384D2
:10560000019CADBF39C1EFA2BFB637440020AA85C7
:105610003546130504CEEFA0BFB8130504CEEFF056
:105620009FDB930404CE83C70400374500208146E6
:1056300093E707F83546930504CE130505D023807C
:10564000F400EFF00FC16FA0FFB41305E00F8280EC
:10565000EFA27FB09357850185669386069093F7F6
:10566000F707D58F8966374700209386F6F7F58FC1
:105670008356072EB289797613060608F18ED58FE8
:105680002A892E8A2310F72E81441304072EB74A45
:105690000020B3059A0063C434016FA01FAFB307A5
:1056A0009900214613854A2EA301F400EFA05FAFB5
:1056B0002285EFF03FF5A104E9BFEFA2DFA937444F
:1056C00000208357042E797713070708F98F0567A1
:1056D0001307F790D98FB73400202310F42E93844A
:1056E000C49201491304042E374A0020930900088C
:1056F000A685214613054A2EA3012401EFA05FAA27
:105700002285EFF03FF022852109EFF0BFEF93846F
:105710000404E31F39FD6FA05FA7EFA27FA5374404
:1057200000201305042EB7450020930710102320F6
:105730000500254693850533232205002324050013
:10574000230605000D052310F42EEFA07FA51305F9
:10575000042EEFF03FEB6FA0FFA383A7418CA5C7FA
:10576000EFA21FA137440020930744B983C7570015
:10577000130444B9B9E7EFF05F909307007D63F23B
:10578000A7048347040099C78347340003471400E4
:10579000D98F81C7834724008DE7374500208327B1
:1057A000052E37E7FF0013070708F98F37070001B9
:1057B00013070730D98F2320F52E1305052EEFF0A0
:1057C0007FE46FA03F9D8280EFA29F9A3744002024
:1057D0008357042E797713070708F98F3745002080
:1057E00093E717602546FD551305352E2310F42E3B
:1057F000EFA07F9C1305042EEFF0DFE06FA09F99D0
:10580000B74500209387052E9C433D4793F7F70744
:105810006360F70CEFA2DF952D678A071307075621
:10582000BA979C439385052E828737440020130442
:1058300044B919468D0513056400EFA07F9685478E
:105840002309F4006FA01F95AE879386950003C7C8
:10585000370085071347A7FA2381E700E399D7FEAE
:105860003745002025468D05130585BAEFA05F93C7
:10587000D1BF1387750083C73500850593C7A7FA85
:105880002381F500E399E5FEB74500203745002068
:105890001D469385352E130515BBEFA07F90B747A6
:1058A00000200547238CE7BA71BF03C73500B7470F
:1058B0000020238BE7B879B7B7470020A38307BA46
:1058C00051B703C73500B7470020A38BE7B89DBF8A
:1058D0008280B747002083A7072E93F7F70799EB3D
:1058E000B7450020374500209385752E1305352ECA
:1058F0006FC02FAB8280374700201307072E1C4351
:10590000854693F7F7076381D702EFA27F86894622
:105910006381D70281EB034737000545A38AE19AEB
:10592000EFF08FCA6FA01F8737470020A30AF7B890
:1059300082800145EFF04FC92945EFF08FFBB70793
:10594000EFBE37E700E0938707083CC7E1BFEFA24F
:105950003F82374400209307042E03C71700A14657
:105960001376E7016312D60694439375F701019B02
:1059700093F6F6076395C50613679700A380E700C3
:105980006386B6043D47638EE60019476396E602D8
:10599000B745002003C5370021469385452E9967FA
:1059A00009A8B745002003C5370021469385452E39
:1059B000BD675D8DEFB02F891305042EEFF09FC4F6
:1059C0001305042EEFF01FC46FA0CFFCB7450020D5
:1059D00003C5370021469385452EA167D9BF1367BC
:1059E0008700A380E700638BC6043D476385E6021A
:1059F0001947E393E6FC83C437009305100B214558
:105A0000858DEFB00FECB74500201376F50F938529
:105A1000452E196505A083C437009305C0072145AD
:105A2000858DEFB00FEAB74500201376F50F93850B
:105A3000452E3D65458DEFB04F90BDBF83C4370007
:105A4000930580042145858DEFB0AFE7B745002071
:105A50001376F50F9385452E2165E9BFEFA24FF12F
:105A6000B747002083A7072E1947A183FD8B638AC0
:105A7000E702636AF7000D47638FE7001147638F02
:105A8000E7006FA02FF1E107FD8B0547E36BF7FE01
:105A9000EFF0FFEBFDB7EFF0BFD6E5B7EFF07FE338
:105AA000CDB7EFF05FE5F1BFEFA28FECEFF0FFCAEB
:105AB00037440020930744B903C74700130444B98F
:105AC00015E383C7170099CF0145EFD01FDDEFC065
:105AD0009FF0EFD0BFE50545EFD03FDCEFF0DFCE24
