:100000006F60F01A130000001300000013000000DE
:100010001300000013000000130000001300000094
:100020001300000013000000130000001300000084
:08003000130000007300100032
:100038006FF09FFC000000006F0060186F00A01AAE
:1000480000000000000000000000000000000000A8
:100058000000000000000000000000000000000098
:100068006F605014000000006F60D01300000000A3
:100078006F6050136F6010136F60D0126F60901232
:100088006F6050126F6010126F60D0116F60901126
:100098006F6050116F6010116F60D0106F6090101A
:1000A8006F6050106F50E06A6F60D00F6F60900FF4
:1000B8006F60500F6F60100F6F60D00E000000006F
:1000C8000000000000000000000000006F60900DBC
:1000D8006F60500D6F60100D6F60D00C6F60900CEA
:1000E8006F5050026F20E0036F60D00B6F60900B71
:1000F8006F60500B6F60100B6F20204E6F60900A7E
:100108006F60500A6F60100A6F60D0096F609009C5
:100118006F6050096F6010096F60D0086F0040155C
:1001280000000000000000000000000000000000C7
:080138000000000000000000BF
:10014000397101436EC619A0397141536AC866CA34
:1001500062CC5ECE19A0397101535AD056D252D416
:100160004ED64AD826DA22DC06DE3301614082828E
:1001700041114AC026C222C406C68282B24D410144
:10018000024D924C224CB24B4101024B924A224A00
:10019000B2494101024992442244B2404101828065
:1001A0002A8309CA83830500230073007D16050393
:1001B00085056DFA82802A8311C62300B3007D165F
:1001C000050365FE82800145EF5000363717024077
:1001D0001C47B7068000D58F1CC7EF50E07237E789
:1001E00000E03C4793E787003CC773002030730072
:1001F0002030EFF2FFF711458545EF708055B74786
:10020000024093870780984301451367470098C3CE
:1002100003A74182B7A74A04938707206309F70021
:10022000B777DC02938707C06315F7000545EF70C9
:10023000C04085450565EF70E04FA9BF37370240E4
:10024000930700FC2306F74093878176C207C1839A
:100250002318F7409387816E23A2F1A4C207C183BC
:10026000231AF74089472309F742230BF742938764
:10027000018AA38007008280011122CE26CC4ACABF
:100280004EC852C656C437340240034764408347C1
:1002900074409376F70F098B6304075E93F7F70FAB
:1002A00013F70703930500026302B70493060003E4
:1002B000630FD71621E713F7F7036300071285468C
:1002C000631ED70293F7070495CB834764431385D6
:1002D000016C93C70708230BF4420356844083A59F
:1002E00041A41376F60FEF40F05B09A893F7F703EC
:1002F0006384E70213071002638EE70AB7370240F0
:1003000009472383E7407244E2445249C249324AD2
:10031000A24A05617300203083D7E18A99E78347B9
:10032000244393F7370F2309F44283C7418B93F794
:100330000706E9F783C7518B954613F7F70F638FCD
:10034000D7049947E31CF7FA03D7E18A9307F00330
:100350001304000463E6E70003D4E18A4204418009
:1003600003A9818B2286CA8513858176153D83D7A3
:10037000E18A229923AC218B818FC207C183239705
:10038000F18A1374F40FB73702402388874203C7FA
:100390002743134707042389E7428DB7B736024046
:1003A00003C7364083C7C18A13770708D98FA38153
:1003B000F640A9B78347644393F7C70F93E7270035
:1003C000230BF4428347644393C70704230BF4428F
:1003D0009387018AA380070015B793F70704E38F7B
:1003E00007F083C7418B93F70706E38907F083C7BC
:1003F000418B93F70706E393B7F003C7518BA547EB
:10040000E31EF7EE3745002013060004938581763E
:10041000130585F571330547238EE1A283472443F5
:1004200093F7C70F93E727002309F442C1BD930751
:10043000A0FC2309F4421387817683470700238AAF
:10044000F18A8347170083562700A38AF18A8357CE
:1004500067002397F18A2399D18A8356470023980E
:10046000D18A03C9418B9386817613790906630982
:10047000090C83C7418B93F70706639EB70283C7B6
:10048000518B2946FD1793F7F70F6363F618316612
:100490008A0713060619B2979C43828783D7018B7C
:1004A00063980716B745002013060004938585F569
:1004B00013858176F53183C7418BE207E18763DEDF
:1004C000073803D7E18A9307000463E6E70083D780
:1004D000E18AC207C18303D7E18A1D8F42074183A6
:1004E0002397E18A93F7F70F373702402308F74243
:1004F0008347274393F7C70F2309F74201B583D7F3
:10050000018B6397071003C73600A384E18A65B7A0
:1005100083D7018B639E070E03C726002384E18ADD
:1005200059BF83D7018B6395070E83C7918A2380B8
:10053000F60051B783D7018BE1EF83C7818AC5BF2E
:1005400083C5518B2D4813F6F50F6363B80CB16565
:100550000A069385C51B2E961042028683D6218BF0
:100560000D46A1826386C60C636CD6008547638CFA
:10057000F60289476381F60481471309F00F81A8C9
:1005800093071002638BF60893072002E396F6FEAA
:1005900083D7018BF5F3B5679387C7B123ACF18A95
:1005A0009307F00D2DA0B5679387C7BF23ACF18AE1
:1005B00083C7070029A8B71700209387872823AC93
:1005C000F18A03C7270083C73700A207D98F03D753
:1005D000E18A63F4E7002397F18A03D7E18A93075E
:1005E000F003130A000463E7E70003DAE18A420A32
:1005F000135A0A0183AA818B528613858176D68588
:100600004536D29A23AC518B9307F00FE315F9EAE4
:10061000B73702401307F0FCBDBB83D7018BA9FF9E
:10062000B71700209387A72923ACF18AA54745B7C0
:1006300083D7218B094793F7F70F6387E702636B33
:10064000F70099EF9387418923ACF18A014983C769
:100650000700B5BFE392D7F2B5679387C7ACB9B7C8
:10066000B567938707B199B7B567938747AE3DBF25
:1006700083D7218B93F7F70F2386F18A2DBD83C78C
:10068000D18A2380F60003D7E18A8547E3F5E7E2C4
:100690002397F18A0DB583D7218B93F7F70FA386A4
:1006A000F18A05472385E18A39B583C6418BFD8AE6
:1006B00099EE83D7218B054793F7F70FE39DE7DE8C
:1006C00083C7B18A93F7E70FA385F18AEDB383C699
:1006D000418B0946FD8AE39DC6F283D7218B93F7B0
:1006E000F70F9DF783D7018B054793F7F70F6381CA
:1006F000E70213072008E39DE7F0373702408347FE
:10070000A74393F7C70B93E72700230DF74265B381
:10071000373702408347674393F73707230BF74286
:100720008347674393F7C70B93E72700230BF742F1
:1007300059B383C6418BFD8A8DE683D7218B05474C
:1007400093F7F70FE396E7ECB717002083C7F72876
:1007500093F70702E38E07EA83C7B18A93E717008E
:10076000A5B783C6418B0946FD8AE393C6EA83D7C2
:10077000218B93F7F70FE39D07E883D7018B1307CE
:10078000100893F7F70F638FE70013072008E39132
:10079000E7E8373702408347A74393F7C70B93E750
:1007A0003700A5B7373702408347674393F73707CA
:1007B00093E7C700230BF7428347674393F7C70BC1
:1007C00093E73700A5B72380060075BD83C7418B2B
:1007D00023940176FD8B99EB83C7B18A858BBDC3CA
:1007E00089472380F60003D7E18A4DB583C7418B43
:1007F0000946FD8B639CC70403D7018B13061008C1
:100800001377F70F630DC700130620086305C702AF
:1008100003D7E18AE3FEE7DE2397F18AD5BB3737BA
:100820000240034767433146318BE31EC7FA054751
:100830002380E6004DBF373702400347A7430D46EC
:100840000D8BE5B703D7E18A894789B583D7E18A5C
:10085000E370F6DC2397C18A65BB83D7E18A91EB0D
:10086000B73702402388074203C727431377C70FD0
:100870001DB6373702408347274393F7370FADB98B
:1008800093F716009DC3A386018A2386018AA38558
:10089000018A2385018AA30104404D3283476440C5
:1008A00093E717002303F440B9BC93F746009DCBB0
:1008B00091472303F4402945EF5060160347544005
:1008C000118B11CB03C7B18A13672700A385E18A77
:1008D00083C7B18A0DBC03C7B18A1377D70FA3852D
:1008E000E18A15B42303D44039BCEFF27F88B747BF
:1008F0000240938707809843C1E51367870098C338
:100900003734024099472300F4402DCD2945EF505C
:1009100000119D47230004402301F44093079002F7
:100920002300F440213A930710F8A300F440130782
:100930001004E146138601A69385810A1385416D53
:10094000EF406072B715002013071004E1461386CC
:1009500081A79385855B1385016CEF40C07037E7F5
:1009600000E0930780277CC3B207B183B706003B42
:10097000D58F3CD3B70700082322F7106FF09F8173
:100980005D9BB5BF2945EF508009B7E700E0230024
:100990000440B843C146B4C337060008938607181D
:1009A000D0C2B8C3E1BF83C7917A9DCB0547638EA0
:1009B000E7021307401F9307802A23A8E18023A69C
:1009C000F1809386072D371700202328D73213078D
:1009D000002DB307F740371700202326F732828017
:1009E0001307A0289307002DC9BF1307C021DDBF3F
:1009F000EFF20FF837070001AA87130707F07D8F82
:100A0000A1662E85630ED70263E8E60029C39966C6
:100A1000630ED7006FF00FF8BD66E31DD7FEB72554
:100A2000002093F7F70F9385C52D39A0B725002037
:100A300093F7F70F9385853ABE95EFF06FF6D9BF20
:100A4000B725002093F7F70F93850536F5B793F791
:100A5000F70F9385817ACDB7B7250020130640089C
:100A60009385C52D0145F1A1B72500201306400847
:100A70009385C52D0145B9A1B72500201306100B9C
:100A80009385853A130500106DA1B7250020130644
:100A9000100B9385853A130500102DA1EFF24FED51
:100AA000372400201304C42D0345C401EF90B06F18
:100AB00083A58187EF90603D23ACA1980345D401C5
:100AC000EF90706E83A58187EF90203C23AAA198B8
:100AD0000345E401EF90306D83A58187EF90E03A04
:100AE0000357040123A8A1983307E7029387018CD9
:100AF00098C3035724013307E702D8C3092DEF0039
:100B0000D000EF10403383572400034754020545BB
:100B1000A207D98F93C7F7FF23AEF18AEF40D02009
:100B20006FF04FE7EFF2CFE4372900201306100BE8
:100B3000FD551305893AEFF00FE82D46FD55138555
:100B4000817AEFF04FE72D469385817A13050030C7
:100B5000CD2683C7817A9384817A858B9DC385470F
:100B600023A00400A380F4002D46FD479385817ADD
:100B70001305003023A20400239404002385F4000D
:100B80009126DD3D1309893A834709013724002066
:100B90001304843A63800710930700F82300F400DD
:100BA000E9778D072319F4008547A30DF400930717
:100BB000C0FCA30EF4029567938747CC231FF40271
:100BC000B71780CC938707803CC0B757000893873E
:100BD00047CC7CC0B7D7C44C938707C83CC4F177D7
:100BE0009387C74C2316F4049307C0042307F40427
:100BF000B73732FF938727133CC8FD57231AF404F5
:100C00008D67BD072313F408B7B790D9938717E60C
:100C10002324F408B71754419387474D2326F4083B
:100C2000B757C779938757412328F408B7373663F6
:100C30009387C73949469305640813058409232A15
:100C4000F408EFF0EFD5B7078BFF9387B7051CD0FB
:100C5000B7070040938767195CD0B74700401CD4A2
:100C6000B707BEFFF5075CD4B7073C34B9171CD8EB
:100C7000B7373B349387B7435CD8C167938707D5B1
:100C80002320F4088567938767FC2312F408230860
:100C90000400E53B930700F82300F400E9778D0793
:100CA0002319F4008547A30DF40037240020130610
:100CB00080049305043613050020A52C9307043601
:100CC00003C7070015C32147A38007002381E7005E
:100CD000A38107002382E700A38207002383E700A4
:100CE000A38307002384E700372900201306400868
:100CF000FD551305C92DEFF00FCCB93B8347C92D26
:100D00001304C92D858BCDC31306400881451305F7
:100D1000C92DEFF04FCA8567938787802312F400AF
:100D20000967B72700209387672E130707022390D0
:100D3000E7002391E70037250020B72700206177DF
:100D40009387272E13070708114693050004130500
:100D5000D52F2390E7002391E700EFF0CFC593074D
:100D600000FCA300F4009307606D2317F40003C692
:100D7000A400B7077805938787571CC801478D459E
:100D8000FD56634BC704B7877F029387F7F75CCCA8
:100D90008D679387C74B231AF4008347040093E7BA
:100DA00007F82300F400C931D53903475400B717B9
:100DB000002093878728A380E70203474400373544
:100DC000002019462384E702930564011305650694
:100DD000EFF00FBD6FF00FBCB307B7020507A29786
:100DE000A383D7022384D702A384D70259BFEFF28B
:100DF0002FB8553E0545EF4020736FF0AFB9EFF2C5
:100E00008FB5B7070001938707F0E98F2167AA84A0
:100E100032893684638FE704636AF700B5CF1967B8
:100E20006386E702014422856FF02FB63D67E39B9E
:100E3000E7FEB72700209379F50F9387C72DBE995A
:100E40004E85EFF0EFB505C0053129A8B727002082
:100E50009379F50F9387873ABE994E85EFF04FB49B
:100E600019C025312A844A86CE852685EF50001F79
:100E70005DBF372A00209379F50F93070A36BE9994
:100E80004E85EFF0EFB165D01306800493050A3666
:100E9000130500200528F9B71375F50F9387817A9C
:100EA0003E95AE89EFF0CFAF19C44A86CE851305C3
:100EB000003009282A844A86CE852685EF50001AFC
:100EC0003D3795B7EFF22FA9B7F700083304F500C7
:100ED0003307C400B7070108637BF7042E8A228515
:100EE000930500103289EF60000B1147AA848947EF
:100EF000631CE502B729002013060010FD55138579
:100F0000C945EFF04FAB4A86D2851385C945EFF04E
:100F10002FA9130600109385C9452285EF6040195B
:100F20008D476313950081473E856FF00FA6854777
:100F3000E5BF37F70008AE87B305E5003387C50086
:100F4000B7060108637CD700094599CBEFF24FA2A1
:100F50003E85EFF0EFA401456FF0CFA305458280F9
:100F60008280AA872E8563D3B7003E858280EFF208
:100F70002FA04111AA8511466800EFF06FA23245FB
:100F800041016FF02FA1AA872E8563C6B7003E8569
:100F90006353F60032858280EFF28F9D797161464E
:100FA00081452808EFF02FA1014502C602C802CAF8
:100FB000EF60E06A371501409307A0036C0013054A
:100FC0000580372401402316F10002CAEF60E01FBC
:100FD00013050440EF50902585473ECE3ED0B7071D
:100FE0000E003ED22C089147130504402306F1025F
:100FF00002CC02D4EF503026854513050440EF5053
:10100000902B854513050440EF50F029130504404B
:10101000EF50902B930404402685EF50902B6DFDEC
:101020001305044037240140EF50302B9304044053
:101030002685EF50302B6DFD13050440EF5010381E
:101040002394A18C45616FF0EF94EFF2CF9079710A
:101050002A84AE89328981451306C0024800B684CD
:10106000EFF06F952285EF50904D930700083ECC2E
:10107000930700103ECE930700403ED09307000236
:101080003ED24C008D6722854EC24AC426C83ED44B
:1010900002C602CA02D6EF50905845616FF0EF8E3B
:1010A000EFF20F8DD53D37240140B7040240930580
:1010B000C4441385840091461386C18C7937130587
:1010C00004409D4605468545EF50D0231305044056
:1010D0009D4609469545EF50F022130504409D4674
:1010E0000D468D45EF5010229D46114613050440D4
:1010F0009145EF503021138584008545EF50B05560
:10110000854513050440EF50701E6FF0AF884167AE
:10111000B72600209387C65513060710D0D71306AD
:10112000170013070704D8C33717020098C33707FF
:10113000020013058700E8C313050702A8C3616511
:10114000E8C713050701A8C713050720A8CF37254F
:10115000040088CF13050710E8CF37450400C8CF37
:101160001305070488D33785040090D7C8D3130725
:1011700007083785020037260200B745020088DBE2
:10118000D8DBD0C78CC7B727002003C7C72D9387EC
:10119000C6551375070119C1CCC790C7218B01CB68
:1011A00037170200D8C341671307070498C382802A
:1011B000EFE21FFC41118D472E8432C63EC4AA8443
:1011C00002C2014681470147C1656343870619C2D0
:1011D0002312F100371501404C0013050580EF5034
:1011E000D07E01462312010081470147B705020066
:1011F000634D870419C22312F100371501404C00DA
:10120000130505C0EF50707C014623120100814791
:101210000147B70504006347870419C22312F10090
:101220004C0037150140EF50507A41016FE09FF6B6
:1012300093162700A696944233F5B60009C5D58FBC
:10124000C207C1830546050749B793162700A6962E
:10125000944233F5B60009C5D58FC207C183054650
:10126000050779B793162700A696944233F5B60082
:1012700009C5D58FC207C1830546050769BFEFE2DF
:101280003FEF4111B78702005146854568003EC6D1
:101290000537B70700209387070688470546A165ED
:1012A000EF50D07F370500201306800291451305CB
:1012B0000500FD3D37050020414691451305050118
:1012C000C53DB70700209387070237270020138604
:1012D00007041307C75594438A06BA9623A006004D
:1012E000D4438A06BA9623A0060094478A06BA9683
:1012F00023A00600D447C1078A06BA9623A0060099
:10130000E39BC7FC41016FE0FFE8EFE27FE60135B8
:1013100083C7F17A91C3A5373725002013068004CF
:10132000E1451305C55569356FE0DFE6EFE2DFE122
:101330003704002013040401B704002037090020FB
:10134000B70A002093840402130B0401014A130915
:101350000906938A0A00C14B0C400546814993D780
:10136000E500F18BCA978843C205C181EF50107325
:101370005145EF40C06AB38759018C4393D7E500CC
:10138000F18BCA978843C205C181EF50F06FB387D4
:1013900034019C4391093315F500336AAA00E39C9C
:1013A00079FD0C400146110493D7E500F18BCA97F3
:1013B0008843C205C181EF50706E5145EF402066F1
:1013C000C104E31B64F952856FE09FDBEFE2DFD7D6
:1013D00083C7F17A014499C3913F2A84B719014028
:1013E000B7240020138B09C09384C4550149370AE0
:1013F0000700B70A0200B70B0400416C938909800B
:101400008C40B3F74501638B5703638D7703054524
:1014100063978701C205C1814E85EF50F06693370F
:101420001500B39727015D8C0509E1479104E31985
:10143000F9FC03A5C18B618D6FE09FD4C205C1810A
:101440005A85E1BFC205C18137150140F9B7EFE206
:101450003FD2B7070700E98F37070200AA856384E8
:10146000E702370704006388E70241670545639A8E
:10147000E700C20537150140C18113050580EF5013
:10148000B0606FE03FD19315050137150140C18170
:10149000130505C0EDB793150501C181371501404E
:1014A000F9BF1357E500B7070020718B9387070634
:1014B000BA972E86931505018843C1816F50105E3F
:1014C000EFE21FCB79712A848545314502CA02CCEF
:1014D00002CE02D002D202D402D602C402C623181F
:1014E0000100EF6000276315040E85450945EF6094
:1014F00020283715014061478D474C08130505C06A
:101500003ACE37040040231AF1003ECCEF50F04BA6
:101510009307005A2C00130504403EC602C4EF6036
:1015200080360546854513050440EF606053C1676A
:10153000938707060C10130504403ED023130102C5
:1015400023140102EF60A03B0C1013050440EF6070
:101550000046854513050440EF60204FA145130563
:101560000440EF602053A14513050440EF60A053F1
:10157000814513050440EF6000509305002D1305CD
:101580000440EF60E0539305002D13050440EF6025
:101590008053EF00F00E9307D0122310F1009D4707
:1015A0002301F1000A8585473EC2EF50B079896773
:1015B0009387A71237E700E07CC3B207B183B70671
:1015C000002DD58F3CD7854513050440EF6020469C
:1015D00045616FE03FBCAA85370500401305054013
:1015E0006F60E044EFE2DFB8AA8832883E86894720
:1015F0002E85BA85638CF8008D476388F800638375
:101600000800368842856FE0FFB84295EFF0BF973B
:101610001318050113580841F5B719473305E502BA
:10162000B7070020938707082E86014781463E951D
:1016300083152500034505009307C01165B71947B9
:101640003305E502B7070020938707082E861307A6
:10165000000C930600103E958315450003451500C8
:101660009307001441B71387018E1443B727002056
:1016700058430E059387C75BAA9794C3D8C382804B
:10168000EFE21FAFAA84034535001384018E831552
:10169000040005817D8951372310A40003C534005F
:1016A0008315240005817D89593F83C734002311A8
:1016B000A40003C5240083154400858B9207118183
:1016C0005D8DA13F83C734002312A40003C524000D
:1016D00083156400858B920711815D8D8D372313EF
:1016E000A400014549370547A384E18E6FE09FAA16
:1016F000EFE21FA88347350003472500B705002008
:1017000093F7F703135677008607D18F9385051457
:101710008607AE9783D7070031661377F70713065E
:10172000C61E06079386018E32972390F6008357D4
:101730000700034705002391F6008347150009833E
:1017400093F7E70FBE9583D705002392F6008347F2
:1017500015000145858B9A07D98F86073E968357DA
:1017600006002393F60001370547A384E18E6FE05E
:101770007FA2EFE2FF9F83473500834625000347A2
:10178000050093F7F7039D82860713764700D58FF0
:10179000058BAA841384018E8607630D070C6301F1
:1017A000060C31671307C71EBA9783D707002313A8
:1017B000F40001454D3D03C5240083150400098153
:1017C0007D89A13D2310A40003C5240083152400B6
:1017D00009817D89AD3583C724002311A40003C589
:1017E0001400831544008D8B8E0715815D8D353572
:1017F00083C724002312A40003C5140083156400CA
:101800008D8B8E0715815D8D1D3D2313A40005452D
:10181000993D03C51400831504007D89FD3B231009
:10182000A40003C51400831524007D89093D2311FC
:10183000A40003C50400831544000D81F93B231265
:10184000A40003C50400831564000D81CD3B231360
:10185000A4000945093D0D47A384E18E6FE09F93E5
:101860003707002013070714BA9783D707002312FE
:10187000F40081B711CA31671307C71EBA9783D71F
:1018800007002311F40035B73707002013070714AA
:10189000BA9783D707002310F40021BFEFE25F8DD2
:1018A000AA84034535001384018E83150400058145
:1018B0007D89A5332310A40003C5340083152400BB
:1018C00005817D89AD3B83C734002311A40003C586
:1018D000240083154400858B920711815D8D353B73
:1018E00083C734002312A40003C5240083156400B9
:1018F000858B920711815D8D99332313A4000145D7
:101900009D3383C7240003C5140083150400BD8BD9
:1019100086071D815D8D113383C724002310A40029
:1019200003C5140083152400BD8B86071D815D8DC2
:1019300039332311A40003C5140083154400098121
:101940007D89E1392312A40003C5140083156400C6
:1019500009817D89ED312313A40005452933094709
:10196000A384E18E6FE01F83EFE29F80AA8483C788
:101970003400034525003707002093F7F7039356FB
:1019800075008607D58F130707148607BA9703C714
:10199000040083960700B1671376E70F9387C71E8D
:1019A000B2970981058B839707007D891384018E87
:1019B00051CF831504002312D4002313F400EFF059
:1019C000DFC52310A40003C524008315240009816A
:1019D0007D89EFF0DFC62311A4000145EFF0BFC8F9
:1019E00083C7240003C51400831504008D8B8E0764
:1019F00015815D8DEFF07FC283C724002310A40002
:101A000003C51400831524008D8B8E0715815D8D11
:101A1000EFF0FFC22311A40003C514008315440096
:101A20007D89EFF09FBF2312A40003C51400831526
:101A300064007D89EFF0BFC02313A4000545EFF0DB
:101A40009FC20947A384E18E6FE0CFF48315440061
:101A50002310D4002311F400EFF03FBC2312A400A4
:101A600003C524008315640009817D89EFF03FBD23
:101A70002313A4009DB7EFE2AFEFAA84034535001E
:101A80001384018E8315040005817D89EFF0FFB872
:101A90002310A40003C534008315240005817D892B
:101AA000EFF0FFB983C734002311A40003C524005D
:101AB00083154400858B920711815D8DEFF0FFB592
:101AC00083C734002312A40003C5240083156400D7
:101AD000858B920711815D8DEFF07FB62313A400F3
:101AE0000145EFF05FB883C7240003C514008315D8
:101AF0000400BD8B86071D815D8DEFF01FB283C78B
:101B000024002310A40003C5140083152400BD8BFA
:101B100086071D815D8DEFF09FB22311A40003C5E0
:101B200014008315440009817D89EFF01FAF231253
:101B3000A40003C514008315640009817D89EFF0BA
:101B40001FB02313A4000545EFF0FFB183C71400B5
:101B500003C50400831504008D8B8E0715815D8DF0
:101B6000EFF0BFAB83C714002310A40003C504002B
:101B7000831524008D8B8E0715815D8DEFF03FACB2
:101B80002311A40003C50400831544007D89EFF0F0
:101B9000DFA82312A40003C50400831564007D8917
:101BA000EFF0FFA92313A4000945EFF0DFAB0D47C9
:101BB000A384E18E6FE00FDEEFE20FD9034735001B
:101BC000372400202384018EA384018E1983894643
:101BD000AE841304C45B630DD70C8D466308D70E27
:101BE0004DE38547A384F18E2312040023100400E3
:101BF00003C5918E0D468145EFF0EFB8316BB72BE1
:101C00000020938C818DA384A18E014CA28A130B9A
:101C1000CB4F938BCB2D9389818D83C7918E634955
:101C2000FC0A83C7340005472384E18EA384018E18
:101C300099838946638CD7148D466388D716639E33
:101C40000710A384E18E231204002310040003C5AF
:101C5000918E0D468145EFF00FB3B169372A002010
:101C6000138B818DA384A18E814A9389C94F130A56
:101C7000CA2D9384818D83C7918E63CCFA126FE055
:101C80002FD0034715008347250083460500220710
:101C9000BD8B558FC207D98F81E7EFF07F9E89BF3B
:101CA0008D8A81E6EFF0DFA4A1B7EFF09FAC89B792
:101CB00083471500034705008D8BA207D98F81E765
:101CC000EFF0DFBD35B7EFF03FCA1DB76D330DB78D
:101CD00003974A0083C76B000A075A971843B387D4
:101CE000E702918323A2FC0083976A008A07DA97B0
:101CF000884319C9130600143306C5028146379577
:101D00002F50A545EF60800723A0A900CE8501458F
:101D1000092C03970A0083C78B000A075A971843B8
:101D2000B387E702918323A2F90083972A008A07E9
:101D3000DA97884319C91306000A3306C50281469B
:101D400037952F50A545EF60600323A0A900CE85ED
:101D50000945C12A050CA10AC9B503C7140083C7E8
:101D6000240083C604002207BD8B558FC207D98F7C
:101D700089E72685EFF0DF90D9BD8D8A268581E63B
:101D8000EFF01F97E9B5EFF0DF9ED1B583C71400E0
:101D900003C7040026858D8BA207D98F81E7EFF05A
:101DA000FFAF75B5EFF05FBC5DB52685EFF0BFCC3A
:101DB00079BD0317440083477A000A074E971843FA
:101DC000B387E70291832322FB00831764008A070D
:101DD000CE97884319C9130600143306C5028146FD
:101DE00037952F50A545EF50707988C0A6850545D9
:101DF0000D2A0317040083479A000A074E971843D9
:101E0000B387E7029183DCC0831724008A07CE974B
:101E1000884319C91306000A3306C502814637955F
:101E20002F50A545EF50907588C0A6850D45D52843
:101E3000850A210489B5EFE2AFB3B727002083C438
:101E4000D72D370400201306001093F784008DC7A8
:101E5000B1659385C52E13050414C188EFE04FB416
:101E600091C813050414B16541469385C53E090523
:101E7000EFE00FB36FE00FB2B1659385C53FE1BFEF
:101E8000EFE20FAF37260020B735002037350020AE
:101E90002147930600021306465D93854595130579
:101EA00005A9EF30401C37260020B7350020373514
:101EB00000202147930600021306465F938545855F
:101EC0001305C5A7EF30201A37260020B7250020BC
:101ED000373500202147930600021306466193859B
:101EE0004575130585A6EF30001837260020B72565
:101EF0000020373500202147930600021306466371
:101F000093854565130545A5EF30E0158547238288
:101F1000F192A382F1922383F192A383F1926FE075
:101F20006FA7B9CDEFE2CFA489476309F50263E259
:101F3000A7021DE9373500202146130505A9EF301A
:101F4000601619C9054705452384E190EF30C05D4F
:101F500021A08D476300F5026FE0CFA33735002045
:101F600021461305C5A7E1BF3735002021461305DB
:101F700085A6F1B7373500202146130545A5C1B721
:101F80008280EFE2EF9E83C7719295CF37350020B4
:101F9000930705A9D44785CA83C78700B7360020B1
:101FA000938646958E07B6979443DC43A3830192AC
:101FB00013874194130505A95CC314C3EF30202295
:101FC0000547A385E19283C7619295CF37350020FD
:101FD0009307C5A7D44785CA83C78700B7360020B3
:101FE000938646858E07B6979443DC4323830192FC
:101FF0001387C1931305C5A75CC314C3EF30201E1C
:1020000005472385E19283C7519295CF373500204C
:10201000930785A6D44785CA83C78700B7260020C3
:10202000938646758E07B6979443DC43A38201924C
:1020300013874193130585A65CC314C3EF30201AA0
:102040000547A384E19283C7419295CF373500209D
:10205000930745A5D44785CA83C78700B7260020C4
:10206000938646658E07B6979443DC43238201929C
:102070001387C192130545A55CC314C3EF30201626
:1020800005472384E1926FE0EF9021C29841E16718
:102090009387076A3E9798C16374C70001458280A1
:1020A000B356C702835705003377C702B697C207F6
:1020B000C1832310F50098C1056713070780E37FEC
:1020C000F7FC93F7F77F2310F50005458280EFE2D8
:1020D0002F8AB727002083C7C72D2A87368493F716
:1020E00007042E855443B28595C3854781CE10439E
:1020F000693F814701C983A7C18E818F93B7A70F1D
:1021000093C7170013F5F70F6FE0CF8899EA03A57F
:10211000C18E018D1335A50F134515001375F50FED
:10212000E5B710439D3765F5D5BF370500403971D8
:1021300085451305054022DE26DC4ADA4ED852D604
:1021400056D45AD25ED062CE66CC6ACA6EC8EF5000
:10215000B0188547631DF52483A7C18E138D170022
:1021600023A6A18F372700200347D72D93844195BD
:102170003704002013770702138C41969389C19589
:102180001389C194130404246302072C83A6C18F0E
:1021900013868191938521921385419636C6053F1A
:1021A00001CD83C5B19203C6A18EB24663800522DC
:1021B000136616002385C18E83A6818F13864191F5
:1021C000938501921385C19536C6113701CD83C51C
:1021D000A19203C6A18EB246638A0520136626002B
:1021E0002385C18E83A6418F138601919385E1914A
:1021F0001385419536C6E13D01CD83C5919203C655
:10220000A18EB24663840520136646002385C18EE5
:1022100083A6018F1386C1909385C1911385C194C4
:1022200036C6EFF0DFEA01CD83C5819203C6A18EE9
:10223000B246638D051E136686002385C18E83C654
:10224000A18E13F6160005C6A3850192138641944C
:102250000C4250422320BC002322CC008545239110
:10226000019223AC0190A383B19223AEA18F13F608
:10227000260005C6238501921386C1930C42504265
:1022800023A0B90023A2C90023AA01908545239069
:1022900001922383B19223ACA18F13F6460015C29D
:1022A000A3840192138641930C4250428CC0D0C04B
:1022B00023A801908545239F0190A382B19223AA70
:1022C000A18FA18A85C6238401929386C1929042F0
:1022D000D4422320C9002322D9000546239E019021
:1022E00023A601902382C19223A8A18F83A60181F6
:1022F00083D7219203274C0003A649008607A297A3
:10230000839707002385018EB387E70203D70192E5
:1023100006072297031707003307C702BA97A98752
:10232000B387D702C5879387072D23A2F19083D760
:10233000E191D8408607A29783970700B387E70209
:1023400003D7C19106072297031707000326490008
:10235000B71900203307C7023719002003A6093335
:102360008325C9323704004013040440BA97A98773
:10237000B387D702C5879387072D23A0F19003A5C4
:102380004190EFE05FC042054181231EA4028325F6
:10239000C93203A6093303A50190EFE0DFBE420571
:1023A00041812310A40485452285EF50A074725406
:1023B000E2545259C259325AA25A125B825B724C91
:1023C000E24C524DC24D2161730020303166B3069C
:1023D000DD401306F634E371D6DE83C64181232245
:1023E0000C0093E61600238AD180F9B33166B30658
:1023F000DD401306F634E377D6DE83C6418123A29F
:10240000090093E62600238AD180E9BB3166B30632
:10241000DD401306F634E37DD6DE83C6418123A278
:10242000040093E64600238AD180DDB33166B3060B
:10243000DD401306F634E374D6E083C641812322DF
:10244000090093E68600238AD180D5BB03C7B192E9
:102450000DCBA3850192938641949842D4422320C8
:10246000EC002322DC00A383A1929387419491C2C4
:1024700009EB23AC01902391019223200C0023A2AD
:10248000070003C7A19215C7238501929387C193C3
:102490009843DC43054623A0E90023A2F9002383E7
:1024A000C19291C319E723AA01902390019223A01E
:1024B000090003C7919215C7A384019293874193A2
:1024C0009843DC43054698C0DCC0A382C19291C307
:1024D00009EB23A80190239F019023A0040023A2CD
:1024E000040003C7819215C7238401929387C19288
:1024F0009843DC4305462320E9002322F900238288
:10250000C19291C319E723A60190239E0190232035
:10251000090003260C009385819113852192EFF029
:10252000DFB603A609009385419113850192EFF070
:10253000DFB59040938501911385E191EFF0FFB4F1
:10254000032609009385C1901385C191EFF0FFB375
:1025500083A6018183D7219203274C0003A649005B
:102560008607A29783970700B387E70203D70192F4
:1025700006072297031707003307C702BA97A987F0
:10258000B387D702C5879387072D23A2F19083D7FE
:10259000E191D8408607A29783970700B387E702A7
:1025A00003D7C19106073A940317040045B3EFD24D
:1025B0003FBCAA853765004013050580EF40707465
:1025C000133515006FD01FBDEFD29FBAAA853765AE
:1025D000004013050580EF4030711375F50F6FD083
:1025E0007FBB376700408357478113070780A1836C
:1025F000A386F19683574701C207C18393F707F07B
:10260000C207C183231AF70073002030EFD2BFB492
:10261000376500404111814513050580EF40B05FEB
:1026200037140140930700400D49D1494C00130570
:1026300004C03EC24AC44EC68564EF40103993843C
:1026400004804C00130504C04EC64AC423129100F6
:10265000EF40B03793050040130504C0EF40D0436E
:10266000A685130504C0EF40F0420545EF30203B3E
:1026700093050040130504C0EF40D0410545EF30FD
:10268000003AA685130504C0EF4010410545EF3020
:102690000039A949130A04C0056993050040528511
:1026A000EF40903FA6855285EF40D03E0545EF3084
:1026B0000037930500405285EF40D03D0545FD1998
:1026C000EF30E035E39B09FC130504C0930500409F
:1026D000EF40903C93050980130504C0EF40D03BC8
:1026E0000545EF30C03393050040130504C0EF40AB
:1026F000703A0545EF30A03293050980130504C0F8
:10270000EF4050390545EF30803191474C001305BB
:1027100004C03EC6EF40702B93050980130504C02A
:10272000EF40903641016FD05FA6EFD27FA43764AF
:102730000040814513050480A3870196EF40B04D0A
:1027400013050480EF40F038EFF05FEC83C7D196BB
:102750005D8D1375F50F01C937350C0001468145B4
:10276000130505502920EF3080246FD0BFA2EFD28F
:102770009F9E0111AE842A8985452545328402C277
:1027800002C402C602C802CA02CC02CEEF40707C6C
:10279000854537054000EF40B07D371A0140930969
:1027A0000040714B8D4A4C0013050AC023123101C1
:1027B0005AC656C4EF4070218567938707804C0046
:1027C00013050AC02312F1005AC656C4EF40F01F89
:1027D000B7070040231C9100B76400403ECA0C08B4
:1027E000916713850480231EF1004AC8231D31011F
:1027F000EF405031854513850480EF40D041096595
:102800001306800CB70502001305E55AEF30601D72
:1028100009C909C8854513850480EF403049EFF0A8
:10282000DFF00544A387819605616FD01F9683C7AB
:10283000F196638C0712EFD21F9237640040AA8A88
:102840002E8A130504808545EF4070420965130602
:10285000800CB70502001305E55AEF30801883C7D6
:10286000D1961375F50FC98F91C705472387E19658
:102870006FD0BF91854513050480EF40903BB709A9
:10288000030009691306800C938519001305895C00
:10289000EF30201583C7D1961375F50FC98F99C3F3
:1028A0000947E9B701469305400D13050480EF4041
:1028B000F03E370B07001306800C93052B08130519
:1028C000895CEF30001283C7D1961375F50FC98F5D
:1028D00099C30D4761BFD68513050480EF40103BB7
:1028E0001306800C93054B081305895CEF30600FCD
:1028F00083C7D1961375F50FC98F99C31147BDB71B
:10290000D28513050480EF40903685451305048079
:10291000EF4030321306800C938519001305895C53
:10292000EF30200C83C7D1961375F50FC98F99C36B
:1029300015472DBF05469305400D13050480EF4054
:10294000F0351306800C938529001305895CEF3060
:1029500040099377F50F03C5D1965D8DE30A05F025
:1029600099462387D1963E8521B705458280EFD2CF
:102970008FFE2E891375F50F8145EFF05FEB83C74E
:10298000D1962386A1965D8D1DE5B70503000965E7
:102990001306800C938505041305855CEF306004F5
:1029A00083C7D1961375F50F2386A1965D8D19C542
:1029B00025472387E196EFF05FD725A0B769004050
:1029C00013850980EF40F02C2300A900854513856D
:1029D0000980EF40F02783C7C19603C7D196D98FEE
:1029E000F9FB03C5C196B72700202385A7366FD012
:1029F000CFF9EFD26FF585476316F600EFF03FF79A
:102A00006FD00FF82E8985453284EFF05FE2AA84FB
:102A100035E17D14370A0300856AB76900401374F5
:102A2000F40F130A0A04896B938A0A809389098038
:102A30009307F00F6303F4021306800CD28513850D
:102A40008B5CEF20107A83C7D1961375F50FC98F71
:102A500095C71D472387E196AA8437650040130573
:102A600005808545EF40D01E83C7D196C58F13F5ED
:102A7000F70F59D5EFF07FCB268559B785476316F9
:102A8000F400D6854E85EF40D0234E85EF40702070
:102A90007D142300A9001374F40F050951BF83C7E7
:102AA000F19691E38280EFD20FEBAA8A096541117A
:102AB000AE891306800CB70502001305E55AEF2016
:102AC000507283C7D1961375F50FC98F8DC32947EF
:102AD0002387E19683C7D196C98F93F7F70F89C7EC
:102AE0002AC6EFF09FC4324541016FD00FEA376923
:102AF0000040854513050980EF40B013B70503007A
:102B0000096A1306800C850513058A5CEF20706D39
:102B100083C7D1961375F50FC98F99C32D474DBF44
:102B200001469305400D13050980EF403017370B20
:102B300007001306800C93052B0813058A5CEF2011
:102B4000506A83C7D1961375F50FC98F99C3314762
:102B500041B7D68513050980EF4050131306800C4A
:102B600093054B0813058A5CEF20B06783C7D196A5
:102B70001375F50FC98F99C3354799BFCE851305D6
:102B80000980EF40B0101306800C93054B08130525
:102B90008A5CEF20106583C7D1961375F50FC98F36
:102BA00099C3394735B7130509808545EF40500A69
:102BB00001450DB737350C00054681451305055015
:102BC0006FF0FFBAEFD2CFDA41112E849305F100F6
:102BD0002A89B284EFF0BFD909ED8347F10093C48D
:102BE000F4FF4A85E58FB365F400A307B100EFF069
:102BF0001FEB41016FD00FDAEFD28FD74111930550
:102C0000F1003D45A3070100EFF07FD611E98347AE
:102C1000F1008546938777F993F7F70F63FBF60486
:102C200083A74198850723A2F19803C7019809C794
:102C30000D4541016FD00FD62547637BF7008547CF
:102C400005452380F198EF20300E83C70198EDF3FE
:102C50009305F1007945EFF09FD11DC583A7C19879
:102C6000850723A6F19883A78198850723A4F19867
:102C7000C9B783C7019823A2019881C70545EF20F2
:102C8000B00A23800198E9B78347F1000D47094551
:102C90008D8BE390E7FA83A7C198B73500203146C2
:102CA0008507938585AF1305200223A6F198EFF0E1
:102CB0005FD441D183A781980545850723A4F19866
:102CC0008DBFEFD2EFCA19441306F00F8545494571
:102CD000EFF05FEF09C57D141374F40F75F4294507
:102CE000EF20F05519441306F00F930500084D45E9
:102CF000EFF05FED09C57D141374F40F6DF4194402
:102D00001306F00F9305E0084145EFF0BFEB09C54E
:102D10007D141374F40F6DF419441306F00F93052A
:102D2000C0054545EFF01FEA09C57D141374F40F83
:102D30006DF419441306F00F930540044945EFF074
:102D40007FE809C57D141374F40F6DF41335150075
:102D5000A38EA1986FD00FC4EFD28FC11306000FBE
:102D600081454145A38E0198EFF0DFE51306000F82
:102D700081454545EFF01FE56FD0CFC18280EFD28E
:102D80002FBC83C7819713074002373A0020B387CF
:102D9000E7023724002013074AAA411193064AAAE2
:102DA00036C6BA970307C42D23AAF196635D0700C0
:102DB0001306400281453E85EFD0EFBFEF3030294A
:102DC00041016FD0AFBB83C7F196FDDB83C7C199CB
:102DD000E5DB83C7E1991304C42D81E78D47238F79
:102DE000F198EF20D03C8347F40003A7C1978346B6
:102DF000E400A2073307E540D58F2A8CE362F7FC95
:102E0000EFF09FDF55FDB73C0020138D4CB03737F6
:102E10000020130787AF13068D0193874CB01384EE
:102E20004CB09443831507000907AE9694C39107ED
:102E3000E399C7FE03C9919703A701970509137981
:102E4000F90F8567A38C219723AE81973307EC4058
:102E500093877738E3F6E7F60840373A0020930483
:102E6000CAAEEF70503483A58199EF708043EF7044
:102E7000902D08C04840EF70103383A54199EF7042
:102E80004042EF70502C48C00844EF70D03183A509
:102E90000199EF700041EF70102B58449307000622
:102EA000130640063387E70208C43347C70258C4F5
:102EB00018483387E7023347C70218C85848B38712
:102EC000E7021307CAAEB3C7C7021386C4005CC8C3
:102ED00081476308090083270D00B3C72703C20792
:102EE000C1872310F7000907110DE313C7FE6146E0
:102EF000814513854CB0A38C0196EFD0CFAB03A4D2
:102F00004197194623A881971309C400CA852285D1
:102F1000EFD00FA9130C84011946E2854A85EFD042
:102F20002FA8373900201946930529AF6285EFD0C5
:102F30002FA783C7C1990547639EE70899676977FB
:102F4000130929AF9387871A130787E5839604002F
:102F500063DDD7062390F4008904E39924FF9304EA
:102F600024011946A68513056400EFD06FA37904E8
:102F70001946A2852685EFD0AFA219469305CAAEA1
:102F80002285EFD0EFA183C7E199FD1793F7F70FE3
:102F9000238FF198E39607E203A54197EF30300BBA
:102FA00003C58197930740021306400213351500AD
:102FB000238CA1963305F502B24781453E95EFD0AB
:102FC0008F9F8D47238FF198E5BBE3D7E6F82390D9
:102FD000E40059B70947E398E7FA2285EF00206E2D
:102FE0005DB7EFD24F97832A0500032A45002A8454
:102FF000832985000329C500D6855685EF70602A90
:10300000AA84D2855285EF70C029AA852685EF60F3
:103010005031AA84CE854E85EF70A028AA852685DA
:10302000EF603030AA84CA854A85EF708027AA8570
:103030002685EF60102FEF40B03EAA8503A5C1871B
:10304000EF60B064AA84AA855685EF70802508C019
:10305000A6855285EF70E02448C0A6854E85EF70A6
:10306000402408C4A6854A85EF70A02348C46FD0C9
:10307000CF91EFD26F8D832BC500C445832A050005
:1030800083A90500032A450003AB450003298500F9
:1030900003AC85002A84A6855E85EF708020AA8C0B
:1030A000CE855685EF70E01FAA856685EF70204DAE
:1030B000AA8CDA855285EF70C01EAA856685EF70EE
:1030C000004CAA8CE2854A85EF70A01DAA85668512
:1030D000EF70E04A48C4CE855E85EF70801CAA8CF4
:1030E000D6852685EF70E01BAA856685EF60702384
:1030F000AA8CE2855285EF70C01AAA856685EF60BA
:103100005022AA8CCA855A85EF70A019AA856685B7
:10311000EF70E04608C0DA855E85EF708018AA8CF3
:10312000E2855685EF70E017AA856685EF70204529
:10313000AA8CD2852685EF70C016AA856685EF60B9
:10314000501EAA8CCA854E85EF70A015AA8566858B
:10315000EF60301D48C0E2855E85EF708014AA8B59
:10316000DA855685EF70E013AA855E85EF60701BE7
:10317000AA8AD2854E85EF70C012AA855685EF7057
:103180000040AA89CA852685EF70A011AA854E85C0
:10319000EF60301908C46FC0BFFEEFC27FFA2A8407
:1031A00003A5419A7971AE843305A640328AEF6057
:1031B0005010AA8903C5140083C704002E89220574
:1031C0005D8D4205418523A2419BEF6090074E86AD
:1031D000CA86EF50103F03A6018483A64184EF50B6
:1031E000503E2A8D03C5340083C72400AE8C2205CF
:1031F0005D8D42054185EF60D0044E86CA86EF5052
:10320000503C03A6018483A64184EF50903B2A8C56
:1032100003C5540083C74400AE8B22055D8D420573
:103220004185EF6010024E86CA86EF50903903A6A2
:10323000018483A64184EF50D0382A8AAE896A86F9
:10324000E6866A85E685EF50D0372A89AE846286A5
:10325000DE866285DE85EF50D0362A86AE864A85C8
:10326000A685EF40B06C2A89AE845286CE86528500
:10327000CE85EF5010352A86AE864A85A685EF406A
:10328000F06A2A86AE862A89AE84EF50903303A670
:10329000818483A6C184AE8D2AC6EF50A05703A6B1
:1032A000018583A641852A8BAE8A4A85A685EF5083
:1032B00060562A86AE865A85D685EF60200503A61D
:1032C000818583A6C185EF4070662A8BAE8A2A86E7
:1032D000AE866A85E685EF50D02EEF7050175A867D
:1032E000D6862ACADE856285EF50B02DEF70301683
:1032F0005A86D6862ACCCE855285EF50902CEF7018
:103300001015B24703A6018683A641862ACEEE8514
:103310003E85EF50205003A6818683A6C1862A8A67
:10332000AE894A85A685EF50D0292A86AE86528579
:10333000CE85EF50B07D03A6018783A64187B714E1
:103340000020EF40B05EEF7090104C082AD013853B
:103350000424EFF01FD213850424EFF09FC88347A5
:1033600014000347040093840424A207D98F2398F0
:10337000F4008347340003472400A207D98F239920
:10338000F4008347540003474400A207D98F239ACF
:10339000F40045616FC09FDEEFC21FDB83C765008D
:1033A000373900204111F19B93E727002383F50073
:1033B00003C7E1998D47AA842E841309C9B163120A
:1033C000F702EF20406023A0A19A232009002322C6
:1033D0000900232409002326090023180900A38FCC
:1033E000019803C5F19999471946130A1500330549
:1033F000F502137AFA0FA38F4199B739002093850C
:10340000C9AE4A95EFC0DFD98D47631BFA268347C3
:103410006400370B0080854ACD9B2303F4007D1B9D
:10342000914B034A640093972A00A69788439377A9
:10343000CA00A6978C4333756501B3F56501EF604B
:103440007053635BA00093F73A008A07137A3AFF40
:10345000336AFA0023034401850AE3947AFD034AA0
:10346000640093050000135A2A00137A3A00931758
:103470002A00A6978843EF605059635F052203AB8B
:10348000018883AB4188130C4100814A050A8D4CA9
:10349000B3075A018D8B8A07A6978843DE85850A74
:1034A000EF603060DA85EF60D05FEF70C0492320B5
:1034B000AC00110CE39E9AFD83471402034764009D
:1034C000A30A040093F707F8A300F40292473D8B88
:1034D000230B0400A58793F6F7009206558F23036C
:1034E000E40013D74700A303E40013D7C700230465
:1034F000E4002247D183858B25879376F7078606DC
:10350000D58FA304F400935777002305F400B24746
:103510003D831377F70393D697409A06558FAD876F
:10352000A305E400A30B0400A30F0400230004027E
:1035300013D787002309F400C183A309E4009D8BFE
:1035400003A7019A230AF40083471402058B1E0780
:1035500093F7F707D98FA300F40283A7019A230FEB
:1035600004009389C9AE85832301F40203A7019A5D
:103570008347340225830D8BF19BD98FA301F4027D
:10358000EF20604483A7019A1D8D834734020A050A
:103590008D8BC98FA301F40203970900031809005A
:1035A00083474401B306074113F6860F9D8BD18FE5
:1035B000A182230AF400A30AD400039629008318E9
:1035C000290083467401B30716418D87230BF4004D
:1035D000A183819AFD8BD58FA30BF40083964900BC
:1035E0000315490083457401B387A64013D33740C0
:1035F0001603FD89B3E56500A30BB400031369004E
:10360000998793D58700230FF400B30707019A9792
:103610007558B3C7070313F735009A97A58713F3B7
:10362000F7030A0333676700A30FE40003470402AC
:103630009983858B799BD98F2300F4020317890026
:10364000B3071601BA97B3C70703BA970347040233
:10365000A5878607058BD98F2300F4020317A900DD
:10366000B387A600BA97B3C70703BA9703471402F4
:10367000A58793F7F707137707F8D98FA300F4020C
:1036800083C704012300F40083C71401A300F400DE
:1036900083C724012301F40083D72401A183A3015C
:1036A000F40083C744012302F40083C75401A3023A
:1036B000F40041016FC0DFAC03ABC187D9B3EFC2E7
:1036C0003FAB2A84EF20A02E2A86B735002037355D
:1036D00000209385C5AE130525AFEFF01FAC37155D
:1036E0000020A28513050524EFF01FCB6FC09FAA11
:1036F00083C7C19C89EBEFC2BFA7EFD03FCD23AA00
:10370000A18C6FC03FA9014523AAA18C828031C939
:10371000EFC21FA62A84EFF0BFFD03C7418D23002F
:10372000E40003C7518D83C7618DA300E40023012A
:10373000F40083A7819CA301F40013D78700C18301
:10374000A302F40083A7419C2302E4002303F400B6
:1037500013D78700C183A303E4002304F4006FC0E0
:103760007FA38280EFC23F9F372400209307C42DA0
:1037700003C717008946328A19831304C42D93178F
:1037800016006307D7188D46630DD71A8546631850
:10379000D7029356F54133C7A600158FB306F40040
:1037A00003C61602635DC70013D6F54183C6260221
:1037B0003347B600118F6354D70081450145A29766
:1037C0008389A7000389B70083475401B389A902FD
:1037D00003474401A207D98F3309B90293D959404D
:1037E00013595940B5CFB307290313172A00238C67
:1037F000019AB3843903BE949387018CBA979C4392
:1038000063E5F4008547238CF19AEF20401A11E11B
:10381000054561473307EA02B7370020938607B4AE
:10382000138607B4BA96984209CF8347540183455B
:1038300044013307E540A207CD8F636BF71423A043
:10384000060083C7819B89CFE147B307FA02B2978D
:1038500084CBFD8423A2370123A42701C4CB88C3D2
:10386000856A13850A802A991386FAFF81454E9549
:10387000EFD06FF1AA841386FAFF4A858145EFD015
:103880008FF0034714002A89118B35CFA5473306E3
:10389000FA02372400201304843A32948346E40366
:1038A000034744048345D40303453404BD8A3D8B58
:1038B000A2062207D58D598DEFD0AFEA23AAA19A8F
:1038C0000346E4038345F403034744048346540456
:1038D0001182118392069205D18D33E5E600EFD077
:1038E0004FE803A6419B23A8A19AB305C0402685B3
:1038F000EFD06FE903A6019BAA844A85B305C040B7
:10390000EFD06FE82A891315C90026956FC0FF878D
:103910009356F54133C7A600158FB306F40083C64E
:1039200016026353D700014593D6F54133C7B6005D
:10393000158FB306F40083C62602E352D7E881450B
:10394000BDBD3307F4001356F54103471702B346D4
:10395000A600918E63CCE602FD566343A000854627
:103960003307D7023A953307F40013D6F5410347DE
:103970002702B346B600918EE3C3E6FCFD566343CF
:10398000B00085463307D702BA9515BD0145E1BFA2
:10399000D8429C463387E902B307F9023E97E352C7
:1039A00007EA8C4AD44A93D7F441B387F502B38629
:1039B000960233889502B697B3B59502AE978D45BA
:1039C000B387F502B3860503B3B505038D82AE97C1
:1039D0009395D701CD8EB305E7028D873317E702A4
:1039E000E361F7E66394E700E3EDD5E4238C019A05
:1039F00001498149B9B5EFC2AFF79387C18C03D7AD
:103A0000470003D5070083D52700B734002083D7AC
:103A100067003724002013040436938404B798C445
:103A200003474400DCC48347340022078346140064
:103A30005D8F8347240088C0CCC0A207D58F998DA5
:103A400001461D8DEFF01FD20347840023A4A19CE3
:103A5000834774002207834654005D8F83476400C8
:103A6000CC448844A207D58F0546998D1D8DEFF073
:103A70007FCF23A2A19C6FC0EFF1EFC2CFED83C730
:103A8000C19CA387019A2387019A6384071E372567
:103A90000200EFD0DF9B83C7C19C638C071C3705F6
:103AA000020013050504EFD09F9A6314051C83C719
:103AB000D19A8DC7372700201307C72D83470700EA
:103AC00093C6070893F6060893F7F707D58F2300E8
:103AD000F7008547A387F19A2387F19A83C7C19C92
:103AE000A386A19A6389071837850400EFD03F9613
:103AF000AA896312051883C7C19A85CF372700208A
:103B00001307C72D8347070093C6F7FF93F60602F6
:103B100093F7F7FDD58F2300F700958393C7170020
:103B200013F51700EFD03FAB8547A387F19A2387A2
:103B3000F19A83C7C19C2386319B638007143705A4
:103B4000020013050508EFD09F906318051283C784
:103B5000B19A9DC3372700201307C72D834707005D
:103B600093C6F7FF898AF59BD58F2300F700854719
:103B7000A387F19A2387F19A83C7C19CA385A19A51
:103B8000638F070E41650505EFD07F8CAA89631806
:103B9000050E83C7A19A85CF37350020835705B31B
:103BA000797713070708F98F93E707602318F5B2B1
:103BB00083C7D19D130705B3130505B393B717004A
:103BC000A301F700EF20803885472387F19A83C748
:103BD000C19C2385319BD5C7416513050510EFD0E6
:103BE0001F87AA8959ED83C7919AA1C3B7250020E1
:103BF0009387C52D1385A7FF9385C52D9306F00FD9
:103C000003C7B70113061700A38DC7006315D700BC
:103C1000FD17E397A7FE373500201946D905130590
:103C20006506EFC0EFD7EFC03FE483C7C19CA38414
:103C3000319BB1CBB737002083C75706A9E737853B
:103C40000200EFD0DF8021E183C7819A81C705455B
:103C5000EF20204E2384019A83C7E19A81C705454E
:103C6000EF10900C83C7F19A99C3EFC0FFDF6FC0CC
:103C7000CFD10545A5B585496DBD0545F5BD85493E
:103C8000B9B785495DB701452384019AEF20604AA1
:103C9000E1B7EFC2EFCD370502001105EFD02FFBE2
:103CA00015E983A7019C95C3EF10F05183A7019CF0
:103CB0001D8D9307400663F8A70005470545238639
:103CC000E19CEF10F0236FC0EFCCEF10D04F23A09A
:103CD000A19CD5BF83C7C19CFDD70145EF105022E1
:103CE0002386019C23A0019CF9BFEFC26FC883A764
:103CF000819D850723ACF19C81E7054723ACE180DA
:103D0000EF10704C83A7C19B6300F502EF10B04B1E
:103D100083A7818183A6C19B958FAA9723ACF1804D
:103D2000EF10704A23AEA19AEFF0BFF6EFE06FA557
:103D3000EFF0EF84EFF07FD4B737002003C55706CC
:103D4000EF10501DEF20D00A6FC0CFC4EFC24FC29A
:103D50002A84AA8513050020EF30B01FA2850545EF
:103D6000EF30501DA2850545EF309020A285094512
:103D7000EF301020A2850565EF30B01DA2851165DA
:103D8000EF30301DB7040240A28513854404EF30A4
:103D9000800CA28513858405EF30E00BA285138586
:103DA0008400EF30400BA28537050040EF303048EB
:103DB00037050040A28513050540EF305047B74452
:103DC0000140A28513850480EF30105E22869305A2
:103DD000000413850480EF30B05E6FC0AFBBEFC24C
:103DE0002FB9371702401C43B70608000111D58FC1
:103DF0001CC30545EF30D007716513050520EF3072
:103E0000305F373500201306500281451305050643
:103E1000EFC06FBA35651305C59FEF70C0158545B6
:103E20007145EF301013854513050020EF307012F7
:103E300085450545EF30101085450545EF30501399
:103E400085450945EF30D01285450565EF30701086
:103E500085451165EF30F00FEF105037EF1010343B
:103E60002945EF10D03DEF204075EFC0BFCB680073
:103E7000EF305001EFD06FC9EF10F04DEF10D0428E
:103E8000EFD00FA2EF200037EF108011EF10006B82
:103E9000EFE05FD2EFE09FEEEFE0BFE2EFC01FC0C8
:103EA000EFC02FB5EF300074AA850545EFC0FFA322
:103EB00005616FC02FAEEFC20FAA0545EF308067D6
:103EC000EF10301DEFF0BFF183A54182356513057A
:103ED00005A1EF60D0753145EFD06FD7238EA19C3F
:103EE000EF00B07B0D651305E570EF20F00BEF20C0
:103EF0009016014537440020B7340020EFD04FDC46
:103F00001304C4F493840406054BEF107070EFF0B3
:103F10009FAEEFF0EFFD83A7418D13D787002300FD
:103F2000F400C1832301F40083A7819CA300E40073
:103F3000A301F40013D78700C183A302F40083A771
:103F4000419C2302E4002303F40013D78700C183BC
:103F50002304F40083C7A18AA303E40091CF238242
:103F60006401EF20F01EEF20F00FEF20E07DEF1056
:103F7000F050EFF09FD751BFA382040023820400CA
:103F8000EDB782808345D5000345B5001306F00FD9
:103F90006FE05FC3828082808280B7370020938782
:103FA00007B823A607022394070223A207028280F0
:103FB000EFC20F9C37340020AA84EFF01FFE1309D4
:103FC00004B889679387071A130620029385B40003
:103FD000130529002310F4B8EFC08F9C930740020B
:103FE000130504B82314F902EF00D06F6FC08F9A45
:103FF000EFC20F982A84EFF05FFA0347A400373529
:104000000020930705B8930600F8A380E700130586
:1040100005B80D472380D7002381E7002394E702EA
:10402000EF00506C6FC00F97EFC2EF92AA84EFF0D1
:10403000DFF603C7A40083C9B400373A0020930712
:104040000AB8930610F82380D700A380E7002381E5
:104050003701854713090AB8638EF9008947638AD7
:10406000F9048D4713050AB82314F902EF0090678D
:104070006FC0AF91373400201304040619469385AE
:10408000C4001305C400EFC0AF9119469305640046
:1040900013053900A3093401EFC08F90B165614663
:1040A0009385851713059900EFC08F8F9307100232
:1040B00055BFB735002041469385450713053900A4
:1040C000EFC00F8ECD4779BFEFC28F8A2A84EFF001
:1040D000DFECB727002083C7B72FADCF0547638F2D
:1040E000E7060D4793079004B71500209386C52671
:1040F0002380E6000347A40037340020A380F600A5
:10410000930704B8930620F82380D700A380E70024
:10411000B7370020938707061387C5269386A7FF26
:10412000930404B803C6B700FD170507A301C70031
:10413000E39AD7FE31469385C52613852400EFC048
:104140002F86B947130504B82394F402EF00905961
:104150006FC04F840D479307800479B711479307C9
:10416000300359B7EFC2CF802A84EFF01FE3034733
:10417000B4008D46930707FD93F7F70F63E4F6004D
:10418000A38AE1800347A40037350020930705B8D0
:10419000930600F8A380E700130505B809472380BC
:1041A000D7002394E702EF00F0536FB0BFFEEFB2E9
:1041B0003FFC2A84EFF07FDE8347A400B734002061
:1041C000138404B8B7150020130730F839469385D7
:1041D000C525130524002300E400A300F400EFB07C
:1041E0003FFCC147138504B82314F402EF00904F3D
:1041F0006FB05FFAEFB2DFF72A84EFF01FDA034700
:10420000A40037350020930705B8A380E7000547D1
:10421000930600F82381E700130505B80D472380B6
:10422000D7002394E702EF00F04B6FB0BFF6EFB278
:104230003FF42A84EFF07FD60347A40037350020EF
:10424000930705B8930600F8A380E700130505B8A7
:104250000D472380D700238107002394E702EF0056
:1042600070486FB03FF36FF09FFC6FF05FFC6FF032
:104270001FFCEFB25FEE4111AA84EFF01FD29385CD
:10428000B4002E852EC6EFC09FCE83C7F4007547BD
:10429000B2452A8975446364F70013F4F70F83C7A6
:1042A000A400B739002037350020130700F99384A4
:1042B00009B81546130525B82380E400A380F4004F
:1042C000EFB01FEEB73500202286938575B84A857A
:1042D000EFC00FF21D041374F40F138509B8239473
:1042E0008402EF00304041016FB03FEAEFB25FE877
:1042F00041112A84EFF07FCA1305B400EFC03FC715
:104300000346F400930504018546AA8432C62EC4F0
:10431000EFC0FFAE3246A2452685EF10305403476A
:10432000A40037350020930705B8930600F8A38052
:10433000E700130505B80D472380D7002381070048
:104340002394E702EF00103A41016FB0BFE4EFB2EF
:104350003FE22A84EFF07FC40347A40037350020F2
:10436000930705B8930600F8A380E700130505B886
:1043700009472380D7002394E702EF00B0366FB0DF
:104380007FE16FF0DFFC6FF09FFCEFB27FDE2A84ED
:10439000EFF0BFC00347A40037350020930705B8EE
:1043A000930600F8A380E700130505B81307400241
:1043B0002380D7002394E702EF00D0326FB09FDD57
:1043C000EFB21FDB2A84EFF05FBD0347A40037354F
:1043D0000020930705B8A380E700130505B8094737
:1043E000238007002394E702EF00D02F6FB09FDAFD
:1043F000EFB21FD82A84EFF05FBA0347A400373525
:104400000020930705B8930600F8A380E700130582
:1044100005B859472380D7002394E702EF00902C7A
:104420006FB05FD7EFB2DFD42A84EFF01FB7034538
:10443000B400A38AA19CEF10E02B0347A4003735FA
:104440000020930705B8930600F8A380E700130542
:1044500005B809472380D7002394E702EF0090288E
:10446000B73700200547A382E7066FB0BFD2EFB28F
:104470003FD02A84EFF07FB20347A40037350020F5
:10448000930705B8A380E70003C7519D930600FB7F
:10449000130505B82381E7000D472380D700239437
:1044A000E702EF0030246FB0FFCEEFB27FCC2A845A
:1044B000EFF0BFAE8347B400373500202388F19C6E
:1044C000238EF1980347A400930705B8930600F8DC
:1044D000A380E700130505B809472380D70023947C
:1044E000E702EF0030206FB0FFCAEFB27FC8B734E9
:1044F00000202A84EFF07FAA938704B813070014E2
:104500002391E70003C7019D138904B89387019D98
:1045100001E705472380E70011469305B4001385A2
:104520001700EFB0FFC78347A400130700F81385F7
:1045300004B8A300F90089472300E9002314F90215
:10454000EF00501A6FB01FC5EFB29FC2AA84EFF000
:10455000DFA403C7C4009306000203C5B400930799
:10456000000263E3E600BA8703C7A40013F4F70F61
:1045700037390020B7350020930409B8930600FCB2
:104580002286938545B82380D400A380E400A381CC
:10459000F4002381A4001104EFE0AFC51374F40FFD
:1045A000130509B823948402EF00D0136FB09FBEA7
:1045B000EFB21FBC2A84EFF05F9E0347B400B71729
:1045C0000020373500202384E7320347A4009307F7
:1045D00005B8930600F8A380E700130505B809475E
:1045E0002380D7002394E702EF00D00F6FB09FBA6B
:1045F000EFB21FB82A84EFF05F9A0347A400373563
:104600000020930705B8A380E70013078061930695
:1046100000FD2391E700130505B811472380D7005B
:104620002394E702EF00100C6FB0DFB6EFB25FB477
:104630002A84EFF09F960347A400373500209307A4
:1046400005B8A380E7005147930610FD2381E700DA
:10465000130505B80D472380D7002394E702EF0028
:1046600070086FB03FB3B73700201167938707BB5F
:10467000130707FF98C3116713078702D8C3116791
:104680001307870C98C7116713074716D8C7116718
:104690001307E71A98CB11671307471FD8CB116789
:1046A000130727F898CF1167130787F9D8CF116739
:1046B0001307E72298D3116713072727B8C3116799
:1046C0001307C72EF8C31167130767269166B8C78B
:1046D000938646F91387070814C39166938606FBF1
:1046E00054C391669386E63414C791669386A626D2
:1046F00014CB91669386E62654CB91669386263832
:1047000014D391669386A63854D391669386063C5B
:1047100014D791669386063F54D791669386464296
:1047200034C391669386E64674C39166938666F9B0
:1047300034D31167938707101307A74A98C31167EB
:104740001307A74ED8C31167130747F898C7116717
:1047500013078754D8C711671307075B98D31167EE
:104760001307075FB8C3116713076738F8C31167EA
:104770001307C762B8C7828083C7C19D99C7084124
:104780009305650009056FD02FC38280EFB25F9E4D
:104790002A8483454400084137370020D11593F51A
:1047A000F50F2302B4008347A500130707BB8A0750
:1047B000BA979C4399C3829719A01C43EDFF2285A9
:1047C000EFF09FFB6FB01F9D03474500854763F3E4
:1047D000E7081C41C1C383C717001547FD1793F7AE
:1047E000F70F6369F706EFB2BF9835678A071307BB
:1047F00007A2BA979C43373400208287B70700038B
:104800001305040293871718B73500201CC11946F9
:10481000938565061105EFB0BF9885462946930537
:1048200004021385416DEF00F0106FB0BF9693073F
:1048300010282310F40285460946D5B7930710388F
:10484000CDBF93071048F5B793071058DDB793070E
:104850001068C5B78280B7370020138707FEA30012
:10486000A700F956138625002300D7001376F60F0C
:104870008546938507FE1385416D6F00B00BEFB23F
:104880003F8FB734002037340020B72500201304B1
:1048900004FE1306D0039385C52D138534FE230132
:1048A0000400EFB0FF8F9305E0030545EFF0BFFA7A
:1048B000B725002085471306D003938595311385CE
:1048C00034FE2301F400EFB0BF8D9305E0030545EE
:1048D000EFF07FF8373500201306300381451305CC
:1048E000D5FEEFB05F8DB725002089472946938517
:1048F0006535138534FE2301F400EFB07F8AAD45A2
:104900000545EFF05FF59307F03F89450545231115
:10491000F400EFF05FF46FB0FF87EFB27F850C41DA
:104920001307F00F83C7150003C4619D6396E70466
:1049300083C725002A890147639C870003C7350088
:1049400085476314F700EFC02F92EFC02F950547FE
:10495000B7370020938707FE2381E700032709006C
:104960008945094503473700238B019CA381E70054
:10497000EFF07FEE6FB01F821307D003B387E7021B
:1049800037250020130640081305C52D1D8E3E95C2
:104990006374C7001306D00389050504EFB05F8078
:1049A000238B819CC1BFEFB2AFFC2A84084105056F
:1049B000EFC0EFDB0C40AA84373500201546850593
:1049C000130525FEEFB0CFFD1C40B735002026852E
:1049D00003C65700938575FEEFC08F811C400D45BF
:1049E00083C55700950593F5F50FEFF0DFE66FB03F
:1049F0006FFAEFB2EFF72A8408410505EFC02FD711
:104A00000C40854603C655009905EFC04FBFB73728
:104A100000202381A7FE85451145EFF0DFE36FB04D
:104A20006FF7EFB24FF337340020AA891306000363
:104A30008145130504FBEFB00FF8814A373A002097
:104A400063943A01814425A01305B004EF00307F40
:104A50001949EFE06F9AAA8413052003EF00307E16
:104A60006384040A7D191379F90FE31409FE130412
:104A700004FB4C400840EF60200983A58199EF506A
:104A80005002EF50107F08C04CC008444C44EF6007
:104A9000A00783A54199EF50D000EF50907D08C446
:104AA0004CC408484C48EF60200683A50199EF509C
:104AB000407FEF50107C08C84CC8084C4C4CEF604D
:104AC000A00483A58188EF50C07DEF50907A08CC78
:104AD0004CCC08504C50EF60200383A58188EF50E8
:104AE000407CEF5010794CD008D008544C54EF6003
:104AF000A00183A58188EF50C07AEF50907708D449
:104B00004CD426856FB06FE8930704FB13068AAF79
:104B100013850703984383160600CC43090613D870
:104B2000F641BA9633B7E600C2952E9794C3D8C320
:104B3000A107E311F5FE850A21B7EFB2CFE1EFF04F
:104B40005FEE2A8A631D0516B7340020938404FBA8
:104B5000CC4C884CEF50507B83A5C1883724002073
:104B60001304843AEF50603283A50189EF40707BD3
:104B70008347140803470408AA8AA207D98F33057C
:104B8000F040EF505062AA855685EF409079EF5083
:104B9000905BCC50931705012300A4028850C18379
:104BA000A183A300F402EF50307683A5C188EF50B3
:104BB000C02D83A50189EF40D07683473408034791
:104BC0002408AA8AA207D98F3305F040EF50B05DC0
:104BD000AA855685EF40F074EF50F056CC549317E9
:104BE00005012301A4028854C183A183A301F40217
:104BF000EF50907183A5C188EF50202983A50189CA
:104C0000EF4030720347440883475408AA8AA2073A
:104C1000D98F3305F040EF501059AA855685EF40E3
:104C20005070EF505052CC40931705012302A4025C
:104C30008840C183A183A302F402EF50F06C83A5E6
:104C4000C188EF50802483A50189EF40906DEF501B
:104C5000904FCC44931705012306A4028844C183D6
:104C6000A183A306F402EF50306A83A5C188EF50F8
:104C7000C02183A50189EF40D06AEF50D04CCC48C9
:104C8000931705012307A4028848C183A183A307C2
:104C9000F402EF50706783A5C188EF50001F83A511
:104CA0000189EF401068EF50104A93170501C18346
:104CB000A1832308A402A308F402EFB01FDD5285EC
:104CC0006FB0AFCCEFB2CFCA13052003EFF0FFE611
:104CD00003C7E196B7370020938707FE2381A7001B
:104CE00089451545A381E700EFF0FFB66FB08FCA85
:104CF000EFB20FC81387C18C83560700B727002077
:104D000093870736A380D700A1822381D7008356DB
:104D1000270001468145A381D700A1822382D700C5
:104D200083564700035767002165A382D700A182FD
:104D30002383D700A383E700854621832384E700EC
:104D400023800700EFC0AF8BB73700202381A7FE79
:104D500085451D45EFF03FB06FB0CFC3EFB24FC1F7
:104D6000B7350020938535FE3D45EFD05FC0B7379E
:104D70000020138707FE2301A70003A781819387E3
:104D800007FE01E7054723ACE18083A6818103A7E5
:104D9000819D373500203357D70211469385C1983E
:104DA000130555FE2382E700EFB08FBF3735002093
:104DB000114693858198130595FEEFB06FBEAD4502
:104DC0001305D00FEFF03FA96FB0CFBCEFB24FBAD1
:104DD0000145EF0060752945EF007046B707EFBE4B
:104DE00037E700E0938707083CC76FB0AFBAB73723
:104DF00000201307101089451305F00F2391E7FEDB
:104E00006FF07FA514410546938716001CC18347A8
:104E100045006373F608EFB2AFB5FD172302F50046
:104E200083C716009D4663E0F60295CBFD1793F706
:104E3000F70F994663E5F602B5668A07938686A35F
:104E4000B6979C4382871307E00F638EE702130730
:104E5000F00F6387E7021307D00F6389E7026FB093
:104E60006FB3EFF0DFA1E5BFEFF03FABCDBFEFF0E9
:104E70009FB3F5B7EFF0FFB7DDB7EFF0BFE4C5B70D
:104E8000EFF0FFF6E9BFEFF07FF4D1BFEFF01FEDD9
:104E9000F9B7EFF0FFE5E1B782806FF0CFFCEFB23A
:104EA0002FAD1C411307000883C707006389E70281
:104EB000636AF7000547638EE7004147638EE700AA
:104EC0006FB04FAD1307E00FE39CE7FEEFF09FF3E9
:104ED000C5BFEFF0BF8BEDB7EFF01F8AD5B7EFF08E
:104EE000BF8EF9BF03468502AA8581461385416DB1
:104EF00091A4EFB2EFA741112A848545054502C070
:104F000002C202C402C6EF20D00485452145EF202D
:104F1000500485454145EF20D003BD450545EF20B0
:104F200080381149C14489470A853EC04AC226C417
:104F300022C6EF103078BD450945EF20C036A16785
:104F40000A853EC04AC226C422C6EF10B0769945F3
:104F50000545EF204035930700040A853EC04AC24C
:104F600026C422C6EF1010759D450545EF20A033DD
:104F7000930700080A853EC04AC226C422C6EF1025
:104F80007073B9450545EF20003291670A853EC030
:104F90004AC226C422C6EF10F07141016FB08F9F44
:104FA000EFB20F9D41113715014091474C00130599
:104FB00005C03EC62312F100231301002314010093
:104FC00023150100EF20602041016FB0AF9CEFB2CC
:104FD0002F9A371702405C439146B18B6386D70006
:104FE0005C434167F98F81C70145EF20C063B7F784
:104FF00000E0938707D0984B1367870298CB984BB4
:105000001367870098CB73005010984B1367870085
:1050100098CB730050106FB0EF97EFB26F950145CA
:1050200021232945EF00B0213565130545A5EF5033
:1050300090740145EFE09FD1EFD01FD20545EFF00E
:105040005FEB0545EF20C06213051006EF20E07707
:10505000854719C5EFF0BFF70145EFF09FE981479C
:105060003E856FB02F930DCDEFB2EF8E2A84AE84C4
:1050700005458DC5328A81452D4613059400B689B4
:105080003A89EFB04F93854704C02322440123059A
:1050900034012304F400A308240101456FB0EF8E0E
:1050A00005458280EFB2CF8C9304F00F3DCDB5CD96
:1050B0001C412A84BDCB83440501BDE80347A500FC
:1050C0005C4563D7E7068347150113F9F70F63744F
:1050D000F6001379F60F85471307C400AF27F700D2
:1050E0005C44834794000347A400850793F7F70FB8
:1050F00063E3E700814703451401A304F4004A86F3
:10510000B307F50208403E95EFB08F895C4091C728
:1051100003479400BA97238027018347A40058448B
:105120006345F70085472308F40026856FB08F8616
:105130008544E5BFEFB2CF831309F00F41CDD9C944
:105140001C412A84C1CB03490501631809080347A0
:10515000A5005C4563D3E70883471501B284636506
:10516000F600FD1793F4F70F85471307C400AF2728
:10517000F7005C44834794000347A400850793F736
:10518000F70F63E3E700814703471401A304F4002A
:1051900026863307F7021C40BA972380D70083473F
:1051A0001401034794000840B387E70285073E9542
:1051B000EFA01FFF5C4099C7034794008504BA978E
:1051C000238097008347A40058446345F700854730
:1051D0002308F4004A856FA0FFFB0549E5BFAA87B5
:1051E00031C518411305F00F21C7D84719E3014510
:1051F00082807D579386C7002FA7E600D84703C754
:10520000870083C6A70005071377F70F6363D700EE
:1052100001472384E70003C7070171DBD847B326A2
:10522000D70093C616002388D700D1B71305F00F17
:105230008280EFA2FFF3056501118545110502C0CB
:1052400002C202C402C602C802CA02CC231E010066
:10525000EF202050930700082310F100371501407C
:10526000E1473EC48A858D47130505803EC2EF1095
:10527000D075B7C704013EC6B70700023ECA930700
:1052800000023ECC6C009D4737350140231EF100E3
:1052900002C8EF2060560546894537350140EF20AA
:1052A000205D05616FA01FEFEFA2FFEA79712A84EC
:1052B000AE89328981451306C0024800B684EFA04A
:1052C0009FEF85450545EF20E0462285EF1030270A
:1052D000C1473EC6930700083ECC930700103ECE60
:1052E0004C00856722854EC24AC426C83ED402CAF5
:1052F00002D002D202D6EF10903245616FA0FFE8D3
:10530000B706000141110147814793850182FD16CF
:105310006148137615002E96034606000581331664
:10532000E600D18F0D07F58FE31507FF13950701F1
:1053300041812392A19EC1831375F50F9386419EEF
:105340002381A6002382F19E83D7419E42055D8D75
:1053500041018280EFA23FE08D4AB3045503373408
:1053600000203285130484082E8AB689EFF05FF995
:10537000935785001389A400330959032299230008
:10538000A9004181A300F9002301A9001389B400F9
:1053900033095903B1045285EFF09FF69357850006
:1053A000B384540322992300A90041812301A90059
:1053B0004E85A300F900EFF0BFF4935785002694C3
:1053C0002300A4004181A300F4002301A4006FA0E6
:1053D000DFDBEFA27FD7AA84373500201306301514
:1053E000814513058508EFA01FDD9387817A03CAE5
:1053F00077001384817AE9EC63070A0081453785D9
:105400000200EFC00F8A81448347A40063C4F40004
:105410006FA01FD713F5F40F814601468145EFF0C9
:105420007FF38504D5B783C709001375F90F898BFE
:10543000A5C7814601468145EFF0DFF105098347A5
:10544000A400834B8400E340F9FE854791446393B5
:10545000FB00B1448347940085EB372400201304FC
:10546000C42D8346A40403469404834584042685FE
:10547000EFF05FEE8346940503468405834574058B
:1054800013851400EFF01FEDE3040AF88545378516
:105490000200EFC00F81ADBFB3875403CE9783C620
:1054A000970203C6870283C57702EFF0BFEA6386DF
:1054B0000B00638A6B01850451B79327490093C79A
:1054C0001700BE94A5BF9307C9FF93B74700C5BF98
:1054D000B7290020814401499389C92D8D4A054B84
:1054E000B9BFEFA2FFC8370402401305040381458A
:1054F000EF107016B7370020130504039387870851
:105500005CC583C7217B0D478545B387E702D1077B
:10551000B387E7025CC1EF101014854537350140B1
:10552000EF2020336FA01FC7EFA29FC42A84EFF0A3
:105530005FEA2285EFF0FFFA6FA0DFC5EFA25FC33D
:10554000EFF03FCF0945E52983C7217B0D478D4605
:10555000B387E70237360020B735014037050240F0
:1055600013068608B10513050503D107B386D702D4
:10557000EFF09FD30545EFF03FFB01456FA09FC1C2
:10558000EFA27FBD03C4017BB737002083C6270687
:10559000930720037D14B386F602133414000A0423
:1055A00022859304140093F6F60F3686B685EFF045
:1055B0007FDAB727002003CAC72D9389C72D8146FC
:1055C00013198A0113598941634409009306200382
:1055D0003686B6852685EFF0FFD783C6D19D930723
:1055E000200313053400B386F60293F6F60F3686D1
:1055F000B685EFF03FD6634F090083C7019881E776
:1056000083C7F19681EB81460146930520032685E9
:10561000EFF05FD493770A020904814681EB83C7D8
:10562000190093F7070285C79306200301468145B9
:105630002285EFF03FD283C7819081CB814601461E
:10564000930520032285EFF0FFD06FA01FB48146A1
:1056500013062003E9BFEFA21FB003C4017B03C9F7
:10566000819E7D14133414000A0409C59357490020
:1056700033E927016308090281449149B3579940EE
:1056800033059400858B1375F50F8146014693050C
:10569000200391E381458504EFF0DFCBE39034FFF5
:1056A0006FA0BFAE22859306200313062003930547
:1056B0002003EFF03FCA13051400930620031306DE
:1056C000200393052003EFF0FFC813052400930681
:1056D00020031306200393052003EFF0BFC79306B2
:1056E0002003130620039305200313053400EFF075
:1056F0007FC67DB72384A19E0547238EE1808280EB
:1057000003C7719E6307A700A383A19E0547238E4D
:10571000E1808280EFA2DFA52A84752483A7019E01
:105720001D8D9D4763FDA700792C83C7719E23A023
:10573000A19E81CBEFF0DFE40545EFF09FDA6FA08B
:105740007FA583C7C181E5DF2285EFF0DFF0054546
:10575000EFF03FD9238E0180DDB713050020EF1055
:10576000E0740DC113050010EF108074370502407E
:10577000814513050503EF10006E81453735014063
:10578000EF20200D73002030411102C43717024072
:1057900002C61C43C16637060200D58F1CC3B7166C
:1057A000024015679C42F18F3EC6A24785073EC462
:1057B000B24781E7A247E397E7FEB71702409C4351
:1057C00037070200F98FC9C385473EC63247854770
:1057D000631EF706B72702409843B706C1FFFD16C0
:1057E0001367070198C39843719B98C39843136745
:1057F000270098C3B7170240D843D8C3D843D8C3AB
:10580000D843D8C3D843758FD8C3D843B7061D0033
:10581000558FD8C39843B7060001558F98C3B70674
:1058200000029843758F75DFD843B7160240719B0D
:10583000D8C3D84313672700D8C32147DC42B18BB4
:10584000E39EE7FE4101828002C649B701A0B71777
:1058500002409843B706FFF81367170098C3D84370
:10586000758FD8C39843B706F7FEFD16758F98C39A
:105870009843B706FCFFFD16758F98C3D843B7064B
:1058800081FFFD16758FD8C337079F0098C76FF04B
:10589000BFEF371702405C43A146B18B6391D70637
:1058A0005C4354434166C983BD8BF18E890781EE09
:1058B0003747024003270780418B19CB37177A00FF
:1058C0001307072011A85843B7060200758F7DD72C
:1058D00037173D0013070790B387E70237170240D9
:1058E000544337170020130787279182BD8A3697C4
:1058F00003470700B3D7E70023A2F1828280B717DE
:105900007A0093870720D9BF6FF01FE885453705D8
:105910000040EF20A01B8547631CF50083A7419F33
:10592000854537050040850723AAF19EEF20801C9E
:1059300073002030EFA2DF830111930770043ECA89
:105940004C089307703E370500403ECCEF10B07313
:105950000546854537050040EF2080108545370511
:105960000040EF20C00C9307C0022316F1008947C6
:105970002307F100680085473EC8EF10B03C9967E7
:1059800037E700E09387C7907CC3B207B706002CC7
:10599000B183D58F7CD305616FA0CFFF03A7C19ED4
:1059A00011E7054723A6E19E6FF0DFF8828083A709
:1059B000419F1307803EB387E70237070040035536
:1059C00047023E95828003A5419F828083A7418242
:1059D00037177A0013070720B3D7E7022388F19E11
:1059E000828019E501458280014541016FA08FFA4F
:1059F000EFA20FF841112A84AE843289EFF03FFB09
:105A00002AC6268502946DF1EFF07FFAB2471D8D0C
:105A1000E379A9FE2685029413351500F9B7EFA2A4
:105A20002FF541112A84EFF09FF82AC6EFF03FF8D6
:105A3000B2471D8DE37CA4FE41016FA0AFF583A7A3
:105A4000419F41113EC683A7419FB246958FE37C9B
:105A5000F5FE41018280034625009306350001478B
:105A60001376F6079D4503C80600B357E6409E0728
:105A7000B3E707012380F60005078506E315B7FEA7
:105A8000834715000347A50095838D8B9396770078
:105A9000558F2305E5000347B5009A0793F707F8EC
:105AA000D98FA305F5008280EFA28FEC79711306E0
:105AB000C00281454800EFA00FF037040240814545
:105AC00013054404EF10203913054404EF10202778
:105AD000B7440140938744803EC2C1473EC6930706
